{
  "abi": [
    {
      "inputs": [
        {
          "internalType": "address",
          "name": "_factoryV2",
          "type": "address"
        }
      ],
      "stateMutability": "nonpayable",
      "type": "constructor"
    },
    {
      "inputs": [],
      "name": "PairLookupFailed",
      "type": "error"
    },
    {
      "inputs": [],
      "name": "SameToken",
      "type": "error"
    },
    {
      "inputs": [
        {
          "internalType": "address[]",
          "name": "tokens",
          "type": "address[]"
        },
        {
          "internalType": "address",
          "name": "baseToken",
          "type": "address"
        },
        {
          "internalType": "uint256",
          "name": "amountToBorrow",
          "type": "uint256"
        }
      ],
      "name": "batchValidate",
      "outputs": [
        {
          "components": [
            {
              "internalType": "uint256",
              "name": "buyFeeBps",
              "type": "uint256"
            },
            {
              "internalType": "uint256",
              "name": "sellFeeBps",
              "type": "uint256"
            }
          ],
          "internalType": "struct TokenFees[]",
          "name": "fotResults",
          "type": "tuple[]"
        }
      ],
      "stateMutability": "nonpayable",
      "type": "function"
    },
    {
      "inputs": [
        {
          "internalType": "address",
          "name": "",
          "type": "address"
        },
        {
          "internalType": "uint256",
          "name": "amount0",
          "type": "uint256"
        },
        {
          "internalType": "uint256",
          "name": "",
          "type": "uint256"
        },
        {
          "internalType": "bytes",
          "name": "data",
          "type": "bytes"
        }
      ],
      "name": "uniswapV2Call",
      "outputs": [],
      "stateMutability": "nonpayable",
      "type": "function"
    },
    {
      "inputs": [
        {
          "internalType": "address",
          "name": "token",
          "type": "address"
        },
        {
          "internalType": "address",
          "name": "baseToken",
          "type": "address"
        },
        {
          "internalType": "uint256",
          "name": "amountToBorrow",
          "type": "uint256"
        }
      ],
      "name": "validate",
      "outputs": [
        {
          "components": [
            {
              "internalType": "uint256",
              "name": "buyFeeBps",
              "type": "uint256"
            },
            {
              "internalType": "uint256",
              "name": "sellFeeBps",
              "type": "uint256"
            }
          ],
          "internalType": "struct TokenFees",
          "name": "fotResult",
          "type": "tuple"
        }
      ],
      "stateMutability": "nonpayable",
      "type": "function"
    }
  ],
  "bytecode": {
    "object": "60a060405234801561001057600080fd5b50604051610e37380380610e3783398101604081905261002f91610040565b6001600160a01b0316608052610070565b60006020828403121561005257600080fd5b81516001600160a01b038116811461006957600080fd5b9392505050565b608051610dac61008b60003960006105810152610dac6000f3fe608060405234801561001057600080fd5b50600436106100415760003560e01c806310d1e85c14610046578063aa3ad4e41461005b578063ade4459714610084575b600080fd5b610059610054366004610973565b6100a4565b005b61006e610069366004610a09565b610435565b60405161007b9190610a4a565b60405180910390f35b610097610092366004610a61565b61045c565b60405161007b9190610aed565b6000339050600080826001600160a01b0316630dfe16816040518163ffffffff1660e01b8152600401602060405180830381865afa1580156100ea573d6000803e3d6000fd5b505050506040513d601f19601f8201168201806040525081019061010e9190610b44565b836001600160a01b031663d21220a76040518163ffffffff1660e01b8152600401602060405180830381865afa15801561014c573d6000803e3d6000fd5b505050506040513d601f19601f820116820180604052508101906101709190610b44565b9150915060008088116101835781610185565b825b905060008061019687890189610b68565b6040516370a0823160e01b8152306004820152919350915060009083906001600160a01b038616906370a0823190602401602060405180830381865afa1580156101e4573d6000803e3d6000fd5b505050506040513d601f19601f820116820180604052508101906102089190610b8a565b6102129190610bb9565b90506000826127106102248483610bb9565b61022e9190610bcc565b6102389190610be3565b6040516370a0823160e01b81526001600160a01b038a81166004830152919250908616906370a0823190602401602060405180830381865afa158015610282573d6000803e3d6000fd5b505050506040513d601f19601f820116820180604052508101906102a69190610b8a565b60405163a9059cbb60e01b81526001600160a01b038a811660048301526024820185905291955060009187169063a9059cbb906044016020604051808303816000875af1925050508015610317575060408051601f3d908101601f1916820190925261031491810190610c05565b60015b610354573d808015610345576040519150601f19603f3d011682016040523d82523d6000602084013e61034a565b606091505b50829150506103f5565b506040516370a0823160e01b81526001600160a01b038a8116600483015260009187918916906370a0823190602401602060405180830381865afa1580156103a0573d6000803e3d6000fd5b505050506040513d601f19601f820116820180604052508101906103c49190610b8a565b6103ce9190610bb9565b6103d89085610bb9565b9050836103e761271083610bcc565b6103f19190610be3565b9150505b600060405180604001604052808481526020018381525060405160200161041c9190610a4a565b6040516020818303038152906040529050805181602001fd5b6040805180820190915260008082526020820152610454848484610534565b949350505050565b60608367ffffffffffffffff81111561047757610477610c27565b6040519080825280602002602001820160405280156104bc57816020015b60408051808201909152600080825260208201528152602001906001900390816104955790505b50905060005b8481101561052b576104fb8686838181106104df576104df610c3d565b90506020020160208101906104f49190610c53565b8585610534565b82828151811061050d5761050d610c3d565b6020026020010181905250808061052390610c70565b9150506104c2565b50949350505050565b6040805180820190915260008082526020820152826001600160a01b0316846001600160a01b03160361057a5760405163100dac0560e11b815260040160405180910390fd5b60006105a77f000000000000000000000000000000000000000000000000000000000000000086866107e0565b60408051600481526024810182526020810180516001600160e01b0316630dfe168160e01b17905290519192506000916001600160a01b038416916105eb91610cad565b6000604051808303816000865af19150503d8060008114610628576040519150601f19603f3d011682016040523d82523d6000602084013e61062d565b606091505b509150508051600003610653576040516310df924f60e31b815260040160405180910390fd5b6000818060200190518101906106699190610b44565b9050600080826001600160a01b0316896001600160a01b03161461068f57600087610693565b8660005b6040516370a0823160e01b815230600482015291935091506000906001600160a01b038b16906370a0823190602401602060405180830381865afa1580156106df573d6000803e3d6000fd5b505050506040513d601f19601f820116820180604052508101906107039190610b8a565b90506000869050806001600160a01b031663022c0d9f858530868e604051602001610738929190918252602082015260400190565b6040516020818303038152906040526040518563ffffffff1660e01b81526004016107669493929190610cc9565b600060405180830381600087803b15801561078057600080fd5b505af1925050508015610791575060015b6107d2573d8080156107bf576040519150601f19603f3d011682016040523d82523d6000602084013e6107c4565b606091505b506107ce816108b9565b9850505b505050505050509392505050565b60008060006107ef85856108f8565b6040516bffffffffffffffffffffffff19606084811b8216602084015283901b16603482015291935091508690604801604051602081830303815290604052805190602001206040516020016108979291906001600160f81b0319815260609290921b6bffffffffffffffffffffffff1916600183015260158201527f96e8ac4277198ff8b6f785478aa9a39f403cb768dd02cbee326c3e7da348845f603582015260550190565b60408051601f1981840301815291905280516020909101209695505050505050565b604080518082019091526000808252602082015281516040146108de57815182602001fd5b818060200190518101906108f29190610d19565b92915050565b600080826001600160a01b0316846001600160a01b03160361091957600080fd5b826001600160a01b0316846001600160a01b03161061093957828461093c565b83835b90925090506001600160a01b03821661095457600080fd5b9250929050565b6001600160a01b038116811461097057600080fd5b50565b60008060008060006080868803121561098b57600080fd5b85356109968161095b565b94506020860135935060408601359250606086013567ffffffffffffffff808211156109c157600080fd5b818801915088601f8301126109d557600080fd5b8135818111156109e457600080fd5b8960208285010111156109f657600080fd5b9699959850939650602001949392505050565b600080600060608486031215610a1e57600080fd5b8335610a298161095b565b92506020840135610a398161095b565b929592945050506040919091013590565b8151815260208083015190820152604081016108f2565b60008060008060608587031215610a7757600080fd5b843567ffffffffffffffff80821115610a8f57600080fd5b818701915087601f830112610aa357600080fd5b813581811115610ab257600080fd5b8860208260051b8501011115610ac757600080fd5b60209283019650945050850135610add8161095b565b9396929550929360400135925050565b602080825282518282018190526000919060409081850190868401855b82811015610b3757610b2784835180518252602090810151910152565b9284019290850190600101610b0a565b5091979650505050505050565b600060208284031215610b5657600080fd5b8151610b618161095b565b9392505050565b60008060408385031215610b7b57600080fd5b50508035926020909101359150565b600060208284031215610b9c57600080fd5b5051919050565b634e487b7160e01b600052601160045260246000fd5b818103818111156108f2576108f2610ba3565b80820281158282048414176108f2576108f2610ba3565b600082610c0057634e487b7160e01b600052601260045260246000fd5b500490565b600060208284031215610c1757600080fd5b81518015158114610b6157600080fd5b634e487b7160e01b600052604160045260246000fd5b634e487b7160e01b600052603260045260246000fd5b600060208284031215610c6557600080fd5b8135610b618161095b565b600060018201610c8257610c82610ba3565b5060010190565b60005b83811015610ca4578181015183820152602001610c8c565b50506000910152565b60008251610cbf818460208701610c89565b9190910192915050565b84815283602082015260018060a01b03831660408201526080606082015260008251806080840152610d028160a0850160208701610c89565b601f01601f19169190910160a00195945050505050565b600060408284031215610d2b57600080fd5b6040516040810181811067ffffffffffffffff82111715610d5c57634e487b7160e01b600052604160045260246000fd5b60405282518152602092830151928101929092525091905056fea26469706673582212203eb93a711b0beb9dbc4ceba31645ccc8ca29d227aad8aa31f93ed1a38a0bb9ad64736f6c634300081300330000000000000000000000005c69bee701ef814a2b6a3edd4b1652cb9cc5aa6f"
  },
  "deployedBytecode": {
    "object": "0x608060405234801561001057600080fd5b50600436106100415760003560e01c806310d1e85c14610046578063aa3ad4e41461005b578063ade4459714610084575b600080fd5b610059610054366004610973565b6100a4565b005b61006e610069366004610a09565b610435565b60405161007b9190610a4a565b60405180910390f35b610097610092366004610a61565b61045c565b60405161007b9190610aed565b6000339050600080826001600160a01b0316630dfe16816040518163ffffffff1660e01b8152600401602060405180830381865afa1580156100ea573d6000803e3d6000fd5b505050506040513d601f19601f8201168201806040525081019061010e9190610b44565b836001600160a01b031663d21220a76040518163ffffffff1660e01b8152600401602060405180830381865afa15801561014c573d6000803e3d6000fd5b505050506040513d601f19601f820116820180604052508101906101709190610b44565b9150915060008088116101835781610185565b825b905060008061019687890189610b68565b6040516370a0823160e01b8152306004820152919350915060009083906001600160a01b038616906370a0823190602401602060405180830381865afa1580156101e4573d6000803e3d6000fd5b505050506040513d601f19601f820116820180604052508101906102089190610b8a565b6102129190610bb9565b90506000826127106102248483610bb9565b61022e9190610bcc565b6102389190610be3565b6040516370a0823160e01b81526001600160a01b038a81166004830152919250908616906370a0823190602401602060405180830381865afa158015610282573d6000803e3d6000fd5b505050506040513d601f19601f820116820180604052508101906102a69190610b8a565b60405163a9059cbb60e01b81526001600160a01b038a811660048301526024820185905291955060009187169063a9059cbb906044016020604051808303816000875af1925050508015610317575060408051601f3d908101601f1916820190925261031491810190610c05565b60015b610354573d808015610345576040519150601f19603f3d011682016040523d82523d6000602084013e61034a565b606091505b50829150506103f5565b506040516370a0823160e01b81526001600160a01b038a8116600483015260009187918916906370a0823190602401602060405180830381865afa1580156103a0573d6000803e3d6000fd5b505050506040513d601f19601f820116820180604052508101906103c49190610b8a565b6103ce9190610bb9565b6103d89085610bb9565b9050836103e761271083610bcc565b6103f19190610be3565b9150505b600060405180604001604052808481526020018381525060405160200161041c9190610a4a565b6040516020818303038152906040529050805181602001fd5b6040805180820190915260008082526020820152610454848484610534565b949350505050565b60608367ffffffffffffffff81111561047757610477610c27565b6040519080825280602002602001820160405280156104bc57816020015b60408051808201909152600080825260208201528152602001906001900390816104955790505b50905060005b8481101561052b576104fb8686838181106104df576104df610c3d565b90506020020160208101906104f49190610c53565b8585610534565b82828151811061050d5761050d610c3d565b6020026020010181905250808061052390610c70565b9150506104c2565b50949350505050565b6040805180820190915260008082526020820152826001600160a01b0316846001600160a01b03160361057a5760405163100dac0560e11b815260040160405180910390fd5b60006105a77f0000000000000000000000005c69bee701ef814a2b6a3edd4b1652cb9cc5aa6f86866107e0565b60408051600481526024810182526020810180516001600160e01b0316630dfe168160e01b17905290519192506000916001600160a01b038416916105eb91610cad565b6000604051808303816000865af19150503d8060008114610628576040519150601f19603f3d011682016040523d82523d6000602084013e61062d565b606091505b509150508051600003610653576040516310df924f60e31b815260040160405180910390fd5b6000818060200190518101906106699190610b44565b9050600080826001600160a01b0316896001600160a01b03161461068f57600087610693565b8660005b6040516370a0823160e01b815230600482015291935091506000906001600160a01b038b16906370a0823190602401602060405180830381865afa1580156106df573d6000803e3d6000fd5b505050506040513d601f19601f820116820180604052508101906107039190610b8a565b90506000869050806001600160a01b031663022c0d9f858530868e604051602001610738929190918252602082015260400190565b6040516020818303038152906040526040518563ffffffff1660e01b81526004016107669493929190610cc9565b600060405180830381600087803b15801561078057600080fd5b505af1925050508015610791575060015b6107d2573d8080156107bf576040519150601f19603f3d011682016040523d82523d6000602084013e6107c4565b606091505b506107ce816108b9565b9850505b505050505050509392505050565b60008060006107ef85856108f8565b6040516bffffffffffffffffffffffff19606084811b8216602084015283901b16603482015291935091508690604801604051602081830303815290604052805190602001206040516020016108979291906001600160f81b0319815260609290921b6bffffffffffffffffffffffff1916600183015260158201527f96e8ac4277198ff8b6f785478aa9a39f403cb768dd02cbee326c3e7da348845f603582015260550190565b60408051601f1981840301815291905280516020909101209695505050505050565b604080518082019091526000808252602082015281516040146108de57815182602001fd5b818060200190518101906108f29190610d19565b92915050565b600080826001600160a01b0316846001600160a01b03160361091957600080fd5b826001600160a01b0316846001600160a01b03161061093957828461093c565b83835b90925090506001600160a01b03821661095457600080fd5b9250929050565b6001600160a01b038116811461097057600080fd5b50565b60008060008060006080868803121561098b57600080fd5b85356109968161095b565b94506020860135935060408601359250606086013567ffffffffffffffff808211156109c157600080fd5b818801915088601f8301126109d557600080fd5b8135818111156109e457600080fd5b8960208285010111156109f657600080fd5b9699959850939650602001949392505050565b600080600060608486031215610a1e57600080fd5b8335610a298161095b565b92506020840135610a398161095b565b929592945050506040919091013590565b8151815260208083015190820152604081016108f2565b60008060008060608587031215610a7757600080fd5b843567ffffffffffffffff80821115610a8f57600080fd5b818701915087601f830112610aa357600080fd5b813581811115610ab257600080fd5b8860208260051b8501011115610ac757600080fd5b60209283019650945050850135610add8161095b565b9396929550929360400135925050565b602080825282518282018190526000919060409081850190868401855b82811015610b3757610b2784835180518252602090810151910152565b9284019290850190600101610b0a565b5091979650505050505050565b600060208284031215610b5657600080fd5b8151610b618161095b565b9392505050565b60008060408385031215610b7b57600080fd5b50508035926020909101359150565b600060208284031215610b9c57600080fd5b5051919050565b634e487b7160e01b600052601160045260246000fd5b818103818111156108f2576108f2610ba3565b80820281158282048414176108f2576108f2610ba3565b600082610c0057634e487b7160e01b600052601260045260246000fd5b500490565b600060208284031215610c1757600080fd5b81518015158114610b6157600080fd5b634e487b7160e01b600052604160045260246000fd5b634e487b7160e01b600052603260045260246000fd5b600060208284031215610c6557600080fd5b8135610b618161095b565b600060018201610c8257610c82610ba3565b5060010190565b60005b83811015610ca4578181015183820152602001610c8c565b50506000910152565b60008251610cbf818460208701610c89565b9190910192915050565b84815283602082015260018060a01b03831660408201526080606082015260008251806080840152610d028160a0850160208701610c89565b601f01601f19169190910160a00195945050505050565b600060408284031215610d2b57600080fd5b6040516040810181811067ffffffffffffffff82111715610d5c57634e487b7160e01b600052604160045260246000fd5b60405282518152602092830151928101929092525091905056fea26469706673582212203eb93a711b0beb9dbc4ceba31645ccc8ca29d227aad8aa31f93ed1a38a0bb9ad64736f6c63430008130033"
  }
}