{
  "abi": [
    {
      "type": "constructor",
      "inputs": [
        {
          "name": "_factory",
          "type": "address",
          "internalType": "address"
        },
        {
          "name": "_factoryV2",
          "type": "address",
          "internalType": "address"
        },
        {
          "name": "_WETH9",
          "type": "address",
          "internalType": "address"
        }
      ],
      "stateMutability": "nonpayable"
    },
    {
      "type": "function",
      "name": "WETH9",
      "inputs": [],
      "outputs": [
        {
          "name": "",
          "type": "address",
          "internalType": "address"
        }
      ],
      "stateMutability": "view"
    },
    {
      "type": "function",
      "name": "factory",
      "inputs": [],
      "outputs": [
        {
          "name": "",
          "type": "address",
          "internalType": "address"
        }
      ],
      "stateMutability": "view"
    },
    {
      "type": "function",
      "name": "factoryV2",
      "inputs": [],
      "outputs": [
        {
          "name": "",
          "type": "address",
          "internalType": "address"
        }
      ],
      "stateMutability": "view"
    },
    {
      "type": "function",
      "name": "quoteExactInput",
      "inputs": [
        {
          "name": "path",
          "type": "bytes",
          "internalType": "bytes"
        },
        {
          "name": "amountIn",
          "type": "uint256",
          "internalType": "uint256"
        }
      ],
      "outputs": [
        {
          "name": "amountOut",
          "type": "uint256",
          "internalType": "uint256"
        },
        {
          "name": "v3SqrtPriceX96AfterList",
          "type": "uint160[]",
          "internalType": "uint160[]"
        },
        {
          "name": "v3InitializedTicksCrossedList",
          "type": "uint32[]",
          "internalType": "uint32[]"
        },
        {
          "name": "v3SwapGasEstimate",
          "type": "uint256",
          "internalType": "uint256"
        }
      ],
      "stateMutability": "nonpayable"
    },
    {
      "type": "function",
      "name": "quoteExactInputSingleV2",
      "inputs": [
        {
          "name": "params",
          "type": "tuple",
          "internalType": "struct IMixedRouteQuoterV1.QuoteExactInputSingleV2Params",
          "components": [
            {
              "name": "tokenIn",
              "type": "address",
              "internalType": "address"
            },
            {
              "name": "tokenOut",
              "type": "address",
              "internalType": "address"
            },
            {
              "name": "amountIn",
              "type": "uint256",
              "internalType": "uint256"
            }
          ]
        }
      ],
      "outputs": [
        {
          "name": "amountOut",
          "type": "uint256",
          "internalType": "uint256"
        }
      ],
      "stateMutability": "view"
    },
    {
      "type": "function",
      "name": "quoteExactInputSingleV3",
      "inputs": [
        {
          "name": "params",
          "type": "tuple",
          "internalType": "struct IMixedRouteQuoterV1.QuoteExactInputSingleV3Params",
          "components": [
            {
              "name": "tokenIn",
              "type": "address",
              "internalType": "address"
            },
            {
              "name": "tokenOut",
              "type": "address",
              "internalType": "address"
            },
            {
              "name": "amountIn",
              "type": "uint256",
              "internalType": "uint256"
            },
            {
              "name": "fee",
              "type": "uint24",
              "internalType": "uint24"
            },
            {
              "name": "sqrtPriceLimitX96",
              "type": "uint160",
              "internalType": "uint160"
            }
          ]
        }
      ],
      "outputs": [
        {
          "name": "amountOut",
          "type": "uint256",
          "internalType": "uint256"
        },
        {
          "name": "sqrtPriceX96After",
          "type": "uint160",
          "internalType": "uint160"
        },
        {
          "name": "initializedTicksCrossed",
          "type": "uint32",
          "internalType": "uint32"
        },
        {
          "name": "gasEstimate",
          "type": "uint256",
          "internalType": "uint256"
        }
      ],
      "stateMutability": "nonpayable"
    },
    {
      "type": "function",
      "name": "uniswapV3SwapCallback",
      "inputs": [
        {
          "name": "amount0Delta",
          "type": "int256",
          "internalType": "int256"
        },
        {
          "name": "amount1Delta",
          "type": "int256",
          "internalType": "int256"
        },
        {
          "name": "path",
          "type": "bytes",
          "internalType": "bytes"
        }
      ],
      "outputs": [],
      "stateMutability": "view"
    }
  ],
  "bytecode": {
    "object": "0x60e034620000b157601f62001aac38819003918201601f19168301916001600160401b03831184841017620000b657808492606094604052833981010312620000b1576200004d81620000cc565b6200006960406200006160208501620000cc565b9301620000cc565b9060805260a05260c0526040516119ca9081620000e282396080518181816102f3015281816104c00152610d1b015260a05181609c015260c05181818160e701526106ad0152f35b600080fd5b634e487b7160e01b600052604160045260246000fd5b51906001600160a01b0382168203620000b15756fe6080604052600436101561001257600080fd5b6000803560e01c9081634aa4a4fc1461008a5750806368e0d4e1146100855780638a49928614610080578063b174a0a71461007b578063c45a015514610076578063cdca1753146100715763fa461e331461006c57600080fd5b610453565b610385565b6102dd565b61022e565b6101d9565b6100d1565b346100ce57806003193601126100ce577f00000000000000000000000000000000000000000000000000000000000000006001600160a01b03166080908152602090f35b80fd5b34610116576000366003190112610116576040517f00000000000000000000000000000000000000000000000000000000000000006001600160a01b03168152602090f35b600080fd5b634e487b7160e01b600052604160045260246000fd5b6060810190811067ffffffffffffffff82111761014d57604052565b61011b565b60a0810190811067ffffffffffffffff82111761014d57604052565b6080810190811067ffffffffffffffff82111761014d57604052565b90601f8019910116810190811067ffffffffffffffff82111761014d57604052565b604051906101b982610152565b565b604051906101b982610131565b6001600160a01b0381160361011657565b346101165760603660031901126101165760206102266040516101fb81610131565b600435610207816101c8565b8152602435610215816101c8565b83820152604435604082015261061d565b604051908152f35b346101165760a03660031901126101165760405161024b81610152565b600435610257816101c8565b8152602435610265816101c8565b6020820152604435604082015260643562ffffff8116810361011657816102a49160606102d994015260843561029a816101c8565b608082015261089e565b604080519485526001600160a01b03909316602085015263ffffffff9091169183019190915260608201529081906080820190565b0390f35b34610116576000366003190112610116576040517f00000000000000000000000000000000000000000000000000000000000000006001600160a01b03168152602090f35b67ffffffffffffffff811161014d57601f01601f191660200190565b81601f820112156101165780359061035582610322565b92610363604051948561018a565b8284526020838301011161011657816000926020809301838601378301015290565b346101165760403660031901126101165760043567ffffffffffffffff8111610116576103b96103c291369060040161033e565b60243590610b13565b92604051926080840191845260209160808386015281518091528260a0860192019060005b81811061043657505050838103604085015281808451928381520193019160005b82811061041c578580868960608301520390f35b835163ffffffff1685529381019392810192600101610408565b82516001600160a01b0316845292840192918401916001016103e7565b346101165760603660031901126101165760043560243560443567ffffffffffffffff81116101165761048b6004913690830161033e565b916000936104ac85821394858015610614575b6104a790610c62565b610e89565b929091956104e46104be85858a6110a3565b7f00000000000000000000000000000000000000000000000000000000000000006118d8565b50156105e757506001600160a01b039260e092610523926105179261050890610c69565b95808216908916109597610d03565b6001600160a01b031690565b60405193848092633850c7bd851b82525afa9182156105e25784926105a7575b501561055e5760609260405192835260208301526040820152fd5b60405162461bcd60e51b815260206004820181905260248201527f4578616374206f75747075742071756f7465206e6f7420737570706f727465646044820152606490fd5b0390fd5b9093506105cc915060e03d60e0116105db575b6105c4818361018a565b810190610c97565b50505050509290929038610543565b503d6105ba565b610850565b6001600160a01b03935060e092610523926105179261060590610c69565b95808916908216109597610d03565b5086841361049e565b604081015181516020909201516004926001600160a01b039182169190811661065161064984836118f5565b5093826118f5565b929061071b61051761051761051760405197602089016bffffffffffffffffffffffff19998a809360609c8d9a8b1b168452891b1660348201526028815261069881610131565b51902060405190602082019260ff60f81b84527f0000000000000000000000000000000000000000000000000000000000000000891b16602183015260358201527f96e8ac4277198ff8b6f785478aa9a39f403cb768dd02cbee326c3e7da348845f60558201526055815261070c8161016e565b5190206001600160a01b031690565b604051630240bc6b60e21b815297889182905afa9283156105e2576107659660009160009561076e575b50506001600160701b038091169316931614600014610768579091610ffd565b90565b91610ffd565b61079293955080919250903d1061079c575b61078a818361018a565b810190610fc7565b5092903880610745565b503d610780565b634e487b7160e01b600052601160045260246000fd5b9190826040910312610116576020825192015190565b60005b8381106107e25750506000910152565b81810151838201526020016107d2565b9060209161080b815180928185528580860191016107cf565b601f01601f1916010190565b6001600160a01b039182168152911515602083015260408201929092529116606082015260a060808201819052610765929101906107f2565b6040513d6000823e3d90fd5b3d15610887573d9061086d82610322565b9161087b604051938461018a565b82523d6000602084013e565b606090565b9190820391821161089957565b6107a3565b80516020820180516060840180516000969591946001600160a01b039488948594859492938593928916908916818110936108df929062ffffff1691610d03565b975a99604094859461099f6108f687870151610d43565b60808701519094906001600160a01b0316808716610a5457508215610a2e5761099161094f6109416109376401000276a45b9a5b516001600160a01b031690565b935162ffffff1690565b9b516001600160a01b031690565b89519b8c93602085019192602b936bffffffffffffffffffffffff19809360601b16845262ffffff60e81b9060e81b16601484015260601b1660178201520190565b03601f1981018a528961018a565b6109bf865198899687958694630251596160e31b86523060048701610817565b03928b165af19182610a03575b50506109fc575050506109f49293506109ee6109e661085c565b925a9061088c565b91610d52565b929391929091565b9250925092565b81610a2292903d10610a27575b610a1a818361018a565b8101906107b9565b6109cc565b503d610a10565b61099161094f61094161093773fffd8963efd1fc6a506488495d951d5263988d25610928565b61094f610941610937610991939a61092a565b67ffffffffffffffff811161014d5760051b60200190565b90610a8982610a67565b610a96604051918261018a565b8281528092610aa7601f1991610a67565b0190602036910137565b8051821015610ac55760209160051b010190565b634e487b7160e01b600052603260045260246000fd5b90601f820180921161089957565b601701908160171161089957565b9190820180921161089957565b60001981146108995760010190565b9190600091600090610b2c610b2786610e75565b610a7f565b9485610b3a610b2783610e75565b946000905b610b4884610e89565b91929162800000811615610bc3575091610b9791610b8d610b9d94610b7d610b6e6101bb565b6001600160a01b039095168552565b6001600160a01b03166020840152565b604082015261061d565b91610b04565b92604281511015600014610bbb57610bb490610f04565b9290610b3f565b509695505050565b97610c23610b9d94610c18610c419b610c5b96610c07610c5697610bf7610be86101ac565b6001600160a01b039097168752565b6001600160a01b03166020860152565b604084015262ffffff166060830152565b8c608082015261089e565b94929b9091610c32898b610ab1565b6001600160a01b039091169052565b610c4b878d610ab1565b9063ffffffff169052565b610af7565b9591610b04565b1561011657565b600160ff1b81146108995760000390565b51908160020b820361011657565b519061ffff8216820361011657565b908160e0910312610116578051610cad816101c8565b91610cba60208301610c7a565b91610cc760408201610c88565b91610cd460608301610c88565b91610ce160808201610c88565b9160a082015160ff811681036101165760c09092015180151581036101165790565b6001600160a01b0392610d3f92610d19926110a3565b7f00000000000000000000000000000000000000000000000000000000000000006110ff565b1690565b600160ff1b8110156101165790565b604051633850c7bd60e01b815291939192919060e0846004816001600160a01b0389165afa9384156105e257600094610e28575b50805160608103610db85750610da881602080610db1945183010191016112d5565b919590966113c2565b9293929190565b604411610df057610dd88160248060046105a39501518301019101611265565b60405162461bcd60e51b8152918291600483016112c4565b60405162461bcd60e51b815260206004820152601060248201526f2ab732bc3832b1ba32b21032b93937b960811b6044820152606490fd5b610e4291945060e03d60e0116105db576105c4818361018a565b505050505090509238610d86565b634e487b7160e01b600052601260045260246000fd5b8115610e70570490565b610e50565b516013198101908111610899576017900490565b90610e98601483511015611817565b602082015160601c916017815110610ec8576037601782015191610ec0602b82511015611817565b015160601c91565b60405162461bcd60e51b8152602060048201526014602482015273746f55696e7432345f6f75744f66426f756e647360601b6044820152606490fd5b8051601619918282019082821161089957610f2982610f2281610adb565b101561185b565b610f376017610f2284610ae9565b610f4c8151610f4584610ae9565b1115611898565b60178303610f695750505050604051600081526020810160405290565b601760405194601f8416801560051b9182828901019687010193010101905b808410610fa05750508252601f01601f191660405290565b9092835181526020809101930190610f88565b51906001600160701b038216820361011657565b9081606091031261011657610fdb81610fb3565b916040610fea60208401610fb3565b92015163ffffffff811681036101165790565b9091811561105e5782151580611055575b15610116576103e580830292830480820361089957036101165761103561103b918361195e565b92611924565b908101908181116108995781106101165761076591610e66565b5080151561100e565b60405162461bcd60e51b815260206004820152601960248201527f494e53554646494349454e545f494e5055545f414d4f554e54000000000000006044820152606490fd5b9162ffffff916000604080516110b881610131565b8281526020810183905201526001600160a01b0390808216858316116110f9575b81604051956110e787610131565b16855216602084015216604082015290565b936110d9565b81516020830180519092916001600160a01b03908116911611156101165761125961070c610765946105179460008060405160208101906327b7cf8560e01b82527f33e0e214aaaa311945afafd84672c570c653a094e74e911ed49689d566f71cd360248201526024815261117381610131565b51906a636f6e736f6c652e6c6f675afa5081516111b3906040906111a8906001600160a01b031693516001600160a01b031690565b93015162ffffff1690565b604080516001600160a01b0393841660208201908152949093169083015262ffffff166060808301919091528152601f1991906111f160808261018a565b5190206040516001600160f81b03196020820190815260609690961b6bffffffffffffffffffffffff1916602182015260358101919091527f33e0e214aaaa311945afafd84672c570c653a094e74e911ed49689d566f71cd360558201529283906075820190565b0390810183528261018a565b6020818303126101165780519067ffffffffffffffff8211610116570181601f8201121561011657805161129881610322565b926112a6604051948561018a565b818452602082840101116101165761076591602080850191016107cf565b9060206107659281815201906107f2565b9081606091031261011657805191610765604060208401516112f6816101c8565b9301610c7a565b908160209103126101165761076590610c7a565b60020b9060020b908115610e7057627fffff198114600019831416610899570590565b9060020b908115610e705760020b0790565b60020b6101000190627fffff8213627fffff1983121761089957565b90816020910312610116575190565b60ff1660ff039060ff821161089957565b91909163ffffffff8080941691160191821161089957565b60010b617fff81146108995760010190565b63ffffffff908116600019019190821161089957565b6040516334324e9f60e21b8152909392600092916020816004816001600160a01b038a165afa80156105e257611401916000916117f8575b5083611311565b6040516334324e9f60e21b81529094906020816004816001600160a01b038b165afa80156105e25761143b916000916117f8575083611311565b9460020b90610100928383079660008860020b126117e8575b60020b9384079260008460020b126117d8575b60405163299ce14b60e11b8152600886901d60010b60048201526020816024816001600160a01b038e165afa9081156105e2576000916117b9575b5060018560ff161b1615159586611753575b86611742575b60405163299ce14b60e11b8152600883901d60010b60048201526020816024816001600160a01b038f165afa9081156105e257600091611723575b5060018a60ff161b16151592836116a7575b83611695575b50508460081d60010b8160081d60010b12801561166f575b1561164c5760081d60010b9660ff169360081d60010b9260ff1693969590965b60ff60001991161b5b8360010b8760010b1361161f578360010b8760010b14611602575b60405163299ce14b60e11b8152600188900b6004820152916020836024816001600160a01b038e165afa80156105e2576115b76115c4936115be926115ca966000916115d3575b5016611997565b61ffff1690565b90611382565b9561139a565b9460001961154e565b6115f5915060203d6020116115fb575b6115ed818361018a565b810190611362565b386115b0565b503d6115e3565b61161961160e86611371565b60ff60001991161c90565b16611569565b509594509550505061163c575b6116335790565b610765906113ac565b90611646906113ac565b9061162c565b9360089793971d60010b9660ff169360081d60010b9260ff169396959096611545565b508460081d60010b8160081d60010b148015611525575060ff841660ff89161115611525565b600290810b91900b129150388061150d565b6040516334324e9f60e21b81529093506020816004816001600160a01b038f165afa9081156105e2576116ed916116e7916000916116f4575b5083611334565b60020b90565b1592611507565b611716915060203d60201161171c575b61170e818361018a565b8101906112fd565b386116e0565b503d611704565b61173c915060203d6020116115fb576115ed818361018a565b386114f5565b95508160020b8660020b13956114ba565b6040516334324e9f60e21b81529096506020816004816001600160a01b038e165afa9081156105e257611793916116e79160009161179a575b5084611334565b15956114b4565b6117b3915060203d60201161171c5761170e818361018a565b3861178c565b6117d2915060203d6020116115fb576115ed818361018a565b386114a2565b926117e290611346565b92611467565b966117f290611346565b96611454565b611811915060203d60201161171c5761170e818361018a565b386113fa565b1561181e57565b60405162461bcd60e51b8152602060048201526015602482015274746f416464726573735f6f75744f66426f756e647360581b6044820152606490fd5b1561186257565b60405162461bcd60e51b815260206004820152600e60248201526d736c6963655f6f766572666c6f7760901b6044820152606490fd5b1561189f57565b60405162461bcd60e51b8152602060048201526011602482015270736c6963655f6f75744f66426f756e647360781b6044820152606490fd5b6001600160a01b03916118ea916110ff565b169081330361011657565b90916001600160a01b039182841683821680821461011657101561191f57925b9183161561011657565b611915565b90600091801590811561193a575b501561011657565b9092506103e890818102908104908183148517156108995793610e70571438611932565b600092918115918215611975575b50501561011657565b90809294508102908104908183148517156108995793610e705714388061196c565b806000915b6119a4575090565b9061ffff809116908114610899576001019060001981019080821161089957168061199c56",
    "linkReferences": {}
  },
  "methodIdentifiers": {
    "WETH9()": "4aa4a4fc",
    "factory()": "c45a0155",
    "factoryV2()": "68e0d4e1",
    "quoteExactInput(bytes,uint256)": "cdca1753",
    "quoteExactInputSingleV2((address,address,uint256))": "8a499286",
    "quoteExactInputSingleV3((address,address,uint256,uint24,uint160))": "b174a0a7",
    "uniswapV3SwapCallback(int256,int256,bytes)": "fa461e33"
  },
  "id": 24
}