{"abi":[{"type":"constructor","inputs":[{"name":"_factory","type":"address","internalType":"address"},{"name":"_factoryV2","type":"address","internalType":"address"},{"name":"_WETH9","type":"address","internalType":"address"}],"stateMutability":"nonpayable"},{"type":"function","name":"WETH9","inputs":[],"outputs":[{"name":"","type":"address","internalType":"address"}],"stateMutability":"view"},{"type":"function","name":"factory","inputs":[],"outputs":[{"name":"","type":"address","internalType":"address"}],"stateMutability":"view"},{"type":"function","name":"factoryV2","inputs":[],"outputs":[{"name":"","type":"address","internalType":"address"}],"stateMutability":"view"},{"type":"function","name":"quoteExactInput","inputs":[{"name":"path","type":"bytes","internalType":"bytes"},{"name":"amountIn","type":"uint256","internalType":"uint256"}],"outputs":[{"name":"amountOut","type":"uint256","internalType":"uint256"},{"name":"v3SqrtPriceX96AfterList","type":"uint160[]","internalType":"uint160[]"},{"name":"v3InitializedTicksCrossedList","type":"uint32[]","internalType":"uint32[]"},{"name":"v3SwapGasEstimate","type":"uint256","internalType":"uint256"}],"stateMutability":"nonpayable"},{"type":"function","name":"quoteExactInputSingleV2","inputs":[{"name":"params","type":"tuple","internalType":"struct IMixedRouteQuoterV1.QuoteExactInputSingleV2Params","components":[{"name":"tokenIn","type":"address","internalType":"address"},{"name":"tokenOut","type":"address","internalType":"address"},{"name":"amountIn","type":"uint256","internalType":"uint256"}]}],"outputs":[{"name":"amountOut","type":"uint256","internalType":"uint256"}],"stateMutability":"view"},{"type":"function","name":"quoteExactInputSingleV3","inputs":[{"name":"params","type":"tuple","internalType":"struct IMixedRouteQuoterV1.QuoteExactInputSingleV3Params","components":[{"name":"tokenIn","type":"address","internalType":"address"},{"name":"tokenOut","type":"address","internalType":"address"},{"name":"amountIn","type":"uint256","internalType":"uint256"},{"name":"fee","type":"uint24","internalType":"uint24"},{"name":"sqrtPriceLimitX96","type":"uint160","internalType":"uint160"}]}],"outputs":[{"name":"amountOut","type":"uint256","internalType":"uint256"},{"name":"sqrtPriceX96After","type":"uint160","internalType":"uint160"},{"name":"initializedTicksCrossed","type":"uint32","internalType":"uint32"},{"name":"gasEstimate","type":"uint256","internalType":"uint256"}],"stateMutability":"nonpayable"},{"type":"function","name":"uniswapV3SwapCallback","inputs":[{"name":"amount0Delta","type":"int256","internalType":"int256"},{"name":"amount1Delta","type":"int256","internalType":"int256"},{"name":"path","type":"bytes","internalType":"bytes"}],"outputs":[],"stateMutability":"view"}],"bytecode":{"object":"0x60e034620000b157601f62001ab038819003918201601f19168301916001600160401b03831184841017620000b557808492606094604052833981010312620000b1576200004d81620000c9565b6200006960406200006160208501620000c9565b9301620000c9565b9060805260a05260c0526040516119d19081620000df82396080518181816102e5015281816104ac0152610cfb015260a051816096015260c05181818160e1015261069b0152f35b5f80fd5b634e487b7160e01b5f52604160045260245ffd5b51906001600160a01b0382168203620000b15756fe60806040526004361015610011575f80fd5b5f3560e01c80634aa4a4fc1461008457806368e0d4e11461007f5780638a4992861461007a578063b174a0a714610075578063c45a015514610070578063cdca17531461006b5763fa461e3314610066575f80fd5b610442565b610376565b6102d0565b610221565b6101cc565b6100cc565b346100c8575f3660031901126100c8577f00000000000000000000000000000000000000000000000000000000000000006001600160a01b03166080908152602090f35b5f80fd5b346100c8575f3660031901126100c8576040517f00000000000000000000000000000000000000000000000000000000000000006001600160a01b03168152602090f35b634e487b7160e01b5f52604160045260245ffd5b6060810190811067ffffffffffffffff82111761014057604052565b610110565b60a0810190811067ffffffffffffffff82111761014057604052565b6080810190811067ffffffffffffffff82111761014057604052565b90601f8019910116810190811067ffffffffffffffff82111761014057604052565b604051906101ac82610145565b565b604051906101ac82610124565b6001600160a01b038116036100c857565b346100c85760603660031901126100c85760206102196040516101ee81610124565b6004356101fa816101bb565b8152602435610208816101bb565b83820152604435604082015261060b565b604051908152f35b346100c85760a03660031901126100c85760405161023e81610145565b60043561024a816101bb565b8152602435610258816101bb565b6020820152604435604082015260643562ffffff811681036100c857816102979160606102cc94015260843561028d816101bb565b6080820152610883565b604080519485526001600160a01b03909316602085015263ffffffff9091169183019190915260608201529081906080820190565b0390f35b346100c8575f3660031901126100c8576040517f00000000000000000000000000000000000000000000000000000000000000006001600160a01b03168152602090f35b67ffffffffffffffff811161014057601f01601f191660200190565b81601f820112156100c85780359061034782610314565b92610355604051948561017d565b828452602083830101116100c857815f926020809301838601378301015290565b346100c85760403660031901126100c85760043567ffffffffffffffff81116100c8576103aa6103b3913690600401610330565b60243590610af8565b92604051926080840191845260209160808386015281518091528260a086019201905f5b8181106104255750505083810360408501528180845192838152019301915f5b82811061040b578580868960608301520390f35b835163ffffffff16855293810193928101926001016103f7565b82516001600160a01b0316845292840192918401916001016103d7565b346100c85760603660031901126100c85760443560043560243567ffffffffffffffff83116100c85761047a60049336908501610330565b916104985f821393848015610602575b61049390610c43565b610e66565b929091946104d06104aa85858961107f565b7f00000000000000000000000000000000000000000000000000000000000000006118e3565b50156105d557506001600160a01b039260e09261050f92610503926104f490610c4a565b95808216908816109596610ce3565b6001600160a01b031690565b60405194858092633850c7bd851b82525afa9081156105d0575f935f92610595575b501561054c5760609260405192835260208301526040820152fd5b60405162461bcd60e51b815260206004820181905260248201527f4578616374206f75747075742071756f7465206e6f7420737570706f727465646044820152606490fd5b0390fd5b9093506105ba915060e03d60e0116105c9575b6105b2818361017d565b810190610c77565b5050505050929092905f610531565b503d6105a8565b610837565b6001600160a01b03935060e09261050f92610503926105f390610c4a565b95808816908216109596610ce3565b505f841361048a565b604081015181516020909201516004926001600160a01b039182169190811661063f6106378483611900565b509382611900565b929061070961050361050361050360405197602089016bffffffffffffffffffffffff19998a809360609c8d9a8b1b168452891b1660348201526028815261068681610124565b51902060405190602082019260ff60f81b84527f0000000000000000000000000000000000000000000000000000000000000000891b16602183015260358201527f96e8ac4277198ff8b6f785478aa9a39f403cb768dd02cbee326c3e7da348845f6055820152605581526106fa81610161565b5190206001600160a01b031690565b604051630240bc6b60e21b815297889182905afa9283156105d057610750965f915f95610759575b50506001600160701b0380911693169316145f14610753579091610fd9565b90565b91610fd9565b61077d93955080919250903d10610787575b610775818361017d565b810190610fa3565b5092905f80610731565b503d61076b565b634e487b7160e01b5f52601160045260245ffd5b91908260409103126100c8576020825192015190565b5f5b8381106107c95750505f910152565b81810151838201526020016107ba565b906020916107f2815180928185528580860191016107b8565b601f01601f1916010190565b6001600160a01b039182168152911515602083015260408201929092529116606082015260a060808201819052610750929101906107d9565b6040513d5f823e3d90fd5b3d1561086c573d9061085382610314565b91610861604051938461017d565b82523d5f602084013e565b606090565b9190820391821161087e57565b61078e565b80516020820180516060840180515f969591946001600160a01b039488948594859492938593928916908916818110936108c3929062ffffff1691610ce3565b975a9960409485946109876108da87870151610d23565b60808701519094906001600160a01b0316868116158514610a3c5750828414610a165761097961093761092961091f6401000276a45b9a5b516001600160a01b031690565b935162ffffff1690565b9b516001600160a01b031690565b89519b8c93602085019192602b936bffffffffffffffffffffffff19809360601b16845262ffffff60e81b9060e81b16601484015260601b1660178201520190565b03601f1981018a528961017d565b6109a7865198899687958694630251596160e31b865230600487016107fe565b03928b165af191826109eb575b50506109e4575050506109dc9293506109d66109ce610842565b925a90610871565b91610d32565b929391929091565b9250925092565b81610a0a92903d10610a0f575b610a02818361017d565b8101906107a2565b6109b4565b503d6109f8565b61097961093761092961091f73fffd8963efd1fc6a506488495d951d5263988d25610910565b61093761092961091f610979939a610912565b67ffffffffffffffff81116101405760051b60200190565b90610a7182610a4f565b610a7e604051918261017d565b8281528092610a8f601f1991610a4f565b0190602036910137565b8051821015610aad5760209160051b010190565b634e487b7160e01b5f52603260045260245ffd5b90601f820180921161087e57565b601701908160171161087e57565b9190820180921161087e57565b5f19811461087e5760010190565b5f610b0a610b0583610e52565b610a67565b93610b17610b0584610e52565b92855f80965b610b2684610e66565b9193909162800000811615610ba457505091610b7791610b6d610b7d94610b5d610b4e6101ae565b6001600160a01b039095168552565b6001600160a01b03166020840152565b604082015261060b565b96610aea565b916042815110155f14610b9c57610b9390610ee1565b91958690610b1d565b509495945050565b610c139891610c08610b7d96610bfd610c3794610c3c98610bec610c2299610bdc610bcd61019f565b6001600160a01b039097168752565b6001600160a01b03166020860152565b604084015262ffffff166060830152565b5f6080820152610883565b96929c90938a610a99565b6001600160a01b039091169052565b610c2c8c8c610a99565b9063ffffffff169052565b610add565b9496610aea565b156100c857565b600160ff1b811461087e575f0390565b51908160020b82036100c857565b519061ffff821682036100c857565b908160e09103126100c8578051610c8d816101bb565b91610c9a60208301610c5a565b91610ca760408201610c68565b91610cb460608301610c68565b91610cc160808201610c68565b9160a082015160ff811681036100c85760c09092015180151581036100c85790565b6001600160a01b0392610d1f92610cf99261107f565b7f00000000000000000000000000000000000000000000000000000000000000006110da565b1690565b600160ff1b8110156100c85790565b604051633850c7bd60e01b815291939192919060e0846004816001600160a01b0389165afa9384156105d0575f94610e07575b50805160608103610d975750610d8781602080610d90945183010191016112af565b9195909661139a565b9293929190565b604411610dcf57610db7816024806004610591950151830101910161123f565b60405162461bcd60e51b81529182916004830161129e565b60405162461bcd60e51b815260206004820152601060248201526f2ab732bc3832b1ba32b21032b93937b960811b6044820152606490fd5b610e2191945060e03d60e0116105c9576105b2818361017d565b50505050509050925f610d65565b634e487b7160e01b5f52601260045260245ffd5b8115610e4d570490565b610e2f565b51601319810190811161087e576017900490565b90610e75601483511015611822565b602082015160601c916017815110610ea5576037601782015191610e9d602b82511015611822565b015160601c91565b60405162461bcd60e51b8152602060048201526014602482015273746f55696e7432345f6f75744f66426f756e647360601b6044820152606490fd5b8051601619918282019082821161087e57610f0682610eff81610ac1565b1015611866565b610f146017610eff84610acf565b610f298151610f2284610acf565b11156118a3565b60178303610f4557505050506040515f81526020810160405290565b601760405194601f8416801560051b9182828901019687010193010101905b808410610f7c5750508252601f01601f191660405290565b9092835181526020809101930190610f64565b51906001600160701b03821682036100c857565b908160609103126100c857610fb781610f8f565b916040610fc660208401610f8f565b92015163ffffffff811681036100c85790565b9091811561103a5782151580611031575b156100c8576103e580830292830480820361087e57036100c8576110116110179183611968565b9261192f565b9081019081811161087e5781106100c85761075091610e43565b50801515610fea565b60405162461bcd60e51b815260206004820152601960248201527f494e53554646494349454e545f494e5055545f414d4f554e54000000000000006044820152606490fd5b9162ffffff915f6040805161109381610124565b8281526020810183905201526001600160a01b0390808216858316116110d4575b81604051956110c287610124565b16855216602084015216604082015290565b936110b4565b81516020830180519092916001600160a01b03908116911611156100c8576112336106fa61075094610503945f8060405160208101906327b7cf8560e01b82527f33e0e214aaaa311945afafd84672c570c653a094e74e911ed49689d566f71cd360248201526024815261114d81610124565b51906a636f6e736f6c652e6c6f675afa50815161118d90604090611182906001600160a01b031693516001600160a01b031690565b93015162ffffff1690565b604080516001600160a01b0393841660208201908152949093169083015262ffffff166060808301919091528152601f1991906111cb60808261017d565b5190206040516001600160f81b03196020820190815260609690961b6bffffffffffffffffffffffff1916602182015260358101919091527f33e0e214aaaa311945afafd84672c570c653a094e74e911ed49689d566f71cd360558201529283906075820190565b0390810183528261017d565b6020818303126100c85780519067ffffffffffffffff82116100c8570181601f820112156100c857805161127281610314565b92611280604051948561017d565b818452602082840101116100c85761075091602080850191016107b8565b9060206107509281815201906107d9565b908160609103126100c857805191610750604060208401516112d0816101bb565b9301610c5a565b908160209103126100c85761075090610c5a565b60020b9060020b908115610e4d57627fffff1981145f1983141661087e570590565b9060020b908115610e4d5760020b0790565b60020b6101000190627fffff8213627fffff1983121761087e57565b908160209103126100c8575190565b60ff1660ff039060ff821161087e57565b91909163ffffffff8080941691160191821161087e57565b60010b617fff811461087e5760010190565b63ffffffff9081165f19019190821161087e57565b604080516334324e9f60e21b8152919490915f9060049060208183816001600160a01b038c165afa80156105d0576113da915f91611803575b50866112eb565b84516334324e9f60e21b815290959060208184816001600160a01b038d165afa80156105d057611412915f916117e4575b50886112eb565b9560020b9061010091828107975f8960020b126117d4575b60020b928307955f8760020b126117c4575b875163299ce14b60e11b8152600885901d60010b86820190815260209082908e9082908190850103916001600160a01b03165afa9081156105d0575f916117a5575b5060018860ff161b1615159182611742575b82611731575b885163299ce14b60e11b8152600882901d60010b87820190815260209082908f9082908190850103916001600160a01b03165afa9081156105d0575f91611712575b5060018b60ff161b1615159384611695575b60ff9b85611683575b50508460081d60010b8160081d60010b12801561165f575b1561163e5760081d60010b988a169360081d60010b968a1693989590985b5f199a168a901b905b8760010b8760010b81811361160b578d939291146115ed575b60208a51809463299ce14b60e11b825281806115738d8d8301919091602081019260010b9052565b03916001600160a01b03165afa80156105d0576115a36115b0936115aa926115b6965f916115be575b50166119a0565b61ffff1690565b9061135b565b95611373565b948990611532565b6115e0915060203d6020116115e6575b6115d8818361017d565b81019061133b565b5f61159c565b503d6115ce565b906116046115fa8761134a565b60ff5f1991161c90565b169061154b565b505099505095509597505050505061162e575b6116255790565b61075090611385565b9061163890611385565b9061161e565b9360089997991d60010b988a169360081d60010b968a169398959098611529565b508460081d60010b8160081d60010b14801561150b57508a88168b8b16111561150b565b600290810b91900b1293505f806114f3565b869b945060208d8b519d8e80926334324e9f60e21b825260018060a01b03165afa80156105d0576116d46116da9160ff9e5f916116e3575b508361130d565b60020b90565b15949b506114ea565b611705915060203d60201161170b575b6116fd818361017d565b8101906112d7565b5f6116cd565b503d6116f3565b61172b915060203d6020116115e6576115d8818361017d565b5f6114d8565b91508960020b8360020b1391611496565b91508460208c8a51928380926334324e9f60e21b825260018060a01b03165afa9081156105d05761177f916116d4915f91611786575b508c61130d565b1591611490565b61179f915060203d60201161170b576116fd818361017d565b5f611778565b6117be915060203d6020116115e6576115d8818361017d565b5f61147e565b956117ce9061131f565b9561143c565b976117de9061131f565b9761142a565b6117fd915060203d60201161170b576116fd818361017d565b5f61140b565b61181c915060203d60201161170b576116fd818361017d565b5f6113d3565b1561182957565b60405162461bcd60e51b8152602060048201526015602482015274746f416464726573735f6f75744f66426f756e647360581b6044820152606490fd5b1561186d57565b60405162461bcd60e51b815260206004820152600e60248201526d736c6963655f6f766572666c6f7760901b6044820152606490fd5b156118aa57565b60405162461bcd60e51b8152602060048201526011602482015270736c6963655f6f75744f66426f756e647360781b6044820152606490fd5b6001600160a01b03916118f5916110da565b16908133036100c857565b90916001600160a01b03918284168382168082146100c857101561192a57925b918316156100c857565b611920565b905f918015908115611944575b50156100c857565b9092506103e8908181029081049081831485171561087e5793610e4d57145f61193c565b5f9291811591821561197e575b5050156100c857565b908092945081029081049081831485171561087e5793610e4d57145f80611975565b805f915b6119ac575090565b9061ffff80911690811461087e57600101905f1981019080821161087e5716806119a456","linkReferences":{}},"methodIdentifiers":{"WETH9()":"4aa4a4fc","factory()":"c45a0155","factoryV2()":"68e0d4e1","quoteExactInput(bytes,uint256)":"cdca1753","quoteExactInputSingleV2((address,address,uint256))":"8a499286","quoteExactInputSingleV3((address,address,uint256,uint24,uint160))":"b174a0a7","uniswapV3SwapCallback(int256,int256,bytes)":"fa461e33"},"id":24}