{"abi":[{"type":"function","name":"constructTokenURI","inputs":[{"name":"params","type":"tuple","internalType":"struct NFTDescriptor.ConstructTokenURIParams","components":[{"name":"tokenId","type":"uint256","internalType":"uint256"},{"name":"quoteTokenAddress","type":"address","internalType":"address"},{"name":"baseTokenAddress","type":"address","internalType":"address"},{"name":"quoteTokenSymbol","type":"string","internalType":"string"},{"name":"baseTokenSymbol","type":"string","internalType":"string"},{"name":"quoteTokenDecimals","type":"uint8","internalType":"uint8"},{"name":"baseTokenDecimals","type":"uint8","internalType":"uint8"},{"name":"flipRatio","type":"bool","internalType":"bool"},{"name":"tickLower","type":"int24","internalType":"int24"},{"name":"tickUpper","type":"int24","internalType":"int24"},{"name":"tickCurrent","type":"int24","internalType":"int24"},{"name":"tickSpacing","type":"int24","internalType":"int24"},{"name":"fee","type":"uint24","internalType":"uint24"},{"name":"poolAddress","type":"address","internalType":"address"}]}],"outputs":[{"name":"","type":"string","internalType":"string"}],"stateMutability":"pure"}],"bytecode":{"object":"0x6080806040523461001a57615363908161001f823930815050f35b5f80fdfe600436101561000c575f80fd5b5f3560e01c63c49917d71461001f575f80fd5b6003196020368201126134d15767ffffffffffffffff600435116134d1576101c090600435360301126134d1576103c0604052600435600401356102005261006b60246004350161388e565b6102205261007d60043560440161388e565b610240526004356064013567ffffffffffffffff81116134d1576100a89060043691813501016138be565b610260526004356084013567ffffffffffffffff81116134d1576100d39060043691813501016138be565b610280526100e560043560a401613904565b6102a0526100f760043560c401613904565b6102c05260043560e4013580151590036134d15760043560e48101356102e0526101249061010401613912565b6103005261013760043561012401613912565b6103205261014a60043561014401613912565b6103405261015d60043561016401613912565b61036052600435610184013562ffffff811690036134d1576004356101848101356103805261018f906101a40161388e565b6103a05261031560336101ad600435610184013562ffffff16613a45565b610260516101ba90613d01565b610280516101c790613d01565b6102e0516102019015801561380b576103005160020b905b610360516102c0516102a05192159360ff938416939091169160020b906142d2565b9161023d60e0610200015115805f146137ff576103205160020b5b610360516102c0516102a05193159360ff9081169391169160020b906142d2565b936040516101a0526902ab734b9bbb0b81016960b51b60206101a0510152610272815180926020602a6101a051019101613920565b6101a051016201016960ed1b602a820152610297825180936020602d85019101613920565b602f60f81b602d83830101526102b9835180946020602e868601019101613920565b01016201016960ed1b602e8201526102db825180936020603185019101613920565b0190611e1f60f11b60318301526102fb8151809260208686019101613920565b6101a051910103601381016101a05152016101a05161386c565b6104aa60ad61032960606102000151613d01565b6102805161033690613d01565b6103a05190919061034f906001600160a01b0316613e45565b916040516101c0527f54686973204e465420726570726573656e74732061206c69717569646974792060206101c05101527f706f736974696f6e20696e206120556e6973776170205633200000000000000060406101c051015281516103bf8160596101c0510160208601613920565b6101c05101602d60f81b60598201526103e2825180936020605a85019101613920565b0191660103837b7b617160cd1b605a8401527f546865206f776e6572206f662074686973204e46542063616e206d6f6469667960618401527f206f722072656465656d2074686520706f736974696f6e2e5c6e00000000000060818401526f02e372837b7b61020b2323932b9b99d160851b609b84015261046d81518092602060ab87019101613920565b612e3760f11b60ab828501015261048f82518093602087858801019101613920565b6101c05192010103608d81016101c05152016101c05161386c565b6106c860f06104bb61020051613f81565b610280516104c890613d01565b610220516104de906001600160a01b0316613e45565b610240519091906104f7906001600160a01b0316613e45565b9061050d62ffffff610180610200015116613a45565b9260405160c0526901020b2323932b9b99d160b51b602060c051015261053f815180926020602a60c051019101613920565b612e3760f11b602a8260c051010152610566825180936020602c8560c05101019101613920565b60c05101016901020b2323932b9b99d160b51b602c820152610592825180936020603685019101613920565b016b02e372332b2902a34b2b91d160a51b60368201526105bc825180936020604285019101613920565b016b02e372a37b5b2b71024a21d160a51b60428201526105e6825180936020604e85019101613920565b01632e372e3760e11b604e8201527fe29aa0efb88f20444953434c41494d45523a204475652064696c6967656e636560528201527f20697320696d7065726174697665207768656e20617373657373696e6720746860728201527f6973204e46542e204d616b65207375726520746f6b656e20616464726573736560928201527f73206d617463682074686520657870656374656420746f6b656e732c2061732060b28201527f746f6b656e2073796d626f6c73206d617920626520696d6974617465642e000060d282015260c051900360d0810160c051520160c05161386c565b610220516106de906001600160a01b0316613e45565b610240516106f4906001600160a01b0316613e45565b610180526103a0516001600160a01b031660e05261026051610280516101e052610380516107269062ffffff16613a45565b610100610200015160020b610120610200015160020b610160610200015160020b61075c610140610200015160020b8385614b32565b6102005161022051909290610779906001600160a01b0316614b59565b6101605261024051610793906001600160a01b0316614b59565b610220519094906107ac906001600160a01b0316614bc2565b610240519096906107c5906001600160a01b0316614bc2565b976107f26107ed60ff6107e76020610200015182610200519160101c16613e32565b066139bb565b613f81565b9961081a6107ed60ff6108146040610200015182610200519160101c16613e32565b066139c9565b9b61083c6107ed60ff6107e76020610200015182610200519160201c16613e32565b6080526108606107ed60ff6108146040610200015182610200519160201c16613e32565b60a0526108846107ed60ff6107e76020610200015182610200519160301c16613e32565b610100526108a96107ed60ff6108146040610200015182610200519160301c16613e32565b6101405260405161012081905267ffffffffffffffff6102a082019081119111176133b7576102a06101205101604052610120515261018051602061012051015260e051604061012051015260606101205101526101e051608061012051015260a061012051015260c061012051015260e06101205101526101006101205101525f0b61012080510152610140610120510152610160516101606101205101526101806101205101526101a06101205101526101c06101205101526101e061012051015261020061012051015260805161022061012051015260a05161024061012051015261010051610260610120510152610140516102806101205101527f203c616e696d6174652061646469746976653d2273756d222061747472696275610ac26040517f3c7376672077696474683d2732393027206865696768743d273530302720766960208201527f6577426f783d2730203020323930203530302720786d6c6e733d27687474703a60408201527f2f2f7777772e77332e6f72672f323030302f737667273e3c726563742077696460608201527f74683d27323930707827206865696768743d273530307078272066696c6c3d276080820152602360f81b60a0820152610ab460aa826101605151610a908160a1840160206101605101613920565b6813979f1e17b9bb339f60b91b60a18284010152810103608a81018452018261386c565b610abc6140c3565b90614c28565b6119eb6109e7610b8e6020610ab460226101e061012051015161020061012051015161018061012051015190604051958693610b0f610b02838701614d37565b9182815194859201613920565b65272063793d2760d01b82820152610b338351809460206006868601019101613920565b722720723d273132307078272066696c6c3d272360681b600684848401010152610b6b84518095602060198787870101019101613920565b0101016813979f1e17b9bb339f60b91b601982015203600281018452018261386c565b92610c3c6020610ab460226102206101205101516102406101205101516101a061012051015190604051958693610bc9610b02838701614d37565b0165272063793d2760d01b8152610bea825180936020600685019101613920565b01722720723d273132307078272066696c6c3d272360681b6006820152610c1b825180936020601985019101613920565b016813979f1e17b9bb339f60b91b601982015203600281018452018261386c565b610cc86020610ab460226102606101205101516102806101205101516101c061012051015190604051958693610c76610b02838701614d37565b0165272063793d2760d01b8152610c97825180936020600685019101613920565b01722720723d273130307078272066696c6c3d272360681b6006820152610c1b825180936020601985019101613920565b947f2220783d223070782220793d22307078222077696474683d22323930707822206101606101205101516040519788957f3c7376672077696474683d2232393022206865696768743d223530302220766960208801527f6577426f783d2230203020323930203530302220786d6c6e733d22687474703a6040880152751797bbbbbb973b999737b933979918181817b9bb339160511b60608801527f20786d6c6e733a786c696e6b3d27687474703a2f2f7777772e77332e6f72672f60768801526b189c9c9c97bc3634b735939f60a11b6096880152651e3232b3399f60d11b60a28801527f3c66696c7465722069643d226631223e3c6665496d61676520726573756c743d60a88801527f2270302220786c696e6b3a687265663d22646174613a696d6167652f7376672b60c88801526a1e1b5b0ed8985cd94d8d0b60aa1b60e8880152610e2281518092602060f38b019101613920565b8601947f222f3e3c6665496d61676520726573756c743d2270312220786c696e6b3a687260f38701527f65663d22646174613a696d6167652f7376672b786d6c3b6261736536342c0000806101138801527f222f3e3c6665496d61676520726573756c743d2270322220786c696e6b3a6872610131610eaa885180996020848d019101613920565b87890101526101518688010152610ece81518092602061016f898b01019101613920565b631110179f60e11b868601820161016f8101919091527f3c6665496d61676520726573756c743d2270332220786c696e6b3a687265663d6101738201527f22646174613a696d6167652f7376672b786d6c3b6261736536342c0000000000610193820152825192610f4a9184916101ae90910190602001613920565b7f22202f3e3c6665426c656e64206d6f64653d226f7665726c61792220696e3d22868601820183016101ae8101919091527f70302220696e323d22703122202f3e3c6665426c656e64206d6f64653d2265786101ce8201527f636c7573696f6e2220696e323d22703222202f3e3c6665426c656e64206d6f646101ee8201527f653d226f7665726c61792220696e323d2270332220726573756c743d22626c6561020e8201527f6e644f757422202f3e3c6665476175737369616e426c7572200000000000000061022e8201527f696e3d22626c656e644f75742220737464446576696174696f6e3d22343222206102478201527f2f3e3c2f66696c7465723e203c636c6970506174682069643d22636f726e65726102678201527f73223e3c726563742077696474683d2232393022206865696768743d223530306102878201527f222072783d223432222072793d22343222202f3e3c2f636c6970506174683e006102a78201527f3c706174682069643d22746578742d706174682d612220643d224d34302031326102c68201527f20483235302041323820323820302030203120323738203430205634363020416102e68201527f32382032382030203020312032353020343838204834302041323820323820306103068201527f2030203120313220343630205634302041323820323820302030203120343020610326820152671899103d1110179f60c11b6103468201527f3c706174682069643d226d696e696d61702220643d224d32333420343434433261034e8201527f3334203435372e393439203234322e323120343633203235332034363322202f61036e820152601f60f91b61038e82018190527f3c66696c7465722069643d22746f702d726567696f6e2d626c7572223e3c666561038f8301527f476175737369616e426c757220696e3d22536f757263654772617068696322206103af8301527f737464446576696174696f6e3d22323422202f3e3c2f66696c7465723e0000006103cf8301527f3c6c696e6561724772616469656e742069643d22677261642d7570222078313d6103ec8301527f2231222078323d2230222079313d2231222079323d2230223e3c73746f70206f61040c8301527f66667365743d22302e30222073746f702d636f6c6f723d22776869746522207361042c830152713a37b816b7b830b1b4ba3c9e91189110179f60711b61044c8301527f3c73746f70206f66667365743d222e39222073746f702d636f6c6f723d22776861045e8301527f697465222073746f702d6f7061636974793d223022202f3e3c2f6c696e65617261047e8301526823b930b234b2b73a1f60b91b61049e8301527f3c6c696e6561724772616469656e742069643d22677261642d646f776e2220786104a78301527f313d2230222078323d2231222079313d2230222079323d2231223e3c73746f706104c78301527f206f66667365743d22302e30222073746f702d636f6c6f723d227768697465226104e78301527f2073746f702d6f7061636974793d223122202f3e3c73746f70206f66667365746105078301527f3d22302e39222073746f702d636f6c6f723d227768697465222073746f702d6f6105278301527f7061636974793d223022202f3e3c2f6c696e6561724772616469656e743e00006105478301527f3c6d61736b2069643d22666164652d757022206d61736b436f6e74656e74556e6105658301527f6974733d226f626a656374426f756e64696e67426f78223e3c726563742077696105858301527f6474683d223122206865696768743d2231222066696c6c3d2275726c282367726105a58301527030b216bab8149110179f1e17b6b0b9b59f60791b6105c58301527f3c6d61736b2069643d22666164652d646f776e22206d61736b436f6e74656e746105d68301527f556e6974733d226f626a656374426f756e64696e67426f78223e3c72656374206105f68301527f77696474683d223122206865696768743d2231222066696c6c3d2275726c28236106168301527433b930b216b237bbb7149110179f1e17b6b0b9b59f60591b6106368301527f3c6d61736b2069643d226e6f6e6522206d61736b436f6e74656e74556e69747361064b8301527f3d226f626a656374426f756e64696e67426f78223e3c7265637420776964746861066b8301527f3d223122206865696768743d2231222066696c6c3d22776869746522202f3e3c61068b8301526517b6b0b9b59f60d11b6106ab8301527f3c6c696e6561724772616469656e742069643d22677261642d73796d626f6c226106b18301527f3e3c73746f70206f66667365743d22302e37222073746f702d636f6c6f723d226106d18301527f7768697465222073746f702d6f7061636974793d223122202f3e3c73746f70206106f18301527f6f66667365743d222e3935222073746f702d636f6c6f723d22776869746522206107118301527f73746f702d6f7061636974793d223022202f3e3c2f6c696e65617247726164696107318301526332b73a1f60e11b6107518301527f3c6d61736b2069643d22666164652d73796d626f6c22206d61736b436f6e74656107558301527f6e74556e6974733d227573657253706163654f6e557365223e3c7265637420776107758301527f696474683d22323930707822206865696768743d223230307078222066696c6c6107958301527f3d2275726c2823677261642d73796d626f6c2922202f3e3c2f6d61736b3e3c2f6107b5830152643232b3399f60d91b6107d58301527f3c6720636c69702d706174683d2275726c2823636f726e65727329223e0000006107da8301526b1e3932b1ba103334b6361e9160a11b6107f783015284516108039891979095909261178c9187918b0190602001613920565b0101010192830152703432b4b3b43a1e911a9818383c1110179f60791b6108238301527f3c72656374207374796c653d2266696c7465723a2075726c28236631292220786108348301527f3d223070782220793d22307078222077696474683d22323930707822206865696108548301526d33b43a1e911a9818383c1110179f60911b6108748301527f203c67207374796c653d2266696c7465723a75726c2823746f702d726567696f6108828301527f6e2d626c7572293b207472616e73666f726d3a7363616c6528312e35293b20746108a28301527f72616e73666f726d2d6f726967696e3a63656e74657220746f703b223e0000006108c28301527f3c726563742066696c6c3d226e6f6e652220783d223070782220793d223070786108df8301527f222077696474683d22323930707822206865696768743d22353030707822202f6108ff83015261091f8201527f3c656c6c697073652063783d22353025222063793d22307078222072783d22316109208201527f38307078222072793d223132307078222066696c6c3d222330303022206f70616109408201527131b4ba3c9e9118171c1a9110179f1e17b39f60711b6109608201527f3c7265637420783d22302220793d2230222077696474683d22323930222068656109728201527f696768743d22353030222072783d223432222072793d223432222066696c6c3d6109928201527f227267626128302c302c302c302922207374726f6b653d2272676261283235356109b28201527416191a9a96191a9a96181719149110179f1e17b39f60591b6109d2820152036109c781018452018261386c565b611f9461046061012051516020610120510151856060610120510151916080610120510151936040519889957f3c7465787420746578742d72656e646572696e673d226f7074696d697a65537060208801526432b2b2111f60d91b60408801527f3c74657874506174682073746172744f66667365743d222d313030252220666960458801527f6c6c3d2277686974652220666f6e742d66616d696c793d2227436f757269657260658801527f204e6577272c206d6f6e6f73706163652220666f6e742d73697a653d2231307060858801527f782220786c696e6b3a687265663d2223746578742d706174682d61223e00000060a58801528351611af68160c28a0160208801613920565b87019364010714051160dd1b60c28601528151611b1a8160c7880160208601613920565b85810160c781018590525f8051602061530e83398151915260e78201527f6f3d22313030252220626567696e3d22307322206475723d22333073222072656101078201527f70656174436f756e743d22696e646566696e69746522202f3e000000000000006101278201527f3c2f74657874506174683e203c74657874506174682073746172744f666673656101408201527f743d223025222066696c6c3d2277686974652220666f6e742d66616d696c793d6101608201527f2227436f7572696572204e6577272c206d6f6e6f73706163652220666f6e742d6101808201527f73697a653d22313070782220786c696e6b3a687265663d2223746578742d70616101a0820152653a3416b0911f60d11b6101c082015282516101c69790939091611c4c9185918a0190602001613920565b01019364010714051160dd1b908501526101cb93611c738251809360208885019101613920565b01928301525f8051602061530e8339815191526101eb8301527f6f3d22313030252220626567696e3d22307322206475723d223330732220726561020b8301527f70656174436f756e743d22696e646566696e69746522202f3e203c2f7465787461022b830152642830ba341f60d91b61024b8301527f3c74657874506174682073746172744f66667365743d22353025222066696c6c6102508301527f3d2277686974652220666f6e742d66616d696c793d2227436f7572696572204e6102708301527f6577272c206d6f6e6f73706163652220666f6e742d73697a653d2231307078226102908301527f20786c696e6b3a687265663d2223746578742d706174682d61223e00000000006102b08301526102cb9181516020830191611d9d8286830185613920565b019264010714051160dd1b908401526102d08486516020880195611dc48285830189613920565b01918201525f8051602061530e8339815191526102f08201527f6f3d22313030252220626567696e3d22307322206475723d22333073220000006103108201527f20726570656174436f756e743d22696e646566696e69746522202f3e3c2f746561032d8201527f7874506174683e3c74657874506174682073746172744f66667365743d222d3561034d8201527f3025222066696c6c3d2277686974652220666f6e742d66616d696c793d22274361036d8201527f6f7572696572204e6577272c206d6f6e6f73706163652220666f6e742d73697a61038d8201527f653d22313070782220786c696e6b3a687265663d2223746578742d706174682d6103ad8201526230911f60e91b6103cd820152611ee76103d09351809385840190613920565b019064010714051160dd1b90820152611f096103d59451809386840190613920565b01918201525f8051602061530e8339815191526103f58201527f6f3d22313030252220626567696e3d22307322206475723d22333073222072656104158201527f70656174436f756e743d22696e646566696e69746522202f3e3c2f74657874506104358201526a30ba341f1e17ba32bc3a1f60a91b6104558201520361044081018552018361386c565b606061012051015161225f6101e360806101205101519260a06101205101516040519485927f3c67206d61736b3d2275726c2823666164652d73796d626f6c29223e3c72656360208501527f742066696c6c3d226e6f6e652220783d223070782220793d223070782220776960408501527f6474683d22323930707822206865696768743d22323030707822202f3e203c7460608501527f65787420793d22373070782220783d2233327078222066696c6c3d227768697460808501527f652220666f6e742d66616d696c793d2227436f7572696572204e6577272c206d60a08501527f6f6e6f73706163652220666f6e742d7765696768743d223230302220666f6e7460c08501526c16b9b4bd329e91199b383c111f60991b60e08501526120c781518092602060ed88019101613920565b8301602f60f81b60ed8201526120e782518093602060ee85019101613920565b7f3c2f746578743e3c7465787420793d2231313570782220783d2233327078222081830160ee8101919091527f66696c6c3d2277686974652220666f6e742d66616d696c793d2227436f75726961010e8201527f6572204e6577272c206d6f6e6f73706163652220666f6e742d7765696768743d61012e8201527f223230302220666f6e742d73697a653d2233367078223e00000000000000000061014e8201528351936121a091859161016590910190602001613920565b6a1e17ba32bc3a1f1e17b39f60a91b6101659190920192909201918201527f3c7265637420783d2231362220793d223136222077696474683d2232353822206101708201527f6865696768743d22343638222072783d223236222072793d223236222066696c6101908201527f6c3d227267626128302c302c302c302922207374726f6b653d227267626128326101b0820152721a9a96191a9a96191a9a96181719149110179f60691b6101d0820152036101c381018452018261386c565b60c061012051015160020b9260e061012051015160020b61010061012051015160020b90610120805101515f0b95600187145f146137aa576040516122a381613818565b6008815267023666164652d75760c41b6020820152915b0391627fffff198312627fffff8413176134075780156133f357600283900b627fffff19145f19821416613407576127e59260020b0560020b60048113155f146135d1575060405161230b81613818565b601a81527f4d312031433431203431203130352031303520313435203134350000000000006020820152955b60405161234381613818565b600281526020810161373360f01b815260405161235f81613818565b6003815260208101936203139360ec1b85526040519261237e84613818565b6003845260208401956232313760e81b87526040519661239d88613818565b600388526020880191620ccccd60ea1b835260018514600186036135c7575b156134f35750505050916124fc9391608d935f191495865f146134ec57835b87156134e55782935b88156134dd5750965b156134d55750905b6040519586936b1e31b4b931b6329031bc1e9160a11b6020860152612424815180926020602c89019101613920565b84019167383c111031bc9e9160c11b9283602c82015261244e825180936020603485019101613920565b017f70782220723d22347078222066696c6c3d22776869746522202f3e3c6369726360348201526636329031bc1e9160c91b6054820152612499825180936020605b85019101613920565b0190605b8201526124b4825180936020606385019101613920565b017f70782220723d2232347078222066696c6c3d226e6f6e6522207374726f6b653d606382015269113bb434ba329110179f60b11b608382015203606d81018452018261386c565b905b6040519687916c078ce40dac2e6d67a44eae4d85609b1b6020840152805161252d81602d860160208501613920565b61149160f11b848201602d8101919091527f207374796c653d227472616e73666f726d3a7472616e736c6174652837327078602f8201527f2c313839707829223e3c7265637420783d222d313670782220793d222d313670604f8201527f78222077696474683d22313830707822206865696768743d2231383070782220606f8201527f66696c6c3d226e6f6e6522202f3e3c7061746820643d22000000000000000000608f820152835191906125ec90839060a60160208701613920565b8401017f22207374726f6b653d227267626128302c302c302c302e332922207374726f6b60a68201527f652d77696474683d2233327078222066696c6c3d226e6f6e6522207374726f6b60c6820152733296b634b732b1b0b81e913937bab7321110179f60611b60e6820152700785ece7c78ce40dac2e6d67a44eae4d85607b1b60fa82015261268782518093602061010b85019101613920565b61149160f11b81830161010b8101919091527f207374796c653d227472616e73666f726d3a7472616e736c617465283732707861010d8201526816189c1cb83c14911f60b91b61012d8201527f3c7265637420783d222d313670782220793d222d31367078222077696474683d6101368201527f22313830707822206865696768743d223138307078222066696c6c3d226e6f6e61015682015264329110179f60d91b610176820152681e3830ba3410321e9160b91b61017b82015283519361275b91859161018490910190602001613920565b0101917f22207374726f6b653d2272676261283235352c3235352c3235352c31292220666101848401527f696c6c3d226e6f6e6522207374726f6b652d6c696e656361703d22726f756e646101a4840152671110179f1e17b39f60c11b6101c48401526101cc926127d58251809360208785019101613920565b01036101ac81018752018561386c565b6127f6610140610120510151613f81565b9060c061012051015160020b9160e061012051015160020b9261281881614fd9565b9061282285614fd9565b835192600484018411613407578051600a81019384821161340757835198600a8a0191828b1161340757600491612858916150f8565b96909760088101928391011161340757600791808302908382040361340757612882600e91613f81565b9401809111613407578082029082820403613407576128a2600e91613f81565b9a01809211613407578082810204820361340757026128c090613f81565b956040519889977f203c67207374796c653d227472616e73666f726d3a7472616e736c61746528328060208b01526c1cb83c1610199c1a383c14911f60991b60408b01526c1e3932b1ba103bb4b23a341e9160991b9485604d8c015280519081605a8d01916020019161293292613920565b8a01605a0161294090614db8565b947f3c7465787420783d22313270782220793d22313770782220666f6e742d66616d968787527f696c793d2227436f7572696572204e6577272c206d6f6e6f7370616365222066948560208901527f6f6e742d73697a653d2231327078222066696c6c3d227768697465223e3c7473968760408a01527f70616e2066696c6c3d2272676261283235352c3235352c3235352c302e36292298896060820152608081016c1f24a21d101e17ba39b830b71f60991b905281519182608d83019160200191612a0b92613920565b01608d81016a1e17ba32bc3a1f1e17b39f60a91b90528460988201526c1cb83c16101a189a383c14911f60991b60b88201528360c58201528151918260d283019160200191612a5992613920565b0160d201612a6690614db8565b88815285602082015286604082015287606082015260808101721f26b4b7102a34b1b59d101e17ba39b830b71f60691b905281519182609383019160200191612aae92613920565b0191609383016a1e17ba32bc3a1f1e17b39f60a91b9052609e8301526c1cb83c16101a1a1a383c14911f60991b60be83015260cb8201528151918260d883019160200191612afb92613920565b0160d801612b0890614db8565b93845260208401526040830152606082015260808101721f26b0bc102a34b1b59d101e17ba39b830b71f60691b905281519182609383019160200191612b4d92613920565b7f3c2f746578743e3c2f673e3c67207374796c653d227472616e73666f726d3a74609392909101918201527f72616e736c6174652832323670782c20343333707829223e000000000000000060b38201527f3c726563742077696474683d223336707822206865696768743d22333670782260cb8201527f2072783d22387078222072793d22387078222066696c6c3d226e6f6e6522207360eb8201527f74726f6b653d2272676261283235352c3235352c3235352c302e322922202f3e61010b8201527f3c70617468207374726f6b652d6c696e656361703d22726f756e642220643d2261012b8201527f4d38203943382e30303030342032322e393439342031362e323039392032382061014b8201527f3237203238222066696c6c3d226e6f6e6522207374726f6b653d22776869746561016b820152631110179f60e11b61018b8201527f3c636972636c65207374796c653d227472616e73666f726d3a7472616e736c6161018f820152640e8ca66c8560db1b6101af82015282516101b493909190612ce590839086840190602001613920565b01918201630383c16160e51b90526101b891815191828483019160200191612d0c92613920565b019081017f70782c2030707829222063783d22307078222063793d223070782220723d2234905275383c11103334b6361e913bb434ba3291179f1e17b39f60511b6101d8820152036101ce810183526101ee01612d69908361386c565b610120516101400151610120516040015160405160208101918383526bffffffffffffffffffffffff199060601b16604082015260348152612daa81613834565b51902090805f9180156134d157600160801b8110156134c2575b50600160401b8110156134a5575b640100000000811015613488575b6201000081101561346b575b610100811015613453575b601081101561343b575b8060046002921015613429575b101561341b575b60011b6101fe60fe8216911681036134075760010160ff81116134075760ff8116156133f35760ff165f190411156133cb57604051947f3c67207374796c653d227472616e73666f726d3a7472616e736c61746528323260208701527f3670782c20333932707829223e3c726563742077696474683d2233367078222060408701527f6865696768743d2233367078222072783d22387078222072793d22387078222060608701527f66696c6c3d226e6f6e6522207374726f6b653d2272676261283235352c32353560808701526c16191a9a96181719149110179f60991b60a08701527f3c673e3c70617468207374796c653d227472616e73666f726d3a7472616e736c60ad8701527f617465283670782c367078292220643d224d313220304c31322e36353232203960cd8701527f2e35363538374c313820312e363037374c31332e373831392031302e3231383160ed87015272026191917199c9919901b26189a171a199a189606d1b61010d8701527f31312e333437384c32342031324c31342e343334312031322e363532324c32326101208701527f2e333932332031384c31332e373831392031332e373831394c31382032322e336101408701527f3932334c31322e363532322031342e343334314c31322032344c31312e33343761016087015270382031342e343334314c362032322e333960781b6101808701527f32334c31302e323138312031332e373831394c312e363037372031384c392e356101918701527f363538372031322e363532324c302031324c392e35363538372031312e3334376101b18701527f384c312e3630373720364c31302e323138312031302e323138314c3620312e366101d18701527f3037374c31312e3334373820392e35363538374c313220305a222066696c6c3d6101f187015269113bb434ba329110179f60b11b6102118701527f3c616e696d6174655472616e73666f726d206174747269627574654e616d653d61021b8701527f227472616e73666f726d2220747970653d22726f74617465222066726f6d3d2261023b8701527f302031382031382220746f3d2233363020313820313822206475723d2231307361025b8701527f2220726570656174436f756e743d22696e646566696e697465222f3e3c2f673e61027b870152631e17b39f60e11b61029b87015261027f8652856102a081011067ffffffffffffffff6102a0880111176133b757602660409561333a9561324b95610ab4948a6102a06133a99c018b52925b8a5197856131c88a975180926020808b019101613920565b86016131dd8251809360208085019101613920565b016131f18251809360208085019101613920565b016132058251809360208085019101613920565b016132198251809360208085019101613920565b0161322d8251809360208085019101613920565b01651e17b9bb339f60d11b602082015203600681018452018261386c565b610ab4606484518093683d913730b6b2911d1160b91b60208301526101a0515161327f816029850160206101a05101613920565b820171111610113232b9b1b934b83a34b7b7111d1160711b60298201526101c05151906132b682603b830160206101c05101613920565b0160c05151906132cf82603b8301602060c05101613920565b016c1116101134b6b0b3b2911d101160991b603b8201527f646174613a696d6167652f7376672b786d6c3b6261736536342c0000000000006048820152613320825180936020606285019101613920565b0161227d60f01b606282015203604481018452018261386c565b81519061338e603d8360208101937f646174613a6170706c69636174696f6e2f6a736f6e3b6261736536342c000000855261337e8151809260208686019101613920565b810103601d81018552018361386c565b82519384926020845251809281602086015285850190613920565b601f01601f19168101030190f35b634e487b7160e01b5f52604160045260245ffd5b610ab4602660409561333a9561324b956133a99989516133ea81613850565b5f8152926131b0565b634e487b7160e01b5f52601260045260245ffd5b634e487b7160e01b5f52601160045260245ffd5b613424906139f6565b612e15565b61343590821c926139e4565b91612e0e565b60ff600491821c92160160ff81116134075790612e01565b60ff600891821c92160160ff81116134075790612df7565b60101c9060ff601081831601116134075760ff1660100190612dec565b60201c9060ff602081831601116134075760ff1660200190612de0565b60401c9060ff604081831601116134075760ff1660400190612dd2565b91505060801c6080905f612dc4565b5f80fd5b9050906123f5565b9050966123ed565b81936123e4565b82936123db565b6135c1979450976135ac91607e976135986135379b602c60409a97989a519d8e809c6b1e31b4b931b6329031bc1e9160a11b9c8d6020840152519384920190613920565b8a0161355c67383c111031bc9e9160c11b9889602c8401525180936034840190613920565b01917f70782220723d22347078222066696c6c3d22776869746522202f3e000000000098896034850152604f840152518093605b840190613920565b0192605b8401525180936063840190613920565b0190606382015203605e81018452018261386c565b906124fe565b505f1985146123bc565b6008811361361657506040516135e681613818565b601981527f4d31203143333320343920393720313133203134352031343500000000000000602082015295612337565b6010811361365b575060405161362b81613818565b601981527f4d31203143333320353720383920313133203134352031343500000000000000602082015295612337565b602081136136a0575060405161367081613818565b601981527f4d31203143323520363520383120313231203134352031343500000000000000602082015295612337565b604081136136e557506040516136b581613818565b601981527f4d31203143313720373320373320313239203134352031343500000000000000602082015295612337565b6080811361372a57506040516136fa81613818565b601881527f4d31203143392038312036352031333720313435203134350000000000000000602082015295612337565b6101001261376e5760405161373e81613818565b601a81527f4d31203143312038392035372e35203134352031343520313435000000000000602082015295612337565b60405161377a81613818565b601881527f4d31203143312039372034392031343520313435203134350000000000000000602082015295612337565b5f1987036137dc576040516137be81613818565b600a81526911b330b23296b237bbb760b11b60208201525b916122ba565b6040516137e881613818565b6005815264236e6f6e6560d81b60208201526137d6565b6103005160020b61021c565b6103205160020b906101df565b6040810190811067ffffffffffffffff8211176133b757604052565b6060810190811067ffffffffffffffff8211176133b757604052565b6020810190811067ffffffffffffffff8211176133b757604052565b90601f8019910116810190811067ffffffffffffffff8211176133b757604052565b35906001600160a01b03821682036134d157565b67ffffffffffffffff81116133b757601f01601f191660200190565b81601f820112156134d1578035906138d5826138a2565b926138e3604051948561386c565b828452602083830101116134d157815f926020809301838601378301015290565b359060ff821682036134d157565b35908160020b82036134d157565b5f5b8381106139315750505f910152565b8181015183820152602001613922565b60ff1660ff81146134075760010190565b5f1981146134075760010190565b60405190610100820182811067ffffffffffffffff8211176133b7576040525f60e0838281528260208201528260408201528260608201528260808201528260a08201528260c08201520152565b9190820391821161340757565b906010820180921161340757565b906064820180921161340757565b9190820180921161340757565b60ff60029116019060ff821161340757565b60ff60019116019060ff821161340757565b60ff5f199116019060ff821161340757565b60ff6004199116019060ff821161340757565b604d811161340757600a0a90565b81156133f3570490565b62ffffff91828216918215613c6e575f91845f925b16928315613ab857859060ff811615613a8957613a81613a7b600a92613941565b94613952565b939404613a5a565b9281600a860616613aa0575b613a81600a91613952565b92613a81613aaf600a92613941565b94915050613a95565b919392509350613ac6613960565b9160058410613bfa5760ff918281166004613ae182886139ae565b10613bf257835f5b169160041987018781116134075785613b0183613a08565b16811015613bd757505f905b613b1e8260808901948086526139d7565b5f1981019690871161340757613b7c85613b7760ff9584613b60613b8f9a828f613b959f613b8a9d613b5a9260a0858094169101525116613a08565b166139d7565b1660408d015284613b70876139f6565b16906139d7565b6139d7565b1660208801525b16866139ae565b613a2d565b90613a3b565b8152600160e08201526004821115613bca5760031982019182116134075760ff80613bc793165b166060820152614131565b90565b613bc7915060ff5f613bbc565b613bec9086613be584613a08565b16906139ae565b90613b0d565b836001613ae9565b836005036005811161340757600260808501526002810180821161340757600182019081116134075760ff9182613c3b921660a087015282613b70866139e4565b168060208501526001190160ff811161340757613b8a60ff613b959481613b8f94166040880152600160c0880152613b83565b50915050604051613c7e81613818565b6002815261302560f01b602082015290565b908151811015613ca1570160200190565b634e487b7160e01b5f52603260045260245ffd5b60405190613cc282613818565b6006825260203681840137565b90613cd9826138a2565b613ce6604051918261386c565b8281528092613cf7601f19916138a2565b0190602036910137565b905f805b835160ff821690811015613d5857601160f91b906001600160f81b031990613d2d9087613c90565b511614613d43575b613d3e90613941565b613d05565b90613d50613d3e91613941565b919050613d35565b50509160ff80931680613d6a57509150565b613d78613d7d9183516139d7565b613ccf565b905f935f5b825182821690811015613dff57613ddf91906001600160f81b031990613dc090601160f91b83613db2838a613c90565b511614613de4575b86613c90565b511696613dd9613dcf82613952565b985f1a9187613c90565b53613941565b613d82565b605c613df9613df28c613952565b9b8a613c90565b53613dba565b50929450505050565b908160801b91808304600160801b149015171561340757565b908115600183800414171561340757565b8181029291811591840414171561340757565b604051906001600160a01b0316613e5b82613818565b6010825260206f181899199a1a9b1b9c1cb0b131b232b360811b602084015260405192613e8784613834565b602a8452602084016040368237845115613ca1576030905383519260019360011015613ca157607860218601535f5b60148110613ec657505050505090565b600c81018082116134075784811015613ca15782901a60046001600160f81b0319600f81613ef885851c831689613c90565b511693858a1b94600290878704821488151715613f6e57868201809211613f6e57613f2c613f349493928e925f1a92613c90565b531687613c90565b5116906003928301809311613f5b575090613f548793925f1a9189613c90565b5301613eb6565b601190634e487b7160e01b5f525260245ffd5b601186634e487b7160e01b5f525260245ffd5b805f917a184f03e93ff9f4daa797ed6e38ed64bf6a1f010000000000000000808210156140b5575b506d04ee2d6d415b85acef8100000000808310156140a6575b50662386f26fc1000080831015614097575b506305f5e10080831015614088575b5061271080831015614079575b506064821015614069575b600a8092101561405f575b60019081602161401860018701613ccf565b95860101905b61402a575b5050505090565b5f19019083906f181899199a1a9b1b9c1cb0b131b232b360811b8282061a83530491821561405a5791908261401e565b614023565b9160010191614006565b9190606460029104910191613ffb565b6004919392049101915f613ff0565b6008919392049101915f613fe3565b6010919392049101915f613fd4565b6020919392049101915f613fc2565b60409350810491505f613fa9565b604051906140d082613834565b604082527f6768696a6b6c6d6e6f707172737475767778797a303132333435363738392b2f6040837f4142434445464748494a4b4c4d4e4f505152535455565758595a61626364656660208201520152565b60ff168015613407575f190190565b9060ff61414381602085015116613ccf565b9060e084015161425e575b60c084015161423a575b806080850151165b816141708160a0880151166139f6565b1681101561418e5780603061418760019386613c90565b5301614160565b50915b83511561423357826060850151168015159081614223575b506141fc575b600a808551066030908101809111613407576141f160408701918683511692876141d885614122565b16905260f81b6001600160f81b0319165f1a9185613c90565b538451048452614191565b602e61421d6040860185815116908661421483614122565b16905284613c90565b536141af565b905083604086015116145f6141a9565b9250905090565b815115613ca15760306020830153815160011015613ca157602e6021830153614158565b81515f1981019081116134075761427760259184613c90565b5361414e565b9060020b9060020b02908160020b91820361340757565b604051906142a182613818565b600382526226a4a760e91b6020830152565b604051906142c082613818565b600382526209a82b60eb1b6020830152565b9094939291600286810b9687156133f3576142f38189620d89e7190561427d565b93820b93820b840361431e575050505050909150155f1461431657613bc7614294565b613bc76142b3565b61432e90620d89e898890561427d565b810b83036143545750505050909150155f1461434c57613bc76142b3565b613bc7614294565b5f831215614b2b5761436583614d27565b965b8711614b025760019487861615614af0576001600160881b036ffffcb933bd6fad37aa2d162d1a5940015b1692828916614ac4575b600494858a16614a98575b60088a16614a6c575b60108a16614a40575b60208a16614a14575b60408a166149e8575b6080998a81166149bd575b6101008116614992575b6102008116614967575b610400811661493c575b6108008116614911575b61100081166148e6575b61200081166148bb575b6140008116614890575b6180008116614865575b62010000811661483a575b620200008116614810575b6204000081166147e7575b62080000166147c0575b5f1261479d575b63ffffffff8416614796575f915b60ff946001600160a01b039386918591614486919084169060201c6139d7565b169161476e575b8091921696168087035f82128882128116908983139015161761475b5788939291905f811261474c57975b88151580614741575b156147355784939291101561470e576144e6916144df89851c613a2d565b9116613e32565b9516146146fe575b6144f88480614eee565b600160601b949094119384156146ef5761451190614f8a565b925b835f815b6146db576145259150613a08565b955f856005868a16116146b0575b50600a838188061196049561469f575b620186a08614614692575b614682575b61455b613960565b968615614605578416602b03928484116145f25784841660070199858b116145df578560208a019b168b52880152602b83116145cc578201809211613f5b575081613bc79697816145b3931660a08801525116613a08565b1660408401525b825260c08201525f60e0820152614131565b601182634e487b7160e01b5f525260245ffd5b601184634e487b7160e01b5f525260245ffd5b601183634e487b7160e01b5f525260245ffd5b9193925050808216906009821061464e5750600319018181116145f257613bc7969760058361463e9316918260208a0152880152613a08565b1660a085015260408401526145ba565b613bc797985061467792935061467291506006602088015260056040880152613a1a565b6139f6565b1660608401526145ba565b9561468c90613941565b95614553565b5093600a9004938061454e565b948181018091116145f25794614543565b909550846146bd89613a1a565b16604d81116145df57906146d491600a0a90613a3b565b945f614533565b6146e6600a91613941565b91049081614517565b6146f890614f4b565b92614513565b9261470890614e8c565b926144ee565b6147249161471d89851c613a2d565b9116613a3b565b9516036144ee579261470890614e07565b50501694506144ee9050565b5060128911156144c1565b61475590614d27565b976144b8565b601187634e487b7160e01b5f525260245ffd5b50801561478357600160c01b0482168461448d565b601286634e487b7160e01b5f525260245ffd5b8691614466565b9280156147ad575f190492614458565b601285634e487b7160e01b5f525260245ffd5b936b048a170391f7dc42444e8fa290818102918183041490151715613f6e57891c93614451565b946d2216e584f5fa1ea926041bedfe989081810291818304149015171561475b578a1c94614447565b946e5d6af8dedb81196699c329225ee6049081810291818304149015171561475b578a1c9461443c565b946f09aa508b5b7a84e1c677de54f3e99bc99081810291818304149015171561475b578a1c94614431565b946f31be135f97d08fd981231505542fcfa69081810291818304149015171561475b578a1c94614426565b946f70d869a156d2a1b890bb3df62baf32f79081810291818304149015171561475b578a1c9461441c565b946fa9f746462d870fdf8a65dc1f90e061e59081810291818304149015171561475b578a1c94614412565b946fd097f3bdfd2022b8845ad8f792aa58259081810291818304149015171561475b578a1c94614408565b946fe7159475a2c29b7443b29c7fa6e889d99081810291818304149015171561475b578a1c946143fe565b946ff3392b0822b70005940c7a398e4b70f39081810291818304149015171561475b578a1c946143f4565b946ff987a7253ac413176f2b074cf7815e549081810291818304149015171561475b578a1c946143ea565b946ffcbe86c7900a88aedcffc83b479aa3a49081810291818304149015171561475b578a1c946143e0565b946ffe5dee046a99a2a811c461f1969c30539081810291818304149015171561475b578a1c946143d6565b936fff2ea16466c96a3843ec78b326b5286190818102918183041490151715613f6e5760801c936143cb565b936fff973b41fa98c081472e6896dfb254c090818102918183041490151715613f6e5760801c936143c2565b936fffcb9843d60f6159c9db58835c92664490818102918183041490151715613f6e5760801c936143b9565b936fffe5caca7e10e4e61c3624eaa0941cd090818102918183041490151715613f6e5760801c936143b0565b936ffff2e50f5f656932ef12357cf3c7fdcc90818102918183041490151715613f6e5760801c936143a7565b926ffff97272373d413259a46990580e213a908181029181830414901517156134075760801c9261439c565b6001600160881b03600160801b614392565b60405162461bcd60e51b81526020600482015260016024820152601560fa1b6044820152606490fd5b8296614367565b600292830b920b821215614b475750505f1990565b60020b1215614b5557600190565b5f90565b60881c614b64613cb5565b90815190815b614b7357505090565b600f81166010811015613ca1575f19830190838211613407576f181899199a1a9b1b9c1cb0b131b232b360811b901a90614bad9085613c90565b5360041c908015613407575f19019081614b6a565b614bca613cb5565b90815190815b614bd957505090565b600f81166010811015613ca1575f19830190838211613407576f181899199a1a9b1b9c1cb0b131b232b360811b901a90614c139085613c90565b5360041c908015613407575f19019081614bd0565b919091805115614d125780519260029160028501809511613407576003948590046001600160fe1b038116810361340757614c689060029694961b613ccf565b9260208401928291835184019760208901928351945f85525b8a8110614cc557505050506003939495965052510680600114614cb357600214614ca9575090565b603d905f19015390565b50603d90815f19820153600119015390565b836004919b989b019a8b51600190603f9082828260121c16870101518453828282600c1c16870101518385015382828260061c168701015187850153168401015185820153019699614c81565b509050604051614d2181613850565b5f815290565b600160ff1b8114613407575f0390565b7f3c7376672077696474683d2732393027206865696768743d273530302720766981527f6577426f783d2730203020323930203530302720786d6c6e733d27687474703a60208201527f2f2f7777772e77332e6f72672f323030302f737667273e3c636972636c652063604082015262783d2760e81b606082015260630190565b7f707822206865696768743d2232367078222072783d22387078222072793d223881527f7078222066696c6c3d227267626128302c302c302c302e362922202f3e0000006020820152603d0190565b600160801b91905f19838209928160801b92838086109503948086039514614e7157507003298b075b4b6a5240945790619b37fd4a91848311156134d15709118082038060ff1b04600160ff1b149114171561340757634e487b7160e01b5f52601160045260245ffd5b935050507003298b075b4b6a5240945790619b37fd4a900490565b7003298b075b4b6a5240945790619b37fd4a905f1982820982820291828083109203918083039214614ee457600160801b828111156134d157613bc794614ed99209918383119003613e08565b910360801c17613e21565b5050905060801c90565b5f198282099082810292838084109303928084039314614f4257600160401b91838311156134d1570982811191828103928360c01b938404600160c01b149114171561340757613bc7920360401c17613e21565b50505060401c90565b620186a0905f1982820982820291828083109203918083039214614ee457600160801b828111156134d157613bc794614ed99209918383119003613e08565b72047bf19673df52e37f2410011d100000000000905f1982820982820291828083109203918083039214614ee457600160801b828111156134d157613bc794614ed99209918383119003613e08565b604051614fe581613850565b5f8152908060020b5f8112615042575b50602061500962ffffff613bc79316613f81565b9260405193816150228693518092868087019101613920565b820161503682518093868085019101613920565b0103808452018261386c565b9150505f038060020b90810361340757613bc7602061500962ffffff60405161506a81613818565b60018152602d60f81b848201529493505050614ff5565b6040519061508e82613818565b6002825261323760f01b6020830152565b604051906150ac82613818565b6002825261323160f01b6020830152565b604051906150ca82613818565b6002825261062760f31b6020830152565b604051906150e882613818565b60018252600760fb1b6020830152565b600291820b90820b01627fffff198112627fffff82131761340757810b819005810b6201869f1981121561514e5750506151306150db565b9060405161513d81613818565b60018152603760f81b602082015290565b61c34f198112156151845750506151636150db565b9060405161517081613818565b600481526331302e3560e01b602082015290565b61270f198112156151bb5750506151996150db565b906040516151a681613818565b600581526431342e323560d81b602082015290565b6063198112156151e95750604051906151d382613818565b815261031360f41b602082015290613bc76150bd565b5f8112156152155750604051906151ff82613818565b815261313160f01b602082015290613bc761509f565b606481121561525857509060405161522c81613818565b82815261313360f01b6020820152916040519061524882613818565b815261323360f01b602082015290565b61271081121561529c57509060405161527081613818565b82815261313560f01b6020820152916040519061528c82613818565b815261323560f01b602082015290565b61c3508112156152ce5750906152b06150bd565b91604051906152be82613818565b815261191b60f11b602082015290565b620186a013156152ea57506152e161509f565b90613bc7615081565b604051906152f782613818565b8152610c8d60f21b602082015290613bc761508156fe74654e616d653d2273746172744f6666736574222066726f6d3d223025222074a264697066735822122070c8baaa25f92d31d52ab4106250ad59ea429969e5399759109497296f0d688d64736f6c63430008180033","linkReferences":{}},"methodIdentifiers":{"constructTokenURI(NFTDescriptor.ConstructTokenURIParams)":"c49917d7"},"id":127}