{
  "abi": [
    {
      "type": "function",
      "name": "constructTokenURI",
      "inputs": [
        {
          "name": "params",
          "type": "tuple",
          "internalType": "struct NFTDescriptor.ConstructTokenURIParams",
          "components": [
            {
              "name": "tokenId",
              "type": "uint256",
              "internalType": "uint256"
            },
            {
              "name": "quoteTokenAddress",
              "type": "address",
              "internalType": "address"
            },
            {
              "name": "baseTokenAddress",
              "type": "address",
              "internalType": "address"
            },
            {
              "name": "quoteTokenSymbol",
              "type": "string",
              "internalType": "string"
            },
            {
              "name": "baseTokenSymbol",
              "type": "string",
              "internalType": "string"
            },
            {
              "name": "quoteTokenDecimals",
              "type": "uint8",
              "internalType": "uint8"
            },
            {
              "name": "baseTokenDecimals",
              "type": "uint8",
              "internalType": "uint8"
            },
            {
              "name": "flipRatio",
              "type": "bool",
              "internalType": "bool"
            },
            {
              "name": "tickLower",
              "type": "int24",
              "internalType": "int24"
            },
            {
              "name": "tickUpper",
              "type": "int24",
              "internalType": "int24"
            },
            {
              "name": "tickCurrent",
              "type": "int24",
              "internalType": "int24"
            },
            {
              "name": "tickSpacing",
              "type": "int24",
              "internalType": "int24"
            },
            {
              "name": "fee",
              "type": "uint24",
              "internalType": "uint24"
            },
            {
              "name": "poolAddress",
              "type": "address",
              "internalType": "address"
            }
          ]
        }
      ],
      "outputs": [
        {
          "name": "",
          "type": "string",
          "internalType": "string"
        }
      ],
      "stateMutability": "pure"
    }
  ],
  "bytecode": {
    "object": "0x6080806040523461001a576153bb908161001f823930815050f35b5f80fdfe600436101561000c575f80fd5b5f3560e01c63c49917d71461001f575f80fd5b6003196020368201126134cf5767ffffffffffffffff600435116134cf576101c090600435360301126134cf576103c0604052600435600401356102005261006b60246004350161388c565b6102205261007d60043560440161388c565b610240526004356064013567ffffffffffffffff81116134cf576100a89060043691813501016138bc565b610260526004356084013567ffffffffffffffff81116134cf576100d39060043691813501016138bc565b610280526100e560043560a401613902565b6102a0526100f760043560c401613902565b6102c05260043560e4013580151581036134cf576102e05261011e60043561010401613910565b6103005261013160043561012401613910565b6103205261014460043561014401613910565b6103405261015760043561016401613910565b61036052600435610184013562ffffff811690036134cf5760043561018481013561038052610189906101a40161388c565b6103a05261030f60336101a7600435610184013562ffffff16614afa565b610260516101b490613cd3565b610280516101c190613cd3565b6102e0516101fb90158015613809576103005160020b905b610360516102c0516102a05192159360ff938416939091169160020b90613e2f565b9161023760e0610200015115805f146137fd576103205160020b5b610360516102c0516102a05193159360ff9081169391169160020b90613e2f565b936040516101a0526902ab734b9bbb0b81016960b51b60206101a051015261026c815180926020602a6101a05101910161391e565b6101a051016201016960ed1b602a820152610291825180936020602d8501910161391e565b602f60f81b602d83830101526102b3835180946020602e86860101910161391e565b01016201016960ed1b602e8201526102d582518093602060318501910161391e565b0190611e1f60f11b60318301526102f5815180926020868601910161391e565b6101a051910103601381016101a05152016101a05161386a565b6104a460ad61032360606102000151613cd3565b6102805161033090613cd3565b6103a051909190610349906001600160a01b0316614d44565b916040516101c0527f54686973204e465420726570726573656e74732061206c69717569646974792060206101c05101527f706f736974696f6e20696e206120556e6973776170205633200000000000000060406101c051015281516103b98160596101c051016020860161391e565b6101c05101602d60f81b60598201526103dc825180936020605a8501910161391e565b0191660103837b7b617160cd1b605a8401527f546865206f776e6572206f662074686973204e46542063616e206d6f6469667960618401527f206f722072656465656d2074686520706f736974696f6e2e5c6e00000000000060818401526f02e372837b7b61020b2323932b9b99d160851b609b84015261046781518092602060ab8701910161391e565b612e3760f11b60ab82850101526104898251809360208785880101910161391e565b6101c05192010103608d81016101c05152016101c05161386a565b6106c260f06104b561020051613b34565b610280516104c290613cd3565b610220516104d8906001600160a01b0316614d44565b610240519091906104f1906001600160a01b0316614d44565b9061050762ffffff610180610200015116614afa565b9260405160c0526901020b2323932b9b99d160b51b602060c0510152610539815180926020602a60c05101910161391e565b612e3760f11b602a8260c051010152610560825180936020602c8560c0510101910161391e565b60c05101016901020b2323932b9b99d160b51b602c82015261058c82518093602060368501910161391e565b016b02e372332b2902a34b2b91d160a51b60368201526105b682518093602060428501910161391e565b016b02e372a37b5b2b71024a21d160a51b60428201526105e0825180936020604e8501910161391e565b01632e372e3760e11b604e8201527fe29aa0efb88f20444953434c41494d45523a204475652064696c6967656e636560528201527f20697320696d7065726174697665207768656e20617373657373696e6720746860728201527f6973204e46542e204d616b65207375726520746f6b656e20616464726573736560928201527f73206d617463682074686520657870656374656420746f6b656e732c2061732060b28201527f746f6b656e2073796d626f6c73206d617920626520696d6974617465642e000060d282015260c051900360d0810160c051520160c05161386a565b610220516106d8906001600160a01b0316614d44565b610240516106ee906001600160a01b0316614d44565b610180526103a0516001600160a01b031660e05261026051610280516101e052610380516107209062ffffff16614afa565b610100610200015160020b610120610200015160020b610160610200015160020b610756610140610200015160020b8385614e57565b6102005161022051909290610773906001600160a01b0316614e7e565b610160526102405161078d906001600160a01b0316614e7e565b610220519094906107a6906001600160a01b0316614efb565b610240519096906107bf906001600160a01b0316614efb565b976107ec6107e760ff6107e16020610200015182610200519160101c166139c8565b066139db565b613b34565b996108146107e760ff61080e6040610200015182610200519160101c166139c8565b066139e9565b9b6108366107e760ff6107e16020610200015182610200519160201c166139c8565b60805261085a6107e760ff61080e6040610200015182610200519160201c166139c8565b60a05261087e6107e760ff6107e16020610200015182610200519160301c166139c8565b610100526108a36107e760ff61080e6040610200015182610200519160301c166139c8565b6101405260405161012081905267ffffffffffffffff6102a082019081119111176133b5576102a06101205101604052610120515261018051602061012051015260e051604061012051015260606101205101526101e051608061012051015260a061012051015260c061012051015260e06101205101526101006101205101525f0b61012080510152610140610120510152610160516101606101205101526101806101205101526101a06101205101526101c06101205101526101e061012051015261020061012051015260805161022061012051015260a05161024061012051015261010051610260610120510152610140516102806101205101527f203c616e696d6174652061646469746976653d2273756d222061747472696275610abc6040517f3c7376672077696474683d2732393027206865696768743d273530302720766960208201527f6577426f783d2730203020323930203530302720786d6c6e733d27687474703a60408201527f2f2f7777772e77332e6f72672f323030302f737667273e3c726563742077696460608201527f74683d27323930707827206865696768743d273530307078272066696c6c3d276080820152602360f81b60a0820152610aae60aa826101605151610a8a8160a184016020610160510161391e565b6813979f1e17b9bb339f60b91b60a18284010152810103608a81018452018261386a565b610ab661393f565b90613a40565b6119e56109e7610b886020610aae60226101e061012051015161020061012051015161018061012051015190604051958693610b09610afc838701614f61565b918281519485920161391e565b65272063793d2760d01b82820152610b2d835180946020600686860101910161391e565b722720723d273132307078272066696c6c3d272360681b600684848401010152610b658451809560206019878787010101910161391e565b0101016813979f1e17b9bb339f60b91b601982015203600281018452018261386a565b92610c366020610aae60226102206101205101516102406101205101516101a061012051015190604051958693610bc3610afc838701614f61565b0165272063793d2760d01b8152610be482518093602060068501910161391e565b01722720723d273132307078272066696c6c3d272360681b6006820152610c1582518093602060198501910161391e565b016813979f1e17b9bb339f60b91b601982015203600281018452018261386a565b610cc26020610aae60226102606101205101516102806101205101516101c061012051015190604051958693610c70610afc838701614f61565b0165272063793d2760d01b8152610c9182518093602060068501910161391e565b01722720723d273130307078272066696c6c3d272360681b6006820152610c1582518093602060198501910161391e565b947f2220783d223070782220793d22307078222077696474683d22323930707822206101606101205101516040519788957f3c7376672077696474683d2232393022206865696768743d223530302220766960208801527f6577426f783d2230203020323930203530302220786d6c6e733d22687474703a6040880152751797bbbbbb973b999737b933979918181817b9bb339160511b60608801527f20786d6c6e733a786c696e6b3d27687474703a2f2f7777772e77332e6f72672f60768801526b189c9c9c97bc3634b735939f60a11b6096880152651e3232b3399f60d11b60a28801527f3c66696c7465722069643d226631223e3c6665496d61676520726573756c743d60a88801527f2270302220786c696e6b3a687265663d22646174613a696d6167652f7376672b60c88801526a1e1b5b0ed8985cd94d8d0b60aa1b60e8880152610e1c81518092602060f38b01910161391e565b8601947f222f3e3c6665496d61676520726573756c743d2270312220786c696e6b3a687260f38701527f65663d22646174613a696d6167652f7376672b786d6c3b6261736536342c0000806101138801527f222f3e3c6665496d61676520726573756c743d2270322220786c696e6b3a6872610131610ea4885180996020848d01910161391e565b87890101526101518688010152610ec881518092602061016f898b0101910161391e565b631110179f60e11b868601820161016f8101919091527f3c6665496d61676520726573756c743d2270332220786c696e6b3a687265663d6101738201527f22646174613a696d6167652f7376672b786d6c3b6261736536342c0000000000610193820152825192610f449184916101ae9091019060200161391e565b7f22202f3e3c6665426c656e64206d6f64653d226f7665726c61792220696e3d22868601820183016101ae8101919091527f70302220696e323d22703122202f3e3c6665426c656e64206d6f64653d2265786101ce8201527f636c7573696f6e2220696e323d22703222202f3e3c6665426c656e64206d6f646101ee8201527f653d226f7665726c61792220696e323d2270332220726573756c743d22626c6561020e8201527f6e644f757422202f3e3c6665476175737369616e426c7572200000000000000061022e8201527f696e3d22626c656e644f75742220737464446576696174696f6e3d22343222206102478201527f2f3e3c2f66696c7465723e203c636c6970506174682069643d22636f726e65726102678201527f73223e3c726563742077696474683d2232393022206865696768743d223530306102878201527f222072783d223432222072793d22343222202f3e3c2f636c6970506174683e006102a78201527f3c706174682069643d22746578742d706174682d612220643d224d34302031326102c68201527f20483235302041323820323820302030203120323738203430205634363020416102e68201527f32382032382030203020312032353020343838204834302041323820323820306103068201527f2030203120313220343630205634302041323820323820302030203120343020610326820152671899103d1110179f60c11b6103468201527f3c706174682069643d226d696e696d61702220643d224d32333420343434433261034e8201527f3334203435372e393439203234322e323120343633203235332034363322202f61036e820152601f60f91b61038e82018190527f3c66696c7465722069643d22746f702d726567696f6e2d626c7572223e3c666561038f8301527f476175737369616e426c757220696e3d22536f757263654772617068696322206103af8301527f737464446576696174696f6e3d22323422202f3e3c2f66696c7465723e0000006103cf8301527f3c6c696e6561724772616469656e742069643d22677261642d7570222078313d6103ec8301527f2231222078323d2230222079313d2231222079323d2230223e3c73746f70206f61040c8301527f66667365743d22302e30222073746f702d636f6c6f723d22776869746522207361042c830152713a37b816b7b830b1b4ba3c9e91189110179f60711b61044c8301527f3c73746f70206f66667365743d222e39222073746f702d636f6c6f723d22776861045e8301527f697465222073746f702d6f7061636974793d223022202f3e3c2f6c696e65617261047e8301526823b930b234b2b73a1f60b91b61049e8301527f3c6c696e6561724772616469656e742069643d22677261642d646f776e2220786104a78301527f313d2230222078323d2231222079313d2230222079323d2231223e3c73746f706104c78301527f206f66667365743d22302e30222073746f702d636f6c6f723d227768697465226104e78301527f2073746f702d6f7061636974793d223122202f3e3c73746f70206f66667365746105078301527f3d22302e39222073746f702d636f6c6f723d227768697465222073746f702d6f6105278301527f7061636974793d223022202f3e3c2f6c696e6561724772616469656e743e00006105478301527f3c6d61736b2069643d22666164652d757022206d61736b436f6e74656e74556e6105658301527f6974733d226f626a656374426f756e64696e67426f78223e3c726563742077696105858301527f6474683d223122206865696768743d2231222066696c6c3d2275726c282367726105a58301527030b216bab8149110179f1e17b6b0b9b59f60791b6105c58301527f3c6d61736b2069643d22666164652d646f776e22206d61736b436f6e74656e746105d68301527f556e6974733d226f626a656374426f756e64696e67426f78223e3c72656374206105f68301527f77696474683d223122206865696768743d2231222066696c6c3d2275726c28236106168301527433b930b216b237bbb7149110179f1e17b6b0b9b59f60591b6106368301527f3c6d61736b2069643d226e6f6e6522206d61736b436f6e74656e74556e69747361064b8301527f3d226f626a656374426f756e64696e67426f78223e3c7265637420776964746861066b8301527f3d223122206865696768743d2231222066696c6c3d22776869746522202f3e3c61068b8301526517b6b0b9b59f60d11b6106ab8301527f3c6c696e6561724772616469656e742069643d22677261642d73796d626f6c226106b18301527f3e3c73746f70206f66667365743d22302e37222073746f702d636f6c6f723d226106d18301527f7768697465222073746f702d6f7061636974793d223122202f3e3c73746f70206106f18301527f6f66667365743d222e3935222073746f702d636f6c6f723d22776869746522206107118301527f73746f702d6f7061636974793d223022202f3e3c2f6c696e65617247726164696107318301526332b73a1f60e11b6107518301527f3c6d61736b2069643d22666164652d73796d626f6c22206d61736b436f6e74656107558301527f6e74556e6974733d227573657253706163654f6e557365223e3c7265637420776107758301527f696474683d22323930707822206865696768743d223230307078222066696c6c6107958301527f3d2275726c2823677261642d73796d626f6c2922202f3e3c2f6d61736b3e3c2f6107b5830152643232b3399f60d91b6107d58301527f3c6720636c69702d706174683d2275726c2823636f726e65727329223e0000006107da8301526b1e3932b1ba103334b6361e9160a11b6107f78301528451610803989197909590926117869187918b019060200161391e565b0101010192830152703432b4b3b43a1e911a9818383c1110179f60791b6108238301527f3c72656374207374796c653d2266696c7465723a2075726c28236631292220786108348301527f3d223070782220793d22307078222077696474683d22323930707822206865696108548301526d33b43a1e911a9818383c1110179f60911b6108748301527f203c67207374796c653d2266696c7465723a75726c2823746f702d726567696f6108828301527f6e2d626c7572293b207472616e73666f726d3a7363616c6528312e35293b20746108a28301527f72616e73666f726d2d6f726967696e3a63656e74657220746f703b223e0000006108c28301527f3c726563742066696c6c3d226e6f6e652220783d223070782220793d223070786108df8301527f222077696474683d22323930707822206865696768743d22353030707822202f6108ff83015261091f8201527f3c656c6c697073652063783d22353025222063793d22307078222072783d22316109208201527f38307078222072793d223132307078222066696c6c3d222330303022206f70616109408201527131b4ba3c9e9118171c1a9110179f1e17b39f60711b6109608201527f3c7265637420783d22302220793d2230222077696474683d22323930222068656109728201527f696768743d22353030222072783d223432222072793d223432222066696c6c3d6109928201527f227267626128302c302c302c302922207374726f6b653d2272676261283235356109b28201527416191a9a96191a9a96181719149110179f1e17b39f60591b6109d2820152036109c781018452018261386a565b611f8e61046061012051516020610120510151856060610120510151916080610120510151936040519889957f3c7465787420746578742d72656e646572696e673d226f7074696d697a65537060208801526432b2b2111f60d91b60408801527f3c74657874506174682073746172744f66667365743d222d313030252220666960458801527f6c6c3d2277686974652220666f6e742d66616d696c793d2227436f757269657260658801527f204e6577272c206d6f6e6f73706163652220666f6e742d73697a653d2231307060858801527f782220786c696e6b3a687265663d2223746578742d706174682d61223e00000060a58801528351611af08160c28a016020880161391e565b87019364010714051160dd1b60c28601528151611b148160c788016020860161391e565b85810160c781018590525f8051602061536683398151915260e78201527f6f3d22313030252220626567696e3d22307322206475723d22333073222072656101078201527f70656174436f756e743d22696e646566696e69746522202f3e000000000000006101278201527f3c2f74657874506174683e203c74657874506174682073746172744f666673656101408201527f743d223025222066696c6c3d2277686974652220666f6e742d66616d696c793d6101608201527f2227436f7572696572204e6577272c206d6f6e6f73706163652220666f6e742d6101808201527f73697a653d22313070782220786c696e6b3a687265663d2223746578742d70616101a0820152653a3416b0911f60d11b6101c082015282516101c69790939091611c469185918a019060200161391e565b01019364010714051160dd1b908501526101cb93611c6d825180936020888501910161391e565b01928301525f805160206153668339815191526101eb8301527f6f3d22313030252220626567696e3d22307322206475723d223330732220726561020b8301527f70656174436f756e743d22696e646566696e69746522202f3e203c2f7465787461022b830152642830ba341f60d91b61024b8301527f3c74657874506174682073746172744f66667365743d22353025222066696c6c6102508301527f3d2277686974652220666f6e742d66616d696c793d2227436f7572696572204e6102708301527f6577272c206d6f6e6f73706163652220666f6e742d73697a653d2231307078226102908301527f20786c696e6b3a687265663d2223746578742d706174682d61223e00000000006102b08301526102cb9181516020830191611d97828683018561391e565b019264010714051160dd1b908401526102d08486516020880195611dbe828583018961391e565b01918201525f805160206153668339815191526102f08201527f6f3d22313030252220626567696e3d22307322206475723d22333073220000006103108201527f20726570656174436f756e743d22696e646566696e69746522202f3e3c2f746561032d8201527f7874506174683e3c74657874506174682073746172744f66667365743d222d3561034d8201527f3025222066696c6c3d2277686974652220666f6e742d66616d696c793d22274361036d8201527f6f7572696572204e6577272c206d6f6e6f73706163652220666f6e742d73697a61038d8201527f653d22313070782220786c696e6b3a687265663d2223746578742d706174682d6103ad8201526230911f60e91b6103cd820152611ee16103d0935180938584019061391e565b019064010714051160dd1b90820152611f036103d5945180938684019061391e565b01918201525f805160206153668339815191526103f58201527f6f3d22313030252220626567696e3d22307322206475723d22333073222072656104158201527f70656174436f756e743d22696e646566696e69746522202f3e3c2f74657874506104358201526a30ba341f1e17ba32bc3a1f60a91b6104558201520361044081018552018361386a565b60606101205101516122596101e360806101205101519260a06101205101516040519485927f3c67206d61736b3d2275726c2823666164652d73796d626f6c29223e3c72656360208501527f742066696c6c3d226e6f6e652220783d223070782220793d223070782220776960408501527f6474683d22323930707822206865696768743d22323030707822202f3e203c7460608501527f65787420793d22373070782220783d2233327078222066696c6c3d227768697460808501527f652220666f6e742d66616d696c793d2227436f7572696572204e6577272c206d60a08501527f6f6e6f73706163652220666f6e742d7765696768743d223230302220666f6e7460c08501526c16b9b4bd329e91199b383c111f60991b60e08501526120c181518092602060ed8801910161391e565b8301602f60f81b60ed8201526120e182518093602060ee8501910161391e565b7f3c2f746578743e3c7465787420793d2231313570782220783d2233327078222081830160ee8101919091527f66696c6c3d2277686974652220666f6e742d66616d696c793d2227436f75726961010e8201527f6572204e6577272c206d6f6e6f73706163652220666f6e742d7765696768743d61012e8201527f223230302220666f6e742d73697a653d2233367078223e00000000000000000061014e82015283519361219a9185916101659091019060200161391e565b6a1e17ba32bc3a1f1e17b39f60a91b6101659190920192909201918201527f3c7265637420783d2231362220793d223136222077696474683d2232353822206101708201527f6865696768743d22343638222072783d223236222072793d223236222066696c6101908201527f6c3d227267626128302c302c302c302922207374726f6b653d227267626128326101b0820152721a9a96191a9a96191a9a96181719149110179f60691b6101d0820152036101c381018452018261386a565b60c061012051015160020b9260e061012051015160020b61010061012051015160020b94610120805101515f0b95600187145f146137a85760405161229d81613816565b6008815267023666164652d75760c41b6020820152915b627fffff81850313627fffff1982860312176134055781156133f15780840360020b627fffff19145f19831416613405576127e3930360020b0560020b60048113155f146135cf575060405161230981613816565b601a81527f4d312031433431203431203130352031303520313435203134350000000000006020820152955b60405161234181613816565b600281526020810161373360f01b815260405161235d81613816565b6003815260208101936203139360ec1b85526040519261237c84613816565b6003845260208401956232313760e81b87526040519661239b88613816565b600388526020880191620ccccd60ea1b835260018514600186036135c5575b156134f15750505050916124fa9391608d935f191495865f146134ea57835b87156134e35782935b88156134db5750965b156134d35750905b6040519586936b1e31b4b931b6329031bc1e9160a11b6020860152612422815180926020602c8901910161391e565b84019167383c111031bc9e9160c11b9283602c82015261244c82518093602060348501910161391e565b017f70782220723d22347078222066696c6c3d22776869746522202f3e3c6369726360348201526636329031bc1e9160c91b6054820152612497825180936020605b8501910161391e565b0190605b8201526124b282518093602060638501910161391e565b017f70782220723d2232347078222066696c6c3d226e6f6e6522207374726f6b653d606382015269113bb434ba329110179f60b11b608382015203606d81018452018261386a565b905b6040519687916c078ce40dac2e6d67a44eae4d85609b1b6020840152805161252b81602d86016020850161391e565b61149160f11b848201602d8101919091527f207374796c653d227472616e73666f726d3a7472616e736c6174652837327078602f8201527f2c313839707829223e3c7265637420783d222d313670782220793d222d313670604f8201527f78222077696474683d22313830707822206865696768743d2231383070782220606f8201527f66696c6c3d226e6f6e6522202f3e3c7061746820643d22000000000000000000608f820152835191906125ea90839060a6016020870161391e565b8401017f22207374726f6b653d227267626128302c302c302c302e332922207374726f6b60a68201527f652d77696474683d2233327078222066696c6c3d226e6f6e6522207374726f6b60c6820152733296b634b732b1b0b81e913937bab7321110179f60611b60e6820152700785ece7c78ce40dac2e6d67a44eae4d85607b1b60fa82015261268582518093602061010b8501910161391e565b61149160f11b81830161010b8101919091527f207374796c653d227472616e73666f726d3a7472616e736c617465283732707861010d8201526816189c1cb83c14911f60b91b61012d8201527f3c7265637420783d222d313670782220793d222d31367078222077696474683d6101368201527f22313830707822206865696768743d223138307078222066696c6c3d226e6f6e61015682015264329110179f60d91b610176820152681e3830ba3410321e9160b91b61017b8201528351936127599185916101849091019060200161391e565b0101917f22207374726f6b653d2272676261283235352c3235352c3235352c31292220666101848401527f696c6c3d226e6f6e6522207374726f6b652d6c696e656361703d22726f756e646101a4840152671110179f1e17b39f60c11b6101c48401526101cc926127d3825180936020878501910161391e565b01036101ac81018752018561386a565b6127f4610140610120510151613b34565b9060c061012051015160020b9160e061012051015160020b9261281681615031565b9061282085615031565b835192600484018411613405578051600a81019384821161340557835198600a8a0191828b116134055760049161285691615150565b96909760088101928391011161340557600791808302908382040361340557612880600e91613b34565b9401809111613405578082029082820403613405576128a0600e91613b34565b9a01809211613405578082810204820361340557026128be90613b34565b956040519889977f203c67207374796c653d227472616e73666f726d3a7472616e736c61746528328060208b01526c1cb83c1610199c1a383c14911f60991b60408b01526c1e3932b1ba103bb4b23a341e9160991b9485604d8c015280519081605a8d0191602001916129309261391e565b8a01605a0161293e90614fe2565b947f3c7465787420783d22313270782220793d22313770782220666f6e742d66616d968787527f696c793d2227436f7572696572204e6577272c206d6f6e6f7370616365222066948560208901527f6f6e742d73697a653d2231327078222066696c6c3d227768697465223e3c7473968760408a01527f70616e2066696c6c3d2272676261283235352c3235352c3235352c302e36292298896060820152608081016c1f24a21d101e17ba39b830b71f60991b905281519182608d83019160200191612a099261391e565b01608d81016a1e17ba32bc3a1f1e17b39f60a91b90528460988201526c1cb83c16101a189a383c14911f60991b60b88201528360c58201528151918260d283019160200191612a579261391e565b0160d201612a6490614fe2565b88815285602082015286604082015287606082015260808101721f26b4b7102a34b1b59d101e17ba39b830b71f60691b905281519182609383019160200191612aac9261391e565b0191609383016a1e17ba32bc3a1f1e17b39f60a91b9052609e8301526c1cb83c16101a1a1a383c14911f60991b60be83015260cb8201528151918260d883019160200191612af99261391e565b0160d801612b0690614fe2565b93845260208401526040830152606082015260808101721f26b0bc102a34b1b59d101e17ba39b830b71f60691b905281519182609383019160200191612b4b9261391e565b7f3c2f746578743e3c2f673e3c67207374796c653d227472616e73666f726d3a74609392909101918201527f72616e736c6174652832323670782c20343333707829223e000000000000000060b38201527f3c726563742077696474683d223336707822206865696768743d22333670782260cb8201527f2072783d22387078222072793d22387078222066696c6c3d226e6f6e6522207360eb8201527f74726f6b653d2272676261283235352c3235352c3235352c302e322922202f3e61010b8201527f3c70617468207374726f6b652d6c696e656361703d22726f756e642220643d2261012b8201527f4d38203943382e30303030342032322e393439342031362e323039392032382061014b8201527f3237203238222066696c6c3d226e6f6e6522207374726f6b653d22776869746561016b820152631110179f60e11b61018b8201527f3c636972636c65207374796c653d227472616e73666f726d3a7472616e736c6161018f820152640e8ca66c8560db1b6101af82015282516101b493909190612ce39083908684019060200161391e565b01918201630383c16160e51b90526101b891815191828483019160200191612d0a9261391e565b019081017f70782c2030707829222063783d22307078222063793d223070782220723d2234905275383c11103334b6361e913bb434ba3291179f1e17b39f60511b6101d8820152036101ce810183526101ee01612d67908361386a565b610120516101400151610120516040015160405160208101918383526bffffffffffffffffffffffff199060601b16604082015260348152612da881613832565b51902090805f9180156134cf57600160801b8110156134c0575b50600160401b8110156134a3575b640100000000811015613486575b62010000811015613469575b610100811015613451575b6010811015613439575b8060046002921015613427575b1015613419575b60011b6101fe60fe8216911681036134055760010160ff81116134055760ff8116156133f15760ff165f190411156133c957604051947f3c67207374796c653d227472616e73666f726d3a7472616e736c61746528323260208701527f3670782c20333932707829223e3c726563742077696474683d2233367078222060408701527f6865696768743d2233367078222072783d22387078222072793d22387078222060608701527f66696c6c3d226e6f6e6522207374726f6b653d2272676261283235352c32353560808701526c16191a9a96181719149110179f60991b60a08701527f3c673e3c70617468207374796c653d227472616e73666f726d3a7472616e736c60ad8701527f617465283670782c367078292220643d224d313220304c31322e36353232203960cd8701527f2e35363538374c313820312e363037374c31332e373831392031302e3231383160ed87015272026191917199c9919901b26189a171a199a189606d1b61010d8701527f31312e333437384c32342031324c31342e343334312031322e363532324c32326101208701527f2e333932332031384c31332e373831392031332e373831394c31382032322e336101408701527f3932334c31322e363532322031342e343334314c31322032344c31312e33343761016087015270382031342e343334314c362032322e333960781b6101808701527f32334c31302e323138312031332e373831394c312e363037372031384c392e356101918701527f363538372031322e363532324c302031324c392e35363538372031312e3334376101b18701527f384c312e3630373720364c31302e323138312031302e323138314c3620312e366101d18701527f3037374c31312e3334373820392e35363538374c313220305a222066696c6c3d6101f187015269113bb434ba329110179f60b11b6102118701527f3c616e696d6174655472616e73666f726d206174747269627574654e616d653d61021b8701527f227472616e73666f726d2220747970653d22726f74617465222066726f6d3d2261023b8701527f302031382031382220746f3d2233363020313820313822206475723d2231307361025b8701527f2220726570656174436f756e743d22696e646566696e697465222f3e3c2f673e61027b870152631e17b39f60e11b61029b87015261027f8652856102a081011067ffffffffffffffff6102a0880111176133b55760266040956133389561324995610aae948a6102a06133a79c018b52925b8a5197856131c68a975180926020808b01910161391e565b86016131db825180936020808501910161391e565b016131ef825180936020808501910161391e565b01613203825180936020808501910161391e565b01613217825180936020808501910161391e565b0161322b825180936020808501910161391e565b01651e17b9bb339f60d11b602082015203600681018452018261386a565b610aae606484518093683d913730b6b2911d1160b91b60208301526101a0515161327d816029850160206101a0510161391e565b820171111610113232b9b1b934b83a34b7b7111d1160711b60298201526101c05151906132b482603b830160206101c0510161391e565b0160c05151906132cd82603b8301602060c0510161391e565b016c1116101134b6b0b3b2911d101160991b603b8201527f646174613a696d6167652f7376672b786d6c3b6261736536342c000000000000604882015261331e82518093602060628501910161391e565b0161227d60f01b606282015203604481018452018261386a565b81519061338c603d8360208101937f646174613a6170706c69636174696f6e2f6a736f6e3b6261736536342c000000855261337c815180926020868601910161391e565b810103601d81018552018361386a565b8251938492602084525180928160208601528585019061391e565b601f01601f19168101030190f35b634e487b7160e01b5f52604160045260245ffd5b610aae602660409561333895613249956133a79989516133e88161384e565b5f8152926131ae565b634e487b7160e01b5f52601260045260245ffd5b634e487b7160e01b5f52601160045260245ffd5b61342290614787565b612e13565b61343390821c92614775565b91612e0c565b60ff600491821c92160160ff81116134055790612dff565b60ff600891821c92160160ff81116134055790612df5565b60101c9060ff601081831601116134055760ff1660100190612dea565b60201c9060ff602081831601116134055760ff1660200190612dde565b60401c9060ff604081831601116134055760ff1660400190612dd0565b91505060801c6080905f612dc2565b5f80fd5b9050906123f3565b9050966123eb565b81936123e2565b82936123d9565b6135bf979450976135aa91607e976135966135359b602c60409a97989a519d8e809c6b1e31b4b931b6329031bc1e9160a11b9c8d602084015251938492019061391e565b8a0161355a67383c111031bc9e9160c11b9889602c840152518093603484019061391e565b01917f70782220723d22347078222066696c6c3d22776869746522202f3e000000000098896034850152604f840152518093605b84019061391e565b0192605b840152518093606384019061391e565b0190606382015203605e81018452018261386a565b906124fc565b505f1985146123ba565b6008811361361457506040516135e481613816565b601981527f4d31203143333320343920393720313133203134352031343500000000000000602082015295612335565b60108113613659575060405161362981613816565b601981527f4d31203143333320353720383920313133203134352031343500000000000000602082015295612335565b6020811361369e575060405161366e81613816565b601981527f4d31203143323520363520383120313231203134352031343500000000000000602082015295612335565b604081136136e357506040516136b381613816565b601981527f4d31203143313720373320373320313239203134352031343500000000000000602082015295612335565b6080811361372857506040516136f881613816565b601881527f4d31203143392038312036352031333720313435203134350000000000000000602082015295612335565b6101001261376c5760405161373c81613816565b601a81527f4d31203143312038392035372e35203134352031343520313435000000000000602082015295612335565b60405161377881613816565b601881527f4d31203143312039372034392031343520313435203134350000000000000000602082015295612335565b5f1987036137da576040516137bc81613816565b600a81526911b330b23296b237bbb760b11b60208201525b916122b4565b6040516137e681613816565b6005815264236e6f6e6560d81b60208201526137d4565b6103005160020b610216565b6103205160020b906101d9565b6040810190811067ffffffffffffffff8211176133b557604052565b6060810190811067ffffffffffffffff8211176133b557604052565b6020810190811067ffffffffffffffff8211176133b557604052565b90601f8019910116810190811067ffffffffffffffff8211176133b557604052565b35906001600160a01b03821682036134cf57565b67ffffffffffffffff81116133b557601f01601f191660200190565b81601f820112156134cf578035906138d3826138a0565b926138e1604051948561386a565b828452602083830101116134cf57815f926020809301838601378301015290565b359060ff821682036134cf57565b35908160020b82036134cf57565b5f5b83811061392f5750505f910152565b8181015183820152602001613920565b6040519061394c82613832565b604082527f6768696a6b6c6d6e6f707172737475767778797a303132333435363738392b2f6040837f4142434445464748494a4b4c4d4e4f505152535455565758595a61626364656660208201520152565b908160801b91808304600160801b149015171561340557565b908115600183800414171561340557565b8181029291811591840414171561340557565b906010820180921161340557565b906064820180921161340557565b9190820180921161340557565b81156133f1570490565b90613a18826138a0565b613a25604051918261386a565b8281528092613a36601f19916138a0565b0190602036910137565b805115613b20578051600291828201809211613405576003918290046001600160fe1b038116810361340557613a79908495941b613a0e565b9360208501938291835184019060208201928351945f85525b838110613acf575050505052510680600114613abd57600214613ab3575090565b603d905f19015390565b50603d90815f19820153600119015390565b87600491999293949901918251600190603f9082828260121c16880101518453828282600c1c16880101518385015382828260061c1688010151888501531685010151898201530197929190613a92565b5050604051613b2e8161384e565b5f815290565b805f917a184f03e93ff9f4daa797ed6e38ed64bf6a1f01000000000000000080821015613c67575b506d04ee2d6d415b85acef810000000080831015613c58575b50662386f26fc1000080831015613c49575b506305f5e10080831015613c3a575b5061271080831015613c2b575b506064821015613c1b575b600a80921015613c11575b600190816021613bca828701613a0e565b95860101905b613bdc575b5050505090565b5f19019083906f181899199a1a9b1b9c1cb0b131b232b360811b8282061a835304918215613c0c57919082613bd0565b613bd5565b9160010191613bb9565b9190606460029104910191613bae565b6004919392049101915f613ba3565b6008919392049101915f613b96565b6010919392049101915f613b87565b6020919392049101915f613b75565b60409350810491505f613b5c565b60ff1660ff81146134055760010190565b908151811015613c97570160200190565b634e487b7160e01b5f52603260045260245ffd5b60405190613cb882613816565b6006825260203681840137565b5f1981146134055760010190565b905f805b835160ff821690811015613d2a57601160f91b906001600160f81b031990613cff9087613c86565b511614613d15575b613d1090613c75565b613cd7565b90613d22613d1091613c75565b919050613d07565b50509160ff80931680613d3c57509150565b613d4a613d4f9183516139f7565b613a0e565b905f93845b825182821690811015613dd157613db191906001600160f81b031990613d9290601160f91b83613d84838a613c86565b511614613db6575b86613c86565b511696613dab613da182613cc5565b985f1a9187613c86565b53613c75565b613d54565b605c613dcb613dc48c613cc5565b9b8a613c86565b53613d8c565b50929450505050565b9060020b9060020b02908160020b91820361340557565b60405190613dfe82613816565b600382526226a4a760e91b6020830152565b60405190613e1d82613816565b600382526209a82b60eb1b6020830152565b9094939291600286810b9687156133f157613e508189620d89e71905613dda565b93820b93820b8403613e7e575050505050909150155f14613e7657613e73613df1565b90565b613e73613e10565b613e8e90620d89e8988905613dda565b810b8303613eb45750505050909150155f14613eac57613e73613e10565b613e73613df1565b5f8312156146ea57613ec5836146f1565b965b87116146c157600194878616156146af576001600160881b036ffffcb933bd6fad37aa2d162d1a5940015b1692828916614683575b600494858a16614657575b60088a1661462b575b60108a166145ff575b60208a166145d3575b60408a166145a7575b6080998a811661457c575b6101008116614551575b6102008116614526575b61040081166144fb575b61080081166144d0575b61100081166144a5575b612000811661447a575b614000811661444f575b6180008116614424575b6201000081166143f9575b6202000081166143cf575b620400008116614393575b6208000016614359575b5f12614336575b613fe6919063ffffffff851661432f575f945b60ff956001600160a01b03948592909188169060201c6139f7565b1691614307575b84169584168087035f80831280158a8413168a8412909116176142f45789949392919081126142e557975b881515806142da575b156142ce578493929110156142a7576140469161403f89851c614aec565b91166139c8565b951614614297575b614058848061488d565b600160601b949094119384156142885761407190614929565b925b835f815b614274576140859150614701565b955f856005868a1611614236575b50600a8381880611960495614212575b620186a08614614205575b6141f5575b6140bb614726565b968615614178578416602b03928484116141655784841660070199858b11614152578560208a019b168b52880152602b831161413f57820180921161412c575081613e73969781614113931660a08801525116614701565b1660408401525b825260c08201525f60e0820152614987565b601190634e487b7160e01b5f525260245ffd5b601182634e487b7160e01b5f525260245ffd5b601184634e487b7160e01b5f525260245ffd5b601183634e487b7160e01b5f525260245ffd5b919392505080821690600982106141c157506003190181811161416557613e7396976005836141b19316918260208a0152880152614701565b1660a0850152604084015261411a565b613e739798506141ea9293506141e591506006602088015260056040880152614713565b614787565b16606084015261411a565b956141ff90613c75565b956140b3565b5093600a900493806140ae565b9481810180911161422357946140a3565b634e487b7160e01b865260118352602486fd5b9095508461424389614713565b16604d8111614261579061425a91600a0a90613a04565b945f614093565b634e487b7160e01b875260118452602487fd5b61427f600a91613c75565b91049081614077565b614291906148ea565b92614073565b926142a19061482b565b9261404e565b6142bd916142b689851c614aec565b9116613a04565b95160361404e57926142a1906147a6565b505016945061404e9050565b506012891115614021565b6142ee906146f1565b97614018565b634e487b7160e01b815260118852602490fd5b90801561431c57600160c01b04821690613fed565b601286634e487b7160e01b5f525260245ffd5b8794613fcb565b928015614346575f190492613fb8565b601285634e487b7160e01b5f525260245ffd5b936b048a170391f7dc42444e8fa29081810291818304149015171561438057891c93613fb1565b601186634e487b7160e01b5f525260245ffd5b946d2216e584f5fa1ea926041bedfe98908181029181830414901517156143bc578a1c94613fa7565b601187634e487b7160e01b5f525260245ffd5b946e5d6af8dedb81196699c329225ee604908181029181830414901517156143bc578a1c94613f9c565b946f09aa508b5b7a84e1c677de54f3e99bc9908181029181830414901517156143bc578a1c94613f91565b946f31be135f97d08fd981231505542fcfa6908181029181830414901517156143bc578a1c94613f86565b946f70d869a156d2a1b890bb3df62baf32f7908181029181830414901517156143bc578a1c94613f7c565b946fa9f746462d870fdf8a65dc1f90e061e5908181029181830414901517156143bc578a1c94613f72565b946fd097f3bdfd2022b8845ad8f792aa5825908181029181830414901517156143bc578a1c94613f68565b946fe7159475a2c29b7443b29c7fa6e889d9908181029181830414901517156143bc578a1c94613f5e565b946ff3392b0822b70005940c7a398e4b70f3908181029181830414901517156143bc578a1c94613f54565b946ff987a7253ac413176f2b074cf7815e54908181029181830414901517156143bc578a1c94613f4a565b946ffcbe86c7900a88aedcffc83b479aa3a4908181029181830414901517156143bc578a1c94613f40565b946ffe5dee046a99a2a811c461f1969c3053908181029181830414901517156143bc578a1c94613f36565b936fff2ea16466c96a3843ec78b326b52861908181029181830414901517156143805760801c93613f2b565b936fff973b41fa98c081472e6896dfb254c0908181029181830414901517156143805760801c93613f22565b936fffcb9843d60f6159c9db58835c926644908181029181830414901517156143805760801c93613f19565b936fffe5caca7e10e4e61c3624eaa0941cd0908181029181830414901517156143805760801c93613f10565b936ffff2e50f5f656932ef12357cf3c7fdcc908181029181830414901517156143805760801c93613f07565b926ffff97272373d413259a46990580e213a908181029181830414901517156134055760801c92613efc565b6001600160881b03600160801b613ef2565b60405162461bcd60e51b81526020600482015260016024820152601560fa1b6044820152606490fd5b8296613ec7565b600160ff1b8114613405575f0390565b60ff5f199116019060ff821161340557565b60ff6004199116019060ff821161340557565b60405190610100820182811067ffffffffffffffff8211176133b5576040528160e05f918281528260208201528260408201528260608201528260808201528260a08201528260c08201520152565b60ff60029116019060ff821161340557565b60ff60019116019060ff821161340557565b9190820391821161340557565b600160801b91905f19838209928160801b9283808610950394808603951461481057507003298b075b4b6a5240945790619b37fd4a91848311156134cf5709118082038060ff1b04600160ff1b149114171561340557634e487b7160e01b5f52601160045260245ffd5b935050507003298b075b4b6a5240945790619b37fd4a900490565b7003298b075b4b6a5240945790619b37fd4a905f198282098282029182808310920391808303921461488357600160801b828111156134cf57613e7394614878920991838311900361399e565b910360801c176139b7565b5050905060801c90565b5f1982820990828102928380841093039280840393146148e157600160401b91838311156134cf570982811191828103928360c01b938404600160c01b149114171561340557613e73920360401c176139b7565b50505060401c90565b620186a0905f198282098282029182808310920391808303921461488357600160801b828111156134cf57613e7394614878920991838311900361399e565b72047bf19673df52e37f2410011d100000000000905f198282098282029182808310920391808303921461488357600160801b828111156134cf57613e7394614878920991838311900361399e565b60ff168015613405575f190190565b9060ff61499981602085015116613a0e565b9060e0840151614acd575b60c0840151614aa9575b806080850151165b816149c68160a088015116614787565b168110156149e9578060306149de6149e49386613c86565b53613cc5565b6149b6565b50915b835115614aa257826060850151168015159081614a92575b50614a6b575b600a808551066030908101809111614a5757614a4c6040870191868351169287614a3385614978565b16905260f81b6001600160f81b0319165f1a9185613c86565b5384510484526149ec565b60245f634e487b7160e01b81526011600452fd5b602e614a8c60408601858151169086614a8383614978565b16905284613c86565b53614a0a565b905083604086015116145f614a04565b9250905090565b815115613c975760306020830153815160011015613c9757602e60218301536149ae565b81515f19810190811161340557614ae660259184613c86565b536149a4565b604d811161340557600a0a90565b62ffffff91828216918215614d22575f918483925b16928315614b6d57859060ff811615614b3e57614b36614b30600a92613c75565b94613cc5565b939404614b0f565b9281600a860616614b55575b614b36600a91613cc5565b92614b36614b64600a92613c75565b94915050614b4a565b919392509350614b7b614726565b9160058410614cae5760ff918281166004614b968288614799565b10614ca657835f5b169160041987018781116134055785614bb683614701565b16811015614c8b57505f905b614bd38260808901948086526139f7565b5f1981019690871161340557614c3185614c2c60ff9584614c15614c449a828f614c4a9f614c3f9d614c0f9260a0858094169101525116614701565b166139f7565b1660408d015284614c2587614787565b16906139f7565b6139f7565b1660208801525b1686614799565b614aec565b90613a04565b8152600160e08201525f6004831115614c7e575060031982019182116134055760ff80613e7393165b166060820152614987565b613e73925060ff90614c73565b614ca09086614c9984614701565b1690614799565b90614bc2565b836001614b9e565b836005036005811161340557600260808501526002810180821161340557600182019081116134055760ff9182614cef921660a087015282614c2586614775565b168060208501526001190160ff811161340557614c3f60ff614c4a9481614c4494166040880152600160c0880152614c38565b50915050604051614d3281613816565b6002815261302560f01b602082015290565b604051906001600160a01b0316614d5a82613816565b6010825260206f181899199a1a9b1b9c1cb0b131b232b360811b8184015260405192614d8584613832565b602a84528184016040368237845115613c975760309053835192600193841015613c9757607860218601535f5b60148110614dc257505050505090565b600c81018082116134055784811015613c975782901a60046001600160f81b0319600f81614df485851c831689613c86565b511693858a1b946002908787048214881517156143805786820180921161438057614e28614e309493928e925f1a92613c86565b531687613c86565b511690600392830180931161412c5750906149de614e5293925f1a9189613c86565b614db2565b600292830b920b821215614e6c5750505f1990565b60020b1215614e7a57600190565b5f90565b60881c614e89613cab565b90815190815b614e9857505090565b600f81166010811015614ee7575f19830190838211614a57576f181899199a1a9b1b9c1cb0b131b232b360811b901a90614ed29085613c86565b5360041c908015614a57575f19019081614e8f565b60245f634e487b7160e01b81526032600452fd5b614f03613cab565b90815190815b614f1257505090565b600f81166010811015614ee7575f19830190838211614a57576f181899199a1a9b1b9c1cb0b131b232b360811b901a90614f4c9085613c86565b5360041c908015614a57575f19019081614f09565b7f3c7376672077696474683d2732393027206865696768743d273530302720766981527f6577426f783d2730203020323930203530302720786d6c6e733d27687474703a60208201527f2f2f7777772e77332e6f72672f323030302f737667273e3c636972636c652063604082015262783d2760e81b606082015260630190565b7f707822206865696768743d2232367078222072783d22387078222072793d223881527f7078222066696c6c3d227267626128302c302c302c302e362922202f3e0000006020820152603d0190565b60405161503d8161384e565b5f8152908060020b5f811261509a575b50602061506162ffffff613e739316613b34565b92604051938161507a869351809286808701910161391e565b820161508e8251809386808501910161391e565b0103808452018261386a565b9150505f038060020b90810361340557613e73602061506162ffffff6040516150c281613816565b60018152602d60f81b84820152949350505061504d565b604051906150e682613816565b6002825261323760f01b6020830152565b6040519061510482613816565b6002825261323160f01b6020830152565b6040519061512282613816565b6002825261062760f31b6020830152565b6040519061514082613816565b60018252600760fb1b6020830152565b600291820b90820b01627fffff198112627fffff82131761340557810b819005810b6201869f198112156151a6575050615188615133565b9060405161519581613816565b60018152603760f81b602082015290565b61c34f198112156151dc5750506151bb615133565b906040516151c881613816565b600481526331302e3560e01b602082015290565b61270f198112156152135750506151f1615133565b906040516151fe81613816565b600581526431342e323560d81b602082015290565b60631981121561524157506040519061522b82613816565b815261031360f41b602082015290613e73615115565b5f81121561526d57506040519061525782613816565b815261313160f01b602082015290613e736150f7565b60648112156152b057509060405161528481613816565b82815261313360f01b602082015291604051906152a082613816565b815261323360f01b602082015290565b6127108112156152f45750906040516152c881613816565b82815261313560f01b602082015291604051906152e482613816565b815261323560f01b602082015290565b61c350811215615326575090615308615115565b916040519061531682613816565b815261191b60f11b602082015290565b620186a0131561534257506153396150f7565b90613e736150d9565b6040519061534f82613816565b8152610c8d60f21b602082015290613e736150d956fe74654e616d653d2273746172744f6666736574222066726f6d3d223025222074a2646970667358221220691c3b1f91bb26fea41d55b8454709034b942cc42fa15f111c883a8505418a1464736f6c63430008150033",
    "linkReferences": {}
  },
  "methodIdentifiers": {
    "constructTokenURI(NFTDescriptor.ConstructTokenURIParams)": "c49917d7"
  },
  "id": 90
}