{"abi":[{"type":"constructor","inputs":[{"name":"_WETH9","type":"address","internalType":"address"}],"stateMutability":"nonpayable"},{"type":"function","name":"WETH9","inputs":[],"outputs":[{"name":"","type":"address","internalType":"address"}],"stateMutability":"view"},{"type":"function","name":"flipRatio","inputs":[{"name":"token0","type":"address","internalType":"address"},{"name":"token1","type":"address","internalType":"address"},{"name":"chainId","type":"uint256","internalType":"uint256"}],"outputs":[{"name":"","type":"bool","internalType":"bool"}],"stateMutability":"view"},{"type":"function","name":"tokenRatioPriority","inputs":[{"name":"token","type":"address","internalType":"address"},{"name":"chainId","type":"uint256","internalType":"uint256"}],"outputs":[{"name":"","type":"int256","internalType":"int256"}],"stateMutability":"view"},{"type":"function","name":"tokenURI","inputs":[{"name":"positionManager","type":"address","internalType":"contract INonfungiblePositionManager"},{"name":"tokenId","type":"uint256","internalType":"uint256"}],"outputs":[{"name":"","type":"string","internalType":"string"}],"stateMutability":"view"}],"bytecode":{"object":"0x60a03461007857601f610f7a38819003918201601f19168301916001600160401b0383118484101761007c5780849260209460405283398101031261007857516001600160a01b038116810361007857608052604051610ee99081610091823960805181818161029e0152818161089f01526109390152f35b5f80fd5b634e487b7160e01b5f52604160045260245ffdfe6080806040526004361015610012575f80fd5b5f3560e01c9081634aa4a4fc1461088d575080637e5af7711461083f5780639d7b0ea8146108105763e9dc637514610048575f80fd5b346105c35760403660031901126105c3576004356001600160a01b038116908190036105c35760405163133f757160e31b8152602435600482015261018081602481855afa918215610570575f905f915f915f945f9661073d575b5060206004916040519283809263c45a015560e01b82525afa908115610570575f91610703575b5060405180606081011067ffffffffffffffff60608301111761057b576060810160409081526001600160a01b038481168084529087166020840181905262ffffff87169284019290925210156105c3576040516327b7cf8560e01b60208201527f33e0e214aaaa311945afafd84672c570c653a094e74e911ed49689d566f71cd360248201526024815280606081011067ffffffffffffffff60608301111761057b575f8160608293016040526020815191016a636f6e736f6c652e6c6f675afa5060018060a01b038151169062ffffff604060018060a01b0360208401511692015116604051916020830193845260408301526060820152606081526101d181610a1e565b5190209060405191602083019160ff60f81b83526bffffffffffffffffffffffff199060601b16602184015260358301527f33e0e214aaaa311945afafd84672c570c653a094e74e911ed49689d566f71cd360558301526055825261023582610a1e565b905190206001600160a01b03169361024d468361092a565b610257468661092a565b1291821594855f146106fc5780955b156106f45750955b604051633850c7bd60e01b81529160e0836004818a5afa928315610570575f93610663575b506001600160a01b037f00000000000000000000000000000000000000000000000000000000000000008116949087168503610654576102d1610b0c565b945b6001600160a01b038a1603610645576102ea610b0c565b985b60405163313ce56760e01b81526020816004816001600160a01b038d165afa908115610570575f9161060b575b5060405163313ce56760e01b8152966020886004816001600160a01b0387165afa918215610570575f926105cf575b6040516334324e9f60e21b815298506020896004818f5afa988915610570575f9961058f575b506040519c8d67ffffffffffffffff6101c082818101109201111761057b5760808e60ff9694879562ffffff9f6101c08401604052602435845260018060a01b0316602084015260018060a01b03166040830152606082015201521660a08c01521660c08a015260e089015260020b61010088015260020b61012087015260020b61014086015260020b610160850152166101808301526101a08201525f60405180809363c49917d760e01b8252602060048301528051602483015260018060a01b03602082015116604483015260018060a01b03604082015116606483015261048261046c60608301516101c060848601526101e4850190610905565b60808301518482036023190160a4860152610905565b60a082015160ff90811660c485015260c08301511660e484015260e08201511515610104840152610100820151600290810b610124850152610120830151810b610144850152610140830151810b610164850152610160830151900b61018484015261018082015162ffffff166101a48401526101a0909101516001600160a01b03166101c4830152038173__$d447778c4356236dd94d2977730faa3c46$__5af480156105705761054a915f9161054e575b50604051918291602083526020830190610905565b0390f35b61056a91503d805f833e6105628183610a72565b810190610b2b565b5f610535565b6040513d5f823e3d90fd5b634e487b7160e01b5f52604160045260245ffd5b9098506020813d6020116105c7575b816105ab60209383610a72565b810103126105c3576105bc90610aa8565b975f61036e565b5f80fd5b3d915061059e565b91506020883d602011610603575b816105ea60209383610a72565b810103126105c3576105fd600498610ae2565b91610348565b3d91506105dd565b90506020813d60201161063d575b8161062660209383610a72565b810103126105c35761063790610ae2565b5f610319565b3d9150610619565b61064e89610b8d565b986102ec565b61065d87610b8d565b946102d3565b90925060e0813d60e0116106ec575b8161067f60e09383610a72565b810103126105c35780516001600160a01b038116036105c35760c06106a660208301610aa8565b916106b360408201610ad3565b506106c060608201610ad3565b506106cd60808201610ad3565b506106da60a08201610ae2565b500151801515036105c357915f610293565b3d9150610672565b90509561026e565b8195610266565b90506020813d602011610735575b8161071e60209383610a72565b810103126105c35761072f90610a94565b5f6100ca565b3d9150610711565b94509450505050610180813d61018011610808575b816107606101809383610a72565b810103126105c35780516bffffffffffffffffffffffff8116036105c35761078a60208201610a94565b5061079760408201610a94565b6107a360608301610a94565b9060808301519162ffffff831683036105c357600460206107c660a08701610aa8565b936107fb6101606107d960c08a01610aa8565b986107e660e08201610ab6565b506107f46101408201610ab6565b5001610ab6565b50929493959691506100a3565b3d9150610752565b346105c35760403660031901126105c357602061083761082e6108ce565b6024359061092a565b604051908152f35b346105c35760603660031901126105c3576108586108ce565b6024356001600160a01b03811681036105c35761088460209261087e604435809261092a565b9261092a565b12604051908152f35b346105c3575f3660031901126105c3577f00000000000000000000000000000000000000000000000000000000000000006001600160a01b03168152602090f35b600435906001600160a01b03821682036105c357565b5f5b8381106108f55750505f910152565b81810151838201526020016108e6565b9060209161091e815180928185528580860191016108e4565b601f01601f1916010190565b6001600160a01b0390811691907f0000000000000000000000000000000000000000000000000000000000000000168214610a165760011461096b57505f90565b73a0b86991c6218b36c1d19d4a2e9eb0ce3606eb48810361098d575061012c90565b73dac17f958d2ee523a2206206994597c13d831ec781036109ae575060c890565b736b175474e89094c44da98b954eedeac495271d0f81036109cf5750606490565b738daebade922df735c38c80c7ebd708af50815faa81036109f1575060c71990565b732260fac5e5542a773aa44fbcfedf7c193bc2c59903610a125761012b1990565b5f90565b505060631990565b6080810190811067ffffffffffffffff82111761057b57604052565b6040810190811067ffffffffffffffff82111761057b57604052565b6020810190811067ffffffffffffffff82111761057b57604052565b90601f8019910116810190811067ffffffffffffffff82111761057b57604052565b51906001600160a01b03821682036105c357565b51908160020b82036105c357565b51906fffffffffffffffffffffffffffffffff821682036105c357565b519061ffff821682036105c357565b519060ff821682036105c357565b67ffffffffffffffff811161057b57601f01601f191660200190565b60405190610b1982610a3a565b600382526208aa8960eb1b6020830152565b6020818303126105c35780519067ffffffffffffffff82116105c3570181601f820112156105c3578051610b5e81610af0565b92610b6c6040519485610a72565b818452602082840101116105c357610b8a91602080850191016108e4565b90565b610b9681610ca6565b90815115610ba2575090565b604051929150610bb183610a3a565b60068352602036818501376001600160a01b03165f5b600380821015610ca1576013828103908111610c8d576001600160fd1b0381168103610c8d5783911b1c60ff60049160f0811682821603918211610c7a57600f610c1391841c16610e71565b600184811b93909290916001600160ff1b0386168603610c7a5790610c44915f1a610c3e868b610e4c565b53610e71565b918301809311610c67575090610c60600193925f1a9187610e4c565b5301610bc7565b601190634e487b7160e01b5f525260245ffd5b601183634e487b7160e01b5f525260245ffd5b634e487b7160e01b5f52601160045260245ffd5b505050565b90604080515f806020958684016395d89b4160e01b815260049460048152610ccd81610a3a565b51915afa3d15610e44573d90610ce282610af0565b91610cef85519384610a72565b82523d5f8784013e5b158015610e3b575b610e2c578051858103610dfc575084818051810103126105c35784015193825194610d2a86610a3a565b8186528136818801375f925f5b838110610da757505050610d56610d4d83610af0565b93519384610a72565b818352601f19610d6583610af0565b019036908401375f5b818110610d7c575090925050565b6001906001600160f81b0319610d928288610e4c565b51165f1a610da08286610e4c565b5301610d6e565b82811a60f881901b6001600160f81b031916610dc7575b50600101610d37565b610dd4868a979397610e4c565b535f198114610de95760018091019490610dbe565b601182634e487b7160e01b5f525260245ffd5b909280949592508111610e1c5750505051610e1681610a56565b5f815290565b610b8a9350820181019101610b2b565b505090915051610e1681610a56565b50805115610d00565b606090610cf8565b908151811015610e5d570160200190565b634e487b7160e01b5f52603260045260245ffd5b60ff16600a811015610e985760300160ff8111610c8d5760f81b6001600160f81b03191690565b60370160ff8111610c8d5760f81b6001600160f81b0319169056fea2646970667358221220cd597f27a06593b53c580ab25fe39d35f77aa92c43776cc0ccb9710cdb01ff0164736f6c63430008180033","linkReferences":{"src/libraries/NFTDescriptor.sol":{"NFTDescriptor":[{"start":1440,"length":20}]}}},"methodIdentifiers":{"WETH9()":"4aa4a4fc","flipRatio(address,address,uint256)":"7e5af771","tokenRatioPriority(address,uint256)":"9d7b0ea8","tokenURI(address,uint256)":"e9dc6375"},"id":87}