{
  "abi": [
    {
      "type": "constructor",
      "inputs": [
        {
          "name": "_factory",
          "type": "address",
          "internalType": "address"
        },
        {
          "name": "_WETH9",
          "type": "address",
          "internalType": "address"
        },
        {
          "name": "_tokenDescriptor_",
          "type": "address",
          "internalType": "address"
        },
        {
          "name": "_nftTimelock_",
          "type": "address",
          "internalType": "address"
        }
      ],
      "stateMutability": "nonpayable"
    },
    {
      "type": "receive",
      "stateMutability": "payable"
    },
    {
      "type": "function",
      "name": "DOMAIN_SEPARATOR",
      "inputs": [],
      "outputs": [
        {
          "name": "",
          "type": "bytes32",
          "internalType": "bytes32"
        }
      ],
      "stateMutability": "view"
    },
    {
      "type": "function",
      "name": "PERMIT_TYPEHASH",
      "inputs": [],
      "outputs": [
        {
          "name": "",
          "type": "bytes32",
          "internalType": "bytes32"
        }
      ],
      "stateMutability": "view"
    },
    {
      "type": "function",
      "name": "WETH9",
      "inputs": [],
      "outputs": [
        {
          "name": "",
          "type": "address",
          "internalType": "address"
        }
      ],
      "stateMutability": "view"
    },
    {
      "type": "function",
      "name": "approve",
      "inputs": [
        {
          "name": "to",
          "type": "address",
          "internalType": "address"
        },
        {
          "name": "tokenId",
          "type": "uint256",
          "internalType": "uint256"
        }
      ],
      "outputs": [],
      "stateMutability": "nonpayable"
    },
    {
      "type": "function",
      "name": "balanceOf",
      "inputs": [
        {
          "name": "owner",
          "type": "address",
          "internalType": "address"
        }
      ],
      "outputs": [
        {
          "name": "",
          "type": "uint256",
          "internalType": "uint256"
        }
      ],
      "stateMutability": "view"
    },
    {
      "type": "function",
      "name": "baseURI",
      "inputs": [],
      "outputs": [
        {
          "name": "",
          "type": "string",
          "internalType": "string"
        }
      ],
      "stateMutability": "pure"
    },
    {
      "type": "function",
      "name": "burn",
      "inputs": [
        {
          "name": "tokenId",
          "type": "uint256",
          "internalType": "uint256"
        }
      ],
      "outputs": [],
      "stateMutability": "payable"
    },
    {
      "type": "function",
      "name": "collect",
      "inputs": [
        {
          "name": "params",
          "type": "tuple",
          "internalType": "struct INonfungiblePositionManager.CollectParams",
          "components": [
            {
              "name": "tokenId",
              "type": "uint256",
              "internalType": "uint256"
            },
            {
              "name": "recipient",
              "type": "address",
              "internalType": "address"
            },
            {
              "name": "amount0Max",
              "type": "uint128",
              "internalType": "uint128"
            },
            {
              "name": "amount1Max",
              "type": "uint128",
              "internalType": "uint128"
            }
          ]
        }
      ],
      "outputs": [
        {
          "name": "amount0",
          "type": "uint256",
          "internalType": "uint256"
        },
        {
          "name": "amount1",
          "type": "uint256",
          "internalType": "uint256"
        }
      ],
      "stateMutability": "payable"
    },
    {
      "type": "function",
      "name": "createAndInitializePoolIfNecessary",
      "inputs": [
        {
          "name": "token0",
          "type": "address",
          "internalType": "address"
        },
        {
          "name": "token1",
          "type": "address",
          "internalType": "address"
        },
        {
          "name": "fee",
          "type": "uint24",
          "internalType": "uint24"
        },
        {
          "name": "sqrtPriceX96",
          "type": "uint160",
          "internalType": "uint160"
        }
      ],
      "outputs": [
        {
          "name": "pool",
          "type": "address",
          "internalType": "address"
        }
      ],
      "stateMutability": "payable"
    },
    {
      "type": "function",
      "name": "decreaseLiquidity",
      "inputs": [
        {
          "name": "params",
          "type": "tuple",
          "internalType": "struct INonfungiblePositionManager.DecreaseLiquidityParams",
          "components": [
            {
              "name": "tokenId",
              "type": "uint256",
              "internalType": "uint256"
            },
            {
              "name": "liquidity",
              "type": "uint128",
              "internalType": "uint128"
            },
            {
              "name": "amount0Min",
              "type": "uint256",
              "internalType": "uint256"
            },
            {
              "name": "amount1Min",
              "type": "uint256",
              "internalType": "uint256"
            },
            {
              "name": "deadline",
              "type": "uint256",
              "internalType": "uint256"
            }
          ]
        }
      ],
      "outputs": [
        {
          "name": "amount0",
          "type": "uint256",
          "internalType": "uint256"
        },
        {
          "name": "amount1",
          "type": "uint256",
          "internalType": "uint256"
        }
      ],
      "stateMutability": "payable"
    },
    {
      "type": "function",
      "name": "factory",
      "inputs": [],
      "outputs": [
        {
          "name": "",
          "type": "address",
          "internalType": "address"
        }
      ],
      "stateMutability": "view"
    },
    {
      "type": "function",
      "name": "getApproved",
      "inputs": [
        {
          "name": "tokenId",
          "type": "uint256",
          "internalType": "uint256"
        }
      ],
      "outputs": [
        {
          "name": "",
          "type": "address",
          "internalType": "address"
        }
      ],
      "stateMutability": "view"
    },
    {
      "type": "function",
      "name": "increaseLiquidity",
      "inputs": [
        {
          "name": "params",
          "type": "tuple",
          "internalType": "struct INonfungiblePositionManager.IncreaseLiquidityParams",
          "components": [
            {
              "name": "tokenId",
              "type": "uint256",
              "internalType": "uint256"
            },
            {
              "name": "amount0Desired",
              "type": "uint256",
              "internalType": "uint256"
            },
            {
              "name": "amount1Desired",
              "type": "uint256",
              "internalType": "uint256"
            },
            {
              "name": "amount0Min",
              "type": "uint256",
              "internalType": "uint256"
            },
            {
              "name": "amount1Min",
              "type": "uint256",
              "internalType": "uint256"
            },
            {
              "name": "deadline",
              "type": "uint256",
              "internalType": "uint256"
            }
          ]
        }
      ],
      "outputs": [
        {
          "name": "liquidity",
          "type": "uint128",
          "internalType": "uint128"
        },
        {
          "name": "amount0",
          "type": "uint256",
          "internalType": "uint256"
        },
        {
          "name": "amount1",
          "type": "uint256",
          "internalType": "uint256"
        }
      ],
      "stateMutability": "payable"
    },
    {
      "type": "function",
      "name": "isApprovedForAll",
      "inputs": [
        {
          "name": "owner",
          "type": "address",
          "internalType": "address"
        },
        {
          "name": "operator",
          "type": "address",
          "internalType": "address"
        }
      ],
      "outputs": [
        {
          "name": "",
          "type": "bool",
          "internalType": "bool"
        }
      ],
      "stateMutability": "view"
    },
    {
      "type": "function",
      "name": "isContract",
      "inputs": [
        {
          "name": "account",
          "type": "address",
          "internalType": "address"
        }
      ],
      "outputs": [
        {
          "name": "",
          "type": "bool",
          "internalType": "bool"
        }
      ],
      "stateMutability": "view"
    },
    {
      "type": "function",
      "name": "mint",
      "inputs": [
        {
          "name": "params",
          "type": "tuple",
          "internalType": "struct INonfungiblePositionManager.MintParams",
          "components": [
            {
              "name": "token0",
              "type": "address",
              "internalType": "address"
            },
            {
              "name": "token1",
              "type": "address",
              "internalType": "address"
            },
            {
              "name": "fee",
              "type": "uint24",
              "internalType": "uint24"
            },
            {
              "name": "tickLower",
              "type": "int24",
              "internalType": "int24"
            },
            {
              "name": "tickUpper",
              "type": "int24",
              "internalType": "int24"
            },
            {
              "name": "amount0Desired",
              "type": "uint256",
              "internalType": "uint256"
            },
            {
              "name": "amount1Desired",
              "type": "uint256",
              "internalType": "uint256"
            },
            {
              "name": "amount0Min",
              "type": "uint256",
              "internalType": "uint256"
            },
            {
              "name": "amount1Min",
              "type": "uint256",
              "internalType": "uint256"
            },
            {
              "name": "recipient",
              "type": "address",
              "internalType": "address"
            },
            {
              "name": "deadline",
              "type": "uint256",
              "internalType": "uint256"
            }
          ]
        }
      ],
      "outputs": [
        {
          "name": "tokenId",
          "type": "uint256",
          "internalType": "uint256"
        },
        {
          "name": "liquidity",
          "type": "uint128",
          "internalType": "uint128"
        },
        {
          "name": "amount0",
          "type": "uint256",
          "internalType": "uint256"
        },
        {
          "name": "amount1",
          "type": "uint256",
          "internalType": "uint256"
        }
      ],
      "stateMutability": "payable"
    },
    {
      "type": "function",
      "name": "multicall",
      "inputs": [
        {
          "name": "data",
          "type": "bytes[]",
          "internalType": "bytes[]"
        }
      ],
      "outputs": [
        {
          "name": "results",
          "type": "bytes[]",
          "internalType": "bytes[]"
        }
      ],
      "stateMutability": "payable"
    },
    {
      "type": "function",
      "name": "name",
      "inputs": [],
      "outputs": [
        {
          "name": "",
          "type": "string",
          "internalType": "string"
        }
      ],
      "stateMutability": "view"
    },
    {
      "type": "function",
      "name": "ownerOf",
      "inputs": [
        {
          "name": "tokenId",
          "type": "uint256",
          "internalType": "uint256"
        }
      ],
      "outputs": [
        {
          "name": "",
          "type": "address",
          "internalType": "address"
        }
      ],
      "stateMutability": "view"
    },
    {
      "type": "function",
      "name": "permit",
      "inputs": [
        {
          "name": "spender",
          "type": "address",
          "internalType": "address"
        },
        {
          "name": "tokenId",
          "type": "uint256",
          "internalType": "uint256"
        },
        {
          "name": "deadline",
          "type": "uint256",
          "internalType": "uint256"
        },
        {
          "name": "v",
          "type": "uint8",
          "internalType": "uint8"
        },
        {
          "name": "r",
          "type": "bytes32",
          "internalType": "bytes32"
        },
        {
          "name": "s",
          "type": "bytes32",
          "internalType": "bytes32"
        }
      ],
      "outputs": [],
      "stateMutability": "payable"
    },
    {
      "type": "function",
      "name": "positions",
      "inputs": [
        {
          "name": "tokenId",
          "type": "uint256",
          "internalType": "uint256"
        }
      ],
      "outputs": [
        {
          "name": "nonce",
          "type": "uint96",
          "internalType": "uint96"
        },
        {
          "name": "operator",
          "type": "address",
          "internalType": "address"
        },
        {
          "name": "token0",
          "type": "address",
          "internalType": "address"
        },
        {
          "name": "token1",
          "type": "address",
          "internalType": "address"
        },
        {
          "name": "fee",
          "type": "uint24",
          "internalType": "uint24"
        },
        {
          "name": "tickLower",
          "type": "int24",
          "internalType": "int24"
        },
        {
          "name": "tickUpper",
          "type": "int24",
          "internalType": "int24"
        },
        {
          "name": "liquidity",
          "type": "uint128",
          "internalType": "uint128"
        },
        {
          "name": "feeGrowthInside0LastX128",
          "type": "uint256",
          "internalType": "uint256"
        },
        {
          "name": "feeGrowthInside1LastX128",
          "type": "uint256",
          "internalType": "uint256"
        },
        {
          "name": "tokensOwed0",
          "type": "uint128",
          "internalType": "uint128"
        },
        {
          "name": "tokensOwed1",
          "type": "uint128",
          "internalType": "uint128"
        }
      ],
      "stateMutability": "view"
    },
    {
      "type": "function",
      "name": "refundETH",
      "inputs": [],
      "outputs": [],
      "stateMutability": "payable"
    },
    {
      "type": "function",
      "name": "safeTransferFrom",
      "inputs": [
        {
          "name": "from",
          "type": "address",
          "internalType": "address"
        },
        {
          "name": "to",
          "type": "address",
          "internalType": "address"
        },
        {
          "name": "tokenId",
          "type": "uint256",
          "internalType": "uint256"
        }
      ],
      "outputs": [],
      "stateMutability": "nonpayable"
    },
    {
      "type": "function",
      "name": "safeTransferFrom",
      "inputs": [
        {
          "name": "from",
          "type": "address",
          "internalType": "address"
        },
        {
          "name": "to",
          "type": "address",
          "internalType": "address"
        },
        {
          "name": "tokenId",
          "type": "uint256",
          "internalType": "uint256"
        },
        {
          "name": "data",
          "type": "bytes",
          "internalType": "bytes"
        }
      ],
      "outputs": [],
      "stateMutability": "nonpayable"
    },
    {
      "type": "function",
      "name": "selfPermit",
      "inputs": [
        {
          "name": "token",
          "type": "address",
          "internalType": "address"
        },
        {
          "name": "value",
          "type": "uint256",
          "internalType": "uint256"
        },
        {
          "name": "deadline",
          "type": "uint256",
          "internalType": "uint256"
        },
        {
          "name": "v",
          "type": "uint8",
          "internalType": "uint8"
        },
        {
          "name": "r",
          "type": "bytes32",
          "internalType": "bytes32"
        },
        {
          "name": "s",
          "type": "bytes32",
          "internalType": "bytes32"
        }
      ],
      "outputs": [],
      "stateMutability": "payable"
    },
    {
      "type": "function",
      "name": "selfPermitAllowed",
      "inputs": [
        {
          "name": "token",
          "type": "address",
          "internalType": "address"
        },
        {
          "name": "nonce",
          "type": "uint256",
          "internalType": "uint256"
        },
        {
          "name": "expiry",
          "type": "uint256",
          "internalType": "uint256"
        },
        {
          "name": "v",
          "type": "uint8",
          "internalType": "uint8"
        },
        {
          "name": "r",
          "type": "bytes32",
          "internalType": "bytes32"
        },
        {
          "name": "s",
          "type": "bytes32",
          "internalType": "bytes32"
        }
      ],
      "outputs": [],
      "stateMutability": "payable"
    },
    {
      "type": "function",
      "name": "selfPermitAllowedIfNecessary",
      "inputs": [
        {
          "name": "token",
          "type": "address",
          "internalType": "address"
        },
        {
          "name": "nonce",
          "type": "uint256",
          "internalType": "uint256"
        },
        {
          "name": "expiry",
          "type": "uint256",
          "internalType": "uint256"
        },
        {
          "name": "v",
          "type": "uint8",
          "internalType": "uint8"
        },
        {
          "name": "r",
          "type": "bytes32",
          "internalType": "bytes32"
        },
        {
          "name": "s",
          "type": "bytes32",
          "internalType": "bytes32"
        }
      ],
      "outputs": [],
      "stateMutability": "payable"
    },
    {
      "type": "function",
      "name": "selfPermitIfNecessary",
      "inputs": [
        {
          "name": "token",
          "type": "address",
          "internalType": "address"
        },
        {
          "name": "value",
          "type": "uint256",
          "internalType": "uint256"
        },
        {
          "name": "deadline",
          "type": "uint256",
          "internalType": "uint256"
        },
        {
          "name": "v",
          "type": "uint8",
          "internalType": "uint8"
        },
        {
          "name": "r",
          "type": "bytes32",
          "internalType": "bytes32"
        },
        {
          "name": "s",
          "type": "bytes32",
          "internalType": "bytes32"
        }
      ],
      "outputs": [],
      "stateMutability": "payable"
    },
    {
      "type": "function",
      "name": "setApprovalForAll",
      "inputs": [
        {
          "name": "operator",
          "type": "address",
          "internalType": "address"
        },
        {
          "name": "approved",
          "type": "bool",
          "internalType": "bool"
        }
      ],
      "outputs": [],
      "stateMutability": "nonpayable"
    },
    {
      "type": "function",
      "name": "supportsInterface",
      "inputs": [
        {
          "name": "interfaceId",
          "type": "bytes4",
          "internalType": "bytes4"
        }
      ],
      "outputs": [
        {
          "name": "",
          "type": "bool",
          "internalType": "bool"
        }
      ],
      "stateMutability": "view"
    },
    {
      "type": "function",
      "name": "sweepToken",
      "inputs": [
        {
          "name": "token",
          "type": "address",
          "internalType": "address"
        },
        {
          "name": "amountMinimum",
          "type": "uint256",
          "internalType": "uint256"
        },
        {
          "name": "recipient",
          "type": "address",
          "internalType": "address"
        }
      ],
      "outputs": [],
      "stateMutability": "payable"
    },
    {
      "type": "function",
      "name": "symbol",
      "inputs": [],
      "outputs": [
        {
          "name": "",
          "type": "string",
          "internalType": "string"
        }
      ],
      "stateMutability": "view"
    },
    {
      "type": "function",
      "name": "tokenByIndex",
      "inputs": [
        {
          "name": "index",
          "type": "uint256",
          "internalType": "uint256"
        }
      ],
      "outputs": [
        {
          "name": "",
          "type": "uint256",
          "internalType": "uint256"
        }
      ],
      "stateMutability": "view"
    },
    {
      "type": "function",
      "name": "tokenOfOwnerByIndex",
      "inputs": [
        {
          "name": "owner",
          "type": "address",
          "internalType": "address"
        },
        {
          "name": "index",
          "type": "uint256",
          "internalType": "uint256"
        }
      ],
      "outputs": [
        {
          "name": "",
          "type": "uint256",
          "internalType": "uint256"
        }
      ],
      "stateMutability": "view"
    },
    {
      "type": "function",
      "name": "tokenURI",
      "inputs": [
        {
          "name": "tokenId",
          "type": "uint256",
          "internalType": "uint256"
        }
      ],
      "outputs": [
        {
          "name": "",
          "type": "string",
          "internalType": "string"
        }
      ],
      "stateMutability": "view"
    },
    {
      "type": "function",
      "name": "totalSupply",
      "inputs": [],
      "outputs": [
        {
          "name": "",
          "type": "uint256",
          "internalType": "uint256"
        }
      ],
      "stateMutability": "view"
    },
    {
      "type": "function",
      "name": "transferFrom",
      "inputs": [
        {
          "name": "from",
          "type": "address",
          "internalType": "address"
        },
        {
          "name": "to",
          "type": "address",
          "internalType": "address"
        },
        {
          "name": "tokenId",
          "type": "uint256",
          "internalType": "uint256"
        }
      ],
      "outputs": [],
      "stateMutability": "nonpayable"
    },
    {
      "type": "function",
      "name": "uniswapV3MintCallback",
      "inputs": [
        {
          "name": "amount0Owed",
          "type": "uint256",
          "internalType": "uint256"
        },
        {
          "name": "amount1Owed",
          "type": "uint256",
          "internalType": "uint256"
        },
        {
          "name": "data",
          "type": "bytes",
          "internalType": "bytes"
        }
      ],
      "outputs": [],
      "stateMutability": "nonpayable"
    },
    {
      "type": "function",
      "name": "unwrapWETH9",
      "inputs": [
        {
          "name": "amountMinimum",
          "type": "uint256",
          "internalType": "uint256"
        },
        {
          "name": "recipient",
          "type": "address",
          "internalType": "address"
        }
      ],
      "outputs": [],
      "stateMutability": "payable"
    },
    {
      "type": "event",
      "name": "Approval",
      "inputs": [
        {
          "name": "owner",
          "type": "address",
          "indexed": true,
          "internalType": "address"
        },
        {
          "name": "approved",
          "type": "address",
          "indexed": true,
          "internalType": "address"
        },
        {
          "name": "tokenId",
          "type": "uint256",
          "indexed": true,
          "internalType": "uint256"
        }
      ],
      "anonymous": false
    },
    {
      "type": "event",
      "name": "ApprovalForAll",
      "inputs": [
        {
          "name": "owner",
          "type": "address",
          "indexed": true,
          "internalType": "address"
        },
        {
          "name": "operator",
          "type": "address",
          "indexed": true,
          "internalType": "address"
        },
        {
          "name": "approved",
          "type": "bool",
          "indexed": false,
          "internalType": "bool"
        }
      ],
      "anonymous": false
    },
    {
      "type": "event",
      "name": "Collect",
      "inputs": [
        {
          "name": "tokenId",
          "type": "uint256",
          "indexed": true,
          "internalType": "uint256"
        },
        {
          "name": "recipient",
          "type": "address",
          "indexed": false,
          "internalType": "address"
        },
        {
          "name": "amount0",
          "type": "uint256",
          "indexed": false,
          "internalType": "uint256"
        },
        {
          "name": "amount1",
          "type": "uint256",
          "indexed": false,
          "internalType": "uint256"
        }
      ],
      "anonymous": false
    },
    {
      "type": "event",
      "name": "DecreaseLiquidity",
      "inputs": [
        {
          "name": "tokenId",
          "type": "uint256",
          "indexed": true,
          "internalType": "uint256"
        },
        {
          "name": "liquidity",
          "type": "uint128",
          "indexed": false,
          "internalType": "uint128"
        },
        {
          "name": "amount0",
          "type": "uint256",
          "indexed": false,
          "internalType": "uint256"
        },
        {
          "name": "amount1",
          "type": "uint256",
          "indexed": false,
          "internalType": "uint256"
        }
      ],
      "anonymous": false
    },
    {
      "type": "event",
      "name": "IncreaseLiquidity",
      "inputs": [
        {
          "name": "tokenId",
          "type": "uint256",
          "indexed": true,
          "internalType": "uint256"
        },
        {
          "name": "liquidity",
          "type": "uint128",
          "indexed": false,
          "internalType": "uint128"
        },
        {
          "name": "amount0",
          "type": "uint256",
          "indexed": false,
          "internalType": "uint256"
        },
        {
          "name": "amount1",
          "type": "uint256",
          "indexed": false,
          "internalType": "uint256"
        }
      ],
      "anonymous": false
    },
    {
      "type": "event",
      "name": "Transfer",
      "inputs": [
        {
          "name": "from",
          "type": "address",
          "indexed": true,
          "internalType": "address"
        },
        {
          "name": "to",
          "type": "address",
          "indexed": true,
          "internalType": "address"
        },
        {
          "name": "tokenId",
          "type": "uint256",
          "indexed": true,
          "internalType": "uint256"
        }
      ],
      "anonymous": false
    },
    {
      "type": "error",
      "name": "ERC721EnumerableForbiddenBatchMint",
      "inputs": []
    },
    {
      "type": "error",
      "name": "ERC721IncorrectOwner",
      "inputs": [
        {
          "name": "sender",
          "type": "address",
          "internalType": "address"
        },
        {
          "name": "tokenId",
          "type": "uint256",
          "internalType": "uint256"
        },
        {
          "name": "owner",
          "type": "address",
          "internalType": "address"
        }
      ]
    },
    {
      "type": "error",
      "name": "ERC721InsufficientApproval",
      "inputs": [
        {
          "name": "operator",
          "type": "address",
          "internalType": "address"
        },
        {
          "name": "tokenId",
          "type": "uint256",
          "internalType": "uint256"
        }
      ]
    },
    {
      "type": "error",
      "name": "ERC721InvalidApprover",
      "inputs": [
        {
          "name": "approver",
          "type": "address",
          "internalType": "address"
        }
      ]
    },
    {
      "type": "error",
      "name": "ERC721InvalidOperator",
      "inputs": [
        {
          "name": "operator",
          "type": "address",
          "internalType": "address"
        }
      ]
    },
    {
      "type": "error",
      "name": "ERC721InvalidOwner",
      "inputs": [
        {
          "name": "owner",
          "type": "address",
          "internalType": "address"
        }
      ]
    },
    {
      "type": "error",
      "name": "ERC721InvalidReceiver",
      "inputs": [
        {
          "name": "receiver",
          "type": "address",
          "internalType": "address"
        }
      ]
    },
    {
      "type": "error",
      "name": "ERC721InvalidSender",
      "inputs": [
        {
          "name": "sender",
          "type": "address",
          "internalType": "address"
        }
      ]
    },
    {
      "type": "error",
      "name": "ERC721NonexistentToken",
      "inputs": [
        {
          "name": "tokenId",
          "type": "uint256",
          "internalType": "uint256"
        }
      ]
    },
    {
      "type": "error",
      "name": "ERC721OutOfBoundsIndex",
      "inputs": [
        {
          "name": "owner",
          "type": "address",
          "internalType": "address"
        },
        {
          "name": "index",
          "type": "uint256",
          "internalType": "uint256"
        }
      ]
    }
  ],
  "bytecode": {
    "object": "0x610120346200052357601f6200509138819003918201601f19168301916001600160401b03831184841017620004285780849260809460405283398101031262000523576200004e8162000548565b6200005c6020830162000548565b620000786060620000706040860162000548565b940162000548565b916200008362000528565b601b81527f556e697377617020563320506f736974696f6e73204e46542d563100000000006020820152620000b762000528565b90600a825269554e492d56332d504f5360b01b6020830152620000d962000528565b60018152603160f81b602082015281519092906001600160401b0381116200042857600054600181811c9116801562000518575b60208210146200040757601f8111620004c0575b50806020601f82116001146200044a576000916200043e575b508160011b916000199060031b1c1916176000555b8051906001600160401b038211620004285760015490600182811c921680156200041d575b6020831014620004075781601f849311620003a3575b50602090601f831160011462000329576000926200031d575b50508160011b916000199060031b1c1916176001555b8051602091820120608052815191012060a05260c05260e052760100000000000000000000000000000000000000000001600d556001600160a01b03908116908115620002d8578216156200029457600e80546001600160a01b031916919091179055610100908152604051614af391826200055e8339608051826135b8015260a051826135de015260c0518281816102fa015281816108ed01528181610a5b0152818161260a015281816128df0152613ef1015260e051828181601d01528181611dcb01528181611e2401526141df015251816109bd0152f35b606460405162461bcd60e51b815260206004820152602060248201527f546f6b656e2044657363726970746f722061646472657373206973207a65726f6044820152fd5b60405162461bcd60e51b815260206004820152601c60248201527f4e46542054696d656c6f636b2061646472657373206973207a65726f000000006044820152606490fd5b015190503880620001a3565b60016000908152600080516020620050718339815191529350601f198516905b8181106200038a575090846001959493921062000370575b505050811b01600155620001b9565b015160001960f88460031b161c1916905538808062000361565b9293602060018192878601518155019501930162000349565b600160005290915060008051602062005071833981519152601f840160051c81019160208510620003fc575b90601f859493920160051c01905b818110620003ec57506200018a565b60008155849350600101620003dd565b9091508190620003cf565b634e487b7160e01b600052602260045260246000fd5b91607f169162000174565b634e487b7160e01b600052604160045260246000fd5b9050830151386200013a565b6000808052600080516020620050518339815191529250601f198416905b818110620004a7575090836001949392106200048d575b5050811b016000556200014f565b85015160001960f88460031b161c1916905538806200047f565b9192602060018192868a01518155019401920162000468565b6000805260008051602062005051833981519152601f830160051c810191602084106200050d575b601f0160051c01905b81811062000500575062000121565b60008155600101620004f1565b9091508190620004e8565b90607f16906200010d565b600080fd5b60408051919082016001600160401b038111838210176200042857604052565b51906001600160a01b0382168203620005235756fe608080604052600436101561007e575b50361561001b57600080fd5b7f00000000000000000000000000000000000000000000000000000000000000006001600160a01b0316330361004d57005b60405162461bcd60e51b81526020600482015260096024820152684e6f7420574554483960b81b6044820152606490fd5b600090813560e01c90816301ffc9a714612e0d5750806306fdde0314612d4b578063081812fc14612ca6578063095ea7b314612c7e5780630c49ccbe1461282557806312210e8a1461280757806313ead56214612587578063162790551461255957806318160ddd1461253b578063219f5d17146122c957806323b872dd146122b15780632f745c591461222c57806330adf81f146121f15780633644e515146121d657806342842e0e146121ae57806342966c6814611f545780634659a49414611f3b57806349404b7c14611dfa5780634aa4a4fc14611db55780634f6ccce714611d5e5780636352211e14611d2d5780636c0360eb14611cce57806370a0823114611ca25780637ac2ff7b146119c657806388316456146111b057806395d89b41146110a057806399fbab8814610ebe578063a22cb46514610e19578063a4a78f0c14610d88578063ac9650d814610bbe578063b88d4fde14610b31578063c2e3140a14610a8a578063c45a015514610a45578063c87b56dd14610969578063d348799714610815578063df2ab5bb1461071d578063e985e9c5146106c9578063f3995c67146106ad5763fc6f78650361000f5760803660031901126104d7576102556102506004353333613a1d565b61309e565b6001600160801b03610265613131565b1615801590610694575b156104d7576001600160a01b036102846137a0565b166106865730905b6004358152600c60205260408120916001830154926001600160501b0384168352600b6020526040832062ffffff6001604051926102c984612f91565b818060a01b038154168452015460018060a01b038116602084015260a01c16604082015261031e60018060a01b03917f0000000000000000000000000000000000000000000000000000000000000000613aa5565b1660048201546001600160801b038116908060801c968060801c610508575b5050610347613131565b6001600160801b03828116911611156104fa5780925b610365613147565b6001600160801b03888116911611156104ed57865b600182015494604051966309e3d67b60e31b885260018060a01b0316958660048901528060501c60020b602489015260681c60020b60448801526001600160801b0381169384606489015260408860a4818c6001600160801b0388169a8b60848401525af19788156104e257898099610488575b505060409961043761041a6001600160801b039a99989796956104146004968d9661323b565b9361323b565b848601906001600160801b0382549181199060801b169116179055565b16871982840154161791015586519283526020830152858201527f40d0efd1a53d60ecbf40971b9daf7dc90178c3aadc7aab1765632738fa8b8f01606060043592a281845193168352166020820152f35b919796959493985098506040893d6040116104da575b816104ab60409383613062565b810103126104d757506104bd886131c3565b976020016104ca906131c3565b96919293949538806103ee565b80fd5b3d915061049e565b6040513d8b823e3d90fd5b6104f5613147565b61037a565b610502613131565b9261035d565b915095506040519063a34123a760e01b82528060501c60020b600483015260681c60020b602482015284604482015260408160648188865af1801561067b5761064d575b5060018201549461056a8660681c60020b8760501c60020b30613bb2565b956040519663514ea4bf60e01b8852600488015260a087602481865afa9081156106425786978792610609575b5060028501976105ff6105d46001600160801b036105c46105b98d5486613213565b9560801c8096613c1e565b166001600160801b038716613220565b946001600160801b036105f560038a01956105f0875489613213565b613c1e565b169060801c613220565b985555388061033d565b90975061062e915060a03d60a01161063b575b6106268183613062565b8101906131d7565b5050979150969038610597565b503d61061c565b6040513d88823e3d90fd5b61066e9060403d604011610674575b6106668183613062565b81019061316a565b5061054c565b503d61065c565b6040513d87823e3d90fd5b61068e6137a0565b9061028c565b506001600160801b036106a5613147565b16151561026f565b506106c66106ba36612f51565b949390939291926139b4565b80f35b50346104d75760403660031901126104d7576106e3612edc565b60406106ed612ef2565b9260018060a01b0380931681526005602052209116600052602052602060ff604060002054166040519015158152f35b5060603660031901126104d757610732612edc565b6001600160a01b0360443581811681036107fd576020602492604051938480926370a0823160e01b825230600483015287165afa91821561080a5784926107d1575b5060243582106107975781610787578380f35b610790926143c4565b3880808380f35b60405162461bcd60e51b815260206004820152601260248201527124b739bab33334b1b4b2b73a103a37b5b2b760711b6044820152606490fd5b9091506020813d602011610802575b816107ed60209383613062565b810103126107fd57519038610774565b600080fd5b3d91506107e0565b6040513d86823e3d90fd5b50346104d75760603660031901126104d7576044356024356004356001600160401b0380841161096557366023850112156109655783600401359081116109655783013660248201116109655783900392608084126109655760606040519461087d86612fdb565b12610965576040519161088f83612f91565b61089b60248301612f08565b83526108a960448301612f08565b602084015260648201359162ffffff831683036107fd5760846108d89161091194604087015285885201612f08565b60208601908152926001600160a01b039283917f0000000000000000000000000000000000000000000000000000000000000000613aa5565b1633036109615780610946575b5082610928578480f35b80602061093e95510151169033925116906141d2565b388080808480f35b61095b908286515116339084865116906141d2565b3861091e565b8580fd5b8480fd5b50346104d75760203660031901126104d7576004356000818152600260205260409020546001600160a01b031615610a415760405163e9dc637560e01b8152306004820152602481019190915281816044817f00000000000000000000000000000000000000000000000000000000000000006001600160a01b03165afa908115610a365782610a0f9392610a13575b5050604051918291602083526020830190612eb7565b0390f35b610a2f92503d8091833e610a278183613062565b810190613846565b38806109f9565b6040513d84823e3d90fd5b5080fd5b50346104d757806003193601126104d7576040517f00000000000000000000000000000000000000000000000000000000000000006001600160a01b03168152602090f35b50610a9436612f51565b604051636eb1769f60e11b81523360048201523060248201529094919391906020816044816001600160a01b038b165afa8015610b265782918991610af1575b5010610ade578680f35b610ae7956139b4565b3880808080808680f35b9150506020813d602011610b1e575b81610b0d60209383613062565b810103126107fd5781905138610ad4565b3d9150610b00565b6040513d8a823e3d90fd5b50346104d75760803660031901126104d757610b4b612edc565b610b53612ef2565b90606435906001600160401b038211610bba5736602383011215610bba5781600401359284610b8185613083565b93610b8f6040519586613062565b8585523660248783010111610a4157856106c6966024602093018388013785010152604435916138b8565b8380fd5b50602080600319360112610a41576004356001600160401b03808211610bba5736602383011215610bba5781600401359080821161096557602460059236828260051b87010111610d845792610c16849796976137ff565b94610c246040519687613062565b848652610c30856137ff565b601f1901875b818110610d75575050368190036042190191875b868110610cb05789898960405191838301848452825180915260408401948060408360051b870101940192955b828710610c845785850386f35b909192938280610ca0600193603f198a82030186528851612eb7565b9601920196019592919092610c77565b8481839b9a9b1b8401013584811215610d715783018a86820135888111610a41576044809301908036038213610d6d57829181604051928392833781018381520390305af490610cfe613816565b9115610d28575090600191610d13828b6138a4565b52610d1e818a6138a4565b5001989798610c4a565b818c8c92899451106104d75750610d4d8184806004610d699501518301019101613846565b60405193849362461bcd60e51b85526004850152830190612eb7565b0390fd5b8280fd5b8a80fd5b60608882018b01528901610c36565b8680fd5b50610d9236612f51565b604051636eb1769f60e11b81523360048201523060248201529094919391906020816044816001600160a01b038b165afa908115610b26578891610de7575b5060001911610dde578680f35b610ae795613621565b90506020813d602011610e11575b81610e0260209383613062565b810103126107fd575138610dd1565b3d9150610df5565b50346104d75760403660031901126104d757610e33612edc565b60243590811515809203610d6d576001600160a01b0316908115610ea55733835260056020526040832082600052602052604060002060ff1981541660ff83161790556040519081527f17307eab39ab6107e8899845ad3d59bd9653f200f220920489ca2b5937696c3160203392a380f35b604051630b61174360e31b815260048101839052602490fd5b50346104d75760203660031901126104d7576004358152600c602052604081206001600160501b0360405191610ef383612fbf565b80546001600160601b038116845260601c6020840152600460018201549183831660408601528260501c60020b60608601528260681c60020b60808601528260801c60a0860152600281015460c0860152600381015460e086015201546001600160801b03811661010085015260801c6101208401521615611068576040610180926001600160501b0382840151168152600b602052209060405190610f9882612f91565b60018060a01b0392600184825416918285520154928484166020820152604062ffffff8560a01c169101526001600160601b03825116938060208401511693606084015160020b608085015160020b9062ffffff6001600160801b0360a0880151169360c08801519560e0890151976001600160801b03610120816101008d0151169b0151169a6040519c8d5260208d015260408c0152811660608b015260a01c16608089015260a088015260c087015260e0860152610100850152610120840152610140830152610160820152f35b60405162461bcd60e51b815260206004820152601060248201526f125b9d985b1a59081d1bdad95b88125160821b6044820152606490fd5b50346104d757806003193601126104d7576040519080600191600154928360011c92600185169485156111a6575b602095868610811461119257858852879493929187908215611170575050600114611116575b505061110292500383613062565b610a0f604051928284938452830190612eb7565b90859250600182527fb10e2d527612073b26eecdfd717e6a320cf44b4afac2b0732d9fcbe2b7fa0cf65b858310611158575050611102935082010138806110f4565b80548389018501528794508693909201918101611140565b925093505061110294915060ff191682840152151560051b82010138806110f4565b634e487b7160e01b83526022600452602483fd5b93607f16936110ce565b506101603660031901126104d7576111cd610144354211156130d9565b6112626111d861378a565b6111e06137a0565b6111e86137cd565b62ffffff6111f46137df565b916111fd6137ef565b936040519561120b87612fbf565b6001600160a01b039081168752166020860152166040840152306060840152600290810b60808401520b60a082015260a43560c082015260c43560e082015260e43561010082015261010435610120820152613ea9565b600d5493919291906001600160b01b038516600114801590611944575b156119195761128c6137b6565b6001600160b01b0386811614611905576001600160b01b031986166001600160b01b038781166001011617600d556001600160a01b038116156118ec576001600160b01b0386166000908152600260205260409020546001600160a01b0316806118b9576001600160a01b0382166000818152600360209081526040808320805460010190556001600160b01b038b168084526002909252822080546001600160a01b03191684179055919083907fddf252ad1be2c89b69c2b068fc378daa952ba7f163c4a11628f55a4df523b3ef9080a480611819576008546001600160b01b0388166000908152600960205260409020819055600160401b811015611803576113a08160016113c293016008556136a9565b815460001960039290921b91821b19166001600160b01b038b1690911b179055565b6001600160a01b03821603611790575b506113ed6113de6137df565b6113e66137ef565b9030613bb2565b60405163514ea4bf60e01b8152600481019190915260a0816024816001600160a01b0386165afa9081156117855787908892611760575b5061142d61378a565b9262ffffff61143a6137a0565b6114426137cd565b906040519661145088612f91565b60018060a01b0316875260018060a01b0316602087015216604085015260018060a01b0381168952600a6020526001600160501b0360408a20541693841561167e575b5050916001600160801b03610120604060809a61160e958498976114b56137df565b6114bd6137ef565b906001600160501b038651996114d28b612fbf565b868b528660208c015216868a015260020b606089015260020b8e88015285891660a088015260c087015260e086015280610100860152808386015260018060b01b038b168152600c60205220926001600160601b038151166001600160601b031985541617845561156460018060a01b0360208301511685906001600160601b0382549181199060601b169116179055565b600460018501946115cd6001600160501b03604085015116968054606086015160501b90608087015160681b998919809b62ffffff60681b169362ffffff60501b16921617171781558660a0860151166001600160801b0382549181199060801b169116179055565b60c0830151600282015560e0830151600382015501938361010083015116908554161784550151166001600160801b0382549181199060801b169116179055565b604080516001600160801b0383168152602081018590529081018590526001600160b01b038616907f3067048beee31b25b2f1681f88dac838c8bba36af25bfb2b7cf7473a5847e35f90606090a2604080516001600160b01b039096168652911660208501528301526060820152f35b909350600d546001600160501b038160b01c1461174c576001600160b01b03811660b091821c600181810190931b6001600160b01b03191691909117600d556001600160a01b039586168b52600a60209081526040808d20805469ffffffffffffffffffff191684179055828d52600b8252808d20855181546001600160a01b031916908a161781559185015191909301805494909301516001600160b81b031990941696169590951760a09290921b62ffffff60a01b169190911790556001600160801b03610120611493565b634e487b7160e01b8a52601160045260248afd5b905061177b915060a03d60a01161063b576106268183613062565b5050915038611424565b6040513d89823e3d90fd5b611799816136f6565b90816000198101116117ed576001600160a01b03166000908152600660209081526040808320600019949094018084529382528083206001600160b01b038a169081905583526007909152902055386113d2565b634e487b7160e01b600052601160045260246000fd5b634e487b7160e01b600052604160045260246000fd5b6001600160a01b03821681146113c257611832816136f6565b60018060b01b03881660005260076020526040600020549082600052600660205260406000209181810361188c575b5060018060b01b038916600052600760205260006040812055600052602052600060408120556113c2565b81600052826020526040600020548160005280604060002055600052600760205260406000205538611861565b60405162461bcd60e51b815260206004820152600b60248201526a105d5d1a0811985a5b195960aa1b6044820152606490fd5b604051633250574960e11b815260048101889052602490fd5b634e487b7160e01b87526011600452602487fd5b606460405162461bcd60e51b81526020600482015260046024820152631193935160e21b6044820152fd5b50604051631abe729160e31b81526020816004816001600160a01b0386165afa908115611785578791611997575b506001600160a01b036119836137b6565b6001600160a01b039092169116141561127f565b6119b9915060203d6020116119bf575b6119b18183613062565b810190613254565b38611972565b503d6119a7565b506119d036612f51565b83949396959291964211611c6c576119e661358b565b96848752602092600c845260408820988954996001600160601b039a8b81169b808d14611c585760018d0116906001600160601b031916179055604051858101907f49ecf333e5b8c95c40fdafc95c1ad136e8914a8fb55e9dc8bb01eaa83a2df9ad825260018060a01b03998a89169c8d60408401528a6060840152608083015260a082015260a08152611a7981613011565b519020604051908682019261190160f01b84526022830152604282015260428152611aa38161302c565b51902092611ab0876141af565b97808916809b14611c0357611ac4896132f3565b15611b865750604080518087019490945283015260f81b6001600160f81b0319166060820152604181529596611b29968391611aff8261302c565b60405180809a8194630b135d3f60e11b978884526004840152604060248401526044830190612eb7565b03915afa8015611785576106c696611b54938992611b59575b50506001600160e01b0319161461372f565b61447e565b611b789250803d10611b7f575b611b708183613062565b81019061376a565b3880611b42565b503d611b66565b93608091869460ff8c9560405194855216868401526040830152606082015282805260015afa1561067b57855116908115611bcb57506106c69495611b54911461372f565b6064906040519062461bcd60e51b825260048201526011602482015270496e76616c6964207369676e617475726560781b6044820152fd5b60405162461bcd60e51b815260048101879052602760248201527f4552433732315065726d69743a20617070726f76616c20746f2063757272656e6044820152663a1037bbb732b960c91b6064820152608490fd5b634e487b7160e01b8c52601160045260248cfd5b60405162461bcd60e51b815260206004820152600e60248201526d14195c9b5a5d08195e1c1a5c995960921b6044820152606490fd5b50346104d75760203660031901126104d7576020611cc6611cc1612edc565b6136f6565b604051908152f35b50346104d757806003193601126104d7576040516020808252816060519182602083015260005b838110611d175750508160006040809484010152601f80199101168101030190f35b6080810151858201604001528492508101611cf5565b50346104d75760203660031901126104d7576020611d4c6004356141af565b6040516001600160a01b039091168152f35b50346104d75760203660031901126104d757600435600854811015611d9657611d886020916136a9565b90546040519160031b1c8152f35b6044906040519063295f44f760e21b8252600060048301526024820152fd5b50346104d757806003193601126104d7576040517f00000000000000000000000000000000000000000000000000000000000000006001600160a01b03168152602090f35b5060403660031901126104d757611e0f612ef2565b6040516370a0823160e01b81523060048201527f00000000000000000000000000000000000000000000000000000000000000006001600160a01b0316602082602481845afa91821561080a578492611f07575b506004358210611ecd57839082611e78575080f35b803b15610a4157818091602460405180948193632e1a7d4d60e01b83528860048401525af18015610a3657611eb9575b5050611eb391613e57565b38808280f35b611ec290612fac565b610d6d578238611ea8565b60405162461bcd60e51b8152602060048201526012602482015271496e73756666696369656e7420574554483960701b6044820152606490fd5b9091506020813d602011611f33575b81611f2360209383613062565b810103126107fd57519038611e63565b3d9150611f16565b506106c6611f4836612f51565b94939093929192613621565b50602080600319360112610a415760043590611f74610250833333613a1d565b818352600c815260408320600181015460801c159081612198575b81612188575b501561215657818352600c81528260046040822082815582600182015560006002820155600060038201550155816000526002815260018060a01b0360406000205416908115918215612123576000848152600283526040812080546001600160a01b031916905584917fddf252ad1be2c89b69c2b068fc378daa952ba7f163c4a11628f55a4df523b3ef8280a4811561211e576008546009825280604060002055600160401b811015611803578361205782600161207094016008556136a9565b90919082549060031b91821b91600019901b1916179055565b600854600019918282019182116117ed576009908560005281815261209a604060002054936136a9565b90549060031b1c6120ae81612057866136a9565b6000525260406000205582600052600060408120556008548015612108578101906120d8826136a9565b909182549160031b1b191690556008556120f0575080f35b60249060405190637e27328960e01b82526004820152fd5b634e487b7160e01b600052603160045260246000fd5b612070565b60405162461bcd60e51b815260048101839052600b60248201526a105d5d1a0811985a5b195960aa1b6044820152606490fd5b6064906040519062461bcd60e51b82526004820152600b60248201526a139bdd0818db19585c995960aa1b6044820152fd5b60049150015460801c1538611f95565b60048101546001600160801b0316159150611f8f565b50346104d7576106c66121c036612f1c565b90604051926121ce84612ff6565b8584526138b8565b50346104d757806003193601126104d7576020611cc661358b565b50346104d757806003193601126104d75760206040517f49ecf333e5b8c95c40fdafc95c1ad136e8914a8fb55e9dc8bb01eaa83a2df9ad8152f35b50346104d75760403660031901126104d757612246612edc565b9060243591612254816136f6565b831015612285576001600160a01b031681526006602090815260408083209383529281529082902054915191825290f35b60405163295f44f760e21b81526001600160a01b03919091166004820152602481019290925250604490fd5b50346104d7576106c66122c336612f1c565b91613329565b5060c03660031901126104d7576122e460a4354211156130d9565b600435808252600c602052604082209060018201918254916001600160501b0383168552600b6020526123ac604086206040519461232186612f91565b604060018060a01b03966001888554169485835201549062ffffff8983169283602084015260a01c1692839101526040519361235c85612fbf565b8452602084015260408301523060608301528060501c60020b608083015260681c60020b60a082015260243560c082015260443560e0820152606435610100820152608435610120820152613ea9565b60a08894979398969296549160246123d18460681c60020b8560501c60020b30613bb2565b604051968793849263514ea4bf60e01b84526004840152165afa9283156104e257986124aa94939291610a0f98999a8294612513575b5061249a600284019161247161241e845486613213565b9160801c9586926124386001600160801b03948592613c1e565b16926105f56003600484019583612453885492828416613220565b16906001600160801b031916179384875501986105f08a548c613213565b81546001600160801b031660809190911b6fffffffffffffffffffffffffffffffff1916179055565b555561247186825460801c613220565b604080516001600160801b0386168152602081018790529081018390527f3067048beee31b25b2f1681f88dac838c8bba36af25bfb2b7cf7473a5847e35f90606090a2604051938493846040919493926001600160801b03606083019616825260208201520152565b90935061252f915060a03d60a01161063b576106268183613062565b50509150909238612407565b50346104d757806003193601126104d7576020600854604051908152f35b50346104d75760203660031901126104d757602061257d612578612edc565b6132f3565b6040519015158152f35b5060803660031901126104d75761259c612edc565b906125a5612ef2565b60443562ffffff811681036107fd576001600160a01b036064358181169591939086900361096557838116848316101561096557604051630b4c774160e11b81526001600160a01b0383811660048301528216602482015262ffffff841660448201527f000000000000000000000000000000000000000000000000000000000000000085169290602081606481875afa9081156117855787916127e8575b50808616908161271b57505060405163a167129560e01b81526001600160a01b0391821660048201529116602482015262ffffff929092166044830152929390928491906020908590606490829086905af1938415610a365782946126fa575b50828416803b15610d6d5760248392604051948593849263f637731d60e01b845260048401525af1801561080a576126e6575b50602092505b60405191168152f35b6126f08491612fac565b610d6d57826126d7565b61271491945060203d6020116119bf576119b18183613062565b92386126a4565b9694509692505050604051633850c7bd60e01b815260e081600481895afa9081156127dd5790849184916127a8575b50161561275d575b5050602092506126dd565b8482953b15610d6d5760248392604051948593849263f637731d60e01b845260048401525af1801561080a57612794575b80612752565b61279e8491612fac565b610d6d578261278e565b6127ca915060e03d60e0116127d6575b6127c28183613062565b810190613282565b5050505050503861274a565b503d6127b8565b6040513d85823e3d90fd5b612801915060203d6020116119bf576119b18183613062565b38612644565b50806003193601126104d7574761281b5780f35b6106c64733613e57565b5060a03660031901126104d757600435612843610250823333613a1d565b6128516084354211156130d9565b6001600160801b038061286261311b565b1615610d6d578183526020600c81526040842092600184018054948560801c908561288b61311b565b168210612bce576001600160501b03600197168852600b855287604081206129036040516128b881612f91565b62ffffff8b8060a01b039b848d80965416845201548481168b84015260a01c1660408201527f0000000000000000000000000000000000000000000000000000000000000000613aa5565b169760018614612b33575b50508254968661291c61311b565b6040519963a34123a760e01b8b528060501c60020b60048c015260681c60020b60248b01521660448901526040886064818c855af19687156104e25789988a98612b0c575b5060443589101580612b00575b61297790613180565b60a061299286548060681c60020b9060501c60020b30613bb2565b60246040518095819363514ea4bf60e01b835260048301525afa918215612af557918a61247194928a8c8860409f97612a539b9a989596612aaa575b5086612a3a612a4394612a008795868a996129f8612471988e9f60026105f091019d8e5490613213565b169116613220565b94806129f88d6105f06003600489019a85612a1f8d5492828416613220565b16906001600160801b0319161798898c55019d8e5490613213565b9060801c613220565b5555612a4d61311b565b9061323b565b7f26f6a048ee9138f2c0ce266f322cb99228e8d619ae2bff30c67f8dcf9d2377b484612a7d61311b565b87516001600160801b03919091168152602081019190915260408101859052606090a28351928352820152f35b61247191965084955096612a3a612a4394612a008795612adb6129f89c60a03d60a01161063b576106268183613062565b50509a91509a8b9a9c9750505095975050945050966129ce565b6040513d8c823e3d90fd5b5060643588101561296e565b909750612b2991985060403d604011610674576106668183613062565b9790979638612961565b80600e5416604051632936dd9b60e11b81523360048201528881602481855afa90811561080a578491612c49575b50612bd25750600e5416803b15610a4157818091608460405180948193630e4ca96160e41b83523360048401526201518060248401523060448401528b60648401525af18015610a3657612bba575b50505b873861290e565b612bc390612fac565b612bce578738612bb0565b8780fd5b809150989796983b15610a415781906004604051809481936386d1a69f60e01b83525af19081612c36575b50612c2d5760405162461bcd60e51b815260048101889052600360248201526213925360ea1b6044820152606490fd5b95939495612bb3565b612c4290999199612fac565b9738612bfd565b90508881813d8311612c77575b612c608183613062565b81010312610bba57612c719061315d565b38612b61565b503d612c56565b50346104d75760403660031901126104d7576106c6612c9b612edc565b33906024359061447e565b50346104d75760203660031901126104d7576004356000818152600260205260409020546001600160a01b031615612cf1578160409160209352600c8352205460601c604051908152f35b60405162461bcd60e51b815260206004820152602c60248201527f4552433732313a20617070726f76656420717565727920666f72206e6f6e657860448201526b34b9ba32b73a103a37b5b2b760a11b6064820152608490fd5b50346104d757806003193601126104d757604051908080549160018360011c9260018516948515612e03575b602095868610811461119257858852879493929187908215611170575050600114612daa57505061110292500383613062565b908592508180527f290decd9548b62a8d60345a988386fc84ba6bc95484008f6362f93160ef3e5635b858310612deb575050611102935082010138806110f4565b80548389018501528794508693909201918101612dd3565b93607f1693612d77565b905034610a41576020366003190112610a415760043563ffffffff60e01b8116809103610d6d576020925063780e9d6360e01b8114908115612e51575b5015158152f35b6380ac58cd60e01b811491508115612e83575b8115612e72575b5038612e4a565b6301ffc9a760e01b14905038612e6b565b635b5e139f60e01b81149150612e64565b60005b838110612ea75750506000910152565b8181015183820152602001612e97565b90602091612ed081518092818552858086019101612e94565b601f01601f1916010190565b600435906001600160a01b03821682036107fd57565b602435906001600160a01b03821682036107fd57565b35906001600160a01b03821682036107fd57565b60609060031901126107fd576001600160a01b039060043582811681036107fd579160243590811681036107fd579060443590565b60c09060031901126107fd576004356001600160a01b03811681036107fd5790602435906044359060643560ff811681036107fd57906084359060a43590565b606081019081106001600160401b0382111761180357604052565b6001600160401b03811161180357604052565b61014081019081106001600160401b0382111761180357604052565b604081019081106001600160401b0382111761180357604052565b602081019081106001600160401b0382111761180357604052565b60c081019081106001600160401b0382111761180357604052565b608081019081106001600160401b0382111761180357604052565b60a081019081106001600160401b0382111761180357604052565b90601f801991011681019081106001600160401b0382111761180357604052565b6001600160401b03811161180357601f01601f191660200190565b156130a557565b60405162461bcd60e51b815260206004820152600c60248201526b139bdd08185c1c1c9bdd995960a21b6044820152606490fd5b156130e057565b60405162461bcd60e51b8152602060048201526013602482015272151c985b9cd858dd1a5bdb881d1bdbc81bdb19606a1b6044820152606490fd5b6024356001600160801b03811681036107fd5790565b6044356001600160801b03811681036107fd5790565b6064356001600160801b03811681036107fd5790565b519081151582036107fd57565b91908260409103126107fd576020825192015190565b1561318757565b60405162461bcd60e51b8152602060048201526014602482015273507269636520736c69707061676520636865636b60601b6044820152606490fd5b51906001600160801b03821682036107fd57565b908160a09103126107fd576131eb816131c3565b916020820151916040810151916132106080613209606085016131c3565b93016131c3565b90565b919082039182116117ed57565b9190916001600160801b03808094169116019182116117ed57565b6001600160801b0391821690821603919082116117ed57565b908160209103126107fd57516001600160a01b03811681036107fd5790565b519061ffff821682036107fd57565b908160e09103126107fd5780516001600160a01b03811681036107fd579160208201518060020b81036107fd57916132bc60408201613273565b916132c960608301613273565b916132d660808201613273565b9160a082015160ff811681036107fd5760c061321091930161315d565b3f7fc5d2460186f7233c927e7db2dcc703c0e500b653ca82273b7bfad8045d85a4708114159081613322575090565b9050151590565b6001600160a01b038281169391841561357257600094838652602095600287526040968488832054169633613527575b871580156134f55784845260038352898420805460010190558784526002835289842080546001600160a01b0319168617905587858a7fddf252ad1be2c89b69c2b068fc378daa952ba7f163c4a11628f55a4df523b3ef8780a4156134895760085487845260098352808a852055600160401b81101561347557876120578260016133e794016008556136a9565b838803613423575b5050505016928383036134025750505050565b6064945051926364283d7b60e01b8452600484015260248301526044820152fd5b61342c906136f6565b6000198101939084116134615782916007918a94526006815283832085845281528784842055878352522055388080806133ef565b634e487b7160e01b83526011600452602483fd5b634e487b7160e01b84526041600452602484fd5b8784146133e757613499886136f6565b878452600783528984205490898552600684528a8520918181036134d3575b5088855260078452848b8120558452825282898120556133e7565b8186528285528b862054818752808d8820558652600785528b862055386134b8565b895162461bcd60e51b815260048101849052600b60248201526a105d5d1a0811985a5b195960aa1b6044820152606490fd5b61353287338a613a1d565b61335957888789613553576024915190637e27328960e01b82526004820152fd5b905163177e802f60e01b81523360048201526024810191909152604490fd5b604051633250574960e11b815260006004820152602490fd5b60405160208101907f8b73c3c69bb8fe3d512ecc4cf759cc79239f7b179b0ffacaa9a75d522b39400f82527f000000000000000000000000000000000000000000000000000000000000000060408201527f000000000000000000000000000000000000000000000000000000000000000060608201524660808201523060a082015260a0815261361b81613011565b51902090565b92946001600160a01b0390931693919291843b156107fd5760009461010493869260ff604051998a9889976323f2ebc360e21b89523360048a01523060248a015260448901526064880152600160848801521660a486015260c485015260e48401525af1801561369d576136925750565b61369b90612fac565b565b6040513d6000823e3d90fd5b6008548110156136e05760086000527ff3f7a9fe364faab93b216da50a3214154f22a0a2b415b23a84c8169e8b636ee30190600090565b634e487b7160e01b600052603260045260246000fd5b6001600160a01b0316801561371657600052600360205260406000205490565b6040516322718ad960e21b815260006004820152602490fd5b1561373657565b60405162461bcd60e51b815260206004820152600c60248201526b155b985d5d1a1bdc9a5e995960a21b6044820152606490fd5b908160209103126107fd57516001600160e01b0319811681036107fd5790565b6004356001600160a01b03811681036107fd5790565b6024356001600160a01b03811681036107fd5790565b610124356001600160a01b03811681036107fd5790565b60443562ffffff811681036107fd5790565b6064358060020b81036107fd5790565b6084358060020b81036107fd5790565b6001600160401b0381116118035760051b60200190565b3d15613841573d9061382782613083565b916138356040519384613062565b82523d6000602084013e565b606090565b6020818303126107fd578051906001600160401b0382116107fd570181601f820112156107fd57805161387881613083565b926138866040519485613062565b818452602082840101116107fd576132109160208085019101612e94565b80518210156136e05760209160051b010190565b919290926138c7818585613329565b833b6138d4575b50505050565b60209060018060a01b038095169461391b6040519485938493630a85bd0160e11b988986523360048701521660248501526044840152608060648401526084830190612eb7565b03816000875af160009181613993575b506139625782613939613816565b805191908261395b57604051633250574960e11b815260048101839052602490fd5b9050602001fd5b6001600160e01b0319160361397b5750388080806138ce565b60249060405190633250574960e11b82526004820152fd5b6139ad91925060203d602011611b7f57611b708183613062565b903861392b565b92946001600160a01b0390931693919291843b156107fd5760009460e493869260ff604051998a98899763d505accf60e01b89523360048a01523060248a01526044890152606488015216608486015260a485015260c48401525af1801561369d576136925750565b6001600160a01b039182168015159392909184613a3c575b5050505090565b81929394501692828414938415613a7e575b508315613a62575b50505038808080613a35565b9091925060005260046020526040600020541614388080613a56565b909350600052600560205260406000208260005260205260ff604060002054169238613a4e565b81516020830180516001600160a01b039492851690851611156107fd5760405191600080602085016327b7cf8560e01b81527f33e0e214aaaa311945afafd84672c570c653a094e74e911ed49689d566f71cd39586602482015260248152613b0c81612f91565b51906a636f6e736f6c652e6c6f675afa508051915160409182015182519387166001600160a01b0390811660208601908152928816169284019290925262ffffff909116606083015290613b6d81608081015b03601f198101835282613062565b5190209060405191602083019360ff60f81b85526001600160601b03199060601b1660218401526035830152605582015260558152613bab8161302c565b5190201690565b916040519160208301936001600160601b03199060601b16845260e81b603483015260e81b6037820152601a815261361b81612fdb565b600160ff1b81146117ed5760000390565b90811560018380041417156117ed57565b818102929181159184041417156117ed57565b9060001981830981830292838083109203918083039214613c7057600160801b92828411156107fd5783910990838211808203938460801b94850414911417156117ed57613210920360801c17613bfa565b50505060801c90565b600160601b600019818309918060601b91828085109403938085039414613db957838511156107fd578491099280613cb081613be9565b1680910493613cce6000946001848088030401908584119003613c0b565b92030417918060030291600383048203613da5576002809318613cf18184613c0b565b8403908482116134615790613d0591613c0b565b613d0f8184613c0b565b8403908482116134615790613d2391613c0b565b613d2d8184613c0b565b8403908482116134615790613d4191613c0b565b613d4b8184613c0b565b8403908482116134615790613d5f91613c0b565b613d698184613c0b565b84039084821161346157613d8791613d8091613c0b565b8093613c0b565b8303928311613da557506132109291613d9f91613c0b565b90613c0b565b634e487b7160e01b81526011600452602490fd5b5050905081156107fd570490565b6000198282099082810292838084109303928084039314613e1c57600160601b91838311156107fd570982811191828103928360a01b938404600160a01b14911417156117ed57613210920360601c17613bfa565b50505060601c90565b906000198183099181810291828085109403938085039414613db957838511156107fd578491099280613cb081613be9565b6000808093819382604051613e6b81612ff6565b525af1613e76613816565b5015613e7e57565b60405162461bcd60e51b815260206004820152600360248201526253544560e81b6044820152606490fd5b9060018060a01b039081835116926020918383830151169162ffffff9260409484868401511697865190613edc82612f91565b815281810192835286810198895287613f15827f0000000000000000000000000000000000000000000000000000000000000000613aa5565b1695875198613f238a612fdb565b60048a52631c1bdbdb60e21b848b01528851613f6f81613f5b8782019d8e63319af33360e01b90528d60248401526064830190612eb7565b8b604483015203601f198101835282613062565b6000809b819251906a636f6e736f6c652e6c6f675afa508851633850c7bd60e01b81529360e0856004818c5afa9485156141a557918a9593918c9593869561417e575b50608089019489613fc6875160020b614505565b9160a0820198613fd98a5160020b614505565b9160e060c08501519401519083868982168a821611614172575b50508088168689168111614119575050505061400e92614a7d565b925b839e838060608d015116975160020b985160020b9a848b5161403181612fdb565b8981520194338652828c519951169089015251168987015251166060850152511660808301526080825261406482613047565b84519586948594633c8a7d8d60e01b86526004860152602485015260448401526001600160801b031660648301526084820160a0905260a482016140a791612eb7565b038189885af19485156141105786956140e9575b505061369b908486610100830151111591826140d9575b5050613180565b61012001511115905038806140d2565b61369b9650614105929550803d10610674576106668183613062565b9490949390386140bb565b513d87823e3d90fd5b8885929496939516116000146141645782916141399161413f9594614a7d565b94614a3a565b90506001600160801b03808216908316101561415d57505b92614010565b9050614157565b929350505061415792614a3a565b90965093503880613ff3565b61419891955060e03d60e0116127d6576127c28183613062565b5050505050509338613fb2565b8a513d8d823e3d90fd5b6000818152600260205260409020546001600160a01b03169081156120f0575090565b9293926001600160a01b037f00000000000000000000000000000000000000000000000000000000000000008116928183168414806143ba575b156142ea57505050803b156107fd57604051630d0e30db60e41b815293600091828660048185855af19586156127dd5761428395966142d8575b5060405163a9059cbb60e01b81526001600160a01b0390941660048501526024840191909152919290916020918491908290859082906044820190565b03925af180156142cb57614295575050565b6020823d6020116142c3575b816142ae60209383613062565b810103126104d757506142c09061315d565b50565b3d91506142a1565b50604051903d90823e3d90fd5b926142e4602094612fac565b92614246565b8192935095939495169030821460001461430a5750509161369b926143c4565b600094859485926040519260208401956323b872dd60e01b8752602485015216604483015260648201526064815261434181613047565b51925af161434d613816565b81614383575b5061369b5760405162461bcd60e51b815260206004820152600360248201526229aa2360e91b6044820152606490fd5b8051801592508215614398575b505038614353565b81925090602091810103126107fd5760206143b3910161315d565b3880614390565b508647101561420c565b60405163a9059cbb60e01b602082019081526001600160a01b039093166024820152604481019390935260009283929083906144038160648101613b5f565b51925af161440f613816565b81614447575b501561441d57565b60405162461bcd60e51b815260206004820152600260248201526114d560f21b6044820152606490fd5b805180159250821561445c575b505038614415565b81925090602091810103126107fd576020614477910161315d565b3880614454565b90916001600160a01b039081161515806144fd575b156118b9576000838152600c6020526040902080546001600160601b0316606084901b6bffffffffffffffffffffffff1916179055806144d2846141af565b169116907f8c5be1e5ebec7d5bd14f71427d1e84f3dd0314c0f7b2291e5b200ac8c7c3b925600080a4565b506000614493565b60020b6000811215614a1b5761451a81613be9565b620d89e881116149f25760018116156149e0576001600160881b036ffffcb933bd6fad37aa2d162d1a5940015b1691600282166149b4575b600491828116614988575b6008811661495c575b60108116614930575b60208116614904575b604081166148d8575b6080908181166148ad575b6101008116614882575b6102008116614857575b610400811661482c575b6108008116614801575b61100081166147d6575b61200081166147ab575b6140008116614780575b6180008116614755575b62010000811661472a575b620200008116614700575b6204000081166146c2575b6208000016614683575b5060001261465d575b63ffffffff8260201c9216156000146146545760ff60005b16820180921161463f57506001600160a01b031690565b601190634e487b7160e01b6000525260246000fd5b60ff6001614628565b90801561466e576000190490614610565b601282634e487b7160e01b6000525260246000fd5b6b048a170391f7dc42444e8fa2939193918281029281840414901517156146ad571c916000614607565b601183634e487b7160e01b6000525260246000fd5b936d2216e584f5fa1ea926041bedfe98908181029181830414901517156146eb57811c936145fd565b601184634e487b7160e01b6000525260246000fd5b936e5d6af8dedb81196699c329225ee604908181029181830414901517156146eb57811c936145f2565b936f09aa508b5b7a84e1c677de54f3e99bc9908181029181830414901517156146eb57811c936145e7565b936f31be135f97d08fd981231505542fcfa6908181029181830414901517156146eb57811c936145dc565b936f70d869a156d2a1b890bb3df62baf32f7908181029181830414901517156146eb57811c936145d2565b936fa9f746462d870fdf8a65dc1f90e061e5908181029181830414901517156146eb57811c936145c8565b936fd097f3bdfd2022b8845ad8f792aa5825908181029181830414901517156146eb57811c936145be565b936fe7159475a2c29b7443b29c7fa6e889d9908181029181830414901517156146eb57811c936145b4565b936ff3392b0822b70005940c7a398e4b70f3908181029181830414901517156146eb57811c936145aa565b936ff987a7253ac413176f2b074cf7815e54908181029181830414901517156146eb57811c936145a0565b936ffcbe86c7900a88aedcffc83b479aa3a4908181029181830414901517156146eb57811c93614596565b936ffe5dee046a99a2a811c461f1969c3053908181029181830414901517156146eb57811c9361458c565b926fff2ea16466c96a3843ec78b326b52861908181029181830414901517156146ad5760801c92614581565b926fff973b41fa98c081472e6896dfb254c0908181029181830414901517156146ad5760801c92614578565b926fffcb9843d60f6159c9db58835c926644908181029181830414901517156146ad5760801c9261456f565b926fffe5caca7e10e4e61c3624eaa0941cd0908181029181830414901517156146ad5760801c92614566565b926ffff2e50f5f656932ef12357cf3c7fdcc908181029181830414901517156146ad5760801c9261455d565b916ffff97272373d413259a46990580e213a908181029181830414901517156117ed5760801c91614552565b6001600160881b03600160801b614547565b60405162461bcd60e51b81526020600482015260016024820152601560fa1b6044820152606490fd5b8061451a565b6001600160a01b0391821690821603919082116117ed57565b614a6392916001600160a01b0391614a5c9183811684831611614a7757614a21565b1690613c79565b6001600160801b0381169081036107fd5790565b90614a21565b614a639291906001600160a01b039081831682821611614ab7575b614ab090614aaa838516848316613dc7565b93614a21565b1691613e25565b91614a9856fea26469706673582212207f29f2e2d153d9fa4f02004e90550ef224df1537deb48c451db7bfe78f61ed6a64736f6c63430008180033290decd9548b62a8d60345a988386fc84ba6bc95484008f6362f93160ef3e563b10e2d527612073b26eecdfd717e6a320cf44b4afac2b0732d9fcbe2b7fa0cf6",
    "linkReferences": {}
  },
  "methodIdentifiers": {
    "DOMAIN_SEPARATOR()": "3644e515",
    "PERMIT_TYPEHASH()": "30adf81f",
    "WETH9()": "4aa4a4fc",
    "approve(address,uint256)": "095ea7b3",
    "balanceOf(address)": "70a08231",
    "baseURI()": "6c0360eb",
    "burn(uint256)": "42966c68",
    "collect((uint256,address,uint128,uint128))": "fc6f7865",
    "createAndInitializePoolIfNecessary(address,address,uint24,uint160)": "13ead562",
    "decreaseLiquidity((uint256,uint128,uint256,uint256,uint256))": "0c49ccbe",
    "factory()": "c45a0155",
    "getApproved(uint256)": "081812fc",
    "increaseLiquidity((uint256,uint256,uint256,uint256,uint256,uint256))": "219f5d17",
    "isApprovedForAll(address,address)": "e985e9c5",
    "isContract(address)": "16279055",
    "mint((address,address,uint24,int24,int24,uint256,uint256,uint256,uint256,address,uint256))": "88316456",
    "multicall(bytes[])": "ac9650d8",
    "name()": "06fdde03",
    "ownerOf(uint256)": "6352211e",
    "permit(address,uint256,uint256,uint8,bytes32,bytes32)": "7ac2ff7b",
    "positions(uint256)": "99fbab88",
    "refundETH()": "12210e8a",
    "safeTransferFrom(address,address,uint256)": "42842e0e",
    "safeTransferFrom(address,address,uint256,bytes)": "b88d4fde",
    "selfPermit(address,uint256,uint256,uint8,bytes32,bytes32)": "f3995c67",
    "selfPermitAllowed(address,uint256,uint256,uint8,bytes32,bytes32)": "4659a494",
    "selfPermitAllowedIfNecessary(address,uint256,uint256,uint8,bytes32,bytes32)": "a4a78f0c",
    "selfPermitIfNecessary(address,uint256,uint256,uint8,bytes32,bytes32)": "c2e3140a",
    "setApprovalForAll(address,bool)": "a22cb465",
    "supportsInterface(bytes4)": "01ffc9a7",
    "sweepToken(address,uint256,address)": "df2ab5bb",
    "symbol()": "95d89b41",
    "tokenByIndex(uint256)": "4f6ccce7",
    "tokenOfOwnerByIndex(address,uint256)": "2f745c59",
    "tokenURI(uint256)": "c87b56dd",
    "totalSupply()": "18160ddd",
    "transferFrom(address,address,uint256)": "23b872dd",
    "uniswapV3MintCallback(uint256,uint256,bytes)": "d3487997",
    "unwrapWETH9(uint256,address)": "49404b7c"
  },
  "id": 83
}