{
  "abi": [
    {
      "type": "constructor",
      "inputs": [
        {
          "name": "_factory",
          "type": "address",
          "internalType": "address"
        },
        {
          "name": "_WETH9",
          "type": "address",
          "internalType": "address"
        },
        {
          "name": "_tokenDescriptor_",
          "type": "address",
          "internalType": "address"
        },
        {
          "name": "_nftTimelock_",
          "type": "address",
          "internalType": "address"
        }
      ],
      "stateMutability": "nonpayable"
    },
    {
      "type": "receive",
      "stateMutability": "payable"
    },
    {
      "type": "function",
      "name": "DOMAIN_SEPARATOR",
      "inputs": [],
      "outputs": [
        {
          "name": "",
          "type": "bytes32",
          "internalType": "bytes32"
        }
      ],
      "stateMutability": "view"
    },
    {
      "type": "function",
      "name": "PERMIT_TYPEHASH",
      "inputs": [],
      "outputs": [
        {
          "name": "",
          "type": "bytes32",
          "internalType": "bytes32"
        }
      ],
      "stateMutability": "view"
    },
    {
      "type": "function",
      "name": "WETH9",
      "inputs": [],
      "outputs": [
        {
          "name": "",
          "type": "address",
          "internalType": "address"
        }
      ],
      "stateMutability": "view"
    },
    {
      "type": "function",
      "name": "approve",
      "inputs": [
        {
          "name": "to",
          "type": "address",
          "internalType": "address"
        },
        {
          "name": "tokenId",
          "type": "uint256",
          "internalType": "uint256"
        }
      ],
      "outputs": [],
      "stateMutability": "nonpayable"
    },
    {
      "type": "function",
      "name": "balanceOf",
      "inputs": [
        {
          "name": "owner",
          "type": "address",
          "internalType": "address"
        }
      ],
      "outputs": [
        {
          "name": "",
          "type": "uint256",
          "internalType": "uint256"
        }
      ],
      "stateMutability": "view"
    },
    {
      "type": "function",
      "name": "baseURI",
      "inputs": [],
      "outputs": [
        {
          "name": "",
          "type": "string",
          "internalType": "string"
        }
      ],
      "stateMutability": "pure"
    },
    {
      "type": "function",
      "name": "burn",
      "inputs": [
        {
          "name": "tokenId",
          "type": "uint256",
          "internalType": "uint256"
        }
      ],
      "outputs": [],
      "stateMutability": "payable"
    },
    {
      "type": "function",
      "name": "collect",
      "inputs": [
        {
          "name": "params",
          "type": "tuple",
          "internalType": "struct INonfungiblePositionManager.CollectParams",
          "components": [
            {
              "name": "tokenId",
              "type": "uint256",
              "internalType": "uint256"
            },
            {
              "name": "recipient",
              "type": "address",
              "internalType": "address"
            },
            {
              "name": "amount0Max",
              "type": "uint128",
              "internalType": "uint128"
            },
            {
              "name": "amount1Max",
              "type": "uint128",
              "internalType": "uint128"
            }
          ]
        }
      ],
      "outputs": [
        {
          "name": "amount0",
          "type": "uint256",
          "internalType": "uint256"
        },
        {
          "name": "amount1",
          "type": "uint256",
          "internalType": "uint256"
        }
      ],
      "stateMutability": "payable"
    },
    {
      "type": "function",
      "name": "createAndInitializePoolIfNecessary",
      "inputs": [
        {
          "name": "token0",
          "type": "address",
          "internalType": "address"
        },
        {
          "name": "token1",
          "type": "address",
          "internalType": "address"
        },
        {
          "name": "fee",
          "type": "uint24",
          "internalType": "uint24"
        },
        {
          "name": "sqrtPriceX96",
          "type": "uint160",
          "internalType": "uint160"
        },
        {
          "name": "isKitchen",
          "type": "bool",
          "internalType": "bool"
        }
      ],
      "outputs": [
        {
          "name": "pool",
          "type": "address",
          "internalType": "address"
        }
      ],
      "stateMutability": "payable"
    },
    {
      "type": "function",
      "name": "decreaseLiquidity",
      "inputs": [
        {
          "name": "params",
          "type": "tuple",
          "internalType": "struct INonfungiblePositionManager.DecreaseLiquidityParams",
          "components": [
            {
              "name": "tokenId",
              "type": "uint256",
              "internalType": "uint256"
            },
            {
              "name": "liquidity",
              "type": "uint128",
              "internalType": "uint128"
            },
            {
              "name": "amount0Min",
              "type": "uint256",
              "internalType": "uint256"
            },
            {
              "name": "amount1Min",
              "type": "uint256",
              "internalType": "uint256"
            },
            {
              "name": "deadline",
              "type": "uint256",
              "internalType": "uint256"
            }
          ]
        }
      ],
      "outputs": [
        {
          "name": "amount0",
          "type": "uint256",
          "internalType": "uint256"
        },
        {
          "name": "amount1",
          "type": "uint256",
          "internalType": "uint256"
        }
      ],
      "stateMutability": "payable"
    },
    {
      "type": "function",
      "name": "factory",
      "inputs": [],
      "outputs": [
        {
          "name": "",
          "type": "address",
          "internalType": "address"
        }
      ],
      "stateMutability": "view"
    },
    {
      "type": "function",
      "name": "getApproved",
      "inputs": [
        {
          "name": "tokenId",
          "type": "uint256",
          "internalType": "uint256"
        }
      ],
      "outputs": [
        {
          "name": "",
          "type": "address",
          "internalType": "address"
        }
      ],
      "stateMutability": "view"
    },
    {
      "type": "function",
      "name": "increaseLiquidity",
      "inputs": [
        {
          "name": "params",
          "type": "tuple",
          "internalType": "struct INonfungiblePositionManager.IncreaseLiquidityParams",
          "components": [
            {
              "name": "tokenId",
              "type": "uint256",
              "internalType": "uint256"
            },
            {
              "name": "amount0Desired",
              "type": "uint256",
              "internalType": "uint256"
            },
            {
              "name": "amount1Desired",
              "type": "uint256",
              "internalType": "uint256"
            },
            {
              "name": "amount0Min",
              "type": "uint256",
              "internalType": "uint256"
            },
            {
              "name": "amount1Min",
              "type": "uint256",
              "internalType": "uint256"
            },
            {
              "name": "deadline",
              "type": "uint256",
              "internalType": "uint256"
            }
          ]
        }
      ],
      "outputs": [
        {
          "name": "liquidity",
          "type": "uint128",
          "internalType": "uint128"
        },
        {
          "name": "amount0",
          "type": "uint256",
          "internalType": "uint256"
        },
        {
          "name": "amount1",
          "type": "uint256",
          "internalType": "uint256"
        }
      ],
      "stateMutability": "payable"
    },
    {
      "type": "function",
      "name": "isApprovedForAll",
      "inputs": [
        {
          "name": "owner",
          "type": "address",
          "internalType": "address"
        },
        {
          "name": "operator",
          "type": "address",
          "internalType": "address"
        }
      ],
      "outputs": [
        {
          "name": "",
          "type": "bool",
          "internalType": "bool"
        }
      ],
      "stateMutability": "view"
    },
    {
      "type": "function",
      "name": "isContract",
      "inputs": [
        {
          "name": "account",
          "type": "address",
          "internalType": "address"
        }
      ],
      "outputs": [
        {
          "name": "",
          "type": "bool",
          "internalType": "bool"
        }
      ],
      "stateMutability": "view"
    },
    {
      "type": "function",
      "name": "mint",
      "inputs": [
        {
          "name": "params",
          "type": "tuple",
          "internalType": "struct INonfungiblePositionManager.MintParams",
          "components": [
            {
              "name": "token0",
              "type": "address",
              "internalType": "address"
            },
            {
              "name": "token1",
              "type": "address",
              "internalType": "address"
            },
            {
              "name": "fee",
              "type": "uint24",
              "internalType": "uint24"
            },
            {
              "name": "tickLower",
              "type": "int24",
              "internalType": "int24"
            },
            {
              "name": "tickUpper",
              "type": "int24",
              "internalType": "int24"
            },
            {
              "name": "amount0Desired",
              "type": "uint256",
              "internalType": "uint256"
            },
            {
              "name": "amount1Desired",
              "type": "uint256",
              "internalType": "uint256"
            },
            {
              "name": "amount0Min",
              "type": "uint256",
              "internalType": "uint256"
            },
            {
              "name": "amount1Min",
              "type": "uint256",
              "internalType": "uint256"
            },
            {
              "name": "recipient",
              "type": "address",
              "internalType": "address"
            },
            {
              "name": "deadline",
              "type": "uint256",
              "internalType": "uint256"
            }
          ]
        }
      ],
      "outputs": [
        {
          "name": "tokenId",
          "type": "uint256",
          "internalType": "uint256"
        },
        {
          "name": "liquidity",
          "type": "uint128",
          "internalType": "uint128"
        },
        {
          "name": "amount0",
          "type": "uint256",
          "internalType": "uint256"
        },
        {
          "name": "amount1",
          "type": "uint256",
          "internalType": "uint256"
        }
      ],
      "stateMutability": "payable"
    },
    {
      "type": "function",
      "name": "multicall",
      "inputs": [
        {
          "name": "data",
          "type": "bytes[]",
          "internalType": "bytes[]"
        }
      ],
      "outputs": [
        {
          "name": "results",
          "type": "bytes[]",
          "internalType": "bytes[]"
        }
      ],
      "stateMutability": "payable"
    },
    {
      "type": "function",
      "name": "name",
      "inputs": [],
      "outputs": [
        {
          "name": "",
          "type": "string",
          "internalType": "string"
        }
      ],
      "stateMutability": "view"
    },
    {
      "type": "function",
      "name": "ownerOf",
      "inputs": [
        {
          "name": "tokenId",
          "type": "uint256",
          "internalType": "uint256"
        }
      ],
      "outputs": [
        {
          "name": "",
          "type": "address",
          "internalType": "address"
        }
      ],
      "stateMutability": "view"
    },
    {
      "type": "function",
      "name": "permit",
      "inputs": [
        {
          "name": "spender",
          "type": "address",
          "internalType": "address"
        },
        {
          "name": "tokenId",
          "type": "uint256",
          "internalType": "uint256"
        },
        {
          "name": "deadline",
          "type": "uint256",
          "internalType": "uint256"
        },
        {
          "name": "v",
          "type": "uint8",
          "internalType": "uint8"
        },
        {
          "name": "r",
          "type": "bytes32",
          "internalType": "bytes32"
        },
        {
          "name": "s",
          "type": "bytes32",
          "internalType": "bytes32"
        }
      ],
      "outputs": [],
      "stateMutability": "payable"
    },
    {
      "type": "function",
      "name": "positions",
      "inputs": [
        {
          "name": "tokenId",
          "type": "uint256",
          "internalType": "uint256"
        }
      ],
      "outputs": [
        {
          "name": "nonce",
          "type": "uint96",
          "internalType": "uint96"
        },
        {
          "name": "operator",
          "type": "address",
          "internalType": "address"
        },
        {
          "name": "token0",
          "type": "address",
          "internalType": "address"
        },
        {
          "name": "token1",
          "type": "address",
          "internalType": "address"
        },
        {
          "name": "fee",
          "type": "uint24",
          "internalType": "uint24"
        },
        {
          "name": "tickLower",
          "type": "int24",
          "internalType": "int24"
        },
        {
          "name": "tickUpper",
          "type": "int24",
          "internalType": "int24"
        },
        {
          "name": "liquidity",
          "type": "uint128",
          "internalType": "uint128"
        },
        {
          "name": "feeGrowthInside0LastX128",
          "type": "uint256",
          "internalType": "uint256"
        },
        {
          "name": "feeGrowthInside1LastX128",
          "type": "uint256",
          "internalType": "uint256"
        },
        {
          "name": "tokensOwed0",
          "type": "uint128",
          "internalType": "uint128"
        },
        {
          "name": "tokensOwed1",
          "type": "uint128",
          "internalType": "uint128"
        }
      ],
      "stateMutability": "view"
    },
    {
      "type": "function",
      "name": "refundETH",
      "inputs": [],
      "outputs": [],
      "stateMutability": "payable"
    },
    {
      "type": "function",
      "name": "safeTransferFrom",
      "inputs": [
        {
          "name": "from",
          "type": "address",
          "internalType": "address"
        },
        {
          "name": "to",
          "type": "address",
          "internalType": "address"
        },
        {
          "name": "tokenId",
          "type": "uint256",
          "internalType": "uint256"
        }
      ],
      "outputs": [],
      "stateMutability": "nonpayable"
    },
    {
      "type": "function",
      "name": "safeTransferFrom",
      "inputs": [
        {
          "name": "from",
          "type": "address",
          "internalType": "address"
        },
        {
          "name": "to",
          "type": "address",
          "internalType": "address"
        },
        {
          "name": "tokenId",
          "type": "uint256",
          "internalType": "uint256"
        },
        {
          "name": "data",
          "type": "bytes",
          "internalType": "bytes"
        }
      ],
      "outputs": [],
      "stateMutability": "nonpayable"
    },
    {
      "type": "function",
      "name": "selfPermit",
      "inputs": [
        {
          "name": "token",
          "type": "address",
          "internalType": "address"
        },
        {
          "name": "value",
          "type": "uint256",
          "internalType": "uint256"
        },
        {
          "name": "deadline",
          "type": "uint256",
          "internalType": "uint256"
        },
        {
          "name": "v",
          "type": "uint8",
          "internalType": "uint8"
        },
        {
          "name": "r",
          "type": "bytes32",
          "internalType": "bytes32"
        },
        {
          "name": "s",
          "type": "bytes32",
          "internalType": "bytes32"
        }
      ],
      "outputs": [],
      "stateMutability": "payable"
    },
    {
      "type": "function",
      "name": "selfPermitAllowed",
      "inputs": [
        {
          "name": "token",
          "type": "address",
          "internalType": "address"
        },
        {
          "name": "nonce",
          "type": "uint256",
          "internalType": "uint256"
        },
        {
          "name": "expiry",
          "type": "uint256",
          "internalType": "uint256"
        },
        {
          "name": "v",
          "type": "uint8",
          "internalType": "uint8"
        },
        {
          "name": "r",
          "type": "bytes32",
          "internalType": "bytes32"
        },
        {
          "name": "s",
          "type": "bytes32",
          "internalType": "bytes32"
        }
      ],
      "outputs": [],
      "stateMutability": "payable"
    },
    {
      "type": "function",
      "name": "selfPermitAllowedIfNecessary",
      "inputs": [
        {
          "name": "token",
          "type": "address",
          "internalType": "address"
        },
        {
          "name": "nonce",
          "type": "uint256",
          "internalType": "uint256"
        },
        {
          "name": "expiry",
          "type": "uint256",
          "internalType": "uint256"
        },
        {
          "name": "v",
          "type": "uint8",
          "internalType": "uint8"
        },
        {
          "name": "r",
          "type": "bytes32",
          "internalType": "bytes32"
        },
        {
          "name": "s",
          "type": "bytes32",
          "internalType": "bytes32"
        }
      ],
      "outputs": [],
      "stateMutability": "payable"
    },
    {
      "type": "function",
      "name": "selfPermitIfNecessary",
      "inputs": [
        {
          "name": "token",
          "type": "address",
          "internalType": "address"
        },
        {
          "name": "value",
          "type": "uint256",
          "internalType": "uint256"
        },
        {
          "name": "deadline",
          "type": "uint256",
          "internalType": "uint256"
        },
        {
          "name": "v",
          "type": "uint8",
          "internalType": "uint8"
        },
        {
          "name": "r",
          "type": "bytes32",
          "internalType": "bytes32"
        },
        {
          "name": "s",
          "type": "bytes32",
          "internalType": "bytes32"
        }
      ],
      "outputs": [],
      "stateMutability": "payable"
    },
    {
      "type": "function",
      "name": "setApprovalForAll",
      "inputs": [
        {
          "name": "operator",
          "type": "address",
          "internalType": "address"
        },
        {
          "name": "approved",
          "type": "bool",
          "internalType": "bool"
        }
      ],
      "outputs": [],
      "stateMutability": "nonpayable"
    },
    {
      "type": "function",
      "name": "supportsInterface",
      "inputs": [
        {
          "name": "interfaceId",
          "type": "bytes4",
          "internalType": "bytes4"
        }
      ],
      "outputs": [
        {
          "name": "",
          "type": "bool",
          "internalType": "bool"
        }
      ],
      "stateMutability": "view"
    },
    {
      "type": "function",
      "name": "sweepToken",
      "inputs": [
        {
          "name": "token",
          "type": "address",
          "internalType": "address"
        },
        {
          "name": "amountMinimum",
          "type": "uint256",
          "internalType": "uint256"
        },
        {
          "name": "recipient",
          "type": "address",
          "internalType": "address"
        }
      ],
      "outputs": [],
      "stateMutability": "payable"
    },
    {
      "type": "function",
      "name": "symbol",
      "inputs": [],
      "outputs": [
        {
          "name": "",
          "type": "string",
          "internalType": "string"
        }
      ],
      "stateMutability": "view"
    },
    {
      "type": "function",
      "name": "tokenByIndex",
      "inputs": [
        {
          "name": "index",
          "type": "uint256",
          "internalType": "uint256"
        }
      ],
      "outputs": [
        {
          "name": "",
          "type": "uint256",
          "internalType": "uint256"
        }
      ],
      "stateMutability": "view"
    },
    {
      "type": "function",
      "name": "tokenOfOwnerByIndex",
      "inputs": [
        {
          "name": "owner",
          "type": "address",
          "internalType": "address"
        },
        {
          "name": "index",
          "type": "uint256",
          "internalType": "uint256"
        }
      ],
      "outputs": [
        {
          "name": "",
          "type": "uint256",
          "internalType": "uint256"
        }
      ],
      "stateMutability": "view"
    },
    {
      "type": "function",
      "name": "tokenURI",
      "inputs": [
        {
          "name": "tokenId",
          "type": "uint256",
          "internalType": "uint256"
        }
      ],
      "outputs": [
        {
          "name": "",
          "type": "string",
          "internalType": "string"
        }
      ],
      "stateMutability": "view"
    },
    {
      "type": "function",
      "name": "totalSupply",
      "inputs": [],
      "outputs": [
        {
          "name": "",
          "type": "uint256",
          "internalType": "uint256"
        }
      ],
      "stateMutability": "view"
    },
    {
      "type": "function",
      "name": "transferFrom",
      "inputs": [
        {
          "name": "from",
          "type": "address",
          "internalType": "address"
        },
        {
          "name": "to",
          "type": "address",
          "internalType": "address"
        },
        {
          "name": "tokenId",
          "type": "uint256",
          "internalType": "uint256"
        }
      ],
      "outputs": [],
      "stateMutability": "nonpayable"
    },
    {
      "type": "function",
      "name": "uniswapV3MintCallback",
      "inputs": [
        {
          "name": "amount0Owed",
          "type": "uint256",
          "internalType": "uint256"
        },
        {
          "name": "amount1Owed",
          "type": "uint256",
          "internalType": "uint256"
        },
        {
          "name": "data",
          "type": "bytes",
          "internalType": "bytes"
        }
      ],
      "outputs": [],
      "stateMutability": "nonpayable"
    },
    {
      "type": "function",
      "name": "unwrapWETH9",
      "inputs": [
        {
          "name": "amountMinimum",
          "type": "uint256",
          "internalType": "uint256"
        },
        {
          "name": "recipient",
          "type": "address",
          "internalType": "address"
        }
      ],
      "outputs": [],
      "stateMutability": "payable"
    },
    {
      "type": "event",
      "name": "Approval",
      "inputs": [
        {
          "name": "owner",
          "type": "address",
          "indexed": true,
          "internalType": "address"
        },
        {
          "name": "approved",
          "type": "address",
          "indexed": true,
          "internalType": "address"
        },
        {
          "name": "tokenId",
          "type": "uint256",
          "indexed": true,
          "internalType": "uint256"
        }
      ],
      "anonymous": false
    },
    {
      "type": "event",
      "name": "ApprovalForAll",
      "inputs": [
        {
          "name": "owner",
          "type": "address",
          "indexed": true,
          "internalType": "address"
        },
        {
          "name": "operator",
          "type": "address",
          "indexed": true,
          "internalType": "address"
        },
        {
          "name": "approved",
          "type": "bool",
          "indexed": false,
          "internalType": "bool"
        }
      ],
      "anonymous": false
    },
    {
      "type": "event",
      "name": "Collect",
      "inputs": [
        {
          "name": "tokenId",
          "type": "uint256",
          "indexed": true,
          "internalType": "uint256"
        },
        {
          "name": "recipient",
          "type": "address",
          "indexed": false,
          "internalType": "address"
        },
        {
          "name": "amount0",
          "type": "uint256",
          "indexed": false,
          "internalType": "uint256"
        },
        {
          "name": "amount1",
          "type": "uint256",
          "indexed": false,
          "internalType": "uint256"
        }
      ],
      "anonymous": false
    },
    {
      "type": "event",
      "name": "DecreaseLiquidity",
      "inputs": [
        {
          "name": "tokenId",
          "type": "uint256",
          "indexed": true,
          "internalType": "uint256"
        },
        {
          "name": "liquidity",
          "type": "uint128",
          "indexed": false,
          "internalType": "uint128"
        },
        {
          "name": "amount0",
          "type": "uint256",
          "indexed": false,
          "internalType": "uint256"
        },
        {
          "name": "amount1",
          "type": "uint256",
          "indexed": false,
          "internalType": "uint256"
        }
      ],
      "anonymous": false
    },
    {
      "type": "event",
      "name": "IncreaseLiquidity",
      "inputs": [
        {
          "name": "tokenId",
          "type": "uint256",
          "indexed": true,
          "internalType": "uint256"
        },
        {
          "name": "liquidity",
          "type": "uint128",
          "indexed": false,
          "internalType": "uint128"
        },
        {
          "name": "amount0",
          "type": "uint256",
          "indexed": false,
          "internalType": "uint256"
        },
        {
          "name": "amount1",
          "type": "uint256",
          "indexed": false,
          "internalType": "uint256"
        }
      ],
      "anonymous": false
    },
    {
      "type": "event",
      "name": "Transfer",
      "inputs": [
        {
          "name": "from",
          "type": "address",
          "indexed": true,
          "internalType": "address"
        },
        {
          "name": "to",
          "type": "address",
          "indexed": true,
          "internalType": "address"
        },
        {
          "name": "tokenId",
          "type": "uint256",
          "indexed": true,
          "internalType": "uint256"
        }
      ],
      "anonymous": false
    },
    {
      "type": "error",
      "name": "ERC721IncorrectOwner",
      "inputs": [
        {
          "name": "sender",
          "type": "address",
          "internalType": "address"
        },
        {
          "name": "tokenId",
          "type": "uint256",
          "internalType": "uint256"
        },
        {
          "name": "owner",
          "type": "address",
          "internalType": "address"
        }
      ]
    },
    {
      "type": "error",
      "name": "ERC721InsufficientApproval",
      "inputs": [
        {
          "name": "operator",
          "type": "address",
          "internalType": "address"
        },
        {
          "name": "tokenId",
          "type": "uint256",
          "internalType": "uint256"
        }
      ]
    },
    {
      "type": "error",
      "name": "ERC721InvalidApprover",
      "inputs": [
        {
          "name": "approver",
          "type": "address",
          "internalType": "address"
        }
      ]
    },
    {
      "type": "error",
      "name": "ERC721InvalidOperator",
      "inputs": [
        {
          "name": "operator",
          "type": "address",
          "internalType": "address"
        }
      ]
    },
    {
      "type": "error",
      "name": "ERC721InvalidOwner",
      "inputs": [
        {
          "name": "owner",
          "type": "address",
          "internalType": "address"
        }
      ]
    },
    {
      "type": "error",
      "name": "ERC721InvalidReceiver",
      "inputs": [
        {
          "name": "receiver",
          "type": "address",
          "internalType": "address"
        }
      ]
    },
    {
      "type": "error",
      "name": "ERC721InvalidSender",
      "inputs": [
        {
          "name": "sender",
          "type": "address",
          "internalType": "address"
        }
      ]
    },
    {
      "type": "error",
      "name": "ERC721NonexistentToken",
      "inputs": [
        {
          "name": "tokenId",
          "type": "uint256",
          "internalType": "uint256"
        }
      ]
    }
  ],
  "bytecode": {
    "object": "0x610120346200052157601f62004f7e38819003918201601f19168301916001600160401b038311848410176200042f5780849260809460405283398101031262000521576200004e8162000545565b6200005c6020830162000545565b620000786060620000706040860162000545565b940162000545565b916200008362000525565b601b81527f556e697377617020563320506f736974696f6e73204e46542d563100000000006020820152620000b762000525565b90600a825269554e492d56332d504f5360b01b6020830152620000d962000525565b60018152603160f81b602082015281519092906001600160401b0381116200042f575f54600181811c9116801562000516575b60208210146200041057601f8111620004c1575b50806020601f82116001146200044f575f9162000443575b508160011b915f199060031b1c1916175f555b8051906001600160401b0382116200042f5760015490600182811c9216801562000424575b6020831014620004105781601f849311620003af575b50602090601f831160011462000338575f926200032c575b50508160011b915f199060031b1c1916176001555b8051602091820120608052815191012060a05260c05260e0527601000000000000000000000000000000000000000000016009556001600160a01b03908116908115620002e757821615620002a357600a80546001600160a01b0319169190911790556101009081526040516149e391826200055b833960805182613af5015260a05182613b1b015260c0518281816102f8015281816108e601528181610a5301528181611a1e01528181611ab5015281816129d30152613c98015260e051828181601c015281816112810152818161205e015281816120b7015281816125240152614445015251816109b50152f35b606460405162461bcd60e51b815260206004820152602060248201527f546f6b656e2044657363726970746f722061646472657373206973207a65726f6044820152fd5b60405162461bcd60e51b815260206004820152601c60248201527f4e46542054696d656c6f636b2061646472657373206973207a65726f000000006044820152606490fd5b015190505f806200019e565b60015f9081525f8051602062004f5e8339815191529350601f198516905b8181106200039657509084600195949392106200037d575b505050811b01600155620001b3565b01515f1960f88460031b161c191690555f80806200036e565b9293602060018192878601518155019501930162000356565b60015f529091505f8051602062004f5e833981519152601f840160051c8101916020851062000405575b90601f859493920160051c01905b818110620003f6575062000186565b5f8155849350600101620003e7565b9091508190620003d9565b634e487b7160e01b5f52602260045260245ffd5b91607f169162000170565b634e487b7160e01b5f52604160045260245ffd5b90508301515f62000138565b5f8080525f8051602062004f3e8339815191529250601f198416905b818110620004a8575090836001949392106200048f575b5050811b015f556200014b565b8501515f1960f88460031b161c191690555f8062000482565b9192602060018192868a0151815501940192016200046b565b5f80525f8051602062004f3e833981519152601f830160051c810191602084106200050b575b601f0160051c01905b818110620004ff575062000120565b5f8155600101620004f0565b9091508190620004e7565b90607f16906200010c565b5f80fd5b60408051919082016001600160401b038111838210176200042f57604052565b51906001600160a01b0382168203620005215756fe608080604052600436101561007d575b50361561001a575f80fd5b7f00000000000000000000000000000000000000000000000000000000000000006001600160a01b0316330361004c57005b60405162461bcd60e51b81526020600482015260096024820152684e6f7420574554483960b81b6044820152606490fd5b5f90813560e01c90816301ffc9a714612ef95750806306fdde0314612e39578063081812fc14612d95578063095ea7b314612d6d5780630c49ccbe1461291957806312210e8a146128fb57806316279055146128cd57806318160ddd146128b1578063219f5d171461241e57806323b872dd146124065780632f745c59146123e057806330adf81f146123a55780633644e5151461238257806342842e0e1461235a57806342966c68146121e65780634659a494146121cd57806349404b7c1461208d5780634aa4a4fc146120485780634f6ccce71461202b5780636352211e1461200c5780636c0360eb14611fb057806370a0823114611f585780637ac2ff7b14611c7c5780637dbeb4c41461197e57806388316456146111b657806395d89b41146110aa57806399fbab8814610ec8578063a22cb46514610e25578063a4a78f0c14610d96578063ac9650d814610bb5578063b88d4fde14610b28578063c2e3140a14610a82578063c45a015514610a3d578063c87b56dd14610962578063d34879971461080e578063df2ab5bb14610718578063e985e9c5146106c6578063f3995c67146106aa5763fc6f78650361000f5760803660031901126104d55761025361024e60043533336133c9565b613948565b6001600160801b03610263613999565b1615801590610691575b156104d5576001600160a01b03610282613514565b166106835730905b6004358152600860205260408120916001830154926001600160501b038416835260076020526040832062ffffff6001604051926102c784613061565b818060a01b038154168452015460018060a01b038116602084015260a01c16604082015261031c60018060a01b03917f00000000000000000000000000000000000000000000000000000000000000006147a1565b1660048201546001600160801b038116908060801c968060801c610506575b5050610345613999565b6001600160801b03828116911611156104f85780925b6103636139af565b6001600160801b03888116911611156104eb57865b600182015494604051966309e3d67b60e31b885260018060a01b0316958660048901528060501c60020b602489015260681c60020b60448801526001600160801b0381169384606489015260408860a4818c6001600160801b0388169a8b60848401525af19788156104e057898099610486575b50506040996104356104186001600160801b039a99989796956104126004968d96613a2b565b93613a2b565b848601906001600160801b0382549181199060801b169116179055565b16871982840154161791015586519283526020830152858201527f40d0efd1a53d60ecbf40971b9daf7dc90178c3aadc7aab1765632738fa8b8f01606060043592a281845193168352166020820152f35b919796959493985098506040893d6040116104d8575b816104a960409383613146565b810103126104d557506104bb8861362e565b976020016104c89061362e565b9691929394955f806103ec565b80fd5b3d915061049c565b6040513d8b823e3d90fd5b6104f36139af565b610378565b610500613999565b9261035b565b915095506040519063a34123a760e01b82528060501c60020b600483015260681c60020b602482015284604482015260408160648188865af180156106785761064a575b506001820154946105688660681c60020b8760501c60020b3061486c565b956040519663514ea4bf60e01b8852600488015260a087602481865afa90811561063f5786978792610607575b5060028501976105fd6105d26001600160801b036105c26105b78d54866136dc565b9560801c8096613714565b166001600160801b0387166136e9565b946001600160801b036105f360038a01956105ee8754896136dc565b613714565b169060801c6136e9565b9855555f8061033b565b90975061062b915060a03d8111610638575b6106238183613146565b810190613642565b505097915096905f610595565b503d610619565b6040513d88823e3d90fd5b61066b9060403d604011610671575b6106638183613146565b8101906139d2565b5061054a565b503d610659565b6040513d87823e3d90fd5b61068b613514565b9061028a565b506001600160801b036106a26139af565b16151561026d565b506106c36106b736613021565b94939093929192614619565b80f35b50346104d55760403660031901126104d5576106e0612fac565b60406106ea612fc2565b9260018060a01b03809316815260056020522091165f52602052602060ff60405f2054166040519015158152f35b5060603660031901126104d55761072d612fac565b6001600160a01b0360443581811681036107f7576020602492604051938480926370a0823160e01b825230600483015287165afa9182156108035784926107cc575b5060243582106107925781610782578380f35b61078b926148a3565b5f80808380f35b60405162461bcd60e51b815260206004820152601260248201527124b739bab33334b1b4b2b73a103a37b5b2b760711b6044820152606490fd5b9091506020813d82116107fb575b816107e760209383613146565b810103126107f75751905f61076f565b5f80fd5b3d91506107da565b6040513d86823e3d90fd5b50346104d55760603660031901126104d5576044356024356004356001600160401b0380841161095e573660238501121561095e57836004013590811161095e57830136602482011161095e57839003926080841261095e57606060405194610876866130bf565b1261095e576040519161088883613061565b61089460248301612fd8565b83526108a260448301612fd8565b602084015260648201359162ffffff831683036107f75760846108d19161090a94604087015285885201612fd8565b60208601908152926001600160a01b039283917f00000000000000000000000000000000000000000000000000000000000000006147a1565b16330361095a578061093f575b5082610921578480f35b8060206109379551015116903392511690614438565b5f8080808480f35b61095490828651511633908486511690614438565b5f610917565b8580fd5b8480fd5b50346104d55760203660031901126104d5576004355f818152600260205260409020546001600160a01b031615610a395760405163e9dc637560e01b8152306004820152602481019190915281816044817f00000000000000000000000000000000000000000000000000000000000000006001600160a01b03165afa908115610a2e5782610a079392610a0b575b5050604051918291602083526020830190612f87565b0390f35b610a2792503d8091833e610a1f8183613146565b81019061367e565b5f806109f1565b6040513d84823e3d90fd5b5080fd5b50346104d557806003193601126104d5576040517f00000000000000000000000000000000000000000000000000000000000000006001600160a01b03168152602090f35b50610a8c36613021565b604051636eb1769f60e11b81523360048201523060248201529094919391906020816044816001600160a01b038b165afa8015610b1d5782918991610ae9575b5010610ad6578680f35b610adf95614619565b5f80808080808680f35b9150506020813d8211610b15575b81610b0460209383613146565b810103126107f7578190515f610acc565b3d9150610af7565b6040513d8a823e3d90fd5b50346104d55760803660031901126104d557610b42612fac565b610b4a612fc2565b90606435906001600160401b038211610bb15736602383011215610bb15781600401359284610b7885613167565b93610b866040519586613146565b8585523660248783010111610a3957856106c3966024602093018388013785010152604435916132d0565b8380fd5b50602080600319360112610a39576004356001600160401b03928382116104d557366023830112156104d557816004013591848311610a3957602490600595368386891b84010111610bb157610c0c8592956143f9565b94610c1a6040519687613146565b828652610c26836143f9565b601f190187865b828110610d8657505050368190036042190190855b848110610ca9575050505050506040519280840190808552835180925280604083818801981b870101940192955b828710610c7d5785850386f35b909192938280610c99600193603f198a82030186528851612f87565b9601920196019592919092610c70565b85818b1b8301013583811215610d8257820186810135858111610d7e5760448092018136038113610d7a57818a92918392604051928392833781018381520390305af490610cf561348d565b9115610d355750610d06828a614410565b52610d118189614410565b505f198114610d2257600101610c42565b634e487b7160e01b875260116004528587fd5b81898c928a9451106104d55750610d5a8184806004610d76950151830101910161367e565b60405193849362461bcd60e51b85526004850152830190612f87565b0390fd5b8980fd5b8880fd5b8780fd5b6060898201830152899101610c2d565b50610da036613021565b604051636eb1769f60e11b81523360048201523060248201529094919391906020816044816001600160a01b038b165afa908115610b1d578891610df4575b505f1911610deb578680f35b610adf95614695565b90506020813d8211610e1d575b81610e0e60209383613146565b810103126107f757515f610ddf565b3d9150610e01565b50346104d55760403660031901126104d557610e3f612fac565b602435908115158092036107f7576001600160a01b0316908115610eaf57338352600560205260408320825f5260205260405f2060ff1981541660ff83161790556040519081527f17307eab39ab6107e8899845ad3d59bd9653f200f220920489ca2b5937696c3160203392a380f35b604051630b61174360e31b815260048101839052602490fd5b50346104d55760203660031901126104d55760043581526008602052604081206001600160501b0360405191610efd836130a3565b80546001600160601b038116845260601c6020840152600460018201549183831660408601528260501c60020b60608601528260681c60020b60808601528260801c60a0860152600281015460c0860152600381015460e086015201546001600160801b03811661010085015260801c6101208401521615611072576040610180926001600160501b03828401511681526007602052209060405190610fa282613061565b60018060a01b0392600184825416918285520154928484166020820152604062ffffff8560a01c169101526001600160601b03825116938060208401511693606084015160020b608085015160020b9062ffffff6001600160801b0360a0880151169360c08801519560e0890151976001600160801b03610120816101008d0151169b0151169a6040519c8d5260208d015260408c0152811660608b015260a01c16608089015260a088015260c087015260e0860152610100850152610120840152610140830152610160820152f35b60405162461bcd60e51b815260206004820152601060248201526f125b9d985b1a59081d1bdad95b88125160821b6044820152606490fd5b50346104d557806003193601126104d557604051908060019182549283811c928185169485156111ac575b60209586861081146111985785885287949392918790821561117657505060011461111d575b505061110992500383613146565b610a07604051928284938452830190612f87565b908592508082527fb10e2d527612073b26eecdfd717e6a320cf44b4afac2b0732d9fcbe2b7fa0cf65b85831061115e57505061110993508201015f806110fb565b80548389018501528794508693909201918101611146565b925093505061110994915060ff191682840152151560051b8201015f806110fb565b634e487b7160e01b83526022600452602483fd5b93607f16936110d5565b506101603660031901126104d5576111d3610144354211156134bc565b6112686111de6134fe565b6111e6613514565b6111ee613541565b62ffffff6111fa613553565b91611203613563565b9360405195611211876130a3565b6001600160a01b039081168752166020860152166040840152306060840152600290810b60808401520b60a082015260a43560c082015260c43560e082015260e43561010082015261010435610120820152613c4f565b926112749291926134fe565b6001600160a01b039081167f0000000000000000000000000000000000000000000000000000000000000000909116036118ea57600460206001600160a01b036112bc613514565b16604051928380926318160ddd60e01b82525afa90811561063f5786916118b8575b506102bc908181029181830414901517156118a4576103e861130691046101043510156135ab565b600954936001600160b01b03851660011480159061181d575b611328906135fc565b61133061352a565b6001600160b01b0386811614611809576001600160b01b031986166001600160b01b0387811660010116176009556001600160a01b038116156117f0576001600160b01b0386165f908152600260205260409020546001600160a01b0316806117bd576001600160a01b03919091165f818152600360209081526040808320805460010190556001600160b01b038a168084526002909252822080546001600160a01b0319168417905592907fddf252ad1be2c89b69c2b068fc378daa952ba7f163c4a11628f55a4df523b3ef9080a461141a61140b613553565b611413613563565b903061486c565b60405163514ea4bf60e01b8152600481019190915260a0816024816001600160a01b0386165afa9081156117b2578790889261178d575b5061145a6134fe565b9262ffffff611467613514565b61146f613541565b906040519661147d88613061565b60018060a01b0316875260018060a01b0316602087015216604085015260018060a01b038116895260066020526001600160501b0360408a2054169384156116ab575b5050916001600160801b03610120604060809a61163b958498976114e2613553565b6114ea613563565b906001600160501b038651996114ff8b6130a3565b868b528660208c015216868a015260020b606089015260020b8e88015285891660a088015260c087015260e086015280610100860152808386015260018060b01b038b168152600860205220926001600160601b038151166001600160601b031985541617845561159160018060a01b0360208301511685906001600160601b0382549181199060601b169116179055565b600460018501946115fa6001600160501b03604085015116968054606086015160501b90608087015160681b998919809b62ffffff60681b169362ffffff60501b16921617171781558660a0860151166001600160801b0382549181199060801b169116179055565b60c0830151600282015560e0830151600382015501938361010083015116908554161784550151166001600160801b0382549181199060801b169116179055565b604080516001600160801b0383168152602081018590529081018590526001600160b01b038616907f3067048beee31b25b2f1681f88dac838c8bba36af25bfb2b7cf7473a5847e35f90606090a2604080516001600160b01b039096168652911660208501528301526060820152f35b9093506009546001600160501b038160b01c14611779576001600160b01b03811660b091821c600181810190931b6001600160b01b031916919091176009556001600160a01b039586168b52600660209081526040808d20805469ffffffffffffffffffff191684179055828d5260078252808d20855181546001600160a01b031916908a161781559185015191909301805494909301516001600160b81b031990941696169590951760a09290921b62ffffff60a01b169190911790556001600160801b036101206114c0565b634e487b7160e01b8a52601160045260248afd5b90506117a8915060a03d60a011610638576106238183613146565b505091505f611451565b6040513d89823e3d90fd5b60405162461bcd60e51b815260206004820152600b60248201526a105d5d1a0811985a5b195960aa1b6044820152606490fd5b604051633250574960e11b815260048101889052602490fd5b634e487b7160e01b87526011600452602487fd5b50604051631abe729160e31b81526020816004816001600160a01b0386165afa80156117b257611328918891611875575b506001600160a01b0361185f61352a565b6001600160a01b0390921691161415905061131f565b611897915060203d60201161189d575b61188f8183613146565b8101906135dd565b5f61184e565b503d611885565b634e487b7160e01b86526011600452602486fd5b90506020813d6020116118e2575b816118d360209383613146565b810103126107f757515f6112de565b3d91506118c6565b600460206001600160a01b036118fe6134fe565b16604051928380926318160ddd60e01b82525afa90811561063f57869161194c575b506102bc908181029181830414901517156118a4576103e8611947910460e43510156135ab565b611306565b90506020813d602011611976575b8161196760209383613146565b810103126107f757515f611920565b3d915061195a565b5060a03660031901126104d557611993612fac565b9061199c612fc2565b9162ffffff60443516604435036107f7576064356001600160a01b0381168103611b645760843580151581036107f7576001600160a01b038581169084161015610bb157604051630b4c774160e11b81526001600160a01b038481166004830152861660248201526044803562ffffff169082015294602086806064810103817f00000000000000000000000000000000000000000000000000000000000000006001600160a01b03165afa958615610678578596611c5b575b506001600160a01b0386169586611b895750604051635a31811b60e01b81526001600160a01b03948516600482015290841660248201526044803562ffffff1690820152901515606482015292935083916020908490608490829086907f0000000000000000000000000000000000000000000000000000000000000000165af1928315610a2e578293611b68575b506001600160a01b038316803b15611b645760405163f637731d60e01b81526001600160a01b0390921660048301529091908290602490829084905af18015611b5957611b45575b50602091505b6040516001600160a01b039091168152f35b611b4f8391613090565b610a395781611b2d565b6040513d85823e3d90fd5b8280fd5b611b8291935060203d60201161189d5761188f8183613146565b915f611ae5565b9493505050604051633850c7bd60e01b815260e081600481885afa908115611b59578391611c26575b506001600160a01b031615611bcd575b505060209150611b33565b8382943b15611b645760405163f637731d60e01b81526001600160a01b0390921660048301529091908290602490829084905af18015611b5957611c12575b80611bc2565b611c1c8391613090565b610a395781611c0c565b611c48915060e03d60e011611c54575b611c408183613146565b810190613bde565b5050505050505f611bb2565b503d611c36565b611c7591965060203d60201161189d5761188f8183613146565b945f611a56565b50611c8636613021565b83949396959291964211611f2257611c9c613ac8565b968487526020926008845260408820988954996001600160601b039a8b81169b808d14611f0e5760018d0116906001600160601b031916179055604051858101907f49ecf333e5b8c95c40fdafc95c1ad136e8914a8fb55e9dc8bb01eaa83a2df9ad825260018060a01b03998a89169c8d60408401528a6060840152608083015260a082015260a08152611d2f816130f5565b519020604051908682019261190160f01b84526022830152604282015260428152611d5981613110565b51902092611d668761344b565b97808916809b14611eb957611d7a89613b99565b15611e3c5750604080518087019490945283015260f81b6001600160f81b0319166060820152604181529596611ddf968391611db582613110565b60405180809a8194630b135d3f60e11b978884526004840152604060248401526044830190612f87565b03915afa80156117b2576106c396611e0a938992611e0f575b50506001600160e01b03191614613b5e565b613a44565b611e2e9250803d10611e35575b611e268183613146565b81019061346d565b5f80611df8565b503d611e1c565b93608091869460ff8c9560405194855216868401526040830152606082015282805260015afa1561067857855116908115611e8157506106c39495611e0a9114613b5e565b6064906040519062461bcd60e51b825260048201526011602482015270496e76616c6964207369676e617475726560781b6044820152fd5b60405162461bcd60e51b815260048101879052602760248201527f4552433732315065726d69743a20617070726f76616c20746f2063757272656e6044820152663a1037bbb732b960c91b6064820152608490fd5b634e487b7160e01b8c52601160045260248cfd5b60405162461bcd60e51b815260206004820152600e60248201526d14195c9b5a5d08195e1c1a5c995960921b6044820152606490fd5b50346104d55760203660031901126104d5576001600160a01b03611f7a612fac565b168015611f97578160409160209352600383522054604051908152f35b6040516322718ad960e21b815260048101839052602490fd5b50346104d557806003193601126104d5576040516020808252816060519182818301525f5b838110611ff6575050815f6040809484010152601f80199101168101030190f35b6080810151858201604001528492508101611fd5565b50346104d55760203660031901126104d5576020611b3360043561344b565b50346104d55760203660031901126104d557602090604051908152f35b50346104d557806003193601126104d5576040517f00000000000000000000000000000000000000000000000000000000000000006001600160a01b03168152602090f35b5060403660031901126104d5576120a2612fc2565b6040516370a0823160e01b81523060048201527f00000000000000000000000000000000000000000000000000000000000000006001600160a01b0316602082602481845afa91821561080357849261219a575b5060043582106121605783908261210b575080f35b803b15610a3957818091602460405180948193632e1a7d4d60e01b83528860048401525af18015610a2e5761214c575b50506121469161495c565b5f808280f35b61215590613090565b611b6457825f61213b565b60405162461bcd60e51b8152602060048201526012602482015271496e73756666696369656e7420574554483960701b6044820152606490fd5b9091506020813d82116121c5575b816121b560209383613146565b810103126107f75751905f6120f6565b3d91506121a8565b506106c36121da36613021565b94939093929192614695565b50602080600319360112610a39576004359061220661024e8333336133c9565b8183526008815260408320600181015460801c159081612344575b81612334575b50156123025781835260088152826004604082208281558260018201558260028201558260038201550155815f526002815260018060a01b0360405f20541680159182156122d0575f84815260029091526040812080546001600160a01b031916905583917fddf252ad1be2c89b69c2b068fc378daa952ba7f163c4a11628f55a4df523b3ef8280a46122b8575080f35b60249060405190637e27328960e01b82526004820152fd5b6064906040519062461bcd60e51b82526004820152600b60248201526a105d5d1a0811985a5b195960aa1b6044820152fd5b6064906040519062461bcd60e51b82526004820152600b60248201526a139bdd0818db19585c995960aa1b6044820152fd5b60049150015460801c155f612227565b60048101546001600160801b0316159150612221565b50346104d5576106c361236c36612fec565b906040519261237a846130da565b8584526132d0565b50346104d557806003193601126104d557602061239d613ac8565b604051908152f35b50346104d557806003193601126104d55760206040517f49ecf333e5b8c95c40fdafc95c1ad136e8914a8fb55e9dc8bb01eaa83a2df9ad8152f35b50346104d55760403660031901126104d5576020906123fd612fac565b50604051908152f35b50346104d5576106c361241836612fec565b91613182565b5060c03660031901126104d557600460209161243e60a4354211156134bc565b8135815260088352604081206001810154916001600160501b03831681526007855261250a604082206040519461247486613061565b62ffffff6001808060a01b0384541693848952015460018060a01b0381168a890152818160a01c166040890152604051936124ae856130a3565b845260018060a01b0381168a85015260a01c1660408301523060608301528060501c60020b608083015260681c60020b60a082015260243560c082015260443560e0820152606435610100820152608435610120820152613c4f565b8651929893979196909391926001600160a01b03908116907f000000000000000000000000000000000000000000000000000000000000000016810361282f57508101516040516318160ddd60e01b815292839182906001600160a01b03165afa908115611b595783916127fd575b506102bc908181029181830414901517156127e9576103e86125a0910460843510156135ab565b6009546001600160b01b0316600114801590612783575b6125c0906135fc565b60018301549160a06125df8460681c60020b8560501c60020b3061486c565b60246040518095819363514ea4bf60e01b83526004830152600180861b03165afa918215612776579181610a079695936126e19593919261274e575b5061268891926126b160028601916126348354856136dc565b9060801c94859161264e6001600160801b03938492613714565b16916004890192816126648554928284166136e9565b16906001600160801b03191617908184556105f360038b01986105ee8a548c6136dc565b81546001600160801b031660809190911b6fffffffffffffffffffffffffffffffff1916179055565b555560016126c5868284015460801c6136e9565b9101906001600160801b0382549181199060801b169116179055565b604080516001600160801b038516815260208101869052908101829052600435907f3067048beee31b25b2f1681f88dac838c8bba36af25bfb2b7cf7473a5847e35f90606090a2604051938493846040919493926001600160801b03606083019616825260208201520152565b612688925061276b915060a03d8111610638576106238183613146565b50509150909161261b565b50604051903d90823e3d90fd5b50604051631abe729160e31b81526020816004816001600160a01b0386165afa908115611b5957906125c09184916127ca575b506001600160a01b031633141590506125b7565b6127e3915060203d60201161189d5761188f8183613146565b5f6127b6565b634e487b7160e01b83526011600452602483fd5b90506020813d602011612827575b8161281860209383613146565b810103126107f757515f612579565b3d915061280b565b6040516318160ddd60e01b8152938492509082905afa908115611b5957839161287f575b506102bc908181029181830414901517156127e9576103e861287a910460643510156135ab565b6125a0565b90506020813d6020116128a9575b8161289a60209383613146565b810103126107f757515f612853565b3d915061288d565b50346104d557806003193601126104d557602090604051908152f35b50346104d55760203660031901126104d55760206128f16128ec612fac565b613b99565b6040519015158152f35b50806003193601126104d5574761290f5780f35b6106c3473361495c565b5060a03660031901126104d55760043561293761024e8233336133c9565b6129456084354211156134bc565b6001600160801b0380612956613983565b1615611b64578183526020600881526040842092600184018054948560801c908561297f613983565b168210610d82576001600160501b036001971688526007855287604081206129f76040516129ac81613061565b62ffffff8b8060a01b039b848d80965416845201548481168b84015260a01c1660408201527f00000000000000000000000000000000000000000000000000000000000000006147a1565b169760018614612c26575b505082549686612a10613983565b6040519963a34123a760e01b8b528060501c60020b60048c015260681c60020b60248b01521660448901526040886064818c855af19687156104e05789988a98612bff575b5060443589101580612bf3575b612a6b906139e8565b60a0612a8686548060681c60020b9060501c60020b3061486c565b60246040518095819363514ea4bf60e01b835260048301525afa918215612be857918a61268894928a8c8860409f97612b479b9a989596612b9e575b5086612b2e612b3794612af48795868a99612aec612688988e9f60026105ee91019d8e54906136dc565b1691166136e9565b9480612aec8d6105ee6003600489019a85612b138d54928284166136e9565b16906001600160801b0319161798898c55019d8e54906136dc565b9060801c6136e9565b5555612b41613983565b90613a2b565b7f26f6a048ee9138f2c0ce266f322cb99228e8d619ae2bff30c67f8dcf9d2377b484612b71613983565b87516001600160801b03919091168152602081019190915260408101859052606090a28351928352820152f35b61268891965084955096612b2e612b3794612af48795612bce612aec9c60a03d8111610638576106238183613146565b50509a91509a8b9a9c975050509597505094505096612ac2565b6040513d8c823e3d90fd5b50606435881015612a62565b909750612c1c91985060403d604011610671576106638183613146565b979097965f612a55565b80600a5416604051632936dd9b60e11b81523360048201528881602481855afa908115610803578491612d38575b50612cc15750600a5416803b15610a3957818091608460405180948193630e4ca96160e41b83523360048401526201518060248401523060448401528b60648401525af18015610a2e57612cad575b50505b875f612a02565b612cb690613090565b610d8257875f612ca3565b809150989796983b15610a395781906004604051809481936386d1a69f60e01b83525af19081612d25575b50612d1c5760405162461bcd60e51b815260048101889052600360248201526213925360ea1b6044820152606490fd5b95939495612ca6565b612d3190999199613090565b975f612cec565b90508881813d8311612d66575b612d4f8183613146565b81010312610bb157612d60906139c5565b5f612c54565b503d612d45565b50346104d55760403660031901126104d5576106c3612d8a612fac565b339060243590613a44565b50346104d55760203660031901126104d5576004355f818152600260205260409020546001600160a01b031615612ddf57816040916020935260088352205460601c604051908152f35b60405162461bcd60e51b815260206004820152602c60248201527f4552433732313a20617070726f76656420717565727920666f72206e6f6e657860448201526b34b9ba32b73a103a37b5b2b760a11b6064820152608490fd5b50346104d557806003193601126104d5576040519080805491600183811c92818516948515612eef575b602095868610811461119857858852879493929187908215611176575050600114612e9657505061110992500383613146565b908592508180527f290decd9548b62a8d60345a988386fc84ba6bc95484008f6362f93160ef3e5635b858310612ed757505061110993508201015f806110fb565b80548389018501528794508693909201918101612ebf565b93607f1693612e63565b905034610a39576020366003190112610a395760043563ffffffff60e01b8116809103611b6457602092506380ac58cd60e01b8114908115612f55575b8115612f44575b5015158152f35b6301ffc9a760e01b1490505f612f3d565b635b5e139f60e01b81149150612f36565b5f5b838110612f775750505f910152565b8181015183820152602001612f68565b90602091612fa081518092818552858086019101612f66565b601f01601f1916010190565b600435906001600160a01b03821682036107f757565b602435906001600160a01b03821682036107f757565b35906001600160a01b03821682036107f757565b60609060031901126107f7576001600160a01b039060043582811681036107f7579160243590811681036107f7579060443590565b60c09060031901126107f7576004356001600160a01b03811681036107f75790602435906044359060643560ff811681036107f757906084359060a43590565b606081019081106001600160401b0382111761307c57604052565b634e487b7160e01b5f52604160045260245ffd5b6001600160401b03811161307c57604052565b61014081019081106001600160401b0382111761307c57604052565b604081019081106001600160401b0382111761307c57604052565b602081019081106001600160401b0382111761307c57604052565b60c081019081106001600160401b0382111761307c57604052565b608081019081106001600160401b0382111761307c57604052565b60a081019081106001600160401b0382111761307c57604052565b90601f801991011681019081106001600160401b0382111761307c57604052565b6001600160401b03811161307c57601f01601f191660200190565b6001600160a01b0391821692909183156132b8575f928284526002602052604094828686205416943361326d575b8561323b5790857fddf252ad1be2c89b69c2b068fc378daa952ba7f163c4a11628f55a4df523b3ef83838895526003602052898120600181540190558481526002602052898120846001600160601b0360a01b82541617905580a4169283830361321a5750505050565b6064945051926364283d7b60e01b8452600484015260248301526044820152fd5b865162461bcd60e51b815260206004820152600b60248201526a105d5d1a0811985a5b195960aa1b6044820152606490fd5b6132788533886133c9565b6131b057868587613299576024915190637e27328960e01b82526004820152fd5b905163177e802f60e01b81523360048201526024810191909152604490fd5b604051633250574960e11b81525f6004820152602490fd5b919290926132df818585613182565b833b6132ec575b50505050565b60209060018060a01b03809516946133336040519485938493630a85bd0160e11b988986523360048701521660248501526044840152608060648401526084830190612f87565b03815f875af15f91816133a9575b50613378578261334f61348d565b805191908261337157604051633250574960e11b815260048101839052602490fd5b9050602001fd5b6001600160e01b0319160361339157505f8080806132e6565b60249060405190633250574960e11b82526004820152fd5b6133c291925060203d8111611e3557611e268183613146565b905f613341565b6001600160a01b0391821680151593929091846133e8575b5050505090565b81929394501692828414938415613428575b50831561340e575b5050505f8080806133e1565b909192505f52600460205260405f205416145f8080613402565b9093505f52600560205260405f20825f5260205260ff60405f205416925f6133fa565b5f818152600260205260409020546001600160a01b03169081156122b8575090565b908160209103126107f757516001600160e01b0319811681036107f75790565b3d156134b7573d9061349e82613167565b916134ac6040519384613146565b82523d5f602084013e565b606090565b156134c357565b60405162461bcd60e51b8152602060048201526013602482015272151c985b9cd858dd1a5bdb881d1bdbc81bdb19606a1b6044820152606490fd5b6004356001600160a01b03811681036107f75790565b6024356001600160a01b03811681036107f75790565b610124356001600160a01b03811681036107f75790565b60443562ffffff811681036107f75790565b6064358060020b81036107f75790565b6084358060020b81036107f75790565b908115600183800414171561358457565b634e487b7160e01b5f52601160045260245ffd5b8181029291811591840414171561358457565b156135b257565b606460405162461bcd60e51b81526020600482015260046024820152631391531560e21b6044820152fd5b908160209103126107f757516001600160a01b03811681036107f75790565b1561360357565b606460405162461bcd60e51b81526020600482015260046024820152631193935160e21b6044820152fd5b51906001600160801b03821682036107f757565b908160a09103126107f7576136568161362e565b9160208201519160408101519161367b60806136746060850161362e565b930161362e565b90565b6020818303126107f7578051906001600160401b0382116107f7570181601f820112156107f75780516136b081613167565b926136be6040519485613146565b818452602082840101116107f75761367b9160208085019101612f66565b9190820391821161358457565b9190916001600160801b038080941691160191821161358457565b600160ff1b8114613584575f0390565b905f198183098183029283808310920391808303921461376557600160801b92828411156107f75783910990838211808203938460801b94850414911417156135845761367b920360801c17613573565b50505060801c90565b5f1982820990828102928380841093039280840393146137c257600160601b91838311156107f7570982811191828103928360a01b938404600160a01b14911417156135845761367b920360601c17613573565b50505060601c90565b600160601b5f19818309918060601b9182808510940393808503941461390957838511156107f757849109928061380181613704565b168091049361381e5f946001848088030401908584119003613598565b920304179180600302916003830482036138f55760028093186138418184613598565b8403908482116127e9579061385591613598565b61385f8184613598565b8403908482116127e9579061387391613598565b61387d8184613598565b8403908482116127e9579061389191613598565b61389b8184613598565b8403908482116127e957906138af91613598565b6138b98184613598565b8403908482116127e9576138d7916138d091613598565b8093613598565b83039283116138f5575061367b92916138ef91613598565b90613598565b634e487b7160e01b81526011600452602490fd5b5050905081156107f7570490565b905f19818309918181029182808510940393808503941461390957838511156107f757849109928061380181613704565b1561394f57565b60405162461bcd60e51b815260206004820152600c60248201526b139bdd08185c1c1c9bdd995960a21b6044820152606490fd5b6024356001600160801b03811681036107f75790565b6044356001600160801b03811681036107f75790565b6064356001600160801b03811681036107f75790565b519081151582036107f757565b91908260409103126107f7576020825192015190565b156139ef57565b60405162461bcd60e51b8152602060048201526014602482015273507269636520736c69707061676520636865636b60601b6044820152606490fd5b6001600160801b03918216908216039190821161358457565b90916001600160a01b03908116151580613ac1575b156117bd575f83815260086020526040902080546001600160601b0316606084901b6bffffffffffffffffffffffff191617905580613a978461344b565b169116907f8c5be1e5ebec7d5bd14f71427d1e84f3dd0314c0f7b2291e5b200ac8c7c3b9255f80a4565b505f613a59565b60405160208101907f8b73c3c69bb8fe3d512ecc4cf759cc79239f7b179b0ffacaa9a75d522b39400f82527f000000000000000000000000000000000000000000000000000000000000000060408201527f000000000000000000000000000000000000000000000000000000000000000060608201524660808201523060a082015260a08152613b58816130f5565b51902090565b15613b6557565b60405162461bcd60e51b815260206004820152600c60248201526b155b985d5d1a1bdc9a5e995960a21b6044820152606490fd5b3f7fc5d2460186f7233c927e7db2dcc703c0e500b653ca82273b7bfad8045d85a4708114159081613bc8575090565b9050151590565b519061ffff821682036107f757565b908160e09103126107f75780516001600160a01b03811681036107f7579160208201518060020b81036107f75791613c1860408201613bcf565b91613c2560608301613bcf565b91613c3260808201613bcf565b9160a082015160ff811681036107f75760c061367b9193016139c5565b80516020820151604080840151815162ffffff9692959187169490936001600160a01b03908116918116613c8286613061565b85526020850191825286850195865280613cbc867f00000000000000000000000000000000000000000000000000000000000000006147a1565b1694875192633850c7bd60e01b845260e0846004818a5afa938415613ee1579089949392915f94613eac575b50906001600160801b03613dde926080880194613d08865160020b613eeb565b9660a08a0197613d1b895160020b613eeb565b60c08c01519160e08d0151828287821688821611613ea1575b5050848616948287168611613e55575050613d4f935061471e565b915b829e8260608c015116975160020b985160020b9d8360208c51613d73816130bf565b8981520193338552818d5199511660208a015251168b880152511660608601525116608084015260808352613da78361312b565b86519a8b968796633c8a7d8d60e01b885260048801526024870152604486015216606484015260a0608484015260a4830190612f87565b03815f875af1938415613e4b575f958695613e24575b5050613e1290848661010083015111159182613e14575b50506139e8565b565b6101200151111590505f80613e0b565b613e129650613e40929550803d10610671576106638183613146565b94909493905f613df4565b85513d5f823e3d90fd5b9290939194868216115f14613e95578291613e7491613e7a959461471e565b93614772565b8085168286161015613e8e57505b91613d51565b9050613e88565b915050613e8892614772565b935091505f80613d34565b613dde92919450613ed26001600160801b039160e03d8111611c5457611c408183613146565b50505050505094919250613ce8565b89513d5f823e3d90fd5b60020b5f8112156143f357613eff81613704565b620d89e881116143ca5760018116156143b8576001600160881b036ffffcb933bd6fad37aa2d162d1a5940015b16916002821661438c575b600491828116614360575b60088116614334575b60108116614308575b602081166142dc575b604081166142b0575b608090818116614285575b610100811661425a575b610200811661422f575b6104008116614204575b61080081166141d9575b61100081166141ae575b6120008116614183575b6140008116614158575b618000811661412d575b620100008116614102575b6202000081166140d8575b62040000811661409c575b6208000016614060575b505f1261403d575b63ffffffff8260201c9216155f146140345760ff5f5b16820180921161402157506001600160a01b031690565b601190634e487b7160e01b5f525260245ffd5b60ff600161400a565b90801561404d575f190490613ff4565b601282634e487b7160e01b5f525260245ffd5b6b048a170391f7dc42444e8fa293919391828102928184041490151715614089571c915f613fec565b601183634e487b7160e01b5f525260245ffd5b936d2216e584f5fa1ea926041bedfe98908181029181830414901517156140c557811c93613fe2565b601184634e487b7160e01b5f525260245ffd5b936e5d6af8dedb81196699c329225ee604908181029181830414901517156140c557811c93613fd7565b936f09aa508b5b7a84e1c677de54f3e99bc9908181029181830414901517156140c557811c93613fcc565b936f31be135f97d08fd981231505542fcfa6908181029181830414901517156140c557811c93613fc1565b936f70d869a156d2a1b890bb3df62baf32f7908181029181830414901517156140c557811c93613fb7565b936fa9f746462d870fdf8a65dc1f90e061e5908181029181830414901517156140c557811c93613fad565b936fd097f3bdfd2022b8845ad8f792aa5825908181029181830414901517156140c557811c93613fa3565b936fe7159475a2c29b7443b29c7fa6e889d9908181029181830414901517156140c557811c93613f99565b936ff3392b0822b70005940c7a398e4b70f3908181029181830414901517156140c557811c93613f8f565b936ff987a7253ac413176f2b074cf7815e54908181029181830414901517156140c557811c93613f85565b936ffcbe86c7900a88aedcffc83b479aa3a4908181029181830414901517156140c557811c93613f7b565b936ffe5dee046a99a2a811c461f1969c3053908181029181830414901517156140c557811c93613f71565b926fff2ea16466c96a3843ec78b326b52861908181029181830414901517156140895760801c92613f66565b926fff973b41fa98c081472e6896dfb254c0908181029181830414901517156140895760801c92613f5d565b926fffcb9843d60f6159c9db58835c926644908181029181830414901517156140895760801c92613f54565b926fffe5caca7e10e4e61c3624eaa0941cd0908181029181830414901517156140895760801c92613f4b565b926ffff2e50f5f656932ef12357cf3c7fdcc908181029181830414901517156140895760801c92613f42565b916ffff97272373d413259a46990580e213a908181029181830414901517156135845760801c91613f37565b6001600160881b03600160801b613f2c565b60405162461bcd60e51b81526020600482015260016024820152601560fa1b6044820152606490fd5b80613eff565b6001600160401b03811161307c5760051b60200190565b80518210156144245760209160051b010190565b634e487b7160e01b5f52603260045260245ffd5b9293926001600160a01b037f000000000000000000000000000000000000000000000000000000000000000081169281831684148061460f575b1561454157505050803b156107f757604051630d0e30db60e41b8152935f91828660048185855af1958615611b59576144e8959661452f575b5060405163a9059cbb60e01b81526001600160a01b0390941660048501526024840191909152919290916020918491908290859082906044820190565b03925af18015612776576144fa575050565b6020823d8211614527575b8161451260209383613146565b810103126104d55750614524906139c5565b50565b3d9150614505565b9261453b602094613090565b926144ab565b819293509593949516903082145f1461456057505091613e12926148a3565b5f94859485926040519260208401956323b872dd60e01b875260248501521660448301526064820152606481526145968161312b565b51925af16145a261348d565b816145d8575b50613e125760405162461bcd60e51b815260206004820152600360248201526229aa2360e91b6044820152606490fd5b80518015925082156145ed575b50505f6145a8565b81925090602091810103126107f757602061460891016139c5565b5f806145e5565b5086471015614472565b92946001600160a01b0390931693919291843b156107f7575f9460e493869260ff604051998a98899763d505accf60e01b89523360048a01523060248a01526044890152606488015216608486015260a485015260c48401525af1801561468a576146815750565b613e1290613090565b6040513d5f823e3d90fd5b92946001600160a01b0390931693919291843b156107f7575f9461010493869260ff604051998a9889976323f2ebc360e21b89523360048a01523060248a015260448901526064880152600160848801521660a486015260c485015260e48401525af1801561468a576146815750565b6001600160a01b03918216908216039190821161358457565b6147589291906001600160a01b03908183168282161161476c575b6147519061474b83851684831661376e565b93614705565b1691613917565b6001600160801b0381169081036107f75790565b91614739565b61475892916001600160a01b0391614794918381168483161161479b57614705565b16906137cb565b90614705565b815160208301516001600160a01b03939184169190841690818310156107f75760409081015181516001600160a01b0394851660208201908152949093169183019190915262ffffff16606082015261480781608081015b03601f198101835282613146565b51902060405190602082019260ff60f81b84526001600160601b03199060601b16602183015260358201527fb9522ce68dced1b05442fafdf16c49d2e0755ca899b3b6a03479fe6ed2c2295660558201526055815261486581613110565b5190201690565b916040519160208301936001600160601b03199060601b16845260e81b603483015260e81b6037820152601a8152613b58816130bf565b60405163a9059cbb60e01b602082019081526001600160a01b03909316602482015260448101939093525f9283929083906148e181606481016147f9565b51925af16148ed61348d565b81614925575b50156148fb57565b60405162461bcd60e51b815260206004820152600260248201526114d560f21b6044820152606490fd5b805180159250821561493a575b50505f6148f3565b81925090602091810103126107f757602061495591016139c5565b5f80614932565b5f80809381938260405161496f816130da565b525af161497a61348d565b501561498257565b60405162461bcd60e51b815260206004820152600360248201526253544560e81b6044820152606490fdfea2646970667358221220671481d0b53053944857313c05ea521bbdf6e1daf85690f466ad22810b71297064736f6c63430008150033290decd9548b62a8d60345a988386fc84ba6bc95484008f6362f93160ef3e563b10e2d527612073b26eecdfd717e6a320cf44b4afac2b0732d9fcbe2b7fa0cf6",
    "linkReferences": {}
  },
  "methodIdentifiers": {
    "DOMAIN_SEPARATOR()": "3644e515",
    "PERMIT_TYPEHASH()": "30adf81f",
    "WETH9()": "4aa4a4fc",
    "approve(address,uint256)": "095ea7b3",
    "balanceOf(address)": "70a08231",
    "baseURI()": "6c0360eb",
    "burn(uint256)": "42966c68",
    "collect((uint256,address,uint128,uint128))": "fc6f7865",
    "createAndInitializePoolIfNecessary(address,address,uint24,uint160,bool)": "7dbeb4c4",
    "decreaseLiquidity((uint256,uint128,uint256,uint256,uint256))": "0c49ccbe",
    "factory()": "c45a0155",
    "getApproved(uint256)": "081812fc",
    "increaseLiquidity((uint256,uint256,uint256,uint256,uint256,uint256))": "219f5d17",
    "isApprovedForAll(address,address)": "e985e9c5",
    "isContract(address)": "16279055",
    "mint((address,address,uint24,int24,int24,uint256,uint256,uint256,uint256,address,uint256))": "88316456",
    "multicall(bytes[])": "ac9650d8",
    "name()": "06fdde03",
    "ownerOf(uint256)": "6352211e",
    "permit(address,uint256,uint256,uint8,bytes32,bytes32)": "7ac2ff7b",
    "positions(uint256)": "99fbab88",
    "refundETH()": "12210e8a",
    "safeTransferFrom(address,address,uint256)": "42842e0e",
    "safeTransferFrom(address,address,uint256,bytes)": "b88d4fde",
    "selfPermit(address,uint256,uint256,uint8,bytes32,bytes32)": "f3995c67",
    "selfPermitAllowed(address,uint256,uint256,uint8,bytes32,bytes32)": "4659a494",
    "selfPermitAllowedIfNecessary(address,uint256,uint256,uint8,bytes32,bytes32)": "a4a78f0c",
    "selfPermitIfNecessary(address,uint256,uint256,uint8,bytes32,bytes32)": "c2e3140a",
    "setApprovalForAll(address,bool)": "a22cb465",
    "supportsInterface(bytes4)": "01ffc9a7",
    "sweepToken(address,uint256,address)": "df2ab5bb",
    "symbol()": "95d89b41",
    "tokenByIndex(uint256)": "4f6ccce7",
    "tokenOfOwnerByIndex(address,uint256)": "2f745c59",
    "tokenURI(uint256)": "c87b56dd",
    "totalSupply()": "18160ddd",
    "transferFrom(address,address,uint256)": "23b872dd",
    "uniswapV3MintCallback(uint256,uint256,bytes)": "d3487997",
    "unwrapWETH9(uint256,address)": "49404b7c"
  },
  "id": 51
}