{"abi":[{"type":"constructor","inputs":[{"name":"_factory","type":"address","internalType":"address"},{"name":"_WETH9","type":"address","internalType":"address"},{"name":"_tokenDescriptor_","type":"address","internalType":"address"},{"name":"_nftTimelock_","type":"address","internalType":"address"}],"stateMutability":"nonpayable"},{"type":"receive","stateMutability":"payable"},{"type":"function","name":"DOMAIN_SEPARATOR","inputs":[],"outputs":[{"name":"","type":"bytes32","internalType":"bytes32"}],"stateMutability":"view"},{"type":"function","name":"PERMIT_TYPEHASH","inputs":[],"outputs":[{"name":"","type":"bytes32","internalType":"bytes32"}],"stateMutability":"view"},{"type":"function","name":"WETH9","inputs":[],"outputs":[{"name":"","type":"address","internalType":"address"}],"stateMutability":"view"},{"type":"function","name":"approve","inputs":[{"name":"to","type":"address","internalType":"address"},{"name":"tokenId","type":"uint256","internalType":"uint256"}],"outputs":[],"stateMutability":"nonpayable"},{"type":"function","name":"balanceOf","inputs":[{"name":"owner","type":"address","internalType":"address"}],"outputs":[{"name":"","type":"uint256","internalType":"uint256"}],"stateMutability":"view"},{"type":"function","name":"baseURI","inputs":[],"outputs":[{"name":"","type":"string","internalType":"string"}],"stateMutability":"pure"},{"type":"function","name":"burn","inputs":[{"name":"tokenId","type":"uint256","internalType":"uint256"}],"outputs":[],"stateMutability":"payable"},{"type":"function","name":"collect","inputs":[{"name":"params","type":"tuple","internalType":"struct INonfungiblePositionManager.CollectParams","components":[{"name":"tokenId","type":"uint256","internalType":"uint256"},{"name":"recipient","type":"address","internalType":"address"},{"name":"amount0Max","type":"uint128","internalType":"uint128"},{"name":"amount1Max","type":"uint128","internalType":"uint128"}]}],"outputs":[{"name":"amount0","type":"uint256","internalType":"uint256"},{"name":"amount1","type":"uint256","internalType":"uint256"}],"stateMutability":"payable"},{"type":"function","name":"createAndInitializePoolIfNecessary","inputs":[{"name":"token0","type":"address","internalType":"address"},{"name":"token1","type":"address","internalType":"address"},{"name":"fee","type":"uint24","internalType":"uint24"},{"name":"sqrtPriceX96","type":"uint160","internalType":"uint160"}],"outputs":[{"name":"pool","type":"address","internalType":"address"}],"stateMutability":"payable"},{"type":"function","name":"decreaseLiquidity","inputs":[{"name":"params","type":"tuple","internalType":"struct INonfungiblePositionManager.DecreaseLiquidityParams","components":[{"name":"tokenId","type":"uint256","internalType":"uint256"},{"name":"liquidity","type":"uint128","internalType":"uint128"},{"name":"amount0Min","type":"uint256","internalType":"uint256"},{"name":"amount1Min","type":"uint256","internalType":"uint256"},{"name":"deadline","type":"uint256","internalType":"uint256"}]}],"outputs":[{"name":"amount0","type":"uint256","internalType":"uint256"},{"name":"amount1","type":"uint256","internalType":"uint256"}],"stateMutability":"payable"},{"type":"function","name":"factory","inputs":[],"outputs":[{"name":"","type":"address","internalType":"address"}],"stateMutability":"view"},{"type":"function","name":"getApproved","inputs":[{"name":"tokenId","type":"uint256","internalType":"uint256"}],"outputs":[{"name":"","type":"address","internalType":"address"}],"stateMutability":"view"},{"type":"function","name":"increaseLiquidity","inputs":[{"name":"params","type":"tuple","internalType":"struct INonfungiblePositionManager.IncreaseLiquidityParams","components":[{"name":"tokenId","type":"uint256","internalType":"uint256"},{"name":"amount0Desired","type":"uint256","internalType":"uint256"},{"name":"amount1Desired","type":"uint256","internalType":"uint256"},{"name":"amount0Min","type":"uint256","internalType":"uint256"},{"name":"amount1Min","type":"uint256","internalType":"uint256"},{"name":"deadline","type":"uint256","internalType":"uint256"}]}],"outputs":[{"name":"liquidity","type":"uint128","internalType":"uint128"},{"name":"amount0","type":"uint256","internalType":"uint256"},{"name":"amount1","type":"uint256","internalType":"uint256"}],"stateMutability":"payable"},{"type":"function","name":"isApprovedForAll","inputs":[{"name":"owner","type":"address","internalType":"address"},{"name":"operator","type":"address","internalType":"address"}],"outputs":[{"name":"","type":"bool","internalType":"bool"}],"stateMutability":"view"},{"type":"function","name":"isContract","inputs":[{"name":"account","type":"address","internalType":"address"}],"outputs":[{"name":"","type":"bool","internalType":"bool"}],"stateMutability":"view"},{"type":"function","name":"mint","inputs":[{"name":"params","type":"tuple","internalType":"struct INonfungiblePositionManager.MintParams","components":[{"name":"token0","type":"address","internalType":"address"},{"name":"token1","type":"address","internalType":"address"},{"name":"fee","type":"uint24","internalType":"uint24"},{"name":"tickLower","type":"int24","internalType":"int24"},{"name":"tickUpper","type":"int24","internalType":"int24"},{"name":"amount0Desired","type":"uint256","internalType":"uint256"},{"name":"amount1Desired","type":"uint256","internalType":"uint256"},{"name":"amount0Min","type":"uint256","internalType":"uint256"},{"name":"amount1Min","type":"uint256","internalType":"uint256"},{"name":"recipient","type":"address","internalType":"address"},{"name":"deadline","type":"uint256","internalType":"uint256"}]}],"outputs":[{"name":"tokenId","type":"uint256","internalType":"uint256"},{"name":"liquidity","type":"uint128","internalType":"uint128"},{"name":"amount0","type":"uint256","internalType":"uint256"},{"name":"amount1","type":"uint256","internalType":"uint256"}],"stateMutability":"payable"},{"type":"function","name":"multicall","inputs":[{"name":"data","type":"bytes[]","internalType":"bytes[]"}],"outputs":[{"name":"results","type":"bytes[]","internalType":"bytes[]"}],"stateMutability":"payable"},{"type":"function","name":"name","inputs":[],"outputs":[{"name":"","type":"string","internalType":"string"}],"stateMutability":"view"},{"type":"function","name":"ownerOf","inputs":[{"name":"tokenId","type":"uint256","internalType":"uint256"}],"outputs":[{"name":"","type":"address","internalType":"address"}],"stateMutability":"view"},{"type":"function","name":"permit","inputs":[{"name":"spender","type":"address","internalType":"address"},{"name":"tokenId","type":"uint256","internalType":"uint256"},{"name":"deadline","type":"uint256","internalType":"uint256"},{"name":"v","type":"uint8","internalType":"uint8"},{"name":"r","type":"bytes32","internalType":"bytes32"},{"name":"s","type":"bytes32","internalType":"bytes32"}],"outputs":[],"stateMutability":"payable"},{"type":"function","name":"positions","inputs":[{"name":"tokenId","type":"uint256","internalType":"uint256"}],"outputs":[{"name":"nonce","type":"uint96","internalType":"uint96"},{"name":"operator","type":"address","internalType":"address"},{"name":"token0","type":"address","internalType":"address"},{"name":"token1","type":"address","internalType":"address"},{"name":"fee","type":"uint24","internalType":"uint24"},{"name":"tickLower","type":"int24","internalType":"int24"},{"name":"tickUpper","type":"int24","internalType":"int24"},{"name":"liquidity","type":"uint128","internalType":"uint128"},{"name":"feeGrowthInside0LastX128","type":"uint256","internalType":"uint256"},{"name":"feeGrowthInside1LastX128","type":"uint256","internalType":"uint256"},{"name":"tokensOwed0","type":"uint128","internalType":"uint128"},{"name":"tokensOwed1","type":"uint128","internalType":"uint128"}],"stateMutability":"view"},{"type":"function","name":"refundETH","inputs":[],"outputs":[],"stateMutability":"payable"},{"type":"function","name":"safeTransferFrom","inputs":[{"name":"from","type":"address","internalType":"address"},{"name":"to","type":"address","internalType":"address"},{"name":"tokenId","type":"uint256","internalType":"uint256"}],"outputs":[],"stateMutability":"nonpayable"},{"type":"function","name":"safeTransferFrom","inputs":[{"name":"from","type":"address","internalType":"address"},{"name":"to","type":"address","internalType":"address"},{"name":"tokenId","type":"uint256","internalType":"uint256"},{"name":"data","type":"bytes","internalType":"bytes"}],"outputs":[],"stateMutability":"nonpayable"},{"type":"function","name":"selfPermit","inputs":[{"name":"token","type":"address","internalType":"address"},{"name":"value","type":"uint256","internalType":"uint256"},{"name":"deadline","type":"uint256","internalType":"uint256"},{"name":"v","type":"uint8","internalType":"uint8"},{"name":"r","type":"bytes32","internalType":"bytes32"},{"name":"s","type":"bytes32","internalType":"bytes32"}],"outputs":[],"stateMutability":"payable"},{"type":"function","name":"selfPermitAllowed","inputs":[{"name":"token","type":"address","internalType":"address"},{"name":"nonce","type":"uint256","internalType":"uint256"},{"name":"expiry","type":"uint256","internalType":"uint256"},{"name":"v","type":"uint8","internalType":"uint8"},{"name":"r","type":"bytes32","internalType":"bytes32"},{"name":"s","type":"bytes32","internalType":"bytes32"}],"outputs":[],"stateMutability":"payable"},{"type":"function","name":"selfPermitAllowedIfNecessary","inputs":[{"name":"token","type":"address","internalType":"address"},{"name":"nonce","type":"uint256","internalType":"uint256"},{"name":"expiry","type":"uint256","internalType":"uint256"},{"name":"v","type":"uint8","internalType":"uint8"},{"name":"r","type":"bytes32","internalType":"bytes32"},{"name":"s","type":"bytes32","internalType":"bytes32"}],"outputs":[],"stateMutability":"payable"},{"type":"function","name":"selfPermitIfNecessary","inputs":[{"name":"token","type":"address","internalType":"address"},{"name":"value","type":"uint256","internalType":"uint256"},{"name":"deadline","type":"uint256","internalType":"uint256"},{"name":"v","type":"uint8","internalType":"uint8"},{"name":"r","type":"bytes32","internalType":"bytes32"},{"name":"s","type":"bytes32","internalType":"bytes32"}],"outputs":[],"stateMutability":"payable"},{"type":"function","name":"setApprovalForAll","inputs":[{"name":"operator","type":"address","internalType":"address"},{"name":"approved","type":"bool","internalType":"bool"}],"outputs":[],"stateMutability":"nonpayable"},{"type":"function","name":"supportsInterface","inputs":[{"name":"interfaceId","type":"bytes4","internalType":"bytes4"}],"outputs":[{"name":"","type":"bool","internalType":"bool"}],"stateMutability":"view"},{"type":"function","name":"sweepToken","inputs":[{"name":"token","type":"address","internalType":"address"},{"name":"amountMinimum","type":"uint256","internalType":"uint256"},{"name":"recipient","type":"address","internalType":"address"}],"outputs":[],"stateMutability":"payable"},{"type":"function","name":"symbol","inputs":[],"outputs":[{"name":"","type":"string","internalType":"string"}],"stateMutability":"view"},{"type":"function","name":"tokenByIndex","inputs":[{"name":"index","type":"uint256","internalType":"uint256"}],"outputs":[{"name":"","type":"uint256","internalType":"uint256"}],"stateMutability":"view"},{"type":"function","name":"tokenOfOwnerByIndex","inputs":[{"name":"owner","type":"address","internalType":"address"},{"name":"index","type":"uint256","internalType":"uint256"}],"outputs":[{"name":"","type":"uint256","internalType":"uint256"}],"stateMutability":"view"},{"type":"function","name":"tokenURI","inputs":[{"name":"tokenId","type":"uint256","internalType":"uint256"}],"outputs":[{"name":"","type":"string","internalType":"string"}],"stateMutability":"view"},{"type":"function","name":"totalSupply","inputs":[],"outputs":[{"name":"","type":"uint256","internalType":"uint256"}],"stateMutability":"view"},{"type":"function","name":"transferFrom","inputs":[{"name":"from","type":"address","internalType":"address"},{"name":"to","type":"address","internalType":"address"},{"name":"tokenId","type":"uint256","internalType":"uint256"}],"outputs":[],"stateMutability":"nonpayable"},{"type":"function","name":"uniswapV3MintCallback","inputs":[{"name":"amount0Owed","type":"uint256","internalType":"uint256"},{"name":"amount1Owed","type":"uint256","internalType":"uint256"},{"name":"data","type":"bytes","internalType":"bytes"}],"outputs":[],"stateMutability":"nonpayable"},{"type":"function","name":"unwrapWETH9","inputs":[{"name":"amountMinimum","type":"uint256","internalType":"uint256"},{"name":"recipient","type":"address","internalType":"address"}],"outputs":[],"stateMutability":"payable"},{"type":"event","name":"Approval","inputs":[{"name":"owner","type":"address","indexed":true,"internalType":"address"},{"name":"approved","type":"address","indexed":true,"internalType":"address"},{"name":"tokenId","type":"uint256","indexed":true,"internalType":"uint256"}],"anonymous":false},{"type":"event","name":"ApprovalForAll","inputs":[{"name":"owner","type":"address","indexed":true,"internalType":"address"},{"name":"operator","type":"address","indexed":true,"internalType":"address"},{"name":"approved","type":"bool","indexed":false,"internalType":"bool"}],"anonymous":false},{"type":"event","name":"Collect","inputs":[{"name":"tokenId","type":"uint256","indexed":true,"internalType":"uint256"},{"name":"recipient","type":"address","indexed":false,"internalType":"address"},{"name":"amount0","type":"uint256","indexed":false,"internalType":"uint256"},{"name":"amount1","type":"uint256","indexed":false,"internalType":"uint256"}],"anonymous":false},{"type":"event","name":"DecreaseLiquidity","inputs":[{"name":"tokenId","type":"uint256","indexed":true,"internalType":"uint256"},{"name":"liquidity","type":"uint128","indexed":false,"internalType":"uint128"},{"name":"amount0","type":"uint256","indexed":false,"internalType":"uint256"},{"name":"amount1","type":"uint256","indexed":false,"internalType":"uint256"}],"anonymous":false},{"type":"event","name":"IncreaseLiquidity","inputs":[{"name":"tokenId","type":"uint256","indexed":true,"internalType":"uint256"},{"name":"liquidity","type":"uint128","indexed":false,"internalType":"uint128"},{"name":"amount0","type":"uint256","indexed":false,"internalType":"uint256"},{"name":"amount1","type":"uint256","indexed":false,"internalType":"uint256"}],"anonymous":false},{"type":"event","name":"Transfer","inputs":[{"name":"from","type":"address","indexed":true,"internalType":"address"},{"name":"to","type":"address","indexed":true,"internalType":"address"},{"name":"tokenId","type":"uint256","indexed":true,"internalType":"uint256"}],"anonymous":false},{"type":"error","name":"ERC721EnumerableForbiddenBatchMint","inputs":[]},{"type":"error","name":"ERC721IncorrectOwner","inputs":[{"name":"sender","type":"address","internalType":"address"},{"name":"tokenId","type":"uint256","internalType":"uint256"},{"name":"owner","type":"address","internalType":"address"}]},{"type":"error","name":"ERC721InsufficientApproval","inputs":[{"name":"operator","type":"address","internalType":"address"},{"name":"tokenId","type":"uint256","internalType":"uint256"}]},{"type":"error","name":"ERC721InvalidApprover","inputs":[{"name":"approver","type":"address","internalType":"address"}]},{"type":"error","name":"ERC721InvalidOperator","inputs":[{"name":"operator","type":"address","internalType":"address"}]},{"type":"error","name":"ERC721InvalidOwner","inputs":[{"name":"owner","type":"address","internalType":"address"}]},{"type":"error","name":"ERC721InvalidReceiver","inputs":[{"name":"receiver","type":"address","internalType":"address"}]},{"type":"error","name":"ERC721InvalidSender","inputs":[{"name":"sender","type":"address","internalType":"address"}]},{"type":"error","name":"ERC721NonexistentToken","inputs":[{"name":"tokenId","type":"uint256","internalType":"uint256"}]},{"type":"error","name":"ERC721OutOfBoundsIndex","inputs":[{"name":"owner","type":"address","internalType":"address"},{"name":"index","type":"uint256","internalType":"uint256"}]}],"bytecode":{"object":"0x610120346200050b57601f62004f8938819003918201601f19168301916001600160401b0383118484101762000419578084926080946040528339810103126200050b576200004e816200052f565b6200005c602083016200052f565b62000078606062000070604086016200052f565b94016200052f565b91620000836200050f565b601b8152602081017f556e697377617020563320506f736974696f6e73204e46542d563100000000008152620000b86200050f565b91600a835269554e492d56332d504f5360b01b6020840152620000da6200050f565b60018152603160f81b602082015281519093906001600160401b03811162000419575f54600181811c9116801562000500575b6020821014620003fa57601f8111620004ab575b50806020601f821160011462000439575f916200042d575b508160011b915f199060031b1c1916175f555b8051906001600160401b038211620004195760015490600182811c921680156200040e575b6020831014620003fa5781601f84931162000399575b50602090601f831160011462000322575f9262000316575b50508160011b915f199060031b1c1916176001555b519020608052805160209091012060a05260c05260e052760100000000000000000000000000000000000000000001600d556001600160a01b03908116908115620002d1578216156200028d57600e80546001600160a01b031916919091179055610100908152604051614a04918262000545833960805182613591015260a051826135b7015260c0518281816102f8015281816108e801528181610a55015281816125d7015281816128ab0152613e87015260e051828181601c01528181611da801528181611e010152614105015251816109b70152f35b606460405162461bcd60e51b815260206004820152602060248201527f546f6b656e2044657363726970746f722061646472657373206973207a65726f6044820152fd5b60405162461bcd60e51b815260206004820152601c60248201527f4e46542054696d656c6f636b2061646472657373206973207a65726f000000006044820152606490fd5b015190505f806200019f565b60015f9081525f8051602062004f698339815191529350601f198516905b81811062000380575090846001959493921062000367575b505050811b01600155620001b4565b01515f1960f88460031b161c191690555f808062000358565b9293602060018192878601518155019501930162000340565b60015f529091505f8051602062004f69833981519152601f840160051c81019160208510620003ef575b90601f859493920160051c01905b818110620003e0575062000187565b5f8155849350600101620003d1565b9091508190620003c3565b634e487b7160e01b5f52602260045260245ffd5b91607f169162000171565b634e487b7160e01b5f52604160045260245ffd5b90508301515f62000139565b5f8080525f8051602062004f498339815191529250601f198416905b818110620004925750908360019493921062000479575b5050811b015f556200014c565b8501515f1960f88460031b161c191690555f806200046c565b9192602060018192868a01518155019401920162000455565b5f80525f8051602062004f49833981519152601f830160051c81019160208410620004f5575b601f0160051c01905b818110620004e9575062000121565b5f8155600101620004da565b9091508190620004d1565b90607f16906200010d565b5f80fd5b60408051919082016001600160401b038111838210176200041957604052565b51906001600160a01b03821682036200050b5756fe608080604052600436101561007d575b50361561001a575f80fd5b7f00000000000000000000000000000000000000000000000000000000000000006001600160a01b0316330361004c57005b60405162461bcd60e51b81526020600482015260096024820152684e6f7420574554483960b81b6044820152606490fd5b5f905f3560e01c90816301ffc9a714612e195750806306fdde0314612d27578063081812fc14612c84578063095ea7b314612c5b5780630c49ccbe146127f257806312210e8a146127d457806313ead56214612554578063162790551461252657806318160ddd14612508578063219f5d171461229657806323b872dd1461227e5780632f745c59146121f957806330adf81f146121be5780633644e515146121a357806342842e0e1461217b57806342966c6814611f315780634659a49414611f1857806349404b7c14611dd75780634aa4a4fc14611d925780634f6ccce714611d3c5780636352211e14611d0b5780636c0360eb14611cae57806370a0823114611c825780637ac2ff7b146119a657806388316456146111a757806395d89b411461109757806399fbab8814610eb5578063a22cb46514610e12578063a4a78f0c14610d82578063ac9650d814610bb8578063b88d4fde14610b2b578063c2e3140a14610a84578063c45a015514610a3f578063c87b56dd14610964578063d348799714610810578063df2ab5bb14610719578063e985e9c5146106c7578063f3995c67146106ab5763fc6f78650361000f5760803660031901126104d55761025361024e60043533336139de565b6130a6565b6001600160801b03610263613139565b1615801590610692575b156104d5576001600160a01b03610282613765565b166106845730905b6004358152600c60205260408120916001830154926001600160501b0384168352600b6020526040832062ffffff6001604051926102c784612f99565b818060a01b038154168452015460018060a01b038116602084015260a01c16604082015261031c60018060a01b03917f0000000000000000000000000000000000000000000000000000000000000000613a60565b1660048201546001600160801b038116908060801c968060801c610506575b5050610345613139565b6001600160801b03828116911611156104f85780925b61036361314f565b6001600160801b03888116911611156104eb57865b600182015494604051966309e3d67b60e31b885260018060a01b0316958660048901528060501c60020b602489015260681c60020b60448801526001600160801b0381169384606489015260408860a4818c6001600160801b0388169a8b60848401525af19788156104e057898099610486575b50506040996104356104186001600160801b039a99989796956104126004968d96613243565b93613243565b848601906001600160801b0382549181199060801b169116179055565b16871982840154161791015586519283526020830152858201527f40d0efd1a53d60ecbf40971b9daf7dc90178c3aadc7aab1765632738fa8b8f01606060043592a281845193168352166020820152f35b919796959493985098506040893d6040116104d8575b816104a96040938361306a565b810103126104d557506104bb886131cb565b976020016104c8906131cb565b9691929394955f806103ec565b80fd5b3d915061049c565b6040513d8b823e3d90fd5b6104f361314f565b610378565b610500613139565b9261035b565b915095506040519063a34123a760e01b82528060501c60020b600483015260681c60020b602482015284604482015260408160648188865af180156106795761064b575b506001820154946105688660681c60020b8760501c60020b30613b6c565b956040519663514ea4bf60e01b8852600488015260a087602481865afa9081156106405786978792610607575b5060028501976105fd6105d26001600160801b036105c26105b78d548661321b565b9560801c8096613bd7565b166001600160801b038716613228565b946001600160801b036105f360038a01956105ee87548961321b565b613bd7565b169060801c613228565b9855555f8061033b565b90975061062c915060a03d60a011610639575b610624818361306a565b8101906131df565b505097915096905f610595565b503d61061a565b6040513d88823e3d90fd5b61066c9060403d604011610672575b610664818361306a565b810190613172565b5061054a565b503d61065a565b6040513d87823e3d90fd5b61068c613765565b9061028a565b506001600160801b036106a361314f565b16151561026d565b506106c46106b836612f59565b94939093929192613976565b80f35b50346104d55760403660031901126104d5576106e1612ee4565b60406106eb612efa565b9260018060a01b03809316815260056020522091165f52602052602060ff60405f2054166040519015158152f35b5060603660031901126104d55761072e612ee4565b6001600160a01b0360443581811681036107f9576020602492604051938480926370a0823160e01b825230600483015287165afa9182156108055784926107cd575b5060243582106107935781610783578380f35b61078c926142e7565b5f80808380f35b60405162461bcd60e51b815260206004820152601260248201527124b739bab33334b1b4b2b73a103a37b5b2b760711b6044820152606490fd5b9091506020813d6020116107fd575b816107e96020938361306a565b810103126107f95751905f610770565b5f80fd5b3d91506107dc565b6040513d86823e3d90fd5b50346104d55760603660031901126104d5576044356024356004356001600160401b0380841161096057366023850112156109605783600401359081116109605783013660248201116109605783900392608084126109605760606040519461087886612fe3565b12610960576040519161088a83612f99565b61089660248301612f10565b83526108a460448301612f10565b602084015260648201359162ffffff831683036107f95760846108d39161090c94604087015285885201612f10565b60208601908152926001600160a01b039283917f0000000000000000000000000000000000000000000000000000000000000000613a60565b16330361095c5780610941575b5082610923578480f35b80602061093995510151169033925116906140fb565b5f8080808480f35b610956908286515116339084865116906140fb565b5f610919565b8580fd5b8480fd5b50346104d55760203660031901126104d5576004355f818152600260205260409020546001600160a01b031615610a3b5760405163e9dc637560e01b8152306004820152602481019190915281816044817f00000000000000000000000000000000000000000000000000000000000000006001600160a01b03165afa908115610a305782610a099392610a0d575b5050604051918291602083526020830190612ebf565b0390f35b610a2992503d8091833e610a21818361306a565b81019061380a565b5f806109f3565b6040513d84823e3d90fd5b5080fd5b50346104d557806003193601126104d5576040517f00000000000000000000000000000000000000000000000000000000000000006001600160a01b03168152602090f35b50610a8e36612f59565b604051636eb1769f60e11b81523360048201523060248201529094919391906020816044816001600160a01b038b165afa8015610b205782918991610aeb575b5010610ad8578680f35b610ae195613976565b5f80808080808680f35b9150506020813d602011610b18575b81610b076020938361306a565b810103126107f9578190515f610ace565b3d9150610afa565b6040513d8a823e3d90fd5b50346104d55760803660031901126104d557610b45612ee4565b610b4d612efa565b90606435906001600160401b038211610bb45736602383011215610bb45781600401359284610b7b8561308b565b93610b89604051958661306a565b8585523660248783010111610a3b57856106c49660246020930183880137850101526044359161387c565b8380fd5b50602080600319360112610a3b576004356001600160401b03808211610bb45736602383011215610bb45781600401359080821161096057602460059236828260051b87010111610d7e5792610c10849796976137c4565b94610c1e604051968761306a565b848652610c2a856137c4565b601f1901875b818110610d6f575050368190036042190191875b868110610caa5789898960405191838301848452825180915260408401948060408360051b870101940192955b828710610c7e5785850386f35b909192938280610c9a600193603f198a82030186528851612ebf565b9601920196019592919092610c71565b8481839b9a9b1b8401013584811215610d6b5783018a86820135888111610a3b576044809301908036038213610d6757829181604051928392833781018381520390305af490610cf86137db565b9115610d22575090600191610d0d828b613868565b52610d18818a613868565b5001989798610c44565b818c8c92899451106104d55750610d478184806004610d63950151830101910161380a565b60405193849362461bcd60e51b85526004850152830190612ebf565b0390fd5b8280fd5b8a80fd5b60608882018b01528901610c30565b8680fd5b50610d8c36612f59565b604051636eb1769f60e11b81523360048201523060248201529094919391906020816044816001600160a01b038b165afa908115610b20578891610de0575b505f1911610dd7578680f35b610ae1956135fa565b90506020813d602011610e0a575b81610dfb6020938361306a565b810103126107f957515f610dcb565b3d9150610dee565b50346104d55760403660031901126104d557610e2c612ee4565b60243590811515809203610d67576001600160a01b0316908115610e9c57338352600560205260408320825f5260205260405f2060ff1981541660ff83161790556040519081527f17307eab39ab6107e8899845ad3d59bd9653f200f220920489ca2b5937696c3160203392a380f35b604051630b61174360e31b815260048101839052602490fd5b50346104d55760203660031901126104d5576004358152600c602052604081206001600160501b0360405191610eea83612fc7565b80546001600160601b038116845260601c6020840152600460018201549183831660408601528260501c60020b60608601528260681c60020b60808601528260801c60a0860152600281015460c0860152600381015460e086015201546001600160801b03811661010085015260801c610120840152161561105f576040610180926001600160501b0382840151168152600b602052209060405190610f8f82612f99565b60018060a01b0392600184825416918285520154928484166020820152604062ffffff8560a01c169101526001600160601b03825116938060208401511693606084015160020b608085015160020b9062ffffff6001600160801b0360a0880151169360c08801519560e0890151976001600160801b03610120816101008d0151169b0151169a6040519c8d5260208d015260408c0152811660608b015260a01c16608089015260a088015260c087015260e0860152610100850152610120840152610140830152610160820152f35b60405162461bcd60e51b815260206004820152601060248201526f125b9d985b1a59081d1bdad95b88125160821b6044820152606490fd5b50346104d557806003193601126104d5576040519080600191600154928360011c926001851694851561119d575b60209586861081146111895785885287949392918790821561116757505060011461110d575b50506110f99250038361306a565b610a09604051928284938452830190612ebf565b90859250600182527fb10e2d527612073b26eecdfd717e6a320cf44b4afac2b0732d9fcbe2b7fa0cf65b85831061114f5750506110f993508201015f806110eb565b80548389018501528794508693909201918101611137565b92509350506110f994915060ff191682840152151560051b8201015f806110eb565b634e487b7160e01b83526022600452602483fd5b93607f16936110c5565b506101603660031901126104d5576111c4610144354211156130e1565b6112596111cf61374f565b6111d7613765565b6111df613792565b62ffffff6111eb6137a4565b916111f46137b4565b936040519561120287612fc7565b6001600160a01b039081168752166020860152166040840152306060840152600290810b60808401520b60a082015260a43560c082015260c43560e082015260e43561010082015261010435610120820152613e3e565b600d5493919291906001600160b01b038516600114801590611924575b156118f95761128361377b565b6001600160b01b03868116146118e5576001600160b01b031986166001600160b01b038781166001011617600d556001600160a01b038116156118cc576001600160b01b0386165f908152600260205260409020546001600160a01b031680611899576001600160a01b0382165f818152600360209081526040808320805460010190556001600160b01b038b168084526002909252822080546001600160a01b03191684179055919083907fddf252ad1be2c89b69c2b068fc378daa952ba7f163c4a11628f55a4df523b3ef9080a480611807576008546001600160b01b0388165f908152600960205260409020819055600160401b8110156117f3576113948160016113b59301600855613675565b81545f1960039290921b91821b19166001600160b01b038b1690911b179055565b6001600160a01b03821603611783575b506113e06113d16137a4565b6113d96137b4565b9030613b6c565b60405163514ea4bf60e01b8152600481019190915260a0816024816001600160a01b0386165afa9081156117785787908892611753575b5061142061374f565b9262ffffff61142d613765565b611435613792565b906040519661144388612f99565b60018060a01b0316875260018060a01b0316602087015216604085015260018060a01b0381168952600a6020526001600160501b0360408a205416938415611671575b5050916001600160801b03610120604060809a611601958498976114a86137a4565b6114b06137b4565b906001600160501b038651996114c58b612fc7565b868b528660208c015216868a015260020b606089015260020b8e88015285891660a088015260c087015260e086015280610100860152808386015260018060b01b038b168152600c60205220926001600160601b038151166001600160601b031985541617845561155760018060a01b0360208301511685906001600160601b0382549181199060601b169116179055565b600460018501946115c06001600160501b03604085015116968054606086015160501b90608087015160681b998919809b62ffffff60681b169362ffffff60501b16921617171781558660a0860151166001600160801b0382549181199060801b169116179055565b60c0830151600282015560e0830151600382015501938361010083015116908554161784550151166001600160801b0382549181199060801b169116179055565b604080516001600160801b0383168152602081018590529081018590526001600160b01b038616907f3067048beee31b25b2f1681f88dac838c8bba36af25bfb2b7cf7473a5847e35f90606090a2604080516001600160b01b039096168652911660208501528301526060820152f35b909350600d546001600160501b038160b01c1461173f576001600160b01b03811660b091821c600181810190931b6001600160b01b03191691909117600d556001600160a01b039586168b52600a60209081526040808d20805469ffffffffffffffffffff191684179055828d52600b8252808d20855181546001600160a01b031916908a161781559185015191909301805494909301516001600160b81b031990941696169590951760a09290921b62ffffff60a01b169190911790556001600160801b03610120611486565b634e487b7160e01b8a52601160045260248afd5b905061176e915060a03d60a01161063957610624818361306a565b505091505f611417565b6040513d89823e3d90fd5b61178c816136be565b90815f198101116117df576001600160a01b03165f9081526006602090815260408083205f19949094018084529382528083206001600160b01b038a1690819055835260079091528120919091556113c5565b634e487b7160e01b5f52601160045260245ffd5b634e487b7160e01b5f52604160045260245ffd5b6001600160a01b03821681146113b557611820816136be565b60018060b01b0388165f52600760205260405f205490825f52600660205260405f2091818103611872575b5060018060b01b0389165f5260076020525f60408120555f526020525f60408120556113b5565b815f528260205260405f2054815f528060405f20555f52600760205260405f20555f61184b565b60405162461bcd60e51b815260206004820152600b60248201526a105d5d1a0811985a5b195960aa1b6044820152606490fd5b604051633250574960e11b815260048101889052602490fd5b634e487b7160e01b87526011600452602487fd5b606460405162461bcd60e51b81526020600482015260046024820152631193935160e21b6044820152fd5b50604051631abe729160e31b81526020816004816001600160a01b0386165afa908115611778578791611977575b506001600160a01b0361196361377b565b6001600160a01b0390921691161415611276565b611999915060203d60201161199f575b611991818361306a565b81019061325c565b5f611952565b503d611987565b506119b036612f59565b83949396959291964211611c4c576119c6613564565b96848752602092600c845260408820988954996001600160601b039a8b81169b808d14611c385760018d0116906001600160601b031916179055604051858101907f49ecf333e5b8c95c40fdafc95c1ad136e8914a8fb55e9dc8bb01eaa83a2df9ad825260018060a01b03998a89169c8d60408401528a6060840152608083015260a082015260a08152611a5981613019565b519020604051908682019261190160f01b84526022830152604282015260428152611a8381613034565b51902092611a90876140d9565b97808916809b14611be357611aa4896132fb565b15611b665750604080518087019490945283015260f81b6001600160f81b0319166060820152604181529596611b09968391611adf82613034565b60405180809a8194630b135d3f60e11b978884526004840152604060248401526044830190612ebf565b03915afa8015611778576106c496611b34938992611b39575b50506001600160e01b031916146136f4565b6143a0565b611b589250803d10611b5f575b611b50818361306a565b81019061372f565b5f80611b22565b503d611b46565b93608091869460ff8c9560405194855216868401526040830152606082015282805260015afa1561067957855116908115611bab57506106c49495611b3491146136f4565b6064906040519062461bcd60e51b825260048201526011602482015270496e76616c6964207369676e617475726560781b6044820152fd5b60405162461bcd60e51b815260048101879052602760248201527f4552433732315065726d69743a20617070726f76616c20746f2063757272656e6044820152663a1037bbb732b960c91b6064820152608490fd5b634e487b7160e01b8c52601160045260248cfd5b60405162461bcd60e51b815260206004820152600e60248201526d14195c9b5a5d08195e1c1a5c995960921b6044820152606490fd5b50346104d55760203660031901126104d5576020611ca6611ca1612ee4565b6136be565b604051908152f35b50346104d557806003193601126104d557604051602080825281606051918260208301525f5b838110611cf5575050815f6040809484010152601f80199101168101030190f35b6080810151858201604001528492508101611cd4565b50346104d55760203660031901126104d5576020611d2a6004356140d9565b6040516001600160a01b039091168152f35b50346104d55760203660031901126104d557600435600854811015611d7457611d66602091613675565b90546040519160031b1c8152f35b6044906040519063295f44f760e21b82525f60048301526024820152fd5b50346104d557806003193601126104d5576040517f00000000000000000000000000000000000000000000000000000000000000006001600160a01b03168152602090f35b5060403660031901126104d557611dec612efa565b6040516370a0823160e01b81523060048201527f00000000000000000000000000000000000000000000000000000000000000006001600160a01b0316602082602481845afa918215610805578492611ee4575b506004358210611eaa57839082611e55575080f35b803b15610a3b57818091602460405180948193632e1a7d4d60e01b83528860048401525af18015610a3057611e96575b5050611e9091613ded565b5f808280f35b611e9f90612fb4565b610d6757825f611e85565b60405162461bcd60e51b8152602060048201526012602482015271496e73756666696369656e7420574554483960701b6044820152606490fd5b9091506020813d602011611f10575b81611f006020938361306a565b810103126107f95751905f611e40565b3d9150611ef3565b506106c4611f2536612f59565b949390939291926135fa565b50602080600319360112610a3b5760043590611f5161024e8333336139de565b818352600c815260408320600181015460801c159081612165575b81612155575b501561212357818352600c8152826004604082208281558260018201555f60028201555f60038201550155815f526002815260018060a01b0360405f2054169081159182156120f0575f848152600283526040812080546001600160a01b031916905584917fddf252ad1be2c89b69c2b068fc378daa952ba7f163c4a11628f55a4df523b3ef8280a481156120eb57600854600982528060405f2055600160401b8110156117f3578361202e8260016120469401600855613675565b90919082549060031b91821b915f19901b1916179055565b6008545f19918282019182116117df57600990855f5281815261206d60405f205493613675565b90549060031b1c6120818161202e86613675565b5f525260405f2055825f525f604081205560085480156120d7578101906120a782613675565b909182549160031b1b191690556008556120bf575080f35b60249060405190637e27328960e01b82526004820152fd5b634e487b7160e01b5f52603160045260245ffd5b612046565b60405162461bcd60e51b815260048101839052600b60248201526a105d5d1a0811985a5b195960aa1b6044820152606490fd5b6064906040519062461bcd60e51b82526004820152600b60248201526a139bdd0818db19585c995960aa1b6044820152fd5b60049150015460801c155f611f72565b60048101546001600160801b0316159150611f6c565b50346104d5576106c461218d36612f24565b906040519261219b84612ffe565b85845261387c565b50346104d557806003193601126104d5576020611ca6613564565b50346104d557806003193601126104d55760206040517f49ecf333e5b8c95c40fdafc95c1ad136e8914a8fb55e9dc8bb01eaa83a2df9ad8152f35b50346104d55760403660031901126104d557612213612ee4565b9060243591612221816136be565b831015612252576001600160a01b031681526006602090815260408083209383529281529082902054915191825290f35b60405163295f44f760e21b81526001600160a01b03919091166004820152602481019290925250604490fd5b50346104d5576106c461229036612f24565b91613331565b5060c03660031901126104d5576122b160a4354211156130e1565b600435808252600c602052604082209060018201918254916001600160501b0383168552600b60205261237960408620604051946122ee86612f99565b604060018060a01b03966001888554169485835201549062ffffff8983169283602084015260a01c1692839101526040519361232985612fc7565b8452602084015260408301523060608301528060501c60020b608083015260681c60020b60a082015260243560c082015260443560e0820152606435610100820152608435610120820152613e3e565b60a088949793989692965491602461239e8460681c60020b8560501c60020b30613b6c565b604051968793849263514ea4bf60e01b84526004840152165afa9283156104e0579861247794939291610a0998999a82946124e0575b50612467600284019161243e6123eb84548661321b565b9160801c9586926124056001600160801b03948592613bd7565b16926105f36003600484019583612420885492828416613228565b16906001600160801b031916179384875501986105ee8a548c61321b565b81546001600160801b031660809190911b6fffffffffffffffffffffffffffffffff1916179055565b555561243e86825460801c613228565b604080516001600160801b0386168152602081018790529081018390527f3067048beee31b25b2f1681f88dac838c8bba36af25bfb2b7cf7473a5847e35f90606090a2604051938493846040919493926001600160801b03606083019616825260208201520152565b9093506124fc915060a03d60a01161063957610624818361306a565b5050915090925f6123d4565b50346104d557806003193601126104d5576020600854604051908152f35b50346104d55760203660031901126104d557602061254a612545612ee4565b6132fb565b6040519015158152f35b5060803660031901126104d557612569612ee4565b90612572612efa565b60443562ffffff811681036107f9576001600160a01b036064358181169591939086900361096057838116848316101561096057604051630b4c774160e11b81526001600160a01b0383811660048301528216602482015262ffffff841660448201527f000000000000000000000000000000000000000000000000000000000000000085169290602081606481875afa9081156117785787916127b5575b5080861690816126e857505060405163a167129560e01b81526001600160a01b0391821660048201529116602482015262ffffff929092166044830152929390928491906020908590606490829086905af1938415610a305782946126c7575b50828416803b15610d675760248392604051948593849263f637731d60e01b845260048401525af18015610805576126b3575b50602092505b60405191168152f35b6126bd8491612fb4565b610d6757826126a4565b6126e191945060203d60201161199f57611991818361306a565b925f612671565b9694509692505050604051633850c7bd60e01b815260e081600481895afa9081156127aa579084918491612775575b50161561272a575b5050602092506126aa565b8482953b15610d675760248392604051948593849263f637731d60e01b845260048401525af1801561080557612761575b8061271f565b61276b8491612fb4565b610d67578261275b565b612797915060e03d60e0116127a3575b61278f818361306a565b81019061328a565b5050505050505f612717565b503d612785565b6040513d85823e3d90fd5b6127ce915060203d60201161199f57611991818361306a565b5f612611565b50806003193601126104d557476127e85780f35b6106c44733613ded565b5060a03660031901126107f95760043561281061024e8233336139de565b61281e6084354211156130e1565b6001600160801b038061282f613123565b16156107f957815f526020600c815260405f2092600184018054948560801c9085612858613123565b1682106107f9576001600160501b03600197165f52600b855260405f206128cf60405161288481612f99565b62ffffff8a8060a01b039a848c80965416845201548481168a84015260a01c1660408201527f0000000000000000000000000000000000000000000000000000000000000000613a60565b169660018514612afe575b50825496866128e7613123565b6040519963a34123a760e01b8b528060501c60020b60048c015260681c60020b60248b01521660448901526040886064818c855af19687156104e05789988a98612ad7575b5060443589101580612acb575b61294290613188565b60a061295d86548060681c60020b9060501c60020b30613b6c565b60246040518095819363514ea4bf60e01b835260048301525afa918215612ac057918a61243e94928a8c8860409f97612a1e9b9a989596612a75575b5086612a05612a0e946129cb8795868a996129c361243e988e9f60026105ee91019d8e549061321b565b169116613228565b94806129c38d6105ee6003600489019a856129ea8d5492828416613228565b16906001600160801b0319161798898c55019d8e549061321b565b9060801c613228565b5555612a18613123565b90613243565b7f26f6a048ee9138f2c0ce266f322cb99228e8d619ae2bff30c67f8dcf9d2377b484612a48613123565b87516001600160801b03919091168152602081019190915260408101859052606090a28351928352820152f35b61243e91965084955096612a05612a0e946129cb8795612aa66129c39c60a03d60a01161063957610624818361306a565b50509a91509a8b9a9c975050509597505094505096612999565b6040513d8c823e3d90fd5b50606435881015612939565b909750612af491985060403d60401161067257610664818361306a565b979097965f61292c565b600e54604051632936dd9b60e11b8152336004820152919081168783602481845afa8015612c50578b935f91612c18575b50612b9f5750600e5416803b15610a3b57818091608460405180948193630e4ca96160e41b83523360048401526201518060248401523060448401528b60648401525af18015610a3057612b87575b50505b5f6128da565b612b9090612fb4565b612b9b57875f612b7e565b8780fd5b91505080979695973b156107f9575f80916004604051809481936386d1a69f60e01b83525af19081612c05575b50612bfc5760405162461bcd60e51b815260048101889052600360248201526213925360ea1b6044820152606490fd5b95939495612b81565b612c10919950612fb4565b5f975f612bcc565b809450898092503d8311612c49575b612c31818361306a565b810103126107f957612c438b93613165565b5f612b2f565b503d612c27565b6040513d5f823e3d90fd5b346107f95760403660031901126107f957612c82612c77612ee4565b3390602435906143a0565b005b346107f95760203660031901126107f9576004355f818152600260205260409020546001600160a01b031615612ccd575f52600c602052602060405f205460601c604051908152f35b60405162461bcd60e51b815260206004820152602c60248201527f4552433732313a20617070726f76656420717565727920666f72206e6f6e657860448201526b34b9ba32b73a103a37b5b2b760a11b6064820152608490fd5b346107f9575f3660031901126107f9576040515f80549060018260011c9160018416918215612e0f575b6020948585108414612dfb5785879486865291825f14612ddb575050600114612d82575b506110f99250038361306a565b5f808052859250907f290decd9548b62a8d60345a988386fc84ba6bc95484008f6362f93160ef3e5635b858310612dc35750506110f9935082010185612d75565b80548389018501528794508693909201918101612dac565b60ff1916858201526110f995151560051b8501019250879150612d759050565b634e487b7160e01b5f52602260045260245ffd5b92607f1692612d51565b346107f95760203660031901126107f9576004359063ffffffff60e01b82168092036107f95760209163780e9d6360e01b8114908115612e5b575b5015158152f35b6380ac58cd60e01b811491508115612e8d575b8115612e7c575b5083612e54565b6301ffc9a760e01b14905083612e75565b635b5e139f60e01b81149150612e6e565b5f5b838110612eaf5750505f910152565b8181015183820152602001612ea0565b90602091612ed881518092818552858086019101612e9e565b601f01601f1916010190565b600435906001600160a01b03821682036107f957565b602435906001600160a01b03821682036107f957565b35906001600160a01b03821682036107f957565b60609060031901126107f9576001600160a01b039060043582811681036107f9579160243590811681036107f9579060443590565b60c09060031901126107f9576004356001600160a01b03811681036107f95790602435906044359060643560ff811681036107f957906084359060a43590565b606081019081106001600160401b038211176117f357604052565b6001600160401b0381116117f357604052565b61014081019081106001600160401b038211176117f357604052565b604081019081106001600160401b038211176117f357604052565b602081019081106001600160401b038211176117f357604052565b60c081019081106001600160401b038211176117f357604052565b608081019081106001600160401b038211176117f357604052565b60a081019081106001600160401b038211176117f357604052565b90601f801991011681019081106001600160401b038211176117f357604052565b6001600160401b0381116117f357601f01601f191660200190565b156130ad57565b60405162461bcd60e51b815260206004820152600c60248201526b139bdd08185c1c1c9bdd995960a21b6044820152606490fd5b156130e857565b60405162461bcd60e51b8152602060048201526013602482015272151c985b9cd858dd1a5bdb881d1bdbc81bdb19606a1b6044820152606490fd5b6024356001600160801b03811681036107f95790565b6044356001600160801b03811681036107f95790565b6064356001600160801b03811681036107f95790565b519081151582036107f957565b91908260409103126107f9576020825192015190565b1561318f57565b60405162461bcd60e51b8152602060048201526014602482015273507269636520736c69707061676520636865636b60601b6044820152606490fd5b51906001600160801b03821682036107f957565b908160a09103126107f9576131f3816131cb565b916020820151916040810151916132186080613211606085016131cb565b93016131cb565b90565b919082039182116117df57565b9190916001600160801b03808094169116019182116117df57565b6001600160801b0391821690821603919082116117df57565b908160209103126107f957516001600160a01b03811681036107f95790565b519061ffff821682036107f957565b908160e09103126107f95780516001600160a01b03811681036107f9579160208201518060020b81036107f957916132c46040820161327b565b916132d16060830161327b565b916132de6080820161327b565b9160a082015160ff811681036107f95760c0613218919301613165565b3f7fc5d2460186f7233c927e7db2dcc703c0e500b653ca82273b7bfad8045d85a470811415908161332a575090565b9050151590565b6001600160a01b038281169391841561354c57825f5260206002815260409583875f2054169533613501575b861580156134cf57825f5260038452885f2060018154019055865f5260028452885f20836001600160601b0360a01b8254161790558683897fddf252ad1be2c89b69c2b068fc378daa952ba7f163c4a11628f55a4df523b3ef5f80a41561346357600854865f526009845280895f2055600160401b8110156117f3578661202e8260016133ed9401600855613675565b818703613428575b50505016928383036134075750505050565b6064945051926364283d7b60e01b8452600484015260248301526044820152fd5b613431906136be565b5f198101929083116117df576007915f5260068152875f20835f52815285885f2055855f5252855f20555f80806133f5565b8682146133ed57613473876136be565b865f5260078452885f205490885f5260068552895f20918181036134ad575b50875f52600785525f8a8120555f5283525f888120556133ed565b815f528286528a5f2054815f52808c5f20555f52600786528a5f20555f613492565b885162461bcd60e51b815260048101859052600b60248201526a105d5d1a0811985a5b195960aa1b6044820152606490fd5b61350c8633896139de565b61335d5787868861352d576024915190637e27328960e01b82526004820152fd5b905163177e802f60e01b81523360048201526024810191909152604490fd5b604051633250574960e11b81525f6004820152602490fd5b60405160208101907f8b73c3c69bb8fe3d512ecc4cf759cc79239f7b179b0ffacaa9a75d522b39400f82527f000000000000000000000000000000000000000000000000000000000000000060408201527f000000000000000000000000000000000000000000000000000000000000000060608201524660808201523060a082015260a081526135f481613019565b51902090565b92946001600160a01b0390931693919291843b156107f9575f9461010493869260ff604051998a9889976323f2ebc360e21b89523360048a01523060248a015260448901526064880152600160848801521660a486015260c485015260e48401525af18015612c505761366a5750565b61367390612fb4565b565b6008548110156136aa5760085f527ff3f7a9fe364faab93b216da50a3214154f22a0a2b415b23a84c8169e8b636ee301905f90565b634e487b7160e01b5f52603260045260245ffd5b6001600160a01b031680156136dc575f52600360205260405f205490565b6040516322718ad960e21b81525f6004820152602490fd5b156136fb57565b60405162461bcd60e51b815260206004820152600c60248201526b155b985d5d1a1bdc9a5e995960a21b6044820152606490fd5b908160209103126107f957516001600160e01b0319811681036107f95790565b6004356001600160a01b03811681036107f95790565b6024356001600160a01b03811681036107f95790565b610124356001600160a01b03811681036107f95790565b60443562ffffff811681036107f95790565b6064358060020b81036107f95790565b6084358060020b81036107f95790565b6001600160401b0381116117f35760051b60200190565b3d15613805573d906137ec8261308b565b916137fa604051938461306a565b82523d5f602084013e565b606090565b6020818303126107f9578051906001600160401b0382116107f9570181601f820112156107f957805161383c8161308b565b9261384a604051948561306a565b818452602082840101116107f9576132189160208085019101612e9e565b80518210156136aa5760209160051b010190565b9192909261388b818585613331565b833b613898575b50505050565b60209060018060a01b03809516946138df6040519485938493630a85bd0160e11b988986523360048701521660248501526044840152608060648401526084830190612ebf565b03815f875af15f9181613955575b5061392457826138fb6137db565b805191908261391d57604051633250574960e11b815260048101839052602490fd5b9050602001fd5b6001600160e01b0319160361393d57505f808080613892565b60249060405190633250574960e11b82526004820152fd5b61396f91925060203d602011611b5f57611b50818361306a565b905f6138ed565b92946001600160a01b0390931693919291843b156107f9575f9460e493869260ff604051998a98899763d505accf60e01b89523360048a01523060248a01526044890152606488015216608486015260a485015260c48401525af18015612c505761366a5750565b6001600160a01b0391821680151593929091846139fd575b5050505090565b81929394501692828414938415613a3d575b508315613a23575b5050505f8080806139f6565b909192505f52600460205260405f205416145f8080613a17565b9093505f52600560205260405f20825f5260205260ff60405f205416925f613a0f565b81516020830180516001600160a01b039492851690851611156107f957604051915f80602085016327b7cf8560e01b81527f33e0e214aaaa311945afafd84672c570c653a094e74e911ed49689d566f71cd39586602482015260248152613ac681612f99565b51906a636f6e736f6c652e6c6f675afa508051915160409182015182519387166001600160a01b0390811660208601908152928816169284019290925262ffffff909116606083015290613b2781608081015b03601f19810183528261306a565b5190209060405191602083019360ff60f81b85526001600160601b03199060601b1660218401526035830152605582015260558152613b6581613034565b5190201690565b916040519160208301936001600160601b03199060601b16845260e81b603483015260e81b6037820152601a81526135f481612fe3565b600160ff1b81146117df575f0390565b90811560018380041417156117df57565b818102929181159184041417156117df57565b905f1981830981830292838083109203918083039214613c2857600160801b92828411156107f95783910990838211808203938460801b94850414911417156117df57613218920360801c17613bb3565b50505060801c90565b90600160601b905f19828409928060601b92838086109503948086039514613d4f57848311156107f957829109613c8382613c6b81613ba3565b1680930494600184805f030401908584119003613bc4565b9203041781600302916003830481036117df576002809318613ca58183613bc4565b84038481116117df57613cb791613bc4565b613cc18183613bc4565b84038481116117df57613cd391613bc4565b613cdd8183613bc4565b84038481116117df57613cef91613bc4565b613cf98183613bc4565b84038481116117df57613d0b91613bc4565b613d158183613bc4565b8403908482116117df57613d3391613d2c91613bc4565b8092613bc4565b83039283116117df5761321892613d4991613bc4565b90613bc4565b5050809250156107f9570490565b5f198282099082810292838084109303928084039314613db157600160601b91838311156107f9570982811191828103928360a01b938404600160a01b14911417156117df57613218920360601c17613bb3565b50505060601c90565b915f198284099282810292838086109503948086039514613d4f57848311156107f957829109613c8382613c6b81613ba3565b5f808093819382604051613e0081612ffe565b525af1613e0b6137db565b5015613e1357565b60405162461bcd60e51b815260206004820152600360248201526253544560e81b6044820152606490fd5b80516020820151604080840151815162ffffff9692959187169490936001600160a01b03908116918116613e7186612f99565b85526020850191825286850195865280613eab867f0000000000000000000000000000000000000000000000000000000000000000613a60565b1694875192633850c7bd60e01b845260e0846004818a5afa9384156140cf579089949392915f94614099575b50906001600160801b03613fcd926080880194613ef7865160020b614424565b9660a08a0197613f0a895160020b614424565b60c08c01519160e08d015182828782168882161161408e575b5050848616948287168611614042575050613f3e935061498e565b915b829e8260608c015116975160020b985160020b9d8360208c51613f6281612fe3565b8981520193338552818d5199511660208a015251168b880152511660608601525116608084015260808352613f968361304f565b86519a8b968796633c8a7d8d60e01b885260048801526024870152604486015216606484015260a0608484015260a4830190612ebf565b03815f875af1938415614038575f955f95614011575b505061367390848661010083015111159182614001575b5050613188565b6101200151111590505f80613ffa565b613673965061402d929550803d1061067257610664818361306a565b94909493905f613fe3565b85513d5f823e3d90fd5b9290939194868216115f1461408257829161406191614067959461498e565b9361494b565b808516828616101561407b57505b91613f40565b9050614075565b9150506140759261494b565b935091505f80613f23565b613fcd929194506140c06001600160801b039160e03d60e0116127a35761278f818361306a565b50505050505094919250613ed7565b89513d5f823e3d90fd5b5f818152600260205260409020546001600160a01b03169081156120bf575090565b6001600160a01b037f00000000000000000000000000000000000000000000000000000000000000008116928282168414806142dd575b1561421057505050803b156107f957604051630d0e30db60e41b8152925f91828560048185855af1948515612c50576141a7956141fc575b5060405163a9059cbb60e01b81526001600160a01b0390941660048501526024840191909152919290916020918491908290859082906044820190565b03925af180156141ef576141b9575050565b6020823d6020116141e7575b816141d26020938361306a565b810103126104d557506141e490613165565b50565b3d91506141c5565b50604051903d90823e3d90fd5b6020935061420990612fb4565b5f9261416a565b8192935094939416903082145f1461422e57505091613673926142e7565b5f94859485926040519260208401956323b872dd60e01b875260248501521660448301526064820152606481526142648161304f565b51925af16142706137db565b816142a6575b506136735760405162461bcd60e51b815260206004820152600360248201526229aa2360e91b6044820152606490fd5b80518015925082156142bb575b50505f614276565b81925090602091810103126107f95760206142d69101613165565b5f806142b3565b5085471015614132565b60405163a9059cbb60e01b602082019081526001600160a01b03909316602482015260448101939093525f9283929083906143258160648101613b19565b51925af16143316137db565b81614369575b501561433f57565b60405162461bcd60e51b815260206004820152600260248201526114d560f21b6044820152606490fd5b805180159250821561437e575b50505f614337565b81925090602091810103126107f95760206143999101613165565b5f80614376565b90916001600160a01b0390811615158061441d575b15611899575f838152600c6020526040902080546001600160601b0316606084901b6bffffffffffffffffffffffff1916179055806143f3846140d9565b169116907f8c5be1e5ebec7d5bd14f71427d1e84f3dd0314c0f7b2291e5b200ac8c7c3b9255f80a4565b505f6143b5565b60020b5f81121561492c5761443881613ba3565b620d89e881116149035760018116156148f1576001600160881b036ffffcb933bd6fad37aa2d162d1a5940015b1691600282166148c5575b600491828116614899575b6008811661486d575b60108116614841575b60208116614815575b604081166147e9575b6080908181166147be575b6101008116614793575b6102008116614768575b610400811661473d575b6108008116614712575b61100081166146e7575b61200081166146bc575b6140008116614691575b6180008116614666575b62010000811661463b575b620200008116614611575b6204000081166145d5575b6208000016614599575b505f12614576575b63ffffffff8260201c9216155f1461456d5760ff5f5b16820180921161455a57506001600160a01b031690565b601190634e487b7160e01b5f525260245ffd5b60ff6001614543565b908015614586575f19049061452d565b601282634e487b7160e01b5f525260245ffd5b6b048a170391f7dc42444e8fa2939193918281029281840414901517156145c2571c915f614525565b601183634e487b7160e01b5f525260245ffd5b936d2216e584f5fa1ea926041bedfe98908181029181830414901517156145fe57811c9361451b565b601184634e487b7160e01b5f525260245ffd5b936e5d6af8dedb81196699c329225ee604908181029181830414901517156145fe57811c93614510565b936f09aa508b5b7a84e1c677de54f3e99bc9908181029181830414901517156145fe57811c93614505565b936f31be135f97d08fd981231505542fcfa6908181029181830414901517156145fe57811c936144fa565b936f70d869a156d2a1b890bb3df62baf32f7908181029181830414901517156145fe57811c936144f0565b936fa9f746462d870fdf8a65dc1f90e061e5908181029181830414901517156145fe57811c936144e6565b936fd097f3bdfd2022b8845ad8f792aa5825908181029181830414901517156145fe57811c936144dc565b936fe7159475a2c29b7443b29c7fa6e889d9908181029181830414901517156145fe57811c936144d2565b936ff3392b0822b70005940c7a398e4b70f3908181029181830414901517156145fe57811c936144c8565b936ff987a7253ac413176f2b074cf7815e54908181029181830414901517156145fe57811c936144be565b936ffcbe86c7900a88aedcffc83b479aa3a4908181029181830414901517156145fe57811c936144b4565b936ffe5dee046a99a2a811c461f1969c3053908181029181830414901517156145fe57811c936144aa565b926fff2ea16466c96a3843ec78b326b52861908181029181830414901517156145c25760801c9261449f565b926fff973b41fa98c081472e6896dfb254c0908181029181830414901517156145c25760801c92614496565b926fffcb9843d60f6159c9db58835c926644908181029181830414901517156145c25760801c9261448d565b926fffe5caca7e10e4e61c3624eaa0941cd0908181029181830414901517156145c25760801c92614484565b926ffff2e50f5f656932ef12357cf3c7fdcc908181029181830414901517156145c25760801c9261447b565b916ffff97272373d413259a46990580e213a908181029181830414901517156117df5760801c91614470565b6001600160881b03600160801b614465565b60405162461bcd60e51b81526020600482015260016024820152601560fa1b6044820152606490fd5b80614438565b6001600160a01b0391821690821603919082116117df57565b61497492916001600160a01b039161496d918381168483161161498857614932565b1690613c31565b6001600160801b0381169081036107f95790565b90614932565b6149749291906001600160a01b0390818316828216116149c8575b6149c1906149bb838516848316613d5d565b93614932565b1691613dba565b916149a956fea264697066735822122075834e338c2dd92201a37b9515f671d555b8da10f63cf5de27e928e2cca96d7064736f6c63430008180033290decd9548b62a8d60345a988386fc84ba6bc95484008f6362f93160ef3e563b10e2d527612073b26eecdfd717e6a320cf44b4afac2b0732d9fcbe2b7fa0cf6","linkReferences":{}},"methodIdentifiers":{"DOMAIN_SEPARATOR()":"3644e515","PERMIT_TYPEHASH()":"30adf81f","WETH9()":"4aa4a4fc","approve(address,uint256)":"095ea7b3","balanceOf(address)":"70a08231","baseURI()":"6c0360eb","burn(uint256)":"42966c68","collect((uint256,address,uint128,uint128))":"fc6f7865","createAndInitializePoolIfNecessary(address,address,uint24,uint160)":"13ead562","decreaseLiquidity((uint256,uint128,uint256,uint256,uint256))":"0c49ccbe","factory()":"c45a0155","getApproved(uint256)":"081812fc","increaseLiquidity((uint256,uint256,uint256,uint256,uint256,uint256))":"219f5d17","isApprovedForAll(address,address)":"e985e9c5","isContract(address)":"16279055","mint((address,address,uint24,int24,int24,uint256,uint256,uint256,uint256,address,uint256))":"88316456","multicall(bytes[])":"ac9650d8","name()":"06fdde03","ownerOf(uint256)":"6352211e","permit(address,uint256,uint256,uint8,bytes32,bytes32)":"7ac2ff7b","positions(uint256)":"99fbab88","refundETH()":"12210e8a","safeTransferFrom(address,address,uint256)":"42842e0e","safeTransferFrom(address,address,uint256,bytes)":"b88d4fde","selfPermit(address,uint256,uint256,uint8,bytes32,bytes32)":"f3995c67","selfPermitAllowed(address,uint256,uint256,uint8,bytes32,bytes32)":"4659a494","selfPermitAllowedIfNecessary(address,uint256,uint256,uint8,bytes32,bytes32)":"a4a78f0c","selfPermitIfNecessary(address,uint256,uint256,uint8,bytes32,bytes32)":"c2e3140a","setApprovalForAll(address,bool)":"a22cb465","supportsInterface(bytes4)":"01ffc9a7","sweepToken(address,uint256,address)":"df2ab5bb","symbol()":"95d89b41","tokenByIndex(uint256)":"4f6ccce7","tokenOfOwnerByIndex(address,uint256)":"2f745c59","tokenURI(uint256)":"c87b56dd","totalSupply()":"18160ddd","transferFrom(address,address,uint256)":"23b872dd","uniswapV3MintCallback(uint256,uint256,bytes)":"d3487997","unwrapWETH9(uint256,address)":"49404b7c"},"id":84}