{
  "abi": [
    {
      "type": "constructor",
      "inputs": [
        {
          "name": "_WETH9",
          "type": "address",
          "internalType": "address"
        }
      ],
      "stateMutability": "nonpayable"
    },
    {
      "type": "function",
      "name": "WETH9",
      "inputs": [],
      "outputs": [
        {
          "name": "",
          "type": "address",
          "internalType": "address"
        }
      ],
      "stateMutability": "view"
    },
    {
      "type": "function",
      "name": "flipRatio",
      "inputs": [
        {
          "name": "token0",
          "type": "address",
          "internalType": "address"
        },
        {
          "name": "token1",
          "type": "address",
          "internalType": "address"
        },
        {
          "name": "chainId",
          "type": "uint256",
          "internalType": "uint256"
        }
      ],
      "outputs": [
        {
          "name": "",
          "type": "bool",
          "internalType": "bool"
        }
      ],
      "stateMutability": "view"
    },
    {
      "type": "function",
      "name": "tokenRatioPriority",
      "inputs": [
        {
          "name": "token",
          "type": "address",
          "internalType": "address"
        },
        {
          "name": "chainId",
          "type": "uint256",
          "internalType": "uint256"
        }
      ],
      "outputs": [
        {
          "name": "",
          "type": "int256",
          "internalType": "int256"
        }
      ],
      "stateMutability": "view"
    },
    {
      "type": "function",
      "name": "tokenURI",
      "inputs": [
        {
          "name": "positionManager",
          "type": "address",
          "internalType": "contract INonfungiblePositionManager"
        },
        {
          "name": "tokenId",
          "type": "uint256",
          "internalType": "uint256"
        }
      ],
      "outputs": [
        {
          "name": "",
          "type": "string",
          "internalType": "string"
        }
      ],
      "stateMutability": "view"
    }
  ],
  "bytecode": {
    "object": "0x60a03461007f57601f610f2c38819003918201601f19168301916001600160401b038311848410176100835780849260209460405283398101031261007f57516001600160a01b038116810361007f57608052604051610e949081610098823960805181818161022501528181610263015281816108470152610a500152f35b5f80fd5b634e487b7160e01b5f52604160045260245ffdfe6080806040526004361015610012575f80fd5b5f3560e01c9081634aa4a4fc14610835575080637e5af771146107e75780639d7b0ea8146107b85763e9dc637514610048575f80fd5b3461056b57604036600319011261056b576004356001600160a01b0381169081900361056b5760405163133f757160e31b8152602435600482015261018081602481855afa918215610518575f905f915f915f945f966106e5575b5060206004916040519283809263c45a015560e01b82525afa908115610518575f916106ab575b5060405180606081011067ffffffffffffffff606083011117610523576060810160409081526001600160a01b038481168084529087166020840181905262ffffff87169290930191909152101561056b57604051602081019060018060a01b038416825260018060a01b038616604082015262ffffff8516606082015260608152610155816108d2565b5190209060405191602083019160ff60f81b83526bffffffffffffffffffffffff199060601b16602184015260358301527fb9522ce68dced1b05442fafdf16c49d2e0755ca899b3b6a03479fe6ed2c229566055830152605582526101b9826108d2565b905190206001600160a01b0316936101d14683610a41565b6101db4686610a41565b1291821594855f146106a45780955b1561069c5750955b604051633850c7bd60e01b81529160e0836004818a5afa928315610518575f9361060b575b506001600160a01b038681167f0000000000000000000000000000000000000000000000000000000000000000909116036105fc576102546109c0565b935b6001600160a01b038981167f0000000000000000000000000000000000000000000000000000000000000000909116036105ed576102926109c0565b985b60405163313ce56760e01b81526020816004816001600160a01b038d165afa908115610518575f916105b3575b5060405163313ce56760e01b8152966020886004816001600160a01b0387165afa918215610518575f92610577575b6040516334324e9f60e21b815298506020896004818f5afa988915610518575f99610537575b506040519c8d67ffffffffffffffff6101c08281810110920111176105235760808e60ff9694879562ffffff9f6101c08401604052602435845260018060a01b0316602084015260018060a01b03166040830152606082015201521660a08c01521660c08a015260e089015260020b61010088015260020b61012087015260020b61014086015260020b610160850152166101808301526101a08201525f60405180809363c49917d760e01b8252602060048301528051602483015260018060a01b03602082015116604483015260018060a01b03604082015116606483015261042a61041460608301516101c060848601526101e48501906108ad565b60808301518482036023190160a48601526108ad565b60a082015160ff90811660c485015260c08301511660e484015260e08201511515610104840152610100820151600290810b610124850152610120830151810b610144850152610140830151810b610164850152610160830151900b61018484015261018082015162ffffff166101a48401526101a0909101516001600160a01b03166101c4830152038173__$d447778c4356236dd94d2977730faa3c46$__5af48015610518576104f2915f916104f6575b506040519182916020835260208301906108ad565b0390f35b61051291503d805f833e61050a8183610926565b8101906109df565b5f6104dd565b6040513d5f823e3d90fd5b634e487b7160e01b5f52604160045260245ffd5b9098506020813d60201161056f575b8161055360209383610926565b8101031261056b576105649061095c565b975f610316565b5f80fd5b3d9150610546565b91506020883d6020116105ab575b8161059260209383610926565b8101031261056b576105a5600498610996565b916102f0565b3d9150610585565b90506020813d6020116105e5575b816105ce60209383610926565b8101031261056b576105df90610996565b5f6102c1565b3d91506105c1565b6105f689610b35565b98610294565b61060586610b35565b93610256565b90925060e0813d60e011610694575b8161062760e09383610926565b8101031261056b5780516001600160a01b0381160361056b5760c061064e6020830161095c565b9161065b60408201610987565b5061066860608201610987565b5061067560808201610987565b5061068260a08201610996565b5001518015150361056b57915f610217565b3d915061061a565b9050956101f2565b81956101ea565b90506020813d6020116106dd575b816106c660209383610926565b8101031261056b576106d790610948565b5f6100ca565b3d91506106b9565b94509450505050610180813d610180116107b0575b816107086101809383610926565b8101031261056b5780516bffffffffffffffffffffffff81160361056b5761073260208201610948565b5061073f60408201610948565b61074b60608301610948565b9060808301519162ffffff8316830361056b576004602061076e60a0870161095c565b936107a361016061078160c08a0161095c565b9861078e60e0820161096a565b5061079c610140820161096a565b500161096a565b50929493959691506100a3565b3d91506106fa565b3461056b57604036600319011261056b5760206107df6107d6610876565b60243590610a41565b604051908152f35b3461056b57606036600319011261056b57610800610876565b6024356001600160a01b038116810361056b5761082c6020926108266044358092610a41565b92610a41565b12604051908152f35b3461056b575f36600319011261056b577f00000000000000000000000000000000000000000000000000000000000000006001600160a01b03168152602090f35b600435906001600160a01b038216820361056b57565b5f5b83811061089d5750505f910152565b818101518382015260200161088e565b906020916108c68151809281855285808601910161088c565b601f01601f1916010190565b6080810190811067ffffffffffffffff82111761052357604052565b6040810190811067ffffffffffffffff82111761052357604052565b6020810190811067ffffffffffffffff82111761052357604052565b90601f8019910116810190811067ffffffffffffffff82111761052357604052565b51906001600160a01b038216820361056b57565b51908160020b820361056b57565b51906fffffffffffffffffffffffffffffffff8216820361056b57565b519061ffff8216820361056b57565b519060ff8216820361056b57565b67ffffffffffffffff811161052357601f01601f191660200190565b604051906109cd826108ee565b600382526208aa8960eb1b6020830152565b60208183031261056b5780519067ffffffffffffffff821161056b570181601f8201121561056b578051610a12816109a4565b92610a206040519485610926565b8184526020828401011161056b57610a3e916020808501910161088c565b90565b6001600160a01b0390811691907f0000000000000000000000000000000000000000000000000000000000000000168214610b2d57600114610a8257505f90565b73a0b86991c6218b36c1d19d4a2e9eb0ce3606eb488103610aa4575061012c90565b73dac17f958d2ee523a2206206994597c13d831ec78103610ac5575060c890565b736b175474e89094c44da98b954eedeac495271d0f8103610ae65750606490565b738daebade922df735c38c80c7ebd708af50815faa8103610b08575060c71990565b732260fac5e5542a773aa44fbcfedf7c193bc2c59903610b295761012b1990565b5f90565b505060631990565b610b3e81610cc8565b90815115610b4a575090565b604051929150610b59836108ee565b60068352602036818501376001600160a01b03165f5b600380821015610c4e576013828103908111610c3a576001600160fd1b0381168103610c3a5783911b1c60ff60049160f0811682821603918211610c2757600f610bbb91841c16610c86565b600184811b93909290916001600160ff1b0386168603610c275790610bec915f1a610be6868b610c61565b53610c86565b918301809311610c14575090610c09610c0f93925f1a9187610c61565b53610c53565b610b6f565b601190634e487b7160e01b5f525260245ffd5b601183634e487b7160e01b5f525260245ffd5b634e487b7160e01b5f52601160045260245ffd5b505050565b5f198114610c3a5760010190565b908151811015610c72570160200190565b634e487b7160e01b5f52603260045260245ffd5b60ff16600a811015610cad5760300160ff8111610c3a5760f81b6001600160f81b03191690565b60370160ff8111610c3a5760f81b6001600160f81b03191690565b604080516395d89b4160e01b602080830191825260048352929391610cec816108ee565b5f928392839251915afa3d15610e56573d90610d07826109a4565b91610d1486519384610926565b82523d838584013e5b158015610e4d575b610e3e578051838103610e0e57508281805181010312610e0a5782015191835190610d4f826108ee565b8082528036818401378293835b828110610dca575050610d7a610d71856109a4565b95519586610926565b838552601f19610d89856109a4565b01903690860137815b838110610da0575050505090565b610dc5906001600160f81b0319610db78285610c61565b5116841a610c098288610c61565b610d92565b81811a60f881901b6001600160f81b031916610df0575b50610deb90610c53565b610d5c565b86610e0391610c09610deb949988610c61565b9590610de1565b5080fd5b8481959492939511610e2d575050505190610e288261090a565b815290565b610a3e9450820181019250016109df565b509190505190610e288261090a565b50805115610d25565b606090610d1d56fea2646970667358221220449809b06e5f8b7915feb485bb4c181a819009924ef5441d54e2a041005d4dd164736f6c63430008150033",
    "linkReferences": {
      "src/libraries/NFTDescriptor.sol": {
        "NFTDescriptor": [
          {
            "start": 1359,
            "length": 20
          }
        ]
      }
    }
  },
  "methodIdentifiers": {
    "WETH9()": "4aa4a4fc",
    "flipRatio(address,address,uint256)": "7e5af771",
    "tokenRatioPriority(address,uint256)": "9d7b0ea8",
    "tokenURI(address,uint256)": "e9dc6375"
  },
  "id": 52
}