{
  "abi": [
    {
      "type": "constructor",
      "inputs": [
        {
          "name": "_factory",
          "type": "address",
          "internalType": "address"
        },
        {
          "name": "_WETH9",
          "type": "address",
          "internalType": "address"
        }
      ],
      "stateMutability": "nonpayable"
    },
    {
      "type": "function",
      "name": "WETH9",
      "inputs": [],
      "outputs": [
        {
          "name": "",
          "type": "address",
          "internalType": "address"
        }
      ],
      "stateMutability": "view"
    },
    {
      "type": "function",
      "name": "factory",
      "inputs": [],
      "outputs": [
        {
          "name": "",
          "type": "address",
          "internalType": "address"
        }
      ],
      "stateMutability": "view"
    },
    {
      "type": "function",
      "name": "quoteExactInput",
      "inputs": [
        {
          "name": "path",
          "type": "bytes",
          "internalType": "bytes"
        },
        {
          "name": "amountIn",
          "type": "uint256",
          "internalType": "uint256"
        }
      ],
      "outputs": [
        {
          "name": "amountOut",
          "type": "uint256",
          "internalType": "uint256"
        }
      ],
      "stateMutability": "nonpayable"
    },
    {
      "type": "function",
      "name": "quoteExactInputSingle",
      "inputs": [
        {
          "name": "tokenIn",
          "type": "address",
          "internalType": "address"
        },
        {
          "name": "tokenOut",
          "type": "address",
          "internalType": "address"
        },
        {
          "name": "fee",
          "type": "uint24",
          "internalType": "uint24"
        },
        {
          "name": "amountIn",
          "type": "uint256",
          "internalType": "uint256"
        },
        {
          "name": "sqrtPriceLimitX96",
          "type": "uint160",
          "internalType": "uint160"
        }
      ],
      "outputs": [
        {
          "name": "amountOut",
          "type": "uint256",
          "internalType": "uint256"
        }
      ],
      "stateMutability": "nonpayable"
    },
    {
      "type": "function",
      "name": "quoteExactOutput",
      "inputs": [
        {
          "name": "path",
          "type": "bytes",
          "internalType": "bytes"
        },
        {
          "name": "amountOut",
          "type": "uint256",
          "internalType": "uint256"
        }
      ],
      "outputs": [
        {
          "name": "amountIn",
          "type": "uint256",
          "internalType": "uint256"
        }
      ],
      "stateMutability": "nonpayable"
    },
    {
      "type": "function",
      "name": "quoteExactOutputSingle",
      "inputs": [
        {
          "name": "tokenIn",
          "type": "address",
          "internalType": "address"
        },
        {
          "name": "tokenOut",
          "type": "address",
          "internalType": "address"
        },
        {
          "name": "fee",
          "type": "uint24",
          "internalType": "uint24"
        },
        {
          "name": "amountOut",
          "type": "uint256",
          "internalType": "uint256"
        },
        {
          "name": "sqrtPriceLimitX96",
          "type": "uint160",
          "internalType": "uint160"
        }
      ],
      "outputs": [
        {
          "name": "amountIn",
          "type": "uint256",
          "internalType": "uint256"
        }
      ],
      "stateMutability": "nonpayable"
    },
    {
      "type": "function",
      "name": "uniswapV3SwapCallback",
      "inputs": [
        {
          "name": "amount0Delta",
          "type": "int256",
          "internalType": "int256"
        },
        {
          "name": "amount1Delta",
          "type": "int256",
          "internalType": "int256"
        },
        {
          "name": "path",
          "type": "bytes",
          "internalType": "bytes"
        }
      ],
      "outputs": [],
      "stateMutability": "view"
    }
  ],
  "bytecode": {
    "object": "0x60c03461008057601f610db538819003918201601f19168301916001600160401b0383118484101761008557808492604094855283398101031261008057610052602061004b8361009b565b920161009b565b9060805260a052604051610d0590816100b0823960805181818160df01526101d9015260a0518161021c0152f35b600080fd5b634e487b7160e01b600052604160045260246000fd5b51906001600160a01b03821682036100805756fe604060808152600436101561001357600080fd5b600090813560e01c80632f80bb1d1461026957806330d07f211461024b5780634aa4a4fc14610208578063c45a0155146101c5578063cdca1753146101aa578063f7729d43146101855763fa461e331461006c57600080fd5b34610181576060366003190112610181576004359060243560443567ffffffffffffffff811161017d576100a4903690600401610310565b84841390818015610174575b15610170576100c16100dd916108b9565b909491936001600160a01b039390918491610103918888610b7d565b7f0000000000000000000000000000000000000000000000000000000000000000610bd9565b16330361016c5715610153576101198291610411565b9593169116105b1561012f576020838351908152fd5b9183549081610143575b6020848451908152fd5b0361014f578280610139565b8280fd5b946101618291949394610411565b959316911610610120565b8780fd5b8580fd5b508583136100b0565b8480fd5b5080fd5b5034610181576020906101a361019a3661038e565b93929092610854565b9051908152f35b5034610181576020906101a36101bf3661035c565b9061076e565b5034610181578160031936011261018157517f00000000000000000000000000000000000000000000000000000000000000006001600160a01b03168152602090f35b5034610181578160031936011261018157517f00000000000000000000000000000000000000000000000000000000000000006001600160a01b03168152602090f35b5034610181576020906101a36102603661038e565b9392909261064e565b5034610181576020906101a361027e3661035c565b906103df565b6060810190811067ffffffffffffffff8211176102a057604052565b634e487b7160e01b600052604160045260246000fd5b6080810190811067ffffffffffffffff8211176102a057604052565b90601f8019910116810190811067ffffffffffffffff8211176102a057604052565b67ffffffffffffffff81116102a057601f01601f191660200190565b81601f8201121561035757803590610327826102f4565b9261033560405194856102d2565b8284526020838301011161035757816000926020809301838601378301015290565b600080fd5b6040600319820112610357576004359067ffffffffffffffff82116103575761038791600401610310565b9060243590565b60a0906003190112610357576001600160a01b03600435818116810361035757916024358281168103610357579160443562ffffff8116810361035757916064359160843590811681036103575790565b6103f9604282511015926103f2836108b9565b919061053e565b911561040d5761040890610967565b6103df565b5090565b600160ff1b81146104225760000390565b634e487b7160e01b600052601160045260246000fd5b606091821b6bffffffffffffffffffffffff19908116825260e89390931b6001600160e81b031916601482015292901b166017820152602b0190565b9190826040910312610357576020825192015190565b60005b83811061049d5750506000910152565b818101518382015260200161048d565b906020916104c68151809281855285808601910161048a565b601f01601f1916010190565b6001600160a01b039182168152911515602083015260408201929092529116606082015260a06080820181905261050b929101906104ad565b90565b3d15610539573d9061051f826102f4565b9161052d60405193846102d2565b82523d6000602084013e565b606090565b600084815594938593926001600160a01b0380821681851610906105666100dd878588610b7d565b1692600160ff1b81101561064a576040949392916105b56105878993610411565b93821561062c576105a76401000276a4975b89519a8b9360208501610438565b03601f1981018952886102d2565b6105d5865197889687958694630251596160e31b865230600487016104d2565b03925af190816105fe575b506105fb5761050b9192506105f361050e565b908055610a4c565b50565b61061f9060403d604011610625575b61061781836102d2565b810190610474565b506105e0565b503d61060d565b6105a773fffd8963efd1fc6a506488495d951d5263988d2597610599565b8680fd5b600095946001600160a01b03808216159588959490929180821681861610919088610766575b6106826100dd888489610b7d565b1693600160ff1b81101561016c57916106cb88926106a4604098979695610411565b948b1561075c5750821561073f576105a76401000276a45b9789519a8b9360208501610438565b6106eb865197889687958694630251596160e31b865230600487016104d2565b03925af19081610721575b5061071d5761050b92935061070961050e565b91610715575b50610a4c565b80553861070f565b5050565b6107399060403d6040116106255761061781836102d2565b506106f6565b6105a773fffd8963efd1fc6a506488495d951d5263988d256106bc565b6105a79097610599565b848855610674565b61078760428251101592610781836108b9565b9161079b565b911561040d5761079690610967565b61076e565b6000936001600160a01b0380841681841610939291906107bf6100dd878686610b7d565b1691600160ff1b821015610357576040946107f560009282841461062c576105a76401000276a49789519a8b9360208501610438565b610815865197889687958694630251596160e31b865230600487016104d2565b03925af19081610836575b5061050b575061050b61083161050e565b610a4c565b61084e9060403d6040116106255761061781836102d2565b50610820565b600094929390926001600160a01b039190838316838616108361087b6100dd89888a610b7d565b1693600160ff1b841015610357576040966000936107f592811661075c575082841461073f576105a76401000276a49789519a8b9360208501610438565b9060148251106108ee57602082015160601c91601781511061092b57601781015190602b8151106108ee576037015160601c91565b60405162461bcd60e51b8152602060048201526015602482015274746f416464726573735f6f75744f66426f756e647360581b6044820152606490fd5b60405162461bcd60e51b8152602060048201526014602482015273746f55696e7432345f6f75744f66426f756e647360601b6044820152606490fd5b805160161991828201908282116104225760088301808311610422578261098f911015610b40565b82601711610422576109a46017841015610b40565b82815110610a1357601783036109c95750505050604051600081526020810160405290565b601760405194601f8416801560051b9182828901019687010193010101905b808410610a005750508252601f01601f191660405290565b90928351815260208091019301906109e8565b60405162461bcd60e51b8152602060048201526011602482015270736c6963655f6f75744f66426f756e647360781b6044820152606490fd5b805190602091828103610a6b5750818180518101031261035757015190565b6044839110610b095760048201518201918181602485019403126103575760248101519067ffffffffffffffff8211610357570182604382011215610357576024810151610ab8816102f4565b93610ac660405195866102d2565b8185526044828401011161035757610ae4916044848601910161048a565b610b0560405192839262461bcd60e51b8452600484015260248301906104ad565b0390fd5b6064906040519062461bcd60e51b82526004820152601060248201526f2ab732bc3832b1ba32b21032b93937b960811b6044820152fd5b15610b4757565b60405162461bcd60e51b815260206004820152600e60248201526d736c6963655f6f766572666c6f7760901b6044820152606490fd5b9162ffffff91600060408051610b9281610284565b8281526020810183905201526001600160a01b039080821685831611610bd3575b8160405195610bc187610284565b16855216602084015216604082015290565b93610bb3565b81516020830180516001600160a01b039492851690851611156103575760405191600080602085016327b7cf8560e01b81527f33e0e214aaaa311945afafd84672c570c653a094e74e911ed49689d566f71cd39586602482015260248152610c4081610284565b51906a636f6e736f6c652e6c6f675afa5062ffffff604086808451169451169201511660405191602083019384526040830152606082015260608152610c85816102b6565b5190209060405191602083019360ff60f81b85526bffffffffffffffffffffffff199060601b1660218401526035830152605582015260558152610cc8816102b6565b519020169056fea2646970667358221220f2302b979a2c5cecf89c6c593bb4dce7150119a09e514d431493f4683e65899664736f6c63430008180033",
    "linkReferences": {}
  },
  "methodIdentifiers": {
    "WETH9()": "4aa4a4fc",
    "factory()": "c45a0155",
    "quoteExactInput(bytes,uint256)": "cdca1753",
    "quoteExactInputSingle(address,address,uint24,uint256,uint160)": "f7729d43",
    "quoteExactOutput(bytes,uint256)": "2f80bb1d",
    "quoteExactOutputSingle(address,address,uint24,uint256,uint160)": "30d07f21",
    "uniswapV3SwapCallback(int256,int256,bytes)": "fa461e33"
  },
  "id": 114
}