{
  "abi": [
    {
      "type": "constructor",
      "inputs": [
        {
          "name": "_factory",
          "type": "address",
          "internalType": "address"
        },
        {
          "name": "_WETH9",
          "type": "address",
          "internalType": "address"
        }
      ],
      "stateMutability": "nonpayable"
    },
    {
      "type": "function",
      "name": "WETH9",
      "inputs": [],
      "outputs": [
        {
          "name": "",
          "type": "address",
          "internalType": "address"
        }
      ],
      "stateMutability": "view"
    },
    {
      "type": "function",
      "name": "factory",
      "inputs": [],
      "outputs": [
        {
          "name": "",
          "type": "address",
          "internalType": "address"
        }
      ],
      "stateMutability": "view"
    },
    {
      "type": "function",
      "name": "quoteExactInput",
      "inputs": [
        {
          "name": "path",
          "type": "bytes",
          "internalType": "bytes"
        },
        {
          "name": "amountIn",
          "type": "uint256",
          "internalType": "uint256"
        }
      ],
      "outputs": [
        {
          "name": "amountOut",
          "type": "uint256",
          "internalType": "uint256"
        },
        {
          "name": "sqrtPriceX96AfterList",
          "type": "uint160[]",
          "internalType": "uint160[]"
        },
        {
          "name": "initializedTicksCrossedList",
          "type": "uint32[]",
          "internalType": "uint32[]"
        },
        {
          "name": "gasEstimate",
          "type": "uint256",
          "internalType": "uint256"
        }
      ],
      "stateMutability": "nonpayable"
    },
    {
      "type": "function",
      "name": "quoteExactInputSingle",
      "inputs": [
        {
          "name": "params",
          "type": "tuple",
          "internalType": "struct IQuoterV2.QuoteExactInputSingleParams",
          "components": [
            {
              "name": "tokenIn",
              "type": "address",
              "internalType": "address"
            },
            {
              "name": "tokenOut",
              "type": "address",
              "internalType": "address"
            },
            {
              "name": "amountIn",
              "type": "uint256",
              "internalType": "uint256"
            },
            {
              "name": "fee",
              "type": "uint24",
              "internalType": "uint24"
            },
            {
              "name": "sqrtPriceLimitX96",
              "type": "uint160",
              "internalType": "uint160"
            }
          ]
        }
      ],
      "outputs": [
        {
          "name": "amountOut",
          "type": "uint256",
          "internalType": "uint256"
        },
        {
          "name": "sqrtPriceX96After",
          "type": "uint160",
          "internalType": "uint160"
        },
        {
          "name": "initializedTicksCrossed",
          "type": "uint32",
          "internalType": "uint32"
        },
        {
          "name": "gasEstimate",
          "type": "uint256",
          "internalType": "uint256"
        }
      ],
      "stateMutability": "nonpayable"
    },
    {
      "type": "function",
      "name": "quoteExactOutput",
      "inputs": [
        {
          "name": "path",
          "type": "bytes",
          "internalType": "bytes"
        },
        {
          "name": "amountOut",
          "type": "uint256",
          "internalType": "uint256"
        }
      ],
      "outputs": [
        {
          "name": "amountIn",
          "type": "uint256",
          "internalType": "uint256"
        },
        {
          "name": "sqrtPriceX96AfterList",
          "type": "uint160[]",
          "internalType": "uint160[]"
        },
        {
          "name": "initializedTicksCrossedList",
          "type": "uint32[]",
          "internalType": "uint32[]"
        },
        {
          "name": "gasEstimate",
          "type": "uint256",
          "internalType": "uint256"
        }
      ],
      "stateMutability": "nonpayable"
    },
    {
      "type": "function",
      "name": "quoteExactOutputSingle",
      "inputs": [
        {
          "name": "params",
          "type": "tuple",
          "internalType": "struct IQuoterV2.QuoteExactOutputSingleParams",
          "components": [
            {
              "name": "tokenIn",
              "type": "address",
              "internalType": "address"
            },
            {
              "name": "tokenOut",
              "type": "address",
              "internalType": "address"
            },
            {
              "name": "amount",
              "type": "uint256",
              "internalType": "uint256"
            },
            {
              "name": "fee",
              "type": "uint24",
              "internalType": "uint24"
            },
            {
              "name": "sqrtPriceLimitX96",
              "type": "uint160",
              "internalType": "uint160"
            }
          ]
        }
      ],
      "outputs": [
        {
          "name": "amountIn",
          "type": "uint256",
          "internalType": "uint256"
        },
        {
          "name": "sqrtPriceX96After",
          "type": "uint160",
          "internalType": "uint160"
        },
        {
          "name": "initializedTicksCrossed",
          "type": "uint32",
          "internalType": "uint32"
        },
        {
          "name": "gasEstimate",
          "type": "uint256",
          "internalType": "uint256"
        }
      ],
      "stateMutability": "nonpayable"
    },
    {
      "type": "function",
      "name": "uniswapV3SwapCallback",
      "inputs": [
        {
          "name": "amount0Delta",
          "type": "int256",
          "internalType": "int256"
        },
        {
          "name": "amount1Delta",
          "type": "int256",
          "internalType": "int256"
        },
        {
          "name": "path",
          "type": "bytes",
          "internalType": "bytes"
        }
      ],
      "outputs": [],
      "stateMutability": "view"
    }
  ],
  "bytecode": {
    "object": "0x60c03461008757601f6118b638819003918201601f19168301916001600160401b0383118484101761008c57808492604094855283398101031261008757610052602061004b836100a2565b92016100a2565b9060805260a0526040516117ff90816100b782396080518181816103820152818161045a0152610e2d015260a05181609a0152f35b600080fd5b634e487b7160e01b600052604160045260246000fd5b51906001600160a01b03821682036100875756fe6080604052600436101561001257600080fd5b6000803560e01c9081632f80bb1d146100cc5781634aa4a4fc1461008557508063bd21704a14610080578063c45a01551461007b578063c6a5026a14610076578063cdca1753146100715763fa461e331461006c57600080fd5b6103f0565b6103d6565b6103b1565b61036c565b610312565b346100c957806003193601126100c9576040517f00000000000000000000000000000000000000000000000000000000000000006001600160a01b03168152602090f35b80fd5b346100c9576100f66100e66100e0366101d7565b9061066a565b9060409492945194859485610209565b0390f35b634e487b7160e01b600052604160045260246000fd5b60a0810190811067ffffffffffffffff82111761012c57604052565b6100fa565b6060810190811067ffffffffffffffff82111761012c57604052565b90601f8019910116810190811067ffffffffffffffff82111761012c57604052565b67ffffffffffffffff811161012c57601f01601f191660200190565b81601f820112156101d2578035906101a28261016f565b926101b0604051948561014d565b828452602083830101116101d257816000926020809301838601378301015290565b600080fd5b60406003198201126101d2576004359067ffffffffffffffff82116101d2576102029160040161018b565b9060243590565b94939290916080860192865260209260808488015281518091528360a0880192019060005b81811061027c57505050858103604087015282808351928381520192019260005b8281106102625750505060609150930152565b845163ffffffff168452938101939281019260010161024f565b82516001600160a01b03168452928501929185019160010161022e565b6001600160a01b038116036101d257565b60a09060031901126101d257604051906102c382610110565b816004356102d081610299565b81526024356102de81610299565b6020820152604435604082015260643562ffffff811681036101d257606082015260806084359161030e83610299565b0152565b346101d25760a03660031901126101d2576100f6610337610332366102aa565b610870565b604080519485526001600160a01b03909316602085015263ffffffff9091169183019190915260608201529081906080820190565b346101d25760003660031901126101d2576040517f00000000000000000000000000000000000000000000000000000000000000006001600160a01b03168152602090f35b346101d25760a03660031901126101d2576100f66103376103d1366102aa565b610a85565b346101d2576100f66100e66103ea366101d7565b90610b69565b346101d25760603660031901126101d25760043560243560443567ffffffffffffffff81116101d25761042790369060040161018b565b906000906104488285139384801561059a575b61044390610c31565b610ceb565b919461047e610458848489611027565b7f00000000000000000000000000000000000000000000000000000000000000006117af565b501561056c576104bd6104b16004949360e0936104a160018060a01b039661077c565b95808216908a1610999598610e15565b6001600160a01b031690565b60405193848092633850c7bd851b82525afa928315610567576060958193829561052b575b50156104fc57505060405192835260208301526040820152fd5b939093548061051a575b505060405192835260208301526040820152fd5b6105249114610c31565b3880610506565b90945061055191935060e03d60e011610560575b610549818361014d565b810190610c55565b505050505092909293386104e2565b503d61053f565b610827565b6104bd6104b1600494979360e09361058a60018060a01b039661077c565b95808a1690821610999598610e15565b5083831361043a565b67ffffffffffffffff811161012c5760051b60200190565b906105c5826105a3565b6105d2604051918261014d565b82815280926105e3601f19916105a3565b0190602036910137565b80518210156106015760209160051b010190565b634e487b7160e01b600052603260045260246000fd5b634e487b7160e01b600052601160045260246000fd5b90601f820180921161063b57565b610617565b601701908160171161063b57565b9190820180921161063b57565b600019811461063b5760010190565b91906106fd6106f292600094600061068961068483610cd7565b6105bb565b968261072e61072861070c6107216106a46106848e99610cd7565b9a60009c8d915b62ffffff6106b889610ceb565b9193906040908151956106ca87610110565b6001600160a01b03918216875216602086015284015216606082015260808101899052610870565b95929d90938c6105ed565b6001600160a01b039091169052565b6107168d8d6105ed565b9063ffffffff169052565b889561064e565b9861065b565b9560428251101560001461077257509061074a86949392610d66565b93976106fd96939490939192909161072e916107289161070c9161072191906106f2906106ab565b9897955050505050565b600160ff1b811461063b5760000390565b91908260409103126101d2576020825192015190565b60005b8381106107b65750506000910152565b81810151838201526020016107a6565b906020916107df815180928185528580860191016107a3565b601f01601f1916010190565b6001600160a01b039182168152911515602083015260408201929092529116606082015260a060808201819052610824929101906107c6565b90565b6040513d6000823e3d90fd5b3d1561085e573d906108448261016f565b91610852604051938461014d565b82523d6000602084013e565b606090565b9190820391821161063b57565b8051602082018051606084018051600096956001600160a01b0395938616938616848110948994859485948594909361099a93926108b692919062ffffff165b91610e15565b98608084019a806108cd8d5160018060a01b031690565b1615610a79575b8b895a9b60409687966109026108f46108ef8a8d0151610e55565b61077c565b95516001600160a01b031690565b808716610a6657508215610a405761098c61094a61093c6109326401000276a45b9a5b516001600160a01b031690565b935162ffffff1690565b9b516001600160a01b031690565b89519b8c93602085019192602b936bffffffffffffffffffffffff19809360601b16845262ffffff60e81b9060e81b16601484015260601b1660178201520190565b03601f1981018a528961014d565b6109ba865198899687958694630251596160e31b865230600487016107eb565b03928d165af19182610a15575b5050610a0b575050506109fb9495506109ef6104b16108f46109e7610833565b945a90610863565b15610a03575b50610e64565b929391929091565b8055386109f5565b9450945094915050565b81610a3492903d10610a39575b610a2c818361014d565b81019061078d565b6109c7565b503d610a22565b61098c61094a61093c61093273fffd8963efd1fc6a506488495d951d5263988d25610923565b61094a61093c61093261098c939a610925565b604085015189556108d4565b80516020820180516060840180516000969591946001600160a01b03948894859485949293859392891690891681811093610ac5929062ffffff166108b0565b975a996040948594610af2610adc87870151610e55565b60808701519094906001600160a01b0316610902565b610b12865198899687958694630251596160e31b865230600487016107eb565b03928b165af19182610b4e575b5050610b47575050506109fb929350610b41610b39610833565b925a90610863565b91610e64565b9250925092565b81610b6492903d10610a3957610a2c818361014d565b610b1f565b91906106fd6106f2926000946000610b8361068483610cd7565b9682610bed61072861070c610721610b9e6106848e99610cd7565b9a60009c8d915b62ffffff610bb289610ceb565b91604094919490815195610bc587610110565b6001600160a01b03918216875216602086015284015216606082015260808101899052610a85565b95604282511015600014610772575090610c0986949392610d66565b93976106fd969394909391929091610bed916107289161070c9161072191906106f290610ba5565b156101d257565b51908160020b82036101d257565b519061ffff821682036101d257565b908160e09103126101d2578051610c6b81610299565b91610c7860208301610c38565b91610c8560408201610c46565b91610c9260608301610c46565b91610c9f60808201610c46565b9160a082015160ff811681036101d25760c09092015180151581036101d25790565b634e487b7160e01b600052601260045260246000fd5b51601319810190811161063b576017900490565b90610cfa601483511015610f66565b602082015160601c916017815110610d2a576037601782015191610d22602b82511015610f66565b015160601c91565b60405162461bcd60e51b8152602060048201526014602482015273746f55696e7432345f6f75744f66426f756e647360601b6044820152606490fd5b8051601619918282019082821161063b57610d8b82610d848161062d565b1015610faa565b610d996017610d8484610640565b610dae8151610da784610640565b1115610fe7565b60178303610dcb5750505050604051600081526020810160405290565b601760405194601f8416801560051b9182828901019687010193010101905b808410610e025750508252601f01601f191660405290565b9092835181526020809101930190610dea565b6001600160a01b0392610e5192610e2b92611027565b7f0000000000000000000000000000000000000000000000000000000000000000611083565b1690565b600160ff1b8110156101d25790565b604051633850c7bd60e01b815291939192919060e0846004816001600160a01b0389165afa93841561056757600094610f3e575b50805160608103610eca5750610eba81602080610ec394518301019101611268565b9195909661135a565b9293929190565b604411610f0657610eea816024806004610f0295015183010191016111f8565b60405162461bcd60e51b815291829160048301611257565b0390fd5b60405162461bcd60e51b815260206004820152601060248201526f2ab732bc3832b1ba32b21032b93937b960811b6044820152606490fd5b610f5891945060e03d60e01161056057610549818361014d565b505050505090509238610e98565b15610f6d57565b60405162461bcd60e51b8152602060048201526015602482015274746f416464726573735f6f75744f66426f756e647360581b6044820152606490fd5b15610fb157565b60405162461bcd60e51b815260206004820152600e60248201526d736c6963655f6f766572666c6f7760901b6044820152606490fd5b15610fee57565b60405162461bcd60e51b8152602060048201526011602482015270736c6963655f6f75744f66426f756e647360781b6044820152606490fd5b9162ffffff9160006040805161103c81610131565b8281526020810183905201526001600160a01b03908082168583161161107d575b816040519561106b87610131565b16855216602084015216604082015290565b9361105d565b81516020830180519092916001600160a01b03908116911611156101d2576111dd6111e9610824946104b19460008060405160208101906327b7cf8560e01b82527f33e0e214aaaa311945afafd84672c570c653a094e74e911ed49689d566f71cd36024820152602481526110f781610131565b51906a636f6e736f6c652e6c6f675afa5081516111379060409061112c906001600160a01b031693516001600160a01b031690565b93015162ffffff1690565b604080516001600160a01b0393841660208201908152949093169083015262ffffff166060808301919091528152601f19919061117560808261014d565b5190206040516001600160f81b03196020820190815260609690961b6bffffffffffffffffffffffff1916602182015260358101919091527f33e0e214aaaa311945afafd84672c570c653a094e74e911ed49689d566f71cd360558201529283906075820190565b0390810183528261014d565b5190206001600160a01b031690565b6020818303126101d25780519067ffffffffffffffff82116101d2570181601f820112156101d257805161122b8161016f565b92611239604051948561014d565b818452602082840101116101d25761082491602080850191016107a3565b9060206108249281815201906107c6565b908160609103126101d2578051916108246040602084015161128981610299565b9301610c38565b908160209103126101d25761082490610c38565b60020b9060020b9081156112c757627fffff19811460001983141661063b570590565b610cc1565b9060020b9081156112c75760020b0790565b60020b6101000190627fffff8213627fffff1983121761063b57565b908160209103126101d2575190565b60ff1660ff039060ff821161063b57565b91909163ffffffff8080941691160191821161063b57565b60010b617fff811461063b5760010190565b63ffffffff908116600019019190821161063b57565b6040516334324e9f60e21b8152909392600092916020816004816001600160a01b038a165afa80156105675761139991600091611790575b50836112a4565b6040516334324e9f60e21b81529094906020816004816001600160a01b038b165afa8015610567576113d3916000916117905750836112a4565b9460020b90610100928383079660008860020b12611780575b60020b9384079260008460020b12611770575b60405163299ce14b60e11b8152600886901d60010b60048201526020816024816001600160a01b038e165afa90811561056757600091611751575b5060018560ff161b16151595866116eb575b866116da575b60405163299ce14b60e11b8152600883901d60010b60048201526020816024816001600160a01b038f165afa908115610567576000916116bb575b5060018a60ff161b161515928361163f575b8361162d575b50508460081d60010b8160081d60010b128015611607575b156115e45760081d60010b9660ff169360081d60010b9260ff1693969590965b60ff60001991161b5b8360010b8760010b136115b7578360010b8760010b1461159a575b60405163299ce14b60e11b8152600188900b6004820152916020836024816001600160a01b038e165afa80156105675761154f61155c93611556926115629660009161156b575b50166117cc565b61ffff1690565b9061131a565b95611332565b946000196114e6565b61158d915060203d602011611593575b611585818361014d565b8101906112fa565b38611548565b503d61157b565b6115b16115a686611309565b60ff60001991161c90565b16611501565b50959450955050506115d4575b6115cb5790565b61082490611344565b906115de90611344565b906115c4565b9360089793971d60010b9660ff169360081d60010b9260ff1693969590966114dd565b508460081d60010b8160081d60010b1480156114bd575060ff841660ff891611156114bd565b600290810b91900b12915038806114a5565b6040516334324e9f60e21b81529093506020816004816001600160a01b038f165afa908115610567576116859161167f9160009161168c575b50836112cc565b60020b90565b159261149f565b6116ae915060203d6020116116b4575b6116a6818361014d565b810190611290565b38611678565b503d61169c565b6116d4915060203d60201161159357611585818361014d565b3861148d565b95508160020b8660020b1395611452565b6040516334324e9f60e21b81529096506020816004816001600160a01b038e165afa9081156105675761172b9161167f91600091611732575b50846112cc565b159561144c565b61174b915060203d6020116116b4576116a6818361014d565b38611724565b61176a915060203d60201161159357611585818361014d565b3861143a565b9261177a906112de565b926113ff565b9661178a906112de565b966113ec565b6117a9915060203d6020116116b4576116a6818361014d565b38611392565b6001600160a01b03916117c191611083565b16908133036101d257565b806000915b6117d9575090565b9061ffff80911690811461063b576001019060001981019080821161063b5716806117d156",
    "linkReferences": {}
  },
  "methodIdentifiers": {
    "WETH9()": "4aa4a4fc",
    "factory()": "c45a0155",
    "quoteExactInput(bytes,uint256)": "cdca1753",
    "quoteExactInputSingle((address,address,uint256,uint24,uint160))": "c6a5026a",
    "quoteExactOutput(bytes,uint256)": "2f80bb1d",
    "quoteExactOutputSingle((address,address,uint256,uint24,uint160))": "bd21704a",
    "uniswapV3SwapCallback(int256,int256,bytes)": "fa461e33"
  },
  "id": 26
}