{"abi":[{"type":"constructor","inputs":[{"name":"_factory","type":"address","internalType":"address"},{"name":"_WETH9","type":"address","internalType":"address"}],"stateMutability":"nonpayable"},{"type":"function","name":"WETH9","inputs":[],"outputs":[{"name":"","type":"address","internalType":"address"}],"stateMutability":"view"},{"type":"function","name":"factory","inputs":[],"outputs":[{"name":"","type":"address","internalType":"address"}],"stateMutability":"view"},{"type":"function","name":"quoteExactInput","inputs":[{"name":"path","type":"bytes","internalType":"bytes"},{"name":"amountIn","type":"uint256","internalType":"uint256"}],"outputs":[{"name":"amountOut","type":"uint256","internalType":"uint256"}],"stateMutability":"nonpayable"},{"type":"function","name":"quoteExactInputSingle","inputs":[{"name":"tokenIn","type":"address","internalType":"address"},{"name":"tokenOut","type":"address","internalType":"address"},{"name":"fee","type":"uint24","internalType":"uint24"},{"name":"amountIn","type":"uint256","internalType":"uint256"},{"name":"sqrtPriceLimitX96","type":"uint160","internalType":"uint160"}],"outputs":[{"name":"amountOut","type":"uint256","internalType":"uint256"}],"stateMutability":"nonpayable"},{"type":"function","name":"quoteExactOutput","inputs":[{"name":"path","type":"bytes","internalType":"bytes"},{"name":"amountOut","type":"uint256","internalType":"uint256"}],"outputs":[{"name":"amountIn","type":"uint256","internalType":"uint256"}],"stateMutability":"nonpayable"},{"type":"function","name":"quoteExactOutputSingle","inputs":[{"name":"tokenIn","type":"address","internalType":"address"},{"name":"tokenOut","type":"address","internalType":"address"},{"name":"fee","type":"uint24","internalType":"uint24"},{"name":"amountOut","type":"uint256","internalType":"uint256"},{"name":"sqrtPriceLimitX96","type":"uint160","internalType":"uint160"}],"outputs":[{"name":"amountIn","type":"uint256","internalType":"uint256"}],"stateMutability":"nonpayable"},{"type":"function","name":"uniswapV3SwapCallback","inputs":[{"name":"amount0Delta","type":"int256","internalType":"int256"},{"name":"amount1Delta","type":"int256","internalType":"int256"},{"name":"path","type":"bytes","internalType":"bytes"}],"outputs":[],"stateMutability":"view"}],"bytecode":{"object":"0x60c03461008057601f610d6538819003918201601f19168301916001600160401b0383118484101761008457808492604094855283398101031261008057610052602061004b83610098565b9201610098565b9060805260a052604051610cb890816100ad823960805181818160d901526101c3015260a051816102060152f35b5f80fd5b634e487b7160e01b5f52604160045260245ffd5b51906001600160a01b03821682036100805756fe6040608081526004361015610012575f80fd5b5f3560e01c80632f80bb1d1461025357806330d07f21146102355780634aa4a4fc146101f2578063c45a0155146101af578063cdca175314610194578063f7729d431461016f5763fa461e3314610067575f80fd5b346101495760603660031901126101495760043560243560443567ffffffffffffffff81116101495761009e9036906004016102f8565b5f831390818015610166575b15610149576100bb6100d79161086f565b909491936001600160a01b0393909184916100fd918888610b32565b7f0000000000000000000000000000000000000000000000000000000000000000610b8d565b163303610149571561014d5761011382916103f3565b9493169116105b15610129575060209151908152fd5b905f54908161013d575b6020838551908152fd5b03610149575f80610133565b5f80fd5b9361015b82919493946103f3565b94931691161061011a565b505f83136100aa565b50346101495760209061018d61018436610370565b9392909261080c565b9051908152f35b50346101495760209061018d6101a93661033e565b90610728565b5034610149575f36600319011261014957517f00000000000000000000000000000000000000000000000000000000000000006001600160a01b03168152602090f35b5034610149575f36600319011261014957517f00000000000000000000000000000000000000000000000000000000000000006001600160a01b03168152602090f35b50346101495760209061018d61024a36610370565b9392909261061b565b50346101495760209061018d6102683661033e565b906103c1565b6060810190811067ffffffffffffffff82111761028a57604052565b634e487b7160e01b5f52604160045260245ffd5b6080810190811067ffffffffffffffff82111761028a57604052565b90601f8019910116810190811067ffffffffffffffff82111761028a57604052565b67ffffffffffffffff811161028a57601f01601f191660200190565b81601f820112156101495780359061030f826102dc565b9261031d60405194856102ba565b8284526020838301011161014957815f926020809301838601378301015290565b6040600319820112610149576004359067ffffffffffffffff821161014957610369916004016102f8565b9060243590565b60a0906003190112610149576001600160a01b03600435818116810361014957916024358281168103610149579160443562ffffff8116810361014957916064359160843590811681036101495790565b6103db604282511015926103d48361086f565b919061051a565b91156103ef576103ea9061091d565b6103c1565b5090565b600160ff1b8114610403575f0390565b634e487b7160e01b5f52601160045260245ffd5b606091821b6bffffffffffffffffffffffff19908116825260e89390931b6001600160e81b031916601482015292901b166017820152602b0190565b9190826040910312610149576020825192015190565b5f5b83811061047a5750505f910152565b818101518382015260200161046b565b906020916104a381518092818552858086019101610469565b601f01601f1916010190565b6001600160a01b039182168152911515602083015260408201929092529116606082015260a0608082018190526104e89291019061048a565b90565b3d15610515573d906104fc826102dc565b9161050a60405193846102ba565b82523d5f602084013e565b606090565b5f848155936001600160a01b0383811683821610939061053e6100d7878487610b32565b1691600160ff1b8110156101495760409461058b61055c5f936103f3565b938284146105fd5761057d6401000276a4975b89519a8b9360208501610417565b03601f1981018952886102ba565b6105ab865197889687958694630251596160e31b865230600487016104af565b03925af190816105cf575b506104e857506104e86105c76104eb565b5f8055610a01565b6105f09060403d6040116105f6575b6105e881836102ba565b810190610453565b506105b6565b503d6105de565b61057d73fffd8963efd1fc6a506488495d951d5263988d259761056f565b5f95946001600160a01b0380821615959381811682851610929187610720575b6106496100d7888488610b32565b1692600160ff1b861015610149576106905f926106676040986103f3565b948a851461071657508284146106f95761057d6401000276a45b9789519a8b9360208501610417565b6106b0865197889687958694630251596160e31b865230600487016104af565b03925af190816106db575b506106d8576104e89192506106ce6104eb565b906105c757610a01565b50565b6106f39060403d6040116105f6576105e881836102ba565b506106bb565b61057d73fffd8963efd1fc6a506488495d951d5263988d25610681565b61057d909761056f565b855f5561063b565b6107416042825110159261073b8361086f565b91610755565b91156103ef576107509061091d565b610728565b5f936001600160a01b0380841681841610939291906107786100d7878686610b32565b1691600160ff1b821015610149576040946107ad5f928284146105fd5761057d6401000276a49789519a8b9360208501610417565b6107cd865197889687958694630251596160e31b865230600487016104af565b03925af190816107ee575b506104e857506104e86107e96104eb565b610a01565b6108069060403d6040116105f6576105e881836102ba565b506107d8565b5f94929390926001600160a01b03919083831683861610836108326100d789888a610b32565b1693600160ff1b841015610149576040965f936107ad92811661071657508284146106f95761057d6401000276a49789519a8b9360208501610417565b9060148251106108a457602082015160601c9160178151106108e157601781015190602b8151106108a4576037015160601c91565b60405162461bcd60e51b8152602060048201526015602482015274746f416464726573735f6f75744f66426f756e647360581b6044820152606490fd5b60405162461bcd60e51b8152602060048201526014602482015273746f55696e7432345f6f75744f66426f756e647360601b6044820152606490fd5b8051601619918282019082821161040357600883018083116104035782610945911015610af5565b826017116104035761095a6017841015610af5565b828151106109c8576017830361097e57505050506040515f81526020810160405290565b601760405194601f8416801560051b9182828901019687010193010101905b8084106109b55750508252601f01601f191660405290565b909283518152602080910193019061099d565b60405162461bcd60e51b8152602060048201526011602482015270736c6963655f6f75744f66426f756e647360781b6044820152606490fd5b805190602091828103610a205750818180518101031261014957015190565b6044839110610abe5760048201518201918181602485019403126101495760248101519067ffffffffffffffff8211610149570182604382011215610149576024810151610a6d816102dc565b93610a7b60405195866102ba565b8185526044828401011161014957610a999160448486019101610469565b610aba60405192839262461bcd60e51b84526004840152602483019061048a565b0390fd5b6064906040519062461bcd60e51b82526004820152601060248201526f2ab732bc3832b1ba32b21032b93937b960811b6044820152fd5b15610afc57565b60405162461bcd60e51b815260206004820152600e60248201526d736c6963655f6f766572666c6f7760901b6044820152606490fd5b9162ffffff915f60408051610b468161026e565b8281526020810183905201526001600160a01b039080821685831611610b87575b8160405195610b758761026e565b16855216602084015216604082015290565b93610b67565b81516020830180516001600160a01b0394928516908516111561014957604051915f80602085016327b7cf8560e01b81527f33e0e214aaaa311945afafd84672c570c653a094e74e911ed49689d566f71cd39586602482015260248152610bf38161026e565b51906a636f6e736f6c652e6c6f675afa5062ffffff604086808451169451169201511660405191602083019384526040830152606082015260608152610c388161029e565b5190209060405191602083019360ff60f81b85526bffffffffffffffffffffffff199060601b1660218401526035830152605582015260558152610c7b8161029e565b519020169056fea2646970667358221220274ae8ca91d1ac337bf99b6151cd30cd79ca5a7b7acec0f5339d19fc02c1e6b064736f6c63430008180033","linkReferences":{}},"methodIdentifiers":{"WETH9()":"4aa4a4fc","factory()":"c45a0155","quoteExactInput(bytes,uint256)":"cdca1753","quoteExactInputSingle(address,address,uint24,uint256,uint160)":"f7729d43","quoteExactOutput(bytes,uint256)":"2f80bb1d","quoteExactOutputSingle(address,address,uint24,uint256,uint160)":"30d07f21","uniswapV3SwapCallback(int256,int256,bytes)":"fa461e33"},"id":118}