{"abi":[{"type":"constructor","inputs":[{"name":"_factory","type":"address","internalType":"address"},{"name":"_WETH9","type":"address","internalType":"address"}],"stateMutability":"nonpayable"},{"type":"function","name":"WETH9","inputs":[],"outputs":[{"name":"","type":"address","internalType":"address"}],"stateMutability":"view"},{"type":"function","name":"factory","inputs":[],"outputs":[{"name":"","type":"address","internalType":"address"}],"stateMutability":"view"},{"type":"function","name":"quoteExactInput","inputs":[{"name":"path","type":"bytes","internalType":"bytes"},{"name":"amountIn","type":"uint256","internalType":"uint256"}],"outputs":[{"name":"amountOut","type":"uint256","internalType":"uint256"},{"name":"sqrtPriceX96AfterList","type":"uint160[]","internalType":"uint160[]"},{"name":"initializedTicksCrossedList","type":"uint32[]","internalType":"uint32[]"},{"name":"gasEstimate","type":"uint256","internalType":"uint256"}],"stateMutability":"nonpayable"},{"type":"function","name":"quoteExactInputSingle","inputs":[{"name":"params","type":"tuple","internalType":"struct IQuoterV2.QuoteExactInputSingleParams","components":[{"name":"tokenIn","type":"address","internalType":"address"},{"name":"tokenOut","type":"address","internalType":"address"},{"name":"amountIn","type":"uint256","internalType":"uint256"},{"name":"fee","type":"uint24","internalType":"uint24"},{"name":"sqrtPriceLimitX96","type":"uint160","internalType":"uint160"}]}],"outputs":[{"name":"amountOut","type":"uint256","internalType":"uint256"},{"name":"sqrtPriceX96After","type":"uint160","internalType":"uint160"},{"name":"initializedTicksCrossed","type":"uint32","internalType":"uint32"},{"name":"gasEstimate","type":"uint256","internalType":"uint256"}],"stateMutability":"nonpayable"},{"type":"function","name":"quoteExactOutput","inputs":[{"name":"path","type":"bytes","internalType":"bytes"},{"name":"amountOut","type":"uint256","internalType":"uint256"}],"outputs":[{"name":"amountIn","type":"uint256","internalType":"uint256"},{"name":"sqrtPriceX96AfterList","type":"uint160[]","internalType":"uint160[]"},{"name":"initializedTicksCrossedList","type":"uint32[]","internalType":"uint32[]"},{"name":"gasEstimate","type":"uint256","internalType":"uint256"}],"stateMutability":"nonpayable"},{"type":"function","name":"quoteExactOutputSingle","inputs":[{"name":"params","type":"tuple","internalType":"struct IQuoterV2.QuoteExactOutputSingleParams","components":[{"name":"tokenIn","type":"address","internalType":"address"},{"name":"tokenOut","type":"address","internalType":"address"},{"name":"amount","type":"uint256","internalType":"uint256"},{"name":"fee","type":"uint24","internalType":"uint24"},{"name":"sqrtPriceLimitX96","type":"uint160","internalType":"uint160"}]}],"outputs":[{"name":"amountIn","type":"uint256","internalType":"uint256"},{"name":"sqrtPriceX96After","type":"uint160","internalType":"uint160"},{"name":"initializedTicksCrossed","type":"uint32","internalType":"uint32"},{"name":"gasEstimate","type":"uint256","internalType":"uint256"}],"stateMutability":"nonpayable"},{"type":"function","name":"uniswapV3SwapCallback","inputs":[{"name":"amount0Delta","type":"int256","internalType":"int256"},{"name":"amount1Delta","type":"int256","internalType":"int256"},{"name":"path","type":"bytes","internalType":"bytes"}],"outputs":[],"stateMutability":"view"}],"bytecode":{"object":"0x60c06040523462000058576200001f6200001862000142565b9062000169565b620000296200005e565b6133f46200018082396080518181816105db0152818161172f0152611b36015260a051816103bb01526133f490f35b62000064565b60405190565b5f80fd5b601f801991011690565b634e487b7160e01b5f52604160045260245ffd5b90620000929062000068565b810190811060018060401b03821117620000ab57604052565b62000072565b90620000c8620000c06200005e565b928362000086565b565b5f80fd5b60018060a01b031690565b620000e490620000ce565b90565b620000f281620000d9565b03620000fa57565b5f80fd5b905051906200010d82620000e7565b565b91906040838203126200013c57806200012f62000139925f8601620000fe565b93602001620000fe565b90565b620000ca565b6200016562003574803803806200015981620000b1565b9283398101906200010f565b9091565b90620001759162000177565b565b60805260a05256fe60806040526004361015610013575b6107cf565b61001d5f3561008c565b80632f80bb1d146100875780634aa4a4fc14610082578063bd21704a1461007d578063c45a015514610078578063c6a5026a14610073578063cdca17531461006e5763fa461e330361000e576107b4565b6106fe565b6106c5565b6105fd565b6105a0565b61040b565b610370565b60e01c90565b60405190565b5f80fd5b5f80fd5b5f80fd5b5f80fd5b5f80fd5b601f801991011690565b634e487b7160e01b5f52604160045260245ffd5b906100d4906100ac565b810190811067ffffffffffffffff8211176100ee57604052565b6100b6565b906101066100ff610092565b92836100ca565b565b67ffffffffffffffff8111610126576101226020916100ac565b0190565b6100b6565b90825f939282370152565b9092919261014b61014682610108565b6100f3565b93818552602085019082840111610167576101659261012b565b565b6100a8565b9080601f8301121561018a5781602061018793359101610136565b90565b6100a4565b90565b61019b8161018f565b036101a257565b5f80fd5b905035906101b382610192565b565b91906040838203126101f5575f8301359067ffffffffffffffff82116101f0576101e4816101ed93860161016c565b936020016101a6565b90565b6100a0565b61009c565b6102039061018f565b9052565b5190565b60209181520190565b60200190565b60018060a01b031690565b61022e9061021a565b9052565b9061023f81602093610225565b0190565b60200190565b9061026661026061025984610207565b809361020b565b92610214565b905f5b8181106102765750505090565b90919261028f6102896001928651610232565b94610243565b9101919091610269565b5190565b60209181520190565b60200190565b63ffffffff1690565b6102be906102ac565b9052565b906102cf816020936102b5565b0190565b60200190565b906102f66102f06102e984610299565b809361029d565b926102a6565b905f5b8181106103065750505090565b90919261031f61031960019286516102c2565b946102d3565b91019190916102f9565b94939161036e936103586060936103669361034b60808b01925f8c01906101fa565b89820360208b0152610249565b9087820360408901526102d9565b9401906101fa565b565b346103a5576103a161038c6103863660046101b5565b906109db565b90610398949294610092565b94859485610329565b0390f35b610098565b5f9103126103b457565b61009c565b7f000000000000000000000000000000000000000000000000000000000000000090565b6103e69061021a565b90565b6103f2906103dd565b9052565b9190610409905f602085019401906103e9565b565b3461043b5761041b3660046103aa565b6104376104266103b9565b61042e610092565b918291826103f6565b0390f35b610098565b5f80fd5b61044d816103dd565b0361045457565b5f80fd5b9050359061046582610444565b565b62ffffff1690565b61047881610467565b0361047f57565b5f80fd5b905035906104908261046f565b565b61049b8161021a565b036104a257565b5f80fd5b905035906104b382610492565b565b919060a0838203126105255761051e906104cf60a06100f3565b936104dc825f8301610458565b5f8601526104ed8260208301610458565b60208601526104ff82604083016101a6565b60408601526105118260608301610483565b60608601526080016104a6565b6080830152565b610440565b9060a08282031261054357610540915f016104b5565b90565b61009c565b6105519061021a565b9052565b61055e906102ac565b9052565b61059761059e9461058d606094989795610583608086019a5f8701906101fa565b6020850190610548565b6040830190610555565b01906101fa565b565b346105d4576105d06105bb6105b636600461052a565b610f62565b906105c7949294610092565b94859485610562565b0390f35b610098565b7f000000000000000000000000000000000000000000000000000000000000000090565b3461062d5761060d3660046103aa565b6106296106186105d9565b610620610092565b918291826103f6565b0390f35b610098565b919060a0838203126106a25761069b9061064c60a06100f3565b93610659825f8301610458565b5f86015261066a8260208301610458565b602086015261067c82604083016101a6565b604086015261068e8260608301610483565b60608601526080016104a6565b6080830152565b610440565b9060a0828203126106c0576106bd915f01610632565b90565b61009c565b346106f9576106f56106e06106db3660046106a7565b6111fc565b906106ec949294610092565b94859485610562565b0390f35b610098565b346107335761072f61071a6107143660046101b5565b90611426565b90610726949294610092565b94859485610329565b0390f35b610098565b90565b61074481610738565b0361074b57565b5f80fd5b9050359061075c8261073b565b565b916060838303126107aa57610775825f850161074f565b92610783836020830161074f565b92604082013567ffffffffffffffff81116107a5576107a2920161016c565b90565b6100a0565b61009c565b5f0190565b346107ca576107c436600461075e565b916116f6565b610098565b5f80fd5b5f90565b606090565b606090565b67ffffffffffffffff81116107f95760208091020190565b6100b6565b9061081061080b836107e1565b6100f3565b918252565b369037565b9061083f610827836107fe565b9260208061083586936107e1565b9201910390610815565b565b67ffffffffffffffff81116108595760208091020190565b6100b6565b9061087061086b83610841565b6100f3565b918252565b369037565b9061089f6108878361085e565b926020806108958693610841565b9201910390610875565b565b90565b90565b6108bb6108b66108c0926108a1565b6108a4565b61018f565b90565b6108cd60a06100f3565b90565b906108da906103dd565b9052565b906108e89061018f565b9052565b906108f690610467565b9052565b61090e610909610913926108a1565b6108a4565b61021a565b90565b906109209061021a565b9052565b634e487b7160e01b5f52603260045260245ffd5b9061094282610207565b811015610953576020809102010190565b610924565b9061096282610299565b811015610973576020809102010190565b610924565b90610982906102ac565b9052565b634e487b7160e01b5f52601160045260245ffd5b6109a96109af9193929361018f565b9261018f565b82018092116109ba57565b610986565b6109c89061018f565b5f1981146109d65760010190565b610986565b6109e36107d3565b916109ec6107d7565b506109f56107dc565b506109fe6107d3565b93610a10610a0b846119c9565b61081a565b91610a22610a1d856119c9565b61087a565b95610a2c5f6108a7565b915b600115610b1457610adc610ac392610ad5610aa7610a8b610aa2610a99610ae297610a94610a5b8f611a08565b9196909693610a825f95610a79610a706108c3565b9a5f8c016108d0565b60208a016108d0565b604088016108de565b606086016108ec565b6108fa565b60808301610916565b610f62565b91939297909793979197610abe8c918b9092610938565b610916565b610ad08d91899092610958565b610978565b939061099a565b926109bf565b94610aec81611a9b565b5f14610b0357610afb90611acb565b949190610a2e565b509192935093509193929193929190565b50929495935050565b5f90565b5f90565b610b2f90516103dd565b90565b610b3c9051610467565b90565b610b49905161021a565b90565b610b56905161018f565b90565b5f1b90565b90610b6a5f1991610b59565b9181191691161790565b610b88610b83610b8d9261018f565b6108a4565b61018f565b90565b90565b90610ba8610ba3610baf92610b74565b610b90565b8254610b5e565b9055565b610bc7610bc2610bcc9261021a565b6108a4565b61021a565b90565b610bd890610bb3565b90565b610be490610bcf565b90565b610bf090610bcf565b90565b610bfc90610738565b600160ff1b8114610c0c575f0390565b610986565b90565b610c28610c23610c2d92610c11565b6108a4565b61021a565b90565b610c4d73fffd8963efd1fc6a506488495d951d5263988d26610c14565b90565b90565b610c67610c62610c6c92610c50565b6108a4565b61021a565b90565b610c7b610c819161021a565b9161021a565b90039060018060a01b038211610c9357565b610986565b90565b610caf610caa610cb492610c98565b6108a4565b61021a565b90565b610cc56401000276a3610c9b565b90565b610cd4610cda9161021a565b9161021a565b019060018060a01b038211610ceb57565b610986565b60601b90565b610cff90610cf0565b90565b610d0b90610cf6565b90565b610d1a610d1f916103dd565b610d02565b9052565b60e81b90565b610d3290610d23565b90565b610d41610d4691610467565b610d29565b9052565b60149392610d6a8583610d62600395610d7297610d0e565b018092610d35565b018092610d0e565b0190565b60e01b90565b90505190610d898261073b565b565b9190604083820312610db35780610da7610db0925f8601610d7c565b93602001610d7c565b90565b61009c565b151590565b610dc690610db8565b9052565b610dd390610738565b9052565b5190565b60209181520190565b5f5b838110610df6575050905f910152565b806020918301518185015201610de6565b610e26610e2f602093610e3493610e1d81610dd7565b93848093610ddb565b95869101610de4565b6100ac565b0190565b9193610e6f610e869694610e65610e799497610e5b60a08801995f8901906103e9565b6020870190610dbd565b6040850190610dca565b6060830190610548565b6080818403910152610e07565b90565b610e91610092565b3d5f823e3d90fd5b90610eab610ea683610108565b6100f3565b918252565b606090565b3d5f14610ed057610ec53d610e99565b903d5f602084013e5b565b610ed8610eb0565b90610ece565b610eed610ef39193929361018f565b9261018f565b8203918211610efe57565b610986565b1b90565b91906008610f22910291610f1c5f1984610f03565b92610f03565b9181191691161790565b9190610f42610f3d610f4a93610b74565b610b90565b908354610f07565b9055565b610f6091610f5a6107d3565b91610f2c565b565b610f6a6107d3565b91610f73610b1d565b91610f7c610b21565b91610f856107d3565b91610f915f8201610b25565b610fae610fa8610fa360208501610b25565b6103dd565b916103dd565b1090610fdc610fbe5f8301610b25565b610fca60208401610b25565b610fd660608501610b32565b91611b20565b91610fe960808301610b3f565b610ffb610ff55f6108fa565b9161021a565b146111e2575b5a90604061100e85610bdb565b63128acb08906110ec5f61102130610be7565b936110f7898861104261103d6110388b8501610b4c565b611bab565b610bf3565b9061104f60808401610b3f565b61106161105b886108fa565b9161021a565b1486146111cf5785146111af57611089611079610cb7565b6110836001610c53565b90610cc8565b5b905b6110d861109b60208501610b25565b6110c96110b5896110ae60608901610b32565b9701610b25565b6110bd610092565b96879360208501610d4a565b602082018103825203846100ca565b6110e0610092565b9a8b998a988997610d76565b875260048701610e38565b03925af19081611182575b50155f1461117a576001611116575050505b565b929650925092506111619350611141608061113a611132610eb5565b935a90610ede565b9301610b3f565b61115361114d5f6108fa565b9161021a565b1461116b575b919091611be4565b9193909293929190565b6111755f80610f4e565b611159565b505050611114565b6111a29060403d81116111a8575b61119a81836100ca565b810190610d8b565b50611102565b503d611190565b6111ca6111ba610c30565b6111c46001610c53565b90610c6f565b61108a565b506111dc60808301610b3f565b9061108c565b6111f76111f160408401610b4c565b5f610b93565b611001565b6112046107d3565b9161120d610b1d565b91611216610b21565b9161121f6107d3565b9161122b5f8201610b25565b61124861124261123d60208501610b25565b6103dd565b916103dd565b10906112766112585f8301610b25565b61126460208401610b25565b61127060608501610b32565b91611b20565b9160405a9261128485610bdb565b6113585f63128acb0861136361129930610be7565b95886112ae6112a98a8401610b4c565b611bab565b906112bb60808401610b3f565b6112cd6112c7886108fa565b9161021a565b1486146114065785146113e6576112f56112e5610cb7565b6112ef6001610c53565b90610cc8565b5b905b611344611306878501610b25565b611335611321602061131a60608901610b32565b9701610b25565b611329610092565b96879360208501610d4a565b602082018103825203846100ca565b61134c610092565b9a8b998a988997610d76565b875260048701610e38565b03925af190816113b9575b50155f146113b25760016113815750505b565b9250925093506113a8925061139f611397610eb5565b915a90610ede565b90919091611be4565b9193909293929190565b505061137f565b6113d99060403d81116113df575b6113d181836100ca565b810190610d8b565b5061136e565b503d6113c7565b6114016113f1610c30565b6113fb6001610c53565b90610c6f565b6112f6565b5061141360808301610b3f565b906112f8565b61142360a06100f3565b90565b61142e6107d3565b916114376107d7565b506114406107dc565b506114496107d3565b9361145b611456846119c9565b61081a565b9161146d611468856119c9565b61087a565b956114775f6108a7565b915b6001156115635761152b611512926115246114f6611531946114f16114e86114da6114e36114a68f611a08565b9691939096939693916114d15f956114c86114bf611419565b9a5f8c016108d0565b60208a016108d0565b604088016108de565b606086016108ec565b6108fa565b60808301610916565b6111fc565b9193929790979397919761150d8c918b9092610938565b610916565b61151f8d91899092610958565b610978565b939061099a565b926109bf565b9461153b81611a9b565b5f146115525761154a90611acb565b949190611479565b509192935093509193929193929190565b50929495935050565b61158061157b611585926108a1565b6108a4565b610738565b90565b1561158f57565b5f80fd5b6115a76115a26115ac92610738565b6108a4565b61018f565b90565b905051906115bc82610492565b565b60020b90565b6115cd816115be565b036115d457565b5f80fd5b905051906115e5826115c4565b565b61ffff1690565b6115f7816115e7565b036115fe57565b5f80fd5b9050519061160f826115ee565b565b60ff1690565b61162081611611565b0361162757565b5f80fd5b9050519061163882611617565b565b61164381610db8565b0361164a57565b5f80fd5b9050519061165b8261163a565b565b60e0818303126116c857611673825f83016115af565b9261168183602084016115d8565b9261168f8160408501611602565b9261169d8260608301611602565b926116c56116ae8460808501611602565b936116bc8160a0860161162b565b9360c00161164e565b90565b61009c565b5f1c90565b90565b6116e16116e6916116cd565b6116d2565b90565b6116f390546116d5565b90565b9091611725908261170f6117095f61156c565b91610738565b138015611900575b61172090611588565b611a08565b90929192906117587f00000000000000000000000000000000000000000000000000000000000000008584908492611cc5565b508261176c6117665f61156c565b91610738565b135f146118b9576117c36117be6117d99360e0936117ae6117a96117a38a61179c611796876103dd565b916103dd565b1099611593565b9a610bf3565b611593565b969896985b969897919091611b20565b610bdb565b633850c7bd906117d1610092565b938492610d76565b825281806117e9600482016107af565b03915afa9384156118b4576060945f8093909161187c575b5091925f1461181d575060405192835260208301526040820152fd5b926118275f6116e9565b6118396118335f6108a7565b9161018f565b03611852575b5060405192835260208301526040820152fd5b6118769061187061186a6118655f6116e9565b61018f565b9161018f565b14611588565b5f61183f565b90506118a091925060e03d81116118ad575b61189881836100ca565b81019061165d565b5050505092919092611801565b503d61188e565b610e89565b6117c36117be8360e0936118f76118f26118ec6117d9989b999b6118e56118df8d6103dd565b916103dd565b1099611593565b9a610bf3565b611593565b969896986117b3565b50611720846119176119115f61156c565b91610738565b139050611717565b90565b61193661193161193b9261191f565b6108a4565b61018f565b90565b6119486014611922565b90565b90565b61196261195d6119679261194b565b6108a4565b61018f565b90565b611974600361194e565b90565b61199061198261193e565b61198a61196a565b9061099a565b90565b634e487b7160e01b5f52601260045260245ffd5b6119b36119b99161018f565b9161018f565b9081156119c4570490565b611993565b6119ef6119e16119fd926119db6107d3565b50610dd7565b6119e961193e565b90610ede565b6119f7611977565b906119a7565b90565b5f90565b5f90565b90611a11611a00565b50611a1a611a00565b50611a23611a04565b50611a3782611a315f6108a7565b90611df7565b91611a5c611a4d82611a4761193e565b90611f85565b91611a56611977565b90611df7565b91565b5f90565b611a7c611a6e611977565b611a7661193e565b9061099a565b90565b611a98611a8a611a63565b611a92611977565b9061099a565b90565b611aad90611aa7611a5f565b50610dd7565b611ac6611ac0611abb611a7f565b61018f565b9161018f565b101590565b611b0190611ad7610eb0565b5080611afb611aed611ae7611977565b92610dd7565b611af5611977565b90610ede565b91612129565b90565b5f90565b611b1190610bb3565b90565b611b1d90611b08565b90565b611b5e611b6492611b6994611b33611b04565b507f00000000000000000000000000000000000000000000000000000000000000009391909161228d565b90612429565b611b14565b90565b5f90565b90565b611b87611b82611b8c92611b70565b6108a4565b61018f565b90565b611ba3611b9e611ba89261018f565b6108a4565b610738565b90565b611bdd90611bb7611b6c565b50611bd881611bd2611bcc600160ff1b611b73565b9161018f565b10611588565b611b8f565b90565b5f90565b9092611bee6107d3565b50611bf7610b1d565b50611c00610b21565b50611c096107d3565b50611c12611be0565b50611c1b611be0565b50611c4060e0611c2a86610bdb565b633850c7bd90611c38610092565b938492610d76565b82528180611c50600482016107af565b03915afa908115611cc057611c8291611c74915f80929050611c8d575b5093612713565b949194909496919091612b14565b939193929193929190565b611cae915060e03d8111611cb9575b611ca681836100ca565b81019061165d565b505050505090611c6d565b503d611c9c565b610e89565b91611ce793611ce19293611cd7611b04565b509391909161228d565b90613216565b90565b60209181520190565b5f7f746f416464726573735f6f766572666c6f770000000000000000000000000000910152565b611d276012602092611cea565b611d3081611cf3565b0190565b611d499060208101905f818303910152611d1a565b90565b15611d5357565b611d5b610092565b62461bcd60e51b815280611d7160048201611d34565b0390fd5b5f7f746f416464726573735f6f75744f66426f756e64730000000000000000000000910152565b611da96015602092611cea565b611db281611d75565b0190565b611dcb9060208101905f818303910152611d9c565b90565b15611dd557565b611ddd610092565b62461bcd60e51b815280611df360048201611db6565b0390fd5b90611e00611a00565b50611e31611e1882611e126014611922565b9061099a565b611e2a611e248461018f565b9161018f565b1015611d4c565b611e69611e3d83610dd7565b611e62611e5c611e5785611e516014611922565b9061099a565b61018f565b9161018f565b1015611dce565b611e71611a00565b506020600160601b920101510490565b5f7f746f55696e7432345f6f766572666c6f77000000000000000000000000000000910152565b611eb56011602092611cea565b611ebe81611e81565b0190565b611ed79060208101905f818303910152611ea8565b90565b15611ee157565b611ee9610092565b62461bcd60e51b815280611eff60048201611ec2565b0390fd5b5f7f746f55696e7432345f6f75744f66426f756e6473000000000000000000000000910152565b611f376014602092611cea565b611f4081611f03565b0190565b611f599060208101905f818303910152611f2a565b90565b15611f6357565b611f6b610092565b62461bcd60e51b815280611f8160048201611f44565b0390fd5b600390611f90611a04565b50611fc0611fa784611fa18561194e565b9061099a565b611fb9611fb38661018f565b9161018f565b1015611eda565b611ff7611fcc82610dd7565b611ff0611fea611fe587611fdf8861194e565b9061099a565b61018f565b9161018f565b1015611f5c565b611fff611a04565b5001015190565b90565b61201d61201861202292612006565b6108a4565b61018f565b90565b5f7f736c6963655f6f766572666c6f77000000000000000000000000000000000000910152565b612059600e602092611cea565b61206281612025565b0190565b61207b9060208101905f81830391015261204c565b90565b1561208557565b61208d610092565b62461bcd60e51b8152806120a360048201612066565b0390fd5b5f7f736c6963655f6f75744f66426f756e6473000000000000000000000000000000910152565b6120db6011602092611cea565b6120e4816120a7565b0190565b6120fd9060208101905f8183039101526120ce565b90565b1561210757565b61210f610092565b62461bcd60e51b815280612125600482016120e8565b0390fd5b9091612133610eb0565b5061216461214b82612145601f612009565b9061099a565b61215d6121578461018f565b9161018f565b101561207e565b61218b61217284839061099a565b61218461217e8661018f565b9161018f565b101561207e565b6121ba61219783610dd7565b6121b36121ad6121a887869061099a565b61018f565b9161018f565b1015612100565b6121c2610eb0565b5080155f146121df575050506040515f8152602081016040525b90565b60405192601f8216908115602002828601019383850192801560200291010101905b80841061221b5750508252601f80199101166040526121dc565b9092602080918551815201930190612201565b61223860606100f3565b90565b5f90565b5f90565b61224b61222e565b90602080808461225961223b565b81520161226461223b565b81520161226f61223f565b81525050565b61227d612243565b90565b61228a60606100f3565b90565b91612296612275565b50826122aa6122a4846103dd565b916103dd565b116122e0575b6122d46122dd926122cb6122c2612280565b955f87016108d0565b602085016108d0565b604083016108ec565b90565b6122d46122dd92939250506122b0565b90565b90565b61230a61230561230f926122f0565b610b59565b6122f3565b90565b61233b7f4edca2cdd7241588d4a18effbaf62e93efbd162499ff8ab7553ea94d08382fd96122f6565b90565b61234790610467565b9052565b60409061237461237b949695939661236a60608401985f8501906103e9565b60208301906103e9565b019061233e565b565b60200190565b905090565b5f60ff60f81b910152565b61239f60018092612383565b6123a881612388565b0190565b90565b6123bb6123c0916122f3565b6123ac565b9052565b602093926123ed60146123f5946123e56123de8996612393565b8092610d0e565b0180926123af565b0180926123af565b0190565b61240561240a916116cd565b610b74565b90565b61242161241c6124269261018f565b6108a4565b61021a565b90565b6125286125329261251061252d9361243f611a00565b5061247161244e5f8501610b25565b61246b61246561246060208801610b25565b6103dd565b916103dd565b10611588565b61248161247c612312565b61327a565b916124ce6124905f8301610b25565b6124bf6124ab60406124a460208701610b25565b9501610b32565b6124b3610092565b9485936020850161234b565b602082018103825203826100ca565b6124e06124da82610dd7565b9161237d565b20916125016124ed612312565b6124f5610092565b948593602085016123c4565b602082018103825203826100ca565b61252261251c82610dd7565b9161237d565b206123f9565b61240d565b610bcf565b90565b90565b61254c61254761255192612535565b6108a4565b61018f565b90565b90565b61256b61256661257092612554565b6108a4565b61018f565b90565b5f7f556e6578706563746564206572726f7200000000000000000000000000000000910152565b6125a76010602092611cea565b6125b081612573565b0190565b6125c99060208101905f81830391015261259a565b90565b67ffffffffffffffff81116125ea576125e66020916100ac565b0190565b6100b6565b909291926126046125ff826125cc565b6100f3565b938185526020850190828401116126205761261e92610de4565b565b6100a8565b9080601f8301121561264357816020612640935191016125ef565b90565b6100a4565b90602082820312612678575f82015167ffffffffffffffff8111612673576126709201612625565b90565b6100a0565b61009c565b5190565b6126a06126a96020936126ae936126978161267d565b93848093611cea565b95869101610de4565b6100ac565b0190565b6126c79160208201915f818403910152612681565b90565b905051906126d782610192565b565b909160608284031261270e5761270b6126f4845f85016126ca565b9361270281602086016115af565b936040016115d8565b90565b61009c565b61271b6107d3565b50612724610b1d565b5061272d611be0565b5061273781610dd7565b61274a6127446060612538565b9161018f565b036127705761276990602061275e82610dd7565b8183010191016126d9565b9192909190565b61277981610dd7565b61278c6127866044612557565b9161018f565b106127d2576127b160046127ce920160206127a682610dd7565b818301019101612648565b6127b9610092565b91829162461bcd60e51b8352600483016126b2565b0390fd5b6127da610092565b62461bcd60e51b8152806127f0600482016125b4565b0390fd5b5f90565b5f90565b9060208282031261281557612812915f016115d8565b90565b61009c565b61282661282c916115be565b916115be565b90811561284e5760015f038214627fffff19821416612849570590565b610986565b611993565b90565b61286a61286561286f92612853565b6108a4565b6115be565b90565b61287e612884916115be565b916115be565b90811561288f570790565b611993565b6128a86128a36128ad926108a1565b6108a4565b6115be565b90565b6128bc6128c2916115be565b916115be565b0190627fffff198212627fffff8313176128d857565b610986565b6128f16128ec6128f6926115be565b6108a4565b610738565b90565b61290d6129086129129261018f565b6108a4565b611611565b90565b90565b61292c61292761293192612915565b6108a4565b611611565b90565b1d90565b6129579061295161294b61295c94611611565b916115be565b90612934565b6115be565b90565b60010b90565b61297961297461297e926115be565b6108a4565b61295f565b90565b9060208282031261299a57612997915f016126ca565b90565b61009c565b6129a89061295f565b9052565b91906129bf905f6020850194019061299f565b565b6129d56129d06129da92610c50565b6108a4565b61018f565b90565b6129fc906129f66129f0612a0194611611565b9161018f565b90610f03565b61018f565b90565b90565b612a1b612a16612a2092612a04565b6108a4565b611611565b90565b612a2f612a3591611611565b91611611565b90039060ff8211612a4257565b610986565b1c90565b612a6a90612a64612a5e612a6f94611611565b9161018f565b90612a47565b61018f565b90565b612a86612a81612a8b926115e7565b6108a4565b6102ac565b90565b612a9a612aa0916102ac565b916102ac565b019063ffffffff8211612aaf57565b610986565b612abd9061295f565b617fff8114612acc5760010190565b610986565b612ae5612ae0612aea92610c50565b6108a4565b6102ac565b90565b612af9612aff916102ac565b916102ac565b90039063ffffffff8211612b0f57565b610986565b919091612b1f610b21565b90612b286127f4565b50612b316127f4565b50612b3a6127f8565b50612b436127f8565b50612b4c611a5f565b50612b55611a5f565b50612b7b846020612b6584610bdb565b63d0c93a7c90612b73610092565b948592610d76565b82528180612b8b600482016107af565b03915afa90811561321157612ba7925f926131e1575b5061281a565b93612bcd846020612bb785610bdb565b63d0c93a7c90612bc5610092565b948592610d76565b82528180612bdd600482016107af565b03915afa9081156131dc57612bf9925f926131ac575b5061281a565b94612c40612c3b612c36612c1884612c12610100612856565b90612872565b80612c2b612c255f612894565b916115be565b12613192575b6128dd565b611593565b6128f9565b95612cbf612cba612ca9612ca4612c93612c8e612c89612c6b88612c65610100612856565b90612872565b80612c7e612c785f612894565b916115be565b12613178575b6128dd565b611593565b6128f9565b95612c9e6008612918565b90612938565b612965565b92612cb46008612918565b90612938565b612965565b92612cf86020612cce87610bdb565b635339c29690612ced8892612ce1610092565b95869485938493610d76565b8352600483016129ac565b03915afa908115613173575f91613145575b50612d1f6001612d1a86916129c1565b6129dd565b16612d32612d2c5f6108a7565b9161018f565b11806130a6575b8061308c575b96612d786020612d4e88610bdb565b635339c29690612d6d8792612d61610092565b95869485938493610d76565b8352600483016129ac565b03915afa908115613087575f91613059575b50612d9f6001612d9a8c916129c1565b6129dd565b16612db2612dac5f6108a7565b9161018f565b1180612fba575b9182612f9c575b50509080612dd6612dd08661295f565b9161295f565b128015612f61575b5f14612f4e57612df89097939293979591975b5f196129dd565b905b85612e0d612e078561295f565b9161295f565b13612f055790612e659186612e2a612e248661295f565b9161295f565b14612ede575b6020612e3b87610bdb565b635339c29690612e5a8a92612e4e610092565b97889485938493610d76565b8352600483016129ac565b03915afa918215612ed957612e8d612e9893612e9292612e9e965f92612ea9575b50166132f8565b612a72565b90612a8e565b94612ab4565b955f19909694612dfa565b612ecb91925060203d8111612ed2575b612ec381836100ca565b810190612981565b905f612e86565b503d612eb9565b610e89565b90612efe5f19612ef860ff612ef38991612a07565b612a23565b90612a4b565b1690612e30565b9695945050505050612f33575b612f1a575b90565b612f2e90612f286001612ad1565b90612aed565b612f17565b90612f4890612f426001612ad1565b90612aed565b90612f12565b92612df890979293929397959197612df1565b5080612f75612f6f8661295f565b9161295f565b1480612f81575b612dde565b5087612f95612f8f85611611565b91611611565b1115612f7c565b612fb2919250612fac90926115be565b916115be565b125f80612dc0565b50612fe0826020612fca89610bdb565b63d0c93a7c90612fd8610092565b948592610d76565b82528180612ff0600482016107af565b03915afa9081156130545761300c925f92613024575b50612872565b61301e6130185f612894565b916115be565b14612db9565b61304691925060203d811161304d575b61303e81836100ca565b8101906127fc565b905f613006565b503d613034565b610e89565b61307a915060203d8111613080575b61307281836100ca565b810190612981565b5f612d8a565b503d613068565b610e89565b50806130a061309a896115be565b916115be565b13612d3f565b506130cc8760206130b688610bdb565b63d0c93a7c906130c4610092565b948592610d76565b825281806130dc600482016107af565b03915afa908115613140576130f8925f92613110575b50612872565b61310a6131045f612894565b916115be565b14612d39565b61313291925060203d8111613139575b61312a81836100ca565b8101906127fc565b905f6130f2565b503d613120565b610e89565b613166915060203d811161316c575b61315e81836100ca565b810190612981565b5f612d0a565b503d613154565b610e89565b61318d90613187610100612856565b906128b0565b612c84565b6131a7906131a1610100612856565b906128b0565b612c31565b6131ce91925060203d81116131d5575b6131c681836100ca565b8101906127fc565b905f612bf3565b503d6131bc565b610e89565b61320391925060203d811161320a575b6131fb81836100ca565b8101906127fc565b905f612ba1565b503d6131f1565b610e89565b6132319161322c91613226611b04565b50612429565b611b14565b906132563361325061324a61324586610bdb565b6103dd565b916103dd565b14611588565b565b613261906122f3565b9052565b9190613278905f60208501940190613258565b565b6132a56132b46132b99261328c610092565b9283916004602084016327b7cf8560e01b815201613265565b602082018103825203826100ca565b61334d565b565b5f90565b6132d36132ce6132d8926108a1565b6108a4565b6115e7565b90565b6132e4906115e7565b61ffff81146132f35760010190565b610986565b6133006132bb565b5061330a5f6132bf565b5b8161331e6133185f6108a7565b9161018f565b146133485761332c906132db565b906133418161333b60016129c1565b90610ede565b169061330b565b905090565b6133609061335b600161338c565b6133ac565b565b6a636f6e736f6c652e6c6f6790565b5f809161337c613362565b602082519201905afa50565b5f90565b613394613388565b5090565b634e487b7160e01b5f52605160045260245ffd5b600103613398576133bc90613371565b56fea2646970667358221220cd83a16d916217b35a8799009263126afe006eb98dda80971646abb9686d4b1264736f6c63430008180033","linkReferences":{}},"methodIdentifiers":{"WETH9()":"4aa4a4fc","factory()":"c45a0155","quoteExactInput(bytes,uint256)":"cdca1753","quoteExactInputSingle((address,address,uint256,uint24,uint160))":"c6a5026a","quoteExactOutput(bytes,uint256)":"2f80bb1d","quoteExactOutputSingle((address,address,uint256,uint24,uint160))":"bd21704a","uniswapV3SwapCallback(int256,int256,bytes)":"fa461e33"},"id":26}