{
  "abi": [
    {
      "type": "constructor",
      "inputs": [],
      "stateMutability": "nonpayable"
    },
    {
      "type": "function",
      "name": "createLockToken",
      "inputs": [
        {
          "name": "beneficiary",
          "type": "address",
          "internalType": "address"
        },
        {
          "name": "duration",
          "type": "uint256",
          "internalType": "uint256"
        },
        {
          "name": "token",
          "type": "address",
          "internalType": "address"
        },
        {
          "name": "tokenId",
          "type": "uint256",
          "internalType": "uint256"
        }
      ],
      "outputs": [],
      "stateMutability": "nonpayable"
    },
    {
      "type": "function",
      "name": "getLocksForBeneficiary",
      "inputs": [
        {
          "name": "beneficiary",
          "type": "address",
          "internalType": "address"
        }
      ],
      "outputs": [
        {
          "name": "",
          "type": "tuple",
          "internalType": "struct SimpleNFTTimelock.TimeLock",
          "components": [
            {
              "name": "token",
              "type": "address",
              "internalType": "contract IERC721"
            },
            {
              "name": "tokenId",
              "type": "uint256",
              "internalType": "uint256"
            },
            {
              "name": "releaseTime",
              "type": "uint256",
              "internalType": "uint256"
            },
            {
              "name": "released",
              "type": "bool",
              "internalType": "bool"
            }
          ]
        }
      ],
      "stateMutability": "view"
    },
    {
      "type": "function",
      "name": "isNftLocked",
      "inputs": [
        {
          "name": "beneficiary",
          "type": "address",
          "internalType": "address"
        }
      ],
      "outputs": [
        {
          "name": "",
          "type": "bool",
          "internalType": "bool"
        }
      ],
      "stateMutability": "view"
    },
    {
      "type": "function",
      "name": "release",
      "inputs": [],
      "outputs": [],
      "stateMutability": "nonpayable"
    },
    {
      "type": "function",
      "name": "timeLocks",
      "inputs": [
        {
          "name": "",
          "type": "address",
          "internalType": "address"
        }
      ],
      "outputs": [
        {
          "name": "token",
          "type": "address",
          "internalType": "contract IERC721"
        },
        {
          "name": "tokenId",
          "type": "uint256",
          "internalType": "uint256"
        },
        {
          "name": "releaseTime",
          "type": "uint256",
          "internalType": "uint256"
        },
        {
          "name": "released",
          "type": "bool",
          "internalType": "bool"
        }
      ],
      "stateMutability": "view"
    },
    {
      "type": "event",
      "name": "LockAdded",
      "inputs": [
        {
          "name": "beneficiary",
          "type": "address",
          "indexed": true,
          "internalType": "address"
        },
        {
          "name": "tokenId",
          "type": "uint256",
          "indexed": false,
          "internalType": "uint256"
        },
        {
          "name": "releaseTime",
          "type": "uint256",
          "indexed": false,
          "internalType": "uint256"
        }
      ],
      "anonymous": false
    },
    {
      "type": "event",
      "name": "Locked",
      "inputs": [
        {
          "name": "beneficiary",
          "type": "address",
          "indexed": true,
          "internalType": "address"
        },
        {
          "name": "token",
          "type": "address",
          "indexed": false,
          "internalType": "address"
        },
        {
          "name": "tokenId",
          "type": "uint256",
          "indexed": false,
          "internalType": "uint256"
        },
        {
          "name": "releaseTime",
          "type": "uint256",
          "indexed": false,
          "internalType": "uint256"
        }
      ],
      "anonymous": false
    },
    {
      "type": "event",
      "name": "Released",
      "inputs": [
        {
          "name": "beneficiary",
          "type": "address",
          "indexed": true,
          "internalType": "address"
        },
        {
          "name": "token",
          "type": "address",
          "indexed": false,
          "internalType": "address"
        },
        {
          "name": "tokenId",
          "type": "uint256",
          "indexed": false,
          "internalType": "uint256"
        }
      ],
      "anonymous": false
    },
    {
      "type": "error",
      "name": "AlreadyReleased",
      "inputs": []
    },
    {
      "type": "error",
      "name": "InvalidLockIndex",
      "inputs": []
    },
    {
      "type": "error",
      "name": "LockAlreadyExists",
      "inputs": []
    },
    {
      "type": "error",
      "name": "LockPeriodNotExpired",
      "inputs": []
    },
    {
      "type": "error",
      "name": "NullAddress",
      "inputs": []
    },
    {
      "type": "error",
      "name": "ReentrancyGuardReentrantCall",
      "inputs": []
    },
    {
      "type": "error",
      "name": "TransferFailed",
      "inputs": []
    },
    {
      "type": "error",
      "name": "ZeroDuration",
      "inputs": []
    },
    {
      "type": "error",
      "name": "ZeroTokenId",
      "inputs": []
    }
  ],
  "bytecode": {
    "object": "0x6080604052348015600e575f80fd5b5060015f556106a8806100205f395ff3fe608060405234801561000f575f80fd5b5060043610610055575f3560e01c8063475ce59214610059578063526dbb36146101225780637f76b2231461014557806386d1a69f146101b5578063e4ca9610146101bf575b5f80fd5b6100db6100673660046105f2565b604080516080810182525f808252602082018190529181018290526060810191909152506001600160a01b039081165f9081526001602081815260409283902083516080810185528154909516855291820154908401526002810154918301919091526003015460ff161515606082015290565b604051610119919081516001600160a01b03168152602080830151908201526040808301519082015260609182015115159181019190915260800190565b60405180910390f35b6101356101303660046105f2565b6101d2565b6040519015158152602001610119565b6101896101533660046105f2565b600160208190525f918252604090912080549181015460028201546003909201546001600160a01b039093169290919060ff1684565b604080516001600160a01b03909516855260208501939093529183015215156060820152608001610119565b6101bd61021c565b005b6101bd6101cd366004610612565b610389565b6001600160a01b0381165f908152600160205260408120600201541580159061021657506001600160a01b0382165f9081526001602052604090206003015460ff16155b92915050565b6102246105af565b335f90815260016020818152604092839020835160808101855281546001600160a01b03168152928101549183019190915260028101549282018390526003015460ff16151560608201529042101561029057604051633d65368d60e21b815260040160405180910390fd5b805160208201516040516323b872dd60e01b815230600482015233602482015260448101919091526001600160a01b03909116906323b872dd906064015f604051808303815f87803b1580156102e4575f80fd5b505af11580156102f6573d5f803e3d5ffd5b5050335f81815260016020818152604080842080546001600160a01b031916815592830184905560028301939093556003909101805460ff1916905585518682015183516001600160a01b039092168252918101919091529193507f2d87480f50083e2b2759522a8fdda59802650a8055e609a7772cf70c07748f5292500160405180910390a25061038760015f55565b565b6103916105af565b6001600160a01b0384165f90815260016020526040902060020154156103ca5760405163748d150960e01b815260040160405180910390fd5b6001600160a01b0384166103f15760405163e99d5ac560e01b815260040160405180910390fd5b6001600160a01b0382166104185760405163e99d5ac560e01b815260040160405180910390fd5b825f036104385760405163346ab43760e11b815260040160405180910390fd5b805f0361045857604051631fed7fc560e01b815260040160405180910390fd5b5f6104638442610653565b6040516323b872dd60e01b8152336004820152306024820152604481018490529091506001600160a01b038416906323b872dd906064015f604051808303815f87803b1580156104b1575f80fd5b505af11580156104c3573d5f803e3d5ffd5b5050604080516080810182526001600160a01b03808816825260208083018881528385018881525f606086018181528e8616808352600195869052918890208751815497166001600160a01b0319909716969096178655925193850193909355516002840155516003909201805492151560ff199093169290921790915591519093509091507f967ad762aa9070ada8db64577288e214771e89667066ae38e8750cb8a86c542990610596908790879087906001600160a01b039390931683526020830191909152604082015260600190565b60405180910390a250506105a960015f55565b50505050565b60025f54036105d157604051633ee5aeb560e01b815260040160405180910390fd5b60025f55565b80356001600160a01b03811681146105ed575f80fd5b919050565b5f60208284031215610602575f80fd5b61060b826105d7565b9392505050565b5f805f8060808587031215610625575f80fd5b61062e856105d7565b935060208501359250610643604086016105d7565b9396929550929360600135925050565b8082018082111561021657634e487b7160e01b5f52601160045260245ffdfea264697066735822122048be2cf93c637f572941481e09120ea4949575ff78270ca63593f0d0ac52ee6664736f6c63430008190033",
    "linkReferences": {}
  },
  "methodIdentifiers": {
    "createLockToken(address,uint256,address,uint256)": "e4ca9610",
    "getLocksForBeneficiary(address)": "475ce592",
    "isNftLocked(address)": "526dbb36",
    "release()": "86d1a69f",
    "timeLocks(address)": "7f76b223"
  },
  "id": 126
}