{
  "abi": [
    {
      "type": "constructor",
      "inputs": [],
      "stateMutability": "nonpayable"
    },
    {
      "type": "function",
      "name": "createLockToken",
      "inputs": [
        {
          "name": "beneficiary",
          "type": "address",
          "internalType": "address"
        },
        {
          "name": "duration",
          "type": "uint256",
          "internalType": "uint256"
        },
        {
          "name": "token",
          "type": "address",
          "internalType": "address"
        },
        {
          "name": "tokenId",
          "type": "uint256",
          "internalType": "uint256"
        }
      ],
      "outputs": [],
      "stateMutability": "nonpayable"
    },
    {
      "type": "function",
      "name": "getLocksForBeneficiary",
      "inputs": [
        {
          "name": "beneficiary",
          "type": "address",
          "internalType": "address"
        }
      ],
      "outputs": [
        {
          "name": "",
          "type": "tuple",
          "internalType": "struct SimpleNFTTimelock.TimeLock",
          "components": [
            {
              "name": "token",
              "type": "address",
              "internalType": "contract IERC721"
            },
            {
              "name": "tokenId",
              "type": "uint256",
              "internalType": "uint256"
            },
            {
              "name": "releaseTime",
              "type": "uint256",
              "internalType": "uint256"
            },
            {
              "name": "released",
              "type": "bool",
              "internalType": "bool"
            }
          ]
        }
      ],
      "stateMutability": "view"
    },
    {
      "type": "function",
      "name": "isNftLocked",
      "inputs": [
        {
          "name": "beneficiary",
          "type": "address",
          "internalType": "address"
        }
      ],
      "outputs": [
        {
          "name": "",
          "type": "bool",
          "internalType": "bool"
        }
      ],
      "stateMutability": "view"
    },
    {
      "type": "function",
      "name": "release",
      "inputs": [],
      "outputs": [],
      "stateMutability": "nonpayable"
    },
    {
      "type": "function",
      "name": "timeLocks",
      "inputs": [
        {
          "name": "",
          "type": "address",
          "internalType": "address"
        }
      ],
      "outputs": [
        {
          "name": "token",
          "type": "address",
          "internalType": "contract IERC721"
        },
        {
          "name": "tokenId",
          "type": "uint256",
          "internalType": "uint256"
        },
        {
          "name": "releaseTime",
          "type": "uint256",
          "internalType": "uint256"
        },
        {
          "name": "released",
          "type": "bool",
          "internalType": "bool"
        }
      ],
      "stateMutability": "view"
    },
    {
      "type": "event",
      "name": "LockAdded",
      "inputs": [
        {
          "name": "beneficiary",
          "type": "address",
          "indexed": true,
          "internalType": "address"
        },
        {
          "name": "tokenId",
          "type": "uint256",
          "indexed": false,
          "internalType": "uint256"
        },
        {
          "name": "releaseTime",
          "type": "uint256",
          "indexed": false,
          "internalType": "uint256"
        }
      ],
      "anonymous": false
    },
    {
      "type": "event",
      "name": "Locked",
      "inputs": [
        {
          "name": "beneficiary",
          "type": "address",
          "indexed": true,
          "internalType": "address"
        },
        {
          "name": "token",
          "type": "address",
          "indexed": false,
          "internalType": "address"
        },
        {
          "name": "tokenId",
          "type": "uint256",
          "indexed": false,
          "internalType": "uint256"
        },
        {
          "name": "releaseTime",
          "type": "uint256",
          "indexed": false,
          "internalType": "uint256"
        }
      ],
      "anonymous": false
    },
    {
      "type": "event",
      "name": "Released",
      "inputs": [
        {
          "name": "beneficiary",
          "type": "address",
          "indexed": true,
          "internalType": "address"
        },
        {
          "name": "token",
          "type": "address",
          "indexed": false,
          "internalType": "address"
        },
        {
          "name": "tokenId",
          "type": "uint256",
          "indexed": false,
          "internalType": "uint256"
        }
      ],
      "anonymous": false
    },
    {
      "type": "error",
      "name": "AlreadyReleased",
      "inputs": []
    },
    {
      "type": "error",
      "name": "InvalidLockIndex",
      "inputs": []
    },
    {
      "type": "error",
      "name": "LockAlreadyExists",
      "inputs": []
    },
    {
      "type": "error",
      "name": "LockPeriodNotExpired",
      "inputs": []
    },
    {
      "type": "error",
      "name": "NullAddress",
      "inputs": []
    },
    {
      "type": "error",
      "name": "ReentrancyGuardReentrantCall",
      "inputs": []
    },
    {
      "type": "error",
      "name": "TransferFailed",
      "inputs": []
    },
    {
      "type": "error",
      "name": "ZeroDuration",
      "inputs": []
    },
    {
      "type": "error",
      "name": "ZeroTokenId",
      "inputs": []
    }
  ],
  "bytecode": {
    "object": "0x6080806040523461001a5760015f556105b6908161001f8239f35b5f80fdfe6080604081815260049081361015610015575f80fd5b5f92833560e01c908163475ce5921461046057508063526dbb36146104085780637f76b223146103a557806386d1a69f146102465763e4ca961014610058575f80fd5b3461024257608036600319011261024257610071610505565b90602435926044359160018060a01b0380841680940361023e57806064359561009861055f565b169586885260016020526002838920015461022f578615610220578415610220578015610211578515610202574201928342116101ef578790853b156101eb5783516323b872dd60e01b81523391810191825230602083015260408201889052908290829081906060010381838a5af180156101e15790889392916101be575b509160037f967ad762aa9070ada8db64577288e214771e89667066ae38e8750cb8a86c542997928594606098979651916101518361051b565b888352602083019086825287808501938a85528c86019781895281526001602052209351166bffffffffffffffffffffffff60a01b845416178355516001830155516002820155019051151560ff8019835416911617905581519384526020840152820152a26001815580f35b6101cd9192969594935061054b565b6101dd579091928590875f610118565b8680fd5b84513d84823e3d90fd5b5080fd5b634e487b7160e01b885260119052602487fd5b505051631fed7fc560e01b8152fd5b50505163346ab43760e11b8152fd5b50505163e99d5ac560e01b8152fd5b50505163748d150960e01b8152fd5b5f80fd5b8280fd5b508290346101eb57816003193601126101eb5761026161055f565b3382526001602052808220908051936102798561051b565b60018060a01b03908184541686526001840154936020870194855260ff600360028301549283878b01520154161515606088015242106103975781865116845191813b156101dd5784516323b872dd60e01b81523091810191825233602083015260408201939093528691839182908490829060600103925af1801561038d5761035a575b507f2d87480f50083e2b2759522a8fdda59802650a8055e609a7772cf70c07748f529293943386526001602052856003848220828155826001820155826002820155015551169251815193845260208401523392a26001815580f35b936103867f2d87480f50083e2b2759522a8fdda59802650a8055e609a7772cf70c07748f52949561054b565b93926102fe565b83513d87823e3d90fd5b8251633d65368d60e21b8152fd5b8382346101eb5760203660031901126101eb576080916001600160a01b0391908190836103d0610505565b168152600160205220918254169160018101549160ff6003600284015493015416928151948552602085015283015215156060820152f35b8382346101eb5760203660031901126101eb5760209181906001600160a01b03610430610505565b168152600184522090600282015415159182610450575b50519015158152f35b6003015460ff1615915083610447565b828591346102425760203660031901126102425781836080946060610483610505565b9461048d8161051b565b8281528260208201528285820152015260018060a01b038093168152600160205220918051916104bc8361051b565b83541692838352600181015460208401908152606060ff600360028501549486880195865201541694019315158452825194855251602085015251908301525115156060820152f35b600435906001600160a01b038216820361023e57565b6080810190811067ffffffffffffffff82111761053757604052565b634e487b7160e01b5f52604160045260245ffd5b67ffffffffffffffff811161053757604052565b60025f541461056e5760025f55565b604051633ee5aeb560e01b8152600490fdfea2646970667358221220f1b12887d2cfa9239ca8bf7ad7654457ddeb0e08d847f562b534e5c883fab07964736f6c63430008150033",
    "linkReferences": {}
  },
  "methodIdentifiers": {
    "createLockToken(address,uint256,address,uint256)": "e4ca9610",
    "getLocksForBeneficiary(address)": "475ce592",
    "isNftLocked(address)": "526dbb36",
    "release()": "86d1a69f",
    "timeLocks(address)": "7f76b223"
  },
  "id": 50
}