{
  "abi": [
    {
      "type": "constructor",
      "inputs": [
        {
          "name": "_factoryV2",
          "type": "address",
          "internalType": "address"
        },
        {
          "name": "factoryV3",
          "type": "address",
          "internalType": "address"
        },
        {
          "name": "_positionManager",
          "type": "address",
          "internalType": "address"
        },
        {
          "name": "_WETH9",
          "type": "address",
          "internalType": "address"
        }
      ],
      "stateMutability": "nonpayable"
    },
    {
      "type": "receive",
      "stateMutability": "payable"
    },
    {
      "type": "function",
      "name": "WETH9",
      "inputs": [],
      "outputs": [
        {
          "name": "",
          "type": "address",
          "internalType": "address"
        }
      ],
      "stateMutability": "view"
    },
    {
      "type": "function",
      "name": "approveMax",
      "inputs": [
        {
          "name": "token",
          "type": "address",
          "internalType": "address"
        }
      ],
      "outputs": [],
      "stateMutability": "payable"
    },
    {
      "type": "function",
      "name": "approveMaxMinusOne",
      "inputs": [
        {
          "name": "token",
          "type": "address",
          "internalType": "address"
        }
      ],
      "outputs": [],
      "stateMutability": "payable"
    },
    {
      "type": "function",
      "name": "approveZeroThenMax",
      "inputs": [
        {
          "name": "token",
          "type": "address",
          "internalType": "address"
        }
      ],
      "outputs": [],
      "stateMutability": "payable"
    },
    {
      "type": "function",
      "name": "approveZeroThenMaxMinusOne",
      "inputs": [
        {
          "name": "token",
          "type": "address",
          "internalType": "address"
        }
      ],
      "outputs": [],
      "stateMutability": "payable"
    },
    {
      "type": "function",
      "name": "callPositionManager",
      "inputs": [
        {
          "name": "data",
          "type": "bytes",
          "internalType": "bytes"
        }
      ],
      "outputs": [
        {
          "name": "result",
          "type": "bytes",
          "internalType": "bytes"
        }
      ],
      "stateMutability": "payable"
    },
    {
      "type": "function",
      "name": "checkOracleSlippage",
      "inputs": [
        {
          "name": "paths",
          "type": "bytes[]",
          "internalType": "bytes[]"
        },
        {
          "name": "amounts",
          "type": "uint128[]",
          "internalType": "uint128[]"
        },
        {
          "name": "maximumTickDivergence",
          "type": "uint24",
          "internalType": "uint24"
        },
        {
          "name": "secondsAgo",
          "type": "uint32",
          "internalType": "uint32"
        }
      ],
      "outputs": [],
      "stateMutability": "view"
    },
    {
      "type": "function",
      "name": "checkOracleSlippage",
      "inputs": [
        {
          "name": "path",
          "type": "bytes",
          "internalType": "bytes"
        },
        {
          "name": "maximumTickDivergence",
          "type": "uint24",
          "internalType": "uint24"
        },
        {
          "name": "secondsAgo",
          "type": "uint32",
          "internalType": "uint32"
        }
      ],
      "outputs": [],
      "stateMutability": "view"
    },
    {
      "type": "function",
      "name": "exactInput",
      "inputs": [
        {
          "name": "params",
          "type": "tuple",
          "internalType": "struct IV3SwapRouter.ExactInputParams",
          "components": [
            {
              "name": "path",
              "type": "bytes",
              "internalType": "bytes"
            },
            {
              "name": "recipient",
              "type": "address",
              "internalType": "address"
            },
            {
              "name": "amountIn",
              "type": "uint256",
              "internalType": "uint256"
            },
            {
              "name": "amountOutMinimum",
              "type": "uint256",
              "internalType": "uint256"
            }
          ]
        }
      ],
      "outputs": [
        {
          "name": "amountOut",
          "type": "uint256",
          "internalType": "uint256"
        }
      ],
      "stateMutability": "payable"
    },
    {
      "type": "function",
      "name": "exactInputSingle",
      "inputs": [
        {
          "name": "params",
          "type": "tuple",
          "internalType": "struct IV3SwapRouter.ExactInputSingleParams",
          "components": [
            {
              "name": "tokenIn",
              "type": "address",
              "internalType": "address"
            },
            {
              "name": "tokenOut",
              "type": "address",
              "internalType": "address"
            },
            {
              "name": "fee",
              "type": "uint24",
              "internalType": "uint24"
            },
            {
              "name": "recipient",
              "type": "address",
              "internalType": "address"
            },
            {
              "name": "amountIn",
              "type": "uint256",
              "internalType": "uint256"
            },
            {
              "name": "amountOutMinimum",
              "type": "uint256",
              "internalType": "uint256"
            },
            {
              "name": "sqrtPriceLimitX96",
              "type": "uint160",
              "internalType": "uint160"
            }
          ]
        }
      ],
      "outputs": [
        {
          "name": "amountOut",
          "type": "uint256",
          "internalType": "uint256"
        }
      ],
      "stateMutability": "payable"
    },
    {
      "type": "function",
      "name": "exactOutput",
      "inputs": [
        {
          "name": "params",
          "type": "tuple",
          "internalType": "struct IV3SwapRouter.ExactOutputParams",
          "components": [
            {
              "name": "path",
              "type": "bytes",
              "internalType": "bytes"
            },
            {
              "name": "recipient",
              "type": "address",
              "internalType": "address"
            },
            {
              "name": "amountOut",
              "type": "uint256",
              "internalType": "uint256"
            },
            {
              "name": "amountInMaximum",
              "type": "uint256",
              "internalType": "uint256"
            }
          ]
        }
      ],
      "outputs": [
        {
          "name": "amountIn",
          "type": "uint256",
          "internalType": "uint256"
        }
      ],
      "stateMutability": "payable"
    },
    {
      "type": "function",
      "name": "exactOutputSingle",
      "inputs": [
        {
          "name": "params",
          "type": "tuple",
          "internalType": "struct IV3SwapRouter.ExactOutputSingleParams",
          "components": [
            {
              "name": "tokenIn",
              "type": "address",
              "internalType": "address"
            },
            {
              "name": "tokenOut",
              "type": "address",
              "internalType": "address"
            },
            {
              "name": "fee",
              "type": "uint24",
              "internalType": "uint24"
            },
            {
              "name": "recipient",
              "type": "address",
              "internalType": "address"
            },
            {
              "name": "amountOut",
              "type": "uint256",
              "internalType": "uint256"
            },
            {
              "name": "amountInMaximum",
              "type": "uint256",
              "internalType": "uint256"
            },
            {
              "name": "sqrtPriceLimitX96",
              "type": "uint160",
              "internalType": "uint160"
            }
          ]
        }
      ],
      "outputs": [
        {
          "name": "amountIn",
          "type": "uint256",
          "internalType": "uint256"
        }
      ],
      "stateMutability": "payable"
    },
    {
      "type": "function",
      "name": "factory",
      "inputs": [],
      "outputs": [
        {
          "name": "",
          "type": "address",
          "internalType": "address"
        }
      ],
      "stateMutability": "view"
    },
    {
      "type": "function",
      "name": "factoryV2",
      "inputs": [],
      "outputs": [
        {
          "name": "",
          "type": "address",
          "internalType": "address"
        }
      ],
      "stateMutability": "view"
    },
    {
      "type": "function",
      "name": "getApprovalType",
      "inputs": [
        {
          "name": "token",
          "type": "address",
          "internalType": "address"
        },
        {
          "name": "amount",
          "type": "uint256",
          "internalType": "uint256"
        }
      ],
      "outputs": [
        {
          "name": "",
          "type": "uint8",
          "internalType": "enum IApproveAndCall.ApprovalType"
        }
      ],
      "stateMutability": "nonpayable"
    },
    {
      "type": "function",
      "name": "increaseLiquidity",
      "inputs": [
        {
          "name": "params",
          "type": "tuple",
          "internalType": "struct IApproveAndCall.IncreaseLiquidityParams",
          "components": [
            {
              "name": "token0",
              "type": "address",
              "internalType": "address"
            },
            {
              "name": "token1",
              "type": "address",
              "internalType": "address"
            },
            {
              "name": "tokenId",
              "type": "uint256",
              "internalType": "uint256"
            },
            {
              "name": "amount0Min",
              "type": "uint256",
              "internalType": "uint256"
            },
            {
              "name": "amount1Min",
              "type": "uint256",
              "internalType": "uint256"
            }
          ]
        }
      ],
      "outputs": [
        {
          "name": "result",
          "type": "bytes",
          "internalType": "bytes"
        }
      ],
      "stateMutability": "payable"
    },
    {
      "type": "function",
      "name": "mint",
      "inputs": [
        {
          "name": "params",
          "type": "tuple",
          "internalType": "struct IApproveAndCall.MintParams",
          "components": [
            {
              "name": "token0",
              "type": "address",
              "internalType": "address"
            },
            {
              "name": "token1",
              "type": "address",
              "internalType": "address"
            },
            {
              "name": "fee",
              "type": "uint24",
              "internalType": "uint24"
            },
            {
              "name": "tickLower",
              "type": "int24",
              "internalType": "int24"
            },
            {
              "name": "tickUpper",
              "type": "int24",
              "internalType": "int24"
            },
            {
              "name": "amount0Min",
              "type": "uint256",
              "internalType": "uint256"
            },
            {
              "name": "amount1Min",
              "type": "uint256",
              "internalType": "uint256"
            },
            {
              "name": "recipient",
              "type": "address",
              "internalType": "address"
            }
          ]
        }
      ],
      "outputs": [
        {
          "name": "result",
          "type": "bytes",
          "internalType": "bytes"
        }
      ],
      "stateMutability": "payable"
    },
    {
      "type": "function",
      "name": "multicall",
      "inputs": [
        {
          "name": "previousBlockhash",
          "type": "bytes32",
          "internalType": "bytes32"
        },
        {
          "name": "data",
          "type": "bytes[]",
          "internalType": "bytes[]"
        }
      ],
      "outputs": [
        {
          "name": "",
          "type": "bytes[]",
          "internalType": "bytes[]"
        }
      ],
      "stateMutability": "payable"
    },
    {
      "type": "function",
      "name": "multicall",
      "inputs": [
        {
          "name": "deadline",
          "type": "uint256",
          "internalType": "uint256"
        },
        {
          "name": "data",
          "type": "bytes[]",
          "internalType": "bytes[]"
        }
      ],
      "outputs": [
        {
          "name": "",
          "type": "bytes[]",
          "internalType": "bytes[]"
        }
      ],
      "stateMutability": "payable"
    },
    {
      "type": "function",
      "name": "multicall",
      "inputs": [
        {
          "name": "data",
          "type": "bytes[]",
          "internalType": "bytes[]"
        }
      ],
      "outputs": [
        {
          "name": "results",
          "type": "bytes[]",
          "internalType": "bytes[]"
        }
      ],
      "stateMutability": "payable"
    },
    {
      "type": "function",
      "name": "positionManager",
      "inputs": [],
      "outputs": [
        {
          "name": "",
          "type": "address",
          "internalType": "address"
        }
      ],
      "stateMutability": "view"
    },
    {
      "type": "function",
      "name": "pull",
      "inputs": [
        {
          "name": "token",
          "type": "address",
          "internalType": "address"
        },
        {
          "name": "value",
          "type": "uint256",
          "internalType": "uint256"
        }
      ],
      "outputs": [],
      "stateMutability": "payable"
    },
    {
      "type": "function",
      "name": "refundETH",
      "inputs": [],
      "outputs": [],
      "stateMutability": "payable"
    },
    {
      "type": "function",
      "name": "selfPermit",
      "inputs": [
        {
          "name": "token",
          "type": "address",
          "internalType": "address"
        },
        {
          "name": "value",
          "type": "uint256",
          "internalType": "uint256"
        },
        {
          "name": "deadline",
          "type": "uint256",
          "internalType": "uint256"
        },
        {
          "name": "v",
          "type": "uint8",
          "internalType": "uint8"
        },
        {
          "name": "r",
          "type": "bytes32",
          "internalType": "bytes32"
        },
        {
          "name": "s",
          "type": "bytes32",
          "internalType": "bytes32"
        }
      ],
      "outputs": [],
      "stateMutability": "payable"
    },
    {
      "type": "function",
      "name": "selfPermitAllowed",
      "inputs": [
        {
          "name": "token",
          "type": "address",
          "internalType": "address"
        },
        {
          "name": "nonce",
          "type": "uint256",
          "internalType": "uint256"
        },
        {
          "name": "expiry",
          "type": "uint256",
          "internalType": "uint256"
        },
        {
          "name": "v",
          "type": "uint8",
          "internalType": "uint8"
        },
        {
          "name": "r",
          "type": "bytes32",
          "internalType": "bytes32"
        },
        {
          "name": "s",
          "type": "bytes32",
          "internalType": "bytes32"
        }
      ],
      "outputs": [],
      "stateMutability": "payable"
    },
    {
      "type": "function",
      "name": "selfPermitAllowedIfNecessary",
      "inputs": [
        {
          "name": "token",
          "type": "address",
          "internalType": "address"
        },
        {
          "name": "nonce",
          "type": "uint256",
          "internalType": "uint256"
        },
        {
          "name": "expiry",
          "type": "uint256",
          "internalType": "uint256"
        },
        {
          "name": "v",
          "type": "uint8",
          "internalType": "uint8"
        },
        {
          "name": "r",
          "type": "bytes32",
          "internalType": "bytes32"
        },
        {
          "name": "s",
          "type": "bytes32",
          "internalType": "bytes32"
        }
      ],
      "outputs": [],
      "stateMutability": "payable"
    },
    {
      "type": "function",
      "name": "selfPermitIfNecessary",
      "inputs": [
        {
          "name": "token",
          "type": "address",
          "internalType": "address"
        },
        {
          "name": "value",
          "type": "uint256",
          "internalType": "uint256"
        },
        {
          "name": "deadline",
          "type": "uint256",
          "internalType": "uint256"
        },
        {
          "name": "v",
          "type": "uint8",
          "internalType": "uint8"
        },
        {
          "name": "r",
          "type": "bytes32",
          "internalType": "bytes32"
        },
        {
          "name": "s",
          "type": "bytes32",
          "internalType": "bytes32"
        }
      ],
      "outputs": [],
      "stateMutability": "payable"
    },
    {
      "type": "function",
      "name": "swapExactTokensForTokens",
      "inputs": [
        {
          "name": "amountIn",
          "type": "uint256",
          "internalType": "uint256"
        },
        {
          "name": "amountOutMin",
          "type": "uint256",
          "internalType": "uint256"
        },
        {
          "name": "path",
          "type": "address[]",
          "internalType": "address[]"
        },
        {
          "name": "to",
          "type": "address",
          "internalType": "address"
        }
      ],
      "outputs": [
        {
          "name": "amountOut",
          "type": "uint256",
          "internalType": "uint256"
        }
      ],
      "stateMutability": "payable"
    },
    {
      "type": "function",
      "name": "swapTokensForExactTokens",
      "inputs": [
        {
          "name": "amountOut",
          "type": "uint256",
          "internalType": "uint256"
        },
        {
          "name": "amountInMax",
          "type": "uint256",
          "internalType": "uint256"
        },
        {
          "name": "path",
          "type": "address[]",
          "internalType": "address[]"
        },
        {
          "name": "to",
          "type": "address",
          "internalType": "address"
        }
      ],
      "outputs": [
        {
          "name": "amountIn",
          "type": "uint256",
          "internalType": "uint256"
        }
      ],
      "stateMutability": "payable"
    },
    {
      "type": "function",
      "name": "sweepToken",
      "inputs": [
        {
          "name": "token",
          "type": "address",
          "internalType": "address"
        },
        {
          "name": "amountMinimum",
          "type": "uint256",
          "internalType": "uint256"
        },
        {
          "name": "recipient",
          "type": "address",
          "internalType": "address"
        }
      ],
      "outputs": [],
      "stateMutability": "payable"
    },
    {
      "type": "function",
      "name": "sweepToken",
      "inputs": [
        {
          "name": "token",
          "type": "address",
          "internalType": "address"
        },
        {
          "name": "amountMinimum",
          "type": "uint256",
          "internalType": "uint256"
        }
      ],
      "outputs": [],
      "stateMutability": "payable"
    },
    {
      "type": "function",
      "name": "sweepTokenWithFee",
      "inputs": [
        {
          "name": "token",
          "type": "address",
          "internalType": "address"
        },
        {
          "name": "amountMinimum",
          "type": "uint256",
          "internalType": "uint256"
        },
        {
          "name": "feeBips",
          "type": "uint256",
          "internalType": "uint256"
        },
        {
          "name": "feeRecipient",
          "type": "address",
          "internalType": "address"
        }
      ],
      "outputs": [],
      "stateMutability": "payable"
    },
    {
      "type": "function",
      "name": "sweepTokenWithFee",
      "inputs": [
        {
          "name": "token",
          "type": "address",
          "internalType": "address"
        },
        {
          "name": "amountMinimum",
          "type": "uint256",
          "internalType": "uint256"
        },
        {
          "name": "recipient",
          "type": "address",
          "internalType": "address"
        },
        {
          "name": "feeBips",
          "type": "uint256",
          "internalType": "uint256"
        },
        {
          "name": "feeRecipient",
          "type": "address",
          "internalType": "address"
        }
      ],
      "outputs": [],
      "stateMutability": "payable"
    },
    {
      "type": "function",
      "name": "uniswapV3SwapCallback",
      "inputs": [
        {
          "name": "amount0Delta",
          "type": "int256",
          "internalType": "int256"
        },
        {
          "name": "amount1Delta",
          "type": "int256",
          "internalType": "int256"
        },
        {
          "name": "_data",
          "type": "bytes",
          "internalType": "bytes"
        }
      ],
      "outputs": [],
      "stateMutability": "nonpayable"
    },
    {
      "type": "function",
      "name": "unwrapWETH9",
      "inputs": [
        {
          "name": "amountMinimum",
          "type": "uint256",
          "internalType": "uint256"
        },
        {
          "name": "recipient",
          "type": "address",
          "internalType": "address"
        }
      ],
      "outputs": [],
      "stateMutability": "payable"
    },
    {
      "type": "function",
      "name": "unwrapWETH9",
      "inputs": [
        {
          "name": "amountMinimum",
          "type": "uint256",
          "internalType": "uint256"
        }
      ],
      "outputs": [],
      "stateMutability": "payable"
    },
    {
      "type": "function",
      "name": "unwrapWETH9WithFee",
      "inputs": [
        {
          "name": "amountMinimum",
          "type": "uint256",
          "internalType": "uint256"
        },
        {
          "name": "recipient",
          "type": "address",
          "internalType": "address"
        },
        {
          "name": "feeBips",
          "type": "uint256",
          "internalType": "uint256"
        },
        {
          "name": "feeRecipient",
          "type": "address",
          "internalType": "address"
        }
      ],
      "outputs": [],
      "stateMutability": "payable"
    },
    {
      "type": "function",
      "name": "unwrapWETH9WithFee",
      "inputs": [
        {
          "name": "amountMinimum",
          "type": "uint256",
          "internalType": "uint256"
        },
        {
          "name": "feeBips",
          "type": "uint256",
          "internalType": "uint256"
        },
        {
          "name": "feeRecipient",
          "type": "address",
          "internalType": "address"
        }
      ],
      "outputs": [],
      "stateMutability": "payable"
    },
    {
      "type": "function",
      "name": "wrapETH",
      "inputs": [
        {
          "name": "value",
          "type": "uint256",
          "internalType": "uint256"
        }
      ],
      "outputs": [],
      "stateMutability": "payable"
    }
  ],
  "bytecode": {
    "object": "0x610100346200013157601f62004b4038819003918201601f19168301916001600160401b03831184841017620001365780849260809460405283398101031262000131576200004e816200014c565b906200005d602082016200014c565b906200007a606062000072604084016200014c565b92016200014c565b9260805260a05260c05260e0526000196000556040516149de908162000162823960805181818161099201528181610bd7015281816111e001526133b5015260a0518181816112250152818161250d015281816126c1015281816135ee0152818161368001526136d8015260c0518181816115e301528181611b960152613d78015260e05181818161077901528181610e2e01528181610f2001528181610ff80152818161230e01528181612ac001526131e30152f35b600080fd5b634e487b7160e01b600052604160045260246000fd5b51906001600160a01b0382168203620001315756fe60806040526004361015610023575b361561001957600080fd5b610021612abe565b005b60003560e01c806304e45aaf1461029357806309b813461461028e57806311ed56c91461028957806312210e8a146102845780631c58db4f1461027f5780631f0464d11461027a5780633068c5541461027557806342712a67146102705780634659a4941461026b578063472b43f31461026657806349404b7c14610261578063496169971461025c5780634aa4a4fc146102575780635023b4df14610252578063571ac8b01461024d5780635ae401dc14610248578063639d71a91461024357806368e0d4e11461023e578063791b98bc146102395780639b2c0a3714610234578063a4a78f0c1461022f578063ab3fdd501461022a578063ac9650d814610225578063b3a2af1314610220578063b858183f1461021b578063c2e3140a14610216578063c45a015514610211578063cab372ce1461020c578063d4ef38de14610207578063dee00f3514610202578063df2ab5bb146101fd578063e0e189a0146101f8578063e90a182f146101f3578063efdeed8e146101ee578063f100b205146101e9578063f25801a7146101e4578063f2d5d56b146101df578063f3995c67146101da5763fa461e330361000e57611b06565b611aee565b611ac6565b611a5c565b611982565b6118b4565b611786565b611744565b6116ab565b611659565b611632565b611612565b6115cd565b611553565b6114cb565b611481565b611333565b611304565b611288565b611254565b61120f565b6111ca565b61119b565b61111e565b6110f7565b611027565b610fe2565b610ef7565b610df9565b610b84565b610b6c565b610981565b61090a565b610879565b610769565b61074c565b610591565b610493565b610406565b634e487b7160e01b600052604160045260246000fd5b60e081019081106001600160401b038211176102c957604052565b610298565b604081019081106001600160401b038211176102c957604052565b6001600160401b0381116102c957604052565b608081019081106001600160401b038211176102c957604052565b606081019081106001600160401b038211176102c957604052565b60a081019081106001600160401b038211176102c957604052565b90601f801991011681019081106001600160401b038211176102c957604052565b6040519061016082018281106001600160401b038211176102c957604052565b6040519061039b826102ce565b565b6040519060c082018281106001600160401b038211176102c957604052565b6001600160a01b038116036103cd57565b600080fd5b6064359061039b826103bc565b62ffffff8116036103cd57565b6044359061039b826103df565b60c4359061039b826103bc565b60e03660031901126103cd5761048f61047f604051610424816102ae565b600435610430816103bc565b815260243561043e816103bc565b602082015261044b6103ec565b60408201526104586103d2565b6060820152608435608082015260a43560a08201526104756103f9565b60c0820152611cbf565b6040519081529081906020820190565b0390f35b6003196020368201126103cd576004356001600160401b0381116103cd576080816004019282360301126103cd5761050b6104f961048f936104e36024850135916104dd836103bc565b80611e74565b9290604051936104f2856102ce565b369161142f565b82523360208301526044840135612db2565b5061051f6064600054920135821115611ea6565b6000196000556040519081529081906020820190565b60005b8381106105485750506000910152565b8181015183820152602001610538565b9060209161057181518092818552858086019101610535565b601f01601f1916010190565b90602061058e928181520190610558565b90565b610100806003193601126103cd576105a7611e46565b906105b0611e52565b906105b9611ee7565b6105c1611efe565b6105c9611f0a565b6105d1611e46565b6105da9061303c565b916105e3611e52565b6105ec9061303c565b936105f5611e5e565b966105fe61036e565b6001600160a01b0390991689526001600160a01b0316602089015262ffffff16604088015260020b606087015260020b608086015260a085015260c084015260a43560e084015260c435908301526001600160a01b0316610120820152600019610140820152604051634418b22b60e11b6020820152908190610718906024830181516001600160a01b03168152610160810192916020818101516001600160a01b03169083015260408181015162ffffff169083015260608181015160020b9083015260808181015160020b9083015260a0818101519083015260c0808201519083015260e080820151908301526101008082015190830152610120808201516001600160a01b03169083015261014080910151910152565b03601f198101825261072a908261034d565b61073390612500565b60405161048f81928261057d565b60009103126103cd57565b60003660031901126103cd574761075f57005b61002147336130b8565b600060203660031901126107e2577f00000000000000000000000000000000000000000000000000000000000000006001600160a01b031681813b156107e257604051630d0e30db60e41b815291829060049082908235905af180156107dd576107d1575080f35b6107da906102e9565b80f35b611c71565b80fd5b9181601f840112156103cd578235916001600160401b0383116103cd576020808501948460051b0101116103cd57565b6020808201906020835283518092526040830192602060408460051b8301019501936000915b84831061084b5750505050505090565b9091929394958480610869600193603f198682030187528a51610558565b980193019301919493929061083b565b60403660031901126103cd576024356001600160401b0381116103cd576108a49036906004016107e5565b906000194301438111610905576004359040036108d45761048f916108c891612057565b60405191829182610815565b60405162461bcd60e51b8152602060048201526009602482015268084d8dec6d6d0c2e6d60bb1b6044820152606490fd5b611f16565b60803660031901126103cd57610021600435610925816103bc565b60643590610932826103bc565b604435903390602435906127dc565b60806003198201126103cd576004359160243591604435906001600160401b0382116103cd57610973916004016107e5565b909160643561058e816103bc565b61098a36610941565b8093929193927f00000000000000000000000000000000000000000000000000000000000000006109bc368786612133565b805197600289106103cd576109d089611812565b986109de6040519a8b61034d565b808a526109ed601f1991611812565b013660208b0137610a07610a018a51611f2c565b8a6121c3565b52610a128151611f2c565b805b610abe5761048f610a4061047f8a8a8a8a8f8b8b610a34610a7e936121a1565b51988992831115611ea6565b610a76610a55610a5089886121d7565b611e6a565b91610a63610a508a896121d7565b610a70610a508b8a6121e0565b91613117565b9033906131d9565b6001600160a01b031660018103610aa45750610a9f915033925b3691612133565b6133b3565b600214610ab6575b610a9f9192610a98565b309150610aac565b80610b0b818b610b05610afd610ae9610adc610a01610b2399611f2c565b516001600160a01b031690565b610af6610adc868b6121c3565b908a613daf565b9390926121c3565b51613e3d565b610b1d610b1783611f2c565b8c6121c3565b5261310a565b80610a14565b60ff8116036103cd57565b60c09060031901126103cd57600435610b4c816103bc565b906024359060443590606435610b6181610b29565b906084359060a43590565b610021610b7836610b34565b949390939291926121ff565b610b8d36610941565b909391929181906000908015610d87575b610c0191610baf610a5089896121d7565b9015610d8157305b610bfb610bc7610a508b8b6121d7565b610bd4610a508c8c6121e0565b907f0000000000000000000000000000000000000000000000000000000000000000613117565b916131d9565b6001600160a01b031660018103610d6e57505033915b610c3f610c33610c33610a50610c2c88611f2c565b88866121ef565b6001600160a01b031690565b6040516370a0823160e01b8082526001600160a01b0386166004830152909460209390928490879060249082905afa9586156107dd57600096610d33575b5090610cb2610c33610c33610a508695610cd7999a9b610ca38a99610a9f368486612133565b610cac81611f2c565b916121ef565b6040519182526001600160a01b03909216600482015293849190829081906024820190565b03915afa9384156107dd5761048f9461047f93610cfd93600092610d06575b50506135c1565b91821015611c7d565b610d259250803d10610d2c575b610d1d818361034d565b810190611c62565b3880610cf6565b503d610d13565b610cd7959650610c33610c33610a5087969594610d5f610cb295893d8b11610d2c57610d1d818361034d565b9a995094959650505050610c7d565b90929060011901610c1757309250610c17565b33610bb7565b50506001610d9e610c33610c33610a5089896121d7565b6040516370a0823160e01b81523060048201529190602090839060249082905afa80156107dd57610c0192600091610dda575b50909150610b9e565b610df3915060203d602011610d2c57610d1d818361034d565b38610dd1565b60403660031901126103cd57602435610e11816103bc565b6040516370a0823160e01b81523060048201526001600160a01b037f00000000000000000000000000000000000000000000000000000000000000001691602082602481865afa9182156107dd57600092610ed6575b50610e7660043583101561227d565b81610e7d57005b823b156103cd57604051632e1a7d4d60e01b815260048101839052926000908490602490829084905af19283156107dd5761002193610ebd575b506130b8565b80610eca610ed0926102e9565b80610741565b38610eb7565b610ef091925060203d602011610d2c57610d1d818361034d565b9038610e67565b60203660031901126103cd576040516370a0823160e01b81523060048201526001600160a01b037f00000000000000000000000000000000000000000000000000000000000000001690602081602481855afa9081156107dd57600091610fc3575b50610f6860043582101561227d565b80610f6f57005b813b156103cd57604051632e1a7d4d60e01b815260048101829052916000908390602490829084905af19182156107dd5761002192610fb0575b50336130b8565b80610eca610fbd926102e9565b38610fa9565b610fdc915060203d602011610d2c57610d1d818361034d565b38610f59565b346103cd5760003660031901126103cd576040517f00000000000000000000000000000000000000000000000000000000000000006001600160a01b03168152602090f35b60e03660031901126103cd5761048f6110de606435611045816103bc565b60c435611051816103bc565b6024359161105e836103bc565b6110c56044359361106e856103df565b6110b7611079611e46565b604051968793602085019192602b936001600160601b0319809360601b16845262ffffff60e81b9060e81b16601484015260601b1660178201520190565b03601f19810185528461034d565b6110cd61038e565b928352336020840152608435612eeb565b6110ec60a435821115611ea6565b60001960005561047f565b60203660031901126103cd57611117600435611112816103bc565b6135ce565b156103cd57005b60403660031901126103cd576024356001600160401b0381116103cd576111499036906004016107e5565b9060043542116111605761048f916108c891612057565b60405162461bcd60e51b8152602060048201526013602482015272151c985b9cd858dd1a5bdb881d1bdbc81bdb19606a1b6044820152606490fd5b60203660031901126103cd576004356111b3816103bc565b6111bc81613660565b156103cd57611117906135ce565b346103cd5760003660031901126103cd576040517f00000000000000000000000000000000000000000000000000000000000000006001600160a01b03168152602090f35b346103cd5760003660031901126103cd576040517f00000000000000000000000000000000000000000000000000000000000000006001600160a01b03168152602090f35b60803660031901126103cd5761002160243561126f816103bc565b6064359061127c826103bc565b604435906004356122db565b61129136610b34565b604051636eb1769f60e11b81523360048201523060248201529094919391906020816044816001600160a01b038b165afa9081156107dd576000916112e5575b50600019116112dc57005b610021956121ff565b6112fe915060203d602011610d2c57610d1d818361034d565b386112d1565b60203660031901126103cd5760043561131c816103bc565b61132581613660565b156103cd57611117906136b8565b60203660031901126103cd57600480356001600160401b0381116103cd5761135f9036906004016107e5565b9161136983612427565b9260005b818110611382576040518061048f8782610815565b600080611390838588612471565b604093916113a285518093819361248c565b0390305af4906113b061249a565b91156113d75750906001916113c582886121c3565b526113d081876121c3565b500161136d565b848260448151106103cd576113fb81836114109301516024809183010191016124ca565b925162461bcd60e51b8152928392830161057d565b0390fd5b6001600160401b0381116102c957601f01601f191660200190565b92919261143b82611414565b91611449604051938461034d565b8294818452818301116103cd578281602093846000960137010152565b9080601f830112156103cd5781602061058e9335910161142f565b60203660031901126103cd576004356001600160401b0381116103cd576114b76114b261048f923690600401611466565b612500565b604051918291602083526020830190610558565b6003196020368201126103cd576004356001600160401b03918282116103cd5760809082360301126103cd57604051611503816102fc565b81600401359283116103cd57606461047f9261152861048f9560043691840101611466565b83526024810135611538816103bc565b60208401526044810135604084015201356060820152612582565b61155c36610b34565b604051636eb1769f60e11b81523360048201523060248201529094919391906020816044816001600160a01b038b165afa80156107dd5782916000916115ae575b50106115a557005b610021956129f4565b6115c7915060203d602011610d2c57610d1d818361034d565b3861159d565b346103cd5760003660031901126103cd576040517f00000000000000000000000000000000000000000000000000000000000000006001600160a01b03168152602090f35b60203660031901126103cd5761111760043561162d816103bc565b6136b8565b60603660031901126103cd5761002160443561164d816103bc565b602435336004356122db565b346103cd5760403660031901126103cd57611682600435611679816103bc565b602435906126a4565b6040516005821015611695576020918152f35b634e487b7160e01b600052602160045260246000fd5b60603660031901126103cd576004356116c3816103bc565b6044356116cf816103bc565b6040516370a0823160e01b8152306004820152906020826024816001600160a01b0387165afa9182156107dd57600092611723575b5061171360243583101561279b565b8161171a57005b61002192613935565b61173d91925060203d602011610d2c57610d1d818361034d565b9038611704565b60a03660031901126103cd5761002160043561175f816103bc565b6044359061176c826103bc565b60843591611779836103bc565b60643591602435906127dc565b60403660031901126103cd5760043561179e816103bc565b6040516370a0823160e01b81523060048201526020816024816001600160a01b0386165afa9081156107dd576000916117f3575b506117e160243582101561279b565b806117e857005b610021913390613935565b61180c915060203d602011610d2c57610d1d818361034d565b386117d2565b6001600160401b0381116102c95760051b60200190565b9080601f830112156103cd57602090823561184381611812565b93611851604051958661034d565b81855260208086019260051b8201019283116103cd57602001905b82821061187a575050505090565b81356001600160801b03811681036103cd57815290830190830161186c565b63ffffffff8116036103cd57565b6064359061039b82611899565b346103cd5760803660031901126103cd576001600160401b036004358181116103cd57366023820112156103cd5780600401356024916118f382611812565b92611901604051948561034d565b8284526020926024602086019160051b840101923684116103cd5760248101915b84831061195c57602435878982116103cd57611945610021923690600401611829565b61194d6103ec565b906119566118a7565b926128eb565b82358881116103cd5786916119778392873691870101611466565b815201920191611922565b60a03660031901126103cd5761048f611a50611a426114b26119ae6004356119a9816103bc565b61303c565b6119bd6024356119a9816103bc565b6119c561039d565b916044358352602083015260408201526064356060820152608435608082015260001960a082015260405192839163219f5d1760e01b60208401526024830191909160a08060c083019480518452602081015160208501526040810151604085015260608101516060850152608081015160808501520151910152565b03601f19810183528261034d565b6040519182918261057d565b346103cd5760603660031901126103cd576004356001600160401b0381116103cd57611a8f610021913690600401611466565b62ffffff611abe611ab860243593611aa6856103df565b60443590611ab382611899565b613af3565b906128a1565b9116136128ba565b60403660031901126103cd57610021600435611ae1816103bc565b6024359030903390613ca9565b610021611afa36610b34565b949390939291926129f4565b346103cd5760603660031901126103cd576024356044356004356001600160401b038083116103cd57366023840112156103cd5782600401359081116103cd578201602401923684116103cd57611b94611bba91611b7d600096602488871397888015611c59575b611b77906122be565b01612a5d565b94611b8886516137c3565b818397939692966147f0565b7f000000000000000000000000000000000000000000000000000000000000000061484c565b5015611c4357506001600160a01b03818116908316105b15611bf45750602092909201516107da92906001600160a01b03165b33916131d9565b9050611c04835160429051101590565b15611c26575090611c2291611c198251613889565b82523390612db2565b5080f35b818455602092909201516107da92906001600160a01b0316611bed565b92506001600160a01b0382811690821610611bd1565b50898513611b6e565b908160209103126103cd575190565b6040513d6000823e3d90fd5b15611c8457565b60405162461bcd60e51b8152602060048201526013602482015272151bdbc81b1a5d1d1b19481c9958d95a5d9959606a1b6044820152606490fd5b906000826080810191825115611dc1575b9151606082015161039b9360a093611dad9390926001600160a01b031660c08401519091906001600160a01b03168451909390611d83906001600160a01b0316611d75611d376020611d2860408b015162ffffff1690565b9901516001600160a01b031690565b604051988993602085019192602b936001600160601b0319809360601b16845262ffffff60e81b9060e81b16601484015260601b1660178201520190565b03601f19810187528661034d565b15611db857611da8305b611d9561038e565b9586526001600160a01b03166020860152565b612cf0565b930151831015611c7d565b611da833611d8d565b5050825160019190611ddd90610c33906001600160a01b031681565b6040516370a0823160e01b815230600482015290602090829060249082905afa9081156107dd5761039b9360a093611dad938893600091611e27575b508152945091509150611cd0565b611e40915060203d602011610d2c57610d1d818361034d565b38611e19565b60043561058e816103bc565b60243561058e816103bc565b60e43561058e816103bc565b3561058e816103bc565b903590601e19813603018212156103cd57018035906001600160401b0382116103cd576020019181360383136103cd57565b15611ead57565b60405162461bcd60e51b8152602060048201526012602482015271151bdbc81b5d58da081c995c5d595cdd195960721b6044820152606490fd5b60443561058e816103df565b8060020b036103cd57565b60643561058e81611ef3565b60843561058e81611ef3565b634e487b7160e01b600052601160045260246000fd5b60001981019190821161090557565b60011981019190821161090557565b9190820391821161090557565b90929192611f6481611414565b91611f72604051938461034d565b8294828452828201116103cd57602061039b930190610535565b9060209081838203126103cd5782516001600160401b03938482116103cd57019080601f830112156103cd578151611fc381611812565b94604090611fd4604051978861034d565b828752858088019360051b860101948486116103cd57868101935b86851061200157505050505050505090565b84518381116103cd57820186603f820112156103cd57889161202b88838886809601519101611f57565b815201940193611fef565b908060209392818452848401376000828201840152601f01601f1916010190565b6040518092631592ca1b60e31b82526024820190806020926020600486015252604483019160448260051b8501019480936000915b8483106120d25750505050505080600092038183305af19081156107dd576000916120b5575090565b61058e91503d806000833e6120ca818361034d565b810190611f8c565b919395509193956043198882030183528635601e19833603018112156103cd5782018581019190356001600160401b0381116103cd5780360383136103cd5761212087928392600195612036565b980193019301909287959394929461208c565b929161213e82611812565b9161214c604051938461034d565b829481845260208094019160051b81019283116103cd57905b8282106121725750505050565b8380918335612180816103bc565b815201910190612165565b634e487b7160e01b600052603260045260246000fd5b8051156121ae5760200190565b61218b565b8051600110156121ae5760400190565b80518210156121ae5760209160051b010190565b90156121ae5790565b90600110156121ae5760200190565b91908110156121ae5760051b0190565b92946001600160a01b0390931693919291843b156103cd5760009461010493869260ff604051998a9889976323f2ebc360e21b89523360048a01523060248a015260448901526064880152600160848801521660a486015260c485015260e48401525af180156107dd576122705750565b80610eca61039b926102e9565b1561228457565b60405162461bcd60e51b8152602060048201526012602482015271496e73756666696369656e7420574554483960701b6044820152606490fd5b156103cd57565b634e487b7160e01b600052601260045260246000fd5b929190918115158061241c575b6122f1906122be565b6040516370a0823160e01b81523060048201526001600160a01b037f00000000000000000000000000000000000000000000000000000000000000001694602082602481895afa9182156107dd576000926123f7575b506123549082101561227d565b80612361575b5050505050565b843b156103cd57604051632e1a7d4d60e01b815260048101829052946000908690602490829084905af19485156107dd576123ad6123c4946123b5926123ca986123e4575b508361378a565b612710900490565b9182806123d4575b5050611f4a565b906130b8565b388080808061235a565b6123dd916130b8565b38826123bd565b80610eca6123f1926102e9565b386123a6565b6123549192506124159060203d602011610d2c57610d1d818361034d565b9190612347565b5060648211156122e8565b9061243182611812565b61243e604051918261034d565b828152809261244f601f1991611812565b019060005b82811061246057505050565b806060602080938501015201612454565b908210156121ae576124889160051b810190611e74565b9091565b908092918237016000815290565b3d156124c5573d906124ab82611414565b916124b9604051938461034d565b82523d6000602084013e565b606090565b6020818303126103cd578051906001600160401b0382116103cd57019080601f830112156103cd57815161058e92602001611f57565b60008091602081519101827f00000000000000000000000000000000000000000000000000000000000000005af19061253761249a565b911561253f57565b5060448151106103cd5761256281602480600461141095015183010191016124ca565b60405162461bcd60e51b8152602060048201529182916024830190610558565b906000806040840191825115612636575b1561263057305b6125df85519160428351101592855184600014612614576125da6125be309361383e565b936125c761038e565b9485526001600160a01b03166020850152565b612bca565b808452901561260057506125df306125f78651613889565b8652905061259a565b61039b925060609150930151831015611c7d565b60208901516125da906125be906001600160a01b03169361383e565b3361259a565b50600161264385516137c3565b50506040516370a0823160e01b815230600482015290602090829060249082906001600160a01b03165afa9081156107dd57600091612685575b508352612593565b61269e915060203d602011610d2c57610d1d818361034d565b3861267d565b604051636eb1769f60e11b81523060048201526001600160a01b037f0000000000000000000000000000000000000000000000000000000000000000166024820152909190602081806044810103816001600160a01b0387165afa9081156107dd5760009161277c575b5010156127765761271e816135ce565b6127705761272b816136b8565b61276a5761274061273b82613660565b6122be565b612749816135ce565b61276457612756906136b8565b61275f57600080fd5b600490565b50600390565b50600290565b50600190565b50600090565b612795915060203d602011610d2c57610d1d818361034d565b3861270e565b156127a257565b60405162461bcd60e51b815260206004820152601260248201527124b739bab33334b1b4b2b73a103a37b5b2b760711b6044820152606490fd5b92909381151580612896575b6127f1906122be565b6040516370a0823160e01b8152306004820152946020866024816001600160a01b0389165afa9586156107dd57600096612871575b506128339086101561279b565b8461283f575050505050565b846128536123ad612861946123ca9861378a565b918280612867575050611f4a565b91613935565b6123dd9187613935565b61283391965061288f9060203d602011610d2c57610d1d818361034d565b9590612826565b5060648211156127e8565b8181039291600013801582851316918412161761090557565b156128c157565b60405162461bcd60e51b8152602060048201526002602482015261151160f21b6044820152606490fd5b909193926129058251612900855182146122be565b6139e7565b9161291081516139e7565b9460005b82518110156129c5578061296961295f61294761295a6129408961293a6001988b6121c3565b51613af3565b929061406c565b612951868c6121c3565b519060020b9052565b61406c565b612951838b6121c3565b6129bf612986612979838a6121c3565b516001600160801b031690565b6129a760209182612997868c6121c3565b5101906001600160801b03169052565b6129b4612979848b6121c3565b90612997848c6121c3565b01612914565b509593505050611abe61039b93611ab86129e86129ee6129e862ffffff966140b4565b60020b90565b926140b4565b92946001600160a01b0390931693919291843b156103cd5760009460e493869260ff604051998a98899763d505accf60e01b89523360048a01523060248a01526044890152606488015216608486015260a485015260c48401525af180156107dd576122705750565b906020828203126103cd5781356001600160401b03928382116103cd57016040818303126103cd5760405192612a92846102ce565b81359081116103cd57602092612aa9918301611466565b83520135612ab6816103bc565b602082015290565b7f00000000000000000000000000000000000000000000000000000000000000006001600160a01b03163303612af057565b60405162461bcd60e51b81526020600482015260096024820152684e6f7420574554483960b81b6044820152606490fd5b6001600160a01b03918216908216039190821161090557565b602081526040612b5583518260208501526060840190610558565b6020909301516001600160a01b031691015290565b91908260409103126103cd576020825192015190565b6001600160a01b039182168152911515602083015260408201929092529116606082015260a06080820181905261058e92910190610558565b600160ff1b81146109055760000390565b610c3392916040916001600160a01b039182811660018103612cdd57505033915b6000612c16612c10612bfd88516137c3565b909a9195808c16908716109a8b96613d60565b93613da0565b93828214612cb957612c59611a42612c3d6401000276a4995b895192839160208301612b3a565b8751630251596160e31b81529889978896879560048701612b80565b03925af19081156107dd5761058e92600091600093612c86575b5015612c7f5750612bb9565b9050612bb9565b909250612cab915060403d604011612cb2575b612ca3818361034d565b810190612b6a565b9138612c73565b503d612c99565b612c59611a42612c3d73fffd8963efd1fc6a506488495d951d5263988d2599612c2f565b90929060011901612beb57309250612beb565b612d3993926040926001600160a01b039291610c339160009185821660018103612da357503391505b612d3f612d2689516137c3565b89829d939892168a8916109c8d98613d60565b95613da0565b958116158314612d935750828214612d7057612c59611a42612c3d6401000276a45b99895192839160208301612b3a565b612c59611a42612c3d73fffd8963efd1fc6a506488495d951d5263988d25612d61565b611a42612c3d612c599299612c2f565b600203612d1957309150612d19565b919291906001600160a01b039081811660018103612ed45750506040335b612df0610c33612de088516137c3565b9190968082169088161096613d60565b836000612e04612dff88613da0565b612bb9565b93828214612eb057612e46611a42612e2a6401000276a49c895192839160208301612b3a565b8751630251596160e31b81529b8c978896879560048701612b80565b03925af19081156107dd57600094600092612e8c575b5015612e785790612e6f61039b92612bb9565b935b93146122be565b9290612e8661039b92612bb9565b93612e71565b909450612ea8915060403d604011612cb257612ca3818361034d565b909338612e5c565b612e46611a42612e2a73fffd8963efd1fc6a506488495d951d5263988d259c612c2f565b600214612ee4575b604090612dd0565b5030612edc565b9193929190612f31906040906001600160a01b03908181166001810361302e575050335b610c336000612f1e88516137c3565b8287168288161098899590939092613d60565b92612f3e612dff89613da0565b948b16159a8b831461301e5750828214612ffb57612f8d611a42612f716401000276a45b9b895192839160208301612b3a565b8751630251596160e31b81529a8b978896879560048701612b80565b03925af19081156107dd57600093600092612fd7575b5015612fc757612fb290612bb9565b915b93612fbd575050565b61039b91146122be565b91612fd190612bb9565b91612fb4565b909350612ff3915060403d604011612cb257612ca3818361034d565b909238612fa3565b612f8d611a42612f7173fffd8963efd1fc6a506488495d951d5263988d25612f62565b611a42612f71612f8d929b612c2f565b600203612f0f575030612f0f565b6040516370a0823160e01b815230600482015290602090829060249082906001600160a01b03165afa9081156107dd57600091613077575090565b61058e915060203d602011610d2c57610d1d818361034d565b604051602081018181106001600160401b038211176102c95760405260008152906000368137565b60009182916130c5613090565b91602083519301915af16130d761249a565b50156130df57565b60405162461bcd60e51b815260206004820152600360248201526253544560e81b6044820152606490fd5b8015610905576000190190565b9161312191613ee3565b919060405160208101916001600160601b03199485809260601b16845260601b1660348201526028815261315481610317565b51902060405192602084019260ff60f81b845260601b16602184015260358301527f96e8ac4277198ff8b6f785478aa9a39f403cb768dd02cbee326c3e7da348845f6055830152605582526131a8826102fc565b905190206001600160a01b031690565b519081151582036103cd57565b908160209103126103cd5761058e906131b8565b6001600160a01b037f000000000000000000000000000000000000000000000000000000000000000081169492908281168614806132f6575b156132d457505050823b156103cd57604051630d0e30db60e41b81529260008460048185855af19283156107dd57613285946020946132c1575b5060405163a9059cbb60e01b81526001600160a01b03909116600482015260248101929092529092839190829060009082906044820190565b03925af180156107dd576132965750565b6132b79060203d6020116132ba575b6132af818361034d565b8101906131c5565b50565b503d6132a5565b80610eca6132ce926102e9565b3861324c565b91945091929190811630036132ed575061039b92613935565b61039b93613ca9565b5083471015613212565b906001820180921161090557565b906002820180921161090557565b90601f820180921161090557565b601701908160171161090557565b9190820180921161090557565b51906001600160701b03821682036103cd57565b908160609103126103cd5761336d81613345565b91604061337c60208401613345565b92015161058e81611899565b909260809261058e95948352602083015260018060a01b031660408201528160608201520190610558565b7f0000000000000000000000000000000000000000000000000000000000000000929160005b6133e38351611f2c565b8110156135ba576133f7610adc82856121c3565b9061340d610adc61340783613300565b866121c3565b6134178184613ee3565b509061342a610c33610c3383878c613117565b60408051630240bc6b60e21b8152600496919460609283838a81885afa9384156107dd5785936000918296613585575b50506001600160a01b03918216929091168214936001600160701b039081169116841561357f5790915b87516370a0823160e01b81526001600160a01b03909416848b0190815260209491859183919082908190850103915afa9384156107dd576134d8946134d3928492600092610d065750506135c1565b613f12565b901561357757600090925b6134ed8951611f3b565b86101561356f5761350e90613507610adc610b178961330e565b908c613117565b955b613518613090565b90833b156103cd5761354260009692879351998a978896879563022c0d9f60e01b87528601613388565b03925af19182156107dd5760019261355c575b50016133d9565b80610eca613569926102e9565b38613555565b508695613510565b6000926134e3565b91613484565b6135a993965080919250903d106135b3575b6135a1818361034d565b810190613359565b509390388061345a565b503d613597565b5050509050565b9081039081116109055790565b6000809160405182602082019163095ea7b360e01b835260018060a01b037f00000000000000000000000000000000000000000000000000000000000000001660248201528119604482015260448152613627816102fc565b51925af161363361249a565b8161363c575090565b805180159250821561364d57505090565b61058e92506020809183010191016131c5565b6000809160405182602082019163095ea7b360e01b835260018060a01b037f000000000000000000000000000000000000000000000000000000000000000016602482015281604482015260448152613627816102fc565b6000809160405182602082019163095ea7b360e01b835260018060a01b037f0000000000000000000000000000000000000000000000000000000000000000166024820152600119604482015260448152613627816102fc565b906000918015908115613728575b50156103cd57565b9092506103e89081810290810490818314851715610905579361374c571438613720565b6122c5565b9060009180159081156137665750156103cd57565b9092506103e59081810290810490818314851715610905579361374c571438613720565b6000929181159182156137a1575b5050156103cd57565b9080929450810290810490818314851715610905579361374c57143880613798565b906137d2601483511015613fab565b602082015160601c9160178151106138025760376017820151916137fa602b82511015613fab565b015160601c91565b60405162461bcd60e51b8152602060048201526014602482015273746f55696e7432345f6f75744f66426f756e647360601b6044820152606490fd5b61384c602b8251101561402c565b60405190600b8083019101603683015b808310613876575050602b8252601f01601f191660405290565b909182518152602080910192019061385c565b80516016199182820190828211610905576138ae826138a78161331c565b1015613fef565b6138bc60176138a78461332a565b6138d181516138ca8461332a565b111561402c565b816138eb5750505050604051600081526020810160405290565b601760405194601f8416801560051b9182828901019687010193010101905b8084106139225750508252601f01601f191660405290565b909283518152602080910193019061390a565b60405163a9059cbb60e01b602082019081526001600160a01b039093166024820152604481019390935260009283929083906139748160648101611a42565b51925af161398061249a565b816139b8575b501561398e57565b60405162461bcd60e51b815260206004820152600260248201526114d560f21b6044820152606490fd5b80518015925082156139cd575b505038613986565b6139e092506020809183010191016131c5565b38806139c5565b906139f182611812565b604090613a01604051918261034d565b8381528093613a12601f1991611812565b019160009060005b848110613a28575050505050565b6020908251613a36816102ce565b848152828581830152828701015201613a1a565b519061ffff821682036103cd57565b908160e09103126103cd578051613a6f816103bc565b916020820151613a7e81611ef3565b91613a8b60408201613a4a565b91613a9860608301613a4a565b91613aa560808201613a4a565b9161058e60c060a0840151613ab981610b29565b93016131b8565b9190916000838201938412911290801582169115161761090557565b908160000391808305600019149015171561090557565b9091600092600080938192613b0782614199565b83805b828610613b325750505050505015613b1e57565b9091613b2c61058e91613adc565b92613adc565b9091929394979895613b51613b46876137c3565b818394929b93613d60565b63ffffffff8816613c2657613b659061462f565b9290600293840b930b935b613b7988611f2c565b8d03613c0c57506001600160a01b038a81169082161099600194939291905b8d15918215613be2575b505015613bc957613bbc92613bb691613ac0565b9b613ac0565b985b019493929190613b0a565b613bdc92613bd6916128a1565b9b6128a1565b98613bbe565b909150858060a01b03809116918282891610600014613c055716115b3880613ba2565b1610613bfe565b9994509790613c1e6001949392613889565b988095613b98565b6001600160a01b03169291613c3b88856143f1565b5093600294850b946040518092633850c7bd60e01b825281600460e09586935afa9283156107dd578993613c73575b50500b92613b70565b613c93929350803d10613ca2575b613c8b818361034d565b810190613a59565b50505050509050903880613c6a565b503d613c81565b9091600080949381946040519160208301946323b872dd60e01b865260018060a01b038092166024850152166044830152606482015260648152613cec81610332565b51925af1613cf861249a565b81613d31575b5015613d0657565b60405162461bcd60e51b815260206004820152600360248201526229aa2360e91b6044820152606490fd5b8051801592508215613d46575b505038613cfe565b613d5992506020809183010191016131c5565b3880613d3e565b6001600160a01b0392613d9c92613d76926147f0565b7f0000000000000000000000000000000000000000000000000000000000000000614869565b1690565b600160ff1b8110156103cd5790565b90806060600493613dd5613dc38785613ee3565b50966001600160a01b03948593613117565b1660405194858092630240bc6b60e21b82525afa9283156107dd57600090600094613e1a575b5081906001600160701b03809116941694169116146000146124885791565b829450613e36915060603d6060116135b3576135a1818361034d565b5093613dfb565b91908215613e9e5780151580613e95575b156103cd57613e6083613e659261378a565b613712565b91810390811161090557613e7890613751565b90811561374c570460018101908181116109055781106103cd5790565b50811515613e4e565b60405162461bcd60e51b815260206004820152601a60248201527f494e53554646494349454e545f4f55545055545f414d4f554e540000000000006044820152606490fd5b90916001600160a01b03918284168382168082146103cd571015613f0d57925b918316156103cd57565b613f03565b8015613f665781151580613f5d575b156103cd57613f3c613f35613f4292613751565b938461378a565b91613712565b918201918281116109055782106103cd57811561374c570490565b50821515613f21565b60405162461bcd60e51b815260206004820152601960248201527f494e53554646494349454e545f494e5055545f414d4f554e54000000000000006044820152606490fd5b15613fb257565b60405162461bcd60e51b8152602060048201526015602482015274746f416464726573735f6f75744f66426f756e647360581b6044820152606490fd5b15613ff657565b60405162461bcd60e51b815260206004820152600e60248201526d736c6963655f6f766572666c6f7760901b6044820152606490fd5b1561403357565b60405162461bcd60e51b8152602060048201526011602482015270736c6963655f6f75744f66426f756e647360781b6044820152606490fd5b908160020b9182036103cd57565b811561374c57600160ff1b8114600019831416610905570590565b811561374c570790565b60020b627fffff198114610905576000190190565b90600080805b8451821015614157576140cd82866121c3565b515160020b6020936001600160801b03856140e8868a6121c3565b51015116828102929060008212600160ff1b8214166109055781840514901517156109055761414861413c61412261414e94600196613ac0565b9661412d878b6121c3565b5101516001600160801b031690565b6001600160801b031690565b90613338565b910190916140ba565b919350506141686129e8848361407a565b92600082129182614186575b505061417c57565b9061058e9061409f565b6141909250614095565b15153880614174565b516013198101908111610905576017900490565b156141b457565b60405162461bcd60e51b8152602060048201526002602482015261042560f41b6044820152606490fd5b604051906141eb82610317565b600282526040366020840137565b51908160060b82036103cd57565b9080601f830112156103cd5781519060209161422281611812565b93614230604051958661034d565b81855260208086019260051b8201019283116103cd57602001905b828210614259575050505090565b8380918351614267816103bc565b81520191019061424b565b9190916040818403126103cd578051926001600160401b03938481116103cd5782019381601f860112156103cd578451946020956142af81611812565b916142bd604051938461034d565b818352878084019260051b820101918583116103cd5788809201905b8382106142f95750505050948301519081116103cd5761058e9201614207565b828091614305846141f9565b8152019101906142d9565b602090602060408183019282815285518094520193019160005b828110614338575050505090565b835163ffffffff168552938101939281019260010161432a565b600691820b910b0390667fffffffffffff198212667fffffffffffff83131761090557565b60060b9060060b90811561374c57667fffffffffffff198114600019831416610905570590565b9060060b90811561374c5760060b0790565b6001600160c01b039081166001600160a01b038181029092169291818404149015171561090557565b6001600160c01b039182169190821561374c57160490565b6144569092919263ffffffff84169061440b8215156141ad565b61442b6144166141de565b95614420876121a1565b9063ffffffff169052565b60009485918261443a836121b3565b52604051808096819463883bdbfd60e01b835260048301614310565b03916001600160a01b03165afa9182156107dd5784908593614545575b506144a08161449a61448d61449461448d6144b9966121b3565b5160060b90565b926121a1565b90614352565b926144b3610adc614494610adc846121b3565b90612b21565b918160060b6144cb6129e88284614377565b958260060b129182614527575b5050614508575b61058e916144ef61413c926143b0565b60209190911b640100000000600160c01b0316906143d9565b9261058e916144ef61451c61413c9361409f565b9592505091506144df565b61453c9250906145369161439e565b60060b90565b151538806144d8565b6144a093506144b9915061456a903d8088833e614562818361034d565b810190614272565b93909150614473565b1561457a57565b60405162461bcd60e51b81526020600482015260036024820152624e454f60e81b6044820152606490fd5b91908260809103126103cd5781516145bc81611899565b916145c9602082016141f9565b9161058e60606040840151613ab9816103bc565b811561374c570690565b156145ee57565b60405162461bcd60e51b81526020600482015260036024820152624f4e4960e81b6044820152606490fd5b63ffffffff918216908216039190821161090557565b604051633850c7bd60e01b8152906001600160a01b031660e082600481845afa9081156107dd576000916000936000916147c3575b50829361ffff8092169261467a60018511614573565b60405163252c09d760e01b80825261ffff84166004830152608095919290918684602481855afa9586156107dd5760009460009761479c575b5063ffffffff95858716428816146146d15750505050505050505091565b889950916146f26146ed826146f7946147119c98979616613338565b611f2c565b6145dd565b916040518098819482938352600483019190602083019252565b03915afa9081156107dd5761475c956129e8956147519360009160009360009261475f575b50509261474661474b93946145e7565b614619565b93614352565b911660060b90614377565b91565b61474b945061474693506147889250803d10614795575b614780818361034d565b8101906145a5565b9194929391929050614736565b503d614776565b9096506147b7919450873d891161479557614780818361034d565b505093909395386146b3565b919350506147e0915060e03d60e011613ca257613c8b818361034d565b5050509391909250919238614664565b9162ffffff9160006040805161480581610317565b8281526020810183905201526001600160a01b039080821685831611614846575b816040519561483487610317565b16855216602084015216604082015290565b93614826565b6001600160a01b039161485e91614869565b16908133036103cd57565b81516020830180519092916001600160a01b03908116911611156103cd576149c36149cf61058e94610c339460008060405160208101906327b7cf8560e01b82527f33e0e214aaaa311945afafd84672c570c653a094e74e911ed49689d566f71cd36024820152602481526148dd81610317565b51906a636f6e736f6c652e6c6f675afa50815161491d90604090614912906001600160a01b031693516001600160a01b031690565b93015162ffffff1690565b604080516001600160a01b0393841660208201908152949093169083015262ffffff166060808301919091528152601f19919061495b60808261034d565b5190206040516001600160f81b03196020820190815260609690961b6bffffffffffffffffffffffff1916602182015260358101919091527f33e0e214aaaa311945afafd84672c570c653a094e74e911ed49689d566f71cd360558201529283906075820190565b0390810183528261034d565b5190206001600160a01b03169056",
    "linkReferences": {}
  },
  "methodIdentifiers": {
    "WETH9()": "4aa4a4fc",
    "approveMax(address)": "571ac8b0",
    "approveMaxMinusOne(address)": "cab372ce",
    "approveZeroThenMax(address)": "639d71a9",
    "approveZeroThenMaxMinusOne(address)": "ab3fdd50",
    "callPositionManager(bytes)": "b3a2af13",
    "checkOracleSlippage(bytes,uint24,uint32)": "f25801a7",
    "checkOracleSlippage(bytes[],uint128[],uint24,uint32)": "efdeed8e",
    "exactInput((bytes,address,uint256,uint256))": "b858183f",
    "exactInputSingle((address,address,uint24,address,uint256,uint256,uint160))": "04e45aaf",
    "exactOutput((bytes,address,uint256,uint256))": "09b81346",
    "exactOutputSingle((address,address,uint24,address,uint256,uint256,uint160))": "5023b4df",
    "factory()": "c45a0155",
    "factoryV2()": "68e0d4e1",
    "getApprovalType(address,uint256)": "dee00f35",
    "increaseLiquidity((address,address,uint256,uint256,uint256))": "f100b205",
    "mint((address,address,uint24,int24,int24,uint256,uint256,address))": "11ed56c9",
    "multicall(bytes32,bytes[])": "1f0464d1",
    "multicall(bytes[])": "ac9650d8",
    "multicall(uint256,bytes[])": "5ae401dc",
    "positionManager()": "791b98bc",
    "pull(address,uint256)": "f2d5d56b",
    "refundETH()": "12210e8a",
    "selfPermit(address,uint256,uint256,uint8,bytes32,bytes32)": "f3995c67",
    "selfPermitAllowed(address,uint256,uint256,uint8,bytes32,bytes32)": "4659a494",
    "selfPermitAllowedIfNecessary(address,uint256,uint256,uint8,bytes32,bytes32)": "a4a78f0c",
    "selfPermitIfNecessary(address,uint256,uint256,uint8,bytes32,bytes32)": "c2e3140a",
    "swapExactTokensForTokens(uint256,uint256,address[],address)": "472b43f3",
    "swapTokensForExactTokens(uint256,uint256,address[],address)": "42712a67",
    "sweepToken(address,uint256)": "e90a182f",
    "sweepToken(address,uint256,address)": "df2ab5bb",
    "sweepTokenWithFee(address,uint256,address,uint256,address)": "e0e189a0",
    "sweepTokenWithFee(address,uint256,uint256,address)": "3068c554",
    "uniswapV3SwapCallback(int256,int256,bytes)": "fa461e33",
    "unwrapWETH9(uint256)": "49616997",
    "unwrapWETH9(uint256,address)": "49404b7c",
    "unwrapWETH9WithFee(uint256,address,uint256,address)": "9b2c0a37",
    "unwrapWETH9WithFee(uint256,uint256,address)": "d4ef38de",
    "wrapETH(uint256)": "1c58db4f"
  },
  "id": 0
}