{"abi":[{"type":"constructor","inputs":[{"name":"_factoryV2","type":"address","internalType":"address"},{"name":"factoryV3","type":"address","internalType":"address"},{"name":"_positionManager","type":"address","internalType":"address"},{"name":"_WETH9","type":"address","internalType":"address"}],"stateMutability":"nonpayable"},{"type":"receive","stateMutability":"payable"},{"type":"function","name":"WETH9","inputs":[],"outputs":[{"name":"","type":"address","internalType":"address"}],"stateMutability":"view"},{"type":"function","name":"approveMax","inputs":[{"name":"token","type":"address","internalType":"address"}],"outputs":[],"stateMutability":"payable"},{"type":"function","name":"approveMaxMinusOne","inputs":[{"name":"token","type":"address","internalType":"address"}],"outputs":[],"stateMutability":"payable"},{"type":"function","name":"approveZeroThenMax","inputs":[{"name":"token","type":"address","internalType":"address"}],"outputs":[],"stateMutability":"payable"},{"type":"function","name":"approveZeroThenMaxMinusOne","inputs":[{"name":"token","type":"address","internalType":"address"}],"outputs":[],"stateMutability":"payable"},{"type":"function","name":"callPositionManager","inputs":[{"name":"data","type":"bytes","internalType":"bytes"}],"outputs":[{"name":"result","type":"bytes","internalType":"bytes"}],"stateMutability":"payable"},{"type":"function","name":"checkOracleSlippage","inputs":[{"name":"paths","type":"bytes[]","internalType":"bytes[]"},{"name":"amounts","type":"uint128[]","internalType":"uint128[]"},{"name":"maximumTickDivergence","type":"uint24","internalType":"uint24"},{"name":"secondsAgo","type":"uint32","internalType":"uint32"}],"outputs":[],"stateMutability":"view"},{"type":"function","name":"checkOracleSlippage","inputs":[{"name":"path","type":"bytes","internalType":"bytes"},{"name":"maximumTickDivergence","type":"uint24","internalType":"uint24"},{"name":"secondsAgo","type":"uint32","internalType":"uint32"}],"outputs":[],"stateMutability":"view"},{"type":"function","name":"exactInput","inputs":[{"name":"params","type":"tuple","internalType":"struct IV3SwapRouter.ExactInputParams","components":[{"name":"path","type":"bytes","internalType":"bytes"},{"name":"recipient","type":"address","internalType":"address"},{"name":"amountIn","type":"uint256","internalType":"uint256"},{"name":"amountOutMinimum","type":"uint256","internalType":"uint256"}]}],"outputs":[{"name":"amountOut","type":"uint256","internalType":"uint256"}],"stateMutability":"payable"},{"type":"function","name":"exactInputSingle","inputs":[{"name":"params","type":"tuple","internalType":"struct IV3SwapRouter.ExactInputSingleParams","components":[{"name":"tokenIn","type":"address","internalType":"address"},{"name":"tokenOut","type":"address","internalType":"address"},{"name":"fee","type":"uint24","internalType":"uint24"},{"name":"recipient","type":"address","internalType":"address"},{"name":"amountIn","type":"uint256","internalType":"uint256"},{"name":"amountOutMinimum","type":"uint256","internalType":"uint256"},{"name":"sqrtPriceLimitX96","type":"uint160","internalType":"uint160"}]}],"outputs":[{"name":"amountOut","type":"uint256","internalType":"uint256"}],"stateMutability":"payable"},{"type":"function","name":"exactOutput","inputs":[{"name":"params","type":"tuple","internalType":"struct IV3SwapRouter.ExactOutputParams","components":[{"name":"path","type":"bytes","internalType":"bytes"},{"name":"recipient","type":"address","internalType":"address"},{"name":"amountOut","type":"uint256","internalType":"uint256"},{"name":"amountInMaximum","type":"uint256","internalType":"uint256"}]}],"outputs":[{"name":"amountIn","type":"uint256","internalType":"uint256"}],"stateMutability":"payable"},{"type":"function","name":"exactOutputSingle","inputs":[{"name":"params","type":"tuple","internalType":"struct IV3SwapRouter.ExactOutputSingleParams","components":[{"name":"tokenIn","type":"address","internalType":"address"},{"name":"tokenOut","type":"address","internalType":"address"},{"name":"fee","type":"uint24","internalType":"uint24"},{"name":"recipient","type":"address","internalType":"address"},{"name":"amountOut","type":"uint256","internalType":"uint256"},{"name":"amountInMaximum","type":"uint256","internalType":"uint256"},{"name":"sqrtPriceLimitX96","type":"uint160","internalType":"uint160"}]}],"outputs":[{"name":"amountIn","type":"uint256","internalType":"uint256"}],"stateMutability":"payable"},{"type":"function","name":"factory","inputs":[],"outputs":[{"name":"","type":"address","internalType":"address"}],"stateMutability":"view"},{"type":"function","name":"factoryV2","inputs":[],"outputs":[{"name":"","type":"address","internalType":"address"}],"stateMutability":"view"},{"type":"function","name":"getApprovalType","inputs":[{"name":"token","type":"address","internalType":"address"},{"name":"amount","type":"uint256","internalType":"uint256"}],"outputs":[{"name":"","type":"uint8","internalType":"enum IApproveAndCall.ApprovalType"}],"stateMutability":"nonpayable"},{"type":"function","name":"increaseLiquidity","inputs":[{"name":"params","type":"tuple","internalType":"struct IApproveAndCall.IncreaseLiquidityParams","components":[{"name":"token0","type":"address","internalType":"address"},{"name":"token1","type":"address","internalType":"address"},{"name":"tokenId","type":"uint256","internalType":"uint256"},{"name":"amount0Min","type":"uint256","internalType":"uint256"},{"name":"amount1Min","type":"uint256","internalType":"uint256"}]}],"outputs":[{"name":"result","type":"bytes","internalType":"bytes"}],"stateMutability":"payable"},{"type":"function","name":"mint","inputs":[{"name":"params","type":"tuple","internalType":"struct IApproveAndCall.MintParams","components":[{"name":"token0","type":"address","internalType":"address"},{"name":"token1","type":"address","internalType":"address"},{"name":"fee","type":"uint24","internalType":"uint24"},{"name":"tickLower","type":"int24","internalType":"int24"},{"name":"tickUpper","type":"int24","internalType":"int24"},{"name":"amount0Min","type":"uint256","internalType":"uint256"},{"name":"amount1Min","type":"uint256","internalType":"uint256"},{"name":"recipient","type":"address","internalType":"address"}]}],"outputs":[{"name":"result","type":"bytes","internalType":"bytes"}],"stateMutability":"payable"},{"type":"function","name":"multicall","inputs":[{"name":"previousBlockhash","type":"bytes32","internalType":"bytes32"},{"name":"data","type":"bytes[]","internalType":"bytes[]"}],"outputs":[{"name":"","type":"bytes[]","internalType":"bytes[]"}],"stateMutability":"payable"},{"type":"function","name":"multicall","inputs":[{"name":"deadline","type":"uint256","internalType":"uint256"},{"name":"data","type":"bytes[]","internalType":"bytes[]"}],"outputs":[{"name":"","type":"bytes[]","internalType":"bytes[]"}],"stateMutability":"payable"},{"type":"function","name":"multicall","inputs":[{"name":"data","type":"bytes[]","internalType":"bytes[]"}],"outputs":[{"name":"results","type":"bytes[]","internalType":"bytes[]"}],"stateMutability":"payable"},{"type":"function","name":"positionManager","inputs":[],"outputs":[{"name":"","type":"address","internalType":"address"}],"stateMutability":"view"},{"type":"function","name":"pull","inputs":[{"name":"token","type":"address","internalType":"address"},{"name":"value","type":"uint256","internalType":"uint256"}],"outputs":[],"stateMutability":"payable"},{"type":"function","name":"refundETH","inputs":[],"outputs":[],"stateMutability":"payable"},{"type":"function","name":"selfPermit","inputs":[{"name":"token","type":"address","internalType":"address"},{"name":"value","type":"uint256","internalType":"uint256"},{"name":"deadline","type":"uint256","internalType":"uint256"},{"name":"v","type":"uint8","internalType":"uint8"},{"name":"r","type":"bytes32","internalType":"bytes32"},{"name":"s","type":"bytes32","internalType":"bytes32"}],"outputs":[],"stateMutability":"payable"},{"type":"function","name":"selfPermitAllowed","inputs":[{"name":"token","type":"address","internalType":"address"},{"name":"nonce","type":"uint256","internalType":"uint256"},{"name":"expiry","type":"uint256","internalType":"uint256"},{"name":"v","type":"uint8","internalType":"uint8"},{"name":"r","type":"bytes32","internalType":"bytes32"},{"name":"s","type":"bytes32","internalType":"bytes32"}],"outputs":[],"stateMutability":"payable"},{"type":"function","name":"selfPermitAllowedIfNecessary","inputs":[{"name":"token","type":"address","internalType":"address"},{"name":"nonce","type":"uint256","internalType":"uint256"},{"name":"expiry","type":"uint256","internalType":"uint256"},{"name":"v","type":"uint8","internalType":"uint8"},{"name":"r","type":"bytes32","internalType":"bytes32"},{"name":"s","type":"bytes32","internalType":"bytes32"}],"outputs":[],"stateMutability":"payable"},{"type":"function","name":"selfPermitIfNecessary","inputs":[{"name":"token","type":"address","internalType":"address"},{"name":"value","type":"uint256","internalType":"uint256"},{"name":"deadline","type":"uint256","internalType":"uint256"},{"name":"v","type":"uint8","internalType":"uint8"},{"name":"r","type":"bytes32","internalType":"bytes32"},{"name":"s","type":"bytes32","internalType":"bytes32"}],"outputs":[],"stateMutability":"payable"},{"type":"function","name":"swapExactTokensForTokens","inputs":[{"name":"amountIn","type":"uint256","internalType":"uint256"},{"name":"amountOutMin","type":"uint256","internalType":"uint256"},{"name":"path","type":"address[]","internalType":"address[]"},{"name":"to","type":"address","internalType":"address"}],"outputs":[{"name":"amountOut","type":"uint256","internalType":"uint256"}],"stateMutability":"payable"},{"type":"function","name":"swapTokensForExactTokens","inputs":[{"name":"amountOut","type":"uint256","internalType":"uint256"},{"name":"amountInMax","type":"uint256","internalType":"uint256"},{"name":"path","type":"address[]","internalType":"address[]"},{"name":"to","type":"address","internalType":"address"}],"outputs":[{"name":"amountIn","type":"uint256","internalType":"uint256"}],"stateMutability":"payable"},{"type":"function","name":"sweepToken","inputs":[{"name":"token","type":"address","internalType":"address"},{"name":"amountMinimum","type":"uint256","internalType":"uint256"},{"name":"recipient","type":"address","internalType":"address"}],"outputs":[],"stateMutability":"payable"},{"type":"function","name":"sweepToken","inputs":[{"name":"token","type":"address","internalType":"address"},{"name":"amountMinimum","type":"uint256","internalType":"uint256"}],"outputs":[],"stateMutability":"payable"},{"type":"function","name":"sweepTokenWithFee","inputs":[{"name":"token","type":"address","internalType":"address"},{"name":"amountMinimum","type":"uint256","internalType":"uint256"},{"name":"feeBips","type":"uint256","internalType":"uint256"},{"name":"feeRecipient","type":"address","internalType":"address"}],"outputs":[],"stateMutability":"payable"},{"type":"function","name":"sweepTokenWithFee","inputs":[{"name":"token","type":"address","internalType":"address"},{"name":"amountMinimum","type":"uint256","internalType":"uint256"},{"name":"recipient","type":"address","internalType":"address"},{"name":"feeBips","type":"uint256","internalType":"uint256"},{"name":"feeRecipient","type":"address","internalType":"address"}],"outputs":[],"stateMutability":"payable"},{"type":"function","name":"uniswapV3SwapCallback","inputs":[{"name":"amount0Delta","type":"int256","internalType":"int256"},{"name":"amount1Delta","type":"int256","internalType":"int256"},{"name":"_data","type":"bytes","internalType":"bytes"}],"outputs":[],"stateMutability":"nonpayable"},{"type":"function","name":"unwrapWETH9","inputs":[{"name":"amountMinimum","type":"uint256","internalType":"uint256"},{"name":"recipient","type":"address","internalType":"address"}],"outputs":[],"stateMutability":"payable"},{"type":"function","name":"unwrapWETH9","inputs":[{"name":"amountMinimum","type":"uint256","internalType":"uint256"}],"outputs":[],"stateMutability":"payable"},{"type":"function","name":"unwrapWETH9WithFee","inputs":[{"name":"amountMinimum","type":"uint256","internalType":"uint256"},{"name":"recipient","type":"address","internalType":"address"},{"name":"feeBips","type":"uint256","internalType":"uint256"},{"name":"feeRecipient","type":"address","internalType":"address"}],"outputs":[],"stateMutability":"payable"},{"type":"function","name":"unwrapWETH9WithFee","inputs":[{"name":"amountMinimum","type":"uint256","internalType":"uint256"},{"name":"feeBips","type":"uint256","internalType":"uint256"},{"name":"feeRecipient","type":"address","internalType":"address"}],"outputs":[],"stateMutability":"payable"},{"type":"function","name":"wrapETH","inputs":[{"name":"value","type":"uint256","internalType":"uint256"}],"outputs":[],"stateMutability":"payable"}],"bytecode":{"object":"0x610100346200012f57601f62004a9338819003918201601f19168301916001600160401b0383118484101762000133578084926080946040528339810103126200012f576200004e8162000147565b906200005d6020820162000147565b906200007a6060620000726040840162000147565b920162000147565b9260805260a05260c05260e0525f195f5560405161493690816200015d823960805181818161097c01528181610bc0015281816111be0152613342015260a051818181611202015281816124bd015281816126670152818161357401528181613605015261365c015260c0518181816115b901528181611b640152613ce8015260e05181818161076b01528181610e1401528181610f0401528181610fd9015281816122c401528181612a5f01526131720152f35b5f80fd5b634e487b7160e01b5f52604160045260245ffd5b51906001600160a01b03821682036200012f5756fe60806040526004361015610022575b3615610018575f80fd5b610020612a5d565b005b5f3560e01c806304e45aaf1461029157806309b813461461028c57806311ed56c91461028757806312210e8a146102825780631c58db4f1461027d5780631f0464d1146102785780633068c5541461027357806342712a671461026e5780634659a49414610269578063472b43f31461026457806349404b7c1461025f578063496169971461025a5780634aa4a4fc146102555780635023b4df14610250578063571ac8b01461024b5780635ae401dc14610246578063639d71a91461024157806368e0d4e11461023c578063791b98bc146102375780639b2c0a3714610232578063a4a78f0c1461022d578063ab3fdd5014610228578063ac9650d814610223578063b3a2af131461021e578063b858183f14610219578063c2e3140a14610214578063c45a01551461020f578063cab372ce1461020a578063d4ef38de14610205578063dee00f3514610200578063df2ab5bb146101fb578063e0e189a0146101f6578063e90a182f146101f1578063efdeed8e146101ec578063f100b205146101e7578063f25801a7146101e2578063f2d5d56b146101dd578063f3995c67146101d85763fa461e330361000e57611ad7565b611abf565b611a97565b611a2d565b611954565b611886565b611759565b611717565b61167f565b61162f565b611608565b6115e8565b6115a4565b61152b565b6114a3565b611459565b61130e565b6112df565b611265565b611231565b6111ed565b6111a9565b61117a565b6110fd565b6110d6565b611008565b610fc4565b610edb565b610ddf565b610b6e565b610b56565b61096b565b6108f4565b610864565b61075c565b610740565b610587565b61048e565b610401565b634e487b7160e01b5f52604160045260245ffd5b60e081019081106001600160401b038211176102c557604052565b610296565b604081019081106001600160401b038211176102c557604052565b6001600160401b0381116102c557604052565b608081019081106001600160401b038211176102c557604052565b606081019081106001600160401b038211176102c557604052565b60a081019081106001600160401b038211176102c557604052565b90601f801991011681019081106001600160401b038211176102c557604052565b6040519061016082018281106001600160401b038211176102c557604052565b60405190610397826102ca565b565b6040519060c082018281106001600160401b038211176102c557604052565b6001600160a01b038116036103c957565b5f80fd5b60643590610397826103b8565b62ffffff8116036103c957565b60443590610397826103da565b60c43590610397826103b8565b60e03660031901126103c95761048a61047a60405161041f816102aa565b60043561042b816103b8565b8152602435610439816103b8565b60208201526104466103e7565b60408201526104536103cd565b6060820152608435608082015260a43560a08201526104706103f4565b60c0820152611c84565b6040519081529081906020820190565b0390f35b6003196020368201126103c9576004356001600160401b0381116103c9576080816004019282360301126103c9576105066104f461048a936104de6024850135916104d8836103b8565b80611e37565b9290604051936104ed856102ca565b3691611408565b82523360208301526044840135612d4c565b5061051960645f54920135821115611e69565b5f195f556040519081529081906020820190565b5f5b83811061053e5750505f910152565b818101518382015260200161052f565b906020916105678151809281855285808601910161052d565b601f01601f1916010190565b90602061058492818152019061054e565b90565b610100806003193601126103c95761059d611e09565b906105a6611e15565b906105af611eaa565b6105b7611ec1565b6105bf611ecd565b6105c7611e09565b6105d090612fd0565b916105d9611e15565b6105e290612fd0565b936105eb611e21565b966105f461036a565b6001600160a01b0390991689526001600160a01b0316602089015262ffffff16604088015260020b606087015260020b608086015260a085015260c084015260a43560e084015260c435908301526001600160a01b03166101208201525f19610140820152604051634418b22b60e11b602082015290819061070d906024830181516001600160a01b03168152610160810192916020818101516001600160a01b03169083015260408181015162ffffff169083015260608181015160020b9083015260808181015160020b9083015260a0818101519083015260c0808201519083015260e080820151908301526101008082015190830152610120808201516001600160a01b03169083015261014080910151910152565b03601f198101825261071f9082610349565b610728906124b1565b60405161048a819282610573565b5f9103126103c957565b5f3660031901126103c9574761075257005b6100204733613049565b5f60203660031901126103c9577f00000000000000000000000000000000000000000000000000000000000000006001600160a01b0316803b156103c9575f60049160405192838092630d0e30db60e41b82528235905af180156107cc576107c2575080f35b61002091506102e5565b611c37565b9181601f840112156103c9578235916001600160401b0383116103c9576020808501948460051b0101116103c957565b6020808201906020835283518092526040830192602060408460051b8301019501935f915b8483106108365750505050505090565b9091929394958480610854600193603f198682030187528a5161054e565b9801930193019194939290610826565b60403660031901126103c9576024356001600160401b0381116103c95761088f9036906004016107d1565b905f1943014381116108ef576004359040036108be5761048a916108b291612016565b60405191829182610801565b60405162461bcd60e51b8152602060048201526009602482015268084d8dec6d6d0c2e6d60bb1b6044820152606490fd5b611ed9565b60803660031901126103c95761002060043561090f816103b8565b6064359061091c826103b8565b6044359033906024359061277f565b60806003198201126103c9576004359160243591604435906001600160401b0382116103c95761095d916004016107d1565b9091606435610584816103b8565b6109743661092b565b8093929193927f00000000000000000000000000000000000000000000000000000000000000006109a63687866120ee565b805197600289106103c9576109ba896117e4565b986109c86040519a8b610349565b808a526109d7601f19916117e4565b013660208b01376109f16109eb8a51611eed565b8a61217c565b526109fc8151611eed565b805b610aa85761048a610a2a61047a8a8a8a8a8f8b8b610a1e610a689361215a565b51988992831115611e69565b610a60610a3f610a3a8988612190565b611e2d565b91610a4d610a3a8a89612190565b610a5a610a3a8b8a612199565b916130a6565b903390613168565b6001600160a01b031660018103610a8e5750610a89915033925b36916120ee565b613340565b600214610aa0575b610a899192610a82565b309150610a96565b80610af5818b610aef610ae7610ad3610ac66109eb610b0d99611eed565b516001600160a01b031690565b610ae0610ac6868b61217c565b908a613d1f565b93909261217c565b51613daa565b610b07610b0183611eed565b8c61217c565b5261309a565b806109fe565b60ff8116036103c957565b60c09060031901126103c957600435610b36816103b8565b906024359060443590606435610b4b81610b13565b906084359060a43590565b610020610b6236610b1e565b949390939291926121b8565b610b773661092b565b909391929181905f908015610d6e575b610bea91610b98610a3a8989612190565b9015610d6857305b610be4610bb0610a3a8b8b612190565b610bbd610a3a8c8c612199565b907f00000000000000000000000000000000000000000000000000000000000000006130a6565b91613168565b6001600160a01b031660018103610d5557505033915b610c28610c1c610c1c610a3a610c1588611eed565b88866121a8565b6001600160a01b031690565b6040516370a0823160e01b8082526001600160a01b0386166004830152909460209390928490879060249082905afa9586156107cc575f96610d1a575b5090610c9a610c1c610c1c610a3a8695610cbf999a9b610c8b8a99610a893684866120ee565b610c9481611eed565b916121a8565b6040519182526001600160a01b03909216600482015293849190829081906024820190565b03915afa9384156107cc5761048a9461047a93610ce4935f92610ced575b5050613548565b91821015611c42565b610d0c9250803d10610d13575b610d048183610349565b810190611c28565b5f80610cdd565b503d610cfa565b610cbf959650610c1c610c1c610a3a87969594610d46610c9a95893d8b11610d1357610d048183610349565b9a995094959650505050610c65565b90929060011901610c0057309250610c00565b33610ba0565b50506001610d85610c1c610c1c610a3a8989612190565b6040516370a0823160e01b81523060048201529190602090839060249082905afa80156107cc57610bea925f91610dc0575b50909150610b87565b610dd9915060203d602011610d1357610d048183610349565b5f610db7565b60403660031901126103c957602435610df7816103b8565b6040516370a0823160e01b81523060048201526001600160a01b037f00000000000000000000000000000000000000000000000000000000000000001691602082602481865afa9182156107cc575f92610eba575b50610e5b600435831015612235565b81610e6257005b823b156103c957604051632e1a7d4d60e01b815260048101839052925f908490602490829084905af19283156107cc5761002093610ea1575b50613049565b80610eae610eb4926102e5565b80610736565b5f610e9b565b610ed491925060203d602011610d1357610d048183610349565b905f610e4c565b60203660031901126103c9576040516370a0823160e01b81523060048201526001600160a01b037f00000000000000000000000000000000000000000000000000000000000000001690602081602481855afa9081156107cc575f91610fa5575b50610f4b600435821015612235565b80610f5257005b813b156103c957604051632e1a7d4d60e01b815260048101829052915f908390602490829084905af19182156107cc5761002092610f92575b5033613049565b80610eae610f9f926102e5565b5f610f8b565b610fbe915060203d602011610d1357610d048183610349565b5f610f3c565b346103c9575f3660031901126103c9576040517f00000000000000000000000000000000000000000000000000000000000000006001600160a01b03168152602090f35b60e03660031901126103c95761048a6110bf606435611026816103b8565b60c435611032816103b8565b6024359161103f836103b8565b6110a66044359361104f856103da565b61109861105a611e09565b604051968793602085019192602b936001600160601b0319809360601b16845262ffffff60e81b9060e81b16601484015260601b1660178201520190565b03601f198101855284610349565b6110ae61038a565b928352336020840152608435612e82565b6110cd60a435821115611e69565b5f195f5561047a565b60203660031901126103c9576110f66004356110f1816103b8565b613555565b156103c957005b60403660031901126103c9576024356001600160401b0381116103c9576111289036906004016107d1565b90600435421161113f5761048a916108b291612016565b60405162461bcd60e51b8152602060048201526013602482015272151c985b9cd858dd1a5bdb881d1bdbc81bdb19606a1b6044820152606490fd5b60203660031901126103c957600435611192816103b8565b61119b816135e6565b156103c9576110f690613555565b346103c9575f3660031901126103c9576040517f00000000000000000000000000000000000000000000000000000000000000006001600160a01b03168152602090f35b346103c9575f3660031901126103c9576040517f00000000000000000000000000000000000000000000000000000000000000006001600160a01b03168152602090f35b60803660031901126103c95761002060243561124c816103b8565b60643590611259826103b8565b60443590600435612291565b61126e36610b1e565b604051636eb1769f60e11b81523360048201523060248201529094919391906020816044816001600160a01b038b165afa9081156107cc575f916112c0575b505f19116112b757005b610020956121b8565b6112d9915060203d602011610d1357610d048183610349565b5f6112ad565b60203660031901126103c9576004356112f7816103b8565b611300816135e6565b156103c9576110f69061363d565b60203660031901126103c957600480356001600160401b0381116103c95761133a9036906004016107d1565b91611344836123db565b925f5b81811061135c576040518061048a8782610801565b5f80611369838588612424565b6040939161137b85518093819361243f565b0390305af49061138961244c565b91156113b057509060019161139e828861217c565b526113a9818761217c565b5001611347565b848260448151106103c9576113d481836113e993015160248091830101910161247b565b925162461bcd60e51b81529283928301610573565b0390fd5b6001600160401b0381116102c557601f01601f191660200190565b929192611414826113ed565b916114226040519384610349565b8294818452818301116103c9578281602093845f960137010152565b9080601f830112156103c95781602061058493359101611408565b60203660031901126103c9576004356001600160401b0381116103c95761148f61148a61048a92369060040161143e565b6124b1565b60405191829160208352602083019061054e565b6003196020368201126103c9576004356001600160401b03918282116103c95760809082360301126103c9576040516114db816102f8565b81600401359283116103c957606461047a9261150061048a956004369184010161143e565b83526024810135611510816103b8565b60208401526044810135604084015201356060820152612532565b61153436610b1e565b604051636eb1769f60e11b81523360048201523060248201529094919391906020816044816001600160a01b038b165afa80156107cc5782915f91611585575b501061157c57005b61002095612994565b61159e915060203d602011610d1357610d048183610349565b5f611574565b346103c9575f3660031901126103c9576040517f00000000000000000000000000000000000000000000000000000000000000006001600160a01b03168152602090f35b60203660031901126103c9576110f6600435611603816103b8565b61363d565b60603660031901126103c957610020604435611623816103b8565b60243533600435612291565b346103c95760403660031901126103c95761165860043561164f816103b8565b6024359061264a565b604051600582101561166b576020918152f35b634e487b7160e01b5f52602160045260245ffd5b60603660031901126103c957600435611697816103b8565b6044356116a3816103b8565b6040516370a0823160e01b8152306004820152906020826024816001600160a01b0387165afa9182156107cc575f926116f6575b506116e660243583101561273e565b816116ed57005b610020926138b5565b61171091925060203d602011610d1357610d048183610349565b905f6116d7565b60a03660031901126103c957610020600435611732816103b8565b6044359061173f826103b8565b6084359161174c836103b8565b606435916024359061277f565b60403660031901126103c957600435611771816103b8565b6040516370a0823160e01b81523060048201526020816024816001600160a01b0386165afa9081156107cc575f916117c5575b506117b360243582101561273e565b806117ba57005b6100209133906138b5565b6117de915060203d602011610d1357610d048183610349565b5f6117a4565b6001600160401b0381116102c55760051b60200190565b9080601f830112156103c9576020908235611815816117e4565b936118236040519586610349565b81855260208086019260051b8201019283116103c957602001905b82821061184c575050505090565b81356001600160801b03811681036103c957815290830190830161183e565b63ffffffff8116036103c957565b606435906103978261186b565b346103c95760803660031901126103c9576001600160401b036004358181116103c957366023820112156103c95780600401356024916118c5826117e4565b926118d36040519485610349565b8284526020926024602086019160051b840101923684116103c95760248101915b84831061192e57602435878982116103c9576119176100209236906004016117fb565b61191f6103e7565b90611928611879565b9261288c565b82358881116103c9578691611949839287369187010161143e565b8152019201916118f4565b60a03660031901126103c95761048a611a21611a1361148a61198060043561197b816103b8565b612fd0565b61198f60243561197b816103b8565b611997610399565b91604435835260208301526040820152606435606082015260843560808201525f1960a082015260405192839163219f5d1760e01b60208401526024830191909160a08060c083019480518452602081015160208501526040810151604085015260608101516060850152608081015160808501520151910152565b03601f198101835282610349565b60405191829182610573565b346103c95760603660031901126103c9576004356001600160401b0381116103c957611a6061002091369060040161143e565b62ffffff611a8f611a8960243593611a77856103da565b60443590611a848261186b565b613a6a565b90612843565b91161361285b565b60403660031901126103c957610020600435611ab2816103b8565b6024359030903390613c1a565b610020611acb36610b1e565b94939093929192612994565b346103c95760603660031901126103c9576044356004356024356001600160401b038084116103c957366023850112156103c95783600401359081116103c95783016024013681116103c957611b8891611b4b611b629260245f871397888015611c1f575b611b4590612276565b016129fc565b94611b568651613744565b8183979396929661474a565b7f00000000000000000000000000000000000000000000000000000000000000006147a5565b5015611c0957506001600160a01b03818116908316105b15611bc257506020929092015161002092906001600160a01b03165b3391613168565b9050611bd2835160429051101590565b15611bf057509061002091611be7825161380a565b82523390612d4c565b611bbb602061002094845f55015160018060a01b031690565b92506001600160a01b0382811690821610611b9f565b505f8513611b3c565b908160209103126103c9575190565b6040513d5f823e3d90fd5b15611c4957565b60405162461bcd60e51b8152602060048201526013602482015272151bdbc81b1a5d1d1b19481c9958d95a5d9959606a1b6044820152606490fd5b905f826080810191825115611d85575b915160608201516103979360a093611d719390926001600160a01b031660c08401519091906001600160a01b03168451909390611d47906001600160a01b0316611d39611cfb6020611cec60408b015162ffffff1690565b9901516001600160a01b031690565b604051988993602085019192602b936001600160601b0319809360601b16845262ffffff60e81b9060e81b16601484015260601b1660178201520190565b03601f198101875286610349565b15611d7c57611d6c305b611d5961038a565b9586526001600160a01b03166020860152565b612c8b565b930151831015611c42565b611d6c33611d51565b5050825160019190611da190610c1c906001600160a01b031681565b6040516370a0823160e01b815230600482015290602090829060249082905afa9081156107cc576103979360a093611d719388935f91611dea575b508152945091509150611c94565b611e03915060203d602011610d1357610d048183610349565b5f611ddc565b600435610584816103b8565b602435610584816103b8565b60e435610584816103b8565b35610584816103b8565b903590601e19813603018212156103c957018035906001600160401b0382116103c9576020019181360383136103c957565b15611e7057565b60405162461bcd60e51b8152602060048201526012602482015271151bdbc81b5d58da081c995c5d595cdd195960721b6044820152606490fd5b604435610584816103da565b8060020b036103c957565b60643561058481611eb6565b60843561058481611eb6565b634e487b7160e01b5f52601160045260245ffd5b5f198101919082116108ef57565b6001198101919082116108ef57565b919082039182116108ef57565b90929192611f24816113ed565b91611f326040519384610349565b8294828452828201116103c957602061039793019061052d565b9060209081838203126103c95782516001600160401b03938482116103c957019080601f830112156103c9578151611f83816117e4565b94604090611f946040519788610349565b828752858088019360051b860101948486116103c957868101935b868510611fc157505050505050505090565b84518381116103c957820186603f820112156103c9578891611feb88838886809601519101611f17565b815201940193611faf565b908060209392818452848401375f828201840152601f01601f1916010190565b6040518092631592ca1b60e31b82526024820190806020926020600486015252604483019160448260051b8501019480935f915b84831061208d57505050505050805f92038183305af19081156107cc575f91612071575090565b61058491503d805f833e6120858183610349565b810190611f4c565b919395509193956043198882030183528635601e19833603018112156103c95782018581019190356001600160401b0381116103c95780360383136103c9576120db87928392600195611ff6565b980193019301909287959394929461204a565b92916120f9826117e4565b916121076040519384610349565b829481845260208094019160051b81019283116103c957905b82821061212d5750505050565b838091833561213b816103b8565b815201910190612120565b634e487b7160e01b5f52603260045260245ffd5b8051156121675760200190565b612146565b8051600110156121675760400190565b80518210156121675760209160051b010190565b90156121675790565b90600110156121675760200190565b91908110156121675760051b0190565b92946001600160a01b0390931693919291843b156103c9575f9461010493869260ff604051998a9889976323f2ebc360e21b89523360048a01523060248a015260448901526064880152600160848801521660a486015260c485015260e48401525af180156107cc576122285750565b80610eae610397926102e5565b1561223c57565b60405162461bcd60e51b8152602060048201526012602482015271496e73756666696369656e7420574554483960701b6044820152606490fd5b156103c957565b634e487b7160e01b5f52601260045260245ffd5b92919091811515806123d0575b6122a790612276565b6040516370a0823160e01b81523060048201526001600160a01b037f00000000000000000000000000000000000000000000000000000000000000001694602082602481895afa9182156107cc575f926123ab575b5061230990821015612235565b80612316575b5050505050565b843b156103c957604051632e1a7d4d60e01b815260048101829052945f908690602490829084905af19485156107cc57612361612378946123699261237e98612398575b508361370c565b612710900490565b918280612388575b5050611f0a565b90613049565b5f8080808061230f565b61239191613049565b5f82612371565b80610eae6123a5926102e5565b5f61235a565b6123099192506123c99060203d602011610d1357610d048183610349565b91906122fc565b50606482111561229e565b906123e5826117e4565b6123f26040519182610349565b8281528092612403601f19916117e4565b01905f5b82811061241357505050565b806060602080938501015201612407565b908210156121675761243b9160051b810190611e37565b9091565b908092918237015f815290565b3d15612476573d9061245d826113ed565b9161246b6040519384610349565b82523d5f602084013e565b606090565b6020818303126103c9578051906001600160401b0382116103c957019080601f830112156103c957815161058492602001611f17565b5f8091602081519101827f00000000000000000000000000000000000000000000000000000000000000005af1906124e761244c565b91156124ef57565b5060448151106103c9576125128160248060046113e9950151830101910161247b565b60405162461bcd60e51b815260206004820152918291602483019061054e565b905f60408301908151156125dd575b156125d757305b61258c845191604283511015928451845f146125bb5761258761256b30936137bf565b9361257461038a565b9485526001600160a01b03166020850152565b612b68565b80835290156125a85750306125a1845161380a565b8452612548565b6103979150606090930151831015611c42565b60208801516125879061256b906001600160a01b0316936137bf565b33612548565b5060016125ea8451613744565b50506040516370a0823160e01b815230600482015290602090829060249082906001600160a01b03165afa9081156107cc575f9161262b575b508252612541565b612644915060203d602011610d1357610d048183610349565b5f612623565b604051636eb1769f60e11b81523060048201526001600160a01b037f0000000000000000000000000000000000000000000000000000000000000000166024820152909190602081806044810103816001600160a01b0387165afa9081156107cc575f9161271f575b50101561271a576126c381613555565b612714576126d08161363d565b61270e576126e56126e0826135e6565b612276565b6126ee81613555565b612708576126fb9061363d565b612703575f80fd5b600490565b50600390565b50600290565b50600190565b505f90565b612738915060203d602011610d1357610d048183610349565b5f6126b3565b1561274557565b60405162461bcd60e51b815260206004820152601260248201527124b739bab33334b1b4b2b73a103a37b5b2b760711b6044820152606490fd5b92909381151580612838575b61279490612276565b6040516370a0823160e01b8152306004820152946020866024816001600160a01b0389165afa9586156107cc575f96612813575b506127d59086101561273e565b846127e1575050505050565b846127f56123616128039461237e9861370c565b918280612809575050611f0a565b916138b5565b61239191876138b5565b6127d59196506128319060203d602011610d1357610d048183610349565b95906127c8565b50606482111561278b565b81810392915f1380158285131691841216176108ef57565b1561286257565b60405162461bcd60e51b8152602060048201526002602482015261151160f21b6044820152606490fd5b909193926128a682516128a185518214612276565b613966565b916128b18151613966565b945f5b825181101561296557806129096128ff6128e76128fa6128e0896128da6001988b61217c565b51613a6a565b9290613fd9565b6128f1868c61217c565b519060020b9052565b613fd9565b6128f1838b61217c565b61295f612926612919838a61217c565b516001600160801b031690565b61294760209182612937868c61217c565b5101906001600160801b03169052565b612954612919848b61217c565b90612937848c61217c565b016128b4565b509593505050611a8f61039793611a8961298861298e61298862ffffff9661401f565b60020b90565b9261401f565b92946001600160a01b0390931693919291843b156103c9575f9460e493869260ff604051998a98899763d505accf60e01b89523360048a01523060248a01526044890152606488015216608486015260a485015260c48401525af180156107cc576122285750565b906020828203126103c95781356001600160401b03928382116103c957016040818303126103c95760405192612a31846102ca565b81359081116103c957602092612a4891830161143e565b83520135612a55816103b8565b602082015290565b7f00000000000000000000000000000000000000000000000000000000000000006001600160a01b03163303612a8f57565b60405162461bcd60e51b81526020600482015260096024820152684e6f7420574554483960b81b6044820152606490fd5b6001600160a01b0391821690821603919082116108ef57565b602081526040612af48351826020850152606084019061054e565b6020909301516001600160a01b031691015290565b91908260409103126103c9576020825192015190565b6001600160a01b039182168152911515602083015260408201929092529116606082015260a0608082018190526105849291019061054e565b600160ff1b81146108ef575f0390565b610c1c92916040916001600160a01b039182811660018103612c7857505033915b5f612bb3612bad612b9a8851613744565b909a9195808c16908716109a8b96613cd0565b93613d10565b93828214612c5457612bf6611a13612bda6401000276a4995b895192839160208301612ad9565b8751630251596160e31b81529889978896879560048701612b1f565b03925af19081156107cc57610584925f915f93612c21575b5015612c1a5750612b58565b9050612b58565b909250612c46915060403d604011612c4d575b612c3e8183610349565b810190612b09565b915f612c0e565b503d612c34565b612bf6611a13612bda73fffd8963efd1fc6a506488495d951d5263988d2599612bcc565b90929060011901612b8957309250612b89565b612cd393926040926001600160a01b039291610c1c915f9185821660018103612d3d57503391505b612cd9612cc08951613744565b89829d939892168a8916109c8d98613cd0565b95613d10565b958116158314612d2d5750828214612d0a57612bf6611a13612bda6401000276a45b99895192839160208301612ad9565b612bf6611a13612bda73fffd8963efd1fc6a506488495d951d5263988d25612cfb565b611a13612bda612bf69299612bcc565b600203612cb357309150612cb3565b919291906001600160a01b039081811660018103612e6b5750506040335b612d8a610c1c612d7a8851613744565b9190968082169088161096613cd0565b835f612d9d612d9888613d10565b612b58565b93828214612e4757612ddf611a13612dc36401000276a49c895192839160208301612ad9565b8751630251596160e31b81529b8c978896879560048701612b1f565b03925af19081156107cc575f945f92612e23575b5015612e0f5790612e0661039792612b58565b935b9314612276565b9290612e1d61039792612b58565b93612e08565b909450612e3f915060403d604011612c4d57612c3e8183610349565b90935f612df3565b612ddf611a13612dc373fffd8963efd1fc6a506488495d951d5263988d259c612bcc565b600214612e7b575b604090612d6a565b5030612e73565b9193929190612ec7906040906001600160a01b039081811660018103612fc2575050335b610c1c5f612eb48851613744565b8287168288161098899590939092613cd0565b92612ed4612d9889613d10565b948b16159a8b8314612fb25750828214612f8f57612f23611a13612f076401000276a45b9b895192839160208301612ad9565b8751630251596160e31b81529a8b978896879560048701612b1f565b03925af19081156107cc575f935f92612f6b575b5015612f5b57612f4690612b58565b915b93612f51575050565b6103979114612276565b91612f6590612b58565b91612f48565b909350612f87915060403d604011612c4d57612c3e8183610349565b90925f612f37565b612f23611a13612f0773fffd8963efd1fc6a506488495d951d5263988d25612ef8565b611a13612f07612f23929b612bcc565b600203612ea6575030612ea6565b6040516370a0823160e01b815230600482015290602090829060249082906001600160a01b03165afa9081156107cc575f9161300a575090565b610584915060203d602011610d1357610d048183610349565b604051602081018181106001600160401b038211176102c5576040525f8152905f368137565b5f918291613055613023565b91602083519301915af161306761244c565b501561306f57565b60405162461bcd60e51b815260206004820152600360248201526253544560e81b6044820152606490fd5b80156108ef575f190190565b916130b091613e50565b919060405160208101916001600160601b03199485809260601b16845260601b166034820152602881526130e381610313565b51902060405192602084019260ff60f81b845260601b16602184015260358301527f96e8ac4277198ff8b6f785478aa9a39f403cb768dd02cbee326c3e7da348845f605583015260558252613137826102f8565b905190206001600160a01b031690565b519081151582036103c957565b908160209103126103c95761058490613147565b6001600160a01b037f00000000000000000000000000000000000000000000000000000000000000008116949290828116861480613283575b1561326157505050823b156103c957604051630d0e30db60e41b8152925f8460048185855af19283156107cc576132129460209461324e575b5060405163a9059cbb60e01b81526001600160a01b0390911660048201526024810192909252909283919082905f9082906044820190565b03925af180156107cc576132235750565b6132449060203d602011613247575b61323c8183610349565b810190613154565b50565b503d613232565b80610eae61325b926102e5565b5f6131da565b919450919291908116300361327a5750610397926138b5565b61039793613c1a565b50834710156131a1565b90600182018092116108ef57565b90600282018092116108ef57565b90601f82018092116108ef57565b60170190816017116108ef57565b919082018092116108ef57565b51906001600160701b03821682036103c957565b908160609103126103c9576132fa816132d2565b916040613309602084016132d2565b9201516105848161186b565b909260809261058495948352602083015260018060a01b03166040820152816060820152019061054e565b7f000000000000000000000000000000000000000000000000000000000000000092915f5b61336f8351611eed565b81101561354157613383610ac6828561217c565b90613399610ac66133938361328d565b8661217c565b6133a38184613e50565b50906133b6610c1c610c1c83878c6130a6565b60408051630240bc6b60e21b8152600496919460609283838a81885afa9384156107cc5785935f915f9661350c575b50506001600160a01b03918216929091168214936001600160701b03908116911684156135065790915b87516370a0823160e01b81526001600160a01b03909416848b0190815260209491859183919082908190850103915afa9384156107cc576134629461345d9284925f92610ced575050613548565b613e7f565b90156134ff575f90925b6134768951611efb565b8610156134f75761349790613490610ac6610b018961329b565b908c6130a6565b955b6134a1613023565b90833b156103c9576134ca5f9692879351998a978896879563022c0d9f60e01b87528601613315565b03925af19182156107cc576001926134e4575b5001613365565b80610eae6134f1926102e5565b5f6134dd565b508695613499565b5f9261346c565b9161340f565b61353093965080919250903d1061353a575b6135288183610349565b8101906132e6565b5093905f806133e5565b503d61351e565b5050509050565b9081039081116108ef5790565b5f809160405182602082019163095ea7b360e01b835260018060a01b037f000000000000000000000000000000000000000000000000000000000000000016602482015281196044820152604481526135ad816102f8565b51925af16135b961244c565b816135c2575090565b80518015925082156135d357505090565b6105849250602080918301019101613154565b5f809160405182602082019163095ea7b360e01b835260018060a01b037f0000000000000000000000000000000000000000000000000000000000000000166024820152816044820152604481526135ad816102f8565b5f809160405182602082019163095ea7b360e01b835260018060a01b037f00000000000000000000000000000000000000000000000000000000000000001660248201526001196044820152604481526135ad816102f8565b905f9180159081156136ab575b50156103c957565b9092506103e890818102908104908183148517156108ef57936136cf57145f6136a3565b61227d565b905f9180159081156136e85750156103c957565b9092506103e590818102908104908183148517156108ef57936136cf57145f6136a3565b5f92918115918215613722575b5050156103c957565b90809294508102908104908183148517156108ef57936136cf57145f80613719565b90613753601483511015613f18565b602082015160601c91601781511061378357603760178201519161377b602b82511015613f18565b015160601c91565b60405162461bcd60e51b8152602060048201526014602482015273746f55696e7432345f6f75744f66426f756e647360601b6044820152606490fd5b6137cd602b82511015613f99565b60405190600b8083019101603683015b8083106137f7575050602b8252601f01601f191660405290565b90918251815260208091019201906137dd565b805160161991828201908282116108ef5761382f82613828816132a9565b1015613f5c565b61383d6017613828846132b7565b613852815161384b846132b7565b1115613f99565b8161386b57505050506040515f81526020810160405290565b601760405194601f8416801560051b9182828901019687010193010101905b8084106138a25750508252601f01601f191660405290565b909283518152602080910193019061388a565b60405163a9059cbb60e01b602082019081526001600160a01b03909316602482015260448101939093525f9283929083906138f38160648101611a13565b51925af16138ff61244c565b81613937575b501561390d57565b60405162461bcd60e51b815260206004820152600260248201526114d560f21b6044820152606490fd5b805180159250821561394c575b50505f613905565b61395f9250602080918301019101613154565b5f80613944565b90613970826117e4565b6040906139806040519182610349565b8381528093613991601f19916117e4565b01915f5b8381106139a25750505050565b60209082516139b0816102ca565b5f8152825f81830152828601015201613995565b519061ffff821682036103c957565b908160e09103126103c95780516139e9816103b8565b9160208201516139f881611eb6565b91613a05604082016139c4565b91613a12606083016139c4565b91613a1f608082016139c4565b9161058460c060a0840151613a3381610b13565b9301613147565b9190915f83820193841291129080158216911516176108ef57565b90815f03918083055f1914901517156108ef57565b915f925f925f91613a7a81614101565b5f905f935b818510613aa657505050505015613a9257565b9091613aa061058491613a55565b92613a55565b90919293969794613ac4613ab986613744565b818394929a93613cd0565b63ffffffff8516613b9757613ad890614591565b9290600293840b930b935b613aec87611eed565b8c03613b7d57506001600160a01b038981169082161098600194939291905b8c15918215613b54575b505015613b3b57613b2f92613b2991613a3a565b9a613a3a565b975b0193929190613a7f565b613b4e92613b4891612843565b9a612843565b97613b31565b909150858060a01b038091169182828b16105f14613b765716115b5f80613b15565b1610613b6f565b9896509690613b8f600194939261380a565b978097613b0b565b6001600160a01b03169291613bac8585614357565b5093600294850b946040518092633850c7bd60e01b825281600460e09586935afa9283156107cc575f93613be4575b50500b92613ae3565b613c04929350803d10613c13575b613bfc8183610349565b8101906139d3565b50505050509050905f80613bdb565b503d613bf2565b90915f80949381946040519160208301946323b872dd60e01b865260018060a01b038092166024850152166044830152606482015260648152613c5c8161032e565b51925af1613c6861244c565b81613ca1575b5015613c7657565b60405162461bcd60e51b815260206004820152600360248201526229aa2360e91b6044820152606490fd5b8051801592508215613cb6575b50505f613c6e565b613cc99250602080918301019101613154565b5f80613cae565b6001600160a01b0392613d0c92613ce69261474a565b7f00000000000000000000000000000000000000000000000000000000000000006147c2565b1690565b600160ff1b8110156103c95790565b90806060600493613d45613d338785613e50565b50966001600160a01b039485936130a6565b1660405194858092630240bc6b60e21b82525afa9283156107cc575f905f94613d87575b5081906001600160701b03809116941694169116145f1461243b5791565b829450613da3915060603d60601161353a576135288183610349565b5093613d69565b91908215613e0b5780151580613e02575b156103c957613dcd83613dd29261370c565b613696565b9181039081116108ef57613de5906136d4565b9081156136cf570460018101908181116108ef5781106103c95790565b50811515613dbb565b60405162461bcd60e51b815260206004820152601a60248201527f494e53554646494349454e545f4f55545055545f414d4f554e540000000000006044820152606490fd5b90916001600160a01b03918284168382168082146103c9571015613e7a57925b918316156103c957565b613e70565b8015613ed35781151580613eca575b156103c957613ea9613ea2613eaf926136d4565b938461370c565b91613696565b918201918281116108ef5782106103c95781156136cf570490565b50821515613e8e565b60405162461bcd60e51b815260206004820152601960248201527f494e53554646494349454e545f494e5055545f414d4f554e54000000000000006044820152606490fd5b15613f1f57565b60405162461bcd60e51b8152602060048201526015602482015274746f416464726573735f6f75744f66426f756e647360581b6044820152606490fd5b15613f6357565b60405162461bcd60e51b815260206004820152600e60248201526d736c6963655f6f766572666c6f7760901b6044820152606490fd5b15613fa057565b60405162461bcd60e51b8152602060048201526011602482015270736c6963655f6f75744f66426f756e647360781b6044820152606490fd5b908160020b9182036103c957565b81156136cf57600160ff1b81145f198314166108ef570590565b81156136cf570790565b60020b627fffff1981146108ef575f190190565b905f80805b84518210156140c057614037828661217c565b515160020b6020936001600160801b0385614052868a61217c565b5101511682810292905f8212600160ff1b8214166108ef5781840514901517156108ef576140b16140a561408b6140b794600196613a3a565b96614096878b61217c565b5101516001600160801b031690565b6001600160801b031690565b906132c5565b91019091614024565b919350506140d16129888483613fe7565b925f821291826140ee575b50506140e457565b906105849061400b565b6140f89250614001565b15155f806140dc565b5160131981019081116108ef576017900490565b1561411c57565b60405162461bcd60e51b8152602060048201526002602482015261042560f41b6044820152606490fd5b6040519061415382610313565b600282526040366020840137565b51908160060b82036103c957565b9080601f830112156103c95781519060209161418a816117e4565b936141986040519586610349565b81855260208086019260051b8201019283116103c957602001905b8282106141c1575050505090565b83809183516141cf816103b8565b8152019101906141b3565b9190916040818403126103c9578051926001600160401b03938481116103c95782019381601f860112156103c957845194602095614217816117e4565b916142256040519384610349565b818352878084019260051b820101918583116103c95788809201905b8382106142615750505050948301519081116103c957610584920161416f565b82809161426d84614161565b815201910190614241565b60209060206040818301928281528551809452019301915f5b82811061429f575050505090565b835163ffffffff1685529381019392810192600101614291565b600691820b910b0390667fffffffffffff198212667fffffffffffff8313176108ef57565b60060b9060060b9081156136cf57667fffffffffffff1981145f198314166108ef570590565b9060060b9081156136cf5760060b0790565b6001600160c01b039081166001600160a01b03818102909216929181840414901517156108ef57565b6001600160c01b03918216919082156136cf57160490565b5f6143b6939263ffffffff811692614370841515614115565b61439061437b614146565b926143858461215a565b9063ffffffff169052565b8261439a8361216c565b52604051808097819463883bdbfd60e01b835260048301614278565b03916001600160a01b03165afa9283156107cc575f905f946144a7575b50614400816143fa6143ed6143f46143ed6144199661216c565b5160060b90565b9261215a565b906142b9565b93614413610ac66143f4610ac68461216c565b90612ac0565b908060060b9361442c61298886836142de565b945f8260060b129182614489575b505061446a575b610584916144516140a592614316565b60209190911b640100000000600160c01b03169061433f565b926105849161445161447e6140a59361400b565b959250509150614441565b61449e92509061449891614304565b60060b90565b15155f8061443a565b614400945061441991506144cc903d805f833e6144c48183610349565b8101906141da565b949091506143d3565b156144dc57565b60405162461bcd60e51b81526020600482015260036024820152624e454f60e81b6044820152606490fd5b91908260809103126103c957815161451e8161186b565b9161452b60208201614161565b9161058460606040840151613a33816103b8565b81156136cf570690565b1561455057565b60405162461bcd60e51b81526020600482015260036024820152624f4e4960e81b6044820152606490fd5b63ffffffff91821690821603919082116108ef57565b604051633850c7bd60e01b8152906001600160a01b031660e082600481845afa9081156107cc575f915f935f9161471d575b50829361ffff809216926145d9600185116144d5565b60405163252c09d760e01b80825261ffff84166004830152608095919290918684602481855afa9586156107cc575f945f976146f6575b5063ffffffff958587164288161461462e5750505050505050505091565b8899509161464f61464a826146549461466e9c989796166132c5565b611eed565b61453f565b916040518098819482938352600483019190602083019252565b03915afa9081156107cc576146b695612988956146ab935f915f935f926146b9575b5050926146a06146a59394614549565b61457b565b936142b9565b911660060b906142de565b91565b6146a594506146a093506146e29250803d106146ef575b6146da8183610349565b810190614507565b9194929391929050614690565b503d6146d0565b909650614711919450873d89116146ef576146da8183610349565b5050939093955f614610565b9193505061473a915060e03d60e011613c1357613bfc8183610349565b505050939190925091925f6145c3565b9162ffffff915f6040805161475e81610313565b8281526020810183905201526001600160a01b03908082168583161161479f575b816040519561478d87610313565b16855216602084015216604082015290565b9361477f565b6001600160a01b03916147b7916147c2565b16908133036103c957565b81516020830180519092916001600160a01b03908116911611156103c95761491b61492761058494610c1c945f8060405160208101906327b7cf8560e01b82527f4edca2cdd7241588d4a18effbaf62e93efbd162499ff8ab7553ea94d08382fd960248201526024815261483581610313565b51906a636f6e736f6c652e6c6f675afa5081516148759060409061486a906001600160a01b031693516001600160a01b031690565b93015162ffffff1690565b604080516001600160a01b0393841660208201908152949093169083015262ffffff166060808301919091528152601f1991906148b3608082610349565b5190206040516001600160f81b03196020820190815260609690961b6bffffffffffffffffffffffff1916602182015260358101919091527f4edca2cdd7241588d4a18effbaf62e93efbd162499ff8ab7553ea94d08382fd960558201529283906075820190565b03908101835282610349565b5190206001600160a01b03169056","linkReferences":{}},"methodIdentifiers":{"WETH9()":"4aa4a4fc","approveMax(address)":"571ac8b0","approveMaxMinusOne(address)":"cab372ce","approveZeroThenMax(address)":"639d71a9","approveZeroThenMaxMinusOne(address)":"ab3fdd50","callPositionManager(bytes)":"b3a2af13","checkOracleSlippage(bytes,uint24,uint32)":"f25801a7","checkOracleSlippage(bytes[],uint128[],uint24,uint32)":"efdeed8e","exactInput((bytes,address,uint256,uint256))":"b858183f","exactInputSingle((address,address,uint24,address,uint256,uint256,uint160))":"04e45aaf","exactOutput((bytes,address,uint256,uint256))":"09b81346","exactOutputSingle((address,address,uint24,address,uint256,uint256,uint160))":"5023b4df","factory()":"c45a0155","factoryV2()":"68e0d4e1","getApprovalType(address,uint256)":"dee00f35","increaseLiquidity((address,address,uint256,uint256,uint256))":"f100b205","mint((address,address,uint24,int24,int24,uint256,uint256,address))":"11ed56c9","multicall(bytes32,bytes[])":"1f0464d1","multicall(bytes[])":"ac9650d8","multicall(uint256,bytes[])":"5ae401dc","positionManager()":"791b98bc","pull(address,uint256)":"f2d5d56b","refundETH()":"12210e8a","selfPermit(address,uint256,uint256,uint8,bytes32,bytes32)":"f3995c67","selfPermitAllowed(address,uint256,uint256,uint8,bytes32,bytes32)":"4659a494","selfPermitAllowedIfNecessary(address,uint256,uint256,uint8,bytes32,bytes32)":"a4a78f0c","selfPermitIfNecessary(address,uint256,uint256,uint8,bytes32,bytes32)":"c2e3140a","swapExactTokensForTokens(uint256,uint256,address[],address)":"472b43f3","swapTokensForExactTokens(uint256,uint256,address[],address)":"42712a67","sweepToken(address,uint256)":"e90a182f","sweepToken(address,uint256,address)":"df2ab5bb","sweepTokenWithFee(address,uint256,address,uint256,address)":"e0e189a0","sweepTokenWithFee(address,uint256,uint256,address)":"3068c554","uniswapV3SwapCallback(int256,int256,bytes)":"fa461e33","unwrapWETH9(uint256)":"49616997","unwrapWETH9(uint256,address)":"49404b7c","unwrapWETH9WithFee(uint256,address,uint256,address)":"9b2c0a37","unwrapWETH9WithFee(uint256,uint256,address)":"d4ef38de","wrapETH(uint256)":"1c58db4f"},"id":0}