{
  "abi": [
    {
      "type": "function",
      "name": "getPopulatedTicksInWord",
      "inputs": [
        {
          "name": "pool",
          "type": "address",
          "internalType": "address"
        },
        {
          "name": "tickBitmapIndex",
          "type": "int16",
          "internalType": "int16"
        }
      ],
      "outputs": [
        {
          "name": "populatedTicks",
          "type": "tuple[]",
          "internalType": "struct ITickLens.PopulatedTick[]",
          "components": [
            {
              "name": "tick",
              "type": "int24",
              "internalType": "int24"
            },
            {
              "name": "liquidityNet",
              "type": "int128",
              "internalType": "int128"
            },
            {
              "name": "liquidityGross",
              "type": "uint128",
              "internalType": "uint128"
            }
          ]
        }
      ],
      "stateMutability": "view"
    }
  ],
  "bytecode": {
    "object": "0x60808060405234610016576104bc908161001b8239f35b5f80fdfe6080806040526004361015610012575f80fd5b5f3560e01c63351fb47814610025575f80fd5b34610303576040366003190112610303576004356001600160a01b038116810361030357600190602435820b80602435036103035763299ce14b60e11b845260048401526020836024816001600160a01b0385165afa92831561030f575f936103b2575b505f805b610100811061038557506040516334324e9f60e21b81526020816004816001600160a01b0387165afa90811561030f575f91610349575b506100ce82610446565b926100dc6040519485610416565b8284526100e883610446565b601f19015f5b81811061032057505084955f959495965b610173575b5050505090915060405190602082016020835283518091526020604084019401905f5b8181106101345784860385f35b9091926020606082976001600160801b0360408851805160020b845285810151600f0b8685015201511660408201520194019101949294919091610127565b866101008698101561031a5785811b8216610198575b61019290610438565b966100ff565b945060029360243560081b850b86860b01627fffff8113627fffff198212176102575784860b90860b028080870b036102575760405163f30dba9360e01b815281870b6004820152610100816024816001600160a01b0389165afa801561030f575f915f9161026b575b506001600160801b0392604051986102198a6103e6565b0b8852600f0b60208801521660408601528015610257578795610192915f190195610244878a61045e565b5261024f868961045e565b509050610189565b634e487b7160e01b5f52601160045260245ffd5b915050610100813d61010011610307575b8161028a6101009383610416565b81010312610303578051916001600160801b03831683036103035760208201519182600f0b83036103035760808101518060060b036103035760a08101516001600160a01b038116036103035760c081015163ffffffff8116036103035760e00151801515036103035791906001600160801b03610202565b5f80fd5b3d915061027c565b6040513d5f823e3d90fd5b50610104565b60209060405161032f816103e6565b5f81525f838201525f6040820152828289010152016100ee565b90506020813d60201161037d575b8161036460209383610416565b8101031261030357518060020b8103610303575f6100c4565b3d9150610357565b83811b851661039d575b61039890610438565b61008d565b906103aa61039891610438565b91905061038f565b9092506020813d6020116103de575b816103ce60209383610416565b810103126103035751915f610089565b3d91506103c1565b6060810190811067ffffffffffffffff82111761040257604052565b634e487b7160e01b5f52604160045260245ffd5b90601f8019910116810190811067ffffffffffffffff82111761040257604052565b5f1981146102575760010190565b67ffffffffffffffff81116104025760051b60200190565b80518210156104725760209160051b010190565b634e487b7160e01b5f52603260045260245ffdfea2646970667358221220061f5aca3ba2f2acbb2e653e6e1a607b64851e9d0eda78288b028f7c8ee9bfb564736f6c63430008150033",
    "linkReferences": {}
  },
  "methodIdentifiers": {
    "getPopulatedTicksInWord(address,int16)": "351fb478"
  },
  "id": 83
}