{
  "abi": [
    {
      "type": "function",
      "name": "getPopulatedTicksInWord",
      "inputs": [
        {
          "name": "pool",
          "type": "address",
          "internalType": "address"
        },
        {
          "name": "tickBitmapIndex",
          "type": "int16",
          "internalType": "int16"
        }
      ],
      "outputs": [
        {
          "name": "populatedTicks",
          "type": "tuple[]",
          "internalType": "struct ITickLens.PopulatedTick[]",
          "components": [
            {
              "name": "tick",
              "type": "int24",
              "internalType": "int24"
            },
            {
              "name": "liquidityNet",
              "type": "int128",
              "internalType": "int128"
            },
            {
              "name": "liquidityGross",
              "type": "uint128",
              "internalType": "uint128"
            }
          ]
        }
      ],
      "stateMutability": "view"
    }
  ],
  "bytecode": {
    "object": "0x60808060405234610016576104ba908161001c8239f35b600080fdfe608080604052600436101561001357600080fd5b60003560e01c63351fb4781461002857600080fd5b3461030b57604036600319011261030b576004356001600160a01b038116810361030b57600190602435820b806024350361030b5763299ce14b60e11b845260048401526020836024816001600160a01b0385165afa928315610318576000936103ba575b5060008260005b61010081106103925750506040516334324e9f60e21b81526020816004816001600160a01b0387165afa90811561031857600091610356575b506100d782610442565b926100e56040519485610420565b8284526100f183610442565b601f190160005b81811061032a57505084956000959495965b61017f575b50505050909150604051906020820160208352835180915260206040840194019060005b8181106101405784860385f35b9091926020606082976001600160801b0360408851805160020b845285810151600f0b8685015201511660408201520194019101949294919091610133565b86610100869810156103245785811b821661019d575b85019661010a565b945060029360243560081b850b86860b01627fffff8113627fffff1982121761025d5784860b90860b028080870b0361025d5760405163f30dba9360e01b815281870b6004820152610100816024816001600160a01b0389165afa801561031857600091600091610273575b506001600160801b0392604051986102208a6103ee565b0b8852600f0b6020880152166040860152801561025d5787958691600019019561024a878a61045a565b52610255868961045a565b509050610195565b634e487b7160e01b600052601160045260246000fd5b915050610100813d61010011610310575b816102926101009383610420565b8101031261030b578051916001600160801b038316830361030b5760208201519182600f0b830361030b5760808101518060060b0361030b5760a08101516001600160a01b0381160361030b5760c081015163ffffffff81160361030b5760e001518015150361030b5791906001600160801b03610209565b600080fd5b3d9150610284565b6040513d6000823e3d90fd5b5061010f565b602090604051610339816103ee565b6000815260008382015260006040820152828289010152016100f8565b90506020813d60201161038a575b8161037160209383610420565b8101031261030b57518060020b810361030b57386100cd565b3d9150610364565b81811b86166103a4575b018390610094565b919050600019811461025d57838091019161039c565b9092506020813d6020116103e6575b816103d660209383610420565b8101031261030b5751913861008d565b3d91506103c9565b6060810190811067ffffffffffffffff82111761040a57604052565b634e487b7160e01b600052604160045260246000fd5b90601f8019910116810190811067ffffffffffffffff82111761040a57604052565b67ffffffffffffffff811161040a5760051b60200190565b805182101561046e5760209160051b010190565b634e487b7160e01b600052603260045260246000fdfea2646970667358221220754fa7e7feec3e73eafd1439ad021e4686c2c214de7dbcd44de55036df78ca5064736f6c63430008180033",
    "linkReferences": {}
  },
  "methodIdentifiers": {
    "getPopulatedTicksInWord(address,int16)": "351fb478"
  },
  "id": 115
}