{
  "abi": [
    {
      "type": "constructor",
      "inputs": [],
      "stateMutability": "nonpayable"
    },
    {
      "type": "function",
      "name": "createPool",
      "inputs": [
        {
          "name": "tokenA",
          "type": "address",
          "internalType": "address"
        },
        {
          "name": "tokenB",
          "type": "address",
          "internalType": "address"
        },
        {
          "name": "fee",
          "type": "uint24",
          "internalType": "uint24"
        },
        {
          "name": "isKitchen",
          "type": "bool",
          "internalType": "bool"
        }
      ],
      "outputs": [
        {
          "name": "pool",
          "type": "address",
          "internalType": "address"
        }
      ],
      "stateMutability": "nonpayable"
    },
    {
      "type": "function",
      "name": "enableFeeAmount",
      "inputs": [
        {
          "name": "fee",
          "type": "uint24",
          "internalType": "uint24"
        },
        {
          "name": "tickSpacing",
          "type": "int24",
          "internalType": "int24"
        }
      ],
      "outputs": [],
      "stateMutability": "nonpayable"
    },
    {
      "type": "function",
      "name": "feeAmountTickSpacing",
      "inputs": [
        {
          "name": "",
          "type": "uint24",
          "internalType": "uint24"
        }
      ],
      "outputs": [
        {
          "name": "",
          "type": "int24",
          "internalType": "int24"
        }
      ],
      "stateMutability": "view"
    },
    {
      "type": "function",
      "name": "getPool",
      "inputs": [
        {
          "name": "",
          "type": "address",
          "internalType": "address"
        },
        {
          "name": "",
          "type": "address",
          "internalType": "address"
        },
        {
          "name": "",
          "type": "uint24",
          "internalType": "uint24"
        }
      ],
      "outputs": [
        {
          "name": "",
          "type": "address",
          "internalType": "address"
        }
      ],
      "stateMutability": "view"
    },
    {
      "type": "function",
      "name": "isKitchenPool",
      "inputs": [
        {
          "name": "",
          "type": "address",
          "internalType": "address"
        }
      ],
      "outputs": [
        {
          "name": "",
          "type": "bool",
          "internalType": "bool"
        }
      ],
      "stateMutability": "view"
    },
    {
      "type": "function",
      "name": "owner",
      "inputs": [],
      "outputs": [
        {
          "name": "",
          "type": "address",
          "internalType": "address"
        }
      ],
      "stateMutability": "view"
    },
    {
      "type": "function",
      "name": "parameters",
      "inputs": [],
      "outputs": [
        {
          "name": "factory",
          "type": "address",
          "internalType": "address"
        },
        {
          "name": "token0",
          "type": "address",
          "internalType": "address"
        },
        {
          "name": "token1",
          "type": "address",
          "internalType": "address"
        },
        {
          "name": "fee",
          "type": "uint24",
          "internalType": "uint24"
        },
        {
          "name": "tickSpacing",
          "type": "int24",
          "internalType": "int24"
        },
        {
          "name": "deployer",
          "type": "address",
          "internalType": "address"
        }
      ],
      "stateMutability": "view"
    },
    {
      "type": "function",
      "name": "setOwner",
      "inputs": [
        {
          "name": "_owner",
          "type": "address",
          "internalType": "address"
        }
      ],
      "outputs": [],
      "stateMutability": "nonpayable"
    },
    {
      "type": "function",
      "name": "transferOwnership",
      "inputs": [
        {
          "name": "newOwner",
          "type": "address",
          "internalType": "address"
        }
      ],
      "outputs": [],
      "stateMutability": "nonpayable"
    },
    {
      "type": "event",
      "name": "FeeAmountEnabled",
      "inputs": [
        {
          "name": "fee",
          "type": "uint24",
          "indexed": true,
          "internalType": "uint24"
        },
        {
          "name": "tickSpacing",
          "type": "int24",
          "indexed": true,
          "internalType": "int24"
        }
      ],
      "anonymous": false
    },
    {
      "type": "event",
      "name": "NewOwner",
      "inputs": [
        {
          "name": "oldOwner",
          "type": "address",
          "indexed": true,
          "internalType": "address"
        },
        {
          "name": "newOwner",
          "type": "address",
          "indexed": true,
          "internalType": "address"
        }
      ],
      "anonymous": false
    },
    {
      "type": "event",
      "name": "OwnerChanged",
      "inputs": [
        {
          "name": "oldOwner",
          "type": "address",
          "indexed": true,
          "internalType": "address"
        },
        {
          "name": "newOwner",
          "type": "address",
          "indexed": true,
          "internalType": "address"
        }
      ],
      "anonymous": false
    },
    {
      "type": "event",
      "name": "PoolCreated",
      "inputs": [
        {
          "name": "token0",
          "type": "address",
          "indexed": true,
          "internalType": "address"
        },
        {
          "name": "token1",
          "type": "address",
          "indexed": true,
          "internalType": "address"
        },
        {
          "name": "fee",
          "type": "uint24",
          "indexed": true,
          "internalType": "uint24"
        },
        {
          "name": "tickSpacing",
          "type": "int24",
          "indexed": false,
          "internalType": "int24"
        },
        {
          "name": "isKitchen",
          "type": "bool",
          "indexed": false,
          "internalType": "bool"
        },
        {
          "name": "pool",
          "type": "address",
          "indexed": false,
          "internalType": "address"
        }
      ],
      "anonymous": false
    }
  ],
  "bytecode": {
    "object": "0x60a080604052346100d257306080523360018060a01b0319600454161760045560c8600033817fb532073b38c83145e3e5135377a08bf9aab55bc0fd7c1179cd4fb995d2a5159c8180a36101f48082526005602052604082209162ffffff1992600a84825416179055600a7fc66a3fdf07232cdd185febcc6579d408c241b47ae2f9907d84be655141eeaecc92838380a3603c610bb8808352604083208286825416179055838380a36127109283825284604083209182541617905580a36168af90816100d88239608051816102d20152f35b600080fdfe608060408181526004803610156200001657600080fd5b600092833560e01c90816313af403514620006605781631698ee8214620005f65750806322afcccb14620005bc5780634e891212146200057a5780635a31811b146200028557806389035730146200021d5780638a7c195f14620001585780638da5cb5b146200012f5763f2fde38b146200009057600080fd5b346200012b5760203660031901126200012b57620000ad620006cd565b8154926001600160a01b03919082851633036200010457501680926bffffffffffffffffffffffff60a01b16179055337f70aea8d848e8a90fb7661b227dc522eb6395c3dac71b63cb59edd5c9899b23648380a380f35b5162461bcd60e51b815260208185015260026024820152614e4f60f01b6044820152606490fd5b8280fd5b50346200012b57826003193601126200012b575490516001600160a01b03909116815260209150f35b5090346200012b57806003193601126200012b576200017662000713565b602435908160020b938483036200020957546001600160a01b03163303620002195762ffffff80911692620f42408410156200020957858513806200020d575b15620002095783865260056020528520918254918260020b6200020557169062ffffff19161790557fc66a3fdf07232cdd185febcc6579d408c241b47ae2f9907d84be655141eeaecc8380a380f35b8680fd5b8580fd5b506140008512620001b6565b8480fd5b50503462000281578160031936011262000281579060c09160018060a01b038092541691806001541691600254918060035416938251958652602086015282169084015262ffffff8160a01c16606084015260b81c60020b608083015260a0820152f35b5080fd5b5090346200012b5760803660031901126200012b57620002a4620006cd565b620002ae620006e9565b620002b862000700565b6064359081151580830362000576576001600160a01b03947f0000000000000000000000000000000000000000000000000000000000000000861630036200056757808616908587168281146200057257879210156200056b575b16928315620005675762ffffff831695868a5260209860058a52888b20548060020b958c8715620005645788815260068d528b8120998516808252998d528b81208b82528d528b902054841662000560578a5167ffffffffffffffff929060c08101848111828210176200054c57908f9695949392918f8f908d908f9383523085528401528201528c606082015289608082015260a0339101526bffffffffffffffffffffffff60a01b953087825416179055898660015416176001558a6002549160b81b62ffffff60b81b169262ffffff60a01b9060a01b169165ffffffffffff60d01b16171717600255338460035416176003558a518c8101918983528a8d8301528b60608301528760808301526080825260a0820192828410828511176200053857838e528251902093616153908184019260a08401908682109111176200051e575062000727843903908df5801562000514579a7f01c58a80a1aa0c58a87e84b04379f1e79f8c12f7a8e9b377304dbcc781406ad195936060959360068c948e9f169d8e8b86528282528686208d875282528d878720908752825286862090848254161790558b8552528d848420908a8552528d848420908c8552528c84842091825416179055620004f9575b5051918252898201528787820152a451908152f35b8a815260078c5220805460ff191660011790558738620004e4565b89513d8d823e3d90fd5b90508f92506024935060419150634e487b7160e01b835252fd5b50634e487b7160e01b8f526041845260248ffd5b50634e487b7160e01b8f526041855260248ffd5b8c80fd5b80fd5b8880fd5b9462000313565b8a80fd5b8780fd5b50503462000281576020366003190112620002815760209160ff9082906001600160a01b03620005a9620006cd565b1681526007855220541690519015158152f35b5050346200028157602036600319011262000281578060209262ffffff620005e362000713565b16815260058452205460020b9051908152f35b849084346200012b5760603660031901126200012b57916020926200061a620006cd565b9162000625620006e9565b6200062f62000700565b6001600160a01b03948516835260068752838320918516835290865282822062ffffff909116825285522054168152f35b8483346200028157602036600319011262000281576200067f620006cd565b81546001600160a01b03808216923384900362000209571680927fb532073b38c83145e3e5135377a08bf9aab55bc0fd7c1179cd4fb995d2a5159c8680a36001600160a01b03191617905580f35b600435906001600160a01b0382168203620006e457565b600080fd5b602435906001600160a01b0382168203620006e457565b6044359062ffffff82168203620006e457565b6004359062ffffff82168203620006e45756fe6101808060405234620003325730608052630890357360e41b815260c090600482828281335afa91821562000326576000928380948195829483946200025b575b5061012093845261010096875260e052865260a052610140918083528060020b90811562000246576200008b6200007e8284620d89e719056200034c565b9183620d89e8056200034c565b60020b9060020b9003627fffff1990627fffff811382821217620002315760020b9081146000198314166200021c5762ffffff91900581166001018181116200021c57169283156200020757506101609260018060801b0304835260405193615dd895866200037b873960805186613c86015260a0518681816104b901528181610fea01526112820152518581816111870152818161166101528181611a17015281816136eb015281816138ff0152613e46015260e0518581816104340152818161111301528181611618015281816119e70152818161362e0152613ecc0152518481816103b301528181611721015281816128b401528181612d580152612d86015251836103ee01525182818161047c01528181610cea01528181610d190152818161227e015281816122ad015281816126b9015281816127da0152818161310f015281816132a50152818161336401526133b7015251818181610c6b01528181610ca3015281816113de015281816121ff01526122320152f35b601290634e487b7160e01b6000525260246000fd5b601185634e487b7160e01b6000525260246000fd5b601186634e487b7160e01b6000525260246000fd5b601285634e487b7160e01b6000525260246000fd5b94505050935050833d85116200031e575b601f8101601f191682016001600160401b038111838210176200030b5785918391604052810103126200030757620002a48162000337565b90620002b36020820162000337565b620002c16040830162000337565b60608301519262ffffff8416840362000303576080810151968760020b880362000300575060a0620002f4910162000337565b92959391903862000040565b80fd5b8680fd5b8280fd5b634e487b7160e01b855260418452602485fd5b503d6200026c565b6040513d6000823e3d90fd5b600080fd5b51906001600160a01b03821682036200033257565b9060020b9060020b02908160020b9182036200036457565b634e487b7160e01b600052601160045260246000fdfe61018080604052600436101561001457600080fd5b600060e05260e0513560e01c9081630dfe1681146138eb57508063128acb08146124c95780631a686502146124a15780631ad8b03b1461246e578063252c09d71461241357806332148f67146123475780633850c7bd146122d75780633c8a7d8d14611a885780634614131914611a69578063490e6cbc1461169c5780634f1eb3d8146114a0578063514ea4bf1461143b5780635339c2961461140257806370cf754a146113bd5780638206a4d11461121557806385b6672914610f70578063883bdbfd14610d48578063a34123a714610543578063a38807f2146104e8578063c45a0155146104a2578063d0c93a7c14610463578063d21220a71461041d578063d5f39488146103d7578063ddca3f4314610396578063f305839914610377578063f30dba93146102db5763f637731d1461014f57600080fd5b346102d5576020806003193601126102d55761016961392e565b60e051546001600160a01b03919082166102ab5790817f98636036cb66a9c19a37435efc1e90142190214e8abeb821bdba3f2990dd4c95936101ac604094615981565b9263ffffffff42166001606087516101c381613a11565b83815260e080518783015280518a83015291019190915251605881901b600160581b600160f81b031690841b6affffffffffffff000000001690911717600160f81b17600855845192610215846139cd565b1692838352600160c08260020b94858582015260e0518882015282606082015282608082015260e05160a08201520152630100000160d81b9063ffffffff60d81b1990600160c81b908664ffffffffff60d81b60005416179062ffffff60a01b9060a01b161761ffff60b81b60e05160b81b1617171660ff60e81b60e05160e81b1617176000558351928352820152a160e05180f35b60405162461bcd60e51b8152600481018490526002602482015261414960f01b6044820152606490fd5b60e05180fd5b346102d55760203660031901126102d5576102f4613991565b60020b60e051526005602052610100604060e051208054906001810154906003600282015491015491604051936001600160801b038116855260801d600f0b6020850152604084015260608301528060060b608083015260018060a01b038160381c1660a083015263ffffffff8160d81c1660c083015260f81c151560e0820152f35b346102d55760e0513660031901126102d5576020600154604051908152f35b346102d55760e0513660031901126102d557602060405162ffffff7f0000000000000000000000000000000000000000000000000000000000000000168152f35b346102d55760e0513660031901126102d5576040517f00000000000000000000000000000000000000000000000000000000000000006001600160a01b03168152602090f35b346102d55760e0513660031901126102d5576040517f00000000000000000000000000000000000000000000000000000000000000006001600160a01b03168152602090f35b346102d55760e0513660031901126102d55760206040517f000000000000000000000000000000000000000000000000000000000000000060020b8152f35b346102d55760e0513660031901126102d5576040517f00000000000000000000000000000000000000000000000000000000000000006001600160a01b03168152602090f35b346102d55760403660031901126102d557606063ffffffff61052161050b613991565b610513613971565b9061051c613c84565b613b3c565b906040939293519360060b845260018060a01b03166020840152166040820152f35b346102d55760603660031901126102d55761055c613991565b60c052610567613971565b61056f6139b7565b60e051549161058360ff8460f01c16613d73565b60e05160ff60f01b19841690556001600160801b038216600f81900b908103610d43576105af90613f0f565b92604051936105bd85613a11565b33855260c05160020b60208601528260020b6040860152600f0b60608501526105e4613c84565b60e05161012081905260c05161060190600285810b91900b613cb6565b610609613a83565b60018060a01b0386511695602081015160020b93604082015160020b9061064582876060860151600f0b9b602088015160020b61016052614d0b565b610100526001546101405260025460e0519687929091908b80610c1b575b50506106f0906106df6106838460020b6000526005602052604060002090565b916106e461069e8860020b6000526005602052604060002090565b60e05160a052610160518713610bf4576002600186015495015460a0525b61016051891315610bcc576106df60026001830154920154955b61014051613fbe565b613fbe565b60805260a05190613fbe565b966040519a6106fe8c613a2c565b61010051549b6001600160801b038d16815260016101005101546020820152600261010051015460408201526003610100510154906001600160801b03821660608201528160801c608082015260e051508215600014610bac576001600160801b0381511615610b825760409d6108109b6001600160801b03835116915b6001600160801b036107c0816107a561079b6020890151608051613fbe565b828951169061423f565b169560406107b7849183015187613fbe565b9151169061423f565b169286610b61575b5050608051600161010051015560026101005101558115801590610b58575b610b17575b50505060e05113610aa4575b505050506060810151600f0b610913575b5050613f30565b9161081d61012051613f30565b91831580159061090a575b610897575b6001600160801b03855192168252836020830152828583015260020b9060c05160020b907f0c396cd989a39f4459b5fa1aed6a9a8dcdbc45908acfd67e028cd568da98982c60603392a460e051805460ff60f01b1916600160f01b17905582519182526020820152f35b6001600160801b0360036101005101546108e96108c86108bb848916858516613f41565b928488169060801c613f41565b60036101005101906001600160801b0382549181199060801b169116179055565b166001600160801b031960036101005101541617600361010051015561082d565b50821515610828565b9091602083015160020b602083015160020b9081811260001461096d575050506109669150610948602082015160020b61547f565b90606061095a8883015160020b61547f565b910151600f0b91614d6a565b8580610809565b8389015160020b1315610a6d575050610a566001600160801b039160608360045416916109c161ffff808c89015116908560208a015160020b82878c0151169260808c0151169363ffffffff42169061452a565b9060e051549061ffff60b81b9060b81b169161ffff60c81b9060c81b169063ffffffff60b81b1916171760e05155610a47610a1b60018060a01b03885116610a0e8d85015160020b61547f565b85850151600f0b91614d6a565b96610a2c602084015160020b61547f565b905184840151600f0b916001600160a01b0390911690614f14565b610120520151600f0b906143d4565b166001600160801b03196004541617600455610966565b610a9b92919350610a7d9061547f565b906060610a8f8983015160020b61547f565b910151600f0b91614f14565b61012052610966565b610ae7575b50610ab7575b8080806107f8565b610ae19060009060020b815260056020526003604082208281558260018201558260028201550155565b87610aaf565b610b119060009060020b815260056020526003604082208281558260018201558260028201550155565b89610aa9565b826001600160801b03610b326108c89482610b509716613f41565b16906001600160801b0319161780600361010051015560801c613f41565b8c80806107ec565b508015156107e7565b6001600160801b0316906001600160801b03191617610100515538806107c8565b60405162461bcd60e51b815260206004820152600260248201526104e560f41b6044820152606490fd5b60409d6108109b610bc6856001600160801b0384166143d4565b9161077c565b6106df610bee6002610be5600185015461014051613fbe565b93015485613fbe565b956106d6565b610c136002610c0a600188015461014051613fbe565b96015484613fbe565b60a0526106bc565b935097506106f090610cd2610c6163ffffffff42169a6001600160801b0360045416906bff00ffffffffffffffffffff61ffff8260b81c169160a01c1660020b8d61482c565b95909a610c9d8c827f0000000000000000000000000000000000000000000000000000000000000000918a8861014051888d610160519061513a565b9b8c97857f0000000000000000000000000000000000000000000000000000000000000000946101405190610160518d6152b2565b8094610d14575b610ce5575b908b610663565b610d0f7f0000000000000000000000000000000000000000000000000000000000000000866153de565b610cde565b610d3e7f0000000000000000000000000000000000000000000000000000000000000000856153de565b610cd9565b600080fd5b346102d5576020806003193601126102d557600435906001600160401b038083116102d557366023840112156102d55782600401359081116102d55760248160051b840101923684116102d557610d9d613c84565b63ffffffff938442169060e05154918260a01c60020b9061ffff92838560b81c16936001600160801b03600454169560c81c1695610dda88613d5c565b97610de8604051998a613a62565b88526024018888015b828210610f5857505050610e06851515614772565b855197610e2b610e158a613d5c565b99610e236040519b8c613a62565b808b52613d5c565b8989019790601f19908101368a37815198610e5e610e488b613d5c565b9a610e566040519c8d613a62565b808c52613d5c565b8a8c01920136833760e0515b8c8451821015610ece57908b610ebe82610ec994818f8f8f918f918f938f938f95610ea495610e9c89610eac99614cf7565b511690614887565b929096614cf7565b6001600160a01b039091169052614cf7565b9060060b9052614361565b610e6a565b8b90848e856040519485946040860190604087525180915260608601929060e0515b818110610f3e57505050829085830382870152519182815201929160e0515b828110610f1e57505050500390f35b83516001600160a01b031685528695509381019392810192600101610f0f565b825160060b85528897509385019391850191600101610ef0565b81358b811681036102d5578152908901908901610df1565b346102d55760603660031901126102d557610f8961392e565b602435906001600160801b0380831691828403610d4357610fa86139b7565b9260e0515492610fbd60ff8560f01c16613d73565b60e05160ff60f01b199485169055604051638da5cb5b60e01b81526001600160a01b0392906020816004817f000000000000000000000000000000000000000000000000000000000000000088165afa801561120857849160e051916111da575b501633036102d55760035496828816918210156111d4575080965b8796608082901c908481168210156111cc5750915b82988481168061115b575b50505050818116806110d9575b5050604080516001600160801b03878116825288166020820152929093169233927f596b573906218d3411850b26a6b437d6c4522fdb43d2d2386263f86d50b8b1519250a360e051805491909116600160f01b179055604080516001600160801b03928316815292909116602083015290f35b600354918260801c80921461113f575b50908261113793926111048a6001600160801b031992613ef6565b60801b169116176003558616837f0000000000000000000000000000000000000000000000000000000000000000615cd6565b858080611066565b83929198509261115161113794614039565b98919293506110e9565b82146111b4575b5061116e888592613ef6565b16906001600160801b031916176003556111ab828716857f0000000000000000000000000000000000000000000000000000000000000000615cd6565b87808080611059565b849198506111c461116e91614039565b989150611162565b90509161104e565b96611039565b6111fb915060203d8111611201575b6111f38183613a62565b81019061401a565b8961101e565b503d6111e9565b6040513d60e051823e3d90fd5b346102d55760403660031901126102d55760043560ff8116809103610d435760243560ff811691828203610d435760e051549161125760ff8460f01c16613d73565b60e05160ff60f01b1984169055604051638da5cb5b60e01b81526001600160a01b03906020816004817f000000000000000000000000000000000000000000000000000000000000000086165afa9081156112085760e0519161139f575b501633036102d55781158015611388575b80611369575b156102d55760041b60f01681019260ff8411611353577f973d8d92bb299f4af6ce49b52a8adb85ae46b9f214c4c4fc06ac77401237b1339160809160405191600f8660e81c168352600f8660ec1c16602084015260408301526060820152a160e05161ffff60e81b1990911660e89290921b60ff60e81b1691909117600160f01b17815580f35b634e487b7160e01b600052601160045260246000fd5b508315806112cc5750600484101580156112cc5750600a8411156112cc565b50600482101580156112c65750600a8211156112c6565b6113b7915060203d8111611201576111f38183613a62565b866112b5565b346102d55760e0513660031901126102d55760206040516001600160801b037f0000000000000000000000000000000000000000000000000000000000000000168152f35b346102d55760203660031901126102d5576004358060010b8091036102d55760e0515260066020526020604060e0512054604051908152f35b346102d55760203660031901126102d55760043560e05152600760205260a0604060e051206001600160801b039081815416916001820154916003600282015491015492604051948552602085015260408401528116606083015260801c6080820152f35b346102d55760a03660031901126102d5576114b961392e565b6114c1613971565b906114ca613981565b916114d36139a1565b90608435926001600160801b039485851695868603610d435760e051549461150060ff8760f01c16613d73565b60e05160ff60f01b199687169055600361151b848733614d0b565b0191825498818a169260e051508383821611600014611696575082985b60808b901c9182101561168e5750985b81808a16938a85611642575b50505050881691826115d6575b506040519360018060a01b031684526020840152604083015260020b9160020b907f70935338e69775456a85ddef226c395fb668b63fa0115f5f20610b388e6ca9c060603392a460e051805491909116600160f01b179055604080516001600160801b03928316815292909116602083015290f35b806115e88a611611935460801c613ef6565b81546001600160801b031660809190911b6fffffffffffffffffffffffffffffffff1916179055565b61163c82857f0000000000000000000000000000000000000000000000000000000000000000615cd6565b88611561565b61164b91613ef6565b16906001600160801b03191617835561168582867f0000000000000000000000000000000000000000000000000000000000000000615cd6565b8981818a611554565b905098611548565b98611538565b346102d55760803660031901126102d5576116b561392e565b602435604435916064356001600160401b0381116102d5576116db903690600401613944565b9060e05154946116f060ff8760f01c16613d73565b60e05160ff60f01b199687169055611706613c84565b6001600160801b03928360045416908115611a405762ffffff7f0000000000000000000000000000000000000000000000000000000000000000169361175661174f868a614370565b9585614370565b61175e613e17565b92611767613e9d565b928a611a10575b866119e0575b333b156102d55761179f9160405180938192630e9cbafb60e41b835260e05194878d60048601613da5565b038160e051335af18015611208576119ca575b506117bb613e17565b906117ce6117c7613e9d565b9785613f78565b8481106102d55782106119a0576117e59083613f78565b8281106102d557861061197657611805926117ff91613fbe565b94613fbe565b93836118f7575b8461186b575b505060405194855260208501526040840152606083015260018060a01b0316907fbdbdb71d7860376ba52b25a5028beea23581364a40522f6bcfb86bb1f2dca63360803392a360e0518054909116600160f01b17815580f35b6118b2916118a56118aa92600f60e0515460ec1c1660e0515080156000146118e7575060e051905b80821690816118bc575b505087613fbe565b6140da565b600254613f78565b6002558680611812565b600354916118d66001600160801b0319918460801c613f41565b60801b169116176003558b8061189d565b6118f19089613f9e565b90611893565b60e05154829060e81c600f168061195d575061192761192f916118a560e0515b85811680611937575b5088613fbe565b600154613f78565b60015561180c565b8661194760035492828416613f41565b16906001600160801b031916176003558d611920565b61192f916118a56119716119279389613f9e565b611917565b60405162461bcd60e51b8152602060048201526002602482015261463160f01b6044820152606490fd5b60405162461bcd60e51b8152602060048201526002602482015261046360f41b6044820152606490fd5b6119d3906139fe565b60e0516102d5578a6117b2565b611a0b878b7f0000000000000000000000000000000000000000000000000000000000000000615cd6565b611774565b611a3b8b8b7f0000000000000000000000000000000000000000000000000000000000000000615cd6565b61176e565b60405162461bcd60e51b81526020600482015260016024820152601360fa1b6044820152606490fd5b346102d55760e0513660031901126102d5576020600254604051908152f35b346102d55760a03660031901126102d557611aa161392e565b611aa9613971565b90611ab2613981565b91611abb6139a1565b906084356001600160401b0381116102d557611adb903690600401613944565b93909260e0515493611af260ff8660f01c16613d73565b60e05160ff60f01b19861690556001600160801b038216156102d5576001600160801b038216600f81900b03610d435760405195611b2f87613a11565b6001600160a01b0384168752600285810b602089015288900b60408801526001600160801b038316600f0b6060880152611b67613c84565b60e051968796611b7e60028b810b9089900b613cb6565b611b86613a83565b9060018060a01b0383511690602084015160020b604085015160020b926060860151600f0b611bbe8584602089015160020b94614d0b565b60015460025460e05196879591939291908990866121a7575b50611c459291611c3f6106df926106df611bfe8c60020b6000526005602052604060002090565b611c158360020b6000526005602052604060002090565b928d86126121855760026001830154920154955b1215612163576002600184015493015496613fbe565b95613fbe565b91604051611c5281613a2c565b8254936001600160801b038516825260018401546020830152600284015460408301526003840154926001600160801b03841660608401528360801c608084015260e05150861560001461214a576001600160801b0383511615610b82576001600160801b03835116955b6001600160801b03611ceb81611cda61079b602089015187613fbe565b1695826107b7604083015188613fbe565b16968861212c575b5050600185015560028401558015801590612123575b6120c6575b5050505060e05113612053575b505050506060820151600f0b611ed9575b505060e0519182919088611ec9575b87611eb9575b333b156102d557611d6e918991604051938492839263d348799760e01b84528c60e0519660048601613da5565b038160e051335af1801561120857611ea3575b5086611e55575b5084611e07575b507f7a53080ba414158be7ec69b987b5fb7d07dee101fe85488f0853ae16239d0bde60806040976001600160801b03895194338652166020850152878985015286606085015260020b9460020b9360018060a01b031692a460e051805460ff60f01b1916600160f01b17905582519182526020820152f35b611e118582613f78565b9081106102d557611e20613e9d565b10611e2b5786611d8f565b60405162461bcd60e51b81526020600482015260026024820152614d3160f01b6044820152606490fd5b611e5f8782613f78565b9081106102d557611e6e613e17565b10611e795787611d88565b60405162461bcd60e51b815260206004820152600260248201526104d360f41b6044820152606490fd5b611eac906139fe565b60e0516102d55788611d81565b9250611ec3613e9d565b92611d41565b9150611ed3613e17565b91611d3b565b909197602082015160020b602084015160020b90818112600014611f2b575050505080611f0f6020611f2293015160020b61547f565b90606061095a604083015160020b61547f565b955b8880611d2c565b90919299939850604089015160020b136000146120295750506001600160801b036120128160045416611f8861ffff8b838260408301511692602083015160020b90608081606086015116940151169363ffffffff42169061452a565b9060e051549061ffff60b81b9060b81b169161ffff60c81b9060c81b169063ffffffff60b81b1916171760e051556060612006611fda60018060a01b038d51168c8461095a604083015160020b61547f565b9b611feb60208d015160020b61547f565b9051838d0151600f0b916001600160a01b0390911690614f14565b990151600f0b906143d4565b166001600160801b03196004541617600455611f24565b61204d929791985061203a9061547f565b906060610a8f604083015160020b61547f565b94611f24565b612096575b50612066575b808080611d1b565b6120909060009060020b815260056020526003604082208281558260018201558260028201550155565b8a61205e565b6120c09060009060020b815260056020526003604082208281558260018201558260028201550155565b8c612058565b61211a93826001600160801b036120e46120fe948260039716613f41565b16906001600160801b03191617808486015560801c613f41565b9101906001600160801b0382549181199060801b169116179055565b8f808080611d0e565b50831515611d09565b6001600160801b0316906001600160801b0319161785553880611cf3565b61215d876001600160801b0388166143d4565b95611cbd565b61217f600261217660018601548a613fbe565b9401548b613fbe565b96613fbe565b6121a1600261219860018501548b613fbe565b9301548c613fbe565b95611c29565b6106df9199506122639750916121f1611c4594936001600160801b0360045416906bff00ffffffffffffffffffff61ffff8260b81c169160a01c1660020b63ffffffff421661482c565b61222d898c84848c969e968a7f0000000000000000000000000000000000000000000000000000000000000000958a63ffffffff42169661513a565b9b8c9a7f0000000000000000000000000000000000000000000000000000000000000000928a888d8863ffffffff4216966152b2565b809a6122a8575b612279575b91928a9150611bd7565b6122a37f00000000000000000000000000000000000000000000000000000000000000008c6153de565b61226f565b6122d27f00000000000000000000000000000000000000000000000000000000000000008b6153de565b61226a565b346102d55760e0513660031901126102d55760e080515460ff61ffff916040519260018060a01b03821684528160a01c60020b6020850152808260b81c166040850152808260c81c1660608501528160d81c166080840152818160e81c1660a084015260f01c16151560c0820152f35b346102d55760203660031901126102d55761ffff60043581811681036102d55761239e8260e0515461237e60ff8260f01c16613d73565b60e05160ff60f01b1982169055612393613c84565b60d81c1691826147a2565b9182169060e05154918082036123dc575b505060e05163ff00ffff60d81b1990911660d89290921b61ffff60d81b1691909117600160f01b17815580f35b7fac49e518f90a358f652e4400164f05a5d8f7e35e7747279bc3a93dbf584e125a9160409182519182526020820152a182806123af565b346102d55760203660031901126102d55760043561ffff8110156102d557608090600801546040519063ffffffff811682528060201c60060b602083015260018060a01b038160581c16604083015260f81c15156060820152f35b346102d55760e0513660031901126102d557600354604080516001600160801b038316815260809290921c602083015290f35b346102d55760e0513660031901126102d55760206001600160801b0360045416604051908152f35b346102d55760a03660031901126102d5576124e261392e565b6024351515602435036102d5576064356001600160a01b03811690036102d5576084356001600160401b0381116102d557612521903690600401613944565b612529613c84565b604435156138c157612539613a83565b9161254960c08401511515613d73565b6024351561387f5782516001600160a01b039081166064359091161080613866575b1561383b5760e051805460ff60f01b191690556004546001600160801b0316936024351561382a57600f60a085015116925b604051938460c08101106001600160401b0360c0870111176138125760ff9060c0860160405216845285602085015263ffffffff4216604085015260e051606085015260e051608085015260e05160a085015260018060a01b0385511695602086015160e0515060243560001461380957600154905b604051986126208a6139cd565b6044358a5260e05160208b015260408a015260020b6060890152608088015260e05160a088015260c08701525b85511515806137ec575b156133e757604051612668816139cd565b60e080518252805160208301528051604080840191909152815160608085019190915282516080850152825160a0850152915160c08401528801516001600160a01b0316825287015160020b6126de7f0000000000000000000000000000000000000000000000000000000000000000826153bb565b9060e051811290816133b0575b50613396575b6024351561313e576127138160020b9060ff6101008360081d60010b93071690565b9190600160ff84161b600019810111612a5c5761275161273d600160ff86161b6000198101613f78565b9160010b6000526006602052604060002090565b5416801580159391906131035760e051908080156102d557600160801b8110156130f4575b50680100000000000000008110156130d7575b6401000000008110156130ba575b6201000081101561309e575b610100811015613082575b6010811015613065575b6004811015613048575b60021115613030575b61280e9260ff6127ff612809937f000000000000000000000000000000000000000000000000000000000000000095615454565b1660020b90613fcb565b615468565b905b1515604083015260020b60208201819052620d89e7199081811215613011575060208201525b60208101516001600160a01b03906128509060020b61547f565b166060820181905260408801516001600160a01b03169060243515612ffe576064356001600160a01b031681105b15612ff957506064355b60c0890151895160e0516001600160801b03909216929180808312612f1457506128df62ffffff6128d87f0000000000000000000000000000000000000000000000000000000000000000615025565b1683614073565b906001600160a01b0384168610612f03576128fb858786614ebc565b915b828110612e7d575083945b6001600160a01b038681169790861680891494908210612e1e578480612e12575b15612e01575b96879480612df6575b15612de7575050505b925b60e051831280612dd6575b612dc5575b60e0518312159081612db1575b5015612d4e5761296f91613fbe565b60c085015260a08401526080830152604088015260e0516044351315612cf9576129a2608082015160c083015190613f78565b600160ff1b8110156102d5576129b9908851613f85565b8752602087015160a0820151600160ff1b8110156102d5576129da916144a4565b60208801525b60ff85511680612cb3575b506001600160801b0360c08801511680612c8d575b50604087015160608201516001600160a01b0391821691168103612c5e57506040810151612a80575b60243515612a74576020015160020b60001901627fffff198112627fffff821317612a5c575b60020b606087015261264d565b634e487b7160e01b60e051526011600452602460e051fd5b6020015160020b612a4f565b60a085015115612c08575b60208101516001600160801b0390612bd09060020b60243515612bf857612bb888612b9860808d0151935b8d60243515612be9575063ffffffff6002545b612b7660018060a01b0360808701511695606081015192612b008560406006940151169660020b6000526005602052604060002090565b99612b1160018c0191825490613fbe565b9055612b2360028b0191825490613fbe565b9055612b69612b4360038b019860018060a01b038a5460381c1690613b0d565b8854600160381b600160d81b03191660389190911b600160381b600160d81b0316178855565b86549283820b910b613ae8565b66ffffffffffffff169066ffffffffffffff19161780855560d81c1690613b26565b815463ffffffff60d81b191660d89190911b63ffffffff60d81b16179055565b5460801d602435612bdb575b8260c08b0151166143d4565b1660c0880152612a29565b612be490613f0f565b612bc4565b608063ffffffff910151612ac9565b612bb888612b9860015493612ab6565b612c3c63ffffffff604087015116602088015160020b61ffff60408a015116906001600160801b0360208a0151169261482c565b6001600160a01b0316608087015260060b6060860152600160a0860152612a8b565b90516001600160a01b03168103612c76575b5061264d565b612c7f90615981565b60020b606087015286612c70565b612c9e612ca89160c08401516140da565b6080890151613f78565b608088015287612a00565b612ced6001600160801b03612ccd819360c0860151613f9e565b612cdb8160c0870151613fbe565b60c0860152168260a08b015116613f41565b1660a0880152876129eb565b60a0810151600160ff1b8110156102d557612d15908851613f5c565b87526020870151612d2f608083015160c084015190613f78565b600160ff1b8110156102d557612d4491614487565b60208801526129e0565b5050612dac612d7c7f0000000000000000000000000000000000000000000000000000000000000000615025565b62ffffff809116907f000000000000000000000000000000000000000000000000000000000000000016846143b8565b61296f565b6001600160a01b031686141590508d612960565b9250612dd082613f30565b92612953565b50612de083613f30565b841161294e565b612df19350614fb7565b612941565b5060e0518612612938565b50612e0d828289614ebc565b61292f565b5060e051861215612929565b9096908480612e71575b15612e60575b96879480612e55575b15612e46575050505b92612943565b612e509350614e68565b612e40565b5060e0518612612e37565b50612e6c828289614ff1565b612e2e565b5060e051861215612e28565b86156102d55785156102d5576001600160a01b0385168710612eaa57612ea49086886150b0565b94612908565b612ecf90866001600160a01b038211612ef557612ec99160601b613f9e565b87613f78565b8681106102d5576001600160a01b0381168190036102d5576001600160a01b0316612ea4565b612efe916142f8565b612ec9565b612f0e858588614ff1565b916128fd565b90506001600160a01b0383168510612fe957612f31848685614fb7565b80612f3b84613f30565b10612f47578394612908565b612f5083613f30565b86156102d55785156102d5576001600160a01b0385168710612fd9576001600160a01b038111612fa95760601b8580820615159104015b808711156102d5576001600160a01b0390612fa29088613fbe565b1694612908565b85612fb481836142f8565b91600160601b900915612f87576000198110156102d557612fd490614361565b612f87565b612fe490868861503b565b612ea4565b612ff4848487614e68565b612f31565b612888565b6064356001600160a01b0316811161287e565b9050620d89e8809113613025575b50612836565b60208201528761301f565b60ff60018183160111612a5c5760ff166001016127cb565b60021c9060ff60028183160111612a5c5760ff16600201906127c2565b60041c9060ff60048183160111612a5c5760ff16600401906127b8565b600890811c9160ff828183160111612a5c5760ff1601906127ae565b601090811c9160ff828183160111612a5c5760ff1601906127a3565b60201c9060ff60208183160111612a5c5760ff1660200190612797565b60401c9060ff60408183160111612a5c5760ff1660400190612789565b91505060801c6080908c612776565b506128096131399260ff7f0000000000000000000000000000000000000000000000000000000000000000931660020b90613fcb565b61280e565b61316061314a8261541b565b60020b9060ff6101008360081d60010b93071690565b90600160ff83161b80600019810111612a5c576131909060001901199160010b6000526006602052604060002090565b54168015801593919290918261333e576131a99061541b565b929182906102d55760ff906001600160801b03811615613334575050607f5b6001600160401b0383161561332a5760ff818116603f190111612a5c5760ff16603f19015b63ffffffff8316156133205760ff818116601f190111612a5c5760ff16601f19015b61ffff8316156133165760ff818116600f190111612a5c5760ff16600f19015b60ff83161561330c5760ff8181166007190111612a5c5760ff16600719015b600f8316156133025760ff8181166003190111612a5c5760ff16600319015b60038316156132f65760ff8181166001190111612a5c5760ff1660011901916001905b166132da575b6132d49260ff6132ca612809937f000000000000000000000000000000000000000000000000000000000000000095615454565b1660020b90615436565b90612810565b9060ff8082166000190111612a5c5760ff166000190190613296565b9160019060021c613290565b9160041c9161326d565b9160081c9161324e565b9160101c9161322f565b9160201c9161320f565b9160401c916131ed565b60801c92506131c8565b90925061334b915061541b565b9060ff808216810311612a5c576128096133919260ff807f0000000000000000000000000000000000000000000000000000000000000000941681031660020b90615436565b6132d4565b627fffff198160020b14612a5c5760020b600019016126f1565b6133dc91507f0000000000000000000000000000000000000000000000000000000000000000906153a9565b60020b1515896126eb565b856001600160801b0360208688606085015160020b8382015160020b809114156000146137be576134429161ffff806040830151169263ffffffff60408701511688888801511692608081606087015116950151169461452a565b60018060a01b036040870151169160608701519160e051549061ffff60c81b9060c81b169064ffffffffff60d81b16179061ffff60b81b9060b81b16179062ffffff60a01b9060a01b16171760e051555b0151166001600160801b0360c0830151168091036137a7575b506024351561375a5760808101516001556001600160801b0360a0820151168061372d575b505b60e05160243515156044359190911303613714576134f48151604435613f85565b926020820151925b602435156136575760e051841261361f575b613516613e17565b95333b156102d557613542916040518093819263fa461e3360e01b835260e05194898b60048601613da5565b038160e051335af1801561120857613609575b506135608486613f78565b9485106102d55761357c604095613575613e17565b1015613fe8565b60018060a01b0385830151169160606001600160801b0360c08301511691015160020b90865193868552856020860152878501526060840152608083015260018060a01b0316907fc42079f94a6350d7e6235f29174924f928cc2ac818eb64fed8004e115fbcca6760a03392a360e051805460ff60f01b1916600160f01b17905582519182526020820152f35b613612906139fe565b60e0516102d55785613555565b61365261362b85613f30565b837f0000000000000000000000000000000000000000000000000000000000000000615cd6565b61350e565b60e05185126136dc575b613669613e9d565b95333b156102d557613695916040518093819263fa461e3360e01b835260e05194898b60048601613da5565b038160e051335af18015611208576136cd575b506136b38386613f78565b9485106102d5576136c8604095613575613e9d565b61357c565b6136d6906139fe565b856136a8565b61370f6136e886613f30565b837f0000000000000000000000000000000000000000000000000000000000000000615cd6565b613661565b6020810151926137278251604435613f85565b926134fc565b6001600160801b0361374460035492828416613f41565b16906001600160801b03191617600355846134d1565b60808101516002556001600160801b0360a0820151168061377c575b506134d3565b6001600160801b03600354916137978219918460801c613f41565b60801b1691161760035584613776565b6001600160801b03196004541617600455846134ac565b505060018060a01b036040850151166bffffffffffffffffffffffff60a01b60e05154161760e05155613493565b5060408601516064356001600160a01b0390811691161415612657565b60025490612613565b634e487b7160e01b60e051526041600452602460e051fd5b600f60a085015160041c169261259d565b60405162461bcd60e51b815260206004820152600360248201526214d41360ea1b6044820152606490fd5b506401000276a36064356001600160a01b03161161256b565b82516001600160a01b0390811660643590911611801561256b575073fffd8963efd1fc6a506488495d951d5263988d266064356001600160a01b03161061256b565b60405162461bcd60e51b8152602060048201526002602482015261415360f01b6044820152606490fd5b346102d55760e0513660031901126102d5577f00000000000000000000000000000000000000000000000000000000000000006001600160a01b03168152602090f35b600435906001600160a01b0382168203610d4357565b9181601f84011215610d43578235916001600160401b038311610d435760208381860195010111610d4357565b602435908160020b8203610d4357565b604435908160020b8203610d4357565b600435908160020b8203610d4357565b606435906001600160801b0382168203610d4357565b604435906001600160801b0382168203610d4357565b60e081019081106001600160401b038211176139e857604052565b634e487b7160e01b600052604160045260246000fd5b6001600160401b0381116139e857604052565b608081019081106001600160401b038211176139e857604052565b60a081019081106001600160401b038211176139e857604052565b606081019081106001600160401b038211176139e857604052565b90601f801991011681019081106001600160401b038211176139e857604052565b60405190613a90826139cd565b8160c060ff60005460018060a01b03811684528060a01c60020b602085015261ffff808260b81c166040860152808260c81c1660608601528160d81c166080850152818160e81c1660a085015260f01c161515910152565b600691820b910b0390667fffffffffffff198212667fffffffffffff83131761135357565b6001600160a01b03918216908216039190821161135357565b63ffffffff918216908216039190821161135357565b613b468282613cb6565b60020b916000928084526005602052604084209260020b92838552600360408620910154948560060b60018060a01b0393848860381c169663ffffffff94858a60d81c169960f81c15613c805760030154948560060b968660381c1694818760d81c169660f81c15613c7d5750613bbb613a83565b916020830193845160020b908112600014613bf857505050505090613be6613bf294613bec93613ae8565b95613b0d565b94613b26565b91929190565b969793961215613c65574216945160020b906040015161ffff166004546001600160801b031690613c29928761482c565b92613c3391613ae8565b90613c3d91613ae8565b95613c4791613b0d565b90613c5191613b0d565b94613c5b91613b26565b90613bf291613b26565b5050613bf294979350613bec929691613be691613ae8565b80fd5b8480fd5b7f00000000000000000000000000000000000000000000000000000000000000006001600160a01b03163003610d4357565b9060020b9060020b81811215613d3157620d89e71913613d0657620d89e812613cdb57565b60405162461bcd60e51b815260206004820152600360248201526254554d60e81b6044820152606490fd5b60405162461bcd60e51b8152602060048201526003602482015262544c4d60e81b6044820152606490fd5b60405162461bcd60e51b8152602060048201526003602482015262544c5560e81b6044820152606490fd5b6001600160401b0381116139e85760051b60200190565b15613d7a57565b60405162461bcd60e51b81526020600482015260036024820152624c4f4b60e81b6044820152606490fd5b928492608095928552602085015260606040850152816060850152848401376000828201840152601f01601f1916010190565b3d15613e12573d906001600160401b0382116139e85760405191613e06601f8201601f191660200184613a62565b82523d6000602084013e565b606090565b60405160208101906370a0823160e01b825230602482015260248152613e3c81613a47565b60008092819251907f00000000000000000000000000000000000000000000000000000000000000005afa90613e70613dd8565b9180613e91575b15613c7d57602082805181010312613c7d57506020015190565b50602082511015613e77565b60405160208101906370a0823160e01b825230602482015260248152613ec281613a47565b60008092819251907f00000000000000000000000000000000000000000000000000000000000000005afa90613e70613dd8565b6001600160801b03918216908216039190821161135357565b600f0b6f7fffffffffffffffffffffffffffffff1981146113535760000390565b600160ff1b81146113535760000390565b9190916001600160801b038080941691160191821161135357565b9190916000838201938412911290801582169115161761135357565b9190820180921161135357565b8181039291600013801582851316918412161761135357565b8115613fa8570490565b634e487b7160e01b600052601260045260246000fd5b9190820391821161135357565b600291820b910b0390627fffff198212627fffff83131761135357565b15613fef57565b60405162461bcd60e51b815260206004820152600360248201526249494160e81b6044820152606490fd5b90816020910312610d4357516001600160a01b0381168103610d435790565b6001600160801b03168015611353576000190190565b908115600183800414171561135357565b8181029291811591840414171561135357565b90919060001983820992808202928380861095039480860395146140cd5750620f42409184831115610d435709118082038060fa1b04600160fa1b149114171561135357634e487b7160e01b600052601160045260246000fd5b93505050620f4240900490565b600160801b600019818309918060801b918280851094039380850394146142315783851115610d4357849109928061411181613f30565b168091049361412f6000946001848088030401908584119003614060565b920304179180600302916003830482036142095760028093186141528184614060565b84039084821161421d579061416691614060565b6141708184614060565b84039084821161421d579061418491614060565b61418e8184614060565b84039084821161421d57906141a291614060565b6141ac8184614060565b84039084821161421d57906141c091614060565b6141ca8184614060565b84039084821161421d576141e8916141e191614060565b8093614060565b83039283116142095750614206929161420091614060565b90614060565b90565b634e487b7160e01b81526011600452602490fd5b634e487b7160e01b83526011600452602483fd5b505090508115610d43570490565b906000198183098183029283808310920391808303921461429157600160801b9282841115610d435783910990838211808203938460801b948504149114171561135357614206920360801c1761404f565b50505060801c90565b60001982820990828102928380841093039280840393146142ef57600160601b9183831115610d43570982811191828103928360a01b938404600160a01b149114171561135357614206920360601c1761404f565b50505060601c90565b600160601b600019818309918060601b918280851094039380850394146142315783851115610d4357849109928061411181613f30565b9060001981830991818102918280851094039380850394146142315783851115610d4357849109928061411181613f30565b60001981146113535760010190565b9190620f4240906143818185614073565b930961438957565b90600019811015610d435761420690614361565b9190916143aa838261429a565b92600160601b910961438957565b9291906143c682828661432f565b938215613fa8570961438957565b9190600081600f0b1260001461443a576143f061440391613f0f565b6001600160801b03918291821685613ef6565b9316908316101561441057565b60405162461bcd60e51b81526020600482015260026024820152614c5360f01b6044820152606490fd5b614451906001600160801b03918291821685613f41565b93169083161061445d57565b60405162461bcd60e51b81526020600482015260026024820152614c4160f01b6044820152606490fd5b91909160006144968483613f5c565b9312159083121503610d4357565b91909160006144b38483613f85565b9312159083131503610d4357565b906040516144ce81613a11565b915463ffffffff81168352602081811c60060b90840152605881901c6001600160a01b0316604084015260f81c15156060830152565b90600161ffff8093160191821161135357565b9061ffff809116918215613fa857160690565b95939192909261ffff93848810156145e857614548886008016144c1565b9763ffffffff94858a5116868416146146315786811680888b16119081614608575b509161458b9961459092614596979695946000146145fe5750998a91614504565b614517565b986146b8565b918510156145e85781511690602081015160201b916affffffffffffff00000000600160581b600160f81b03604084015160581b1692606060ff60f81b910151151560f81b1693161717178360080155565b634e487b7160e01b600052603260045260246000fd5b9050998a91614504565b90506000959493929195190190878211611353579394929391929087168783161461458b61456a565b90985096505050505050565b6040519061464a82613a11565b60006060838281528260208201528260408201520152565b9060060b9060060b02908160060b91820361135357565b9060060b9060060b0190667fffffffffffff198212667fffffffffffff83131761135357565b6001600160a01b03918216908216019190821161135357565b6040929391936146c661463d565b5063ffffffff926146ff6146dd8585511688613b26565b926146f660208601519187861660060b9060020b614662565b9060060b614679565b92909401516001600160a01b0394908516906001600160801b03908181161561476a575b168015613fa8576147419260801b63ffffffff60801b16049061469f565b916040519461474f86613a11565b16845260060b60208401521660408201526001606082015290565b506001614723565b1561477957565b60405162461bcd60e51b81526020600482015260016024820152604960f81b6044820152606490fd5b61ffff90818116906147b5821515614772565b82841691821115614825575b81838216106147d05750505090565b828110156148105760088101805463ffffffff1916600117905582168083146147fb576001016147c1565b60246000634e487b7160e01b81526011600452fd5b60246000634e487b7160e01b81526032600452fd5b9250505090565b93929161ffff8110156145e857614845906008016144c1565b9363ffffffff8086511690821603614874575b505050602082015160060b91604060018060a01b039101511690565b61487e93946146b8565b90388080614858565b929594919593909363ffffffff96878616156149c5576148ab85966148b296613b26565b8096614a0a565b919093808551168183168181146000146148e4575050505050602082015160060b91604060018060a01b039101511690565b828597955116809114600014614912575050505050602082015160060b91604060018060a01b039101511690565b61492a9161491f91613b26565b928285511690613b26565b602084015160060b90826149458360208a015160060b613ae8565b60060b941690600382900b8015613fa857667fffffffffffff19861460001982141661135357614206966149b36149986149be9661499260409a8b9a6149b99816968760030b9105614662565b90614679565b9a60018060a01b038080998195015116998a92015116613b0d565b16614060565b613f9e565b169061469f565b93925090935061ffff8110156145e8576149e1906008016144c1565b94808651169082160361487457505050602082015160060b91604060018060a01b039101511690565b91959092614a1661463d565b50614a1f61463d565b9661ffff97888310156145e857600896614a3a8489016144c1565b9063ffffffff93614a4f89868551168a614c7d565b614c355750505050614a648761458b84614504565b888110156145e857614a779087016144c1565b9160609286838583015115614bee575b614a9392511687614c7d565b15614bc35788614ab98961458b8394614aaa61463d565b50614ab361463d565b50614504565b16971695614ac78789613f78565b60001998818a01918211611353575b614ae08282613f78565b91600192831c92614af18b85614ced565b8d8110156145e857614b049086016144c1565b908782015115614bad57840190818511611353578d90614b248d84614ced565b918210156145e857614b388b9288016144c1565b908c614b48818b84511686614c7d565b93849182614b97575b5050614b84575050614b7757505089820191821161135357614ae091905b909150614ad6565b909150614ae09250614b6f565b9e509c50979a5050505050505050505050565b614ba692508b85511691614c7d565b8c8e614b51565b91925050820180921161135357614ae091614b6f565b60405162461bcd60e51b815260206004820152600360248201526213d31160ea1b6044820152606490fd5b614a939250604051614bff81613a11565b8a548281168252602081811c60060b90830152605881901c6001600160a01b0316604083015260f81c1515878201529250614a87565b9650969498509650975080915085511690821614600014614c57575050509190565b836142069496506146b8565b9064010000000064ffffffffff8093160191821161135357565b909163ffffffff808093169316838111801580614ce1575b614cd85715614cc957925b64ffffffffff9283921690811115614cbb575b169116111590565b614cc490614c63565b614cb3565b614cd290614c63565b92614ca0565b50925016101590565b50848484161115614c95565b8115613fa8570690565b80518210156145e85760209160051b010190565b916040519160208301936bffffffffffffffffffffffff199060601b16845260e81b603483015260e81b6037820152601a8152604081018181106001600160401b038211176139e8576040525190206000526007602052604060002090565b9160008082600f0b12600014614df45750614d8490613f0f565b6001600160a01b03929190818385821686821611614de8575b50508380614dab8585613b0d565b169316928315610d4357614dd3946149b993169160601b600160601b600160e01b031661432f565b600160ff1b811015610d435761420690613f30565b90935091503880614d9d565b926001600160a01b03838282821683821611614e5d575b50508080614e198487613b0d565b169216938415614e5957614e3f939116919060601b600160601b600160e01b03166143b8565b81810491900615150190600160ff1b821015613c7d575090565b8580fd5b945091503880614e0b565b6001600160a01b039290919083821684841611614eb4575b8380614e8c8585613b0d565b169316928315610d4357614206946149b993169160601b600160601b600160e01b031661432f565b919091614e80565b6001600160a01b03929082841684821611614f0e575b8380614ede8386613b0d565b169116938415610d4357614f0293169160601b600160601b600160e01b03166143b8565b90808206151591040190565b91614ed2565b9160008082600f0b12600014614f70575091614f5e614f35614dd394613f0f565b6001600160801b0316926001600160a01b039290808285821686821611614f65575b5050613b0d565b169061429a565b915091503880614f57565b92614fa6926001600160a01b0391614f9691808285821686821611614f65575050613b0d565b16906001600160801b031661439d565b90600160ff1b821015613c7d575090565b61420692916001600160801b03916001600160a01b0391614fe3919083811684831611614feb57613b0d565b16911661429a565b90613b0d565b61420692916001600160801b03916001600160a01b039161501d919083811684831611614feb57613b0d565b16911661439d565b9062ffffff809216620f42400391821161135357565b919081156150ab576001600160a01b039260609190911b600160601b600160e01b03169083168061507661506f8286614060565b9485613f9e565b14806150a2575b15610d435761508f6150959383613fbe565b916143b8565b908116908103610d435790565b5082821161507d565b505090565b919081156150ab576001600160a01b039260609190911b600160601b600160e01b0316919083166150e18183614060565b816150ec8483613f9e565b1461511a575b506151006151079184613f9e565b9182613f78565b908110610d435780820615159104011690565b6151249084613f78565b8381106150f2579150615136926143b8565b1690565b98979590989692939694919460020b968760005260056020526040600020976001600160801b03808a541690806151718a846143d4565b169916891161528857159a8b891514159b6151c4575b505050505050506151b16001600160801b03199183838654161790600f0b9060801d600f0b614487565b8080600f0b03610d435760801b16179055565b60020b12156151f6575b505050506003840180546001600160f81b0316600160f81b1790555038808080808080615187565b60018801949094556002870193909355600386018054600160381b600160d81b03191660389290921b600160381b600160d81b031691909117815561527e925b81547fff00000000ffffffffffffffffffffffffffffffffffffffff000000000000001666ffffffffffffff919091161760d89290921b63ffffffff60d81b16919091179055565b38808080806151ce565b60405162461bcd60e51b81526020600482015260026024820152614c4f60f01b6044820152606490fd5b98979590989692939694919460020b968760005260056020526040600020976001600160801b03808a541690806152e98a846143d4565b169916891161528857159a8b891514159b615329575b505050505050506151b16001600160801b03199183838654161790600f0b9060801d600f0b6144a4565b60020b121561535b575b505050506003840180546001600160f81b0316600160f81b17905550388080808080806152ff565b60018801949094556002870193909355600386018054600160381b600160d81b03191660389290921b600160381b600160d81b031691909117815561539f92615236565b3880808080615333565b9060020b908115613fa85760020b0790565b60020b9060020b908115613fa857627fffff198114600019831416611353570590565b6153e882826153a9565b60020b610d43576153fc9161314a916153bb565b9060010b6000526006602052600160ff604060002092161b8154189055565b60020b60010190627fffff8213627fffff1983121761135357565b9060020b9060020b0190627fffff198212627fffff83131761135357565b9060ff8091169116039060ff821161135357565b9060020b9060020b02908160020b91820361135357565b60020b600081121561597b5761549481613f30565b620d89e88111615952576001811615615940576001600160881b036ffffcb933bd6fad37aa2d162d1a5940015b169160028216615914575b6004918281166158e8575b600881166158bc575b60108116615890575b60208116615864575b60408116615838575b60809081811661580d575b61010081166157e2575b61020081166157b7575b610400811661578c575b6108008116615761575b6110008116615736575b612000811661570b575b61400081166156e0575b61800081166156b5575b62010000811661568a575b620200008116615660575b620400008116615622575b62080000166155e3575b506000126155bd575b5063ffffffff81166155b2576151366000915b6001600160a01b039260ff169060201c613f78565b61513660019161559d565b81156155ce5750600019043861558a565b601290634e487b7160e01b6000525260246000fd5b6b048a170391f7dc42444e8fa29391939182810292818404149015171561560d571c916000615581565b601183634e487b7160e01b6000525260246000fd5b936d2216e584f5fa1ea926041bedfe989081810291818304149015171561564b57811c93615577565b601184634e487b7160e01b6000525260246000fd5b936e5d6af8dedb81196699c329225ee6049081810291818304149015171561564b57811c9361556c565b936f09aa508b5b7a84e1c677de54f3e99bc99081810291818304149015171561564b57811c93615561565b936f31be135f97d08fd981231505542fcfa69081810291818304149015171561564b57811c93615556565b936f70d869a156d2a1b890bb3df62baf32f79081810291818304149015171561564b57811c9361554c565b936fa9f746462d870fdf8a65dc1f90e061e59081810291818304149015171561564b57811c93615542565b936fd097f3bdfd2022b8845ad8f792aa58259081810291818304149015171561564b57811c93615538565b936fe7159475a2c29b7443b29c7fa6e889d99081810291818304149015171561564b57811c9361552e565b936ff3392b0822b70005940c7a398e4b70f39081810291818304149015171561564b57811c93615524565b936ff987a7253ac413176f2b074cf7815e549081810291818304149015171561564b57811c9361551a565b936ffcbe86c7900a88aedcffc83b479aa3a49081810291818304149015171561564b57811c93615510565b936ffe5dee046a99a2a811c461f1969c30539081810291818304149015171561564b57811c93615506565b926fff2ea16466c96a3843ec78b326b528619081810291818304149015171561560d5760801c926154fb565b926fff973b41fa98c081472e6896dfb254c09081810291818304149015171561560d5760801c926154f2565b926fffcb9843d60f6159c9db58835c9266449081810291818304149015171561560d5760801c926154e9565b926fffe5caca7e10e4e61c3624eaa0941cd09081810291818304149015171561560d5760801c926154e0565b926ffff2e50f5f656932ef12357cf3c7fdcc9081810291818304149015171561560d5760801c926154d7565b916ffff97272373d413259a46990580e213a908181029181830414901517156113535760801c916154cc565b6001600160881b03600160801b6154c1565b60405162461bcd60e51b81526020600482015260016024820152601560fa1b6044820152606490fd5b80615494565b6001600160a01b03818116916401000276a383101580615cb9575b15615c9057640100000000600160c01b039060201b1690816001600160801b03831160071b9280841c916001600160401b03831160061b92831c9463ffffffff861160051b95861c9360049661ffff8611881b95861c60ff9687821160031b91821c92600f841160021b93841c94600160038711811b96871c119617171717171717916080831015600014615c7c5750607e198201828111615c67571c5b607f198201918213600116615c52578002607f928392828493841c81841c1c800280851c81851c1c800280861c81861c1c800280871c81871c1c80029081881c82881c1c80029283891c84891c1c800294858a1c868a1c1c800296878b1c888b1c1c800298898c1c8a8c1c1c80029a8b8d1c8c821c1c8002809d1c8d821c1c8002809e81901c90821c1c80029e8f80911c911c1c800260cd1c6604000000000000169d60cc1c6608000000000000169c60cb1c6610000000000000169b60ca1c6620000000000000169a60c91c6640000000000000169960c81c6680000000000000169860c71c670100000000000000169760c61c670200000000000000169660c51c670400000000000000169560c41c670800000000000000169460c31c671000000000000000169360c21c672000000000000000169260c11c674000000000000000169160c01c678000000000000000169060401b1717171717171717171717171717693627a301d71055774c859081810291818305149015171561560d576f028f6481ab7f045a5af012a19d003aa919810160018282131661564b5760801d60020b926fdb2df09e81959a81455e260799a0632f9160008382019384129112908015821691151617615c3d575060801d60020b92600091838503615c2357505050905090565b615c2c8561547f565b16119050615c38575090565b905090565b601190634e487b7160e01b6000525260246000fd5b601185634e487b7160e01b6000525260246000fd5b601186634e487b7160e01b6000525260246000fd5b905081607f03607f8111615c67571b615a3a565b60405162461bcd60e51b81526020600482015260016024820152602960f91b6044820152606490fd5b5073fffd8963efd1fc6a506488495d951d5263988d26831061599c565b60405163a9059cbb60e01b602082019081526001600160a01b03909316602482015260448082019490945292835291615d0e81613a11565b600092839283809351925af190615d23613dd8565b9082615d5d575b505015615d3357565b60405162461bcd60e51b81526020600482015260026024820152612a2360f11b6044820152606490fd5b9080925051918215928315615d77575b5050503880615d2a565b819293509060209181010312615d9e5760200151908115158203613c7d5750388080615d6d565b5080fdfea2646970667358221220c2e5f60ee69ae3a1d73a7feb9c33862d40591d534033fcf616957dc662565fa964736f6c63430008150033a26469706673582212204b81c31c6f4edb4613aeed7db7c6770b978cce72f68a3086ccf5bc70ff04d51264736f6c63430008150033",
    "linkReferences": {}
  },
  "methodIdentifiers": {
    "createPool(address,address,uint24,bool)": "5a31811b",
    "enableFeeAmount(uint24,int24)": "8a7c195f",
    "feeAmountTickSpacing(uint24)": "22afcccb",
    "getPool(address,address,uint24)": "1698ee82",
    "isKitchenPool(address)": "4e891212",
    "owner()": "8da5cb5b",
    "parameters()": "89035730",
    "setOwner(address)": "13af4035",
    "transferOwnership(address)": "f2fde38b"
  },
  "id": 2
}