{
  "abi": [
    {
      "type": "constructor",
      "inputs": [
        {
          "name": "_feeToSetter",
          "type": "address",
          "internalType": "address"
        }
      ],
      "stateMutability": "nonpayable"
    },
    {
      "type": "function",
      "name": "allPairs",
      "inputs": [
        {
          "name": "",
          "type": "uint256",
          "internalType": "uint256"
        }
      ],
      "outputs": [
        {
          "name": "",
          "type": "address",
          "internalType": "address"
        }
      ],
      "stateMutability": "view"
    },
    {
      "type": "function",
      "name": "allPairsLength",
      "inputs": [],
      "outputs": [
        {
          "name": "",
          "type": "uint256",
          "internalType": "uint256"
        }
      ],
      "stateMutability": "view"
    },
    {
      "type": "function",
      "name": "createPair",
      "inputs": [
        {
          "name": "tokenA",
          "type": "address",
          "internalType": "address"
        },
        {
          "name": "tokenB",
          "type": "address",
          "internalType": "address"
        }
      ],
      "outputs": [
        {
          "name": "pair",
          "type": "address",
          "internalType": "address"
        }
      ],
      "stateMutability": "nonpayable"
    },
    {
      "type": "function",
      "name": "feeTo",
      "inputs": [],
      "outputs": [
        {
          "name": "",
          "type": "address",
          "internalType": "address"
        }
      ],
      "stateMutability": "view"
    },
    {
      "type": "function",
      "name": "feeToSetter",
      "inputs": [],
      "outputs": [
        {
          "name": "",
          "type": "address",
          "internalType": "address"
        }
      ],
      "stateMutability": "view"
    },
    {
      "type": "function",
      "name": "getPair",
      "inputs": [
        {
          "name": "",
          "type": "address",
          "internalType": "address"
        },
        {
          "name": "",
          "type": "address",
          "internalType": "address"
        }
      ],
      "outputs": [
        {
          "name": "",
          "type": "address",
          "internalType": "address"
        }
      ],
      "stateMutability": "view"
    },
    {
      "type": "function",
      "name": "getPairDeployer",
      "inputs": [
        {
          "name": "pair",
          "type": "address",
          "internalType": "address"
        }
      ],
      "outputs": [
        {
          "name": "deployer",
          "type": "address",
          "internalType": "address"
        }
      ],
      "stateMutability": "view"
    },
    {
      "type": "function",
      "name": "pairDeployer",
      "inputs": [
        {
          "name": "",
          "type": "address",
          "internalType": "address"
        }
      ],
      "outputs": [
        {
          "name": "",
          "type": "address",
          "internalType": "address"
        }
      ],
      "stateMutability": "view"
    },
    {
      "type": "function",
      "name": "setFeeTo",
      "inputs": [
        {
          "name": "_feeTo",
          "type": "address",
          "internalType": "address"
        }
      ],
      "outputs": [],
      "stateMutability": "nonpayable"
    },
    {
      "type": "function",
      "name": "setFeeToSetter",
      "inputs": [
        {
          "name": "_feeToSetter",
          "type": "address",
          "internalType": "address"
        }
      ],
      "outputs": [],
      "stateMutability": "nonpayable"
    },
    {
      "type": "event",
      "name": "PairCreated",
      "inputs": [
        {
          "name": "token0",
          "type": "address",
          "indexed": true,
          "internalType": "address"
        },
        {
          "name": "token1",
          "type": "address",
          "indexed": true,
          "internalType": "address"
        },
        {
          "name": "pair",
          "type": "address",
          "indexed": false,
          "internalType": "address"
        },
        {
          "name": "",
          "type": "uint256",
          "indexed": false,
          "internalType": "uint256"
        }
      ],
      "anonymous": false
    }
  ],
  "bytecode": {
    "object": "0x608060405234801561000f575f80fd5b5060405161356338038061356383398101604081905261002e91610053565b600180546001600160a01b0319166001600160a01b0392909216919091179055610080565b5f60208284031215610063575f80fd5b81516001600160a01b0381168114610079575f80fd5b9392505050565b6134d68061008d5f395ff3fe608060405234801561000f575f80fd5b506004361061009b575f3560e01c8063a2e74af611610063578063a2e74af614610130578063c9c6539614610145578063d4ca62d814610158578063e6a4390514610180578063f46901ed146101b3575f80fd5b8063017e7e581461009f578063094b7415146100ce5780631e3dd18b146100e15780634a967b4f146100f4578063574f2ba31461011f575b5f80fd5b5f546100b1906001600160a01b031681565b6040516001600160a01b0390911681526020015b60405180910390f35b6001546100b1906001600160a01b031681565b6100b16100ef3660046105e9565b6101c6565b6100b161010236600461061b565b6001600160a01b039081165f908152600360205260409020541690565b6004546040519081526020016100c5565b61014361013e36600461061b565b6101ee565b005b6100b161015336600461063b565b610266565b6100b161016636600461061b565b60036020525f90815260409020546001600160a01b031681565b6100b161018e36600461063b565b600260209081525f92835260408084209091529082529020546001600160a01b031681565b6101436101c136600461061b565b61056a565b600481815481106101d5575f80fd5b5f918252602090912001546001600160a01b0316905081565b6001546001600160a01b031633146102445760405162461bcd60e51b81526020600482015260146024820152732ab734b9bbb0b82b191d102327a92124a22222a760611b60448201526064015b60405180910390fd5b600180546001600160a01b0319166001600160a01b0392909216919091179055565b5f816001600160a01b0316836001600160a01b0316036102c85760405162461bcd60e51b815260206004820152601e60248201527f556e697377617056323a204944454e544943414c5f4144445245535345530000604482015260640161023b565b5f80836001600160a01b0316856001600160a01b0316106102ea5783856102ed565b84845b90925090506001600160a01b0382166103485760405162461bcd60e51b815260206004820152601760248201527f556e697377617056323a205a45524f5f41444452455353000000000000000000604482015260640161023b565b6001600160a01b038281165f908152600260209081526040808320858516845290915290205416156103b55760405162461bcd60e51b8152602060048201526016602482015275556e697377617056323a20504149525f45584953545360501b604482015260640161023b565b5f604051806020016103c6906105dc565b601f1982820381018352601f9091011660408190526bffffffffffffffffffffffff19606086811b8216602084015285901b1660348201529091505f90604801604051602081830303815290604052805190602001209050808251602084015ff560405163485cc95560e01b81526001600160a01b03868116600483015285811660248301529196509086169063485cc955906044015f604051808303815f87803b158015610473575f80fd5b505af1158015610485573d5f803e3d5ffd5b505050506001600160a01b038481165f8181526002602081815260408084208987168086529083528185208054978d166001600160a01b031998891681179091559383528185208686528352818520805488168517905583855260038352818520805488163317905560048054600181018255958190527f8a35acfbc15ff81a39ae7d344fd709f28e8600b4aa8c65c6b64bfe7fe36bd19b9095018054909716841790965592548351928352908201527f0d3648bd0f6ba80134a33ba9275ac585d9d315f0ad8355cddefde31afa28d0e9910160405180910390a35050505092915050565b6001546001600160a01b031633146105bb5760405162461bcd60e51b81526020600482015260146024820152732ab734b9bbb0b82b191d102327a92124a22222a760611b604482015260640161023b565b5f80546001600160a01b0319166001600160a01b0392909216919091179055565b612e348061066d83390190565b5f602082840312156105f9575f80fd5b5035919050565b80356001600160a01b0381168114610616575f80fd5b919050565b5f6020828403121561062b575f80fd5b61063482610600565b9392505050565b5f806040838503121561064c575f80fd5b61065583610600565b915061066360208401610600565b9050925092905056fe60806040526001600d55348015610014575f80fd5b50604080518082018252600a8152692ab734b9bbb0b8102b1960b11b6020918201528151808301835260018152603160f81b9082015281517f8b73c3c69bb8fe3d512ecc4cf759cc79239f7b179b0ffacaa9a75d522b39400f818301527fbfcc8ef98ffbf7b6c3fec7bf5185b566b9863e35a9d83acd49ad6824b5969738818401527fc89efdaa54c0f20c7adf612882df0950f5a951637e0307cdcb4c672f298b8bc660608201524660808201523060a0808301919091528351808303909101815260c0909101928390528051910120600355600680546001600160a01b0319163317905561010290610141565b604051809103905ff08015801561011b573d5f803e3d5ffd5b50600580546001600160a01b0319166001600160a01b039290921691909117905561014f565b6109f2806200244283390190565b6122e5806200015d5f395ff3fe608060405234801561000f575f80fd5b50600436106101a1575f3560e01c80636a627842116100f3578063ba9a7a5611610093578063d21220a71161006e578063d21220a7146103fc578063d505accf1461040f578063dd62ed3e14610422578063fff6cae91461044c575f80fd5b8063ba9a7a56146103cd578063bc25cf77146103d6578063c45a0155146103e9575f80fd5b80637ecebe00116100ce5780637ecebe001461034e57806389afcb441461036d57806395d89b4114610395578063a9059cbb146103ba575f80fd5b80636a6278421461031357806370a08231146103265780637464fc3d14610345575f80fd5b806323b872dd1161015e5780633644e515116101395780633644e515146102e5578063485cc955146102ee5780635909c0d5146103015780635a3d54931461030a575f80fd5b806323b872dd1461029157806330adf81f146102a4578063313ce567146102cb575f80fd5b8063022c0d9f146101a557806306fdde03146101ba5780630902f1ac146101f9578063095ea7b31461022d5780630dfe16811461025057806318160ddd1461027b575b5f80fd5b6101b86101b3366004611ea2565b610454565b005b6101e36040518060400160405280600a8152602001692ab734b9bbb0b8102b1960b11b81525081565b6040516101f09190611f52565b60405180910390f35b610201610945565b604080516001600160701b03948516815293909216602084015263ffffffff16908201526060016101f0565b61024061023b366004611f84565b61096f565b60405190151581526020016101f0565b600754610263906001600160a01b031681565b6040516001600160a01b0390911681526020016101f0565b6102835f5481565b6040519081526020016101f0565b61024061029f366004611fae565b610985565b6102837f6e71edae12b1b97f4d1f60370fef10105fa2faae0126114a169c64845d6126c981565b6102d3601281565b60405160ff90911681526020016101f0565b61028360035481565b6101b86102fc366004611fec565b610a15565b610283600a5481565b610283600b5481565b610283610321366004612023565b610a94565b610283610334366004612023565b60016020525f908152604090205481565b610283600c5481565b61028361035c366004612023565b60046020525f908152604090205481565b61038061037b366004612023565b610d4e565b604080519283526020830191909152016101f0565b6101e3604051806040016040528060068152602001652aa72496ab1960d11b81525081565b6102406103c8366004611f84565b611209565b6102836103e881565b6101b86103e4366004612023565b611215565b600654610263906001600160a01b031681565b600854610263906001600160a01b031681565b6101b861041d36600461203e565b611326565b610283610430366004611fec565b600260209081525f928352604080842090915290825290205481565b6101b8611536565b600d5460011461047f5760405162461bcd60e51b8152600401610476906120af565b60405180910390fd5b5f600d558415158061049057505f84115b6104ea5760405162461bcd60e51b815260206004820152602560248201527f556e697377617056323a20494e53554646494349454e545f4f55545055545f416044820152641353d5539560da1b6064820152608401610476565b5f806104f4610945565b5091509150816001600160701b0316871080156105195750806001600160701b031686105b61056f5760405162461bcd60e51b815260206004820152602160248201527f556e697377617056323a20494e53554646494349454e545f4c495155494449546044820152605960f81b6064820152608401610476565b6007546008545f9182916001600160a01b039182169190811690891682148015906105ac5750806001600160a01b0316896001600160a01b031614155b6105f05760405162461bcd60e51b8152602060048201526015602482015274556e697377617056323a20494e56414c49445f544f60581b6044820152606401610476565b8a1561060157610601828a8d611655565b891561061257610612818a8c611655565b861561067a576040516304347a1760e21b81526001600160a01b038a16906310d1e85c9061064c9033908f908f908e908e906004016120da565b5f604051808303815f87803b158015610663575f80fd5b505af1158015610675573d5f803e3d5ffd5b505050505b6040516370a0823160e01b81523060048201526001600160a01b038316906370a0823190602401602060405180830381865afa1580156106bc573d5f803e3d5ffd5b505050506040513d601f19601f820116820180604052508101906106e09190612125565b6040516370a0823160e01b81523060048201529094506001600160a01b038216906370a0823190602401602060405180830381865afa158015610725573d5f803e3d5ffd5b505050506040513d601f19601f820116820180604052508101906107499190612125565b925050505f89856001600160701b03166107639190612150565b831161076f575f61078c565b6107828a6001600160701b038716612150565b61078c9084612150565b90505f6107a28a6001600160701b038716612150565b83116107ae575f6107cb565b6107c18a6001600160701b038716612150565b6107cb9084612150565b90505f8211806107da57505f81115b6108325760405162461bcd60e51b8152602060048201526024808201527f556e697377617056323a20494e53554646494349454e545f494e5055545f414d60448201526313d5539560e21b6064820152608401610476565b5f61085361084184600361179b565b61084d876103e861179b565b90611801565b90505f61086461084184600361179b565b9050610889620f42406108836001600160701b038b8116908b1661179b565b9061179b565b610893838361179b565b10156108d05760405162461bcd60e51b815260206004820152600c60248201526b556e697377617056323a204b60a01b6044820152606401610476565b50506108de84848888611856565b60408051838152602081018390529081018c9052606081018b90526001600160a01b038a169033907fd78ad95fa46c994b6551d0da85fc275fe613ce37657fb8d5e3d130840159d8229060800160405180910390a350506001600d55505050505050505050565b6009546001600160701b0380821692600160701b830490911691600160e01b900463ffffffff1690565b5f61097b338484611a3d565b5060015b92915050565b6001600160a01b0383165f9081526002602090815260408083203384529091528120545f1914610a00576001600160a01b0384165f9081526002602090815260408083203384529091529020546109dc9083611801565b6001600160a01b0385165f9081526002602090815260408083203384529091529020555b610a0b848484611a9e565b5060019392505050565b6006546001600160a01b03163314610a665760405162461bcd60e51b81526020600482015260146024820152732ab734b9bbb0b82b191d102327a92124a22222a760611b6044820152606401610476565b600780546001600160a01b039384166001600160a01b03199182161790915560088054929093169116179055565b5f600d54600114610ab75760405162461bcd60e51b8152600401610476906120af565b5f600d81905580610ac6610945565b506007546040516370a0823160e01b81523060048201529294509092505f916001600160a01b03909116906370a0823190602401602060405180830381865afa158015610b15573d5f803e3d5ffd5b505050506040513d601f19601f82011682018060405250810190610b399190612125565b6008546040516370a0823160e01b81523060048201529192505f916001600160a01b03909116906370a0823190602401602060405180830381865afa158015610b84573d5f803e3d5ffd5b505050506040513d601f19601f82011682018060405250810190610ba89190612125565b90505f610bbe836001600160701b038716611801565b90505f610bd4836001600160701b038716611801565b90505f610be18787611b41565b5f8054919250819003610c1957610c066103e861084d610c01878761179b565b611c73565b9850610c145f6103e8611ce1565b610c60565b610c5d6001600160701b038916610c30868461179b565b610c3a9190612177565b6001600160701b038916610c4e868561179b565b610c589190612177565b611d6d565b98505b5f8911610cc05760405162461bcd60e51b815260206004820152602860248201527f556e697377617056323a20494e53554646494349454e545f4c495155494449546044820152671657d3525395115160c21b6064820152608401610476565b610cca8a8a611ce1565b610cd686868a8a611856565b8115610d0057600954610cfc906001600160701b0380821691600160701b90041661179b565b600c555b604080518581526020810185905233917f4c209b5fc8ad50758f13e2e1088ba56a560dff690a1c6fef26394f4c03821c4f910160405180910390a250506001600d5550949695505050505050565b5f80600d54600114610d725760405162461bcd60e51b8152600401610476906120af565b5f600d81905580610d81610945565b506007546008546040516370a0823160e01b81523060048201529395509193506001600160a01b03908116929116905f9083906370a0823190602401602060405180830381865afa158015610dd8573d5f803e3d5ffd5b505050506040513d601f19601f82011682018060405250810190610dfc9190612125565b6040516370a0823160e01b81523060048201529091505f906001600160a01b038416906370a0823190602401602060405180830381865afa158015610e43573d5f803e3d5ffd5b505050506040513d601f19601f82011682018060405250810190610e679190612125565b305f90815260016020526040812054919250610e838888611b41565b5f5490915080610e93848761179b565b610e9d9190612177565b9a5080610eaa848661179b565b610eb49190612177565b99505f8b118015610ec457505f8a115b610f215760405162461bcd60e51b815260206004820152602860248201527f556e697377617056323a20494e53554646494349454e545f4c495155494449546044820152671657d0955493915160c21b6064820152608401610476565b610f2b3084611d84565b600654604051634a967b4f60e01b81523060048201526001600160a01b0390911690634a967b4f90602401602060405180830381865afa158015610f71573d5f803e3d5ffd5b505050506040513d601f19601f82011682018060405250810190610f95919061218a565b6001600160a01b0316336001600160a01b031614801561101c575060055460405163ef79a35f60e01b81523360048201526001600160a01b039091169063ef79a35f90602401602060405180830381865afa158015610ff6573d5f803e3d5ffd5b505050506040513d601f19601f8201168201806040525081019061101a9190612125565b155b1561109057600554604051630e4ca96160e41b8152336004820152620151806024820152306044820152606481018590526001600160a01b039091169063e4ca9610906084015f604051808303815f87803b158015611079575f80fd5b505af115801561108b573d5f803e3d5ffd5b505050505b61109b878d8d611655565b6110a6868d8c611655565b6040516370a0823160e01b81523060048201526001600160a01b038816906370a0823190602401602060405180830381865afa1580156110e8573d5f803e3d5ffd5b505050506040513d601f19601f8201168201806040525081019061110c9190612125565b6040516370a0823160e01b81523060048201529095506001600160a01b038716906370a0823190602401602060405180830381865afa158015611151573d5f803e3d5ffd5b505050506040513d601f19601f820116820180604052508101906111759190612125565b935061118385858b8b611856565b81156111ad576009546111a9906001600160701b0380821691600160701b90041661179b565b600c555b604080518c8152602081018c90526001600160a01b038e169133917fdccd412f0b1252819cb1fd330b93224ca42612892bb3f4f789976e6d81936496910160405180910390a35050505050505050506001600d81905550915091565b5f61097b338484611a9e565b600d546001146112375760405162461bcd60e51b8152600401610476906120af565b5f600d556007546008546009546040516370a0823160e01b81523060048201526001600160a01b0393841693909216916112cf91849186916112ca916001600160701b039091169084906370a08231906024015b602060405180830381865afa1580156112a6573d5f803e3d5ffd5b505050506040513d601f19601f8201168201806040525081019061084d9190612125565b611655565b6009546040516370a0823160e01b815230600482015261131c91839186916112ca91600160701b9091046001600160701b0316906001600160a01b038516906370a082319060240161128b565b50506001600d5550565b4284101561136b5760405162461bcd60e51b8152602060048201526012602482015271155b9a5cddd85c158c8e881156141254915160721b6044820152606401610476565b6003546001600160a01b0388165f90815260046020526040812080549192917f6e71edae12b1b97f4d1f60370fef10105fa2faae0126114a169c64845d6126c9918b918b918b9190876113bd836121a5565b909155506040805160208101969096526001600160a01b0394851690860152929091166060840152608083015260a082015260c0810187905260e0016040516020818303038152906040528051906020012060405160200161143692919061190160f01b81526002810192909252602282015260420190565b60408051601f1981840301815282825280516020918201205f80855291840180845281905260ff88169284019290925260608301869052608083018590529092509060019060a0016020604051602081039080840390855afa15801561149e573d5f803e3d5ffd5b5050604051601f1901519150506001600160a01b038116158015906114d45750886001600160a01b0316816001600160a01b0316145b6115205760405162461bcd60e51b815260206004820152601c60248201527f556e697377617056323a20494e56414c49445f5349474e4154555245000000006044820152606401610476565b61152b898989611a3d565b505050505050505050565b600d546001146115585760405162461bcd60e51b8152600401610476906120af565b5f600d556007546040516370a0823160e01b815230600482015261164e916001600160a01b0316906370a0823190602401602060405180830381865afa1580156115a4573d5f803e3d5ffd5b505050506040513d601f19601f820116820180604052508101906115c89190612125565b6008546040516370a0823160e01b81523060048201526001600160a01b03909116906370a0823190602401602060405180830381865afa15801561160e573d5f803e3d5ffd5b505050506040513d601f19601f820116820180604052508101906116329190612125565b6009546001600160701b0380821691600160701b900416611856565b6001600d55565b604080518082018252601981527f7472616e7366657228616464726573732c75696e74323536290000000000000060209182015281516001600160a01b0385811660248301526044808301869052845180840390910181526064909201845291810180516001600160e01b031663a9059cbb60e01b17905291515f9283928716916116e091906121bd565b5f604051808303815f865af19150503d805f8114611719576040519150601f19603f3d011682016040523d82523d5f602084013e61171e565b606091505b509150915081801561174857508051158061174857508080602001905181019061174891906121d8565b6117945760405162461bcd60e51b815260206004820152601a60248201527f556e697377617056323a205452414e534645525f4641494c45440000000000006044820152606401610476565b5050505050565b5f8115806117be575082826117b081836121f7565b92506117bc9083612177565b145b61097f5760405162461bcd60e51b815260206004820152601460248201527364732d6d6174682d6d756c2d6f766572666c6f7760601b6044820152606401610476565b5f8261180d8382612150565b915081111561097f5760405162461bcd60e51b815260206004820152601560248201527464732d6d6174682d7375622d756e646572666c6f7760581b6044820152606401610476565b6001600160701b03841180159061187457506001600160701b038311155b6118b65760405162461bcd60e51b8152602060048201526013602482015272556e697377617056323a204f564552464c4f5760681b6044820152606401610476565b5f6118c66401000000004261220e565b6009549091505f906118e590600160e01b900463ffffffff1683612221565b90505f8163ffffffff1611801561190457506001600160701b03841615155b801561191857506001600160701b03831615155b156119a5578063ffffffff166119408561193186611e0b565b6001600160e01b031690611e23565b6001600160e01b031661195391906121f7565b600a5f8282546119639190612245565b909155505063ffffffff811661197c8461193187611e0b565b6001600160e01b031661198f91906121f7565b600b5f82825461199f9190612245565b90915550505b6009805463ffffffff8416600160e01b026001600160e01b036001600160701b03898116600160701b9081026001600160e01b03199095168c83161794909417918216831794859055604080519382169282169290921783529290930490911660208201527f1c411e9a96e071241c2f21f7726b17ae89e3cab4c78be50e062b03a9fffbbad1910160405180910390a1505050505050565b6001600160a01b038381165f8181526002602090815260408083209487168084529482529182902085905590518481527f8c5be1e5ebec7d5bd14f71427d1e84f3dd0314c0f7b2291e5b200ac8c7c3b92591015b60405180910390a3505050565b6001600160a01b0383165f90815260016020526040902054611ac09082611801565b6001600160a01b038085165f908152600160205260408082209390935590841681522054611aee9082611e37565b6001600160a01b038084165f8181526001602052604090819020939093559151908516907fddf252ad1be2c89b69c2b068fc378daa952ba7f163c4a11628f55a4df523b3ef90611a919085815260200190565b5f8060065f9054906101000a90046001600160a01b03166001600160a01b031663017e7e586040518163ffffffff1660e01b8152600401602060405180830381865afa158015611b93573d5f803e3d5ffd5b505050506040513d601f19601f82011682018060405250810190611bb7919061218a565b600c546001600160a01b038216158015945091925090611c60578015611c5b575f611bf1610c016001600160701b0388811690881661179b565b90505f611bfd83611c73565b905080821115611c58575f611c1d611c158484611801565b5f549061179b565b90505f611c3583611c2f86600561179b565b90611e37565b90505f611c428284612177565b90508015611c5457611c548782611ce1565b5050505b50505b611c6b565b8015611c6b575f600c555b505092915050565b5f6003821115611cd25750805f611c8b600283612177565b611c96906001612245565b90505b81811015611ccc57905080600281611cb18186612177565b611cbb9190612245565b611cc59190612177565b9050611c99565b50919050565b8115611cdc575060015b919050565b5f54611ced9082611e37565b5f9081556001600160a01b038316815260016020526040902054611d119082611e37565b6001600160a01b0383165f818152600160205260408082209390935591519091907fddf252ad1be2c89b69c2b068fc378daa952ba7f163c4a11628f55a4df523b3ef90611d619085815260200190565b60405180910390a35050565b5f818310611d7b5781611d7d565b825b9392505050565b6001600160a01b0382165f90815260016020526040902054611da69082611801565b6001600160a01b0383165f9081526001602052604081209190915554611dcc9082611801565b5f9081556040518281526001600160a01b038416907fddf252ad1be2c89b69c2b068fc378daa952ba7f163c4a11628f55a4df523b3ef90602001611d61565b5f61097f600160701b6001600160701b038416612258565b5f611d7d6001600160701b0383168461228a565b5f82611e438382612245565b915081101561097f5760405162461bcd60e51b815260206004820152601460248201527364732d6d6174682d6164642d6f766572666c6f7760601b6044820152606401610476565b6001600160a01b0381168114611e9f575f80fd5b50565b5f805f805f60808688031215611eb6575f80fd5b85359450602086013593506040860135611ecf81611e8b565b9250606086013567ffffffffffffffff80821115611eeb575f80fd5b818801915088601f830112611efe575f80fd5b813581811115611f0c575f80fd5b896020828501011115611f1d575f80fd5b9699959850939650602001949392505050565b5f5b83811015611f4a578181015183820152602001611f32565b50505f910152565b602081525f8251806020840152611f70816040850160208701611f30565b601f01601f19169190910160400192915050565b5f8060408385031215611f95575f80fd5b8235611fa081611e8b565b946020939093013593505050565b5f805f60608486031215611fc0575f80fd5b8335611fcb81611e8b565b92506020840135611fdb81611e8b565b929592945050506040919091013590565b5f8060408385031215611ffd575f80fd5b823561200881611e8b565b9150602083013561201881611e8b565b809150509250929050565b5f60208284031215612033575f80fd5b8135611d7d81611e8b565b5f805f805f805f60e0888a031215612054575f80fd5b873561205f81611e8b565b9650602088013561206f81611e8b565b95506040880135945060608801359350608088013560ff81168114612092575f80fd5b9699959850939692959460a0840135945060c09093013592915050565b602080825260119082015270155b9a5cddd85c158c8e881313d0d2d151607a1b604082015260600190565b60018060a01b038616815284602082015283604082015260806060820152816080820152818360a08301375f81830160a090810191909152601f909201601f19160101949350505050565b5f60208284031215612135575f80fd5b5051919050565b634e487b7160e01b5f52601160045260245ffd5b8181038181111561097f5761097f61213c565b634e487b7160e01b5f52601260045260245ffd5b5f8261218557612185612163565b500490565b5f6020828403121561219a575f80fd5b8151611d7d81611e8b565b5f600182016121b6576121b661213c565b5060010190565b5f82516121ce818460208701611f30565b9190910192915050565b5f602082840312156121e8575f80fd5b81518015158114611d7d575f80fd5b808202811582820484141761097f5761097f61213c565b5f8261221c5761221c612163565b500690565b63ffffffff82811682821603908082111561223e5761223e61213c565b5092915050565b8082018082111561097f5761097f61213c565b6001600160e01b038281168282168181028316929181158285048214176122815761228161213c565b50505092915050565b5f6001600160e01b03838116806122a3576122a3612163565b9216919091049291505056fea26469706673582212206847aa2c116f30ad62335d5f2a7d7d527bfa6966d5aa3866585d1f7c8174993e64736f6c63430008180033608060405234801561000f575f80fd5b5060015f556109d1806100215f395ff3fe608060405260043610610054575f3560e01c80632c4797111461005857806337bdc99b146100a8578063475ce592146100c957806375c254da146100f5578063e4ca961014610108578063ef79a35f14610127575b5f80fd5b348015610063575f80fd5b50610077610072366004610835565b610169565b604080516001600160a01b039095168552602085019390935291830152151560608201526080015b60405180910390f35b3480156100b3575f80fd5b506100c76100c236600461085d565b6101b8565b005b3480156100d4575f80fd5b506100e86100e3366004610874565b6103e0565b60405161009f9190610894565b6100c7610103366004610835565b610483565b348015610113575f80fd5b506100c7610122366004610902565b6105d8565b348015610132575f80fd5b5061015b610141366004610874565b6001600160a01b03165f9081526001602052604090205490565b60405190815260200161009f565b6001602052815f5260405f208181548110610182575f80fd5b5f91825260209091206004909102018054600182015460028301546003909301546001600160a01b039092169450925060ff1684565b6101c06107f2565b335f908152600160205260409020805482106101ef576040516303f6666760e51b815260040160405180910390fd5b5f81838154811061020257610202610943565b5f9182526020909120600490910201600381015490915060ff161561023a576040516331da482760e11b815260040160405180910390fd5b806002015442101561025f57604051633d65368d60e21b815260040160405180910390fd5b60038101805460ff1916600117905580546001600160a01b03166102ec5760018101546040515f9133918381818185875af1925050503d805f81146102bf576040519150601f19603f3d011682016040523d82523d5f602084013e6102c4565b606091505b50509050806102e6576040516312171d8360e31b815260040160405180910390fd5b50610385565b8054600182015460405163a9059cbb60e01b815233600482015260248101919091525f916001600160a01b03169063a9059cbb906044016020604051808303815f875af115801561033f573d5f803e3d5ffd5b505050506040513d601f19601f820116820180604052508101906103639190610957565b905080610383576040516312171d8360e31b815260040160405180910390fd5b505b80546001820154604080516001600160a01b039093168352602083019190915233917f2d87480f50083e2b2759522a8fdda59802650a8055e609a7772cf70c07748f52910160405180910390a250506103dd60015f55565b50565b6001600160a01b0381165f908152600160209081526040808320805482518185028101850190935280835260609492939192909184015b82821015610478575f848152602090819020604080516080810182526004860290920180546001600160a01b03168352600180820154848601526002820154928401929092526003015460ff16151560608301529083529092019101610417565b505050509050919050565b61048b6107f2565b6001600160a01b0382166104b25760405163e99d5ac560e01b815260040160405180910390fd5b345f036104d257604051631f2a200560e01b815260040160405180910390fd5b805f036104f25760405163346ab43760e11b815260040160405180910390fd5b5f6104fd8242610976565b604080516080810182525f80825234602080840182815284860187815260608087018681526001600160a01b038d811680895260018088528b8a2080548083018255908b52888b208c5160049092020180546001600160a01b0319169190941617835595519582019590955592516002840155516003909201805460ff1916921515929092179091558651948552918401929092529382018590529394509092917f967ad762aa9070ada8db64577288e214771e89667066ae38e8750cb8a86c5429910160405180910390a250506105d460015f55565b5050565b6105e06107f2565b6001600160a01b0384166106075760405163e99d5ac560e01b815260040160405180910390fd5b6001600160a01b03821661062e5760405163e99d5ac560e01b815260040160405180910390fd5b825f0361064e5760405163346ab43760e11b815260040160405180910390fd5b805f0361066e57604051631f2a200560e01b815260040160405180910390fd5b5f6106798442610976565b6040516323b872dd60e01b8152336004820152306024820152604481018490529091505f906001600160a01b038516906323b872dd906064016020604051808303815f875af11580156106ce573d5f803e3d5ffd5b505050506040513d601f19601f820116820180604052508101906106f29190610957565b905080610712576040516312171d8360e31b815260040160405180910390fd5b604080516080810182526001600160a01b0386811680835260208084018881528486018881525f60608088018281528f881680845260018088528b852080548083018255908652948890208b5160049096020180546001600160a01b03191695909a1694909417895594519288019290925591516002870155516003909501805460ff19169515159590951790945585519283529082018890529381018690529192917f967ad762aa9070ada8db64577288e214771e89667066ae38e8750cb8a86c5429910160405180910390a25050506107ec60015f55565b50505050565b60025f540361081457604051633ee5aeb560e01b815260040160405180910390fd5b60025f55565b80356001600160a01b0381168114610830575f80fd5b919050565b5f8060408385031215610846575f80fd5b61084f8361081a565b946020939093013593505050565b5f6020828403121561086d575f80fd5b5035919050565b5f60208284031215610884575f80fd5b61088d8261081a565b9392505050565b602080825282518282018190525f919060409081850190868401855b828110156108f557815180516001600160a01b0316855286810151878601528581015186860152606090810151151590850152608090930192908501906001016108b0565b5091979650505050505050565b5f805f8060808587031215610915575f80fd5b61091e8561081a565b9350602085013592506109336040860161081a565b9396929550929360600135925050565b634e487b7160e01b5f52603260045260245ffd5b5f60208284031215610967575f80fd5b8151801515811461088d575f80fd5b8082018082111561099557634e487b7160e01b5f52601160045260245ffd5b9291505056fea264697066735822122046806d4e611fd40a40e74851ff5062e54c6cd56c15dbb3ecd442c2950180f26e64736f6c63430008180033a26469706673582212201644871dc5551074969225fa18f427bb80ec96990dd3bb5e2052a347e3cf9b2364736f6c63430008180033",
    "linkReferences": {}
  },
  "methodIdentifiers": {
    "allPairs(uint256)": "1e3dd18b",
    "allPairsLength()": "574f2ba3",
    "createPair(address,address)": "c9c65396",
    "feeTo()": "017e7e58",
    "feeToSetter()": "094b7415",
    "getPair(address,address)": "e6a43905",
    "getPairDeployer(address)": "4a967b4f",
    "pairDeployer(address)": "d4ca62d8",
    "setFeeTo(address)": "f46901ed",
    "setFeeToSetter(address)": "a2e74af6"
  },
  "id": 1
}