{"abi":[{"type":"function","name":"parameters","inputs":[],"outputs":[{"name":"factory","type":"address","internalType":"address"},{"name":"token0","type":"address","internalType":"address"},{"name":"token1","type":"address","internalType":"address"},{"name":"fee","type":"uint24","internalType":"uint24"},{"name":"tickSpacing","type":"int24","internalType":"int24"},{"name":"deployer","type":"address","internalType":"address"}],"stateMutability":"view"}],"bytecode":{"object":"0x608080604052346100155760b8908161001a8239f35b5f80fdfe60808060405260043610156011575f80fd5b5f3560e01c6389035730146023575f80fd5b34607e575f366003190112607e5760c09060018060a01b03805f54169080600154169060025491816003541693855260208501528116604084015262ffffff8160a01c16606084015260b81c60020b608083015260a0820152f35b5f80fdfea2646970667358221220bdff997d23fbf8b9d7dc14765c199aa573caecac5127e3e6edb36f396d6c1e4664736f6c63430008180033","linkReferences":{}},"methodIdentifiers":{"parameters()":"89035730"},"id":18}