{"abi":[{"type":"constructor","inputs":[],"stateMutability":"nonpayable"},{"type":"function","name":"createPool","inputs":[{"name":"tokenA","type":"address","internalType":"address"},{"name":"tokenB","type":"address","internalType":"address"},{"name":"fee","type":"uint24","internalType":"uint24"}],"outputs":[{"name":"pool","type":"address","internalType":"address"}],"stateMutability":"nonpayable"},{"type":"function","name":"enableFeeAmount","inputs":[{"name":"fee","type":"uint24","internalType":"uint24"},{"name":"tickSpacing","type":"int24","internalType":"int24"}],"outputs":[],"stateMutability":"nonpayable"},{"type":"function","name":"feeAmountTickSpacing","inputs":[{"name":"","type":"uint24","internalType":"uint24"}],"outputs":[{"name":"","type":"int24","internalType":"int24"}],"stateMutability":"view"},{"type":"function","name":"getPool","inputs":[{"name":"","type":"address","internalType":"address"},{"name":"","type":"address","internalType":"address"},{"name":"","type":"uint24","internalType":"uint24"}],"outputs":[{"name":"","type":"address","internalType":"address"}],"stateMutability":"view"},{"type":"function","name":"owner","inputs":[],"outputs":[{"name":"","type":"address","internalType":"address"}],"stateMutability":"view"},{"type":"function","name":"parameters","inputs":[],"outputs":[{"name":"factory","type":"address","internalType":"address"},{"name":"token0","type":"address","internalType":"address"},{"name":"token1","type":"address","internalType":"address"},{"name":"fee","type":"uint24","internalType":"uint24"},{"name":"tickSpacing","type":"int24","internalType":"int24"},{"name":"deployer","type":"address","internalType":"address"}],"stateMutability":"view"},{"type":"event","name":"FeeAmountEnabled","inputs":[{"name":"fee","type":"uint24","indexed":true,"internalType":"uint24"},{"name":"tickSpacing","type":"int24","indexed":true,"internalType":"int24"}],"anonymous":false},{"type":"event","name":"PoolCreated","inputs":[{"name":"token0","type":"address","indexed":true,"internalType":"address"},{"name":"token1","type":"address","indexed":true,"internalType":"address"},{"name":"fee","type":"uint24","indexed":true,"internalType":"uint24"},{"name":"tickSpacing","type":"int24","indexed":false,"internalType":"int24"},{"name":"pool","type":"address","indexed":false,"internalType":"address"}],"anonymous":false}],"bytecode":{"object":"0x60a080604052346100aa57306080523360018060a01b0319600454161760045560c86101f4805f52600560205260405f209062ffffff1991600a83825416179055600a7fc66a3fdf07232cdd185febcc6579d408c241b47ae2f9907d84be655141eeaecc91825f80a3603c610bb8805f5260405f208285825416179055825f80a361271091825f528360405f20918254161790555f80a361641390816100af823960805181609a0152f35b5f80fdfe608060409080825260049081361015610016575f80fd5b5f3560e01c9081631698ee82146104385750806322afcccb1461040257806389035730146103a15780638a7c195f146102f45780638da5cb5b146102cc5763a167129514610062575f80fd5b346102c25760603660031901126102c25761007b61049a565b916100846104b0565b61008c6104c6565b6001600160a01b03949091907f0000000000000000000000000000000000000000000000000000000000000000861630036102c257808616908287168281146102c257879210156102c6575b1680156102c25762ffffff831692835f5260209660058852855f2054968760020b9283156102c257845f5260068a5282885f20961695865f528a52875f20875f528a5282885f2054166102c257875167ffffffffffffffff919060c08101838111828210176102af578a52308152868c820152878a82015288606082015285608082015260a0339101526bffffffffffffffffffffffff60a01b99308b5f5416175f55868b6001541617600155876002549160b81b62ffffff60b81b169262ffffff60a01b9060a01b169165ffffffffffff60d01b161717176002553389600354161760035587518a810191868352878a830152886060830152606082526080820192828410828511176102af57838b528251902093615ef39081840192608084019086821091111761029c5750620004eb843903905ff58015610292579186917f783cca1c0412dd0d695e784568c96da2e9c22ff989357a2e8b1d9b2b4e6b7118931697845f5260068a52825f20865f528a52825f20875f528a52825f208982825416179055855f5260068a52825f20855f528a52825f20875f528a5288835f209182541617905581519081528789820152a451908152f35b86513d5f823e3d90fd5b604190634e487b7160e01b5f525260245ffd5b604185634e487b7160e01b5f525260245ffd5b5f80fd5b916100d8565b5090346102c2575f3660031901126102c257905490516001600160a01b039091168152602090f35b5090346102c257806003193601126102c25761030e6104d8565b602435908160020b938483036102c257546001600160a01b031633036102c25762ffffff80911692620f42408410156102c2575f851380610396575b156102c257835f5260056020525f20918254918260020b6102c257169062ffffff19161790557fc66a3fdf07232cdd185febcc6579d408c241b47ae2f9907d84be655141eeaecc5f80a3005b50614000851261034a565b82346102c2575f3660031901126102c25760c09060018060a01b0390815f541691806001541691600254918060035416938251958652602086015282169084015262ffffff8160a01c16606084015260b81c60020b608083015260a0820152f35b82346102c25760203660031901126102c25760209062ffffff6104236104d8565b165f5260058252805f205460020b9051908152f35b8390346102c25760603660031901126102c25760209161045661049a565b9061045f6104b0565b6104676104c6565b6001600160a01b039384165f90815260068752838120928516815291865282822062ffffff909116825285522054168152f35b600435906001600160a01b03821682036102c257565b602435906001600160a01b03821682036102c257565b6044359062ffffff821682036102c257565b6004359062ffffff821682036102c25756fe6101808060405234620002f65730608052630890357360e41b815260c090600482828281335afa91821562000315575f925f935f945f955f945f9462000252575b5061012093845261010096875260e052865260a052610140918083528060020b9081156200023f576200008b6200007e8284620d89e7190562000335565b9183620d89e80562000335565b60020b9060020b9003627fffff1990627fffff8113828212176200022c5760020b9081145f19831416620002195762ffffff91900581166001018181116200021957169283156200020657506101609260018060801b0304835260405193615b91958662000362873960805186613d97015260a0518681816104b201528181610fd0015261126901525185818161116d01528181611646015281816119fb01528181613658015281816138620152614fcc015260e05185818161042d015281816110f9015281816115fd015281816119cb015281816135900152614f4c0152518481816103ac015281816117060152818161286401528181612ce40152612d12015251836103e701525182818161047501528181610cd901528181610d080152818161225701528181612286015281816126730152818161278c0152818161308901528181613217015281816132d10152613323015251818181610c5a01528181610c92015281816113c4015281816121d8015261220b0152f35b601290634e487b7160e01b5f525260245ffd5b601185634e487b7160e01b5f525260245ffd5b601186634e487b7160e01b5f525260245ffd5b601285634e487b7160e01b5f525260245ffd5b96505050505050823d84116200030d575b601f8101601f191683016001600160401b03811184821017620002fa578491849160405281010312620002f6576200029b8262000320565b620002a96020840162000320565b620002b76040850162000320565b9060608501519162ffffff83168303620002f6576080860151958660020b8703620002f65760a0620002ea910162000320565b92959391905f62000040565b5f80fd5b604183634e487b7160e01b5f525260245ffd5b503d62000263565b6040513d5f823e3d90fd5b51906001600160a01b0382168203620002f657565b9060020b9060020b02908160020b9182036200034d57565b634e487b7160e01b5f52601160045260245ffdfe610180806040526004361015610013575f80fd5b5f60e0525f3560e01c9081630dfe16811461385057508063128acb08146124a25780631a6865021461247a5780631ad8b03b14612447578063252c09d7146123ec57806332148f67146123205780633850c7bd146122b05780633c8a7d8d14611a6c5780634614131914611a4d578063490e6cbc146116815780634f1eb3d814611486578063514ea4bf146114215780635339c296146113e857806370cf754a146113a35780638206a4d1146111fc57806385b6672914610f56578063883bdbfd14610d36578063a34123a71461053c578063a38807f2146104e1578063c45a01551461049b578063d0c93a7c1461045c578063d21220a714610416578063d5f39488146103d0578063ddca3f431461038f578063f305839914610370578063f30dba93146102d45763f637731d1461014a575f80fd5b346102ce576020806003193601126102ce57610164613891565b60e051546001600160a01b03919082166102a45790817f98636036cb66a9c19a37435efc1e90142190214e8abeb821bdba3f2990dd4c95936101a760409461468d565b9263ffffffff42166001606087516101be8161395e565b83815260e080518783015280518a83015291019190915251605881901b600160581b600160f81b031690841b6affffffffffffff000000001690911717600160f81b1760085584519261021084613930565b1692838352600160c08260020b94858582015260e0518882015282606082015282608082015260e05160a08201520152630100000160d81b9063ffffffff60d81b1990600160c81b908664ffffffffff60d81b5f5416179062ffffff60a01b9060a01b161761ffff60b81b60e05160b81b1617171660ff60e81b60e05160e81b1617175f558351928352820152a160e05180f35b60405162461bcd60e51b8152600481018490526002602482015261414960f01b6044820152606490fd5b60e05180fd5b346102ce5760203660031901126102ce576102ed6138f4565b60020b60e051526005602052610100604060e051208054906001810154906003600282015491015491604051936001600160801b038116855260801d600f0b6020850152604084015260608301528060060b608083015260018060a01b038160381c1660a083015263ffffffff8160d81c1660c083015260f81c151560e0820152f35b346102ce5760e0513660031901126102ce576020600154604051908152f35b346102ce5760e0513660031901126102ce57602060405162ffffff7f0000000000000000000000000000000000000000000000000000000000000000168152f35b346102ce5760e0513660031901126102ce576040517f00000000000000000000000000000000000000000000000000000000000000006001600160a01b03168152602090f35b346102ce5760e0513660031901126102ce576040517f00000000000000000000000000000000000000000000000000000000000000006001600160a01b03168152602090f35b346102ce5760e0513660031901126102ce5760206040517f000000000000000000000000000000000000000000000000000000000000000060020b8152f35b346102ce5760e0513660031901126102ce576040517f00000000000000000000000000000000000000000000000000000000000000006001600160a01b03168152602090f35b346102ce5760403660031901126102ce57606063ffffffff61051a6105046138f4565b61050c6138d4565b90610515613d95565b613c55565b906040939293519360060b845260018060a01b03166020840152166040820152f35b346102ce5760603660031901126102ce576105556138f4565b60c0526105606138d4565b61056861391a565b60e051549161057c60ff8460f01c16613a34565b60e05160ff60f01b19841690556001600160801b038216600f81900b908103610d32576105a890613aec565b92604051936105b68561395e565b33855260c05160020b60208601528260020b6040860152600f0b60608501526105dd613d95565b60e05161012081905260c0516105fa90600285810b91900b61513b565b6106026139d0565b60018060a01b0386511695602081015160020b93604082015160020b9061063e82876060860151600f0b9b602088015160020b610160526150ca565b610100526001546101405260025460e0519687929091908b80610c0a575b50506106e5906106d461067a8460020b5f52600560205260405f2090565b916106d96106938860020b5f52600560205260405f2090565b60e05160a052610160518713610be3576002600186015495015460a0525b61016051891315610bbb576106d460026001830154920154955b61014051613ac4565b613ac4565b60805260a05190613ac4565b966040519a6106f38c613979565b61010051549b6001600160801b038d16815260016101005101546020820152600261010051015460408201526003610100510154906001600160801b03821660608201528160801c608082015260e0515082155f14610b9b576001600160801b0381511615610b715760409d6108049b6001600160801b03835116915b6001600160801b036107b48161079961078f6020890151608051613ac4565b8289511690614569565b169560406107ab849183015187613ac4565b91511690614569565b169286610b50575b5050608051600161010051015560026101005101558115801590610b47575b610b06575b50505060e05113610a97575b505050506060810151600f0b610907575b5050613b29565b9161081161012051613b29565b9183158015906108fe575b61088b575b6001600160801b03855192168252836020830152828583015260020b9060c05160020b907f0c396cd989a39f4459b5fa1aed6a9a8dcdbc45908acfd67e028cd568da98982c60603392a460e051805460ff60f01b1916600160f01b17905582519182526020820152f35b6001600160801b0360036101005101546108dd6108bc6108af848916858516613ad1565b928488169060801c613ad1565b60036101005101906001600160801b0382549181199060801b169116179055565b166001600160801b0319600361010051015416176003610100510155610821565b5082151561081c565b9091602083015160020b602083015160020b908181125f1461096057505050610959915061093b602082015160020b613e8d565b90606061094d8883015160020b613e8d565b910151600f0b91615653565b85806107fd565b8389015160020b1315610a60575050610a496001600160801b039160608360045416916109b461ffff808c89015116908560208a015160020b82878c0151169260808c0151169363ffffffff421690614d34565b9060e051549061ffff60b81b9060b81b169161ffff60c81b9060c81b169063ffffffff60b81b1916171760e05155610a3a610a0e60018060a01b03885116610a018d85015160020b613e8d565b85850151600f0b91615653565b96610a1f602084015160020b613e8d565b905184840151600f0b916001600160a01b03909116906155f4565b610120520151600f0b90614c5d565b166001600160801b03196004541617600455610959565b610a8e92919350610a7090613e8d565b906060610a828983015160020b613e8d565b910151600f0b916155f4565b61012052610959565b610ad8575b50610aaa575b8080806107ec565b610ad29060020b5f5260056020525f6003604082208281558260018201558260028201550155565b87610aa2565b610b009060020b5f5260056020525f6003604082208281558260018201558260028201550155565b89610a9c565b826001600160801b03610b216108bc9482610b3f9716613ad1565b16906001600160801b0319161780600361010051015560801c613ad1565b8c80806107e0565b508015156107db565b6001600160801b0316906001600160801b0319161761010051555f806107bc565b60405162461bcd60e51b815260206004820152600260248201526104e560f41b6044820152606490fd5b60409d6108049b610bb5856001600160801b038416614c5d565b91610770565b6106d4610bdd6002610bd4600185015461014051613ac4565b93015485613ac4565b956106cb565b610c026002610bf9600188015461014051613ac4565b96015484613ac4565b60a0526106b1565b935097506106e590610cc1610c5063ffffffff42169a6001600160801b0360045416906bff00ffffffffffffffffffff61ffff8260b81c169160a01c1660020b8d614a6e565b95909a610c8c8c827f0000000000000000000000000000000000000000000000000000000000000000918a8861014051888d61016051906158b5565b9b8c97857f0000000000000000000000000000000000000000000000000000000000000000946101405190610160518d615a2b565b8094610d03575b610cd4575b908b61065c565b610cfe7f000000000000000000000000000000000000000000000000000000000000000086615b20565b610ccd565b610d2d7f000000000000000000000000000000000000000000000000000000000000000085615b20565b610cc8565b5f80fd5b346102ce576020806003193601126102ce57600435906001600160401b038083116102ce57366023840112156102ce5782600401359081116102ce5760248160051b840101923684116102ce57610d8b613d95565b63ffffffff938442169060e05154918260a01c60020b9061ffff92838560b81c16936001600160801b03600454169560c81c1695610dc888613bea565b97610dd6604051998a6139af565b88526024018888015b828210610f3e57505050610df4851515614ff5565b855197610e19610e038a613bea565b99610e116040519b8c6139af565b808b52613bea565b8989019790601f19908101368a37815198610e4c610e368b613bea565b9a610e446040519c8d6139af565b808c52613bea565b8a8c01920136833760e0515b8c8451821015610eb457908b610ea882600194818f8f8f918f918f938f938f95610e9195610e8989610e9999615127565b511690614add565b929096615127565b90878060a01b03169052615127565b9060060b905201610e58565b8b90848e856040519485946040860190604087525180915260608601929060e0515b818110610f2457505050829085830382870152519182815201929160e0515b828110610f0457505050500390f35b83516001600160a01b031685528695509381019392810192600101610ef5565b825160060b85528897509385019391850191600101610ed6565b81358b811681036102ce578152908901908901610ddf565b346102ce5760603660031901126102ce57610f6f613891565b602435906001600160801b0380831691828403610d3257610f8e61391a565b9260e0515492610fa360ff8560f01c16613a34565b60e05160ff60f01b199485169055604051638da5cb5b60e01b81526001600160a01b0392906020816004817f000000000000000000000000000000000000000000000000000000000000000088165afa80156111ef57849160e051916111c0575b501633036102ce5760035496828816918210156111ba575080965b8796608082901c908481168210156111b25750915b829884811680611141575b50505050818116806110bf575b5050604080516001600160801b03878116825288166020820152929093169233927f596b573906218d3411850b26a6b437d6c4522fdb43d2d2386263f86d50b8b1519250a360e051805491909116600160f01b179055604080516001600160801b03928316815292909116602083015290f35b600354918260801c809214611125575b50908261111d93926110ea8a6001600160801b031992613b9d565b60801b169116176003558616837f0000000000000000000000000000000000000000000000000000000000000000614e6d565b85808061104c565b83929198509261113761111d94613bd5565b98919293506110cf565b821461119a575b50611154888592613b9d565b16906001600160801b03191617600355611191828716857f0000000000000000000000000000000000000000000000000000000000000000614e6d565b8780808061103f565b849198506111aa61115491613bd5565b989150611148565b905091611034565b9661101f565b6111e2915060203d6020116111e8575b6111da81836139af565b810190613bb6565b89611004565b503d6111d0565b6040513d60e051823e3d90fd5b346102ce5760403660031901126102ce5760043560ff8116809103610d325760243560ff811691828203610d325760e051549161123e60ff8460f01c16613a34565b60e05160ff60f01b1984169055604051638da5cb5b60e01b81526001600160a01b03906020816004817f000000000000000000000000000000000000000000000000000000000000000086165afa9081156111ef5760e05191611384575b501633036102ce578115801561136d575b8061134e575b156102ce5760041b60f01681019260ff841161133a577f973d8d92bb299f4af6ce49b52a8adb85ae46b9f214c4c4fc06ac77401237b1339160809160405191600f8660e81c168352600f8660ec1c16602084015260408301526060820152a160e05161ffff60e81b1990911660e89290921b60ff60e81b1691909117600160f01b17815580f35b634e487b7160e01b5f52601160045260245ffd5b508315806112b35750600484101580156112b35750600a8411156112b3565b50600482101580156112ad5750600a8211156112ad565b61139d915060203d6020116111e8576111da81836139af565b8661129c565b346102ce5760e0513660031901126102ce5760206040516001600160801b037f0000000000000000000000000000000000000000000000000000000000000000168152f35b346102ce5760203660031901126102ce576004358060010b8091036102ce5760e0515260066020526020604060e0512054604051908152f35b346102ce5760203660031901126102ce5760043560e05152600760205260a0604060e051206001600160801b039081815416916001820154916003600282015491015492604051948552602085015260408401528116606083015260801c6080820152f35b346102ce5760a03660031901126102ce5761149f613891565b6114a76138d4565b906114b06138e4565b916114b9613904565b90608435926001600160801b039485851695868603610d325760e05154946114e660ff8760f01c16613a34565b60e05160ff60f01b19968716905560036115018487336150ca565b0191825498818a169260e0515083838216115f1461167b575082985b60808b901c918210156116735750985b81808a16938a85611627575b50505050881691826115bb575b506040519360018060a01b031684526020840152604083015260020b9160020b907f70935338e69775456a85ddef226c395fb668b63fa0115f5f20610b388e6ca9c060603392a460e051805491909116600160f01b179055604080516001600160801b03928316815292909116602083015290f35b806115cd8a6115f6935460801c613b9d565b81546001600160801b031660809190911b6fffffffffffffffffffffffffffffffff1916179055565b61162182857f0000000000000000000000000000000000000000000000000000000000000000614e6d565b88611546565b61163091613b9d565b16906001600160801b03191617835561166a82867f0000000000000000000000000000000000000000000000000000000000000000614e6d565b8981818a611539565b90509861152d565b9861151d565b346102ce5760803660031901126102ce5761169a613891565b602435604435916064356001600160401b0381116102ce576116c09036906004016138a7565b9060e05154946116d560ff8760f01c16613a34565b60e05160ff60f01b1996871690556116eb613d95565b6001600160801b03928360045416908115611a245762ffffff7f0000000000000000000000000000000000000000000000000000000000000000169361173b611734868a61507e565b958561507e565b611743614fa1565b9261174c614f21565b928a6119f4575b866119c4575b333b156102ce576117849160405180938192630e9cbafb60e41b835260e05194878d60048601613b39565b038160e051335af180156111ef576119ae575b506117a0614fa1565b906117b36117ac614f21565b9785613a81565b8481106102ce578210611984576117ca9083613a81565b8281106102ce57861061195a576117ea926117e491613ac4565b94613ac4565b93836118db575b84611850575b505060405194855260208501526040840152606083015260018060a01b0316907fbdbdb71d7860376ba52b25a5028beea23581364a40522f6bcfb86bb1f2dca63360803392a360e0518054909116600160f01b17815580f35b6118969161188961188e92600f60e0515460ec1c1660e0515080155f146118cb575060e051905b80821690816118a0575b505087613ac4565b61443a565b600254613a81565b60025586806117f7565b600354916118ba6001600160801b0319918460801c613ad1565b60801b169116176003558b80611881565b6118d59089613aa6565b90611877565b60e05154829060e81c600f1680611941575061190b6119139161188960e0515b8581168061191b575b5088613ac4565b600154613a81565b6001556117f1565b8661192b60035492828416613ad1565b16906001600160801b031916176003558d611904565b6119139161188961195561190b9389613aa6565b6118fb565b60405162461bcd60e51b8152602060048201526002602482015261463160f01b6044820152606490fd5b60405162461bcd60e51b8152602060048201526002602482015261046360f41b6044820152606490fd5b6119b79061394b565b60e0516102ce578a611797565b6119ef878b7f0000000000000000000000000000000000000000000000000000000000000000614e6d565b611759565b611a1f8b8b7f0000000000000000000000000000000000000000000000000000000000000000614e6d565b611753565b60405162461bcd60e51b81526020600482015260016024820152601360fa1b6044820152606490fd5b346102ce5760e0513660031901126102ce576020600254604051908152f35b346102ce5760a03660031901126102ce57611a85613891565b611a8d6138d4565b90611a966138e4565b91611a9f613904565b906084356001600160401b0381116102ce57611abf9036906004016138a7565b93909260e0515493611ad660ff8660f01c16613a34565b60e05160ff60f01b19861690556001600160801b038216156102ce576001600160801b038216600f81900b03610d325760405195611b138761395e565b6001600160a01b0384168752600285810b602089015288900b60408801526001600160801b038316600f0b6060880152611b4b613d95565b60e051968796611b6260028b810b9089900b61513b565b611b6a6139d0565b9060018060a01b0383511690602084015160020b604085015160020b926060860151600f0b611ba28584602089015160020b946150ca565b60015460025460e0519687959193929190899086612180575b50611c259291611c1f6106d4926106d4611be08c60020b5f52600560205260405f2090565b611bf58360020b5f52600560205260405f2090565b928d861261215e5760026001830154920154955b121561213c576002600184015493015496613ac4565b95613ac4565b91604051611c3281613979565b8254936001600160801b038516825260018401546020830152600284015460408301526003840154926001600160801b03841660608401528360801c608084015260e0515086155f14612123576001600160801b0383511615610b71576001600160801b03835116955b6001600160801b03611cca81611cb961078f602089015187613ac4565b1695826107ab604083015188613ac4565b169688612105575b50506001850155600284015580158015906120fc575b61209f575b5050505060e05113612030575b505050506060820151600f0b611eb8575b505060e0519182919088611ea8575b87611e98575b333b156102ce57611d4d918991604051938492839263d348799760e01b84528c60e0519660048601613b39565b038160e051335af180156111ef57611e82575b5086611e34575b5084611de6575b507f7a53080ba414158be7ec69b987b5fb7d07dee101fe85488f0853ae16239d0bde60806040976001600160801b03895194338652166020850152878985015286606085015260020b9460020b9360018060a01b031692a460e051805460ff60f01b1916600160f01b17905582519182526020820152f35b611df08582613a81565b9081106102ce57611dff614f21565b10611e0a5786611d6e565b60405162461bcd60e51b81526020600482015260026024820152614d3160f01b6044820152606490fd5b611e3e8782613a81565b9081106102ce57611e4d614fa1565b10611e585787611d67565b60405162461bcd60e51b815260206004820152600260248201526104d360f41b6044820152606490fd5b611e8b9061394b565b60e0516102ce5788611d60565b9250611ea2614f21565b92611d20565b9150611eb2614fa1565b91611d1a565b909197602082015160020b602084015160020b908181125f14611f09575050505080611eed6020611f0093015160020b613e8d565b90606061094d604083015160020b613e8d565b955b8880611d0b565b90919299939850604089015160020b135f146120065750506001600160801b03611fef8160045416611f6561ffff8b838260408301511692602083015160020b90608081606086015116940151169363ffffffff421690614d34565b9060e051549061ffff60b81b9060b81b169161ffff60c81b9060c81b169063ffffffff60b81b1916171760e051556060611fe3611fb760018060a01b038d51168c8461094d604083015160020b613e8d565b9b611fc860208d015160020b613e8d565b9051838d0151600f0b916001600160a01b03909116906155f4565b990151600f0b90614c5d565b166001600160801b03196004541617600455611f02565b61202a929791985061201790613e8d565b906060610a82604083015160020b613e8d565b94611f02565b612071575b50612043575b808080611cfa565b61206b9060020b5f5260056020525f6003604082208281558260018201558260028201550155565b8a61203b565b6120999060020b5f5260056020525f6003604082208281558260018201558260028201550155565b8c612035565b6120f393826001600160801b036120bd6120d7948260039716613ad1565b16906001600160801b03191617808486015560801c613ad1565b9101906001600160801b0382549181199060801b169116179055565b8f808080611ced565b50831515611ce8565b6001600160801b0316906001600160801b0319161785555f80611cd2565b612136876001600160801b038816614c5d565b95611c9c565b612158600261214f60018601548a613ac4565b9401548b613ac4565b96613ac4565b61217a600261217160018501548b613ac4565b9301548c613ac4565b95611c09565b6106d491995061223c9750916121ca611c2594936001600160801b0360045416906bff00ffffffffffffffffffff61ffff8260b81c169160a01c1660020b63ffffffff4216614a6e565b612206898c84848c969e968a7f0000000000000000000000000000000000000000000000000000000000000000958a63ffffffff4216966158b5565b9b8c9a7f0000000000000000000000000000000000000000000000000000000000000000928a888d8863ffffffff421696615a2b565b809a612281575b612252575b91928a9150611bbb565b61227c7f00000000000000000000000000000000000000000000000000000000000000008c615b20565b612248565b6122ab7f00000000000000000000000000000000000000000000000000000000000000008b615b20565b612243565b346102ce5760e0513660031901126102ce5760e080515460ff61ffff916040519260018060a01b03821684528160a01c60020b6020850152808260b81c166040850152808260c81c1660608501528160d81c166080840152818160e81c1660a084015260f01c16151560c0820152f35b346102ce5760203660031901126102ce5761ffff60043581811681036102ce576123778260e0515461235760ff8260f01c16613a34565b60e05160ff60f01b198216905561236c613d95565b60d81c169182615025565b9182169060e05154918082036123b5575b505060e05163ff00ffff60d81b1990911660d89290921b61ffff60d81b1691909117600160f01b17815580f35b7fac49e518f90a358f652e4400164f05a5d8f7e35e7747279bc3a93dbf584e125a9160409182519182526020820152a18280612388565b346102ce5760203660031901126102ce5760043561ffff8110156102ce57608090600801546040519063ffffffff811682528060201c60060b602083015260018060a01b038160581c16604083015260f81c15156060820152f35b346102ce5760e0513660031901126102ce57600354604080516001600160801b038316815260809290921c602083015290f35b346102ce5760e0513660031901126102ce5760206001600160801b0360045416604051908152f35b34610d325760a0366003190112610d32576124bb613891565b602435151560243503610d32576064356001600160a01b0381169003610d32576084356001600160401b038111610d32576124fa9036906004016138a7565b612502613d95565b60443515613826576125126139d0565b9161252260c08401511515613a34565b602435156137e45782516001600160a01b0390811660643590911610806137cb575b156137a0575f805460ff60f01b191690556004546001600160801b0316936024351561378f57600f60a085015116925b604051938460c08101106001600160401b0360c08701111761377b5760ff9060c0860160405216845285602085015263ffffffff421660408501525f60608501525f60808501525f60a085015260018060a01b038551169560208601516024355f1461377257600154905b604051986125ec8a613930565b6044358a525f60208b015260408a015260020b606089015260808801525f60a088015260c08701525b8551151580613755575b156133535760405161263081613930565b5f81525f60208201525f60408201525f60608201525f60808201525f60a08201525f60c082015260018060a01b036040880151168152606087015160020b6126987f000000000000000000000000000000000000000000000000000000000000000082613dc7565b905f8112908161331c575b50613303575b602435156130b8576126cb8160020b9060ff6101008360081d60010b93071690565b9190600160ff84161b5f1981011161133a576127056126f3600160ff86161b5f198101613a81565b9160010b5f52600660205260405f2090565b54168015801593919061307d57805f918015610d3257600160801b81101561306e575b5068010000000000000000811015613051575b640100000000811015613034575b62010000811015613018575b610100811015612ffc575b6010811015612fdf575b6004811015612fc2575b60021115612faa575b6127c09260ff6127b16127bb937f000000000000000000000000000000000000000000000000000000000000000095613e34565b1660020b90613b0c565b613e48565b905b1515604083015260020b60208201819052620d89e7199081811215612f8b575060208201525b60208101516001600160a01b03906128029060020b613e8d565b166060820181905260408801516001600160a01b03169060243515612f78576064356001600160a01b031681105b15612f7357506064355b6001600160801b0360c08a0151169089515f805f8312155f14612e8e575061288f62ffffff6128887f0000000000000000000000000000000000000000000000000000000000000000614388565b16836143d6565b906001600160a01b0384168610612e7d576128ab8587866151ce565b915b828110612e01575083945b6001600160a01b038681169790861680891494908210612da6578480612d9c575b15612d8b575b96879480612d82575b15612d73575050505b925b5f831280612d62575b612d51575b5f8312159081612d3d575b5015612cda5761291b91613ac4565b60c085015260a0840152608083015260408801525f6044351315612c865761294c608082015160c083015190613a81565b600160ff1b9081811015610d3257612965908951613a8e565b885260208801519060a083015190811015610d3257612983916143ba565b60208801525b60ff85511680612c40575b506001600160801b0360c08801511680612c1a575b50604087015160608201516001600160a01b0391821691168103612beb57506040810151612a10575b60243515612a04576020015160020b5f1901627fffff198112627fffff82131761133a575b60020b6060870152612615565b6020015160020b6129f7565b60a085015115612b95575b6001600160801b03612b5d602083015160020b6024355f14612b8557612b4588612b2560808d0151935b8d60243515612b76575063ffffffff6002545b612b0360018060a01b0360808701511695606081015192612a8d8560406006940151169660020b5f52600560205260405f2090565b99612a9e60018c0191825490613ac4565b9055612ab060028b0191825490613ac4565b9055612af6612ad060038b019860018060a01b038a5460381c1690613c26565b8854600160381b600160d81b03191660389190911b600160381b600160d81b0316178855565b86549283820b910b613c01565b66ffffffffffffff169066ffffffffffffff19161780855560d81c1690613c3f565b815463ffffffff60d81b191660d89190911b63ffffffff60d81b16179055565b5460801d602435612b68575b8260c08b015116614c5d565b1660c08801526129d2565b612b7190613aec565b612b51565b608063ffffffff910151612a58565b612b4588612b2560015493612a45565b612bc963ffffffff604087015116602088015160020b61ffff60408a015116906001600160801b0360208a01511692614a6e565b6001600160a01b0316608087015260060b6060860152600160a0860152612a1b565b90516001600160a01b03168103612c03575b50612615565b612c0c9061468d565b60020b606087015286612bfd565b612c2b612c359160c084015161443a565b6080890151613a81565b6080880152876129a9565b612c7a6001600160801b03612c5a819360c0860151613aa6565b612c688160c0870151613ac4565b60c0860152168260a08b015116613ad1565b1660a088015287612994565b60a0810151600160ff1b9081811015610d3257612ca4908951613a66565b8852602088015190612cbf608084015160c085015190613a81565b90811015610d3257612cd09161439e565b6020880152612989565b5050612d38612d087f0000000000000000000000000000000000000000000000000000000000000000614388565b62ffffff809116907f000000000000000000000000000000000000000000000000000000000000000016846150ae565b61291b565b6001600160a01b031686141590508d61290c565b9250612d5c82613b29565b92612901565b50612d6c83613b29565b84116128fc565b612d7d9350615226565b6128f1565b505f86126128e8565b50612d978282896151ce565b6128df565b505f8612156128d9565b9096908480612df7575b15612de6575b96879480612ddd575b15612dce575050505b926128f3565b612dd8935061517a565b612dc8565b505f8612612dbf565b50612df2828289615260565b612db6565b505f861215612db0565b8615610d32578515610d32576001600160a01b0385168710612e2e57612e289086886157a5565b946128b8565b612e5390866001600160a01b038211612e6f57612e4d9160601b613aa6565b87613a81565b868110610d32576001600160a01b038116908114612e28575f80fd5b612e7891614620565b612e4d565b612e88858588615260565b916128ad565b90506001600160a01b0383168510612f6357612eab848685615226565b80612eb584613b29565b10612ec15783946128b8565b612eca83613b29565b8615610d32578515610d32576001600160a01b0385168710612f53576001600160a01b038111612f235760601b8580820615159104015b80871115610d32576001600160a01b0390612f1c9088613ac4565b16946128b8565b85612f2e8183614620565b91600160601b900915612f01575f1980821015610d3257811461133a57600101612f01565b612f5e908688615730565b612e28565b612f6e84848761517a565b612eab565b61283a565b6064356001600160a01b03168111612830565b9050620d89e8809113612f9f575b506127e8565b602082015287612f99565b60ff6001818316011161133a5760ff1660010161277d565b60021c9060ff6002818316011161133a5760ff1660020190612774565b60041c9060ff6004818316011161133a5760ff166004019061276a565b600890811c9160ff82818316011161133a5760ff160190612760565b601090811c9160ff82818316011161133a5760ff160190612755565b60201c9060ff6020818316011161133a5760ff1660200190612749565b60401c9060ff6040818316011161133a5760ff166040019061273b565b91505060801c6080908c612728565b506127bb6130b39260ff7f0000000000000000000000000000000000000000000000000000000000000000931660020b90613b0c565b6127c0565b6130da6130c482613dfb565b60020b9060ff6101008360081d60010b93071690565b90600160ff83161b805f1981011161133a57613106905f1901199160010b5f52600660205260405f2090565b54168015801593906132ae5761311b90613dfb565b91818015610d325760ff906001600160801b038116156132a4575050607f5b6001600160401b0383161561329a5760ff818116603f19011161133a5760ff16603f19015b63ffffffff8316156132905760ff818116601f19011161133a5760ff16601f19015b61ffff8316156132865760ff818116600f19011161133a5760ff16600f19015b60ff83161561327c5760ff818116600719011161133a5760ff16600719015b600f8316156132725760ff818116600319011161133a5760ff16600319015b60038316156132665760ff818116600119011161133a5760ff1660011901916001905b1661324c575b6132469260ff61323c6127bb937f000000000000000000000000000000000000000000000000000000000000000095613e34565b1660020b90613e16565b906127c2565b9060ff8082165f19011161133a5760ff165f190190613208565b9160019060021c613202565b9160041c916131df565b9160081c916131c0565b9160101c916131a1565b9160201c91613181565b9160401c9161315f565b60801c925061313a565b6132b89150613dfb565b9060ff80821681031161133a576127bb6132fe9260ff807f0000000000000000000000000000000000000000000000000000000000000000941681031660020b90613e16565b613246565b627fffff198160020b1461133a5760020b5f19016126a9565b61334891507f000000000000000000000000000000000000000000000000000000000000000090613de9565b60020b1515896126a3565b856001600160801b0360208688606085015160020b8382015160020b809114155f1461372b576133ad9161ffff806040830151169263ffffffff604087015116888888015116926080816060870151169501511694614d34565b60018060a01b03604087015116916060870151915f549061ffff60c81b9060c81b169064ffffffffff60d81b16179061ffff60b81b9060b81b16179062ffffff60a01b9060a01b1617175f555b0151166001600160801b0360c083015116809103613714575b50602435156136c75760808101516001556001600160801b0360a0820151168061369a575b505b60243515155f6044351303613681576134568151604435613a8e565b926020820151925b602435156135b95760e0518412613581575b613478614fa1565b95333b156102ce576134a4916040518093819263fa461e3360e01b835260e05194898b60048601613b39565b038160e051335af180156111ef5761356b575b506134c28486613a81565b9485106102ce576134de6040956134d7614fa1565b1015613b6b565b60018060a01b0385830151169160606001600160801b0360c08301511691015160020b90865193868552856020860152878501526060840152608083015260018060a01b0316907fc42079f94a6350d7e6235f29174924f928cc2ac818eb64fed8004e115fbcca6760a03392a360e051805460ff60f01b1916600160f01b17905582519182526020820152f35b6135749061394b565b60e0516102ce57856134b7565b6135b461358d85613b29565b837f0000000000000000000000000000000000000000000000000000000000000000614e6d565b613470565b5f8512613649575b6135c9614f21565b95333b15610d325760405163fa461e3360e01b8152915f91839182916135f59190898b60048601613b39565b038183335af1801561363e5761362b575b506136118386613a81565b9485106102ce576136266040956134d7614f21565b6134de565b6136349061394b565b5f60e05285613606565b6040513d5f823e3d90fd5b61367c61365586613b29565b837f0000000000000000000000000000000000000000000000000000000000000000614e6d565b6135c1565b6020810151926136948251604435613a8e565b9261345e565b6001600160801b036136b160035492828416613ad1565b16906001600160801b0319161760035584613438565b60808101516002556001600160801b0360a082015116806136e9575b5061343a565b6001600160801b03600354916137048219918460801c613ad1565b60801b16911617600355846136e3565b6001600160801b0319600454161760045584613413565b505060018060a01b036040850151166bffffffffffffffffffffffff60a01b5f5416175f556133fa565b5060408601516064356001600160a01b039081169116141561261f565b600254906125df565b634e487b7160e01b5f52604160045260245ffd5b600f60a085015160041c1692612574565b60405162461bcd60e51b815260206004820152600360248201526214d41360ea1b6044820152606490fd5b506401000276a36064356001600160a01b031611612544565b82516001600160a01b03908116606435909116118015612544575073fffd8963efd1fc6a506488495d951d5263988d266064356001600160a01b031610612544565b60405162461bcd60e51b8152602060048201526002602482015261415360f01b6044820152606490fd5b34610d32575f366003190112610d32577f00000000000000000000000000000000000000000000000000000000000000006001600160a01b03168152602090f35b600435906001600160a01b0382168203610d3257565b9181601f84011215610d32578235916001600160401b038311610d325760208381860195010111610d3257565b602435908160020b8203610d3257565b604435908160020b8203610d3257565b600435908160020b8203610d3257565b606435906001600160801b0382168203610d3257565b604435906001600160801b0382168203610d3257565b60e081019081106001600160401b0382111761377b57604052565b6001600160401b03811161377b57604052565b608081019081106001600160401b0382111761377b57604052565b60a081019081106001600160401b0382111761377b57604052565b606081019081106001600160401b0382111761377b57604052565b90601f801991011681019081106001600160401b0382111761377b57604052565b604051906139dd82613930565b8160c060ff5f5460018060a01b03811684528060a01c60020b602085015261ffff808260b81c166040860152808260c81c1660608601528160d81c166080850152818160e81c1660a085015260f01c161515910152565b15613a3b57565b60405162461bcd60e51b81526020600482015260036024820152624c4f4b60e81b6044820152606490fd5b9190915f838201938412911290801582169115161761133a57565b9190820180921161133a57565b81810392915f13801582851316918412161761133a57565b8115613ab0570490565b634e487b7160e01b5f52601260045260245ffd5b9190820391821161133a57565b9190916001600160801b038080941691160191821161133a57565b600f0b6f7fffffffffffffffffffffffffffffff19811461133a575f0390565b600291820b910b0390627fffff198212627fffff83131761133a57565b600160ff1b811461133a575f0390565b928492608095928552602085015260606040850152816060850152848401375f828201840152601f01601f1916010190565b15613b7257565b60405162461bcd60e51b815260206004820152600360248201526249494160e81b6044820152606490fd5b6001600160801b03918216908216039190821161133a57565b90816020910312610d3257516001600160a01b0381168103610d325790565b6001600160801b0316801561133a575f190190565b6001600160401b03811161377b5760051b60200190565b600691820b910b0390667fffffffffffff198212667fffffffffffff83131761133a57565b6001600160a01b03918216908216039190821161133a57565b63ffffffff918216908216039190821161133a57565b919091613c62838261513b565b60020b90815f52600560205260405f209260020b92835f52600360405f20910154938460060b9160018060a01b0392838760381c169563ffffffff92838960d81c169860f81c15610d325760030154938460060b958560381c1693808660d81c169560f81c15610d3257613cd46139d0565b916020830193845160020b9081125f14613d1057505050505090613cfe613d0a94613d0493613c01565b95613c26565b94613c3f565b91929190565b969793961215613d7d574216945160020b906040015161ffff166004546001600160801b031690613d419287614a6e565b92613d4b91613c01565b90613d5591613c01565b95613d5f91613c26565b90613d6991613c26565b94613d7391613c3f565b90613d0a91613c3f565b5050613d0a94979350613d04929691613cfe91613c01565b7f00000000000000000000000000000000000000000000000000000000000000006001600160a01b03163003610d3257565b60020b9060020b908115613ab057627fffff1981145f1983141661133a570590565b9060020b908115613ab05760020b0790565b60020b60010190627fffff8213627fffff1983121761133a57565b9060020b9060020b0190627fffff198212627fffff83131761133a57565b9060ff8091169116039060ff821161133a57565b9060020b9060020b02908160020b91820361133a57565b908115600183800414171561133a57565b8181029291811591840414171561133a57565b8115613ab0570690565b60020b5f81121561438257613ea181613b29565b620d89e88111614359576001811615614347576001600160881b036ffffcb933bd6fad37aa2d162d1a5940015b16916002821661431b575b6004918281166142ef575b600881166142c3575b60108116614297575b6020811661426b575b6040811661423f575b608090818116614214575b61010081166141e9575b61020081166141be575b6104008116614193575b6108008116614168575b611000811661413d575b6120008116614112575b61400081166140e7575b61800081166140bc575b620100008116614091575b620200008116614067575b62040000811661402b575b6208000016613fef575b505f12613fcc575b5063ffffffff8116613fc157613fbd5f915b6001600160a01b039260ff169060201c613a81565b1690565b613fbd600191613fa8565b8115613fdc57505f19045f613f96565b601290634e487b7160e01b5f525260245ffd5b6b048a170391f7dc42444e8fa293919391828102928184041490151715614018571c915f613f8e565b601183634e487b7160e01b5f525260245ffd5b936d2216e584f5fa1ea926041bedfe989081810291818304149015171561405457811c93613f84565b601184634e487b7160e01b5f525260245ffd5b936e5d6af8dedb81196699c329225ee6049081810291818304149015171561405457811c93613f79565b936f09aa508b5b7a84e1c677de54f3e99bc99081810291818304149015171561405457811c93613f6e565b936f31be135f97d08fd981231505542fcfa69081810291818304149015171561405457811c93613f63565b936f70d869a156d2a1b890bb3df62baf32f79081810291818304149015171561405457811c93613f59565b936fa9f746462d870fdf8a65dc1f90e061e59081810291818304149015171561405457811c93613f4f565b936fd097f3bdfd2022b8845ad8f792aa58259081810291818304149015171561405457811c93613f45565b936fe7159475a2c29b7443b29c7fa6e889d99081810291818304149015171561405457811c93613f3b565b936ff3392b0822b70005940c7a398e4b70f39081810291818304149015171561405457811c93613f31565b936ff987a7253ac413176f2b074cf7815e549081810291818304149015171561405457811c93613f27565b936ffcbe86c7900a88aedcffc83b479aa3a49081810291818304149015171561405457811c93613f1d565b936ffe5dee046a99a2a811c461f1969c30539081810291818304149015171561405457811c93613f13565b926fff2ea16466c96a3843ec78b326b52861908181029181830414901517156140185760801c92613f08565b926fff973b41fa98c081472e6896dfb254c0908181029181830414901517156140185760801c92613eff565b926fffcb9843d60f6159c9db58835c926644908181029181830414901517156140185760801c92613ef6565b926fffe5caca7e10e4e61c3624eaa0941cd0908181029181830414901517156140185760801c92613eed565b926ffff2e50f5f656932ef12357cf3c7fdcc908181029181830414901517156140185760801c92613ee4565b916ffff97272373d413259a46990580e213a9081810291818304149015171561133a5760801c91613ed9565b6001600160881b03600160801b613ece565b60405162461bcd60e51b81526020600482015260016024820152601560fa1b6044820152606490fd5b80613ea1565b9062ffffff809216620f42400391821161133a57565b9190915f6143ac8483613a66565b9312159083121503610d3257565b9190915f6143c88483613a8e565b9312159083131503610d3257565b9091905f19838209928082029283808610950394808603951461442d5750620f42409184831115610d325709118082038060fa1b04600160fa1b149114171561133a57634e487b7160e01b5f52601160045260245ffd5b93505050620f4240900490565b90600160801b905f19828409928060801b9283808610950394808603951461455b5784831115610d325782910961448c8261447481613b29565b1680930494600184805f030401908584119003613e70565b92030417816003029160038304810361133a5760028093186144ae8183613e70565b840384811161133a576144c091613e70565b6144ca8183613e70565b840384811161133a576144dc91613e70565b6144e68183613e70565b840384811161133a576144f891613e70565b6145028183613e70565b840384811161133a5761451491613e70565b61451e8183613e70565b84039084821161133a5761453c9161453591613e70565b8092613e70565b830392831161133a576145589261455291613e70565b90613e70565b90565b505080925015610d32570490565b905f19818309818302928380831092039180830392146145ba57600160801b9282841115610d325783910990838211808203938460801b948504149114171561133a57614558920360801c17613e5f565b50505060801c90565b5f19828209908281029283808410930392808403931461461757600160601b9183831115610d32570982811191828103928360a01b938404600160a01b149114171561133a57614558920360601c17613e5f565b50505060601c90565b90600160601b905f19828409928060601b9283808610950394808603951461455b5784831115610d325782910961448c8261447481613b29565b915f19828409928281029283808610950394808603951461455b5784831115610d325782910961448c8261447481613b29565b6001600160a01b0390808216906401000276a3821015806149b8575b1561498f57640100000000600160c01b039060201b1690816001600160801b03831160071b9280841c916001600160401b03831160061b92831c9463ffffffff861160051b95861c9360049661ffff8611881b95861c60ff9687821160031b91821c92600f841160021b93841c94600160038711811b96871c1196171717171717179160808310155f1461497b5750607e198201828111614968571c5b607f198201918213600116614955578002607f928392828493841c81841c1c800280851c81851c1c800280861c81861c1c800280871c81871c1c80029081881c82881c1c80029283891c84891c1c800294858a1c868a1c1c800296878b1c888b1c1c800298898c1c8a8c1c1c80029a8b8d1c8c821c1c8002809d1c8d821c1c8002809e81901c90821c1c80029e8f80911c911c1c800260cd1c6604000000000000169d60cc1c6608000000000000169c60cb1c6610000000000000169b60ca1c6620000000000000169a60c91c6640000000000000169960c81c6680000000000000169860c71c670100000000000000169760c61c670200000000000000169660c51c670400000000000000169560c41c670800000000000000169460c31c671000000000000000169360c21c672000000000000000169260c11c674000000000000000169160c01c678000000000000000169060401b1717171717171717171717171717693627a301d71055774c8590818102918183051490151715614018576f028f6481ab7f045a5af012a19d003aa91981016001828213166140545760801d60020b926fdb2df09e81959a81455e260799a0632f915f8382019384129112908015821691151617614942575060801d60020b9282840361492a575050905090565b61493384613e8d565b161161493d575090565b905090565b601190634e487b7160e01b5f525260245ffd5b601185634e487b7160e01b5f525260245ffd5b601186634e487b7160e01b5f525260245ffd5b905081607f03607f8111614968571b614746565b60405162461bcd60e51b81526020600482015260016024820152602960f91b6044820152606490fd5b5073fffd8963efd1fc6a506488495d951d5263988d2682106146a9565b906040516149e28161395e565b915463ffffffff81168352602081811c60060b90840152605881901c6001600160a01b0316604084015260f81c15156060830152565b9060060b9060060b02908160060b91820361133a57565b9060060b9060060b0190667fffffffffffff198212667fffffffffffff83131761133a57565b6001600160a01b03918216908216019190821161133a57565b93929161ffff811015614ac957614a87906008016149d5565b9363ffffffff8086511690821603614ab6575b505050602082015160060b91604060018060a01b039101511690565b614ac093946152de565b905f8080614a9a565b634e487b7160e01b5f52603260045260245ffd5b929594919593909363ffffffff9687861615614c1857614b018596614b0896613c3f565b8096615398565b919093808551168183168181145f14614b39575050505050602082015160060b91604060018060a01b039101511690565b8285979551168091145f14614b66575050505050602082015160060b91604060018060a01b039101511690565b614b7e91614b7391613c3f565b928285511690613c3f565b602084015160060b9082614b998360208a015160060b613c01565b60060b941690600382900b8015613ab057667fffffffffffff1986145f1982141661133a5761455896614c06614beb614c1196614be560409a8b9a614c0c9816968760030b9105614a18565b90614a2f565b9a60018060a01b038080998195015116998a92015116613c26565b16613e70565b613aa6565b1690614a55565b93925090935061ffff811015614ac957614c34906008016149d5565b948086511690821603614ab657505050602082015160060b91604060018060a01b039101511690565b91905f81600f0b125f14614cc157614c77614c8a91613aec565b6001600160801b03918291821685613b9d565b93169083161015614c9757565b60405162461bcd60e51b81526020600482015260026024820152614c5360f01b6044820152606490fd5b614cd8906001600160801b03918291821685613ad1565b931690831610614ce457565b60405162461bcd60e51b81526020600482015260026024820152614c4160f01b6044820152606490fd5b90600161ffff8093160191821161133a57565b9061ffff809116918215613ab057160690565b95939192909261ffff9384881015614ac957614d52886008016149d5565b9763ffffffff94858a511686841614614e235786811680888b16119081614dfb575b5091614d9499614d9992614d9f979695945f14614df15750998a91614d0e565b614d21565b986152de565b91851015614ac95781511690602081015160201b916affffffffffffff00000000600160581b600160f81b03604084015160581b1692606060ff60f81b910151151560f81b1693161717178360080155565b9050998a91614d0e565b90505f95949392919519019087821161133a5793949293919290871687831614614d94614d74565b90985096505050505050565b3d15614e68573d906001600160401b03821161377b5760405191614e5d601f8201601f1916602001846139af565b82523d5f602084013e565b606090565b5f929183809360405190602082019363a9059cbb60e01b855260018060a01b03166024830152604482015260448152614ea58161395e565b51925af1614eb1614e2f565b81614ee9575b5015614ebf57565b60405162461bcd60e51b81526020600482015260026024820152612a2360f11b6044820152606490fd5b8051801592508215614efe575b50505f614eb7565b8192509060209181010312610d3257602001518015158103610d32575f80614ef6565b5f8060405160208101906370a0823160e01b825230602482015260248152614f4881613994565b51907f00000000000000000000000000000000000000000000000000000000000000005afa614f75614e2f565b9080614f95575b15610d3257602081805181010312610d32576020015190565b50602081511015614f7c565b5f8060405160208101906370a0823160e01b825230602482015260248152614fc881613994565b51907f00000000000000000000000000000000000000000000000000000000000000005afa614f75614e2f565b15614ffc57565b60405162461bcd60e51b81526020600482015260016024820152604960f81b6044820152606490fd5b61ffff9081811690615038821515614ff5565b82841691821115615077575b81838216106150535750505090565b82811015614ac95760018184926008018263ffffffff198254161790550116615044565b9250505090565b9190620f42409061508f81856143d6565b930961509757565b905f1980821015610d3257811461133a5760010190565b9291906150bc82828661465a565b938215613ab0570961509757565b916040519160208301936bffffffffffffffffffffffff199060601b16845260e81b603483015260e81b6037820152601a8152604081018181106001600160401b0382111761377b576040525190205f52600760205260405f2090565b8051821015614ac95760209160051b010190565b9060020b9060020b90808212918261516b575b508161515d575b5015610d3257565b620d89e8915013155f615155565b620d89e719131591505f61514e565b6001600160a01b0392909190838216848416116151c6575b838061519e8585613c26565b169316928315610d325761455894614c0c93169160601b600160601b600160e01b031661465a565b919091615192565b6001600160a01b03929082841684821611615220575b83806151f08386613c26565b169116938415610d325761521493169160601b600160601b600160e01b03166150ae565b90808206151591040190565b916151e4565b61455892916001600160801b03916001600160a01b039161525291908381168483161161525a57613c26565b1691166145c3565b90613c26565b6001600160a01b03916001600160801b0391615286918085168583161161525a57613c26565b921691169061529582826145c3565b91600160601b91096152a45790565b5f1980821015610d3257811461133a5760010190565b604051906152c78261395e565b5f6060838281528260208201528260408201520152565b6040929391936152ec6152ba565b5063ffffffff926153256153038585511688613c3f565b9261531c60208601519187861660060b9060020b614a18565b9060060b614a2f565b92909401516001600160a01b0394908516906001600160801b039081811615615390575b168015613ab0576153679260801b63ffffffff60801b160490614a55565b91604051946153758661395e565b16845260060b60208401521660408201526001606082015290565b506001615349565b919590926153a46152ba565b506153ad6152ba565b9661ffff9788831015614ac9576008966153c9846008016149d5565b9063ffffffff936153de89868551168a615845565b6155c757505050506153f387614d9484614d0e565b88811015614ac957615407906008016149d5565b91606092868360608301511561557e575b61542492511687615845565b15615553578861544a89614d94839461543b6152ba565b506154446152ba565b50614d0e565b169716956154588789613a81565b5f1998818a0191821161133a575b6154708282613a81565b91600192831c926154818b85613e83565b8d811015614ac9576154949086016149d5565b90878201511561553d5784019081851161133a578d906154b48d84613e83565b91821015614ac9576154c88b9288016149d5565b908c6154d8818b84511686615845565b93849182615527575b505061551457505061550757505089820191821161133a5761547091905b909150615466565b90915061547092506154ff565b9e509c50979a5050505050505050505050565b61553692508b85511691615845565b8c8e6154e1565b91925050820180921161133a57615470916154ff565b60405162461bcd60e51b815260206004820152600360248201526213d31160ea1b6044820152606490fd5b615424925060405161558f8161395e565b6008548281168252602081811c60060b90830152605881901c6001600160a01b0316604083015260f81c151560608201529250615418565b96509694985096509750809150855116908216145f146155e8575050509190565b836145589496506152de565b905f83600f0b125f146156315761560d61561c93613aec565b6001600160801b031691615226565b600160ff1b811015610d325761455890613b29565b615644926001600160801b031691615260565b600160ff1b811015610d325790565b915f81600f0b125f146156c45761566990613aec565b6001600160a01b039291908183858216868216116156b8575b505083806156908585613c26565b169316928315610d325761561c94614c0c93169160601b600160601b600160e01b031661465a565b90935091505f80615682565b6001600160a01b0392828185821686821611615725575b505083806156e98386613c26565b169116938415610d325761570d93169160601b600160601b600160e01b03166150ae565b818104919006151501600160ff1b811015610d325790565b935090505f806156db565b919081156157a0576001600160a01b039260609190911b600160601b600160e01b03169083168061576b6157648286613e70565b9485613aa6565b1480615797575b15610d325761578461578a9383613ac4565b916150ae565b908116908103610d325790565b50828211615772565b505090565b919081156157a0576001600160a01b039260609190911b600160601b600160e01b0316919083166157d68183613e70565b816157e18483613aa6565b1461580f575b506157f56157fc9184613aa6565b9182613a81565b908110610d325780820615159104011690565b6158199084613a81565b8381106157e7579150613fbd926150ae565b9064010000000064ffffffffff8093160191821161133a57565b909163ffffffff8080931693168381118015806158a9575b6158a0571561589157925b64ffffffffff9283921690811115615883575b169116111590565b61588c9061582b565b61587b565b61589a9061582b565b92615868565b50925016101590565b5084848416111561585d565b98979590989692939694919460020b96875f52600560205260405f20976001600160801b03808a541690806158ea8a84614c5d565b1699168911615a0157159a8b891514159b61593d575b5050505050505061592a6001600160801b03199183838654161790600f0b9060801d600f0b61439e565b8080600f0b03610d325760801b16179055565b60020b121561596f575b505050506003840180546001600160f81b0316600160f81b179055505f808080808080615900565b60018801949094556002870193909355600386018054600160381b600160d81b03191660389290921b600160381b600160d81b03169190911781556159f7925b81547fff00000000ffffffffffffffffffffffffffffffffffffffff000000000000001666ffffffffffffff919091161760d89290921b63ffffffff60d81b16919091179055565b5f80808080615947565b60405162461bcd60e51b81526020600482015260026024820152614c4f60f01b6044820152606490fd5b98979590989692939694919460020b96875f52600560205260405f20976001600160801b03808a54169080615a608a84614c5d565b1699168911615a0157159a8b891514159b615aa0575b5050505050505061592a6001600160801b03199183838654161790600f0b9060801d600f0b6143ba565b60020b1215615ad2575b505050506003840180546001600160f81b0316600160f81b179055505f808080808080615a76565b60018801949094556002870193909355600386018054600160381b600160d81b03191660389290921b600160381b600160d81b0316919091178155615b16926159af565b5f80808080615aaa565b615b2a8282613de9565b60020b610d3257615b3e916130c491613dc7565b9060010b5f526006602052600160ff60405f2092161b815418905556fea2646970667358221220c52a836a14acf552545de0ad6b7a48e25ce2de9a4da8363fc3e0aebc4401665364736f6c63430008180033a26469706673582212202f7ec5916a8633ddbec8ba4368674b7e9903b931eafb02737f0f2f4df2a1b25664736f6c63430008180033","linkReferences":{}},"methodIdentifiers":{"createPool(address,address,uint24)":"a1671295","enableFeeAmount(uint24,int24)":"8a7c195f","feeAmountTickSpacing(uint24)":"22afcccb","getPool(address,address,uint24)":"1698ee82","owner()":"8da5cb5b","parameters()":"89035730"},"id":16}