{"abi":[{"type":"constructor","inputs":[],"stateMutability":"nonpayable"},{"type":"function","name":"createPool","inputs":[{"name":"tokenA","type":"address","internalType":"address"},{"name":"tokenB","type":"address","internalType":"address"},{"name":"fee","type":"uint24","internalType":"uint24"},{"name":"isKitchen","type":"bool","internalType":"bool"}],"outputs":[{"name":"pool","type":"address","internalType":"address"}],"stateMutability":"nonpayable"},{"type":"function","name":"enableFeeAmount","inputs":[{"name":"fee","type":"uint24","internalType":"uint24"},{"name":"tickSpacing","type":"int24","internalType":"int24"}],"outputs":[],"stateMutability":"nonpayable"},{"type":"function","name":"feeAmountTickSpacing","inputs":[{"name":"","type":"uint24","internalType":"uint24"}],"outputs":[{"name":"","type":"int24","internalType":"int24"}],"stateMutability":"view"},{"type":"function","name":"getPool","inputs":[{"name":"","type":"address","internalType":"address"},{"name":"","type":"address","internalType":"address"},{"name":"","type":"uint24","internalType":"uint24"}],"outputs":[{"name":"","type":"address","internalType":"address"}],"stateMutability":"view"},{"type":"function","name":"isKitchenPool","inputs":[{"name":"","type":"address","internalType":"address"}],"outputs":[{"name":"","type":"bool","internalType":"bool"}],"stateMutability":"view"},{"type":"function","name":"owner","inputs":[],"outputs":[{"name":"","type":"address","internalType":"address"}],"stateMutability":"view"},{"type":"function","name":"parameters","inputs":[],"outputs":[{"name":"factory","type":"address","internalType":"address"},{"name":"token0","type":"address","internalType":"address"},{"name":"token1","type":"address","internalType":"address"},{"name":"fee","type":"uint24","internalType":"uint24"},{"name":"tickSpacing","type":"int24","internalType":"int24"},{"name":"deployer","type":"address","internalType":"address"}],"stateMutability":"view"},{"type":"function","name":"transferOwnership","inputs":[{"name":"newOwner","type":"address","internalType":"address"}],"outputs":[],"stateMutability":"nonpayable"},{"type":"event","name":"FeeAmountEnabled","inputs":[{"name":"fee","type":"uint24","indexed":true,"internalType":"uint24"},{"name":"tickSpacing","type":"int24","indexed":true,"internalType":"int24"}],"anonymous":false},{"type":"event","name":"NewOwner","inputs":[{"name":"oldOwner","type":"address","indexed":true,"internalType":"address"},{"name":"newOwner","type":"address","indexed":true,"internalType":"address"}],"anonymous":false},{"type":"event","name":"OwnerChanged","inputs":[{"name":"oldOwner","type":"address","indexed":true,"internalType":"address"},{"name":"newOwner","type":"address","indexed":true,"internalType":"address"}],"anonymous":false},{"type":"event","name":"PoolCreated","inputs":[{"name":"token0","type":"address","indexed":true,"internalType":"address"},{"name":"token1","type":"address","indexed":true,"internalType":"address"},{"name":"fee","type":"uint24","indexed":true,"internalType":"uint24"},{"name":"tickSpacing","type":"int24","indexed":false,"internalType":"int24"},{"name":"isKitchen","type":"bool","indexed":false,"internalType":"bool"},{"name":"pool","type":"address","indexed":false,"internalType":"address"}],"anonymous":false}],"bytecode":{"object":"0x60a060405234801561000f575f80fd5b50306080523360048190557fb532073b38c83145e3e5135377a08bf9aab55bc0fd7c1179cd4fb995d2a5159c905f828180a3506101f45f52600560205260405f20600a81557fc66a3fdf07232cdd185febcc6579d408c241b47ae2f9907d84be655141eeaecc600a6101f4825f80a3610bb85f5260405f209150603c8255603c610bb8825f80a36127105f5260405f20915060c8825560c8612710825f80a350506080516168e16100c85f395f61040001526168e15ff3fe608060405234801562000010575f80fd5b506004361062000080575f3560e01c80631698ee82146200008457806322afcccb14620000dd5780634e89121214620001165780635a31811b146200014c5780638903573014620001635780638a7c195f14620001ed5780638da5cb5b1462000206578063f2fde38b146200021a575b5f80fd5b620000c062000095366004620005a5565b600660209081525f93845260408085208252928452828420905282529020546001600160a01b031681565b6040516001600160a01b0390911681526020015b60405180910390f35b62000102620000ee366004620005ec565b60056020525f908152604090205460020b81565b60405160029190910b8152602001620000d4565b6200013b620001273660046200060f565b60076020525f908152604090205460ff1681565b6040519015158152602001620000d4565b620000c06200015d3660046200062b565b62000231565b5f5460015460028054600354620001a4946001600160a01b03908116948116938382169362ffffff600160a01b82041693600160b81b90910490910b911686565b604080516001600160a01b03978816815295871660208701529386169385019390935262ffffff909116606084015260020b60808301529190911660a082015260c001620000d4565b62000204620001fe3660046200068a565b62000338565b005b600454620000c0906001600160a01b031681565b620002046200022b3660046200060f565b620003af565b5f6200023c620003f5565b5f805f8688036200024b575f80fd5b8688106001811462000263578793508892506200026a565b8893508792505b508262000275575f80fd5b855f52600560205260405f20549050806200028e575f80fd5b60066020525f86815260409020805415620002a7575f80fd5b50620002b830848489858a6200042c565b60066020525f8781526040902081905593508415620002e157835f526007602052600160405f20555b7f783cca1c0412dd0d695e784568c96da2e9c22ff989357a2e8b1d9b2b4e6b71186040518481528360208201528760408201528260608201528660808201528560a08201528160c082a15050505050949350505050565b600454331462000346575f80fd5b620f4240821062000355575f80fd5b8015614000821015171562000368575f80fd5b815f52600560205260405f2080541562000380575f80fd5b8190557fc66a3fdf07232cdd185febcc6579d408c241b47ae2f9907d84be655141eeaecc8183825f80a3505050565b6004543314620003c657614e4f60e81b5f5260025ffd5b806004557f70aea8d848e8a90fb7661b227dc522eb6395c3dac71b63cb59edd5c9899b23648133825f80a35050565b306001600160a01b037f000000000000000000000000000000000000000000000000000000000000000016146200042a575f80fd5b565b6040805160c0810182526001600160a01b03808916808352888216602080850182905292891684860181905262ffffff808a166060870181905260028a810b60808901523360a09098018890525f80546001600160a01b031990811690971781556001805488169096179095558054928b16600160b81b0262ffffff60b81b19600160a01b9093026001600160b81b03199094169094179290921716919091179055600380549092169093179055915190916200051a918891889188918791016001600160a01b03948516815292909316602083015262ffffff166040820152901515606082015260800190565b604051602081830303815290604052805190602001206040516200053e9062000568565b8190604051809103905ff59050801580156200055c573d5f803e3d5ffd5b50979650505050505050565b6161e380620006c983390190565b80356001600160a01b03811681146200058d575f80fd5b919050565b803562ffffff811681146200058d575f80fd5b5f805f60608486031215620005b8575f80fd5b620005c38462000576565b9250620005d36020850162000576565b9150620005e36040850162000592565b90509250925092565b5f60208284031215620005fd575f80fd5b620006088262000592565b9392505050565b5f6020828403121562000620575f80fd5b620006088262000576565b5f805f80608085870312156200063f575f80fd5b6200064a8562000576565b93506200065a6020860162000576565b92506200066a6040860162000592565b9150606085013580151581146200067f575f80fd5b939692955090935050565b5f80604083850312156200069c575f80fd5b620006a78362000592565b915060208301358060020b8114620006bd575f80fd5b80915050925092905056fe61018060405234801562000011575f80fd5b503060805260408051630890357360e41b815290515f91339163890357309160048082019260c0929091908290030181865afa15801562000054573d5f803e3d5ffd5b505050506040513d601f19601f820116820180604052508101906200007a919062000182565b6001600160a01b039081166101205262ffffff9092166101005291811660e05291821660c052911660a052600281900b610140529050620000bb81620000cf565b6001600160801b0316610160525062000336565b5f8082620000e281620d89e71962000237565b620000ee919062000275565b90505f838062000102620d89e7196200029e565b6200010e919062000237565b6200011a919062000275565b90505f846200012a8484620002c1565b62000136919062000237565b62000143906001620002ef565b90506200015d62ffffff82166001600160801b036200030e565b95945050505050565b80516001600160a01b03811681146200017d575f80fd5b919050565b5f805f805f8060c0878903121562000198575f80fd5b620001a38762000166565b9550620001b36020880162000166565b9450620001c36040880162000166565b9350606087015162ffffff81168114620001db575f80fd5b8093505060808701518060020b8114620001f3575f80fd5b91506200020360a0880162000166565b90509295509295509295565b634e487b7160e01b5f52601260045260245ffd5b634e487b7160e01b5f52601160045260245ffd5b5f8160020b8360020b806200025057620002506200020f565b627fffff1982145f19821416156200026c576200026c62000223565b90059392505050565b5f8260020b8260020b028060020b915080821462000297576200029762000223565b5092915050565b5f8160020b627fffff198103620002b957620002b962000223565b5f0392915050565b600282810b9082900b03627fffff198112627fffff82131715620002e957620002e962000223565b92915050565b62ffffff81811683821601908082111562000297576200029762000223565b5f6001600160801b03838116806200032a576200032a6200020f565b92169190910492915050565b60805160a05160c05160e05161010051610120516101405161016051615dc56200041e5f395f81816104010152818161477301526147aa01525f81816104ea01528181610999015281816147de015261481001525f61054b01525f818161057201528181610a97015281816115df015261161501525f818161052401528181610fd90152818161169601528181611b490152818161202c0152613a8101525f8181610150015281816110ac0152818161166501528181611abc01528181611f75015261397001525f81816104c301528181611c450152611e0e01525f6126430152615dc55ff3fe608060405234801561000f575f80fd5b5060043610610147575f3560e01c80630dfe16811461014b578063128acb08146101885780631a686502146101b05780631ad8b03b146101db578063252c09d71461020757806332148f67146102545780633850c7bd146102695780633c8a7d8d1461030d5780634614131914610320578063490e6cbc146103375780634f1eb3d81461034a578063514ea4bf1461035d5780635339c296146103dd57806370cf754a146103fc5780638206a4d11461042357806385b6672914610436578063883bdbfd14610449578063a34123a71461046a578063a38807f21461047d578063c45a0155146104be578063d0c93a7c146104e5578063d21220a71461051f578063d5f3948814610546578063ddca3f431461056d578063f3058399146105a8578063f30dba93146105b1578063f637731d14610684575b5f80fd5b6101727f000000000000000000000000000000000000000000000000000000000000000081565b60405161017f91906152d1565b60405180910390f35b61019b610196366004615346565b610697565b6040805192835260208301919091520161017f565b6004546101c3906001600160801b031681565b6040516001600160801b03909116815260200161017f565b6003546101f9906001600160801b0380821691600160801b90041682565b60405161017f9291906153c5565b61021a6102153660046153df565b611204565b6040805163ffffffff909516855260069390930b60208501526001600160a01b03909116918301919091521515606082015260800161017f565b6102676102623660046153f6565b611248565b005b5f546102bc906001600160a01b03811690600160a01b810460020b9061ffff600160b81b8204811691600160c81b8104821691600160d81b8204169060ff600160e81b8204811691600160f01b90041687565b604080516001600160a01b03909816885260029690960b602088015261ffff94851695870195909552918316606086015291909116608084015260ff1660a0830152151560c082015260e00161017f565b61019b61031b36600461543e565b611321565b61032960025481565b60405190815260200161017f565b610267610345366004615488565b61155f565b6101f96103583660046154ec565b6119b1565b6103a761036b3660046153df565b60076020525f908152604090208054600182015460028301546003909301546001600160801b0392831693919281811691600160801b90041685565b604080516001600160801b039687168152602081019590955284019290925283166060830152909116608082015260a00161017f565b6103296103eb36600461554f565b60066020525f908152604090205481565b6101c37f000000000000000000000000000000000000000000000000000000000000000081565b61026761043136600461557f565b611bf7565b6101f96104443660046155b0565b611dbd565b61045c6104573660046155f2565b6120c4565b60405161017f929190615660565b61019b6104783660046156e5565b61214a565b61049061048b36600461570e565b6122cb565b6040805160069490940b84526001600160a01b03909216602084015263ffffffff169082015260600161017f565b6101727f000000000000000000000000000000000000000000000000000000000000000081565b61050c7f000000000000000000000000000000000000000000000000000000000000000081565b60405160029190910b815260200161017f565b6101727f000000000000000000000000000000000000000000000000000000000000000081565b6101727f000000000000000000000000000000000000000000000000000000000000000081565b6105947f000000000000000000000000000000000000000000000000000000000000000081565b60405162ffffff909116815260200161017f565b61032960015481565b6106286105bf366004615736565b60056020525f908152604090208054600182015460028301546003909301546001600160801b03831693600160801b909304600f0b9290600681900b90600160381b81046001600160a01b031690600160d81b810463ffffffff1690600160f81b900460ff1688565b604080516001600160801b039099168952600f9790970b602089015295870194909452606086019290925260060b60808501526001600160a01b031660a084015263ffffffff1660c0830152151560e08201526101000161017f565b61026761069236600461574f565b612501565b5f806106a1612638565b855f036106da5760405162461bcd60e51b8152602060048201526002602482015261415360f01b60448201526064015b60405180910390fd5b6040805160e0810182525f546001600160a01b0381168252600160a01b810460020b602083015261ffff600160b81b8204811693830193909352600160c81b810483166060830152600160d81b8104909216608082015260ff600160e81b8304811660a0830152600160f01b909204909116151560c082018190526107715760405162461bcd60e51b81526004016106d19061576a565b876107bb57805f01516001600160a01b0316866001600160a01b03161180156107b6575073fffd8963efd1fc6a506488495d951d5263988d266001600160a01b038716105b6107ec565b805f01516001600160a01b0316866001600160a01b03161080156107ec57506401000276a36001600160a01b038716115b61081e5760405162461bcd60e51b815260206004820152600360248201526214d41360ea1b60448201526064016106d1565b5f805460ff60f01b191681556040805160c08101909152808a61084c5760048460a0015160ff16901c61085d565b60108460a0015161085d919061579b565b60ff1681526004546001600160801b031660208201526040014263ffffffff1681526020015f60060b81526020015f6001600160a01b031681526020015f151581525090505f80891390505f6040518060e001604052808b81526020015f8152602001855f01516001600160a01b03168152602001856020015160020b81526020018c6108ec576002546108f0565b6001545b81526020015f6001600160801b0316815260200184602001516001600160801b031681525090505b80511580159061093e5750886001600160a01b031681604001516001600160a01b031614155b15610d8b576040805160e0810182525f80825260208201819052918101829052606081018290526080810182905260a0810182905260c081019190915260408201516001600160a01b0316815260608201516109be906006907f00000000000000000000000000000000000000000000000000000000000000008f61266e565b1515604083015260020b60208201819052620d89e71913156109e957620d89e7196020820152610a1d565b6109f6620d89e7196157d0565b60020b816020015160020b1315610a1d57610a14620d89e7196157d0565b60020b60208201525b610a2a8160200151612823565b6001600160a01b031660608201526040820151610abb908d610a64578b6001600160a01b031683606001516001600160a01b031611610a7e565b8b6001600160a01b031683606001516001600160a01b0316105b610a8c578260600151610a8e565b8b5b60c085015185517f0000000000000000000000000000000000000000000000000000000000000000612c33565b60c085015260a084015260808301526001600160a01b031660408301528215610b3357610afa8160c001518260800151610af591906157f0565b612e48565b82518390610b09908390615803565b90525060a0810151610b2990610b1e90612e48565b602084015190612e5c565b6020830152610b7f565b610b408160a00151612e48565b82518390610b4f908390615829565b90525060c08101516080820151610b7991610b6e91610af591906157f0565b602084015190612e80565b60208301525b835160ff1615610bd9575f845f015160ff168260c00151610ba09190615850565b9050808260c001818151610bb49190615863565b90525060a083018051829190610bcb908390615876565b6001600160801b0316905250505b60c08201516001600160801b031615610c2157610c0c8160c00151600160801b8460c001516001600160801b0316612e9e565b82608001818151610c1d91906157f0565b9052505b80606001516001600160a01b031682604001516001600160a01b031603610d4f57806040015115610d22578360a00151610ca557610c8784604001515f8760200151886040015188602001518a60600151600861300c909695949392919063ffffffff16565b6001600160a01b0316608086015260060b6060850152600160a08501525b5f610cf082602001518e610cbb57600154610cc1565b84608001515b8f610cd0578560800151610cd4565b6002545b608089015160608a015160408b015160059594939291906131f1565b90508c15610d0457610d0181615896565b90505b610d128360c00151826132ff565b6001600160801b031660c0840152505b8b610d31578060200151610d42565b60018160200151610d4291906158af565b60020b6060830152610d85565b805f01516001600160a01b031682604001516001600160a01b031614610d8557610d7c82604001516133be565b60020b60608301525b50610918565b836020015160020b816060015160020b14610e53575f80610dd886604001518660400151886020015188602001518a606001518b6080015160086136f1909695949392919063ffffffff16565b604085015160608601515f805463ffffffff60b81b1916600160c81b61ffff9586160261ffff60b81b191617600160b81b9590941694909402929092176001600160b81b031916600160a01b62ffffff909316929092026001600160a01b031916919091176001600160a01b0390911617905550610e779050565b60408101515f80546001600160a01b0319166001600160a01b039092169190911790555b8060c001516001600160801b031683602001516001600160801b031614610ebd5760c0810151600480546001600160801b0319166001600160801b039092169190911790555b8a15610f2757608081015160015560a08101516001600160801b031615610f225760a0810151600380545f90610efd9084906001600160801b0316615876565b92506101000a8154816001600160801b0302191690836001600160801b031602179055505b610f8e565b608081015160025560a08101516001600160801b031615610f8e5760a081015160038054601090610f69908490600160801b90046001600160801b0316615876565b92506101000a8154816001600160801b0302191690836001600160801b031602179055505b8115158b151514610faf5760208101518151610faa908c615803565b610fc1565b8051610fbb908b615803565b81602001515b90965094508a1561109f575f851215611007576110077f00000000000000000000000000000000000000000000000000000000000000008d611002886158d4565b613870565b5f61101061396b565b60405163fa461e3360e01b8152909150339063fa461e339061103c908a908a908e908e90600401615916565b5f604051808303815f87803b158015611053575f80fd5b505af1158015611065573d5f803e3d5ffd5b5050505061107161396b565b61107b8289613a63565b11156110995760405162461bcd60e51b81526004016106d19061593f565b50611169565b5f8612156110d5576110d57f00000000000000000000000000000000000000000000000000000000000000008d611002896158d4565b5f6110de613a7c565b60405163fa461e3360e01b8152909150339063fa461e339061110a908a908a908e908e90600401615916565b5f604051808303815f87803b158015611121575f80fd5b505af1158015611133573d5f803e3d5ffd5b5050505061113f613a7c565b6111498288613a63565b11156111675760405162461bcd60e51b81526004016106d19061593f565b505b60408082015160c083015160608085015184518b8152602081018b90526001600160a01b03948516958101959095526001600160801b039092169084015260020b60808301528d169033907fc42079f94a6350d7e6235f29174924f928cc2ac818eb64fed8004e115fbcca679060a00160405180910390a350505f805460ff60f01b1916600160f01b17905550919890975095505050505050565b60088161ffff8110611214575f80fd5b015463ffffffff81169150600160201b810460060b90600160581b81046001600160a01b031690600160f81b900460ff1684565b5f54600160f01b900460ff166112705760405162461bcd60e51b81526004016106d19061576a565b5f805460ff60f01b19169055611284612638565b5f8054600160d81b900461ffff169061129f60088385613ac2565b5f805461ffff808416600160d81b810261ffff60d81b199093169290921790925591925083161461130a576040805161ffff8085168252831660208201527fac49e518f90a358f652e4400164f05a5d8f7e35e7747279bc3a93dbf584e125a91015b60405180910390a15b50505f805460ff60f01b1916600160f01b17905550565b5f80548190600160f01b900460ff1661134c5760405162461bcd60e51b81526004016106d19061576a565b5f805460ff60f01b191690556001600160801b03851661136a575f80fd5b5f806113b760405180608001604052808c6001600160a01b031681526020018b60020b81526020018a60020b81526020016113ad8a6001600160801b0316613b5b565b600f0b9052613b70565b92509250508193508092505f805f8611156113d7576113d461396b565b91505b84156113e8576113e5613a7c565b90505b60405163d348799760e01b8152339063d34879979061141190899089908d908d90600401615916565b5f604051808303815f87803b158015611428575f80fd5b505af115801561143a573d5f803e3d5ffd5b505050505f86111561148b5761144e61396b565b6114588388613a63565b111561148b5760405162461bcd60e51b815260206004820152600260248201526104d360f41b60448201526064016106d1565b84156114d657611499613a7c565b6114a38287613a63565b11156114d65760405162461bcd60e51b81526020600482015260026024820152614d3160f01b60448201526064016106d1565b604080513381526001600160801b038b1660208201529081018790526060810186905260028b810b91908d900b906001600160a01b038f16907f7a53080ba414158be7ec69b987b5fb7d07dee101fe85488f0853ae16239d0bde9060800160405180910390a450505f805460ff60f01b1916600160f01b17905550919890975095505050505050565b5f54600160f01b900460ff166115875760405162461bcd60e51b81526004016106d19061576a565b5f805460ff60f01b1916905561159b612638565b6004546001600160801b0316806115d85760405162461bcd60e51b81526020600482015260016024820152601360fa1b60448201526064016106d1565b5f61160c867f000000000000000000000000000000000000000000000000000000000000000062ffffff16620f4240613da0565b90505f611642867f000000000000000000000000000000000000000000000000000000000000000062ffffff16620f4240613da0565b90505f61164d61396b565b90505f611658613a7c565b9050881561168b5761168b7f00000000000000000000000000000000000000000000000000000000000000008b8b613870565b87156116bc576116bc7f00000000000000000000000000000000000000000000000000000000000000008b8a613870565b604051630e9cbafb60e41b8152339063e9cbafb0906116e590879087908c908c90600401615916565b5f604051808303815f87803b1580156116fc575f80fd5b505af115801561170e573d5f803e3d5ffd5b505050505f61171b61396b565b90505f611726613a7c565b9050816117338588613a63565b11156117665760405162461bcd60e51b8152602060048201526002602482015261046360f41b60448201526064016106d1565b806117718487613a63565b11156117a45760405162461bcd60e51b8152602060048201526002602482015261463160f01b60448201526064016106d1565b5f6117af8584615863565b90505f6117bc8584615863565b90508115611889575f80546117dd90601090600160e81b900460ff1661579b565b90505f60ff8216156117fb576117f660ff831685615850565b6117fd565b5f5b90506001600160801b0381161561185057600380548291905f9061182b9084906001600160801b0316615876565b92506101000a8154816001600160801b0302191690836001600160801b031602179055505b61187161185d8286615863565b600160801b8d6001600160801b0316612e9e565b60015f82825461188191906157f0565b909155505050505b801561193a575f8054600160e81b900460041c600f169081156118b8576118b360ff831684615850565b6118ba565b5f5b90506001600160801b0381161561191557600380548291906010906118f0908490600160801b90046001600160801b0316615876565b92506101000a8154816001600160801b0302191690836001600160801b031602179055505b61192261185d8285615863565b60025f82825461193291906157f0565b909155505050505b604080518e8152602081018e9052908101839052606081018290526001600160a01b038f169033907fbdbdb71d7860376ba52b25a5028beea23581364a40522f6bcfb86bb1f2dca6339060800160405180910390a350505f805460ff60f01b1916600160f01b179055505050505050505050505050565b5f80548190600160f01b900460ff166119dc5760405162461bcd60e51b81526004016106d19061576a565b5f805460ff60f01b191681556119f56007338989613de5565b60038101549091506001600160801b0390811690861611611a165784611a25565b60038101546001600160801b03165b60038201549093506001600160801b03600160801b909104811690851611611a4d5783611a63565b6003810154600160801b90046001600160801b03165b91506001600160801b03831615611aeb576003810180548491905f90611a939084906001600160801b031661595c565b92506101000a8154816001600160801b0302191690836001600160801b03160217905550611aeb7f000000000000000000000000000000000000000000000000000000000000000089856001600160801b0316613870565b6001600160801b03821615611b7857818160030160108282829054906101000a90046001600160801b0316611b20919061595c565b92506101000a8154816001600160801b0302191690836001600160801b03160217905550611b787f000000000000000000000000000000000000000000000000000000000000000089846001600160801b0316613870565b604080516001600160a01b038a1681526001600160801b0385811660208301528416818301529051600288810b92908a900b9133917f70935338e69775456a85ddef226c395fb668b63fa0115f5f20610b388e6ca9c0919081900360600190a4505f805460ff60f01b1916600160f01b17905590969095509350505050565b5f54600160f01b900460ff16611c1f5760405162461bcd60e51b81526004016106d19061576a565b5f805460ff60f01b1916905560408051638da5cb5b60e01b815290516001600160a01b037f00000000000000000000000000000000000000000000000000000000000000001691638da5cb5b9160048083019260209291908290030181865afa158015611c8e573d5f803e3d5ffd5b505050506040513d601f19601f82011682018060405250810190611cb2919061597c565b6001600160a01b0316336001600160a01b031614611cce575f80fd5b60ff82161580611cf1575060048260ff1610158015611cf15750600a8260ff1611155b8015611d1b575060ff81161580611d1b575060048160ff1610158015611d1b5750600a8160ff1611155b611d23575f80fd5b5f54600160e81b900460ff16611d41600483901b610ff01684615997565b5f805460ff92909216600160e81b0260ff60e81b199092169190911790557f973d8d92bb299f4af6ce49b52a8adb85ae46b9f214c4c4fc06ac77401237b133611d8b60108361579b565b6040805160ff9283168152600f600486901c166020820152868316918101919091529084166060820152608001611301565b5f80548190600160f01b900460ff16611de85760405162461bcd60e51b81526004016106d19061576a565b5f805460ff60f01b1916905560408051638da5cb5b60e01b815290516001600160a01b037f00000000000000000000000000000000000000000000000000000000000000001691638da5cb5b9160048083019260209291908290030181865afa158015611e57573d5f803e3d5ffd5b505050506040513d601f19601f82011682018060405250810190611e7b919061597c565b6001600160a01b0316336001600160a01b031614611e97575f80fd5b6003546001600160801b0390811690851611611eb35783611ec0565b6003546001600160801b03165b6003549092506001600160801b03600160801b909104811690841611611ee65782611efa565b600354600160801b90046001600160801b03165b90506001600160801b03821615611fa4576003546001600160801b0390811690831603611f2f5781611f2b816159b0565b9250505b600380548391905f90611f4c9084906001600160801b031661595c565b92506101000a8154816001600160801b0302191690836001600160801b03160217905550611fa47f000000000000000000000000000000000000000000000000000000000000000086846001600160801b0316613870565b6001600160801b0381161561205b576003546001600160801b03600160801b909104811690821603611fde5780611fda816159b0565b9150505b60038054829190601090612003908490600160801b90046001600160801b031661595c565b92506101000a8154816001600160801b0302191690836001600160801b0316021790555061205b7f000000000000000000000000000000000000000000000000000000000000000086836001600160801b0316613870565b846001600160a01b0316336001600160a01b03167f596b573906218d3411850b26a6b437d6c4522fdb43d2d2386263f86d50b8b15184846040516120a09291906153c5565b60405180910390a35f805460ff60f01b1916600160f01b1790559094909350915050565b6060806120cf612638565b61213e428585808060200260200160405190810160405280939291908181526020018383602002808284375f92018290525054600454600896959450600160a01b820460020b935061ffff600160b81b8304811693506001600160801b0390911691600160c81b900416613e3c565b915091505b9250929050565b5f80548190600160f01b900460ff166121755760405162461bcd60e51b81526004016106d19061576a565b5f805460ff60f01b1916815560408051608081018252338152600288810b602083015287900b91810191909152819081906121c990606081016121c06001600160801b038a16613b5b565b6113ad90615896565b925092509250816121d9906158d4565b94506121e4816158d4565b93505f8511806121f357505f84115b156122555760038301546122119086906001600160801b0316615876565b6003840154612231908690600160801b90046001600160801b0316615876565b6001600160801b039182169116600160801b026001600160801b0319161760038401555b604080516001600160801b038816815260208101879052908101859052600288810b91908a900b9033907f0c396cd989a39f4459b5fa1aed6a9a8dcdbc45908acfd67e028cd568da98982c9060600160405180910390a450505f805460ff60f01b1916600160f01b179055509094909350915050565b5f805f6122d6612638565b6122e08585613f93565b600285810b5f908152600560205260408082209287900b825281206003830154600681900b93600160381b82046001600160a01b0316928492600160d81b810463ffffffff169284929091600160f81b900460ff168061233e575f80fd5b6003820154600681900b9850600160381b81046001600160a01b03169650600160d81b810463ffffffff169450600160f81b900460ff168061237e575f80fd5b50506040805160e0810182525f546001600160a01b0381168252600160a01b8104600290810b6020840181905261ffff600160b81b8404811695850195909552600160c81b830485166060850152600160d81b8304909416608084015260ff600160e81b8304811660a0850152600160f01b909204909116151560c08301529093508e900b1315905061243b5761241586886159d1565b61241f85876159fe565b6124298486615a1e565b995099509950505050505050506124fa565b8a60020b816020015160020b12156124dc5760208101516040820151600454606084015142935f9384936124839360089388938793919290916001600160801b03169061300c565b9092509050886124938b846159d1565b61249d91906159d1565b876124a88a846159fe565b6124b291906159fe565b866124bd8987615a1e565b6124c79190615a1e565b9c509c509c50505050505050505050506124fa565b6124e687876159d1565b6124f086866159fe565b6124298585615a1e565b9250925092565b5f546001600160a01b03161561253e5760405162461bcd60e51b8152602060048201526002602482015261414960f01b60448201526064016106d1565b5f612548826133be565b604080516080808201835263ffffffff42168083525f602080850182905284860182905260016060958601819052600160f81b909317600855855160e0810187526001600160a01b038a16808252600289900b82840181905282890185905296820185905294810184905260a0810183905260c00183905281546001600160b81b0319168417600160a01b62ffffff89160217600160b81b600160f81b0319166501000001000160c81b1790915584519283528201929092528251939450909283927f98636036cb66a9c19a37435efc1e90142190214e8abeb821bdba3f2990dd4c95928290030190a150505050565b306001600160a01b037f0000000000000000000000000000000000000000000000000000000000000000161461266c575f80fd5b565b5f808061267b8587615a3b565b90505f8660020b12801561269a57506126948587615a73565b60020b15155b156126ad57806126a981615a94565b9150505b8315612757575f806126be83614058565b90925090505f600160ff831681901b906126d89082615863565b6126e291906157f0565b600184900b5f90815260208c905260409020548116801515965090915085612721578861271260ff8516876158af565b61271c9190615aac565b61274c565b8861272b82614074565b6127359085615acb565b6127429060ff16876158af565b61274c9190615aac565b965050505050612819565b5f8061276c612767846001615ae4565b614058565b90925090505f612783600160ff841681901b615863565b600184900b5f90815260208c9052604090205490199081168015159650909150856127db57886127b48460ff615acb565b60ff166127c2876001615ae4565b6127cc9190615ae4565b6127d69190615aac565b612812565b88836127e68361415c565b6127f09190615acb565b60ff166127fe876001615ae4565b6128089190615ae4565b6128129190615aac565b9650505050505b5094509492505050565b5f805f8360020b12612838578260020b612845565b8260020b612845906158d4565b9050612854620d89e7196157d0565b62ffffff1681111561288c5760405162461bcd60e51b81526020600482015260016024820152601560fa1b60448201526064016106d1565b5f816001165f036128a157600160801b6128b3565b6ffffcb933bd6fad37aa2d162d1a5940015b6001600160881b0316905060028216156128e85760806128e3826ffff97272373d413259a46990580e213a615b09565b901c90505b600482161561291257608061290d826ffff2e50f5f656932ef12357cf3c7fdcc615b09565b901c90505b600882161561293c576080612937826fffe5caca7e10e4e61c3624eaa0941cd0615b09565b901c90505b6010821615612966576080612961826fffcb9843d60f6159c9db58835c926644615b09565b901c90505b602082161561299057608061298b826fff973b41fa98c081472e6896dfb254c0615b09565b901c90505b60408216156129ba5760806129b5826fff2ea16466c96a3843ec78b326b52861615b09565b901c90505b60808216156129e45760806129df826ffe5dee046a99a2a811c461f1969c3053615b09565b901c90505b610100821615612a0f576080612a0a826ffcbe86c7900a88aedcffc83b479aa3a4615b09565b901c90505b610200821615612a3a576080612a35826ff987a7253ac413176f2b074cf7815e54615b09565b901c90505b610400821615612a65576080612a60826ff3392b0822b70005940c7a398e4b70f3615b09565b901c90505b610800821615612a90576080612a8b826fe7159475a2c29b7443b29c7fa6e889d9615b09565b901c90505b611000821615612abb576080612ab6826fd097f3bdfd2022b8845ad8f792aa5825615b09565b901c90505b612000821615612ae6576080612ae1826fa9f746462d870fdf8a65dc1f90e061e5615b09565b901c90505b614000821615612b11576080612b0c826f70d869a156d2a1b890bb3df62baf32f7615b09565b901c90505b618000821615612b3c576080612b37826f31be135f97d08fd981231505542fcfa6615b09565b901c90505b62010000821615612b68576080612b63826f09aa508b5b7a84e1c677de54f3e99bc9615b09565b901c90505b62020000821615612b93576080612b8e826e5d6af8dedb81196699c329225ee604615b09565b901c90505b62040000821615612bbd576080612bb8826d2216e584f5fa1ea926041bedfe98615b09565b901c90505b62080000821615612be5576080612be0826b048a170391f7dc42444e8fa2615b09565b901c90505b5f8460020b1315612bfe57612bfb815f19615850565b90505b612c0c600160201b82615b20565b15612c18576001612c1a565b5f5b612c2b9060ff16602083901c6157f0565b949350505050565b5f8080806001600160a01b03808916908a161015818712801590612cbd575f612c7189612c638a620f4240615b33565b62ffffff16620f4240612e9e565b905082612c8a57612c858c8c8c6001614284565b612c97565b612c978b8d8c6001614301565b9550858110612ca8578a9650612cb7565b612cb48c8b83866143c4565b96505b50612d0f565b81612cd357612cce8b8b8b5f614301565b612cdf565b612cdf8a8c8b5f614284565b935083612ceb896158d4565b10612cf857899550612d0f565b612d0c8b8a612d068b6158d4565b8561440c565b95505b6001600160a01b038a8116908716148215612d7157808015612d2e5750815b612d4457612d3f878d8c6001614301565b612d46565b855b9550808015612d53575081155b612d6857612d63878d8c5f614284565b612d6a565b845b9450612dba565b808015612d7b5750815b612d9157612d8c8c888c6001614284565b612d93565b855b9550808015612da0575081155b612db557612db08c888c5f614301565b612db7565b845b94505b81158015612dcf5750612dcc896158d4565b85115b15612de057612ddd896158d4565b94505b818015612dff57508a6001600160a01b0316876001600160a01b031614155b15612e1557612e0e868a615863565b9350612e39565b612e368662ffffff8a16612e2c8b620f4240615b33565b62ffffff16613da0565b93505b50505095509550955095915050565b5f600160ff1b8210612e58575f80fd5b5090565b5f8082121583612e6c8482615803565b925082131514612e7a575f80fd5b92915050565b5f8082121583612e908482615829565b925082121514612e7a575f80fd5b5f80805f19858709858702925082811083820303915050805f03612ed2575f8411612ec7575f80fd5b508290049050613005565b808411612edd575f80fd5b5f848688098084039381119092039190505f85612ef9816158d4565b16958690049593849004935f819003046001019050612f188184615b09565b909317925f612f28876003615b09565b6002189050612f378188615b09565b612f42906002615863565b612f4c9082615b09565b9050612f588188615b09565b612f63906002615863565b612f6d9082615b09565b9050612f798188615b09565b612f84906002615863565b612f8e9082615b09565b9050612f9a8188615b09565b612fa5906002615863565b612faf9082615b09565b9050612fbb8188615b09565b612fc6906002615863565b612fd09082615b09565b9050612fdc8188615b09565b612fe7906002615863565b612ff19082615b09565b9050612ffd8186615b09565b955050505050505b9392505050565b5f808663ffffffff165f036130b2575f898661ffff1661ffff811061303357613033615b4f565b60408051608081018252919092015463ffffffff808216808452600160201b830460060b6020850152600160581b83046001600160a01b031694840194909452600160f81b90910460ff16151560608301529092508a161461309e5761309b818a8988614452565b90505b8060200151816040015192509250506131e5565b5f6130bd888a615a1e565b90505f806130d08c8c858c8c8c8c614512565b91509150815f015163ffffffff168363ffffffff16036131005781602001518260400151945094505050506131e5565b805f015163ffffffff168363ffffffff160361312c5780602001518160400151945094505050506131e5565b815181515f9161313b91615a1e565b83519091505f9061314c9086615a1e565b90508060030b8260030b8560200151856020015161316a91906159d1565b6131749190615b63565b61317e9190615b96565b846020015161318d9190615bb5565b8263ffffffff168263ffffffff16866040015186604001516131af91906159fe565b6001600160a01b03166131c29190615b09565b6131cc9190615850565b85604001516131db9190615be2565b9650965050505050505b97509795505050505050565b600286900b5f90815260208890526040812060018101546132129088615863565b600182015560028101546132269087615863565b6002820155600381015461324a90600160381b90046001600160a01b0316866159fe565b6003820180546001600160a01b0392909216600160381b02600160381b600160d81b031990921691909117908190556132869060060b856159d1565b60038201805466ffffffffffffff191666ffffffffffffff9290921691909117908190556132c190600160d81b900463ffffffff1684615a1e565b60038201805463ffffffff92909216600160d81b0263ffffffff60d81b1990921691909117905554600160801b9004600f0b98975050505050505050565b5f8082600f0b121561336b576001600160801b03831661331e83615896565b613328908561595c565b9150816001600160801b0316106133665760405162461bcd60e51b81526020600482015260026024820152614c5360f01b60448201526064016106d1565b612e7a565b6001600160801b03831661337f8385615876565b9150816001600160801b03161015612e7a5760405162461bcd60e51b81526020600482015260026024820152614c4160f01b60448201526064016106d1565b5f6401000276a36001600160a01b038316108015906133f9575073fffd8963efd1fc6a506488495d951d5263988d266001600160a01b038316105b6134295760405162461bcd60e51b81526020600482015260016024820152602960f91b60448201526064016106d1565b600160201b600160c01b03602083901b166001600160801b03811160071b81811c6001600160401b03811160061b90811c63ffffffff811160051b90811c61ffff811160041b90811c60ff8111600390811b91821c600f811160021b90811c918211600190811b92831c979088119617909417909217179091171717608081106134c2576134b8607f82615863565b83901c91506134d3565b6134cd81607f615863565b83901b91505b5f60406134e1608084615803565b901b9050828302607f1c92508260801c80603f1b8217915083811c935050828302607f1c92508260801c80603e1b8217915083811c935050828302607f1c92508260801c80603d1b8217915083811c935050828302607f1c92508260801c80603c1b8217915083811c935050828302607f1c92508260801c80603b1b8217915083811c935050828302607f1c92508260801c80603a1b8217915083811c935050828302607f1c92508260801c8060391b8217915083811c935050828302607f1c92508260801c8060381b8217915083811c935050828302607f1c92508260801c8060371b8217915083811c935050828302607f1c92508260801c8060361b8217915083811c935050828302607f1c92508260801c8060351b8217915083811c935050828302607f1c92508260801c8060341b8217915083811c935050828302607f1c92508260801c8060331b8217915083811c935050828302607f1c92508260801c8060321b82179150505f81693627a301d71055774c856136639190615c02565b90505f60806136826f028f6481ab7f045a5af012a19d003aaa84615803565b901d90505f60806136a3846fdb2df09e81959a81455e260799a0632f615829565b901d90508060020b8260020b146136e257886001600160a01b03166136c782612823565b6001600160a01b031611156136dc57816136e4565b806136e4565b815b9998505050505050505050565b5f805f898961ffff1661ffff811061370b5761370b615b4f565b60408051608081018252919092015463ffffffff808216808452600160201b830460060b6020850152600160581b83046001600160a01b031694840194909452600160f81b90910460ff16151560608301529092508916900361377457888592509250506131e5565b8461ffff168461ffff1611801561379c5750613791600186615c31565b61ffff168961ffff16145b156137a9578391506137ad565b8491505b816137b98a6001615c4c565b6137c39190615c67565b92506137d181898989614452565b8a8461ffff1661ffff81106137e8576137e8615b4f565b825191018054602084015160408501516060909501511515600160f81b026001600160f81b036001600160a01b03909616600160581b02959095166001600160581b0366ffffffffffffff909216600160201b026001600160581b031990931663ffffffff909516949094179190911716919091179190911790555097509795505050505050565b604080516001600160a01b038481166024830152604480830185905283518084039091018152606490920183526020820180516001600160e01b031663a9059cbb60e01b17905291515f928392908716916138cb9190615c87565b5f604051808303815f865af19150503d805f8114613904576040519150601f19603f3d011682016040523d82523d5f602084013e613909565b606091505b50915091508180156139335750805115806139335750808060200190518101906139339190615cb3565b6139645760405162461bcd60e51b81526020600482015260026024820152612a2360f11b60448201526064016106d1565b5050505050565b5f805f7f00000000000000000000000000000000000000000000000000000000000000006001600160a01b03166370a0823160e01b306040516024016139b191906152d1565b60408051601f198184030181529181526020820180516001600160e01b03166001600160e01b03199094169390931790925290516139ef9190615c87565b5f60405180830381855afa9150503d805f8114613a27576040519150601f19603f3d011682016040523d82523d5f602084013e613a2c565b606091505b5091509150818015613a4057506020815110155b613a48575f80fd5b80806020019051810190613a5c9190615cce565b9250505090565b5f82613a6f83826157f0565b9150811015612e7a575f80fd5b5f805f7f00000000000000000000000000000000000000000000000000000000000000006001600160a01b03166370a0823160e01b306040516024016139b191906152d1565b5f808361ffff1611613ae65760405162461bcd60e51b81526004016106d190615ce5565b8261ffff168261ffff1611613afc575081613005565b825b8261ffff168161ffff161015613b52576001858261ffff1661ffff8110613b2757613b27615b4f565b01805463ffffffff191663ffffffff9290921691909117905580613b4a81615d00565b915050613afe565b50909392505050565b80600f81900b8114613b6b575f80fd5b919050565b5f805f613b7b612638565b613b8d84602001518560400151613f93565b6040805160e0810182525f546001600160a01b0381168252600160a01b810460020b602080840182905261ffff600160b81b8404811685870152600160c81b84048116606080870191909152600160d81b8504909116608086015260ff600160e81b8504811660a0870152600160f01b909404909316151560c085015288519089015194890151928901519394613c2a94919390929091906146f5565b93508460600151600f0b5f14613d9857846020015160020b816020015160020b1215613c7e57613c77613c608660200151612823565b613c6d8760400151612823565b8760600151614896565b9250613d98565b846040015160020b816020015160020b1215613d6e5760045460408201516001600160801b0390911690613cc9904260208501516060860151608087015160089493929187916136f1565b5f805463ffffffff60b81b1916600160c81b61ffff9384160261ffff60b81b191617600160b81b939092169290920217905581516040870151613d1a9190613d1090612823565b8860600151614896565b9350613d38613d2c8760200151612823565b835160608901516148d6565b9250613d488187606001516132ff565b600480546001600160801b0319166001600160801b039290921691909117905550613d98565b613d95613d7e8660200151612823565b613d8b8760400151612823565b87606001516148d6565b91505b509193909250565b5f613dac848484612e9e565b90505f8280613dbd57613dbd615787565b8486091115613005575f198110613dd2575f80fd5b80613ddc81615d20565b95945050505050565b6040805160609490941b6001600160601b03191660208086019190915260e893841b60348601529190921b60378401528151601a818503018152603a90930182528251928101929092205f90815292909152902090565b6060805f8361ffff1611613e625760405162461bcd60e51b81526004016106d190615ce5565b86516001600160401b03811115613e7b57613e7b615d38565b604051908082528060200260200182016040528015613ea4578160200160208202803683370190505b50915086516001600160401b03811115613ec057613ec0615d38565b604051908082528060200260200182016040528015613ee9578160200160208202803683370190505b5090505f5b8751811015613f8657613f1f8a8a8a8481518110613f0e57613f0e615b4f565b60200260200101518a8a8a8a61300c565b848381518110613f3157613f31615b4f565b60200260200101848481518110613f4a57613f4a615b4f565b60200260200101826001600160a01b03166001600160a01b03168152508260060b60060b81525050508080613f7e90615d20565b915050613eee565b5097509795505050505050565b8060020b8260020b12613fce5760405162461bcd60e51b8152602060048201526003602482015262544c5560e81b60448201526064016106d1565b620d89e719600283900b121561400c5760405162461bcd60e51b8152602060048201526003602482015262544c4d60e81b60448201526064016106d1565b614019620d89e7196157d0565b60020b8160020b13156140545760405162461bcd60e51b815260206004820152600360248201526254554d60e81b60448201526064016106d1565b5050565b600281900b60081d5f61406d61010084615a73565b9050915091565b5f808211614080575f80fd5b600160801b821061409e57608091821c9161409b9082615997565b90505b600160401b82106140bc57604091821c916140b99082615997565b90505b600160201b82106140da57602091821c916140d79082615997565b90505b6201000082106140f757601091821c916140f49082615997565b90505b610100821061411357600891821c916141109082615997565b90505b6010821061412e57600491821c9161412b9082615997565b90505b6004821061414957600291821c916141469082615997565b90505b60028210613b6b57612e7a600182615997565b5f808211614168575f80fd5b5060ff6001600160801b0382161561418c57614185608082615acb565b9050614194565b608082901c91505b6001600160401b038216156141b5576141ae604082615acb565b90506141bd565b604082901c91505b63ffffffff8216156141db576141d4602082615acb565b90506141e3565b602082901c91505b61ffff8216156141ff576141f8601082615acb565b9050614207565b601082901c91505b60ff8216156142225761421b600882615acb565b905061422a565b600882901c91505b600f8216156142455761423e600482615acb565b905061424d565b600482901c91505b600382161561426857614261600282615acb565b9050614270565b600282901c91505b6001821615613b6b57612e7a600182615acb565b5f836001600160a01b0316856001600160a01b031611156142a3579293925b816142d7576142d26001600160801b0384166142bf87876159fe565b6001600160a01b0316600160601b612e9e565b613ddc565b613ddc6001600160801b0384166142ee87876159fe565b6001600160a01b0316600160601b613da0565b5f836001600160a01b0316856001600160a01b03161115614320579293925b600160601b600160e01b03606084901b165f61433c87876159fe565b6001600160a01b031690505f876001600160a01b03161161435b575f80fd5b8361438d57866001600160a01b031661437e8383896001600160a01b0316612e9e565b6143889190615850565b6143b9565b6143b96143a48383896001600160a01b0316613da0565b886001600160a01b0316808204910615150190565b979650505050505050565b5f80856001600160a01b0316116143d9575f80fd5b5f846001600160801b0316116143ed575f80fd5b816143ff576142d28585856001614908565b613ddc85858560016149eb565b5f80856001600160a01b031611614421575f80fd5b5f846001600160801b031611614435575f80fd5b81614446576142d28585855f6149eb565b613ddc8585855f614908565b61445a6152ab565b84515f906144689086615a1e565b905060405180608001604052808663ffffffff1681526020018263ffffffff168660020b6144969190615b96565b88602001516144a59190615bb5565b60060b81526020015f856001600160801b0316116144c45760016144c6565b845b6144e6906001600160801b031663ffffffff60801b608086901b16615d4c565b88604001516144f59190615be2565b6001600160a01b0316815260016020909101529695505050505050565b61451a6152ab565b6145226152ab565b888561ffff1661ffff811061453957614539615b4f565b60408051608081018252919092015463ffffffff8116808352600160201b820460060b6020840152600160581b82046001600160a01b031693830193909352600160f81b900460ff1615156060820152925061459790899089614afb565b156145c357815163ffffffff8881169116146131e557816145ba83898988614452565b915091506131e5565b88836145d0876001615c4c565b6145da9190615c67565b61ffff1661ffff81106145ef576145ef615b4f565b60408051608081018252929091015463ffffffff81168352600160201b810460060b60208401526001600160a01b03600160581b8204169183019190915260ff600160f81b9091041615156060820181905290925061469857604080516080810182528a5463ffffffff81168252600160201b810460060b6020830152600160581b81046001600160a01b031692820192909252600160f81b90910460ff161515606082015291505b6146a688835f015189614afb565b6146d85760405162461bcd60e51b815260206004820152600360248201526213d31160ea1b60448201526064016106d1565b6146e58989898887614bc7565b9150915097509795505050505050565b5f6147036007878787613de5565b600154600254919250905f80600f87900b15614838575f8054600454429291829161475e9160089186918591600160a01b820460020b9161ffff600160b81b82048116926001600160801b031691600160c81b90041661300c565b909250905061479760058d8b8d8b8b87898b5f7f0000000000000000000000000000000000000000000000000000000000000000614da2565b94506147ce60058c8b8d8b8b87898b60017f0000000000000000000000000000000000000000000000000000000000000000614da2565b935084156148025761480260068d7f0000000000000000000000000000000000000000000000000000000000000000614f47565b83156148345761483460068c7f0000000000000000000000000000000000000000000000000000000000000000614f47565b5050505b5f8061484960058c8c8b8a8a614f97565b909250905061485a878a848461507f565b5f89600f0b12156148875783156148765761487660058c61526d565b82156148875761488760058b61526d565b50505050505095945050505050565b5f8082600f0b126148b6576148b1610af58585856001614301565b612c2b565b6148cd610af585856148c786615896565b5f614301565b612c2b906158d4565b5f8082600f0b126148f1576148b1610af58585856001614284565b6148cd610af5858561490286615896565b5f614284565b5f8115614978575f6001600160a01b0384111561493c5761493784600160601b876001600160801b0316612e9e565b614953565b6149536001600160801b038616606086901b615850565b905061497061496b6001600160a01b03881683613a63565b615296565b915050612c2b565b5f6001600160a01b038411156149a5576149a084600160601b876001600160801b0316613da0565b6149c2565b6149c2606085901b6001600160801b038716808204910615150190565b905080866001600160a01b0316116149d8575f80fd5b614970816001600160a01b038816615863565b5f825f036149fa575083612c2b565b600160601b600160e01b03606085901b168215614aa1575f6001600160a01b03871685614a278282615b09565b9250614a339083615850565b03614a6c575f614a4382846157f0565b9050828110614a6a57614a6083896001600160a01b031683613da0565b9350505050612c2b565b505b614a9882614a8d87614a876001600160a01b038c1684615850565b90613a63565b808204910615150190565b92505050612c2b565b5f6001600160a01b03871685614ab78282615b09565b9250614ac39083615850565b148015614acf57508082115b614ad7575f80fd5b5f614ae28284615863565b9050614a6061496b848a6001600160a01b031684613da0565b5f8363ffffffff168363ffffffff1611158015614b2457508363ffffffff168263ffffffff1611155b15614b40578163ffffffff168363ffffffff1611159050613005565b5f8463ffffffff168463ffffffff1611614b6d57614b6863ffffffff8516600160201b615d71565b614b75565b8363ffffffff165b64ffffffffff1690505f8563ffffffff168463ffffffff1611614bab57614ba663ffffffff8516600160201b615d71565b614bb3565b8363ffffffff165b64ffffffffff169091111595945050505050565b614bcf6152ab565b614bd76152ab565b5f83614be4866001615c4c565b614bee9190615c67565b61ffff1690505f60018561ffff1683614c0791906157f0565b614c119190615863565b90505f5b6002614c2183856157f0565b614c2b9190615850565b905089614c3c61ffff881683615b20565b61ffff8110614c4d57614c4d615b4f565b60408051608081018252929091015463ffffffff81168352600160201b810460060b60208401526001600160a01b03600160581b8204169183019190915260ff600160f81b90910416151560608201819052909550614cb857614cb18160016157f0565b9250614c15565b8961ffff8716614cc98360016157f0565b614cd39190615b20565b61ffff8110614ce457614ce4615b4f565b60408051608081018252929091015463ffffffff81168352600160201b810460060b60208401526001600160a01b03600160581b8204169183019190915260ff600160f81b909104161515606082015285519094505f90614d47908b908b614afb565b9050808015614d5f5750614d5f8a8a875f0151614afb565b15614d6a5750614d95565b80614d8157614d7a600183615863565b9250614d8f565b614d8c8260016157f0565b93505b50614c15565b5050509550959350505050565b60028a900b5f90815260208c90526040812080546001600160801b031682614dca828d6132ff565b9050846001600160801b0316816001600160801b03161115614e135760405162461bcd60e51b81526020600482015260026024820152614c4f60f01b60448201526064016106d1565b6001600160801b03818116159083168015919091141594505f03614eb6578c60020b8e60020b13614e9e57600183018b9055600283018a905560038301805466ffffffffffffff8a166001600160f81b0319909116600160381b6001600160a01b038d160266ffffffffffffff63ffffffff60d81b0119161717600160d81b63ffffffff8a16021790555b6003830180546001600160f81b0316600160f81b1790555b82546001600160801b0319166001600160801b03821617835585614efd578254614ef890614ef390600160801b9004600f90810b908f900b612e80565b613b5b565b614f1c565b8254614f1c90614ef390600160801b9004600f90810b908f900b612e5c565b83546001600160801b03918216600160801b0291161790925550909c9b505050505050505050505050565b614f518183615a73565b60020b15614f5d575f80fd5b5f80614f6c6127678486615a3b565b600191820b5f9081526020979097526040909620805460ff9097169190911b90951890945550505050565b600285810b5f8181526020899052604080822088850b83529082209193849391929184918291908a900b12614fd757505060018201546002830154614ffb565b6001840154614fe69089615863565b9150836002015487614ff89190615863565b90505b5f808b60020b8b60020b121561501c57505060018301546002840154615040565b600185015461502b908b615863565b915084600201548961503d9190615863565b90505b8161504b858c615863565b6150559190615863565b975080615062848b615863565b61506c9190615863565b9650505050505050965096945050505050565b6040805160a08101825285546001600160801b0390811682526001870154602083015260028701549282019290925260038601548083166060830152600160801b900490911660808201525f600f85900b810361511a5781516001600160801b03166151125760405162461bcd60e51b815260206004820152600260248201526104e560f41b60448201526064016106d1565b508051615129565b815161512690866132ff565b90505b5f61515283602001518661513d9190615863565b84516001600160801b0316600160801b612e9e565b90505f61517d8460400151866151689190615863565b85516001600160801b0316600160801b612e9e565b905086600f0b5f146151a35787546001600160801b0319166001600160801b0384161788555b60018801869055600288018590556001600160801b0382161515806151d057505f816001600160801b0316115b15615263576003880180548391905f906151f49084906001600160801b0316615876565b92506101000a8154816001600160801b0302191690836001600160801b03160217905550808860030160108282829054906101000a90046001600160801b031661523e9190615876565b92506101000a8154816001600160801b0302191690836001600160801b031602179055505b5050505050505050565b600290810b5f908152602092909252604082208281556001810183905590810182905560030155565b806001600160a01b0381168114613b6b575f80fd5b604080516080810182525f80825260208201819052918101829052606081019190915290565b6001600160a01b0391909116815260200190565b6001600160a01b03811681146152f9575f80fd5b50565b80151581146152f9575f80fd5b5f8083601f840112615319575f80fd5b5081356001600160401b0381111561532f575f80fd5b602083019150836020828501011115612143575f80fd5b5f805f805f8060a0878903121561535b575f80fd5b8635615366816152e5565b95506020870135615376816152fc565b945060408701359350606087013561538d816152e5565b925060808701356001600160401b038111156153a7575f80fd5b6153b389828a01615309565b979a9699509497509295939492505050565b6001600160801b0392831681529116602082015260400190565b5f602082840312156153ef575f80fd5b5035919050565b5f60208284031215615406575f80fd5b813561ffff81168114613005575f80fd5b8035600281900b8114613b6b575f80fd5b80356001600160801b0381168114613b6b575f80fd5b5f805f805f8060a08789031215615453575f80fd5b863561545e816152e5565b955061546c60208801615417565b945061547a60408801615417565b935061538d60608801615428565b5f805f805f6080868803121561549c575f80fd5b85356154a7816152e5565b9450602086013593506040860135925060608601356001600160401b038111156154cf575f80fd5b6154db88828901615309565b969995985093965092949392505050565b5f805f805f60a08688031215615500575f80fd5b853561550b816152e5565b945061551960208701615417565b935061552760408701615417565b925061553560608701615428565b915061554360808701615428565b90509295509295909350565b5f6020828403121561555f575f80fd5b81358060010b8114613005575f80fd5b803560ff81168114613b6b575f80fd5b5f8060408385031215615590575f80fd5b6155998361556f565b91506155a76020840161556f565b90509250929050565b5f805f606084860312156155c2575f80fd5b83356155cd816152e5565b92506155db60208501615428565b91506155e960408501615428565b90509250925092565b5f8060208385031215615603575f80fd5b82356001600160401b0380821115615619575f80fd5b818501915085601f83011261562c575f80fd5b81358181111561563a575f80fd5b8660208260051b850101111561564e575f80fd5b60209290920196919550909350505050565b604080825283519082018190525f906020906060840190828701845b8281101561569b57815160060b8452928401929084019060010161567c565b505050838103828501528451808252858301918301905f5b818110156156d85783516001600160a01b0316835292840192918401916001016156b3565b5090979650505050505050565b5f805f606084860312156156f7575f80fd5b61570084615417565b92506155db60208501615417565b5f806040838503121561571f575f80fd5b61572883615417565b91506155a760208401615417565b5f60208284031215615746575f80fd5b61300582615417565b5f6020828403121561575f575f80fd5b8135613005816152e5565b6020808252600390820152624c4f4b60e81b604082015260600190565b634e487b7160e01b5f52601260045260245ffd5b5f60ff8316806157ad576157ad615787565b8060ff84160691505092915050565b634e487b7160e01b5f52601160045260245ffd5b5f8160020b627fffff1981036157e8576157e86157bc565b5f0392915050565b80820180821115612e7a57612e7a6157bc565b8181035f831280158383131683831282161715615822576158226157bc565b5092915050565b8082018281125f831280158216821582161715615848576158486157bc565b505092915050565b5f8261585e5761585e615787565b500490565b81810381811115612e7a57612e7a6157bc565b6001600160801b03818116838216019080821115615822576158226157bc565b5f600f82900b6001607f1b81016157e8576157e86157bc565b600282810b9082900b03627fffff198112627fffff82131715612e7a57612e7a6157bc565b5f600160ff1b82016158e8576158e86157bc565b505f0390565b81835281816020850137505f828201602090810191909152601f909101601f19169091010190565b848152836020820152606060408201525f6159356060830184866158ee565b9695505050505050565b60208082526003908201526249494160e81b604082015260600190565b6001600160801b03828116828216039080821115615822576158226157bc565b5f6020828403121561598c575f80fd5b8151613005816152e5565b60ff8181168382160190811115612e7a57612e7a6157bc565b5f6001600160801b038216806159c8576159c86157bc565b5f190192915050565b600682810b9082900b03667fffffffffffff198112667fffffffffffff82131715612e7a57612e7a6157bc565b6001600160a01b03828116828216039080821115615822576158226157bc565b63ffffffff828116828216039080821115615822576158226157bc565b5f8160020b8360020b80615a5157615a51615787565b627fffff1982145f1982141615615a6a57615a6a6157bc565b90059392505050565b5f8260020b80615a8557615a85615787565b808360020b0791505092915050565b5f8160020b627fffff1981036159c8576159c86157bc565b5f8260020b8260020b028060020b9150808214615822576158226157bc565b60ff8281168282160390811115612e7a57612e7a6157bc565b600281810b9083900b01627fffff8113627fffff1982121715612e7a57612e7a6157bc565b8082028115828204841417612e7a57612e7a6157bc565b5f82615b2e57615b2e615787565b500690565b62ffffff828116828216039080821115615822576158226157bc565b634e487b7160e01b5f52603260045260245ffd5b5f8160060b8360060b80615b7957615b79615787565b667fffffffffffff1982145f1982141615615a6a57615a6a6157bc565b5f8260060b8260060b028060060b9150808214615822576158226157bc565b600681810b9083900b01667fffffffffffff8113667fffffffffffff1982121715612e7a57612e7a6157bc565b6001600160a01b03818116838216019080821115615822576158226157bc565b8082025f8212600160ff1b84141615615c1d57615c1d6157bc565b8181058314821517612e7a57612e7a6157bc565b61ffff828116828216039080821115615822576158226157bc565b61ffff818116838216019080821115615822576158226157bc565b5f61ffff80841680615c7b57615c7b615787565b92169190910692915050565b5f82515f5b81811015615ca65760208186018101518583015201615c8c565b505f920191825250919050565b5f60208284031215615cc3575f80fd5b8151613005816152fc565b5f60208284031215615cde575f80fd5b5051919050565b6020808252600190820152604960f81b604082015260600190565b5f61ffff808316818103615d1657615d166157bc565b6001019392505050565b5f60018201615d3157615d316157bc565b5060010190565b634e487b7160e01b5f52604160045260245ffd5b5f6001600160a01b0383811680615d6557615d65615787565b92169190910492915050565b64ffffffffff818116838216019080821115615822576158226157bc56fea2646970667358221220162199eb7614541e6a488063ac688eb11be884ccfa90a732418dc49419a69a8164736f6c63430008150033a2646970667358221220fc8043f34cfb0752f1627c54d2112eece42035028c1110aa70b5390ee1cc538264736f6c63430008150033","linkReferences":{}},"methodIdentifiers":{"createPool(address,address,uint24,bool)":"5a31811b","enableFeeAmount(uint24,int24)":"8a7c195f","feeAmountTickSpacing(uint24)":"22afcccb","getPool(address,address,uint24)":"1698ee82","isKitchenPool(address)":"4e891212","owner()":"8da5cb5b","parameters()":"89035730","transferOwnership(address)":"f2fde38b"},"id":2}