{
  "abi": [
    {
      "type": "constructor",
      "inputs": [],
      "stateMutability": "nonpayable"
    },
    {
      "type": "function",
      "name": "createPool",
      "inputs": [
        {
          "name": "tokenA",
          "type": "address",
          "internalType": "address"
        },
        {
          "name": "tokenB",
          "type": "address",
          "internalType": "address"
        },
        {
          "name": "fee",
          "type": "uint24",
          "internalType": "uint24"
        },
        {
          "name": "isKitchen",
          "type": "bool",
          "internalType": "bool"
        }
      ],
      "outputs": [
        {
          "name": "pool",
          "type": "address",
          "internalType": "address"
        }
      ],
      "stateMutability": "nonpayable"
    },
    {
      "type": "function",
      "name": "enableFeeAmount",
      "inputs": [
        {
          "name": "fee",
          "type": "uint24",
          "internalType": "uint24"
        },
        {
          "name": "tickSpacing",
          "type": "int24",
          "internalType": "int24"
        }
      ],
      "outputs": [],
      "stateMutability": "nonpayable"
    },
    {
      "type": "function",
      "name": "feeAmountTickSpacing",
      "inputs": [
        {
          "name": "",
          "type": "uint24",
          "internalType": "uint24"
        }
      ],
      "outputs": [
        {
          "name": "",
          "type": "int24",
          "internalType": "int24"
        }
      ],
      "stateMutability": "view"
    },
    {
      "type": "function",
      "name": "getPool",
      "inputs": [
        {
          "name": "",
          "type": "address",
          "internalType": "address"
        },
        {
          "name": "",
          "type": "address",
          "internalType": "address"
        },
        {
          "name": "",
          "type": "uint24",
          "internalType": "uint24"
        }
      ],
      "outputs": [
        {
          "name": "",
          "type": "address",
          "internalType": "address"
        }
      ],
      "stateMutability": "view"
    },
    {
      "type": "function",
      "name": "isKitchenPool",
      "inputs": [
        {
          "name": "",
          "type": "address",
          "internalType": "address"
        }
      ],
      "outputs": [
        {
          "name": "",
          "type": "bool",
          "internalType": "bool"
        }
      ],
      "stateMutability": "view"
    },
    {
      "type": "function",
      "name": "owner",
      "inputs": [],
      "outputs": [
        {
          "name": "",
          "type": "address",
          "internalType": "address"
        }
      ],
      "stateMutability": "view"
    },
    {
      "type": "function",
      "name": "parameters",
      "inputs": [],
      "outputs": [
        {
          "name": "factory",
          "type": "address",
          "internalType": "address"
        },
        {
          "name": "token0",
          "type": "address",
          "internalType": "address"
        },
        {
          "name": "token1",
          "type": "address",
          "internalType": "address"
        },
        {
          "name": "fee",
          "type": "uint24",
          "internalType": "uint24"
        },
        {
          "name": "tickSpacing",
          "type": "int24",
          "internalType": "int24"
        },
        {
          "name": "deployer",
          "type": "address",
          "internalType": "address"
        }
      ],
      "stateMutability": "view"
    },
    {
      "type": "function",
      "name": "setOwner",
      "inputs": [
        {
          "name": "_owner",
          "type": "address",
          "internalType": "address"
        }
      ],
      "outputs": [],
      "stateMutability": "nonpayable"
    },
    {
      "type": "function",
      "name": "transferOwnership",
      "inputs": [
        {
          "name": "newOwner",
          "type": "address",
          "internalType": "address"
        }
      ],
      "outputs": [],
      "stateMutability": "nonpayable"
    },
    {
      "type": "event",
      "name": "FeeAmountEnabled",
      "inputs": [
        {
          "name": "fee",
          "type": "uint24",
          "indexed": true,
          "internalType": "uint24"
        },
        {
          "name": "tickSpacing",
          "type": "int24",
          "indexed": true,
          "internalType": "int24"
        }
      ],
      "anonymous": false
    },
    {
      "type": "event",
      "name": "NewOwner",
      "inputs": [
        {
          "name": "oldOwner",
          "type": "address",
          "indexed": true,
          "internalType": "address"
        },
        {
          "name": "newOwner",
          "type": "address",
          "indexed": true,
          "internalType": "address"
        }
      ],
      "anonymous": false
    },
    {
      "type": "event",
      "name": "OwnerChanged",
      "inputs": [
        {
          "name": "oldOwner",
          "type": "address",
          "indexed": true,
          "internalType": "address"
        },
        {
          "name": "newOwner",
          "type": "address",
          "indexed": true,
          "internalType": "address"
        }
      ],
      "anonymous": false
    },
    {
      "type": "event",
      "name": "PoolCreated",
      "inputs": [
        {
          "name": "token0",
          "type": "address",
          "indexed": true,
          "internalType": "address"
        },
        {
          "name": "token1",
          "type": "address",
          "indexed": true,
          "internalType": "address"
        },
        {
          "name": "fee",
          "type": "uint24",
          "indexed": true,
          "internalType": "uint24"
        },
        {
          "name": "tickSpacing",
          "type": "int24",
          "indexed": false,
          "internalType": "int24"
        },
        {
          "name": "isKitchen",
          "type": "bool",
          "indexed": false,
          "internalType": "bool"
        },
        {
          "name": "pool",
          "type": "address",
          "indexed": false,
          "internalType": "address"
        }
      ],
      "anonymous": false
    }
  ],
  "bytecode": {
    "object": "0x60a060405234801561000f575f80fd5b5030608052600480546001600160a01b031916339081179091556040515f907fb532073b38c83145e3e5135377a08bf9aab55bc0fd7c1179cd4fb995d2a5159c908290a36101f45f81815260056020527f526b19181003b5c873519ed63635fe97b1329efa2ea6c0dd27b500090f692847805462ffffff1916600a9081179091556040519092915f80516020616d8e83398151915291a3610bb85f81815260056020527f920c3c101aeacc47298ad380e56bf5b36d68daf59bb11b6a0e451daf6a70b042805462ffffff1916603c9081179091556040519092915f80516020616d8e83398151915291a36127105f81815260056020527f4b632c5a4ef6f776d7578f74fb35c8372275e5c1cfdfcda32b7cd51134d0fd7e805462ffffff191660c89081179091556040519092915f80516020616d8e83398151915291a3608051616c2a6101645f395f6106260152616c2a5ff3fe608060405234801562000010575f80fd5b50600436106200009c575f3560e01c80635a31811b116200006b5780635a31811b14620001815780638903573014620001985780638a7c195f14620002225780638da5cb5b1462000239578063f2fde38b146200024d575f80fd5b806313af403514620000a05780631698ee8214620000b957806322afcccb14620001125780634e891212146200014b575b5f80fd5b620000b7620000b1366004620007b8565b62000264565b005b620000f5620000ca366004620007ee565b600660209081525f93845260408085208252928452828420905282529020546001600160a01b031681565b6040516001600160a01b0390911681526020015b60405180910390f35b620001376200012336600462000835565b60056020525f908152604090205460020b81565b60405160029190910b815260200162000109565b620001706200015c366004620007b8565b60076020525f908152604090205460ff1681565b604051901515815260200162000109565b620000f56200019236600462000851565b620002d6565b5f5460015460028054600354620001d9946001600160a01b03908116948116938382169362ffffff600160a01b82041693600160b81b90910490910b911686565b604080516001600160a01b03978816815295871660208701529386169385019390935262ffffff909116606084015260020b60808301529190911660a082015260c00162000109565b620000b762000233366004620008b0565b620004ca565b600454620000f5906001600160a01b031681565b620000b76200025e366004620007b8565b6200058c565b6004546001600160a01b031633146200027b575f80fd5b6004546040516001600160a01b038084169216907fb532073b38c83145e3e5135377a08bf9aab55bc0fd7c1179cd4fb995d2a5159c905f90a3600480546001600160a01b0319166001600160a01b0392909216919091179055565b5f620002e16200061b565b836001600160a01b0316856001600160a01b031603620002ff575f80fd5b5f80856001600160a01b0316876001600160a01b0316106200032357858762000326565b86865b90925090506001600160a01b0382166200033e575f80fd5b62ffffff85165f9081526005602052604081205460020b9081900362000362575f80fd5b6001600160a01b038381165f9081526006602090815260408083208685168452825280832062ffffff8b1684529091529020541615620003a0575f80fd5b620003b030848489858a62000652565b6001600160a01b038085165f81815260066020818152604080842089871680865290835281852062ffffff8f168087529084528286208054988a166001600160a01b0319998a16811790915591865293835281852095855294825280842092845291905290208054909216179055935084156200044a576001600160a01b0384165f908152600760205260409020805460ff191660011790555b8562ffffff16826001600160a01b0316846001600160a01b03167f01c58a80a1aa0c58a87e84b04379f1e79f8c12f7a8e9b377304dbcc781406ad1848989604051620004b79392919060029390930b835290151560208301526001600160a01b0316604082015260600190565b60405180910390a4505050949350505050565b6004546001600160a01b03163314620004e1575f80fd5b620f42408262ffffff1610620004f5575f80fd5b5f8160020b1380156200050c57506140008160020b125b62000515575f80fd5b62ffffff82165f9081526005602052604090205460020b1562000536575f80fd5b62ffffff8281165f81815260056020526040808220805462ffffff1916948616949094179093559151600284900b927fc66a3fdf07232cdd185febcc6579d408c241b47ae2f9907d84be655141eeaecc91a35050565b6004546001600160a01b03163314620005d05760405162461bcd60e51b81526020600482015260026024820152614e4f60f01b604482015260640160405180910390fd5b600480546001600160a01b0319166001600160a01b03831690811790915560405133907f70aea8d848e8a90fb7661b227dc522eb6395c3dac71b63cb59edd5c9899b2364905f90a350565b306001600160a01b037f0000000000000000000000000000000000000000000000000000000000000000161462000650575f80fd5b565b6040805160c0810182526001600160a01b03808916808352888216602080850182905292891684860181905262ffffff808a166060870181905260028a810b60808901523360a09098018890525f80546001600160a01b031990811690971781556001805488169096179095558054928b16600160b81b0262ffffff60b81b19600160a01b9093026001600160b81b031990941690941792909217169190911790556003805490921690931790559151909162000740918891889188918791016001600160a01b03948516815292909316602083015262ffffff166040820152901515606082015260800190565b6040516020818303038152906040528051906020012060405162000764906200078e565b8190604051809103905ff590508015801562000782573d5f803e3d5ffd5b50979650505050505050565b61630680620008ef83390190565b80356001600160a01b0381168114620007b3575f80fd5b919050565b5f60208284031215620007c9575f80fd5b620007d4826200079c565b9392505050565b803562ffffff81168114620007b3575f80fd5b5f805f6060848603121562000801575f80fd5b6200080c846200079c565b92506200081c602085016200079c565b91506200082c60408501620007db565b90509250925092565b5f6020828403121562000846575f80fd5b620007d482620007db565b5f805f806080858703121562000865575f80fd5b62000870856200079c565b935062000880602086016200079c565b92506200089060408601620007db565b915060608501358015158114620008a5575f80fd5b939692955090935050565b5f8060408385031215620008c2575f80fd5b620008cd83620007db565b915060208301358060020b8114620008e3575f80fd5b80915050925092905056fe61018060405234801562000011575f80fd5b503060805260408051630890357360e41b815290515f91339163890357309160048082019260c0929091908290030181865afa15801562000054573d5f803e3d5ffd5b505050506040513d601f19601f820116820180604052508101906200007a919062000182565b6001600160a01b039081166101205262ffffff9092166101005291811660e05291821660c052911660a052600281900b610140529050620000bb81620000cf565b6001600160801b0316610160525062000336565b5f8082620000e281620d89e71962000237565b620000ee919062000275565b90505f838062000102620d89e7196200029e565b6200010e919062000237565b6200011a919062000275565b90505f846200012a8484620002c1565b62000136919062000237565b62000143906001620002ef565b90506200015d62ffffff82166001600160801b036200030e565b95945050505050565b80516001600160a01b03811681146200017d575f80fd5b919050565b5f805f805f8060c0878903121562000198575f80fd5b620001a38762000166565b9550620001b36020880162000166565b9450620001c36040880162000166565b9350606087015162ffffff81168114620001db575f80fd5b8093505060808701518060020b8114620001f3575f80fd5b91506200020360a0880162000166565b90509295509295509295565b634e487b7160e01b5f52601260045260245ffd5b634e487b7160e01b5f52601160045260245ffd5b5f8160020b8360020b806200025057620002506200020f565b627fffff1982145f19821416156200026c576200026c62000223565b90059392505050565b5f8260020b8260020b028060020b915080821462000297576200029762000223565b5092915050565b5f8160020b627fffff198103620002b957620002b962000223565b5f0392915050565b600282810b9082900b03627fffff198112627fffff82131715620002e957620002e962000223565b92915050565b62ffffff81811683821601908082111562000297576200029762000223565b5f6001600160801b03838116806200032a576200032a6200020f565b92169190910492915050565b60805160a05160c05160e05161010051610120516101405161016051615ee86200041e5f395f8181610474015281816148ba01526148f101525f818161055d01528181610a0c01528181614925015261495701525f6105be01525f81816105e501528181610b0a0152818161167e01526116b401525f81816105970152818161104c0152818161173501528181611be8015281816120cb0152613b5101525f81816101aa015281816111350152818161170401528181611b5b015281816120140152613a3f01525f818161053601528181611ce40152611ead01525f6126e60152615ee85ff3fe608060405234801561000f575f80fd5b50600436106101a1575f3560e01c806370cf754a116100f3578063d0c93a7c11610093578063ddca3f431161006e578063ddca3f43146105e0578063f30583991461061b578063f30dba9314610624578063f637731d146106f7575f80fd5b8063d0c93a7c14610558578063d21220a714610592578063d5f39488146105b9575f80fd5b8063883bdbfd116100ce578063883bdbfd146104bc578063a34123a7146104dd578063a38807f2146104f0578063c45a015514610531575f80fd5b806370cf754a1461046f5780638206a4d11461049657806385b66729146104a9575f80fd5b80633850c7bd1161015e578063490e6cbc11610139578063490e6cbc146103aa5780634f1eb3d8146103bd578063514ea4bf146103d05780635339c29614610450575f80fd5b80633850c7bd146102dc5780633c8a7d8d146103805780634614131914610393575f80fd5b80630dfe1681146101a5578063128acb08146101e95780631a686502146102115780631ad8b03b1461023c578063252c09d71461027a57806332148f67146102c7575b5f80fd5b6101cc7f000000000000000000000000000000000000000000000000000000000000000081565b6040516001600160a01b0390911681526020015b60405180910390f35b6101fc6101f73660046154ac565b61070a565b604080519283526020830191909152016101e0565b600454610224906001600160801b031681565b6040516001600160801b0390911681526020016101e0565b60035461025a906001600160801b0380821691600160801b90041682565b604080516001600160801b039384168152929091166020830152016101e0565b61028d61028836600461552c565b6112a3565b6040805163ffffffff909516855260069390930b60208501526001600160a01b0390911691830191909152151560608201526080016101e0565b6102da6102d5366004615543565b6112e7565b005b5f5461032f906001600160a01b03811690600160a01b810460020b9061ffff600160b81b8204811691600160c81b8104821691600160d81b8204169060ff600160e81b8204811691600160f01b90041687565b604080516001600160a01b03909816885260029690960b602088015261ffff94851695870195909552918316606086015291909116608084015260ff1660a0830152151560c082015260e0016101e0565b6101fc61038e36600461558b565b6113c0565b61039c60025481565b6040519081526020016101e0565b6102da6103b83660046155d5565b6115fe565b61025a6103cb36600461563a565b611a50565b61041a6103de36600461552c565b60076020525f908152604090208054600182015460028301546003909301546001600160801b0392831693919281811691600160801b90041685565b604080516001600160801b039687168152602081019590955284019290925283166060830152909116608082015260a0016101e0565b61039c61045e36600461569d565b60066020525f908152604090205481565b6102247f000000000000000000000000000000000000000000000000000000000000000081565b6102da6104a43660046156cd565b611c96565b61025a6104b73660046156fe565b611e5c565b6104cf6104ca366004615740565b612166565b6040516101e09291906157af565b6101fc6104eb366004615834565b6121ec565b6105036104fe36600461585d565b61236d565b6040805160069490940b84526001600160a01b03909216602084015263ffffffff16908201526060016101e0565b6101cc7f000000000000000000000000000000000000000000000000000000000000000081565b61057f7f000000000000000000000000000000000000000000000000000000000000000081565b60405160029190910b81526020016101e0565b6101cc7f000000000000000000000000000000000000000000000000000000000000000081565b6101cc7f000000000000000000000000000000000000000000000000000000000000000081565b6106077f000000000000000000000000000000000000000000000000000000000000000081565b60405162ffffff90911681526020016101e0565b61039c60015481565b61069b610632366004615885565b60056020525f908152604090208054600182015460028301546003909301546001600160801b03831693600160801b909304600f0b9290600681900b90600160381b81046001600160a01b031690600160d81b810463ffffffff1690600160f81b900460ff1688565b604080516001600160801b039099168952600f9790970b602089015295870194909452606086019290925260060b60808501526001600160a01b031660a084015263ffffffff1660c0830152151560e0820152610100016101e0565b6102da61070536600461589e565b6125a3565b5f806107146126db565b855f0361074d5760405162461bcd60e51b8152602060048201526002602482015261415360f01b60448201526064015b60405180910390fd5b6040805160e0810182525f546001600160a01b0381168252600160a01b810460020b602083015261ffff600160b81b8204811693830193909352600160c81b810483166060830152600160d81b8104909216608082015260ff600160e81b8304811660a0830152600160f01b909204909116151560c082018190526107e45760405162461bcd60e51b8152600401610744906158b9565b8761082e57805f01516001600160a01b0316866001600160a01b0316118015610829575073fffd8963efd1fc6a506488495d951d5263988d266001600160a01b038716105b61085f565b805f01516001600160a01b0316866001600160a01b031610801561085f57506401000276a36001600160a01b038716115b6108915760405162461bcd60e51b815260206004820152600360248201526214d41360ea1b6044820152606401610744565b5f805460ff60f01b191681556040805160c08101909152808a6108bf5760048460a0015160ff16901c6108d0565b60108460a001516108d091906158ea565b60ff1681526004546001600160801b031660208201526040014263ffffffff1681526020015f60060b81526020015f6001600160a01b031681526020015f151581525090505f80891390505f6040518060e001604052808b81526020015f8152602001855f01516001600160a01b03168152602001856020015160020b81526020018c61095f57600254610963565b6001545b81526020015f6001600160801b0316815260200184602001516001600160801b031681525090505b8051158015906109b15750886001600160a01b031681604001516001600160a01b031614155b15610dfe576040805160e0810182525f80825260208201819052918101829052606081018290526080810182905260a0810182905260c081019190915260408201516001600160a01b031681526060820151610a31906006907f00000000000000000000000000000000000000000000000000000000000000008f612711565b1515604083015260020b60208201819052620d89e7191315610a5c57620d89e7196020820152610a90565b610a69620d89e71961591f565b60020b816020015160020b1315610a9057610a87620d89e71961591f565b60020b60208201525b610a9d81602001516128c6565b6001600160a01b031660608201526040820151610b2e908d610ad7578b6001600160a01b031683606001516001600160a01b031611610af1565b8b6001600160a01b031683606001516001600160a01b0316105b610aff578260600151610b01565b8b5b60c085015185517f0000000000000000000000000000000000000000000000000000000000000000612ce0565b60c085015260a084015260808301526001600160a01b031660408301528215610ba657610b6d8160c001518260800151610b68919061593f565b612ef5565b82518390610b7c908390615952565b90525060a0810151610b9c90610b9190612ef5565b602084015190612f09565b6020830152610bf2565b610bb38160a00151612ef5565b82518390610bc2908390615978565b90525060c08101516080820151610bec91610be191610b68919061593f565b602084015190612f2d565b60208301525b835160ff1615610c4c575f845f015160ff168260c00151610c13919061599f565b9050808260c001818151610c2791906159b2565b90525060a083018051829190610c3e9083906159c5565b6001600160801b0316905250505b60c08201516001600160801b031615610c9457610c7f8160c00151600160801b8460c001516001600160801b0316612f4b565b82608001818151610c90919061593f565b9052505b80606001516001600160a01b031682604001516001600160a01b031603610dc257806040015115610d95578360a00151610d1857610cfa84604001515f8760200151886040015188602001518a6060015160086130b9909695949392919063ffffffff16565b6001600160a01b0316608086015260060b6060850152600160a08501525b5f610d6382602001518e610d2e57600154610d34565b84608001515b8f610d43578560800151610d47565b6002545b608089015160608a015160408b0151600595949392919061329e565b90508c15610d7757610d74816159e5565b90505b610d858360c00151826133b0565b6001600160801b031660c0840152505b8b610da4578060200151610db5565b60018160200151610db59190615a0a565b60020b6060830152610df8565b805f01516001600160a01b031682604001516001600160a01b031614610df857610def826040015161346f565b60020b60608301525b5061098b565b836020015160020b816060015160020b14610ec6575f80610e4b86604001518660400151886020015188602001518a606001518b6080015160086137a4909695949392919063ffffffff16565b604085015160608601515f805463ffffffff60b81b1916600160c81b61ffff9586160261ffff60b81b191617600160b81b9590941694909402929092176001600160b81b031916600160a01b62ffffff909316929092026001600160a01b031916919091176001600160a01b0390911617905550610eea9050565b60408101515f80546001600160a01b0319166001600160a01b039092169190911790555b8060c001516001600160801b031683602001516001600160801b031614610f305760c0810151600480546001600160801b0319166001600160801b039092169190911790555b8a15610f9a57608081015160015560a08101516001600160801b031615610f955760a0810151600380545f90610f709084906001600160801b03166159c5565b92506101000a8154816001600160801b0302191690836001600160801b031602179055505b611001565b608081015160025560a08101516001600160801b0316156110015760a081015160038054601090610fdc908490600160801b90046001600160801b03166159c5565b92506101000a8154816001600160801b0302191690836001600160801b031602179055505b8115158b151514611022576020810151815161101d908c615952565b611034565b805161102e908b615952565b81602001515b90965094508a15611128575f85121561107a5761107a7f00000000000000000000000000000000000000000000000000000000000000008d61107588615a2f565b61392b565b5f611083613a26565b60405163fa461e3360e01b8152909150339063fa461e33906110af908a908a908e908e90600401615a71565b5f604051808303815f87803b1580156110c6575f80fd5b505af11580156110d8573d5f803e3d5ffd5b505050506110e4613a26565b6110ee8289613b1f565b11156111225760405162461bcd60e51b815260206004820152600360248201526249494160e81b6044820152606401610744565b50611208565b5f86121561115e5761115e7f00000000000000000000000000000000000000000000000000000000000000008d61107589615a2f565b5f611167613b38565b60405163fa461e3360e01b8152909150339063fa461e3390611193908a908a908e908e90600401615a71565b5f604051808303815f87803b1580156111aa575f80fd5b505af11580156111bc573d5f803e3d5ffd5b505050506111c8613b38565b6111d28288613b1f565b11156112065760405162461bcd60e51b815260206004820152600360248201526249494160e81b6044820152606401610744565b505b60408082015160c083015160608085015184518b8152602081018b90526001600160a01b03948516958101959095526001600160801b039092169084015260020b60808301528d169033907fc42079f94a6350d7e6235f29174924f928cc2ac818eb64fed8004e115fbcca679060a00160405180910390a350505f805460ff60f01b1916600160f01b17905550919890975095505050505050565b60088161ffff81106112b3575f80fd5b015463ffffffff81169150600160201b810460060b90600160581b81046001600160a01b031690600160f81b900460ff1684565b5f54600160f01b900460ff1661130f5760405162461bcd60e51b8152600401610744906158b9565b5f805460ff60f01b191690556113236126db565b5f8054600160d81b900461ffff169061133e60088385613b83565b5f805461ffff808416600160d81b810261ffff60d81b19909316929092179092559192508316146113a9576040805161ffff8085168252831660208201527fac49e518f90a358f652e4400164f05a5d8f7e35e7747279bc3a93dbf584e125a91015b60405180910390a15b50505f805460ff60f01b1916600160f01b17905550565b5f80548190600160f01b900460ff166113eb5760405162461bcd60e51b8152600401610744906158b9565b5f805460ff60f01b191690556001600160801b038516611409575f80fd5b5f8061145660405180608001604052808c6001600160a01b031681526020018b60020b81526020018a60020b815260200161144c8a6001600160801b0316613c30565b600f0b9052613c45565b92509250508193508092505f805f86111561147657611473613a26565b91505b841561148757611484613b38565b90505b60405163d348799760e01b8152339063d3487997906114b090899089908d908d90600401615a71565b5f604051808303815f87803b1580156114c7575f80fd5b505af11580156114d9573d5f803e3d5ffd5b505050505f86111561152a576114ed613a26565b6114f78388613b1f565b111561152a5760405162461bcd60e51b815260206004820152600260248201526104d360f41b6044820152606401610744565b841561157557611538613b38565b6115428287613b1f565b11156115755760405162461bcd60e51b81526020600482015260026024820152614d3160f01b6044820152606401610744565b604080513381526001600160801b038b1660208201529081018790526060810186905260028b810b91908d900b906001600160a01b038f16907f7a53080ba414158be7ec69b987b5fb7d07dee101fe85488f0853ae16239d0bde9060800160405180910390a450505f805460ff60f01b1916600160f01b17905550919890975095505050505050565b5f54600160f01b900460ff166116265760405162461bcd60e51b8152600401610744906158b9565b5f805460ff60f01b1916905561163a6126db565b6004546001600160801b0316806116775760405162461bcd60e51b81526020600482015260016024820152601360fa1b6044820152606401610744565b5f6116ab867f000000000000000000000000000000000000000000000000000000000000000062ffffff16620f4240613e75565b90505f6116e1867f000000000000000000000000000000000000000000000000000000000000000062ffffff16620f4240613e75565b90505f6116ec613a26565b90505f6116f7613b38565b9050881561172a5761172a7f00000000000000000000000000000000000000000000000000000000000000008b8b61392b565b871561175b5761175b7f00000000000000000000000000000000000000000000000000000000000000008b8a61392b565b604051630e9cbafb60e41b8152339063e9cbafb09061178490879087908c908c90600401615a71565b5f604051808303815f87803b15801561179b575f80fd5b505af11580156117ad573d5f803e3d5ffd5b505050505f6117ba613a26565b90505f6117c5613b38565b9050816117d28588613b1f565b11156118055760405162461bcd60e51b8152602060048201526002602482015261046360f41b6044820152606401610744565b806118108487613b1f565b11156118435760405162461bcd60e51b8152602060048201526002602482015261463160f01b6044820152606401610744565b5f61184e85846159b2565b90505f61185b85846159b2565b90508115611928575f805461187c90601090600160e81b900460ff166158ea565b90505f60ff82161561189a5761189560ff83168561599f565b61189c565b5f5b90506001600160801b038116156118ef57600380548291905f906118ca9084906001600160801b03166159c5565b92506101000a8154816001600160801b0302191690836001600160801b031602179055505b6119106118fc82866159b2565b600160801b8d6001600160801b0316612f4b565b60015f828254611920919061593f565b909155505050505b80156119d9575f8054600160e81b900460041c600f169081156119575761195260ff83168461599f565b611959565b5f5b90506001600160801b038116156119b4576003805482919060109061198f908490600160801b90046001600160801b03166159c5565b92506101000a8154816001600160801b0302191690836001600160801b031602179055505b6119c16118fc82856159b2565b60025f8282546119d1919061593f565b909155505050505b604080518e8152602081018e9052908101839052606081018290526001600160a01b038f169033907fbdbdb71d7860376ba52b25a5028beea23581364a40522f6bcfb86bb1f2dca6339060800160405180910390a350505f805460ff60f01b1916600160f01b179055505050505050505050505050565b5f80548190600160f01b900460ff16611a7b5760405162461bcd60e51b8152600401610744906158b9565b5f805460ff60f01b19168155611a946007338989613eba565b60038101549091506001600160801b0390811690861611611ab55784611ac4565b60038101546001600160801b03165b60038201549093506001600160801b03600160801b909104811690851611611aec5783611b02565b6003810154600160801b90046001600160801b03165b91506001600160801b03831615611b8a576003810180548491905f90611b329084906001600160801b0316615a9a565b92506101000a8154816001600160801b0302191690836001600160801b03160217905550611b8a7f000000000000000000000000000000000000000000000000000000000000000089856001600160801b031661392b565b6001600160801b03821615611c1757818160030160108282829054906101000a90046001600160801b0316611bbf9190615a9a565b92506101000a8154816001600160801b0302191690836001600160801b03160217905550611c177f000000000000000000000000000000000000000000000000000000000000000089846001600160801b031661392b565b604080516001600160a01b038a1681526001600160801b0385811660208301528416818301529051600288810b92908a900b9133917f70935338e69775456a85ddef226c395fb668b63fa0115f5f20610b388e6ca9c0919081900360600190a4505f805460ff60f01b1916600160f01b17905590969095509350505050565b5f54600160f01b900460ff16611cbe5760405162461bcd60e51b8152600401610744906158b9565b5f805460ff60f01b1916905560408051638da5cb5b60e01b815290516001600160a01b037f00000000000000000000000000000000000000000000000000000000000000001691638da5cb5b9160048083019260209291908290030181865afa158015611d2d573d5f803e3d5ffd5b505050506040513d601f19601f82011682018060405250810190611d519190615aba565b6001600160a01b0316336001600160a01b031614611d6d575f80fd5b60ff82161580611d90575060048260ff1610158015611d905750600a8260ff1611155b8015611dba575060ff81161580611dba575060048160ff1610158015611dba5750600a8160ff1611155b611dc2575f80fd5b5f54600160e81b900460ff16611de0600483901b610ff01684615ad5565b5f805460ff92909216600160e81b0260ff60e81b199092169190911790557f973d8d92bb299f4af6ce49b52a8adb85ae46b9f214c4c4fc06ac77401237b133611e2a6010836158ea565b6040805160ff9283168152600f600486901c1660208201528683169181019190915290841660608201526080016113a0565b5f80548190600160f01b900460ff16611e875760405162461bcd60e51b8152600401610744906158b9565b5f805460ff60f01b1916905560408051638da5cb5b60e01b815290516001600160a01b037f00000000000000000000000000000000000000000000000000000000000000001691638da5cb5b9160048083019260209291908290030181865afa158015611ef6573d5f803e3d5ffd5b505050506040513d601f19601f82011682018060405250810190611f1a9190615aba565b6001600160a01b0316336001600160a01b031614611f36575f80fd5b6003546001600160801b0390811690851611611f525783611f5f565b6003546001600160801b03165b6003549092506001600160801b03600160801b909104811690841611611f855782611f99565b600354600160801b90046001600160801b03165b90506001600160801b03821615612043576003546001600160801b0390811690831603611fce5781611fca81615aee565b9250505b600380548391905f90611feb9084906001600160801b0316615a9a565b92506101000a8154816001600160801b0302191690836001600160801b031602179055506120437f000000000000000000000000000000000000000000000000000000000000000086846001600160801b031661392b565b6001600160801b038116156120fa576003546001600160801b03600160801b90910481169082160361207d578061207981615aee565b9150505b600380548291906010906120a2908490600160801b90046001600160801b0316615a9a565b92506101000a8154816001600160801b0302191690836001600160801b031602179055506120fa7f000000000000000000000000000000000000000000000000000000000000000086836001600160801b031661392b565b604080516001600160801b038085168252831660208201526001600160a01b0387169133917f596b573906218d3411850b26a6b437d6c4522fdb43d2d2386263f86d50b8b151910160405180910390a35f805460ff60f01b1916600160f01b1790559094909350915050565b6060806121716126db565b6121e0428585808060200260200160405190810160405280939291908181526020018383602002808284375f92018290525054600454600896959450600160a01b820460020b935061ffff600160b81b8304811693506001600160801b0390911691600160c81b900416613f16565b915091505b9250929050565b5f80548190600160f01b900460ff166122175760405162461bcd60e51b8152600401610744906158b9565b5f805460ff60f01b1916815560408051608081018252338152600288810b602083015287900b918101919091528190819061226b90606081016122626001600160801b038a16613c30565b61144c906159e5565b9250925092508161227b90615a2f565b945061228681615a2f565b93505f85118061229557505f84115b156122f75760038301546122b39086906001600160801b03166159c5565b60038401546122d3908690600160801b90046001600160801b03166159c5565b6001600160801b039182169116600160801b026001600160801b0319161760038401555b604080516001600160801b038816815260208101879052908101859052600288810b91908a900b9033907f0c396cd989a39f4459b5fa1aed6a9a8dcdbc45908acfd67e028cd568da98982c9060600160405180910390a450505f805460ff60f01b1916600160f01b179055509094909350915050565b5f805f6123786126db565b6123828585614083565b600285810b5f908152600560205260408082209287900b825281206003830154600681900b93600160381b82046001600160a01b0316928492600160d81b810463ffffffff169284929091600160f81b900460ff16806123e0575f80fd5b6003820154600681900b9850600160381b81046001600160a01b03169650600160d81b810463ffffffff169450600160f81b900460ff1680612420575f80fd5b50506040805160e0810182525f546001600160a01b0381168252600160a01b8104600290810b6020840181905261ffff600160b81b8404811695850195909552600160c81b830485166060850152600160d81b8304909416608084015260ff600160e81b8304811660a0850152600160f01b909204909116151560c08301529093508e900b131590506124dd576124b78688615b0f565b6124c18587615b3c565b6124cb8486615b5c565b9950995099505050505050505061259c565b8a60020b816020015160020b121561257e5760208101516040820151600454606084015142935f9384936125259360089388938793919290916001600160801b0316906130b9565b9092509050886125358b84615b0f565b61253f9190615b0f565b8761254a8a84615b3c565b6125549190615b3c565b8661255f8987615b5c565b6125699190615b5c565b9c509c509c505050505050505050505061259c565b6125888787615b0f565b6125928686615b3c565b6124cb8585615b5c565b9250925092565b5f546001600160a01b0316156125e05760405162461bcd60e51b8152602060048201526002602482015261414960f01b6044820152606401610744565b5f6125ea8261346f565b604080516080808201835263ffffffff42168083525f602080850182905284860182905260016060958601819052600160f81b909317600855855160e0810187526001600160a01b038a16808252600289900b82840181905282890185905296820185905294810184905260a0810183905260c00183905281546001600160b81b0319168417600160a01b62ffffff8916021767ffffffffffffffff60b81b19166501000001000160c81b1790915584519283528201929092528251939450909283927f98636036cb66a9c19a37435efc1e90142190214e8abeb821bdba3f2990dd4c95928290030190a150505050565b306001600160a01b037f0000000000000000000000000000000000000000000000000000000000000000161461270f575f80fd5b565b5f808061271e8587615b79565b90505f8660020b12801561273d57506127378587615bb1565b60020b15155b15612750578061274c81615bd2565b9150505b83156127fa575f8061276183614148565b90925090505f600160ff831681901b9061277b90826159b2565b612785919061593f565b600184900b5f90815260208c9052604090205481168015159650909150856127c457886127b560ff851687615a0a565b6127bf9190615bea565b6127ef565b886127ce82614164565b6127d89085615c09565b6127e59060ff1687615a0a565b6127ef9190615bea565b9650505050506128bc565b5f8061280f61280a846001615c22565b614148565b90925090505f612826600160ff841681901b6159b2565b600184900b5f90815260208c90526040902054901990811680151596509091508561287e57886128578460ff615c09565b60ff16612865876001615c22565b61286f9190615c22565b6128799190615bea565b6128b5565b888361288983614251565b6128939190615c09565b60ff166128a1876001615c22565b6128ab9190615c22565b6128b59190615bea565b9650505050505b5094509492505050565b5f805f8360020b126128db578260020b6128e8565b8260020b6128e890615a2f565b90506128f7620d89e71961591f565b62ffffff1681111561292f5760405162461bcd60e51b81526020600482015260016024820152601560fa1b6044820152606401610744565b5f816001165f0361294457600160801b612956565b6ffffcb933bd6fad37aa2d162d1a5940015b70ffffffffffffffffffffffffffffffffff1690506002821615612995576080612990826ffff97272373d413259a46990580e213a615c47565b901c90505b60048216156129bf5760806129ba826ffff2e50f5f656932ef12357cf3c7fdcc615c47565b901c90505b60088216156129e95760806129e4826fffe5caca7e10e4e61c3624eaa0941cd0615c47565b901c90505b6010821615612a13576080612a0e826fffcb9843d60f6159c9db58835c926644615c47565b901c90505b6020821615612a3d576080612a38826fff973b41fa98c081472e6896dfb254c0615c47565b901c90505b6040821615612a67576080612a62826fff2ea16466c96a3843ec78b326b52861615c47565b901c90505b6080821615612a91576080612a8c826ffe5dee046a99a2a811c461f1969c3053615c47565b901c90505b610100821615612abc576080612ab7826ffcbe86c7900a88aedcffc83b479aa3a4615c47565b901c90505b610200821615612ae7576080612ae2826ff987a7253ac413176f2b074cf7815e54615c47565b901c90505b610400821615612b12576080612b0d826ff3392b0822b70005940c7a398e4b70f3615c47565b901c90505b610800821615612b3d576080612b38826fe7159475a2c29b7443b29c7fa6e889d9615c47565b901c90505b611000821615612b68576080612b63826fd097f3bdfd2022b8845ad8f792aa5825615c47565b901c90505b612000821615612b93576080612b8e826fa9f746462d870fdf8a65dc1f90e061e5615c47565b901c90505b614000821615612bbe576080612bb9826f70d869a156d2a1b890bb3df62baf32f7615c47565b901c90505b618000821615612be9576080612be4826f31be135f97d08fd981231505542fcfa6615c47565b901c90505b62010000821615612c15576080612c10826f09aa508b5b7a84e1c677de54f3e99bc9615c47565b901c90505b62020000821615612c40576080612c3b826e5d6af8dedb81196699c329225ee604615c47565b901c90505b62040000821615612c6a576080612c65826d2216e584f5fa1ea926041bedfe98615c47565b901c90505b62080000821615612c92576080612c8d826b048a170391f7dc42444e8fa2615c47565b901c90505b5f8460020b1315612cab57612ca8815f1961599f565b90505b612cb9600160201b82615c5e565b15612cc5576001612cc7565b5f5b612cd89060ff16602083901c61593f565b949350505050565b5f8080806001600160a01b03808916908a161015818712801590612d6a575f612d1e89612d108a620f4240615c71565b62ffffff16620f4240612f4b565b905082612d3757612d328c8c8c600161437a565b612d44565b612d448b8d8c60016143f7565b9550858110612d55578a9650612d64565b612d618c8b83866144ba565b96505b50612dbc565b81612d8057612d7b8b8b8b5f6143f7565b612d8c565b612d8c8a8c8b5f61437a565b935083612d9889615a2f565b10612da557899550612dbc565b612db98b8a612db38b615a2f565b85614502565b95505b6001600160a01b038a8116908716148215612e1e57808015612ddb5750815b612df157612dec878d8c60016143f7565b612df3565b855b9550808015612e00575081155b612e1557612e10878d8c5f61437a565b612e17565b845b9450612e67565b808015612e285750815b612e3e57612e398c888c600161437a565b612e40565b855b9550808015612e4d575081155b612e6257612e5d8c888c5f6143f7565b612e64565b845b94505b81158015612e7c5750612e7989615a2f565b85115b15612e8d57612e8a89615a2f565b94505b818015612eac57508a6001600160a01b0316876001600160a01b031614155b15612ec257612ebb868a6159b2565b9350612ee6565b612ee38662ffffff8a16612ed98b620f4240615c71565b62ffffff16613e75565b93505b50505095509550955095915050565b5f600160ff1b8210612f05575f80fd5b5090565b5f8082121583612f198482615952565b925082131514612f27575f80fd5b92915050565b5f8082121583612f3d8482615978565b925082121514612f27575f80fd5b5f80805f19858709858702925082811083820303915050805f03612f7f575f8411612f74575f80fd5b5082900490506130b2565b808411612f8a575f80fd5b5f848688098084039381119092039190505f85612fa681615a2f565b16958690049593849004935f819003046001019050612fc58184615c47565b909317925f612fd5876003615c47565b6002189050612fe48188615c47565b612fef9060026159b2565b612ff99082615c47565b90506130058188615c47565b6130109060026159b2565b61301a9082615c47565b90506130268188615c47565b6130319060026159b2565b61303b9082615c47565b90506130478188615c47565b6130529060026159b2565b61305c9082615c47565b90506130688188615c47565b6130739060026159b2565b61307d9082615c47565b90506130898188615c47565b6130949060026159b2565b61309e9082615c47565b90506130aa8186615c47565b955050505050505b9392505050565b5f808663ffffffff165f0361315f575f898661ffff1661ffff81106130e0576130e0615c8d565b60408051608081018252919092015463ffffffff808216808452600160201b830460060b6020850152600160581b83046001600160a01b031694840194909452600160f81b90910460ff16151560608301529092508a161461314b57613148818a8988614548565b90505b806020015181604001519250925050613292565b5f61316a888a615b5c565b90505f8061317d8c8c858c8c8c8c614623565b91509150815f015163ffffffff168363ffffffff16036131ad578160200151826040015194509450505050613292565b805f015163ffffffff168363ffffffff16036131d9578060200151816040015194509450505050613292565b815181515f916131e891615b5c565b83519091505f906131f99086615b5c565b90508060030b8260030b856020015185602001516132179190615b0f565b6132219190615ca1565b61322b9190615cd4565b846020015161323a9190615cf3565b8263ffffffff168263ffffffff168660400151866040015161325c9190615b3c565b6001600160a01b031661326f9190615c47565b613279919061599f565b85604001516132889190615d20565b9650965050505050505b97509795505050505050565b600286900b5f90815260208890526040812060018101546132bf90886159b2565b600182015560028101546132d390876159b2565b600282015560038101546132f790600160381b90046001600160a01b031686615b3c565b6003820180546001600160a01b0392909216600160381b02670100000000000000600160d81b031990921691909117908190556133379060060b85615b0f565b60038201805466ffffffffffffff191666ffffffffffffff92909216919091179081905561337290600160d81b900463ffffffff1684615b5c565b60038201805463ffffffff92909216600160d81b0263ffffffff60d81b1990921691909117905554600160801b9004600f0b98975050505050505050565b5f8082600f0b121561341c576001600160801b0383166133cf836159e5565b6133d99085615a9a565b9150816001600160801b0316106134175760405162461bcd60e51b81526020600482015260026024820152614c5360f01b6044820152606401610744565b612f27565b6001600160801b03831661343083856159c5565b9150816001600160801b03161015612f275760405162461bcd60e51b81526020600482015260026024820152614c4160f01b6044820152606401610744565b5f6401000276a36001600160a01b038316108015906134aa575073fffd8963efd1fc6a506488495d951d5263988d266001600160a01b038316105b6134da5760405162461bcd60e51b81526020600482015260016024820152602960f91b6044820152606401610744565b640100000000600160c01b03602083901b166001600160801b03811160071b81811c67ffffffffffffffff811160061b90811c63ffffffff811160051b90811c61ffff811160041b90811c60ff8111600390811b91821c600f811160021b90811c918211600190811b92831c979088119617909417909217179091171717608081106135755761356b607f826159b2565b83901c9150613586565b61358081607f6159b2565b83901b91505b5f6040613594608084615952565b901b9050828302607f1c92508260801c80603f1b8217915083811c935050828302607f1c92508260801c80603e1b8217915083811c935050828302607f1c92508260801c80603d1b8217915083811c935050828302607f1c92508260801c80603c1b8217915083811c935050828302607f1c92508260801c80603b1b8217915083811c935050828302607f1c92508260801c80603a1b8217915083811c935050828302607f1c92508260801c8060391b8217915083811c935050828302607f1c92508260801c8060381b8217915083811c935050828302607f1c92508260801c8060371b8217915083811c935050828302607f1c92508260801c8060361b8217915083811c935050828302607f1c92508260801c8060351b8217915083811c935050828302607f1c92508260801c8060341b8217915083811c935050828302607f1c92508260801c8060331b8217915083811c935050828302607f1c92508260801c8060321b82179150505f81693627a301d71055774c856137169190615d40565b90505f60806137356f028f6481ab7f045a5af012a19d003aaa84615952565b901d90505f6080613756846fdb2df09e81959a81455e260799a0632f615978565b901d90508060020b8260020b1461379557886001600160a01b031661377a826128c6565b6001600160a01b0316111561378f5781613797565b80613797565b815b9998505050505050505050565b5f805f898961ffff1661ffff81106137be576137be615c8d565b60408051608081018252919092015463ffffffff808216808452600160201b830460060b6020850152600160581b83046001600160a01b031694840194909452600160f81b90910460ff1615156060830152909250891690036138275788859250925050613292565b8461ffff168461ffff1611801561384f5750613844600186615d6f565b61ffff168961ffff16145b1561385c57839150613860565b8491505b8161386c8a6001615d8a565b6138769190615da5565b925061388481898989614548565b8a8461ffff1661ffff811061389b5761389b615c8d565b825191018054602084015160408501516060909501511515600160f81b026001600160f81b036001600160a01b03909616600160581b02959095166affffffffffffffffffffff66ffffffffffffff909216600160201b026affffffffffffffffffffff1990931663ffffffff909516949094179190911716919091179190911790555097509795505050505050565b604080516001600160a01b038481166024830152604480830185905283518084039091018152606490920183526020820180516001600160e01b031663a9059cbb60e01b17905291515f928392908716916139869190615dc5565b5f604051808303815f865af19150503d805f81146139bf576040519150601f19603f3d011682016040523d82523d5f602084013e6139c4565b606091505b50915091508180156139ee5750805115806139ee5750808060200190518101906139ee9190615df1565b613a1f5760405162461bcd60e51b81526020600482015260026024820152612a2360f11b6044820152606401610744565b5050505050565b6040513060248201525f90819081906001600160a01b037f000000000000000000000000000000000000000000000000000000000000000016906370a0823160e01b906044015b60408051601f198184030181529181526020820180516001600160e01b03166001600160e01b0319909416939093179092529051613aab9190615dc5565b5f60405180830381855afa9150503d805f8114613ae3576040519150601f19603f3d011682016040523d82523d5f602084013e613ae8565b606091505b5091509150818015613afc57506020815110155b613b04575f80fd5b80806020019051810190613b189190615e0c565b9250505090565b5f82613b2b838261593f565b9150811015612f27575f80fd5b6040513060248201525f90819081906001600160a01b037f000000000000000000000000000000000000000000000000000000000000000016906370a0823160e01b90604401613a6d565b5f808361ffff1611613bbb5760405162461bcd60e51b81526020600482015260016024820152604960f81b6044820152606401610744565b8261ffff168261ffff1611613bd15750816130b2565b825b8261ffff168161ffff161015613c27576001858261ffff1661ffff8110613bfc57613bfc615c8d565b01805463ffffffff191663ffffffff9290921691909117905580613c1f81615e23565b915050613bd3565b50909392505050565b80600f81900b8114613c40575f80fd5b919050565b5f805f613c506126db565b613c6284602001518560400151614083565b6040805160e0810182525f546001600160a01b0381168252600160a01b810460020b602080840182905261ffff600160b81b8404811685870152600160c81b84048116606080870191909152600160d81b8504909116608086015260ff600160e81b8504811660a0870152600160f01b909404909316151560c085015288519089015194890151928901519394613cff949193909290919061483c565b93508460600151600f0b5f14613e6d57846020015160020b816020015160020b1215613d5357613d4c613d3586602001516128c6565b613d4287604001516128c6565b8760600151614a19565b9250613e6d565b846040015160020b816020015160020b1215613e435760045460408201516001600160801b0390911690613d9e904260208501516060860151608087015160089493929187916137a4565b5f805463ffffffff60b81b1916600160c81b61ffff9384160261ffff60b81b191617600160b81b939092169290920217905581516040870151613def9190613de5906128c6565b8860600151614a19565b9350613e0d613e0187602001516128c6565b83516060890151614a59565b9250613e1d8187606001516133b0565b600480546001600160801b0319166001600160801b039290921691909117905550613e6d565b613e6a613e5386602001516128c6565b613e6087604001516128c6565b8760600151614a59565b91505b509193909250565b5f613e81848484612f4b565b90505f8280613e9257613e926158d6565b84860911156130b2575f198110613ea7575f80fd5b80613eb181615e43565b95945050505050565b6040805160609490941b6bffffffffffffffffffffffff191660208086019190915260e893841b60348601529190921b60378401528151601a818503018152603a90930182528251928101929092205f90815292909152902090565b6060805f8361ffff1611613f505760405162461bcd60e51b81526020600482015260016024820152604960f81b6044820152606401610744565b865167ffffffffffffffff811115613f6a57613f6a615e5b565b604051908082528060200260200182016040528015613f93578160200160208202803683370190505b509150865167ffffffffffffffff811115613fb057613fb0615e5b565b604051908082528060200260200182016040528015613fd9578160200160208202803683370190505b5090505f5b87518110156140765761400f8a8a8a8481518110613ffe57613ffe615c8d565b60200260200101518a8a8a8a6130b9565b84838151811061402157614021615c8d565b6020026020010184848151811061403a5761403a615c8d565b60200260200101826001600160a01b03166001600160a01b03168152508260060b60060b8152505050808061406e90615e43565b915050613fde565b5097509795505050505050565b8060020b8260020b126140be5760405162461bcd60e51b8152602060048201526003602482015262544c5560e81b6044820152606401610744565b620d89e719600283900b12156140fc5760405162461bcd60e51b8152602060048201526003602482015262544c4d60e81b6044820152606401610744565b614109620d89e71961591f565b60020b8160020b13156141445760405162461bcd60e51b815260206004820152600360248201526254554d60e81b6044820152606401610744565b5050565b600281900b60081d5f61415d61010084615bb1565b9050915091565b5f808211614170575f80fd5b600160801b821061418e57608091821c9161418b9082615ad5565b90505b6801000000000000000082106141b157604091821c916141ae9082615ad5565b90505b600160201b82106141cf57602091821c916141cc9082615ad5565b90505b6201000082106141ec57601091821c916141e99082615ad5565b90505b610100821061420857600891821c916142059082615ad5565b90505b6010821061422357600491821c916142209082615ad5565b90505b6004821061423e57600291821c9161423b9082615ad5565b90505b60028210613c4057612f27600182615ad5565b5f80821161425d575f80fd5b5060ff6001600160801b038216156142815761427a608082615c09565b9050614289565b608082901c91505b67ffffffffffffffff8216156142ab576142a4604082615c09565b90506142b3565b604082901c91505b63ffffffff8216156142d1576142ca602082615c09565b90506142d9565b602082901c91505b61ffff8216156142f5576142ee601082615c09565b90506142fd565b601082901c91505b60ff82161561431857614311600882615c09565b9050614320565b600882901c91505b600f82161561433b57614334600482615c09565b9050614343565b600482901c91505b600382161561435e57614357600282615c09565b9050614366565b600282901c91505b6001821615613c4057612f27600182615c09565b5f836001600160a01b0316856001600160a01b03161115614399579293925b816143cd576143c86001600160801b0384166143b58787615b3c565b6001600160a01b0316600160601b612f4b565b613eb1565b613eb16001600160801b0384166143e48787615b3c565b6001600160a01b0316600160601b613e75565b5f836001600160a01b0316856001600160a01b03161115614416579293925b600160601b600160e01b03606084901b165f6144328787615b3c565b6001600160a01b031690505f876001600160a01b031611614451575f80fd5b8361448357866001600160a01b03166144748383896001600160a01b0316612f4b565b61447e919061599f565b6144af565b6144af61449a8383896001600160a01b0316613e75565b886001600160a01b0316808204910615150190565b979650505050505050565b5f80856001600160a01b0316116144cf575f80fd5b5f846001600160801b0316116144e3575f80fd5b816144f5576143c88585856001614a8b565b613eb18585856001614b6e565b5f80856001600160a01b031611614517575f80fd5b5f846001600160801b03161161452b575f80fd5b8161453c576143c88585855f614b6e565b613eb18585855f614a8b565b604080516080810182525f80825260208201819052918101829052606081019190915284515f906145799086615b5c565b905060405180608001604052808663ffffffff1681526020018263ffffffff168660020b6145a79190615cd4565b88602001516145b69190615cf3565b60060b81526020015f856001600160801b0316116145d55760016145d7565b845b6145f7906001600160801b031663ffffffff60801b608086901b16615e6f565b88604001516146069190615d20565b6001600160a01b0316815260016020909101529695505050505050565b604080516080810182525f808252602082018190529181018290526060810191909152604080516080810182525f808252602082018190529181018290526060810191909152888561ffff1661ffff811061468057614680615c8d565b60408051608081018252919092015463ffffffff8116808352600160201b820460060b6020840152600160581b82046001600160a01b031693830193909352600160f81b900460ff161515606082015292506146de90899089614c7e565b1561470a57815163ffffffff888116911614613292578161470183898988614548565b91509150613292565b8883614717876001615d8a565b6147219190615da5565b61ffff1661ffff811061473657614736615c8d565b60408051608081018252929091015463ffffffff81168352600160201b810460060b60208401526001600160a01b03600160581b8204169183019190915260ff600160f81b909104161515606082018190529092506147df57604080516080810182528a5463ffffffff81168252600160201b810460060b6020830152600160581b81046001600160a01b031692820192909252600160f81b90910460ff161515606082015291505b6147ed88835f015189614c7e565b61481f5760405162461bcd60e51b815260206004820152600360248201526213d31160ea1b6044820152606401610744565b61482c8989898887614d4a565b9150915097509795505050505050565b5f61484a6007878787613eba565b600154600254919250905f80600f87900b1561497f575f805460045442929182916148a59160089186918591600160a01b820460020b9161ffff600160b81b82048116926001600160801b031691600160c81b9004166130b9565b90925090506148de60058d8b8d8b8b87898b5f7f0000000000000000000000000000000000000000000000000000000000000000614f5b565b945061491560058c8b8d8b8b87898b60017f0000000000000000000000000000000000000000000000000000000000000000614f5b565b935084156149495761494960068d7f000000000000000000000000000000000000000000000000000000000000000061510f565b831561497b5761497b60068c7f000000000000000000000000000000000000000000000000000000000000000061510f565b5050505b5f8061499060058c8c8b8a8a61515f565b90925090506149a1878a8484615247565b5f89600f0b1215614a0a5783156149db5760028b810b5f908152600560205260408120818155600181018290559182018190556003909101555b8215614a0a5760028a810b5f908152600560205260408120818155600181018290559182018190556003909101555b50505050505095945050505050565b5f8082600f0b12614a3957614a34610b6885858560016143f7565b612cd8565b614a50610b688585614a4a866159e5565b5f6143f7565b612cd890615a2f565b5f8082600f0b12614a7457614a34610b68858585600161437a565b614a50610b688585614a85866159e5565b5f61437a565b5f8115614afb575f6001600160a01b03841115614abf57614aba84600160601b876001600160801b0316612f4b565b614ad6565b614ad66001600160801b038616606086901b61599f565b9050614af3614aee6001600160a01b03881683613b1f565b615435565b915050612cd8565b5f6001600160a01b03841115614b2857614b2384600160601b876001600160801b0316613e75565b614b45565b614b45606085901b6001600160801b038716808204910615150190565b905080866001600160a01b031611614b5b575f80fd5b614af3816001600160a01b0388166159b2565b5f825f03614b7d575083612cd8565b600160601b600160e01b03606085901b168215614c24575f6001600160a01b03871685614baa8282615c47565b9250614bb6908361599f565b03614bef575f614bc6828461593f565b9050828110614bed57614be383896001600160a01b031683613e75565b9350505050612cd8565b505b614c1b82614c1087614c0a6001600160a01b038c168461599f565b90613b1f565b808204910615150190565b92505050612cd8565b5f6001600160a01b03871685614c3a8282615c47565b9250614c46908361599f565b148015614c5257508082115b614c5a575f80fd5b5f614c6582846159b2565b9050614be3614aee848a6001600160a01b031684613e75565b5f8363ffffffff168363ffffffff1611158015614ca757508363ffffffff168263ffffffff1611155b15614cc3578163ffffffff168363ffffffff16111590506130b2565b5f8463ffffffff168463ffffffff1611614cf057614ceb63ffffffff8516600160201b615e94565b614cf8565b8363ffffffff165b64ffffffffff1690505f8563ffffffff168463ffffffff1611614d2e57614d2963ffffffff8516600160201b615e94565b614d36565b8363ffffffff165b64ffffffffff169091111595945050505050565b604080516080810182525f808252602082018190529181018290526060810191909152604080516080810182525f8082526020820181905291810182905260608101919091525f83614d9d866001615d8a565b614da79190615da5565b61ffff1690505f60018561ffff1683614dc0919061593f565b614dca91906159b2565b90505f5b6002614dda838561593f565b614de4919061599f565b905089614df561ffff881683615c5e565b61ffff8110614e0657614e06615c8d565b60408051608081018252929091015463ffffffff81168352600160201b810460060b60208401526001600160a01b03600160581b8204169183019190915260ff600160f81b90910416151560608201819052909550614e7157614e6a81600161593f565b9250614dce565b8961ffff8716614e8283600161593f565b614e8c9190615c5e565b61ffff8110614e9d57614e9d615c8d565b60408051608081018252929091015463ffffffff81168352600160201b810460060b60208401526001600160a01b03600160581b8204169183019190915260ff600160f81b909104161515606082015285519094505f90614f00908b908b614c7e565b9050808015614f185750614f188a8a875f0151614c7e565b15614f235750614f4e565b80614f3a57614f336001836159b2565b9250614f48565b614f4582600161593f565b93505b50614dce565b5050509550959350505050565b60028a900b5f90815260208c90526040812080546001600160801b031682614f83828d6133b0565b9050846001600160801b0316816001600160801b03161115614fcc5760405162461bcd60e51b81526020600482015260026024820152614c4f60f01b6044820152606401610744565b6001600160801b03818116159083168015919091141594505f0361507e578c60020b8e60020b1361506657600183018b9055600283018a905560038301805466ffffffffffffff8a166001600160f81b0319909116600160381b6001600160a01b038d16027fff00000000ffffffffffffffffffffffffffffffffffffffff00000000000000161717600160d81b63ffffffff8a16021790555b6003830180546001600160f81b0316600160f81b1790555b82546001600160801b0319166001600160801b038216178355856150c55782546150c0906150bb90600160801b9004600f90810b908f900b612f2d565b613c30565b6150e4565b82546150e4906150bb90600160801b9004600f90810b908f900b612f09565b83546001600160801b03918216600160801b0291161790925550909c9b505050505050505050505050565b6151198183615bb1565b60020b15615125575f80fd5b5f8061513461280a8486615b79565b600191820b5f9081526020979097526040909620805460ff9097169190911b90951890945550505050565b600285810b5f8181526020899052604080822088850b83529082209193849391929184918291908a900b1261519f575050600182015460028301546151c3565b60018401546151ae90896159b2565b91508360020154876151c091906159b2565b90505b5f808b60020b8b60020b12156151e457505060018301546002840154615208565b60018501546151f3908b6159b2565b915084600201548961520591906159b2565b90505b81615213858c6159b2565b61521d91906159b2565b97508061522a848b6159b2565b61523491906159b2565b9650505050505050965096945050505050565b6040805160a08101825285546001600160801b0390811682526001870154602083015260028701549282019290925260038601548083166060830152600160801b900490911660808201525f600f85900b81036152e25781516001600160801b03166152da5760405162461bcd60e51b815260206004820152600260248201526104e560f41b6044820152606401610744565b5080516152f1565b81516152ee90866133b0565b90505b5f61531a83602001518661530591906159b2565b84516001600160801b0316600160801b612f4b565b90505f61534584604001518661533091906159b2565b85516001600160801b0316600160801b612f4b565b905086600f0b5f1461536b5787546001600160801b0319166001600160801b0384161788555b60018801869055600288018590556001600160801b03821615158061539857505f816001600160801b0316115b1561542b576003880180548391905f906153bc9084906001600160801b03166159c5565b92506101000a8154816001600160801b0302191690836001600160801b03160217905550808860030160108282829054906101000a90046001600160801b031661540691906159c5565b92506101000a8154816001600160801b0302191690836001600160801b031602179055505b5050505050505050565b806001600160a01b0381168114613c40575f80fd5b6001600160a01b038116811461545e575f80fd5b50565b801515811461545e575f80fd5b5f8083601f84011261547e575f80fd5b50813567ffffffffffffffff811115615495575f80fd5b6020830191508360208285010111156121e5575f80fd5b5f805f805f8060a087890312156154c1575f80fd5b86356154cc8161544a565b955060208701356154dc81615461565b94506040870135935060608701356154f38161544a565b9250608087013567ffffffffffffffff81111561550e575f80fd5b61551a89828a0161546e565b979a9699509497509295939492505050565b5f6020828403121561553c575f80fd5b5035919050565b5f60208284031215615553575f80fd5b813561ffff811681146130b2575f80fd5b8035600281900b8114613c40575f80fd5b80356001600160801b0381168114613c40575f80fd5b5f805f805f8060a087890312156155a0575f80fd5b86356155ab8161544a565b95506155b960208801615564565b94506155c760408801615564565b93506154f360608801615575565b5f805f805f608086880312156155e9575f80fd5b85356155f48161544a565b94506020860135935060408601359250606086013567ffffffffffffffff81111561561d575f80fd5b6156298882890161546e565b969995985093965092949392505050565b5f805f805f60a0868803121561564e575f80fd5b85356156598161544a565b945061566760208701615564565b935061567560408701615564565b925061568360608701615575565b915061569160808701615575565b90509295509295909350565b5f602082840312156156ad575f80fd5b81358060010b81146130b2575f80fd5b803560ff81168114613c40575f80fd5b5f80604083850312156156de575f80fd5b6156e7836156bd565b91506156f5602084016156bd565b90509250929050565b5f805f60608486031215615710575f80fd5b833561571b8161544a565b925061572960208501615575565b915061573760408501615575565b90509250925092565b5f8060208385031215615751575f80fd5b823567ffffffffffffffff80821115615768575f80fd5b818501915085601f83011261577b575f80fd5b813581811115615789575f80fd5b8660208260051b850101111561579d575f80fd5b60209290920196919550909350505050565b604080825283519082018190525f906020906060840190828701845b828110156157ea57815160060b845292840192908401906001016157cb565b505050838103828501528451808252858301918301905f5b818110156158275783516001600160a01b031683529284019291840191600101615802565b5090979650505050505050565b5f805f60608486031215615846575f80fd5b61584f84615564565b925061572960208501615564565b5f806040838503121561586e575f80fd5b61587783615564565b91506156f560208401615564565b5f60208284031215615895575f80fd5b6130b282615564565b5f602082840312156158ae575f80fd5b81356130b28161544a565b6020808252600390820152624c4f4b60e81b604082015260600190565b634e487b7160e01b5f52601260045260245ffd5b5f60ff8316806158fc576158fc6158d6565b8060ff84160691505092915050565b634e487b7160e01b5f52601160045260245ffd5b5f8160020b627fffff1981036159375761593761590b565b5f0392915050565b80820180821115612f2757612f2761590b565b8181035f8312801583831316838312821617156159715761597161590b565b5092915050565b8082018281125f8312801582168215821617156159975761599761590b565b505092915050565b5f826159ad576159ad6158d6565b500490565b81810381811115612f2757612f2761590b565b6001600160801b038181168382160190808211156159715761597161590b565b5f81600f0b6f7fffffffffffffffffffffffffffffff1981036159375761593761590b565b600282810b9082900b03627fffff198112627fffff82131715612f2757612f2761590b565b5f600160ff1b8201615a4357615a4361590b565b505f0390565b81835281816020850137505f828201602090810191909152601f909101601f19169091010190565b848152836020820152606060408201525f615a90606083018486615a49565b9695505050505050565b6001600160801b038281168282160390808211156159715761597161590b565b5f60208284031215615aca575f80fd5b81516130b28161544a565b60ff8181168382160190811115612f2757612f2761590b565b5f6001600160801b03821680615b0657615b0661590b565b5f190192915050565b600682810b9082900b03667fffffffffffff198112667fffffffffffff82131715612f2757612f2761590b565b6001600160a01b038281168282160390808211156159715761597161590b565b63ffffffff8281168282160390808211156159715761597161590b565b5f8160020b8360020b80615b8f57615b8f6158d6565b627fffff1982145f1982141615615ba857615ba861590b565b90059392505050565b5f8260020b80615bc357615bc36158d6565b808360020b0791505092915050565b5f8160020b627fffff198103615b0657615b0661590b565b5f8260020b8260020b028060020b91508082146159715761597161590b565b60ff8281168282160390811115612f2757612f2761590b565b600281810b9083900b01627fffff8113627fffff1982121715612f2757612f2761590b565b8082028115828204841417612f2757612f2761590b565b5f82615c6c57615c6c6158d6565b500690565b62ffffff8281168282160390808211156159715761597161590b565b634e487b7160e01b5f52603260045260245ffd5b5f8160060b8360060b80615cb757615cb76158d6565b667fffffffffffff1982145f1982141615615ba857615ba861590b565b5f8260060b8260060b028060060b91508082146159715761597161590b565b600681810b9083900b01667fffffffffffff8113667fffffffffffff1982121715612f2757612f2761590b565b6001600160a01b038181168382160190808211156159715761597161590b565b8082025f8212600160ff1b84141615615d5b57615d5b61590b565b8181058314821517612f2757612f2761590b565b61ffff8281168282160390808211156159715761597161590b565b61ffff8181168382160190808211156159715761597161590b565b5f61ffff80841680615db957615db96158d6565b92169190910692915050565b5f82515f5b81811015615de45760208186018101518583015201615dca565b505f920191825250919050565b5f60208284031215615e01575f80fd5b81516130b281615461565b5f60208284031215615e1c575f80fd5b5051919050565b5f61ffff808316818103615e3957615e3961590b565b6001019392505050565b5f60018201615e5457615e5461590b565b5060010190565b634e487b7160e01b5f52604160045260245ffd5b5f6001600160a01b0383811680615e8857615e886158d6565b92169190910492915050565b64ffffffffff8181168382160190808211156159715761597161590b56fea26469706673582212201175a50f7339a79964877c2d096d1b01490072c3d7cf41bc577f3a88de05f5b964736f6c63430008150033a26469706673582212203f9ccafed1141c85a22090547482a14503c4f1c92c24ddbb6df65b45f04ede3264736f6c63430008150033c66a3fdf07232cdd185febcc6579d408c241b47ae2f9907d84be655141eeaecc",
    "linkReferences": {}
  },
  "methodIdentifiers": {
    "createPool(address,address,uint24,bool)": "5a31811b",
    "enableFeeAmount(uint24,int24)": "8a7c195f",
    "feeAmountTickSpacing(uint24)": "22afcccb",
    "getPool(address,address,uint24)": "1698ee82",
    "isKitchenPool(address)": "4e891212",
    "owner()": "8da5cb5b",
    "parameters()": "89035730",
    "setOwner(address)": "13af4035",
    "transferOwnership(address)": "f2fde38b"
  },
  "id": 2
}