{
  "abi": [
    {
      "type": "constructor",
      "inputs": [
        {
          "name": "_factory",
          "type": "address",
          "internalType": "contract IUniswapV3Factory"
        },
        {
          "name": "_nonfungiblePositionManager",
          "type": "address",
          "internalType": "contract INonfungiblePositionManager"
        },
        {
          "name": "_maxIncentiveStartLeadTime",
          "type": "uint256",
          "internalType": "uint256"
        },
        {
          "name": "_maxIncentiveDuration",
          "type": "uint256",
          "internalType": "uint256"
        }
      ],
      "stateMutability": "nonpayable"
    },
    {
      "type": "function",
      "name": "claimReward",
      "inputs": [
        {
          "name": "rewardToken",
          "type": "address",
          "internalType": "contract IERC20Minimal"
        },
        {
          "name": "to",
          "type": "address",
          "internalType": "address"
        },
        {
          "name": "amountRequested",
          "type": "uint256",
          "internalType": "uint256"
        }
      ],
      "outputs": [
        {
          "name": "reward",
          "type": "uint256",
          "internalType": "uint256"
        }
      ],
      "stateMutability": "nonpayable"
    },
    {
      "type": "function",
      "name": "createIncentive",
      "inputs": [
        {
          "name": "key",
          "type": "tuple",
          "internalType": "struct IUniswapV3Staker.IncentiveKey",
          "components": [
            {
              "name": "rewardToken",
              "type": "address",
              "internalType": "contract IERC20Minimal"
            },
            {
              "name": "pool",
              "type": "address",
              "internalType": "contract IUniswapV3Pool"
            },
            {
              "name": "startTime",
              "type": "uint256",
              "internalType": "uint256"
            },
            {
              "name": "endTime",
              "type": "uint256",
              "internalType": "uint256"
            },
            {
              "name": "refundee",
              "type": "address",
              "internalType": "address"
            }
          ]
        },
        {
          "name": "reward",
          "type": "uint256",
          "internalType": "uint256"
        }
      ],
      "outputs": [],
      "stateMutability": "nonpayable"
    },
    {
      "type": "function",
      "name": "deposits",
      "inputs": [
        {
          "name": "",
          "type": "uint256",
          "internalType": "uint256"
        }
      ],
      "outputs": [
        {
          "name": "owner",
          "type": "address",
          "internalType": "address"
        },
        {
          "name": "numberOfStakes",
          "type": "uint48",
          "internalType": "uint48"
        },
        {
          "name": "tickLower",
          "type": "int24",
          "internalType": "int24"
        },
        {
          "name": "tickUpper",
          "type": "int24",
          "internalType": "int24"
        }
      ],
      "stateMutability": "view"
    },
    {
      "type": "function",
      "name": "endIncentive",
      "inputs": [
        {
          "name": "key",
          "type": "tuple",
          "internalType": "struct IUniswapV3Staker.IncentiveKey",
          "components": [
            {
              "name": "rewardToken",
              "type": "address",
              "internalType": "contract IERC20Minimal"
            },
            {
              "name": "pool",
              "type": "address",
              "internalType": "contract IUniswapV3Pool"
            },
            {
              "name": "startTime",
              "type": "uint256",
              "internalType": "uint256"
            },
            {
              "name": "endTime",
              "type": "uint256",
              "internalType": "uint256"
            },
            {
              "name": "refundee",
              "type": "address",
              "internalType": "address"
            }
          ]
        }
      ],
      "outputs": [
        {
          "name": "refund",
          "type": "uint256",
          "internalType": "uint256"
        }
      ],
      "stateMutability": "nonpayable"
    },
    {
      "type": "function",
      "name": "factory",
      "inputs": [],
      "outputs": [
        {
          "name": "",
          "type": "address",
          "internalType": "contract IUniswapV3Factory"
        }
      ],
      "stateMutability": "view"
    },
    {
      "type": "function",
      "name": "getRewardInfo",
      "inputs": [
        {
          "name": "key",
          "type": "tuple",
          "internalType": "struct IUniswapV3Staker.IncentiveKey",
          "components": [
            {
              "name": "rewardToken",
              "type": "address",
              "internalType": "contract IERC20Minimal"
            },
            {
              "name": "pool",
              "type": "address",
              "internalType": "contract IUniswapV3Pool"
            },
            {
              "name": "startTime",
              "type": "uint256",
              "internalType": "uint256"
            },
            {
              "name": "endTime",
              "type": "uint256",
              "internalType": "uint256"
            },
            {
              "name": "refundee",
              "type": "address",
              "internalType": "address"
            }
          ]
        },
        {
          "name": "tokenId",
          "type": "uint256",
          "internalType": "uint256"
        }
      ],
      "outputs": [
        {
          "name": "reward",
          "type": "uint256",
          "internalType": "uint256"
        },
        {
          "name": "secondsInsideX128",
          "type": "uint160",
          "internalType": "uint160"
        }
      ],
      "stateMutability": "view"
    },
    {
      "type": "function",
      "name": "incentives",
      "inputs": [
        {
          "name": "",
          "type": "bytes32",
          "internalType": "bytes32"
        }
      ],
      "outputs": [
        {
          "name": "totalRewardUnclaimed",
          "type": "uint256",
          "internalType": "uint256"
        },
        {
          "name": "totalSecondsClaimedX128",
          "type": "uint160",
          "internalType": "uint160"
        },
        {
          "name": "numberOfStakes",
          "type": "uint96",
          "internalType": "uint96"
        }
      ],
      "stateMutability": "view"
    },
    {
      "type": "function",
      "name": "maxIncentiveDuration",
      "inputs": [],
      "outputs": [
        {
          "name": "",
          "type": "uint256",
          "internalType": "uint256"
        }
      ],
      "stateMutability": "view"
    },
    {
      "type": "function",
      "name": "maxIncentiveStartLeadTime",
      "inputs": [],
      "outputs": [
        {
          "name": "",
          "type": "uint256",
          "internalType": "uint256"
        }
      ],
      "stateMutability": "view"
    },
    {
      "type": "function",
      "name": "multicall",
      "inputs": [
        {
          "name": "data",
          "type": "bytes[]",
          "internalType": "bytes[]"
        }
      ],
      "outputs": [
        {
          "name": "results",
          "type": "bytes[]",
          "internalType": "bytes[]"
        }
      ],
      "stateMutability": "payable"
    },
    {
      "type": "function",
      "name": "nonfungiblePositionManager",
      "inputs": [],
      "outputs": [
        {
          "name": "",
          "type": "address",
          "internalType": "contract INonfungiblePositionManager"
        }
      ],
      "stateMutability": "view"
    },
    {
      "type": "function",
      "name": "onERC721Received",
      "inputs": [
        {
          "name": "",
          "type": "address",
          "internalType": "address"
        },
        {
          "name": "from",
          "type": "address",
          "internalType": "address"
        },
        {
          "name": "tokenId",
          "type": "uint256",
          "internalType": "uint256"
        },
        {
          "name": "data",
          "type": "bytes",
          "internalType": "bytes"
        }
      ],
      "outputs": [
        {
          "name": "",
          "type": "bytes4",
          "internalType": "bytes4"
        }
      ],
      "stateMutability": "nonpayable"
    },
    {
      "type": "function",
      "name": "rewards",
      "inputs": [
        {
          "name": "",
          "type": "address",
          "internalType": "contract IERC20Minimal"
        },
        {
          "name": "",
          "type": "address",
          "internalType": "address"
        }
      ],
      "outputs": [
        {
          "name": "",
          "type": "uint256",
          "internalType": "uint256"
        }
      ],
      "stateMutability": "view"
    },
    {
      "type": "function",
      "name": "stakeToken",
      "inputs": [
        {
          "name": "key",
          "type": "tuple",
          "internalType": "struct IUniswapV3Staker.IncentiveKey",
          "components": [
            {
              "name": "rewardToken",
              "type": "address",
              "internalType": "contract IERC20Minimal"
            },
            {
              "name": "pool",
              "type": "address",
              "internalType": "contract IUniswapV3Pool"
            },
            {
              "name": "startTime",
              "type": "uint256",
              "internalType": "uint256"
            },
            {
              "name": "endTime",
              "type": "uint256",
              "internalType": "uint256"
            },
            {
              "name": "refundee",
              "type": "address",
              "internalType": "address"
            }
          ]
        },
        {
          "name": "tokenId",
          "type": "uint256",
          "internalType": "uint256"
        }
      ],
      "outputs": [],
      "stateMutability": "nonpayable"
    },
    {
      "type": "function",
      "name": "stakes",
      "inputs": [
        {
          "name": "tokenId",
          "type": "uint256",
          "internalType": "uint256"
        },
        {
          "name": "incentiveId",
          "type": "bytes32",
          "internalType": "bytes32"
        }
      ],
      "outputs": [
        {
          "name": "secondsPerLiquidityInsideInitialX128",
          "type": "uint160",
          "internalType": "uint160"
        },
        {
          "name": "liquidity",
          "type": "uint128",
          "internalType": "uint128"
        }
      ],
      "stateMutability": "view"
    },
    {
      "type": "function",
      "name": "transferDeposit",
      "inputs": [
        {
          "name": "tokenId",
          "type": "uint256",
          "internalType": "uint256"
        },
        {
          "name": "to",
          "type": "address",
          "internalType": "address"
        }
      ],
      "outputs": [],
      "stateMutability": "nonpayable"
    },
    {
      "type": "function",
      "name": "unstakeToken",
      "inputs": [
        {
          "name": "key",
          "type": "tuple",
          "internalType": "struct IUniswapV3Staker.IncentiveKey",
          "components": [
            {
              "name": "rewardToken",
              "type": "address",
              "internalType": "contract IERC20Minimal"
            },
            {
              "name": "pool",
              "type": "address",
              "internalType": "contract IUniswapV3Pool"
            },
            {
              "name": "startTime",
              "type": "uint256",
              "internalType": "uint256"
            },
            {
              "name": "endTime",
              "type": "uint256",
              "internalType": "uint256"
            },
            {
              "name": "refundee",
              "type": "address",
              "internalType": "address"
            }
          ]
        },
        {
          "name": "tokenId",
          "type": "uint256",
          "internalType": "uint256"
        }
      ],
      "outputs": [],
      "stateMutability": "nonpayable"
    },
    {
      "type": "function",
      "name": "withdrawToken",
      "inputs": [
        {
          "name": "tokenId",
          "type": "uint256",
          "internalType": "uint256"
        },
        {
          "name": "to",
          "type": "address",
          "internalType": "address"
        },
        {
          "name": "data",
          "type": "bytes",
          "internalType": "bytes"
        }
      ],
      "outputs": [],
      "stateMutability": "nonpayable"
    },
    {
      "type": "event",
      "name": "DepositTransferred",
      "inputs": [
        {
          "name": "tokenId",
          "type": "uint256",
          "indexed": true,
          "internalType": "uint256"
        },
        {
          "name": "oldOwner",
          "type": "address",
          "indexed": true,
          "internalType": "address"
        },
        {
          "name": "newOwner",
          "type": "address",
          "indexed": true,
          "internalType": "address"
        }
      ],
      "anonymous": false
    },
    {
      "type": "event",
      "name": "IncentiveCreated",
      "inputs": [
        {
          "name": "rewardToken",
          "type": "address",
          "indexed": true,
          "internalType": "contract IERC20Minimal"
        },
        {
          "name": "pool",
          "type": "address",
          "indexed": true,
          "internalType": "contract IUniswapV3Pool"
        },
        {
          "name": "startTime",
          "type": "uint256",
          "indexed": false,
          "internalType": "uint256"
        },
        {
          "name": "endTime",
          "type": "uint256",
          "indexed": false,
          "internalType": "uint256"
        },
        {
          "name": "refundee",
          "type": "address",
          "indexed": false,
          "internalType": "address"
        },
        {
          "name": "reward",
          "type": "uint256",
          "indexed": false,
          "internalType": "uint256"
        }
      ],
      "anonymous": false
    },
    {
      "type": "event",
      "name": "IncentiveEnded",
      "inputs": [
        {
          "name": "incentiveId",
          "type": "bytes32",
          "indexed": true,
          "internalType": "bytes32"
        },
        {
          "name": "refund",
          "type": "uint256",
          "indexed": false,
          "internalType": "uint256"
        }
      ],
      "anonymous": false
    },
    {
      "type": "event",
      "name": "RewardClaimed",
      "inputs": [
        {
          "name": "to",
          "type": "address",
          "indexed": true,
          "internalType": "address"
        },
        {
          "name": "reward",
          "type": "uint256",
          "indexed": false,
          "internalType": "uint256"
        }
      ],
      "anonymous": false
    },
    {
      "type": "event",
      "name": "TokenStaked",
      "inputs": [
        {
          "name": "tokenId",
          "type": "uint256",
          "indexed": true,
          "internalType": "uint256"
        },
        {
          "name": "incentiveId",
          "type": "bytes32",
          "indexed": true,
          "internalType": "bytes32"
        },
        {
          "name": "liquidity",
          "type": "uint128",
          "indexed": false,
          "internalType": "uint128"
        }
      ],
      "anonymous": false
    },
    {
      "type": "event",
      "name": "TokenUnstaked",
      "inputs": [
        {
          "name": "tokenId",
          "type": "uint256",
          "indexed": true,
          "internalType": "uint256"
        },
        {
          "name": "incentiveId",
          "type": "bytes32",
          "indexed": true,
          "internalType": "bytes32"
        }
      ],
      "anonymous": false
    }
  ],
  "bytecode": {
    "object": "0x610100604052346200009157620000236200001962000207565b9291909162000230565b6200002d62000097565b61534c6200023f8239608051818181610e1a0152613e5b015260a051818181610c6f015281816122140152818161225401528181612b2e0152613e7c015260c05181818161016101526116d4015260e0518181816105c30152611763015261534c90f35b6200009d565b60405190565b5f80fd5b601f801991011690565b634e487b7160e01b5f52604160045260245ffd5b90620000cb90620000a1565b810190811060018060401b03821117620000e457604052565b620000ab565b9062000101620000f962000097565b9283620000bf565b565b5f80fd5b60018060a01b031690565b6200011d9062000107565b90565b6200012b9062000112565b90565b620001398162000120565b036200014157565b5f80fd5b9050519062000154826200012e565b565b620001619062000112565b90565b6200016f8162000156565b036200017757565b5f80fd5b905051906200018a8262000164565b565b90565b6200019a816200018c565b03620001a257565b5f80fd5b90505190620001b5826200018f565b565b6080818303126200020157620001d0825f830162000145565b92620001fe620001e484602085016200017b565b93620001f48160408601620001a6565b93606001620001a6565b90565b62000103565b6200022a6200558b803803806200021e81620000ea565b928339810190620001b7565b90919293565b60805260a05260c05260e05256fe60806040526004361015610013575b61105f565b61001d5f3561013c565b806301b7544014610137578063150b7a021461013257806326bfee041461012d5780632f2d783d146101285780633c423f0b146101235780633dc0714b1461011e5780635cc5e3d9146101195780636077779514610114578063ac9650d81461010f578063b02c43d01461010a578063b44a272214610105578063b5ada6e414610100578063c36c1ea5146100fb578063c45a0155146100f6578063d953186e146100f1578063e70b9e27146100ec578063f2d2909b146100e75763f549ab420361000e5761102b565b610ff7565b610fc1565b610ec2565b610e6a565b610de1565b610d3a565b610ce7565b610c34565b610a56565b6108a3565b6106ef565b6105e5565b61058d565b61041f565b610382565b610317565b6101a8565b60e01c90565b60405190565b5f80fd5b5f80fd5b5f91031261015a57565b61014c565b7f000000000000000000000000000000000000000000000000000000000000000090565b90565b61018f90610183565b9052565b91906101a6905f60208501940190610186565b565b346101d8576101b8366004610150565b6101d46101c361015f565b6101cb610142565b91829182610193565b0390f35b610148565b5f80fd5b60018060a01b031690565b6101f5906101e1565b90565b610201816101ec565b0361020857565b5f80fd5b90503590610219826101f8565b565b61022481610183565b0361022b57565b5f80fd5b9050359061023c8261021b565b565b5f80fd5b5f80fd5b5f80fd5b909182601f830112156102845781359167ffffffffffffffff831161027f57602001926001830284011161027a57565b610246565b610242565b61023e565b906080828203126102e4576102a0815f840161020c565b926102ae826020850161020c565b926102bc836040830161022f565b92606082013567ffffffffffffffff81116102df576102db920161024a565b9091565b6101dd565b61014c565b63ffffffff60e01b1690565b6102fe906102e9565b9052565b9190610315905f602085019401906102f5565b565b3461034b5761034761033661032d366004610289565b939290926121f6565b61033e610142565b91829182610302565b0390f35b610148565b9190604083820312610378578061036c610375925f860161022f565b9360200161020c565b90565b61014c565b5f0190565b346103b15761039b610395366004610350565b90612618565b6103a3610142565b806103ad8161037d565b0390f35b610148565b6103bf906101ec565b90565b6103cb816103b6565b036103d257565b5f80fd5b905035906103e3826103c2565b565b909160608284031261041a57610417610400845f85016103d6565b9361040e816020860161020c565b9360400161022f565b90565b61014c565b346104505761044c61043b6104353660046103e5565b9161348b565b610443610142565b91829182610193565b0390f35b610148565b5f80fd5b601f801991011690565b634e487b7160e01b5f52604160045260245ffd5b9061048190610459565b810190811067ffffffffffffffff82111761049b57604052565b610463565b906104b36104ac610142565b9283610477565b565b67ffffffffffffffff81116104d3576104cf602091610459565b0190565b610463565b90825f939282370152565b909291926104f86104f3826104b5565b6104a0565b9381855260208501908284011161051457610512926104d8565b565b610455565b9080601f8301121561053757816020610534933591016104e3565b90565b61023e565b9160608383031261058857610553825f850161022f565b92610561836020830161020c565b92604082013567ffffffffffffffff8111610583576105809201610519565b90565b6101dd565b61014c565b346105bc576105a66105a036600461053c565b91612a24565b6105ae610142565b806105b88161037d565b0390f35b610148565b7f000000000000000000000000000000000000000000000000000000000000000090565b34610615576105f5366004610150565b6106116106006105c1565b610608610142565b91829182610193565b0390f35b610148565b5f80fd5b610627906101ec565b90565b6106338161061e565b0361063a57565b5f80fd5b9050359061064b8261062a565b565b919060a0838203126106bd576106b69061066760a06104a0565b93610674825f83016103d6565b5f860152610685826020830161063e565b6020860152610697826040830161022f565b60408601526106a9826060830161022f565b606086015260800161020c565b6080830152565b61061a565b919060c0838203126106ea57806106de6106e7925f860161064d565b9360a00161022f565b90565b61014c565b3461071e576107086107023660046106c2565b9061166f565b610710610142565b8061071a8161037d565b0390f35b610148565b90565b61072f81610723565b0361073657565b5f80fd5b9050359061074782610726565b565b906020828203126107625761075f915f0161073a565b90565b61014c565b61077090610723565b90565b9061077d90610767565b5f5260205260405f2090565b5f1c90565b90565b61079d6107a291610789565b61078e565b90565b6107af9054610791565b90565b60018060a01b031690565b6107c96107ce91610789565b6107b2565b90565b6107db90546107bd565b90565b60a01c90565b6bffffffffffffffffffffffff1690565b610801610806916107de565b6107e4565b90565b61081390546107f5565b90565b610820905f610773565b61082b5f82016107a5565b91610843600161083c8185016107d1565b9301610809565b90565b61084f906101e1565b9052565b6bffffffffffffffffffffffff1690565b61086d90610853565b9052565b60409061089a6108a1949695939661089060608401985f850190610186565b6020830190610846565b0190610864565b565b346108d6576108d26108be6108b9366004610749565b610816565b6108c9939193610142565b93849384610871565b0390f35b610148565b909182601f830112156109155781359167ffffffffffffffff831161091057602001926020830284011161090b57565b610246565b610242565b61023e565b9060208282031261094b575f82013567ffffffffffffffff81116109465761094292016108db565b9091565b6101dd565b61014c565b5190565b60209181520190565b60200190565b5190565b60209181520190565b5f5b838110610982575050905f910152565b806020918301518185015201610972565b6109b26109bb6020936109c0936109a981610963565b93848093610967565b95869101610970565b610459565b0190565b906109ce91610993565b90565b60200190565b906109eb6109e483610950565b8092610954565b90816109fc6020830284019461095d565b925f915b838310610a0f57505050505090565b90919293946020610a31610a2b838560019503875289516109c4565b976109d1565b9301930191939290610a00565b610a539160208201915f8184039101526109d7565b90565b610a7e610a6d610a6736600461091a565b90614c1c565b610a75610142565b91829182610a3e565b0390f35b90602082820312610a9b57610a98915f0161022f565b90565b61014c565b90565b610ab7610ab2610abc92610183565b610aa0565b610183565b90565b90610ac990610aa3565b5f5260205260405f2090565b60018060a01b031690565b610aec610af191610789565b610ad5565b90565b610afe9054610ae0565b90565b65ffffffffffff1690565b610b18610b1d916107de565b610b01565b90565b610b2a9054610b0c565b90565b60d01c90565b60020b90565b610b45610b4a91610b2d565b610b33565b90565b610b579054610b39565b90565b60e81c90565b610b6c610b7191610b5a565b610b33565b90565b610b7e9054610b60565b90565b610b8c906001610abf565b90610b985f8301610af4565b91610ba45f8201610b20565b91610bbb5f610bb4818501610b4d565b9301610b74565b90565b610bc7906101ec565b9052565b65ffffffffffff1690565b610bdf90610bcb565b9052565b60020b90565b610bf290610be3565b9052565b610c2b610c3294610c21606094989795610c17608086019a5f870190610bbe565b6020850190610bd6565b6040830190610be9565b0190610be9565b565b34610c6857610c64610c4f610c4a366004610a82565b610b81565b90610c5b949294610142565b94859485610bf6565b0390f35b610148565b7f000000000000000000000000000000000000000000000000000000000000000090565b610ca5610ca0610caa926101e1565b610aa0565b6101e1565b90565b610cb690610c91565b90565b610cc290610cad565b90565b610cce90610cb9565b9052565b9190610ce5905f60208501940190610cc5565b565b34610d1757610cf7366004610150565b610d13610d02610c6d565b610d0a610142565b91829182610cd2565b0390f35b610148565b9060a082820312610d3557610d32915f0161064d565b90565b61014c565b34610d6a57610d66610d55610d50366004610d1c565b611ade565b610d5d610142565b91829182610193565b0390f35b610148565b9190604083820312610d975780610d8b610d94925f860161022f565b9360200161073a565b90565b61014c565b6fffffffffffffffffffffffffffffffff1690565b610dba90610d9c565b9052565b916020610ddf929493610dd860408201965f830190610846565b0190610db1565b565b34610e1357610dfa610df4366004610d6f565b906110ec565b90610e0f610e06610142565b92839283610dbe565b0390f35b610148565b7f000000000000000000000000000000000000000000000000000000000000000090565b610e4590610cad565b90565b610e5190610e3c565b9052565b9190610e68905f60208501940190610e48565b565b34610e9a57610e7a366004610150565b610e96610e85610e18565b610e8d610142565b91829182610e55565b0390f35b610148565b916020610ec0929493610eb960408201965f830190610186565b0190610846565b565b34610ef457610edb610ed53660046106c2565b906136d7565b90610ef0610ee7610142565b92839283610e9f565b0390f35b610148565b9190604083820312610f215780610f15610f1e925f86016103d6565b9360200161020c565b90565b61014c565b610f2f90610c91565b90565b610f3b90610f26565b90565b90610f4890610f32565b5f5260205260405f2090565b610f5d90610cad565b90565b90610f6a90610f54565b5f5260205260405f2090565b1c90565b610f8a906008610f8f9302610f76565b61078e565b90565b90610f9d9154610f7a565b90565b610fb9610fbe92610fb46003935f94610f3e565b610f60565b610f92565b90565b34610ff257610fee610fdd610fd7366004610ef9565b90610fa0565b610fe5610142565b91829182610193565b0390f35b610148565b346110265761101061100a3660046106c2565b90612c85565b611018610142565b806110228161037d565b0390f35b610148565b3461105a5761104461103e3660046106c2565b90613169565b61104c610142565b806110568161037d565b0390f35b610148565b5f80fd5b5f90565b5f90565b9061107590610aa3565b5f5260205260405f2090565b9061108b90610767565b5f5260205260405f2090565b90565b6110ae6110a96110b392610853565b610aa0565b610d9c565b90565b6fffffffffffffffffffffffffffffffff1690565b6110d76110dc91610789565b6110b6565b90565b6110e990546110cb565b90565b61111a91611110611115926110ff611063565b50611108611067565b50600261106b565b611081565b611097565b6111255f82016107d1565b916111396111345f8401610809565b61109a565b91826111596111536bffffffffffffffffffffffff61109a565b91610d9c565b14611162575b50565b6111709192506001016110df565b905f61115f565b90565b61118e61118961119392611177565b610aa0565b610183565b90565b60209181520190565b60207f3a20726577617264206d75737420626520706f73697469766500000000000000917f556e697377617056335374616b65723a3a637265617465496e63656e746976655f8201520152565b6111f96039604092611196565b6112028161119f565b0190565b61121b9060208101905f8183039101526111ec565b90565b1561122557565b61122d610142565b62461bcd60e51b81528061124360048201611206565b0390fd5b6112519051610183565b90565b60407f6865206675747572650000000000000000000000000000000000000000000000917f556e697377617056335374616b65723a3a637265617465496e63656e746976655f8201527f3a2073746172742074696d65206d757374206265206e6f77206f7220696e207460208201520152565b6112d46049606092611196565b6112dd81611254565b0190565b6112f69060208101905f8183039101526112c7565b90565b1561130057565b611308610142565b62461bcd60e51b81528061131e600482016112e1565b0390fd5b634e487b7160e01b5f52601160045260245ffd5b61134561134b91939293610183565b92610183565b820391821161135657565b611322565b60207f3a2073746172742074696d6520746f6f2066617220696e746f20667574757265917f556e697377617056335374616b65723a3a637265617465496e63656e746976655f8201520152565b6113b460408092611196565b6113bd8161135b565b0190565b6113d69060208101905f8183039101526113a8565b90565b156113e057565b6113e8610142565b62461bcd60e51b8152806113fe600482016113c1565b0390fd5b60407f74696d6500000000000000000000000000000000000000000000000000000000917f556e697377617056335374616b65723a3a637265617465496e63656e746976655f8201527f3a2073746172742074696d65206d757374206265206265666f726520656e642060208201520152565b6114826044606092611196565b61148b81611402565b0190565b6114a49060208101905f818303910152611475565b90565b156114ae57565b6114b6610142565b62461bcd60e51b8152806114cc6004820161148f565b0390fd5b60207f3a20696e63656e74697665206475726174696f6e20697320746f6f206c6f6e67917f556e697377617056335374616b65723a3a637265617465496e63656e746976655f8201520152565b61152960408092611196565b611532816114d0565b0190565b61154b9060208101905f81830391015261151d565b90565b1561155557565b61155d610142565b62461bcd60e51b81528061157360048201611536565b0390fd5b61158661158c91939293610183565b92610183565b820180921161159757565b611322565b5f1b90565b906115ad5f199161159c565b9181191691161790565b90565b906115cf6115ca6115d692610aa3565b6115b7565b82546115a1565b9055565b6115e490516103b6565b90565b6115f090610cad565b90565b6115fc90610cad565b90565b611609905161061e565b90565b61161690516101ec565b90565b61162290610c91565b90565b61162e90611619565b90565b61166661166d9461165c606094989795611652608086019a5f870190610186565b6020850190610186565b6040830190610bbe565b0190610186565b565b61168b8261168561167f5f61117a565b91610183565b1161121e565b6116b3426116ac6116a66116a160408601611247565b610183565b91610183565b11156112f9565b6117056116cc6116c560408401611247565b4290611336565b6116fe6116f87f0000000000000000000000000000000000000000000000000000000000000000610183565b91610183565b11156113d9565b61173761171460408301611247565b61173161172b61172660608601611247565b610183565b91610183565b106114a7565b61179461175b61174960608401611247565b61175560408501611247565b90611336565b61178d6117877f0000000000000000000000000000000000000000000000000000000000000000610183565b91610183565b111561154e565b6117c56117a08261417a565b6117bf5f6117af869382610773565b01916117ba836107a5565b611577565b906115ba565b6117ed6117db6117d65f84016115da565b6115e7565b336117e5306115f3565b908592614588565b6117f85f82016115da565b611804602083016115ff565b9161181160408201611247565b61187261182c608061182560608601611247565b940161160c565b9561186061185a7fa876344e28d4b5191ad03bc0d43f740e3695827ab0faccac739930b915ef8b0296610f32565b96611625565b96611869610142565b94859485611631565b0390a3565b5f90565b60407f696d650000000000000000000000000000000000000000000000000000000000917f556e697377617056335374616b65723a3a656e64496e63656e746976653a20635f8201527f616e6e6f7420656e6420696e63656e74697665206265666f726520656e64207460208201520152565b6118fb6043606092611196565b6119048161187b565b0190565b61191d9060208101905f8183039101526118ee565b90565b1561192757565b61192f610142565b62461bcd60e51b81528061194560048201611908565b0390fd5b90565b60207f6f20726566756e6420617661696c61626c650000000000000000000000000000917f556e697377617056335374616b65723a3a656e64496e63656e746976653a206e5f8201520152565b6119a66032604092611196565b6119af8161194c565b0190565b6119c89060208101905f818303910152611999565b90565b156119d257565b6119da610142565b62461bcd60e51b8152806119f0600482016119b3565b0390fd5b611a08611a03611a0d92611177565b610aa0565b610853565b90565b60407f747320617265207374616b656400000000000000000000000000000000000000917f556e697377617056335374616b65723a3a656e64496e63656e746976653a20635f8201527f616e6e6f7420656e6420696e63656e74697665207768696c65206465706f736960208201520152565b611a90604d606092611196565b611a9981611a10565b0190565b611ab29060208101905f818303910152611a83565b90565b15611abc57565b611ac4610142565b62461bcd60e51b815280611ada60048201611a9d565b0390fd5b90611ae7611877565b50611b1042611b09611b03611afe60608701611247565b610183565b91610183565b1015611920565b611b198261417a565b611bb9611b2f611b2a5f8490610773565b611949565b93611b93611b3e5f87016107a5565b95611b5b87611b55611b4f5f61117a565b91610183565b116119cb565b611b82611b6a60018301610809565b611b7c611b765f6119f4565b91610853565b14611ab5565b5f611b8c8161117a565b91016115ba565b611bb26080611bab611ba65f85016115da565b6115e7565b920161160c565b8591614677565b8290611bfa611be87f65124e6175aa9904f40735e87e2a37c76e87a609b855287bb4d1aba8257d976392610767565b92611bf1610142565b91829182610193565b0390a2565b5f90565b60207f643a206e6f74206120756e697633206e66740000000000000000000000000000917f556e697377617056335374616b65723a3a6f6e455243373231526563656976655f8201520152565b611c5d6032604092611196565b611c6681611c03565b0190565b611c7f9060208101905f818303910152611c50565b90565b15611c8957565b611c91610142565b62461bcd60e51b815280611ca760048201611c6a565b0390fd5b5f80fd5b60e01b90565b611cbe81610853565b03611cc557565b5f80fd5b90505190611cd682611cb5565b565b90505190611ce5826101f8565b565b62ffffff1690565b611cf881611ce7565b03611cff57565b5f80fd5b90505190611d1082611cef565b565b611d1b81610be3565b03611d2257565b5f80fd5b90505190611d3382611d12565b565b611d3e81610d9c565b03611d4557565b5f80fd5b90505190611d5682611d35565b565b90505190611d658261021b565b565b909161018082840312611e1f57611d80835f8401611cc9565b92611d8e8160208501611cd8565b92611d9c8260408301611cd8565b92611daa8360608401611cd8565b92611db88160808501611d03565b92611dc68260a08301611d26565b92611dd48360c08401611d26565b92611de28160e08501611d49565b92611df1826101008301611d58565b92611e1c611e03846101208501611d58565b93611e12816101408601611d49565b9361016001611d49565b90565b61014c565b611e2c610142565b3d5f823e3d90fd5b611e3e60806104a0565b90565b90611e4b906101ec565b9052565b611e63611e5e611e6892611177565b610aa0565b610bcb565b90565b90611e7590610bcb565b9052565b90611e8390610be3565b9052565b634e487b7160e01b5f525f60045260245ffd5b90611eab60018060a01b039161159c565b9181191691161790565b90565b90611ecd611ec8611ed492610f54565b611eb5565b8254611e9a565b9055565b611ee29051610bcb565b90565b60a01b90565b90611eff65ffffffffffff60a01b91611ee5565b9181191691161790565b611f1d611f18611f2292610bcb565b610aa0565b610bcb565b90565b90565b90611f3d611f38611f4492611f09565b611f25565b8254611eeb565b9055565b611f529051610be3565b90565b60d01b90565b90611f6c62ffffff60d01b91611f55565b9181191691161790565b611f8a611f85611f8f92610be3565b610aa0565b610be3565b90565b90565b90611faa611fa5611fb192611f76565b611f92565b8254611f5b565b9055565b60e81b90565b90611fcc62ffffff60e81b91611fb5565b9181191691161790565b90611feb611fe6611ff292611f76565b611f92565b8254611fbb565b9055565b9061205060605f6120569461201882820161201284880161160c565b90611eb8565b61203082820161202a60208801611ed8565b90611f28565b61204882820161204260408801611f48565b90611f95565b019201611f48565b90611fd6565b565b9061206291611ff6565b565b61207861207361207d92611177565b610aa0565b6101e1565b90565b61208990612064565b90565b5090565b90565b6120a76120a26120ac92612090565b610aa0565b610183565b90565b67ffffffffffffffff81116120c75760208091020190565b610463565b909291926120e16120dc826120af565b6104a0565b9381855260a060208601920283019281841161212057915b8383106121065750505050565b602060a091612115848661064d565b8152019201916120f9565b610246565b9080601f8301121561214357816020612140933591016120cc565b90565b61023e565b90602082820312612178575f82013567ffffffffffffffff8111612173576121709201612125565b90565b6101dd565b61014c565b61218690610183565b5f1981146121945760010190565b611322565b5190565b634e487b7160e01b5f52603260045260245ffd5b906121bb82612199565b8110156121cc576020809102010190565b61219d565b63ffffffff1690565b6121ee6121e96121f3926121d1565b611caf565b6102e9565b90565b509392909193612204611bff565b506122493361224361223d6122387f0000000000000000000000000000000000000000000000000000000000000000610cb9565b6101ec565b916101ec565b14611c82565b6122a26101806122787f0000000000000000000000000000000000000000000000000000000000000000610cb9565b6399fbab8890612297879261228b610142565b95869485938493611caf565b835260048301610193565b03915afa90811561249d5761231f915f80808080808097955095935050505061245e575b5061230e9061230585936122fc6122f35f9492946122ee6122e5611e34565b985f8a01611e41565b611e4f565b60208701611e6b565b60408501611e79565b60608301611e79565b61231a60018690610abf565b612058565b829061232a5f612080565b61236661236061235a7fcdfc765b85e1048bee3c6a0f9d1c91fc7c4631f5fe5745a55fc6843db5c3260f95610aa3565b92610f54565b92610f54565b9261236f610142565b806123798161037d565b0390a461238784829061208c565b6123996123935f61117a565b91610183565b116123b3575b505090506123b063150b7a026121da565b90565b6123be84829061208c565b6123d16123cb60a0612093565b91610183565b145f146123f8576123ea906123ef939490810190610d1c565b613d8a565b5b805f8061239f565b612406919390810190612148565b61240f5f61117a565b5b8061242b61242561242085612199565b610183565b91610183565b1015612455576124509061244b6124438483906121b1565b518690613d8a565b61217d565b612410565b505090506123f0565b61230e925061248591506101803d8111612496575b61247d8183610477565b810190611d67565b5050505050965094505050506122c6565b503d612473565b611e24565b60207f3a20696e76616c6964207472616e7366657220726563697069656e7400000000917f556e697377617056335374616b65723a3a7472616e736665724465706f7369745f8201520152565b6124fc603c604092611196565b612505816124a2565b0190565b61251e9060208101905f8183039101526124ef565b90565b1561252857565b612530610142565b62461bcd60e51b81528061254660048201612509565b0390fd5b60407f6f776e6572000000000000000000000000000000000000000000000000000000917f556e697377617056335374616b65723a3a7472616e736665724465706f7369745f8201527f3a2063616e206f6e6c792062652063616c6c6564206279206465706f7369742060208201520152565b6125ca6045606092611196565b6125d38161254a565b0190565b6125ec9060208101905f8183039101526125bd565b90565b156125f657565b6125fe610142565b62461bcd60e51b815280612614600482016125d7565b0390fd5b9061263e8161263761263161262c5f612080565b6101ec565b916101ec565b1415612521565b6126545f61264e60018590610abf565b01610af4565b916126718361266b612665336101ec565b916101ec565b146125ef565b612688825f61268260018590610abf565b01611eb8565b916126c56126bf6126b97fcdfc765b85e1048bee3c6a0f9d1c91fc7c4631f5fe5745a55fc6843db5c3260f95610aa3565b92610f54565b92610f54565b926126ce610142565b806126d88161037d565b0390a4565b60207f63616e6e6f7420776974686472617720746f207374616b657200000000000000917f556e697377617056335374616b65723a3a7769746864726177546f6b656e3a205f8201520152565b6127376039604092611196565b612740816126dd565b0190565b6127599060208101905f81830391015261272a565b90565b1561276357565b61276b610142565b62461bcd60e51b81528061278160048201612744565b0390fd5b61278f60806104a0565b90565b906127f66127ed5f6127a2612785565b946127b96127b1838301610af4565b838801611e41565b6127d06127c7838301610b20565b60208801611e6b565b6127e76127de838301610b4d565b60408801611e79565b01610b74565b60608401611e79565b565b61280190612792565b90565b60407f6564000000000000000000000000000000000000000000000000000000000000917f556e697377617056335374616b65723a3a7769746864726177546f6b656e3a205f8201527f63616e6e6f7420776974686472617720746f6b656e207768696c65207374616b60208201520152565b6128846042606092611196565b61288d81612804565b0190565b6128a69060208101905f818303910152612877565b90565b156128b057565b6128b8610142565b62461bcd60e51b8152806128ce60048201612891565b0390fd5b60207f6f6e6c79206f776e65722063616e20776974686472617720746f6b656e000000917f556e697377617056335374616b65723a3a7769746864726177546f6b656e3a205f8201520152565b61292c603d604092611196565b612935816128d2565b0190565b61294e9060208101905f81830391015261291f565b90565b1561295857565b612960610142565b62461bcd60e51b81528061297660048201612939565b0390fd5b5f80910155565b905f03612993576129919061297a565b565b611e87565b5f9103126129a257565b61014c565b60209181520190565b6129cf6129d86020936129dd936129c681610963565b938480936129a7565b95869101610970565b610459565b0190565b9092612a1490612a0a612a219694612a0060808601975f870190610bbe565b6020850190610bbe565b6040830190610186565b60608184039101526129b0565b90565b9190612a4b81612a44612a3e612a39306115f3565b6101ec565b916101ec565b141561275c565b612a5f612a5a60018590610abf565b6127f8565b612a86612a6e60208301611ed8565b612a80612a7a5f611e4f565b91610bcb565b146128a9565b612aac612a945f830161160c565b612aa6612aa0336101ec565b916101ec565b14612951565b612ac15f612abc60018790610abf565b612981565b612acd5f85920161160c565b612ad65f612080565b90612b13612b0d612b077fcdfc765b85e1048bee3c6a0f9d1c91fc7c4631f5fe5745a55fc6843db5c3260f95610aa3565b92610f54565b92610f54565b92612b1c610142565b80612b268161037d565b0390a4612b527f0000000000000000000000000000000000000000000000000000000000000000610cb9565b63b88d4fde92612b61306115f3565b929490823b15612bd8575f94612b958692612b8a94612b7e610142565b998a9889978896611caf565b8652600486016129e1565b03925af18015612bd357612ba7575b50565b612bc6905f3d8111612bcc575b612bbe8183610477565b810190612998565b5f612ba4565b503d612bb4565b611e24565b611cab565b60207f79206f776e65722063616e207374616b6520746f6b656e000000000000000000917f556e697377617056335374616b65723a3a7374616b65546f6b656e3a206f6e6c5f8201520152565b612c376037604092611196565b612c4081612bdd565b0190565b612c599060208101905f818303910152612c2a565b90565b15612c6357565b612c6b610142565b62461bcd60e51b815280612c8160048201612c44565b0390fd5b90612cc091612cbb612ca35f612c9d60018690610abf565b01610af4565b612cb5612caf336101ec565b916101ec565b14612c5c565b613d8a565b565b60407f6f726520696e63656e7469766520656e642074696d6500000000000000000000917f556e697377617056335374616b65723a3a756e7374616b65546f6b656e3a206f5f8201527f6e6c79206f776e65722063616e20776974686472617720746f6b656e2062656660208201520152565b612d426056606092611196565b612d4b81612cc2565b0190565b612d649060208101905f818303910152612d35565b90565b15612d6e57565b612d76610142565b62461bcd60e51b815280612d8c60048201612d4f565b0390fd5b612da4612d9f612da992611177565b610aa0565b610d9c565b90565b60207f74616b6520646f6573206e6f7420657869737400000000000000000000000000917f556e697377617056335374616b65723a3a756e7374616b65546f6b656e3a20735f8201520152565b612e066033604092611196565b612e0f81612dac565b0190565b612e289060208101905f818303910152612df9565b90565b15612e3257565b612e3a610142565b62461bcd60e51b815280612e5060048201612e13565b0390fd5b612e5d90610bcb565b5f8114612e6b576001900390565b611322565b612e7990610853565b5f8114612e87576001900390565b611322565b90612ea66bffffffffffffffffffffffff60a01b91611ee5565b9181191691161790565b612ec4612ebf612ec992610853565b610aa0565b610853565b90565b90565b90612ee4612edf612eeb92612eb0565b612ecc565b8254612e8c565b9055565b612ef890610cad565b90565b60060b90565b612f0a81612efb565b03612f1157565b5f80fd5b90505190612f2282612f01565b565b612f2d816101e1565b03612f3457565b5f80fd5b90505190612f4582612f24565b565b612f50816121d1565b03612f5757565b5f80fd5b90505190612f6882612f47565b565b9091606082840312612f9f57612f9c612f85845f8501612f15565b93612f938160208601612f38565b93604001612f5b565b90565b61014c565b916020612fc5929493612fbe60408201965f830190610be9565b0190610be9565b565b612fd3612fd9916101e1565b916101e1565b019060018060a01b038211612fea57565b611322565b90565b9061300761300261300e92610c91565b612fef565b8254611e9a565b9055565b1b90565b9190600861303691029161303060018060a01b0384613012565b92613012565b9181191691161790565b919061305661305161305e93610c91565b612fef565b908354613016565b9055565b6130749161306e611063565b91613040565b565b9190600861309c9102916130966bffffffffffffffffffffffff84613012565b92613012565b9181191691161790565b91906130bc6130b76130c493612eb0565b612ecc565b908354613076565b9055565b5f90565b6130de916130d86130c8565b916130a6565b565b9190600861310a9102916131046fffffffffffffffffffffffffffffffff84613012565b92613012565b9181191691161790565b61312861312361312d92610d9c565b610aa0565b610d9c565b90565b90565b919061314961314461315193613114565b613130565b9083546130e0565b9055565b61316791613161611067565b91613133565b565b9061317e61317960018390610abf565b6127f8565b914261319d61319761319260608501611247565b610183565b91610183565b10613460575b6131ac8161417a565b926131b88385906110ec565b92906131d7846131d06131ca5f612d90565b91610d9c565b1415612e2b565b6131ea6131e55f8890610773565b611949565b926132135f6131fb60018990610abf565b0161320d61320882610b20565b612e54565b90611f28565b6132316001850161322b61322682610809565b612e70565b90612ecf565b613245613240602085016115ff565b612eef565b90606063a38807f29261325a60408401611f48565b90613281613269848601611f48565b9561328c613275610142565b97889586948594611caf565b845260048401612fa4565b03915afa91821561345b575f61334d61331d61333961336f996132fe8c8b6133699b61335a9b6133549a8a8092905061342c575b50906132cd8a87016107a5565b936132da600188016107d1565b936132f360606132ec60408401611247565b9201611247565b919293944296614443565b9390936133176001840191613312836107d1565b612fc7565b90612ff2565b613333858492019161332e836107a5565b611336565b906115ba565b9661334783600392016115da565b90610f3e565b920161160c565b90610f60565b91613364836107a5565b611577565b906115ba565b61338d6133886133816002859061106b565b8590611081565b611097565b9061339a5f808401613062565b6133a760145f84016130cc565b6133c56133bf6bffffffffffffffffffffffff61109a565b91610d9c565b1015613419575b50906134016133fb7fe1ba67e807ae0efa0a9549f9520ddc15c27f0a4dae2bc045e800ca66a940778f93610aa3565b91610767565b9161340a610142565b806134148161037d565b0390a3565b5f60016134269201613155565b5f6133cc565b61344d915060603d8111613454575b6134458183610477565b810190612f6a565b50906132c0565b503d61343b565b611e24565b61348661346e5f850161160c565b61348061347a336101ec565b916101ec565b14612d67565b6131a3565b929192613496611877565b506134b56134b06134a960038490610f3e565b3390610f60565b6107a5565b93806134c96134c35f61117a565b91610183565b141580613575575b613563575b5061351561351d916135108661350a6134fb6134f460038690610f3e565b3390610f60565b91613505836107a5565b611336565b906115ba565b6115e7565b828591614677565b829061355e61354c7f106f923f993c2149d49b4255ff723acafa1f2d94393f561d3eda32ae348f724192610f54565b92613555610142565b91829182610193565b0390a2565b61351d919450613515909491506134d6565b508061358961358387610183565b91610183565b106134d1565b60207f7374616b6520646f6573206e6f74206578697374000000000000000000000000917f556e697377617056335374616b65723a3a676574526577617264496e666f3a205f8201520152565b6135e96034604092611196565b6135f28161358f565b0190565b61360b9060208101905f8183039101526135dc565b90565b1561361557565b61361d610142565b62461bcd60e51b815280613633600482016135f6565b0390fd5b9061364190610183565b9052565b9061364f906101e1565b9052565b9061365d90610853565b9052565b61366b60606104a0565b90565b906136bc6136b3600161367f613661565b9461369661368e5f83016107a5565b5f8801613637565b6136ad6136a48383016107d1565b60208801613645565b01610809565b60408401613653565b565b6136c79061366e565b90565b6136d490516101e1565b90565b613732906136e3611877565b506136ec611063565b506136f68161417a565b9261374361373e61373761370b8488906110ec565b9690969461372b8661372561371f5f612d90565b91610d9c565b1161360e565b6001610abf565b6127f8565b955f610773565b6136be565b92606061375a613755602086016115ff565b612eef565b9563a38807f29661379361377b8461377460408601611f48565b9401611f48565b9861379e613787610142565b9a8b9586948594611caf565b845260048401612fa4565b03915afa8015613826576137f3955f809290506137f7575b50916137cf60206137c85f8801611247565b96016136ca565b936137e860606137e160408401611247565b9201611247565b919293944296614443565b9091565b613818915060603d811161381f575b6138108183610477565b810190612f6a565b50906137b6565b503d613806565b611e24565b60207f656e74697665206e6f7420737461727465640000000000000000000000000000917f556e697377617056335374616b65723a3a7374616b65546f6b656e3a20696e635f8201520152565b6138856032604092611196565b61388e8161382b565b0190565b6138a79060208101905f818303910152613878565b90565b156138b157565b6138b9610142565b62461bcd60e51b8152806138cf60048201613892565b0390fd5b60207f656e7469766520656e6465640000000000000000000000000000000000000000917f556e697377617056335374616b65723a3a7374616b65546f6b656e3a20696e635f8201520152565b61392d602c604092611196565b613936816138d3565b0190565b61394f9060208101905f818303910152613920565b90565b1561395957565b613961610142565b62461bcd60e51b8152806139776004820161393a565b0390fd5b60207f2d6578697374656e7420696e63656e7469766500000000000000000000000000917f556e697377617056335374616b65723a3a7374616b65546f6b656e3a206e6f6e5f8201520152565b6139d56033604092611196565b6139de8161397b565b0190565b6139f79060208101905f8183039101526139c8565b90565b15613a0157565b613a09610142565b62461bcd60e51b815280613a1f600482016139e2565b0390fd5b60207f656e20616c7265616479207374616b6564000000000000000000000000000000917f556e697377617056335374616b65723a3a7374616b65546f6b656e3a20746f6b5f8201520152565b613a7d6031604092611196565b613a8681613a23565b0190565b613a9f9060208101905f818303910152613a70565b90565b15613aa957565b613ab1610142565b62461bcd60e51b815280613ac760048201613a8a565b0390fd5b60407f6c00000000000000000000000000000000000000000000000000000000000000917f556e697377617056335374616b65723a3a7374616b65546f6b656e3a20746f6b5f8201527f656e20706f6f6c206973206e6f742074686520696e63656e7469766520706f6f60208201520152565b613b4b6041606092611196565b613b5481613acb565b0190565b613b6d9060208101905f818303910152613b3e565b90565b15613b7757565b613b7f610142565b62461bcd60e51b815280613b9560048201613b58565b0390fd5b60207f6e6f74207374616b6520746f6b656e20776974682030206c6971756964697479917f556e697377617056335374616b65723a3a7374616b65546f6b656e3a2063616e5f8201520152565b613bf260408092611196565b613bfb81613b99565b0190565b613c149060208101905f818303910152613be6565b90565b15613c1e57565b613c26610142565b62461bcd60e51b815280613c3c60048201613bff565b0390fd5b613c4990610bcb565b65ffffffffffff8114613c5c5760010190565b611322565b613c6a90610853565b6bffffffffffffffffffffffff8114613c835760010190565b611322565b613c9c613c97613ca192610d9c565b610aa0565b610853565b90565b613cae60606104a0565b90565b90613cbb90610d9c565b9052565b613cc99051610853565b90565b613cd69051610d9c565b90565b90613cf46fffffffffffffffffffffffffffffffff9161159c565b9181191691161790565b90613d13613d0e613d1a92613114565b613130565b8254613cd9565b9055565b90613d6160406001613d6794613d415f8201613d3b5f88016136ca565b90612ff2565b613d595f8201613d5360208801613cbf565b90612ecf565b019201613ccc565b90613cfe565b565b90613d7391613d1e565b565b9190613d88905f60208501940190610db1565b565b613db242613dab613da5613da060408601611247565b610183565b91610183565b10156138aa565b613dd942613dd3613dcd613dc860608601611247565b610183565b91610183565b10613952565b613de28161417a565b91613e13613dfb5f613df5818790610773565b016107a5565b613e0d613e075f61117a565b91610183565b116139fa565b613e4e613e365f613e30613e296002869061106b565b8790611081565b01610809565b613e48613e425f6119f4565b91610853565b14613aa2565b613ecf6060613f40613ea27f00000000000000000000000000000000000000000000000000000000000000007f000000000000000000000000000000000000000000000000000000000000000086916141fa565b939295909591959397613ec9613ec3613ebe60208694016115ff565b61061e565b9161061e565b14613b70565b613eeb87613ee5613edf5f612d90565b91610d9c565b11613c17565b613f135f613efb60018990610abf565b01613f0d613f0882610b20565b613c40565b90611f28565b613f3b6001613f235f8b90610773565b01613f35613f3082610809565b613c61565b90612ecf565b612eef565b613f6263a38807f2949294613f6d613f56610142565b96879586948594611caf565b845260048401612fa4565b03915afa9081156140c8575f80929050614099575b5082613fa2613f9c6bffffffffffffffffffffffff61109a565b91610d9c565b10155f146140555761400490613fe96bffffffffffffffffffffffff613fe08691613fd7613fce613ca4565b955f8701613645565b60208501613653565b60408301613cb1565b613fff613ff86002859061106b565b8690611081565b613d69565b5b91909161405061403e6140387f3fe90ccd0a34e28f2b4b7a1e8323415ed9dd595f4eec5dfd461d18c2df336dbd93610aa3565b93610767565b93614047610142565b91829182613d75565b0390a3565b6140949061408361407a61407561406e6002879061106b565b8890611081565b611097565b915f8301612ff2565b5f61408d85613c88565b9101612ecf565b614005565b6140ba915060603d81116140c1575b6140b28183610477565b810190612f6a565b5090613f82565b503d6140a8565b611e24565b5f90565b6140da906115e7565b9052565b6140e790612eef565b9052565b6140f490610183565b9052565b614101906101ec565b9052565b9060808061415d9361411d5f8201515f8601906140d1565b61412f602082015160208601906140de565b614141604082015160408601906140eb565b614153606082015160608601906140eb565b01519101906140f8565b565b9190614172905f60a08501940190614105565b565b60200190565b6141ad61419e916141896140cd565b50614192610142565b9283916020830161415f565b60208201810382520382610477565b6141bf6141b982610963565b91614174565b2090565b5f90565b5f90565b5f90565b5f90565b6141dd60606104a0565b90565b906141ea90611ce7565b9052565b6141f790611619565b90565b906142719261424a6101809261420e6141c3565b506142176141c7565b506142206141c7565b50614229611067565b506142326141cb565b5061423b6141cb565b506142446141cf565b50610cb9565b6142666399fbab8861425a610142565b96879485938493611caf565b835260048301610193565b03915afa801561433c575f8080808080808092989495509550956142e8575b6142e594959697506142e09392916142d26142b36142db9398999a929594610e3c565b93946142c96142c06141d3565b965f8801611e41565b60208601611e41565b604084016141e0565b614eb1565b6141ee565b93565b505093505050506142db6142e56142e06142b361431f6142d2966101803d8111614335575b6143178183610477565b810190611d67565b5050505095509850985098945092509350614290565b503d61430d565b611e24565b634e487b7160e01b5f52600160045260245ffd5b1561435c57565b614341565b61436d614373916101e1565b916101e1565b90039060018060a01b03821161438557565b611322565b61439e6143996143a392610d9c565b610aa0565b6101e1565b90565b6143b56143bb919392936101e1565b926101e1565b916143c78382026101e1565b9281840414901517156143d657565b611322565b90565b60ff1690565b6143f86143f36143fd926143db565b610aa0565b6143de565b90565b61441f90614419614413614424946143de565b91610183565b90613012565b610183565b90565b61443b614436614440926101e1565b610aa0565b610183565b90565b946144c7926144ac6144c19395996144a66144cd986144a061449a6144b1976144dd9e61446e611877565b50614477611063565b506144958761448e6144888c610183565b91610183565b1015614355565b614361565b9161438a565b906143a6565b9a6152aa565b611336565b6144bb60806143e4565b90614400565b91614427565b90611336565b906144d784614427565b9061476e565b91565b60207f7366657246726f6d3a2063616c6c20746f206e6f6e2d636f6e74726163740000917f5472616e7366657248656c706572457874656e6465643a3a736166655472616e5f8201520152565b61453a603e604092611196565b614543816144e0565b0190565b61455c9060208101905f81830391015261452d565b90565b1561456657565b61456e610142565b62461bcd60e51b81528061458460048201614547565b0390fd5b916145a99391926145a061459b826145af565b61455f565b929091926150a2565b565b5f90565b6145b76145ab565b503b6145cb6145c55f61117a565b91610183565b1190565b60207f736665723a2063616c6c20746f206e6f6e2d636f6e7472616374000000000000917f5472616e7366657248656c706572457874656e6465643a3a736166655472616e5f8201520152565b614629603a604092611196565b614632816145cf565b0190565b61464b9060208101905f81830391015261461c565b90565b1561465557565b61465d610142565b62461bcd60e51b81528061467360048201614636565b0390fd5b916146959261468d614688826145af565b61464e565b9190916151fb565b565b1561469e57565b5f80fd5b90565b6146b96146b46146be92610183565b610aa0565b6146a2565b90565b6146ca906146a2565b600160ff1b81146146da575f0390565b611322565b6146f36146ee6146f8926146a2565b610aa0565b610183565b90565b61470a61471091939293610183565b92610183565b9161471c838202610183565b92818404149015171561472b57565b611322565b90565b61474761474261474c92614730565b610aa0565b610183565b90565b90565b61476661476161476b9261474f565b610aa0565b610183565b90565b614776611877565b5061477f611877565b50614788611877565b505f1982820991808202928380821091030391826147ae6147a85f61117a565b91610183565b146149395761493092858093614827936147dd614936996147d76147d187610183565b91610183565b11614697565b6147e5611877565b50099085821190039403936001614815614806614801866146a5565b6146c1565b61480f866146a5565b166146df565b80809504960493805f030401906146fb565b179161492a61490e6148ea6148c66148a261487e61484f600361484a8991614733565b6146fb565b6148596002614752565b18614878600261487361486d8b85906146fb565b91614752565b611336565b906146fb565b61489c60026148976148918a85906146fb565b91614752565b611336565b906146fb565b6148c060026148bb6148b58985906146fb565b91614752565b611336565b906146fb565b6148e460026148df6148d98885906146fb565b91614752565b611336565b906146fb565b61490860026149036148fd8785906146fb565b91614752565b611336565b906146fb565b9161492561491f60029285906146fb565b91614752565b611336565b906146fb565b906146fb565b90565b5050506149588261495261494c5f61117a565b91610183565b11614697565b0490565b606090565b5090565b67ffffffffffffffff811161497d5760208091020190565b610463565b9061499461498f83614965565b6104a0565b918252565b606090565b5f5b8281106149ac57505050565b6020906149b7614999565b81840152016149a0565b906149e66149ce83614982565b926020806149dc8693614965565b920191039061499e565b565b6149f190610cad565b90565b5f80fd5b5f80fd5b5f80fd5b903590600160200381360303821215614a42570180359067ffffffffffffffff8211614a3d57602001916001820236038313614a3857565b6149fc565b6149f8565b6149f4565b90821015614a62576020614a5e9202810190614a00565b9091565b61219d565b905090565b909182614a7c81614a8393614a67565b80936104d8565b0190565b9091614a9292614a6c565b90565b90614aa7614aa2836104b5565b6104a0565b918252565b606090565b3d5f14614acc57614ac13d614a95565b903d5f602084013e5b565b614ad4614aac565b90614aca565b151590565b90565b614af6614af1614afb92614adf565b610aa0565b610183565b90565b67ffffffffffffffff8111614b1c57614b18602091610459565b0190565b610463565b90929192614b36614b3182614afe565b6104a0565b93818552602085019082840111614b5257614b5092610970565b565b610455565b9080601f83011215614b7557816020614b7293519101614b21565b90565b61023e565b90602082820312614baa575f82015167ffffffffffffffff8111614ba557614ba29201614b57565b90565b6101dd565b61014c565b5190565b614bd2614bdb602093614be093614bc981614baf565b93848093611196565b95869101610970565b610459565b0190565b614bf99160208201915f818403910152614bb3565b90565b90614c0682610950565b811015614c17576020809102010190565b61219d565b919091614c2761495c565b50614c3b614c36828590614961565b6149c1565b92614c455f61117a565b5b80614c63614c5d614c58868690614961565b610183565b91610183565b1015614d3c575f80614c74306149e8565b614c8086868691614a47565b90614c95614c8c610142565b92839283614a87565b03915af4614cab614ca4614ab1565b9115614ada565b614cd65790614cca614cd192878391614cc48383614bfc565b52614bfc565b515061217d565b614c46565b614cdf81610963565b614cf2614cec6044614ae2565b91610183565b10614d3857614d176004614d3492016020614d0c82610963565b818301019101614b7a565b614d1f610142565b91829162461bcd60e51b835260048301614be4565b0390fd5b5f80fd5b505050565b614d4b9051611ce7565b90565b614d5790611ce7565b9052565b604090614d84614d8b9496959396614d7a60608401985f850190610bbe565b6020830190610bbe565b0190614d4e565b565b90565b614da4614d9f614da992614d8d565b61159c565b610723565b90565b614dd57fb9522ce68dced1b05442fafdf16c49d2e0755ca899b3b6a03479fe6ed2c22956614d90565b90565b905090565b5f60ff60f81b910152565b614df460018092614dd8565b614dfd81614ddd565b0190565b60601b90565b614e1090614e01565b90565b614e1c90614e07565b90565b614e2b614e30916101ec565b614e13565b9052565b90565b614e43614e4891610723565b614e34565b9052565b60209392614e756014614e7d94614e6d614e668996614de8565b8092614e1f565b018092614e37565b018092614e37565b0190565b614e8d614e9291610789565b610aa3565b90565b614ea9614ea4614eae92610183565b610aa0565b6101e1565b90565b614fa0614faa92614f88614fa593614ec76141cb565b50614ef9614ed65f850161160c565b614ef3614eed614ee86020880161160c565b6101ec565b916101ec565b10614697565b91614f46614f085f830161160c565b614f37614f236040614f1c6020870161160c565b9501614d41565b614f2b610142565b94859360208501614d5b565b60208201810382520382610477565b614f58614f5282610963565b91614174565b2091614f79614f65614dac565b614f6d610142565b94859360208501614e4c565b60208201810382520382610477565b614f9a614f9482610963565b91614174565b20614e81565b614e95565b610cad565b90565b604090614fd6614fdd9496959396614fcc60608401985f850190610bbe565b6020830190610bbe565b0190610186565b565b614fe881614ada565b03614fef57565b5f80fd5b9050519061500082614fdf565b565b9060208282031261501b57615018915f01614ff3565b90565b61014c565b5f7f5354460000000000000000000000000000000000000000000000000000000000910152565b6150546003602092611196565b61505d81615020565b0190565b6150769060208101905f818303910152615047565b90565b1561508057565b615088610142565b62461bcd60e51b81528061509e60048201615061565b0390fd5b9260046150e85f94936150d9869561510698956323b872dd60e01b939190916150c9610142565b9687956020870190815201614fad565b60208201810382520382610477565b82602082019151925af16150fa614ab1565b81615108575b50615079565b565b905061511381610963565b61512561511f5f61117a565b91610183565b14908115615135575b505f615100565b6151509150602061514582610963565b818301019101615002565b5f61512e565b91602061517792949361517060408201965f830190610bbe565b0190610186565b565b5f7f5354000000000000000000000000000000000000000000000000000000000000910152565b6151ad6002602092611196565b6151b681615179565b0190565b6151cf9060208101905f8183039101526151a0565b90565b156151d957565b6151e1610142565b62461bcd60e51b8152806151f7600482016151ba565b0390fd5b61525a92600461523c5f9461522d86959463a9059cbb60e01b9261521d610142565b9586946020860190815201615156565b60208201810382520382610477565b82602082019151925af161524e614ab1565b8161525c575b506151d2565b565b905061526781610963565b6152796152735f61117a565b91610183565b14908115615289575b505f615254565b6152a49150602061529982610963565b818301019101615002565b5f615282565b6152d3916152b6611877565b50816152ca6152c483610183565b91610183565b119190916152e4565b90565b906152e19102610183565b90565b6152fe61530492936152f4611877565b5080941891615308565b906152d6565b1890565b615310611877565b5015159056fea2646970667358221220acb429040080f04a2d8e68c589f0561cd1567b18319908c3f0ccf02c8918707f64736f6c63430008150033",
    "linkReferences": {}
  },
  "methodIdentifiers": {
    "claimReward(address,address,uint256)": "2f2d783d",
    "createIncentive((address,address,uint256,uint256,address),uint256)": "5cc5e3d9",
    "deposits(uint256)": "b02c43d0",
    "endIncentive((address,address,uint256,uint256,address))": "b5ada6e4",
    "factory()": "c45a0155",
    "getRewardInfo((address,address,uint256,uint256,address),uint256)": "d953186e",
    "incentives(bytes32)": "60777795",
    "maxIncentiveDuration()": "3dc0714b",
    "maxIncentiveStartLeadTime()": "01b75440",
    "multicall(bytes[])": "ac9650d8",
    "nonfungiblePositionManager()": "b44a2722",
    "onERC721Received(address,address,uint256,bytes)": "150b7a02",
    "rewards(address,address)": "e70b9e27",
    "stakeToken((address,address,uint256,uint256,address),uint256)": "f2d2909b",
    "stakes(uint256,bytes32)": "c36c1ea5",
    "transferDeposit(uint256,address)": "26bfee04",
    "unstakeToken((address,address,uint256,uint256,address),uint256)": "f549ab42",
    "withdrawToken(uint256,address,bytes)": "3c423f0b"
  },
  "id": 0
}