{"abi":[{"type":"constructor","inputs":[{"name":"_factory","type":"address","internalType":"contract IUniswapV3Factory"},{"name":"_nonfungiblePositionManager","type":"address","internalType":"contract INonfungiblePositionManager"},{"name":"_maxIncentiveStartLeadTime","type":"uint256","internalType":"uint256"},{"name":"_maxIncentiveDuration","type":"uint256","internalType":"uint256"}],"stateMutability":"nonpayable"},{"type":"function","name":"claimReward","inputs":[{"name":"rewardToken","type":"address","internalType":"contract IERC20Minimal"},{"name":"to","type":"address","internalType":"address"},{"name":"amountRequested","type":"uint256","internalType":"uint256"}],"outputs":[{"name":"reward","type":"uint256","internalType":"uint256"}],"stateMutability":"nonpayable"},{"type":"function","name":"createIncentive","inputs":[{"name":"key","type":"tuple","internalType":"struct IUniswapV3Staker.IncentiveKey","components":[{"name":"rewardToken","type":"address","internalType":"contract IERC20Minimal"},{"name":"pool","type":"address","internalType":"contract IUniswapV3Pool"},{"name":"startTime","type":"uint256","internalType":"uint256"},{"name":"endTime","type":"uint256","internalType":"uint256"},{"name":"refundee","type":"address","internalType":"address"}]},{"name":"reward","type":"uint256","internalType":"uint256"}],"outputs":[],"stateMutability":"nonpayable"},{"type":"function","name":"deposits","inputs":[{"name":"","type":"uint256","internalType":"uint256"}],"outputs":[{"name":"owner","type":"address","internalType":"address"},{"name":"numberOfStakes","type":"uint48","internalType":"uint48"},{"name":"tickLower","type":"int24","internalType":"int24"},{"name":"tickUpper","type":"int24","internalType":"int24"}],"stateMutability":"view"},{"type":"function","name":"endIncentive","inputs":[{"name":"key","type":"tuple","internalType":"struct IUniswapV3Staker.IncentiveKey","components":[{"name":"rewardToken","type":"address","internalType":"contract IERC20Minimal"},{"name":"pool","type":"address","internalType":"contract IUniswapV3Pool"},{"name":"startTime","type":"uint256","internalType":"uint256"},{"name":"endTime","type":"uint256","internalType":"uint256"},{"name":"refundee","type":"address","internalType":"address"}]}],"outputs":[{"name":"refund","type":"uint256","internalType":"uint256"}],"stateMutability":"nonpayable"},{"type":"function","name":"factory","inputs":[],"outputs":[{"name":"","type":"address","internalType":"contract IUniswapV3Factory"}],"stateMutability":"view"},{"type":"function","name":"getRewardInfo","inputs":[{"name":"key","type":"tuple","internalType":"struct IUniswapV3Staker.IncentiveKey","components":[{"name":"rewardToken","type":"address","internalType":"contract IERC20Minimal"},{"name":"pool","type":"address","internalType":"contract IUniswapV3Pool"},{"name":"startTime","type":"uint256","internalType":"uint256"},{"name":"endTime","type":"uint256","internalType":"uint256"},{"name":"refundee","type":"address","internalType":"address"}]},{"name":"tokenId","type":"uint256","internalType":"uint256"}],"outputs":[{"name":"reward","type":"uint256","internalType":"uint256"},{"name":"secondsInsideX128","type":"uint160","internalType":"uint160"}],"stateMutability":"view"},{"type":"function","name":"incentives","inputs":[{"name":"","type":"bytes32","internalType":"bytes32"}],"outputs":[{"name":"totalRewardUnclaimed","type":"uint256","internalType":"uint256"},{"name":"totalSecondsClaimedX128","type":"uint160","internalType":"uint160"},{"name":"numberOfStakes","type":"uint96","internalType":"uint96"}],"stateMutability":"view"},{"type":"function","name":"maxIncentiveDuration","inputs":[],"outputs":[{"name":"","type":"uint256","internalType":"uint256"}],"stateMutability":"view"},{"type":"function","name":"maxIncentiveStartLeadTime","inputs":[],"outputs":[{"name":"","type":"uint256","internalType":"uint256"}],"stateMutability":"view"},{"type":"function","name":"multicall","inputs":[{"name":"data","type":"bytes[]","internalType":"bytes[]"}],"outputs":[{"name":"results","type":"bytes[]","internalType":"bytes[]"}],"stateMutability":"payable"},{"type":"function","name":"nonfungiblePositionManager","inputs":[],"outputs":[{"name":"","type":"address","internalType":"contract INonfungiblePositionManager"}],"stateMutability":"view"},{"type":"function","name":"onERC721Received","inputs":[{"name":"","type":"address","internalType":"address"},{"name":"from","type":"address","internalType":"address"},{"name":"tokenId","type":"uint256","internalType":"uint256"},{"name":"data","type":"bytes","internalType":"bytes"}],"outputs":[{"name":"","type":"bytes4","internalType":"bytes4"}],"stateMutability":"nonpayable"},{"type":"function","name":"rewards","inputs":[{"name":"","type":"address","internalType":"contract IERC20Minimal"},{"name":"","type":"address","internalType":"address"}],"outputs":[{"name":"","type":"uint256","internalType":"uint256"}],"stateMutability":"view"},{"type":"function","name":"stakeToken","inputs":[{"name":"key","type":"tuple","internalType":"struct IUniswapV3Staker.IncentiveKey","components":[{"name":"rewardToken","type":"address","internalType":"contract IERC20Minimal"},{"name":"pool","type":"address","internalType":"contract IUniswapV3Pool"},{"name":"startTime","type":"uint256","internalType":"uint256"},{"name":"endTime","type":"uint256","internalType":"uint256"},{"name":"refundee","type":"address","internalType":"address"}]},{"name":"tokenId","type":"uint256","internalType":"uint256"}],"outputs":[],"stateMutability":"nonpayable"},{"type":"function","name":"stakes","inputs":[{"name":"tokenId","type":"uint256","internalType":"uint256"},{"name":"incentiveId","type":"bytes32","internalType":"bytes32"}],"outputs":[{"name":"secondsPerLiquidityInsideInitialX128","type":"uint160","internalType":"uint160"},{"name":"liquidity","type":"uint128","internalType":"uint128"}],"stateMutability":"view"},{"type":"function","name":"transferDeposit","inputs":[{"name":"tokenId","type":"uint256","internalType":"uint256"},{"name":"to","type":"address","internalType":"address"}],"outputs":[],"stateMutability":"nonpayable"},{"type":"function","name":"unstakeToken","inputs":[{"name":"key","type":"tuple","internalType":"struct IUniswapV3Staker.IncentiveKey","components":[{"name":"rewardToken","type":"address","internalType":"contract IERC20Minimal"},{"name":"pool","type":"address","internalType":"contract IUniswapV3Pool"},{"name":"startTime","type":"uint256","internalType":"uint256"},{"name":"endTime","type":"uint256","internalType":"uint256"},{"name":"refundee","type":"address","internalType":"address"}]},{"name":"tokenId","type":"uint256","internalType":"uint256"}],"outputs":[],"stateMutability":"nonpayable"},{"type":"function","name":"withdrawToken","inputs":[{"name":"tokenId","type":"uint256","internalType":"uint256"},{"name":"to","type":"address","internalType":"address"},{"name":"data","type":"bytes","internalType":"bytes"}],"outputs":[],"stateMutability":"nonpayable"},{"type":"event","name":"DepositTransferred","inputs":[{"name":"tokenId","type":"uint256","indexed":true,"internalType":"uint256"},{"name":"oldOwner","type":"address","indexed":true,"internalType":"address"},{"name":"newOwner","type":"address","indexed":true,"internalType":"address"}],"anonymous":false},{"type":"event","name":"IncentiveCreated","inputs":[{"name":"rewardToken","type":"address","indexed":true,"internalType":"contract IERC20Minimal"},{"name":"pool","type":"address","indexed":true,"internalType":"contract IUniswapV3Pool"},{"name":"startTime","type":"uint256","indexed":false,"internalType":"uint256"},{"name":"endTime","type":"uint256","indexed":false,"internalType":"uint256"},{"name":"refundee","type":"address","indexed":false,"internalType":"address"},{"name":"reward","type":"uint256","indexed":false,"internalType":"uint256"}],"anonymous":false},{"type":"event","name":"IncentiveEnded","inputs":[{"name":"incentiveId","type":"bytes32","indexed":true,"internalType":"bytes32"},{"name":"refund","type":"uint256","indexed":false,"internalType":"uint256"}],"anonymous":false},{"type":"event","name":"RewardClaimed","inputs":[{"name":"to","type":"address","indexed":true,"internalType":"address"},{"name":"reward","type":"uint256","indexed":false,"internalType":"uint256"}],"anonymous":false},{"type":"event","name":"TokenStaked","inputs":[{"name":"tokenId","type":"uint256","indexed":true,"internalType":"uint256"},{"name":"incentiveId","type":"bytes32","indexed":true,"internalType":"bytes32"},{"name":"liquidity","type":"uint128","indexed":false,"internalType":"uint128"}],"anonymous":false},{"type":"event","name":"TokenUnstaked","inputs":[{"name":"tokenId","type":"uint256","indexed":true,"internalType":"uint256"},{"name":"incentiveId","type":"bytes32","indexed":true,"internalType":"bytes32"}],"anonymous":false}],"bytecode":{"object":"0x610100604052346200009157620000236200001962000207565b9291909162000230565b6200002d62000097565b6154236200023f8239608051818181610e1a0152614233015260a051818181610c6f015281816116b1015281816116f1015281816121510152614254015260c0518181816101610152612699015260e0518181816105c30152612728015261542390f35b6200009d565b60405190565b5f80fd5b601f801991011690565b634e487b7160e01b5f52604160045260245ffd5b90620000cb90620000a1565b810190811060018060401b03821117620000e457604052565b620000ab565b9062000101620000f962000097565b9283620000bf565b565b5f80fd5b60018060a01b031690565b6200011d9062000107565b90565b6200012b9062000112565b90565b620001398162000120565b036200014157565b5f80fd5b9050519062000154826200012e565b565b620001619062000112565b90565b6200016f8162000156565b036200017757565b5f80fd5b905051906200018a8262000164565b565b90565b6200019a816200018c565b03620001a257565b5f80fd5b90505190620001b5826200018f565b565b6080818303126200020157620001d0825f830162000145565b92620001fe620001e484602085016200017b565b93620001f48160408601620001a6565b93606001620001a6565b90565b62000103565b6200022a62005662803803806200021e81620000ea565b928339810190620001b7565b90919293565b60805260a05260c05260e05256fe60806040526004361015610013575b61105f565b61001d5f3561013c565b806301b7544014610137578063150b7a021461013257806326bfee041461012d5780632f2d783d146101285780633c423f0b146101235780633dc0714b1461011e5780635cc5e3d9146101195780636077779514610114578063ac9650d81461010f578063b02c43d01461010a578063b44a272214610105578063b5ada6e414610100578063c36c1ea5146100fb578063c45a0155146100f6578063d953186e146100f1578063e70b9e27146100ec578063f2d2909b146100e75763f549ab420361000e5761102b565b610ff7565b610fc1565b610ec2565b610e6a565b610de1565b610d3a565b610ce7565b610c34565b610a56565b6108a3565b6106ef565b6105e5565b61058d565b61041f565b610382565b610317565b6101a8565b60e01c90565b60405190565b5f80fd5b5f80fd5b5f91031261015a57565b61014c565b7f000000000000000000000000000000000000000000000000000000000000000090565b90565b61018f90610183565b9052565b91906101a6905f60208501940190610186565b565b346101d8576101b8366004610150565b6101d46101c361015f565b6101cb610142565b91829182610193565b0390f35b610148565b5f80fd5b60018060a01b031690565b6101f5906101e1565b90565b610201816101ec565b0361020857565b5f80fd5b90503590610219826101f8565b565b61022481610183565b0361022b57565b5f80fd5b9050359061023c8261021b565b565b5f80fd5b5f80fd5b5f80fd5b909182601f830112156102845781359167ffffffffffffffff831161027f57602001926001830284011161027a57565b610246565b610242565b61023e565b906080828203126102e4576102a0815f840161020c565b926102ae826020850161020c565b926102bc836040830161022f565b92606082013567ffffffffffffffff81116102df576102db920161024a565b9091565b6101dd565b61014c565b63ffffffff60e01b1690565b6102fe906102e9565b9052565b9190610315905f602085019401906102f5565b565b3461034b5761034761033661032d366004610289565b93929092611693565b61033e610142565b91829182610302565b0390f35b610148565b9190604083820312610378578061036c610375925f860161022f565b9360200161020c565b90565b61014c565b5f0190565b346103b15761039b610395366004610350565b90611ab5565b6103a3610142565b806103ad8161037d565b0390f35b610148565b6103bf906101ec565b90565b6103cb816103b6565b036103d257565b5f80fd5b905035906103e3826103c2565b565b909160608284031261041a57610417610400845f85016103d6565b9361040e816020860161020c565b9360400161022f565b90565b61014c565b346104505761044c61043b6104353660046103e5565b91611bfc565b610443610142565b91829182610193565b0390f35b610148565b5f80fd5b601f801991011690565b634e487b7160e01b5f52604160045260245ffd5b9061048190610459565b810190811067ffffffffffffffff82111761049b57604052565b610463565b906104b36104ac610142565b9283610477565b565b67ffffffffffffffff81116104d3576104cf602091610459565b0190565b610463565b90825f939282370152565b909291926104f86104f3826104b5565b6104a0565b9381855260208501908284011161051457610512926104d8565b565b610455565b9080601f8301121561053757816020610534933591016104e3565b90565b61023e565b9160608383031261058857610553825f850161022f565b92610561836020830161020c565b92604082013567ffffffffffffffff8111610583576105809201610519565b90565b6101dd565b61014c565b346105bc576105a66105a036600461053c565b91612047565b6105ae610142565b806105b88161037d565b0390f35b610148565b7f000000000000000000000000000000000000000000000000000000000000000090565b34610615576105f5366004610150565b6106116106006105c1565b610608610142565b91829182610193565b0390f35b610148565b5f80fd5b610627906101ec565b90565b6106338161061e565b0361063a57565b5f80fd5b9050359061064b8261062a565b565b919060a0838203126106bd576106b69061066760a06104a0565b93610674825f83016103d6565b5f860152610685826020830161063e565b6020860152610697826040830161022f565b60408601526106a9826060830161022f565b606086015260800161020c565b6080830152565b61061a565b919060c0838203126106ea57806106de6106e7925f860161064d565b9360a00161022f565b90565b61014c565b3461071e576107086107023660046106c2565b90612634565b610710610142565b8061071a8161037d565b0390f35b610148565b90565b61072f81610723565b0361073657565b5f80fd5b9050359061074782610726565b565b906020828203126107625761075f915f0161073a565b90565b61014c565b61077090610723565b90565b9061077d90610767565b5f5260205260405f2090565b5f1c90565b90565b61079d6107a291610789565b61078e565b90565b6107af9054610791565b90565b60018060a01b031690565b6107c96107ce91610789565b6107b2565b90565b6107db90546107bd565b90565b60a01c90565b6bffffffffffffffffffffffff1690565b610801610806916107de565b6107e4565b90565b61081390546107f5565b90565b610820905f610773565b61082b5f82016107a5565b91610843600161083c8185016107d1565b9301610809565b90565b61084f906101e1565b9052565b6bffffffffffffffffffffffff1690565b61086d90610853565b9052565b60409061089a6108a1949695939661089060608401985f850190610186565b6020830190610846565b0190610864565b565b346108d6576108d26108be6108b9366004610749565b610816565b6108c9939193610142565b93849384610871565b0390f35b610148565b909182601f830112156109155781359167ffffffffffffffff831161091057602001926020830284011161090b57565b610246565b610242565b61023e565b9060208282031261094b575f82013567ffffffffffffffff81116109465761094292016108db565b9091565b6101dd565b61014c565b5190565b60209181520190565b60200190565b5190565b60209181520190565b5f5b838110610982575050905f910152565b806020918301518185015201610972565b6109b26109bb6020936109c0936109a981610963565b93848093610967565b95869101610970565b610459565b0190565b906109ce91610993565b90565b60200190565b906109eb6109e483610950565b8092610954565b90816109fc6020830284019461095d565b925f915b838310610a0f57505050505090565b90919293946020610a31610a2b838560019503875289516109c4565b976109d1565b9301930191939290610a00565b610a539160208201915f8184039101526109d7565b90565b610a7e610a6d610a6736600461091a565b90612afc565b610a75610142565b91829182610a3e565b0390f35b90602082820312610a9b57610a98915f0161022f565b90565b61014c565b90565b610ab7610ab2610abc92610183565b610aa0565b610183565b90565b90610ac990610aa3565b5f5260205260405f2090565b60018060a01b031690565b610aec610af191610789565b610ad5565b90565b610afe9054610ae0565b90565b65ffffffffffff1690565b610b18610b1d916107de565b610b01565b90565b610b2a9054610b0c565b90565b60d01c90565b60020b90565b610b45610b4a91610b2d565b610b33565b90565b610b579054610b39565b90565b60e81c90565b610b6c610b7191610b5a565b610b33565b90565b610b7e9054610b60565b90565b610b8c906001610abf565b90610b985f8301610af4565b91610ba45f8201610b20565b91610bbb5f610bb4818501610b4d565b9301610b74565b90565b610bc7906101ec565b9052565b65ffffffffffff1690565b610bdf90610bcb565b9052565b60020b90565b610bf290610be3565b9052565b610c2b610c3294610c21606094989795610c17608086019a5f870190610bbe565b6020850190610bd6565b6040830190610be9565b0190610be9565b565b34610c6857610c64610c4f610c4a366004610a82565b610b81565b90610c5b949294610142565b94859485610bf6565b0390f35b610148565b7f000000000000000000000000000000000000000000000000000000000000000090565b610ca5610ca0610caa926101e1565b610aa0565b6101e1565b90565b610cb690610c91565b90565b610cc290610cad565b90565b610cce90610cb9565b9052565b9190610ce5905f60208501940190610cc5565b565b34610d1757610cf7366004610150565b610d13610d02610c6d565b610d0a610142565b91829182610cd2565b0390f35b610148565b9060a082820312610d3557610d32915f0161064d565b90565b61014c565b34610d6a57610d66610d55610d50366004610d1c565b612e84565b610d5d610142565b91829182610193565b0390f35b610148565b9190604083820312610d975780610d8b610d94925f860161022f565b9360200161073a565b90565b61014c565b6fffffffffffffffffffffffffffffffff1690565b610dba90610d9c565b9052565b916020610ddf929493610dd860408201965f830190610846565b0190610db1565b565b34610e1357610dfa610df4366004610d6f565b9061302e565b90610e0f610e06610142565b92839283610dbe565b0390f35b610148565b7f000000000000000000000000000000000000000000000000000000000000000090565b610e4590610cad565b90565b610e5190610e3c565b9052565b9190610e68905f60208501940190610e48565b565b34610e9a57610e7a366004610150565b610e96610e85610e18565b610e8d610142565b91829182610e55565b0390f35b610148565b916020610ec0929493610eb960408201965f830190610186565b0190610846565b565b34610ef457610edb610ed53660046106c2565b906132f5565b90610ef0610ee7610142565b92839283610e9f565b0390f35b610148565b9190604083820312610f215780610f15610f1e925f86016103d6565b9360200161020c565b90565b61014c565b610f2f90610c91565b90565b610f3b90610f26565b90565b90610f4890610f32565b5f5260205260405f2090565b610f5d90610cad565b90565b90610f6a90610f54565b5f5260205260405f2090565b1c90565b610f8a906008610f8f9302610f76565b61078e565b90565b90610f9d9154610f7a565b90565b610fb9610fbe92610fb46003935f94610f3e565b610f60565b610f92565b90565b34610ff257610fee610fdd610fd7366004610ef9565b90610fa0565b610fe5610142565b91829182610193565b0390f35b610148565b346110265761101061100a3660046106c2565b906134f1565b611018610142565b806110228161037d565b0390f35b610148565b3461105a5761104461103e3660046106c2565b906138e1565b61104c610142565b806110568161037d565b0390f35b610148565b5f80fd5b5f90565b60209181520190565b60207f643a206e6f74206120756e697633206e66740000000000000000000000000000917f556e697377617056335374616b65723a3a6f6e455243373231526563656976655f8201520152565b6110ca6032604092611067565b6110d381611070565b0190565b6110ec9060208101905f8183039101526110bd565b90565b156110f657565b6110fe610142565b62461bcd60e51b815280611114600482016110d7565b0390fd5b5f80fd5b60e01b90565b61112b81610853565b0361113257565b5f80fd5b9050519061114382611122565b565b90505190611152826101f8565b565b62ffffff1690565b61116581611154565b0361116c57565b5f80fd5b9050519061117d8261115c565b565b61118881610be3565b0361118f57565b5f80fd5b905051906111a08261117f565b565b6111ab81610d9c565b036111b257565b5f80fd5b905051906111c3826111a2565b565b905051906111d28261021b565b565b90916101808284031261128c576111ed835f8401611136565b926111fb8160208501611145565b926112098260408301611145565b926112178360608401611145565b926112258160808501611170565b926112338260a08301611193565b926112418360c08401611193565b9261124f8160e085016111b6565b9261125e8261010083016111c5565b926112896112708461012085016111c5565b9361127f8161014086016111b6565b93610160016111b6565b90565b61014c565b611299610142565b3d5f823e3d90fd5b6112ab60806104a0565b90565b906112b8906101ec565b9052565b90565b6112d36112ce6112d8926112bc565b610aa0565b610bcb565b90565b906112e590610bcb565b9052565b906112f390610be3565b9052565b634e487b7160e01b5f525f60045260245ffd5b61131490516101ec565b90565b5f1b90565b9061132d60018060a01b0391611317565b9181191691161790565b90565b9061134f61134a61135692610f54565b611337565b825461131c565b9055565b6113649051610bcb565b90565b60a01b90565b9061138165ffffffffffff60a01b91611367565b9181191691161790565b61139f61139a6113a492610bcb565b610aa0565b610bcb565b90565b90565b906113bf6113ba6113c69261138b565b6113a7565b825461136d565b9055565b6113d49051610be3565b90565b60d01b90565b906113ee62ffffff60d01b916113d7565b9181191691161790565b61140c61140761141192610be3565b610aa0565b610be3565b90565b90565b9061142c611427611433926113f8565b611414565b82546113dd565b9055565b60e81b90565b9061144e62ffffff60e81b91611437565b9181191691161790565b9061146d611468611474926113f8565b611414565b825461143d565b9055565b906114d260605f6114d89461149a82820161149484880161130a565b9061133a565b6114b28282016114ac6020880161135a565b906113aa565b6114ca8282016114c4604088016113ca565b90611417565b0192016113ca565b90611458565b565b906114e491611478565b565b6114fa6114f56114ff926112bc565b610aa0565b6101e1565b90565b61150b906114e6565b90565b5090565b61152661152161152b926112bc565b610aa0565b610183565b90565b90565b61154561154061154a9261152e565b610aa0565b610183565b90565b67ffffffffffffffff81116115655760208091020190565b610463565b9092919261157f61157a8261154d565b6104a0565b9381855260a06020860192028301928184116115be57915b8383106115a45750505050565b602060a0916115b3848661064d565b815201920191611597565b610246565b9080601f830112156115e1578160206115de9335910161156a565b90565b61023e565b90602082820312611616575f82013567ffffffffffffffff81116116115761160e92016115c3565b90565b6101dd565b61014c565b60016116279101610183565b90565b5190565b634e487b7160e01b5f52603260045260245ffd5b9061164c8261162a565b81101561165d576020809102010190565b61162e565b61166b90610cad565b90565b63ffffffff1690565b61168b6116866116909261166e565b61111c565b6102e9565b90565b5093929091936116a1611063565b506116e6336116e06116da6116d57f0000000000000000000000000000000000000000000000000000000000000000610cb9565b6101ec565b916101ec565b146110ef565b61173f6101806117157f0000000000000000000000000000000000000000000000000000000000000000610cb9565b6399fbab88906117348792611728610142565b9586948593849361111c565b835260048301610193565b03915afa90811561193a576117bc915f8080808080809795509593505050506118fb575b506117ab906117a285936117996117905f94929461178b6117826112a1565b985f8a016112ae565b6112bf565b602087016112db565b604085016112e9565b606083016112e9565b6117b760018690610abf565b6114da565b82906117c75f611502565b6118036117fd6117f77fcdfc765b85e1048bee3c6a0f9d1c91fc7c4631f5fe5745a55fc6843db5c3260f95610aa3565b92610f54565b92610f54565b9261180c610142565b806118168161037d565b0390a461182484829061150e565b6118366118305f611512565b91610183565b11611850575b5050905061184d63150b7a02611677565b90565b61185b84829061150e565b61186e61186860a0611531565b91610183565b145f14611895576118879061188c939490810190610d1c565b614162565b5b805f8061183c565b6118a39193908101906115e6565b6118ac5f611512565b5b806118c86118c26118bd8561162a565b610183565b91610183565b10156118f2576118ed906118e86118e0848390611642565b518690614162565b61161b565b6118ad565b5050905061188d565b6117ab925061192291506101803d8111611933575b61191a8183610477565b8101906111d4565b505050505096509450505050611763565b503d611910565b611291565b60207f3a20696e76616c6964207472616e7366657220726563697069656e7400000000917f556e697377617056335374616b65723a3a7472616e736665724465706f7369745f8201520152565b611999603c604092611067565b6119a28161193f565b0190565b6119bb9060208101905f81830391015261198c565b90565b156119c557565b6119cd610142565b62461bcd60e51b8152806119e3600482016119a6565b0390fd5b60407f6f776e6572000000000000000000000000000000000000000000000000000000917f556e697377617056335374616b65723a3a7472616e736665724465706f7369745f8201527f3a2063616e206f6e6c792062652063616c6c6564206279206465706f7369742060208201520152565b611a676045606092611067565b611a70816119e7565b0190565b611a899060208101905f818303910152611a5a565b90565b15611a9357565b611a9b610142565b62461bcd60e51b815280611ab160048201611a74565b0390fd5b90611adb81611ad4611ace611ac95f611502565b6101ec565b916101ec565b14156119be565b611af15f611aeb60018590610abf565b01610af4565b91611b0e83611b08611b02336101ec565b916101ec565b14611a8c565b611b25825f611b1f60018590610abf565b0161133a565b91611b62611b5c611b567fcdfc765b85e1048bee3c6a0f9d1c91fc7c4631f5fe5745a55fc6843db5c3260f95610aa3565b92610f54565b92610f54565b92611b6b610142565b80611b758161037d565b0390a4565b5f90565b634e487b7160e01b5f52601160045260245ffd5b611ba1611ba791939293610183565b92610183565b8203918211611bb257565b611b7e565b90611bc35f1991611317565b9181191691161790565b90565b90611be5611be0611bec92610aa3565b611bcd565b8254611bb7565b9055565b611bf990610cad565b90565b929192611c07611b7a565b50611c26611c21611c1a60038490610f3e565b3390610f60565b6107a5565b9380611c3a611c345f611512565b91610183565b141580611ce6575b611cd4575b50611c86611c8e91611c8186611c7b611c6c611c6560038690610f3e565b3390610f60565b91611c76836107a5565b611b92565b90611bd0565b611bf0565b82859161454d565b8290611ccf611cbd7f106f923f993c2149d49b4255ff723acafa1f2d94393f561d3eda32ae348f724192610f54565b92611cc6610142565b91829182610193565b0390a2565b611c8e919450611c8690949150611c47565b5080611cfa611cf487610183565b91610183565b10611c42565b60207f63616e6e6f7420776974686472617720746f207374616b657200000000000000917f556e697377617056335374616b65723a3a7769746864726177546f6b656e3a205f8201520152565b611d5a6039604092611067565b611d6381611d00565b0190565b611d7c9060208101905f818303910152611d4d565b90565b15611d8657565b611d8e610142565b62461bcd60e51b815280611da460048201611d67565b0390fd5b611db260806104a0565b90565b90611e19611e105f611dc5611da8565b94611ddc611dd4838301610af4565b8388016112ae565b611df3611dea838301610b20565b602088016112db565b611e0a611e01838301610b4d565b604088016112e9565b01610b74565b606084016112e9565b565b611e2490611db5565b90565b60407f6564000000000000000000000000000000000000000000000000000000000000917f556e697377617056335374616b65723a3a7769746864726177546f6b656e3a205f8201527f63616e6e6f7420776974686472617720746f6b656e207768696c65207374616b60208201520152565b611ea76042606092611067565b611eb081611e27565b0190565b611ec99060208101905f818303910152611e9a565b90565b15611ed357565b611edb610142565b62461bcd60e51b815280611ef160048201611eb4565b0390fd5b60207f6f6e6c79206f776e65722063616e20776974686472617720746f6b656e000000917f556e697377617056335374616b65723a3a7769746864726177546f6b656e3a205f8201520152565b611f4f603d604092611067565b611f5881611ef5565b0190565b611f719060208101905f818303910152611f42565b90565b15611f7b57565b611f83610142565b62461bcd60e51b815280611f9960048201611f5c565b0390fd5b5f80910155565b905f03611fb657611fb490611f9d565b565b6112f7565b5f910312611fc557565b61014c565b60209181520190565b611ff2611ffb60209361200093611fe981610963565b93848093611fca565b95869101610970565b610459565b0190565b90926120379061202d612044969461202360808601975f870190610bbe565b6020850190610bbe565b6040830190610186565b6060818403910152611fd3565b90565b919061206e8161206761206161205c30611662565b6101ec565b916101ec565b1415611d7f565b61208261207d60018590610abf565b611e1b565b6120a96120916020830161135a565b6120a361209d5f6112bf565b91610bcb565b14611ecc565b6120cf6120b75f830161130a565b6120c96120c3336101ec565b916101ec565b14611f74565b6120e45f6120df60018790610abf565b611fa4565b6120f05f85920161130a565b6120f95f611502565b9061213661213061212a7fcdfc765b85e1048bee3c6a0f9d1c91fc7c4631f5fe5745a55fc6843db5c3260f95610aa3565b92610f54565b92610f54565b9261213f610142565b806121498161037d565b0390a46121757f0000000000000000000000000000000000000000000000000000000000000000610cb9565b63b88d4fde9261218430611662565b929490823b156121fb575f946121b886926121ad946121a1610142565b998a988997889661111c565b865260048601612004565b03925af180156121f6576121ca575b50565b6121e9905f3d81116121ef575b6121e18183610477565b810190611fbb565b5f6121c7565b503d6121d7565b611291565b611118565b60207f3a20726577617264206d75737420626520706f73697469766500000000000000917f556e697377617056335374616b65723a3a637265617465496e63656e746976655f8201520152565b61225a6039604092611067565b61226381612200565b0190565b61227c9060208101905f81830391015261224d565b90565b1561228657565b61228e610142565b62461bcd60e51b8152806122a460048201612267565b0390fd5b6122b29051610183565b90565b60407f6865206675747572650000000000000000000000000000000000000000000000917f556e697377617056335374616b65723a3a637265617465496e63656e746976655f8201527f3a2073746172742074696d65206d757374206265206e6f77206f7220696e207460208201520152565b6123356049606092611067565b61233e816122b5565b0190565b6123579060208101905f818303910152612328565b90565b1561236157565b612369610142565b62461bcd60e51b81528061237f60048201612342565b0390fd5b60207f3a2073746172742074696d6520746f6f2066617220696e746f20667574757265917f556e697377617056335374616b65723a3a637265617465496e63656e746976655f8201520152565b6123dc60408092611067565b6123e581612383565b0190565b6123fe9060208101905f8183039101526123d0565b90565b1561240857565b612410610142565b62461bcd60e51b815280612426600482016123e9565b0390fd5b60407f74696d6500000000000000000000000000000000000000000000000000000000917f556e697377617056335374616b65723a3a637265617465496e63656e746976655f8201527f3a2073746172742074696d65206d757374206265206265666f726520656e642060208201520152565b6124aa6044606092611067565b6124b38161242a565b0190565b6124cc9060208101905f81830391015261249d565b90565b156124d657565b6124de610142565b62461bcd60e51b8152806124f4600482016124b7565b0390fd5b60207f3a20696e63656e74697665206475726174696f6e20697320746f6f206c6f6e67917f556e697377617056335374616b65723a3a637265617465496e63656e746976655f8201520152565b61255160408092611067565b61255a816124f8565b0190565b6125739060208101905f818303910152612545565b90565b1561257d57565b612585610142565b62461bcd60e51b81528061259b6004820161255e565b0390fd5b6125ae6125b491939293610183565b92610183565b82018092116125bf57565b611b7e565b6125ce90516103b6565b90565b6125db905161061e565b90565b6125e790610c91565b90565b6125f3906125de565b90565b61262b61263294612621606094989795612617608086019a5f870190610186565b6020850190610186565b6040830190610bbe565b0190610186565b565b6126508261264a6126445f611512565b91610183565b1161227f565b6126784261267161266b612666604086016122a8565b610183565b91610183565b111561235a565b6126ca61269161268a604084016122a8565b4290611b92565b6126c36126bd7f0000000000000000000000000000000000000000000000000000000000000000610183565b91610183565b1115612401565b6126fc6126d9604083016122a8565b6126f66126f06126eb606086016122a8565b610183565b91610183565b106124cf565b61275961272061270e606084016122a8565b61271a604085016122a8565b90611b92565b61275261274c7f0000000000000000000000000000000000000000000000000000000000000000610183565b91610183565b1115612576565b61278a6127658261461a565b6127845f612774869382610773565b019161277f836107a5565b61259f565b90611bd0565b6127b26127a061279b5f84016125c4565b611bf0565b336127aa30611662565b90859261470b565b6127bd5f82016125c4565b6127c9602083016125d1565b916127d6604082016122a8565b6128376127f160806127ea606086016122a8565b940161130a565b9561282561281f7fa876344e28d4b5191ad03bc0d43f740e3695827ab0faccac739930b915ef8b0296610f32565b966125ea565b9661282e610142565b948594856125f6565b0390a3565b606090565b5090565b67ffffffffffffffff811161285d5760208091020190565b610463565b9061287461286f83612845565b6104a0565b918252565b606090565b5f5b82811061288c57505050565b602090612897612879565b8184015201612880565b906128c66128ae83612862565b926020806128bc8693612845565b920191039061287e565b565b6128d190610cad565b90565b5f80fd5b5f80fd5b5f80fd5b903590600160200381360303821215612922570180359067ffffffffffffffff821161291d5760200191600182023603831361291857565b6128dc565b6128d8565b6128d4565b9082101561294257602061293e92028101906128e0565b9091565b61162e565b905090565b90918261295c8161296393612947565b80936104d8565b0190565b90916129729261294c565b90565b90612987612982836104b5565b6104a0565b918252565b606090565b3d5f146129ac576129a13d612975565b903d5f602084013e5b565b6129b461298c565b906129aa565b151590565b90565b6129d66129d16129db926129bf565b610aa0565b610183565b90565b67ffffffffffffffff81116129fc576129f8602091610459565b0190565b610463565b90929192612a16612a11826129de565b6104a0565b93818552602085019082840111612a3257612a3092610970565b565b610455565b9080601f83011215612a5557816020612a5293519101612a01565b90565b61023e565b90602082820312612a8a575f82015167ffffffffffffffff8111612a8557612a829201612a37565b90565b6101dd565b61014c565b5190565b612ab2612abb602093612ac093612aa981612a8f565b93848093611067565b95869101610970565b610459565b0190565b612ad99160208201915f818403910152612a93565b90565b90612ae682610950565b811015612af7576020809102010190565b61162e565b919091612b0761283c565b50612b1b612b16828590612841565b6128a1565b92612b255f611512565b5b80612b43612b3d612b38868690612841565b610183565b91610183565b1015612c1c575f80612b54306128c8565b612b6086868691612927565b90612b75612b6c610142565b92839283612967565b03915af4612b8b612b84612991565b91156129ba565b612bb65790612baa612bb192878391612ba48383612adc565b52612adc565b515061161b565b612b26565b612bbf81610963565b612bd2612bcc60446129c2565b91610183565b10612c1857612bf76004612c1492016020612bec82610963565b818301019101612a5a565b612bff610142565b91829162461bcd60e51b835260048301612ac4565b0390fd5b5f80fd5b505050565b60407f696d650000000000000000000000000000000000000000000000000000000000917f556e697377617056335374616b65723a3a656e64496e63656e746976653a20635f8201527f616e6e6f7420656e6420696e63656e74697665206265666f726520656e64207460208201520152565b612ca16043606092611067565b612caa81612c21565b0190565b612cc39060208101905f818303910152612c94565b90565b15612ccd57565b612cd5610142565b62461bcd60e51b815280612ceb60048201612cae565b0390fd5b90565b60207f6f20726566756e6420617661696c61626c650000000000000000000000000000917f556e697377617056335374616b65723a3a656e64496e63656e746976653a206e5f8201520152565b612d4c6032604092611067565b612d5581612cf2565b0190565b612d6e9060208101905f818303910152612d3f565b90565b15612d7857565b612d80610142565b62461bcd60e51b815280612d9660048201612d59565b0390fd5b612dae612da9612db3926112bc565b610aa0565b610853565b90565b60407f747320617265207374616b656400000000000000000000000000000000000000917f556e697377617056335374616b65723a3a656e64496e63656e746976653a20635f8201527f616e6e6f7420656e6420696e63656e74697665207768696c65206465706f736960208201520152565b612e36604d606092611067565b612e3f81612db6565b0190565b612e589060208101905f818303910152612e29565b90565b15612e6257565b612e6a610142565b62461bcd60e51b815280612e8060048201612e43565b0390fd5b90612e8d611b7a565b50612eb642612eaf612ea9612ea4606087016122a8565b610183565b91610183565b1015612cc6565b612ebf8261461a565b612f5f612ed5612ed05f8490610773565b612cef565b93612f39612ee45f87016107a5565b95612f0187612efb612ef55f611512565b91610183565b11612d71565b612f28612f1060018301610809565b612f22612f1c5f612d9a565b91610853565b14612e5b565b5f612f3281611512565b9101611bd0565b612f586080612f51612f4c5f85016125c4565b611bf0565b920161130a565b859161454d565b8290612fa0612f8e7f65124e6175aa9904f40735e87e2a37c76e87a609b855287bb4d1aba8257d976392610767565b92612f97610142565b91829182610193565b0390a2565b5f90565b5f90565b90612fb790610aa3565b5f5260205260405f2090565b90612fcd90610767565b5f5260205260405f2090565b90565b612ff0612feb612ff592610853565b610aa0565b610d9c565b90565b6fffffffffffffffffffffffffffffffff1690565b61301961301e91610789565b612ff8565b90565b61302b905461300d565b90565b61305c9161305261305792613041612fa5565b5061304a612fa9565b506002612fad565b612fc3565b612fd9565b6130675f82016107d1565b9161307b6130765f8401610809565b612fdc565b918261309b6130956bffffffffffffffffffffffff612fdc565b91610d9c565b146130a4575b50565b6130b2919250600101613021565b905f6130a1565b6130cd6130c86130d2926112bc565b610aa0565b610d9c565b90565b60207f7374616b6520646f6573206e6f74206578697374000000000000000000000000917f556e697377617056335374616b65723a3a676574526577617264496e666f3a205f8201520152565b61312f6034604092611067565b613138816130d5565b0190565b6131519060208101905f818303910152613122565b90565b1561315b57565b613163610142565b62461bcd60e51b8152806131796004820161313c565b0390fd5b9061318790610183565b9052565b90613195906101e1565b9052565b906131a390610853565b9052565b6131b160606104a0565b90565b906132026131f960016131c56131a7565b946131dc6131d45f83016107a5565b5f880161317d565b6131f36131ea8383016107d1565b6020880161318b565b01610809565b60408401613199565b565b61320d906131b4565b90565b61321990610cad565b90565b60060b90565b61322b8161321c565b0361323257565b5f80fd5b9050519061324382613222565b565b61324e816101e1565b0361325557565b5f80fd5b9050519061326682613245565b565b6132718161166e565b0361327857565b5f80fd5b9050519061328982613268565b565b90916060828403126132c0576132bd6132a6845f8501613236565b936132b48160208601613259565b9360400161327c565b90565b61014c565b9160206132e69294936132df60408201965f830190610be9565b0190610be9565b565b6132f290516101e1565b90565b61335090613301611b7a565b5061330a612fa5565b506133148161461a565b9261336161335c61335561332984889061302e565b969096946133498661334361333d5f6130b9565b91610d9c565b11613154565b6001610abf565b611e1b565b955f610773565b613204565b926060613378613373602086016125d1565b613210565b9563a38807f2966133b161339984613392604086016113ca565b94016113ca565b986133bc6133a5610142565b9a8b958694859461111c565b8452600484016132c5565b03915afa801561344457613411955f80929050613415575b50916133ed60206133e65f88016122a8565b96016132e8565b9361340660606133ff604084016122a8565b92016122a8565b919293944296614830565b9091565b613436915060603d811161343d575b61342e8183610477565b81019061328b565b50906133d4565b503d613424565b611291565b60207f79206f776e65722063616e207374616b6520746f6b656e000000000000000000917f556e697377617056335374616b65723a3a7374616b65546f6b656e3a206f6e6c5f8201520152565b6134a36037604092611067565b6134ac81613449565b0190565b6134c59060208101905f818303910152613496565b90565b156134cf57565b6134d7610142565b62461bcd60e51b8152806134ed600482016134b0565b0390fd5b9061352c9161352761350f5f61350960018690610abf565b01610af4565b61352161351b336101ec565b916101ec565b146134c8565b614162565b565b60407f6f726520696e63656e7469766520656e642074696d6500000000000000000000917f556e697377617056335374616b65723a3a756e7374616b65546f6b656e3a206f5f8201527f6e6c79206f776e65722063616e20776974686472617720746f6b656e2062656660208201520152565b6135ae6056606092611067565b6135b78161352e565b0190565b6135d09060208101905f8183039101526135a1565b90565b156135da57565b6135e2610142565b62461bcd60e51b8152806135f8600482016135bb565b0390fd5b60207f74616b6520646f6573206e6f7420657869737400000000000000000000000000917f556e697377617056335374616b65723a3a756e7374616b65546f6b656e3a20735f8201520152565b6136566033604092611067565b61365f816135fc565b0190565b6136789060208101905f818303910152613649565b90565b1561368257565b61368a610142565b62461bcd60e51b8152806136a060048201613663565b0390fd5b6136ad90610bcb565b5f81146136bb576001900390565b611b7e565b6136c990610853565b5f81146136d7576001900390565b611b7e565b906136f66bffffffffffffffffffffffff60a01b91611367565b9181191691161790565b61371461370f61371992610853565b610aa0565b610853565b90565b90565b9061373461372f61373b92613700565b61371c565b82546136dc565b9055565b61374b613751916101e1565b916101e1565b019060018060a01b03821161376257565b611b7e565b90565b9061377f61377a61378692610c91565b613767565b825461131c565b9055565b1b90565b919060086137ae9102916137a860018060a01b038461378a565b9261378a565b9181191691161790565b91906137ce6137c96137d693610c91565b613767565b90835461378e565b9055565b6137ec916137e6612fa5565b916137b8565b565b9190600861381491029161380e6bffffffffffffffffffffffff8461378a565b9261378a565b9181191691161790565b919061383461382f61383c93613700565b61371c565b9083546137ee565b9055565b5f90565b61385691613850613840565b9161381e565b565b9190600861388291029161387c6fffffffffffffffffffffffffffffffff8461378a565b9261378a565b9181191691161790565b6138a061389b6138a592610d9c565b610aa0565b610d9c565b90565b90565b91906138c16138bc6138c99361388c565b6138a8565b908354613858565b9055565b6138df916138d9612fa9565b916138ab565b565b906138f66138f160018390610abf565b611e1b565b914261391561390f61390a606085016122a8565b610183565b91610183565b10613bd8575b6139248161461a565b9261393083859061302e565b929061394f846139486139425f6130b9565b91610d9c565b141561367b565b61396261395d5f8890610773565b612cef565b9261398b5f61397360018990610abf565b0161398561398082610b20565b6136a4565b906113aa565b6139a9600185016139a361399e82610809565b6136c0565b9061371f565b6139bd6139b8602085016125d1565b613210565b90606063a38807f2926139d2604084016113ca565b906139f96139e18486016113ca565b95613a046139ed610142565b9788958694859461111c565b8452600484016132c5565b03915afa918215613bd3575f613ac5613a95613ab1613ae799613a768c8b613ae19b613ad29b613acc9a8a80929050613ba4575b5090613a458a87016107a5565b93613a52600188016107d1565b93613a6b6060613a64604084016122a8565b92016122a8565b919293944296614830565b939093613a8f6001840191613a8a836107d1565b61373f565b9061376a565b613aab8584920191613aa6836107a5565b611b92565b90611bd0565b96613abf83600392016125c4565b90610f3e565b920161130a565b90610f60565b91613adc836107a5565b61259f565b90611bd0565b613b05613b00613af960028590612fad565b8590612fc3565b612fd9565b90613b125f8084016137da565b613b1f60145f8401613844565b613b3d613b376bffffffffffffffffffffffff612fdc565b91610d9c565b1015613b91575b5090613b79613b737fe1ba67e807ae0efa0a9549f9520ddc15c27f0a4dae2bc045e800ca66a940778f93610aa3565b91610767565b91613b82610142565b80613b8c8161037d565b0390a3565b5f6001613b9e92016138cd565b5f613b44565b613bc5915060603d8111613bcc575b613bbd8183610477565b81019061328b565b5090613a38565b503d613bb3565b611291565b613bfe613be65f850161130a565b613bf8613bf2336101ec565b916101ec565b146135d3565b61391b565b60207f656e74697665206e6f7420737461727465640000000000000000000000000000917f556e697377617056335374616b65723a3a7374616b65546f6b656e3a20696e635f8201520152565b613c5d6032604092611067565b613c6681613c03565b0190565b613c7f9060208101905f818303910152613c50565b90565b15613c8957565b613c91610142565b62461bcd60e51b815280613ca760048201613c6a565b0390fd5b60207f656e7469766520656e6465640000000000000000000000000000000000000000917f556e697377617056335374616b65723a3a7374616b65546f6b656e3a20696e635f8201520152565b613d05602c604092611067565b613d0e81613cab565b0190565b613d279060208101905f818303910152613cf8565b90565b15613d3157565b613d39610142565b62461bcd60e51b815280613d4f60048201613d12565b0390fd5b60207f2d6578697374656e7420696e63656e7469766500000000000000000000000000917f556e697377617056335374616b65723a3a7374616b65546f6b656e3a206e6f6e5f8201520152565b613dad6033604092611067565b613db681613d53565b0190565b613dcf9060208101905f818303910152613da0565b90565b15613dd957565b613de1610142565b62461bcd60e51b815280613df760048201613dba565b0390fd5b60207f656e20616c7265616479207374616b6564000000000000000000000000000000917f556e697377617056335374616b65723a3a7374616b65546f6b656e3a20746f6b5f8201520152565b613e556031604092611067565b613e5e81613dfb565b0190565b613e779060208101905f818303910152613e48565b90565b15613e8157565b613e89610142565b62461bcd60e51b815280613e9f60048201613e62565b0390fd5b60407f6c00000000000000000000000000000000000000000000000000000000000000917f556e697377617056335374616b65723a3a7374616b65546f6b656e3a20746f6b5f8201527f656e20706f6f6c206973206e6f742074686520696e63656e7469766520706f6f60208201520152565b613f236041606092611067565b613f2c81613ea3565b0190565b613f459060208101905f818303910152613f16565b90565b15613f4f57565b613f57610142565b62461bcd60e51b815280613f6d60048201613f30565b0390fd5b60207f6e6f74207374616b6520746f6b656e20776974682030206c6971756964697479917f556e697377617056335374616b65723a3a7374616b65546f6b656e3a2063616e5f8201520152565b613fca60408092611067565b613fd381613f71565b0190565b613fec9060208101905f818303910152613fbe565b90565b15613ff657565b613ffe610142565b62461bcd60e51b81528061401460048201613fd7565b0390fd5b61402190610bcb565b65ffffffffffff81146140345760010190565b611b7e565b61404290610853565b6bffffffffffffffffffffffff811461405b5760010190565b611b7e565b61407461406f61407992610d9c565b610aa0565b610853565b90565b61408660606104a0565b90565b9061409390610d9c565b9052565b6140a19051610853565b90565b6140ae9051610d9c565b90565b906140cc6fffffffffffffffffffffffffffffffff91611317565b9181191691161790565b906140eb6140e66140f29261388c565b6138a8565b82546140b1565b9055565b906141396040600161413f946141195f82016141135f88016132e8565b9061376a565b6141315f820161412b60208801614097565b9061371f565b0192016140a4565b906140d6565b565b9061414b916140f6565b565b9190614160905f60208501940190610db1565b565b61418a4261418361417d614178604086016122a8565b610183565b91610183565b1015613c82565b6141b1426141ab6141a56141a0606086016122a8565b610183565b91610183565b10613d2a565b6141ba8161461a565b916141eb6141d35f6141cd818790610773565b016107a5565b6141e56141df5f611512565b91610183565b11613dd2565b61422661420e5f61420861420160028690612fad565b8790612fc3565b01610809565b61422061421a5f612d9a565b91610853565b14613e7a565b6142a7606061431861427a7f00000000000000000000000000000000000000000000000000000000000000007f00000000000000000000000000000000000000000000000000000000000000008691614904565b9392959095919593976142a161429b61429660208694016125d1565b61061e565b9161061e565b14613f48565b6142c3876142bd6142b75f6130b9565b91610d9c565b11613fef565b6142eb5f6142d360018990610abf565b016142e56142e082610b20565b614018565b906113aa565b61431360016142fb5f8b90610773565b0161430d61430882610809565b614039565b9061371f565b613210565b61433a63a38807f294929461434561432e610142565b9687958694859461111c565b8452600484016132c5565b03915afa9081156144a0575f80929050614471575b508261437a6143746bffffffffffffffffffffffff612fdc565b91610d9c565b10155f1461442d576143dc906143c16bffffffffffffffffffffffff6143b886916143af6143a661407c565b955f870161318b565b60208501613199565b60408301614089565b6143d76143d060028590612fad565b8690612fc3565b614141565b5b9190916144286144166144107f3fe90ccd0a34e28f2b4b7a1e8323415ed9dd595f4eec5dfd461d18c2df336dbd93610aa3565b93610767565b9361441f610142565b9182918261414d565b0390a3565b61446c9061445b61445261444d61444660028790612fad565b8890612fc3565b612fd9565b915f830161376a565b5f61446585614060565b910161371f565b6143dd565b614492915060603d8111614499575b61448a8183610477565b81019061328b565b509061435a565b503d614480565b611291565b60207f736665723a2063616c6c20746f206e6f6e2d636f6e7472616374000000000000917f5472616e7366657248656c706572457874656e6465643a3a736166655472616e5f8201520152565b6144ff603a604092611067565b614508816144a5565b0190565b6145219060208101905f8183039101526144f2565b90565b1561452b57565b614533610142565b62461bcd60e51b8152806145496004820161450c565b0390fd5b9161456b9261456361455e82614a4f565b614524565b919091614b55565b565b5f90565b61457a90611bf0565b9052565b61458790613210565b9052565b61459490610183565b9052565b6145a1906101ec565b9052565b906080806145fd936145bd5f8201515f860190614571565b6145cf6020820151602086019061457e565b6145e16040820151604086019061458b565b6145f36060820151606086019061458b565b0151910190614598565b565b9190614612905f60a085019401906145a5565b565b60200190565b61464d61463e9161462961456d565b50614632610142565b928391602083016145ff565b60208201810382520382610477565b61465f61465982610963565b91614614565b2090565b60207f7366657246726f6d3a2063616c6c20746f206e6f6e2d636f6e74726163740000917f5472616e7366657248656c706572457874656e6465643a3a736166655472616e5f8201520152565b6146bd603e604092611067565b6146c681614663565b0190565b6146df9060208101905f8183039101526146b0565b90565b156146e957565b6146f1610142565b62461bcd60e51b815280614707600482016146ca565b0390fd5b9161472c93919261472361471e82614a4f565b6146e2565b92909192614cb8565b565b634e487b7160e01b5f52600160045260245ffd5b1561474957565b61472e565b61475a614760916101e1565b916101e1565b90039060018060a01b03821161477257565b611b7e565b61478b61478661479092610d9c565b610aa0565b6101e1565b90565b6147a26147a8919392936101e1565b926101e1565b916147b48382026101e1565b9281840414901517156147c357565b611b7e565b90565b60ff1690565b6147e56147e06147ea926147c8565b610aa0565b6147cb565b90565b61480c90614806614800614811946147cb565b91610183565b9061378a565b610183565b90565b61482861482361482d926101e1565b610aa0565b610183565b90565b946148b4926148996148ae9395996148936148ba9861488d61488761489e976148ca9e61485b611b7a565b50614864612fa5565b506148828761487b6148758c610183565b91610183565b1015614742565b61474e565b91614777565b90614793565b9a614d6c565b611b92565b6148a860806147d1565b906147ed565b91614814565b90611b92565b906148c484614814565b90614e6f565b91565b5f90565b5f90565b5f90565b5f90565b6148e760606104a0565b90565b906148f490611154565b9052565b614901906125de565b90565b9061497b92614954610180926149186148cd565b506149216148d1565b5061492a6148d1565b50614933612fa9565b5061493c6148d5565b506149456148d5565b5061494e6148d9565b50610cb9565b6149706399fbab88614964610142565b9687948593849361111c565b835260048301610193565b03915afa8015614a46575f8080808080808092989495509550956149f2575b6149ef94959697506149ea9392916149dc6149bd6149e59398999a929594610e3c565b93946149d36149ca6148dd565b965f88016112ae565b602086016112ae565b604084016148ea565b6151cd565b6148f8565b93565b505093505050506149e56149ef6149ea6149bd614a296149dc966101803d8111614a3f575b614a218183610477565b8101906111d4565b505050509550985098509894509250935061499a565b503d614a17565b611291565b5f90565b614a57614a4b565b503b614a6b614a655f611512565b91610183565b1190565b916020614a90929493614a8960408201965f830190610bbe565b0190610186565b565b614a9b816129ba565b03614aa257565b5f80fd5b90505190614ab382614a92565b565b90602082820312614ace57614acb915f01614aa6565b90565b61014c565b5f7f5354000000000000000000000000000000000000000000000000000000000000910152565b614b076002602092611067565b614b1081614ad3565b0190565b614b299060208101905f818303910152614afa565b90565b15614b3357565b614b3b610142565b62461bcd60e51b815280614b5160048201614b14565b0390fd5b614bb4926004614b965f94614b8786959463a9059cbb60e01b92614b77610142565b9586946020860190815201614a6f565b60208201810382520382610477565b82602082019151925af1614ba8612991565b81614bb6575b50614b2c565b565b9050614bc181610963565b614bd3614bcd5f611512565b91610183565b14908115614be3575b505f614bae565b614bfe91506020614bf382610963565b818301019101614ab5565b5f614bdc565b604090614c2d614c349496959396614c2360608401985f850190610bbe565b6020830190610bbe565b0190610186565b565b5f7f5354460000000000000000000000000000000000000000000000000000000000910152565b614c6a6003602092611067565b614c7381614c36565b0190565b614c8c9060208101905f818303910152614c5d565b90565b15614c9657565b614c9e610142565b62461bcd60e51b815280614cb460048201614c77565b0390fd5b926004614cfe5f9493614cef8695614d1c98956323b872dd60e01b93919091614cdf610142565b9687956020870190815201614c04565b60208201810382520382610477565b82602082019151925af1614d10612991565b81614d1e575b50614c8f565b565b9050614d2981610963565b614d3b614d355f611512565b91610183565b14908115614d4b575b505f614d16565b614d6691506020614d5b82610963565b818301019101614ab5565b5f614d44565b614d9591614d78611b7a565b5081614d8c614d8683610183565b91610183565b119190916152e7565b90565b15614d9f57565b5f80fd5b90565b614dba614db5614dbf92610183565b610aa0565b614da3565b90565b614dcb90614da3565b600160ff1b8114614ddb575f0390565b611b7e565b614df4614def614df992614da3565b610aa0565b610183565b90565b614e0b614e1191939293610183565b92610183565b91614e1d838202610183565b928184041490151715614e2c57565b611b7e565b90565b614e48614e43614e4d92614e31565b610aa0565b610183565b90565b90565b614e67614e62614e6c92614e50565b610aa0565b610183565b90565b614e77611b7a565b50614e80611b7a565b50614e89611b7a565b505f198282099180820292838082109103039182614eaf614ea95f611512565b91610183565b1461503a5761503192858093614f2893614ede61503799614ed8614ed287610183565b91610183565b11614d98565b614ee6611b7a565b50099085821190039403936001614f16614f07614f0286614da6565b614dc2565b614f1086614da6565b16614de0565b80809504960493805f03040190614dfc565b179161502b61500f614feb614fc7614fa3614f7f614f506003614f4b8991614e34565b614dfc565b614f5a6002614e53565b18614f796002614f74614f6e8b8590614dfc565b91614e53565b611b92565b90614dfc565b614f9d6002614f98614f928a8590614dfc565b91614e53565b611b92565b90614dfc565b614fc16002614fbc614fb6898590614dfc565b91614e53565b611b92565b90614dfc565b614fe56002614fe0614fda888590614dfc565b91614e53565b611b92565b90614dfc565b6150096002615004614ffe878590614dfc565b91614e53565b611b92565b90614dfc565b916150266150206002928590614dfc565b91614e53565b611b92565b90614dfc565b90614dfc565b90565b5050506150598261505361504d5f611512565b91610183565b11614d98565b0490565b90565b61507461506f6150799261505d565b611317565b610723565b90565b6150a57f4edca2cdd7241588d4a18effbaf62e93efbd162499ff8ab7553ea94d08382fd9615060565b90565b6150b29051611154565b90565b6150be90611154565b9052565b6040906150eb6150f294969593966150e160608401985f850190610bbe565b6020830190610bbe565b01906150b5565b565b905090565b5f60ff60f81b910152565b615110600180926150f4565b615119816150f9565b0190565b60601b90565b61512c9061511d565b90565b61513890615123565b90565b61514761514c916101ec565b61512f565b9052565b90565b61515f61516491610723565b615150565b9052565b602093926151916014615199946151896151828996615104565b809261513b565b018092615153565b018092615153565b0190565b6151a96151ae91610789565b610aa3565b90565b6151c56151c06151ca92610183565b610aa0565b6101e1565b90565b6152cc6152d6926152b46152d1936151e36148d5565b506152156151f25f850161130a565b61520f6152096152046020880161130a565b6101ec565b916101ec565b10614d98565b61522561522061507c565b61532d565b916152726152345f830161130a565b61526361524f60406152486020870161130a565b95016150a8565b615257610142565b948593602085016150c2565b60208201810382520382610477565b61528461527e82610963565b91614614565b20916152a561529161507c565b615299610142565b94859360208501615168565b60208201810382520382610477565b6152c66152c082610963565b91614614565b2061519d565b6151b1565b610cad565b90565b906152e49102610183565b90565b61530161530792936152f7611b7a565b508094189161536e565b906152d9565b1890565b61531490610723565b9052565b919061532b905f6020850194019061530b565b565b61535861536761536c9261533f610142565b9283916004602084016327b7cf8560e01b815201615318565b60208201810382520382610477565b61537c565b565b615376611b7a565b50151590565b61538f9061538a60016153bb565b6153db565b565b6a636f6e736f6c652e6c6f6790565b5f80916153ab615391565b602082519201905afa50565b5f90565b6153c36153b7565b5090565b634e487b7160e01b5f52605160045260245ffd5b6001036153c7576153eb906153a0565b56fea26469706673582212207c545f9c6670fab552c9a2f4b77e992e37981670ceba8cb67eaaaa2e0d89cac664736f6c63430008180033","linkReferences":{}},"methodIdentifiers":{"claimReward(address,address,uint256)":"2f2d783d","createIncentive((address,address,uint256,uint256,address),uint256)":"5cc5e3d9","deposits(uint256)":"b02c43d0","endIncentive((address,address,uint256,uint256,address))":"b5ada6e4","factory()":"c45a0155","getRewardInfo((address,address,uint256,uint256,address),uint256)":"d953186e","incentives(bytes32)":"60777795","maxIncentiveDuration()":"3dc0714b","maxIncentiveStartLeadTime()":"01b75440","multicall(bytes[])":"ac9650d8","nonfungiblePositionManager()":"b44a2722","onERC721Received(address,address,uint256,bytes)":"150b7a02","rewards(address,address)":"e70b9e27","stakeToken((address,address,uint256,uint256,address),uint256)":"f2d2909b","stakes(uint256,bytes32)":"c36c1ea5","transferDeposit(uint256,address)":"26bfee04","unstakeToken((address,address,uint256,uint256,address),uint256)":"f549ab42","withdrawToken(uint256,address,bytes)":"3c423f0b"},"id":0}