{
  "abi": [
    {
      "type": "function",
      "name": "parameters",
      "inputs": [],
      "outputs": [
        {
          "name": "factory",
          "type": "address",
          "internalType": "address"
        },
        {
          "name": "token0",
          "type": "address",
          "internalType": "address"
        },
        {
          "name": "token1",
          "type": "address",
          "internalType": "address"
        },
        {
          "name": "fee",
          "type": "uint24",
          "internalType": "uint24"
        },
        {
          "name": "tickSpacing",
          "type": "int24",
          "internalType": "int24"
        },
        {
          "name": "deployer",
          "type": "address",
          "internalType": "address"
        }
      ],
      "stateMutability": "view"
    }
  ],
  "bytecode": {
    "object": "0x6080604052348015600e575f80fd5b5060e88061001b5f395ff3fe6080604052348015600e575f80fd5b50600436106026575f3560e01c80638903573014602a575b5f80fd5b5f54600154600280546003546069946001600160a01b03908116948116938382169362ffffff600160a01b82041693600160b81b90910490910b911686565b604080516001600160a01b03978816815295871660208701529386168585015262ffffff92909216606085015260020b608084015290921660a082015290519081900360c00190f3fea2646970667358221220b91a1baf1cd64942b47b658699935c3bd356fd5e3b970bdac1f0d5c18405274a64736f6c63430008150033",
    "linkReferences": {}
  },
  "methodIdentifiers": {
    "parameters()": "89035730"
  },
  "id": 4
}