{"abi":[{"type":"constructor","inputs":[{"name":"_feeToSetter","type":"address","internalType":"address"}],"stateMutability":"nonpayable"},{"type":"function","name":"allPairs","inputs":[{"name":"","type":"uint256","internalType":"uint256"}],"outputs":[{"name":"","type":"address","internalType":"address"}],"stateMutability":"view"},{"type":"function","name":"allPairsLength","inputs":[],"outputs":[{"name":"","type":"uint256","internalType":"uint256"}],"stateMutability":"view"},{"type":"function","name":"createPair","inputs":[{"name":"tokenA","type":"address","internalType":"address"},{"name":"tokenB","type":"address","internalType":"address"}],"outputs":[{"name":"pair","type":"address","internalType":"address"}],"stateMutability":"nonpayable"},{"type":"function","name":"feeTo","inputs":[],"outputs":[{"name":"","type":"address","internalType":"address"}],"stateMutability":"view"},{"type":"function","name":"feeToSetter","inputs":[],"outputs":[{"name":"","type":"address","internalType":"address"}],"stateMutability":"view"},{"type":"function","name":"getPair","inputs":[{"name":"","type":"address","internalType":"address"},{"name":"","type":"address","internalType":"address"}],"outputs":[{"name":"","type":"address","internalType":"address"}],"stateMutability":"view"},{"type":"function","name":"getPairDeployer","inputs":[{"name":"pair","type":"address","internalType":"address"}],"outputs":[{"name":"deployer","type":"address","internalType":"address"}],"stateMutability":"view"},{"type":"function","name":"pairDeployer","inputs":[{"name":"","type":"address","internalType":"address"}],"outputs":[{"name":"","type":"address","internalType":"address"}],"stateMutability":"view"},{"type":"function","name":"setFeeTo","inputs":[{"name":"_feeTo","type":"address","internalType":"address"}],"outputs":[],"stateMutability":"nonpayable"},{"type":"function","name":"setFeeToSetter","inputs":[{"name":"_feeToSetter","type":"address","internalType":"address"}],"outputs":[],"stateMutability":"nonpayable"},{"type":"event","name":"PairCreated","inputs":[{"name":"token0","type":"address","indexed":true,"internalType":"address"},{"name":"token1","type":"address","indexed":true,"internalType":"address"},{"name":"pair","type":"address","indexed":false,"internalType":"address"},{"name":"","type":"uint256","indexed":false,"internalType":"uint256"}],"anonymous":false}],"bytecode":{"object":"0x60806040523480156200001157600080fd5b5060405162006a2038038062006a208339818101604052810190620000379190620000e9565b80600160006101000a81548173ffffffffffffffffffffffffffffffffffffffff021916908373ffffffffffffffffffffffffffffffffffffffff160217905550506200011b565b600080fd5b600073ffffffffffffffffffffffffffffffffffffffff82169050919050565b6000620000b18262000084565b9050919050565b620000c381620000a4565b8114620000cf57600080fd5b50565b600081519050620000e381620000b8565b92915050565b6000602082840312156200010257620001016200007f565b5b60006200011284828501620000d2565b91505092915050565b6168f5806200012b6000396000f3fe60806040523480156200001157600080fd5b5060043610620000ac5760003560e01c8063a2e74af6116200006f578063a2e74af61462000183578063c9c6539614620001a3578063d4ca62d814620001d9578063e6a43905146200020f578063f46901ed146200024557620000ac565b8063017e7e5814620000b1578063094b741514620000d35780631e3dd18b14620000f55780634a967b4f146200012b578063574f2ba31462000161575b600080fd5b620000bb62000265565b604051620000ca919062000bb8565b60405180910390f35b620000dd62000289565b604051620000ec919062000bb8565b60405180910390f35b6200011360048036038101906200010d919062000c15565b620002af565b60405162000122919062000bb8565b60405180910390f35b62000149600480360381019062000143919062000c78565b620002ef565b60405162000158919062000bb8565b60405180910390f35b6200016b62000358565b6040516200017a919062000cbb565b60405180910390f35b620001a160048036038101906200019b919062000c78565b62000365565b005b620001c16004803603810190620001bb919062000cd8565b6200043c565b604051620001d0919062000bb8565b60405180910390f35b620001f76004803603810190620001f1919062000c78565b62000a1a565b60405162000206919062000bb8565b60405180910390f35b6200022d600480360381019062000227919062000cd8565b62000a4d565b6040516200023c919062000bb8565b60405180910390f35b6200026360048036038101906200025d919062000c78565b62000a8f565b005b60008054906101000a900473ffffffffffffffffffffffffffffffffffffffff1681565b600160009054906101000a900473ffffffffffffffffffffffffffffffffffffffff1681565b60048181548110620002c057600080fd5b906000526020600020016000915054906101000a900473ffffffffffffffffffffffffffffffffffffffff1681565b6000600360008373ffffffffffffffffffffffffffffffffffffffff1673ffffffffffffffffffffffffffffffffffffffff16815260200190815260200160002060009054906101000a900473ffffffffffffffffffffffffffffffffffffffff169050919050565b6000600480549050905090565b600160009054906101000a900473ffffffffffffffffffffffffffffffffffffffff1673ffffffffffffffffffffffffffffffffffffffff163373ffffffffffffffffffffffffffffffffffffffff1614620003f8576040517f08c379a0000000000000000000000000000000000000000000000000000000008152600401620003ef9062000d80565b60405180910390fd5b80600160006101000a81548173ffffffffffffffffffffffffffffffffffffffff021916908373ffffffffffffffffffffffffffffffffffffffff16021790555050565b60008173ffffffffffffffffffffffffffffffffffffffff168373ffffffffffffffffffffffffffffffffffffffff1603620004af576040517f08c379a0000000000000000000000000000000000000000000000000000000008152600401620004a69062000df2565b60405180910390fd5b6000808373ffffffffffffffffffffffffffffffffffffffff168573ffffffffffffffffffffffffffffffffffffffff1610620004ee578385620004f1565b84845b91509150600073ffffffffffffffffffffffffffffffffffffffff168273ffffffffffffffffffffffffffffffffffffffff160362000567576040517f08c379a00000000000000000000000000000000000000000000000000000000081526004016200055e9062000e64565b60405180910390fd5b600073ffffffffffffffffffffffffffffffffffffffff16600260008473ffffffffffffffffffffffffffffffffffffffff1673ffffffffffffffffffffffffffffffffffffffff16815260200190815260200160002060008373ffffffffffffffffffffffffffffffffffffffff1673ffffffffffffffffffffffffffffffffffffffff16815260200190815260200160002060009054906101000a900473ffffffffffffffffffffffffffffffffffffffff1673ffffffffffffffffffffffffffffffffffffffff161462000675576040517f08c379a00000000000000000000000000000000000000000000000000000000081526004016200066c9062000ed6565b60405180910390fd5b600060405180602001620006899062000b65565b6020820181038252601f19601f82011660405250905060008383604051602001620006b692919062000f48565b604051602081830303815290604052805190602001209050808251602084016000f594508473ffffffffffffffffffffffffffffffffffffffff1663485cc95585856040518363ffffffff1660e01b81526004016200071792919062000f78565b600060405180830381600087803b1580156200073257600080fd5b505af115801562000747573d6000803e3d6000fd5b5050505084600260008673ffffffffffffffffffffffffffffffffffffffff1673ffffffffffffffffffffffffffffffffffffffff16815260200190815260200160002060008573ffffffffffffffffffffffffffffffffffffffff1673ffffffffffffffffffffffffffffffffffffffff16815260200190815260200160002060006101000a81548173ffffffffffffffffffffffffffffffffffffffff021916908373ffffffffffffffffffffffffffffffffffffffff16021790555084600260008573ffffffffffffffffffffffffffffffffffffffff1673ffffffffffffffffffffffffffffffffffffffff16815260200190815260200160002060008673ffffffffffffffffffffffffffffffffffffffff1673ffffffffffffffffffffffffffffffffffffffff16815260200190815260200160002060006101000a81548173ffffffffffffffffffffffffffffffffffffffff021916908373ffffffffffffffffffffffffffffffffffffffff16021790555033600360008773ffffffffffffffffffffffffffffffffffffffff1673ffffffffffffffffffffffffffffffffffffffff16815260200190815260200160002060006101000a81548173ffffffffffffffffffffffffffffffffffffffff021916908373ffffffffffffffffffffffffffffffffffffffff1602179055506004859080600181540180825580915050600190039060005260206000200160009091909190916101000a81548173ffffffffffffffffffffffffffffffffffffffff021916908373ffffffffffffffffffffffffffffffffffffffff1602179055508273ffffffffffffffffffffffffffffffffffffffff168473ffffffffffffffffffffffffffffffffffffffff167f0d3648bd0f6ba80134a33ba9275ac585d9d315f0ad8355cddefde31afa28d0e98760048054905060405162000a0892919062000fa5565b60405180910390a35050505092915050565b60036020528060005260406000206000915054906101000a900473ffffffffffffffffffffffffffffffffffffffff1681565b60026020528160005260406000206020528060005260406000206000915091509054906101000a900473ffffffffffffffffffffffffffffffffffffffff1681565b600160009054906101000a900473ffffffffffffffffffffffffffffffffffffffff1673ffffffffffffffffffffffffffffffffffffffff163373ffffffffffffffffffffffffffffffffffffffff161462000b22576040517f08c379a000000000000000000000000000000000000000000000000000000000815260040162000b199062000d80565b60405180910390fd5b806000806101000a81548173ffffffffffffffffffffffffffffffffffffffff021916908373ffffffffffffffffffffffffffffffffffffffff16021790555050565b6158ed8062000fd383390190565b600073ffffffffffffffffffffffffffffffffffffffff82169050919050565b600062000ba08262000b73565b9050919050565b62000bb28162000b93565b82525050565b600060208201905062000bcf600083018462000ba7565b92915050565b600080fd5b6000819050919050565b62000bef8162000bda565b811462000bfb57600080fd5b50565b60008135905062000c0f8162000be4565b92915050565b60006020828403121562000c2e5762000c2d62000bd5565b5b600062000c3e8482850162000bfe565b91505092915050565b62000c528162000b93565b811462000c5e57600080fd5b50565b60008135905062000c728162000c47565b92915050565b60006020828403121562000c915762000c9062000bd5565b5b600062000ca18482850162000c61565b91505092915050565b62000cb58162000bda565b82525050565b600060208201905062000cd2600083018462000caa565b92915050565b6000806040838503121562000cf25762000cf162000bd5565b5b600062000d028582860162000c61565b925050602062000d158582860162000c61565b9150509250929050565b600082825260208201905092915050565b7f556e697377617056323a20464f5242494444454e000000000000000000000000600082015250565b600062000d6860148362000d1f565b915062000d758262000d30565b602082019050919050565b6000602082019050818103600083015262000d9b8162000d59565b9050919050565b7f556e697377617056323a204944454e544943414c5f4144445245535345530000600082015250565b600062000dda601e8362000d1f565b915062000de78262000da2565b602082019050919050565b6000602082019050818103600083015262000e0d8162000dcb565b9050919050565b7f556e697377617056323a205a45524f5f41444452455353000000000000000000600082015250565b600062000e4c60178362000d1f565b915062000e598262000e14565b602082019050919050565b6000602082019050818103600083015262000e7f8162000e3d565b9050919050565b7f556e697377617056323a20504149525f45584953545300000000000000000000600082015250565b600062000ebe60168362000d1f565b915062000ecb8262000e86565b602082019050919050565b6000602082019050818103600083015262000ef18162000eaf565b9050919050565b60008160601b9050919050565b600062000f128262000ef8565b9050919050565b600062000f268262000f05565b9050919050565b62000f4262000f3c8262000b93565b62000f19565b82525050565b600062000f56828562000f2d565b60148201915062000f68828462000f2d565b6014820191508190509392505050565b600060408201905062000f8f600083018562000ba7565b62000f9e602083018462000ba7565b9392505050565b600060408201905062000fbc600083018562000ba7565b62000fcb602083018462000caa565b939250505056fe60806040526001600d553480156200001657600080fd5b5060004690507f8b73c3c69bb8fe3d512ecc4cf759cc79239f7b179b0ffacaa9a75d522b39400f6040518060400160405280600a81526020017f556e697377617020563200000000000000000000000000000000000000000000815250805190602001206040518060400160405280600181526020017f3100000000000000000000000000000000000000000000000000000000000000815250805190602001208330604051602001620000cf95949392919062000228565b604051602081830303815290604052805190602001206003819055505033600660006101000a81548173ffffffffffffffffffffffffffffffffffffffff021916908373ffffffffffffffffffffffffffffffffffffffff1602179055506040516200013b906200019f565b604051809103906000f08015801562000158573d6000803e3d6000fd5b50600560006101000a81548173ffffffffffffffffffffffffffffffffffffffff021916908373ffffffffffffffffffffffffffffffffffffffff16021790555062000285565b611396806200455783390190565b6000819050919050565b620001c281620001ad565b82525050565b6000819050919050565b620001dd81620001c8565b82525050565b600073ffffffffffffffffffffffffffffffffffffffff82169050919050565b60006200021082620001e3565b9050919050565b620002228162000203565b82525050565b600060a0820190506200023f6000830188620001b7565b6200024e6020830187620001b7565b6200025d6040830186620001b7565b6200026c6060830185620001d2565b6200027b608083018462000217565b9695505050505050565b6142c280620002956000396000f3fe608060405234801561001057600080fd5b50600436106101a95760003560e01c80636a627842116100f9578063ba9a7a5611610097578063d21220a711610071578063d21220a7146104db578063d505accf146104f9578063dd62ed3e14610515578063fff6cae914610545576101a9565b8063ba9a7a5614610483578063bc25cf77146104a1578063c45a0155146104bd576101a9565b80637ecebe00116100d35780637ecebe00146103d457806389afcb441461040457806395d89b4114610435578063a9059cbb14610453576101a9565b80636a6278421461035657806370a08231146103865780637464fc3d146103b6576101a9565b806323b872dd116101665780633644e515116101405780633644e515146102e0578063485cc955146102fe5780635909c0d51461031a5780635a3d549314610338576101a9565b806323b872dd1461027457806330adf81f146102a4578063313ce567146102c2576101a9565b8063022c0d9f146101ae57806306fdde03146101ca5780630902f1ac146101e8578063095ea7b3146102085780630dfe16811461023857806318160ddd14610256575b600080fd5b6101c860048036038101906101c39190612f6c565b61054f565b005b6101d2610ba1565b6040516101df9190613084565b60405180910390f35b6101f0610bda565b6040516101ff939291906130ee565b60405180910390f35b610222600480360381019061021d9190613125565b610c37565b60405161022f9190613180565b60405180910390f35b610240610c4e565b60405161024d91906131aa565b60405180910390f35b61025e610c74565b60405161026b91906131d4565b60405180910390f35b61028e600480360381019061028991906131ef565b610c7a565b60405161029b9190613180565b60405180910390f35b6102ac610e45565b6040516102b9919061325b565b60405180910390f35b6102ca610e6c565b6040516102d79190613292565b60405180910390f35b6102e8610e71565b6040516102f5919061325b565b60405180910390f35b610318600480360381019061031391906132ad565b610e77565b005b610322610f8d565b60405161032f91906131d4565b60405180910390f35b610340610f93565b60405161034d91906131d4565b60405180910390f35b610370600480360381019061036b91906132ed565b610f99565b60405161037d91906131d4565b60405180910390f35b6103a0600480360381019061039b91906132ed565b611382565b6040516103ad91906131d4565b60405180910390f35b6103be61139a565b6040516103cb91906131d4565b60405180910390f35b6103ee60048036038101906103e991906132ed565b6113a0565b6040516103fb91906131d4565b60405180910390f35b61041e600480360381019061041991906132ed565b6113b8565b60405161042c92919061331a565b60405180910390f35b61043d611a6f565b60405161044a9190613084565b60405180910390f35b61046d60048036038101906104689190613125565b611aa8565b60405161047a9190613180565b60405180910390f35b61048b611abf565b60405161049891906131d4565b60405180910390f35b6104bb60048036038101906104b691906132ed565b611ac5565b005b6104c5611cf1565b6040516104d291906131aa565b60405180910390f35b6104e3611d17565b6040516104f091906131aa565b60405180910390f35b610513600480360381019061050e919061339b565b611d3d565b005b61052f600480360381019061052a91906132ad565b611f65565b60405161053c91906131d4565b60405180910390f35b61054d611f8a565b005b6001600d5414610594576040517f08c379a000000000000000000000000000000000000000000000000000000000815260040161058b90613489565b60405180910390fd5b6000600d8190555060008511806105ab5750600084115b6105ea576040517f08c379a00000000000000000000000000000000000000000000000000000000081526004016105e19061351b565b60405180910390fd5b6000806105f5610bda565b5091509150816dffffffffffffffffffffffffffff16871080156106285750806dffffffffffffffffffffffffffff1686105b610667576040517f08c379a000000000000000000000000000000000000000000000000000000000815260040161065e906135ad565b60405180910390fd5b6000806000600760009054906101000a900473ffffffffffffffffffffffffffffffffffffffff1690506000600860009054906101000a900473ffffffffffffffffffffffffffffffffffffffff1690508173ffffffffffffffffffffffffffffffffffffffff168973ffffffffffffffffffffffffffffffffffffffff161415801561072057508073ffffffffffffffffffffffffffffffffffffffff168973ffffffffffffffffffffffffffffffffffffffff1614155b61075f576040517f08c379a000000000000000000000000000000000000000000000000000000000815260040161075690613619565b60405180910390fd5b60008b111561077457610773828a8d61215b565b5b60008a111561078957610788818a8c61215b565b5b6000888890501115610809578873ffffffffffffffffffffffffffffffffffffffff166310d1e85c338d8d8c8c6040518663ffffffff1660e01b81526004016107d6959493929190613686565b600060405180830381600087803b1580156107f057600080fd5b505af1158015610804573d6000803e3d6000fd5b505050505b8173ffffffffffffffffffffffffffffffffffffffff166370a08231306040518263ffffffff1660e01b815260040161084291906131aa565b602060405180830381865afa15801561085f573d6000803e3d6000fd5b505050506040513d601f19601f8201168201806040525081019061088391906136e9565b93508073ffffffffffffffffffffffffffffffffffffffff166370a08231306040518263ffffffff1660e01b81526004016108be91906131aa565b602060405180830381865afa1580156108db573d6000803e3d6000fd5b505050506040513d601f19601f820116820180604052508101906108ff91906136e9565b92505050600089856dffffffffffffffffffffffffffff166109219190613745565b831161092e576000610956565b89856dffffffffffffffffffffffffffff1661094a9190613745565b836109559190613745565b5b9050600089856dffffffffffffffffffffffffffff166109769190613745565b83116109835760006109ab565b89856dffffffffffffffffffffffffffff1661099f9190613745565b836109aa9190613745565b5b905060008211806109bc5750600081115b6109fb576040517f08c379a00000000000000000000000000000000000000000000000000000000081526004016109f2906137eb565b60405180910390fd5b6000610a37610a146003856122e590919063ffffffff16565b610a296103e8886122e590919063ffffffff16565b61235290919063ffffffff16565b90506000610a75610a526003856122e590919063ffffffff16565b610a676103e8886122e590919063ffffffff16565b61235290919063ffffffff16565b9050610abf620f4240610ab1896dffffffffffffffffffffffffffff168b6dffffffffffffffffffffffffffff166122e590919063ffffffff16565b6122e590919063ffffffff16565b610ad282846122e590919063ffffffff16565b1015610b13576040517f08c379a0000000000000000000000000000000000000000000000000000000008152600401610b0a90613857565b60405180910390fd5b5050610b21848488886123ab565b8873ffffffffffffffffffffffffffffffffffffffff163373ffffffffffffffffffffffffffffffffffffffff167fd78ad95fa46c994b6551d0da85fc275fe613ce37657fb8d5e3d130840159d82284848f8f604051610b849493929190613877565b60405180910390a35050505050506001600d819055505050505050565b6040518060400160405280600a81526020017f556e69737761702056320000000000000000000000000000000000000000000081525081565b6000806000600960009054906101000a90046dffffffffffffffffffffffffffff1692506009600e9054906101000a90046dffffffffffffffffffffffffffff1691506009601c9054906101000a900463ffffffff169050909192565b6000610c4433848461269f565b6001905092915050565b600760009054906101000a900473ffffffffffffffffffffffffffffffffffffffff1681565b60005481565b60007fffffffffffffffffffffffffffffffffffffffffffffffffffffffffffffffff600260008673ffffffffffffffffffffffffffffffffffffffff1673ffffffffffffffffffffffffffffffffffffffff16815260200190815260200160002060003373ffffffffffffffffffffffffffffffffffffffff1673ffffffffffffffffffffffffffffffffffffffff1681526020019081526020016000205414610e2f57610dae82600260008773ffffffffffffffffffffffffffffffffffffffff1673ffffffffffffffffffffffffffffffffffffffff16815260200190815260200160002060003373ffffffffffffffffffffffffffffffffffffffff1673ffffffffffffffffffffffffffffffffffffffff1681526020019081526020016000205461235290919063ffffffff16565b600260008673ffffffffffffffffffffffffffffffffffffffff1673ffffffffffffffffffffffffffffffffffffffff16815260200190815260200160002060003373ffffffffffffffffffffffffffffffffffffffff1673ffffffffffffffffffffffffffffffffffffffff168152602001908152602001600020819055505b610e3a84848461278a565b600190509392505050565b7f6e71edae12b1b97f4d1f60370fef10105fa2faae0126114a169c64845d6126c960001b81565b601281565b60035481565b600660009054906101000a900473ffffffffffffffffffffffffffffffffffffffff1673ffffffffffffffffffffffffffffffffffffffff163373ffffffffffffffffffffffffffffffffffffffff1614610f07576040517f08c379a0000000000000000000000000000000000000000000000000000000008152600401610efe90613908565b60405180910390fd5b81600760006101000a81548173ffffffffffffffffffffffffffffffffffffffff021916908373ffffffffffffffffffffffffffffffffffffffff16021790555080600860006101000a81548173ffffffffffffffffffffffffffffffffffffffff021916908373ffffffffffffffffffffffffffffffffffffffff1602179055505050565b600a5481565b600b5481565b60006001600d5414610fe0576040517f08c379a0000000000000000000000000000000000000000000000000000000008152600401610fd790613489565b60405180910390fd5b6000600d81905550600080610ff3610bda565b50915091506000600760009054906101000a900473ffffffffffffffffffffffffffffffffffffffff1673ffffffffffffffffffffffffffffffffffffffff166370a08231306040518263ffffffff1660e01b815260040161105591906131aa565b602060405180830381865afa158015611072573d6000803e3d6000fd5b505050506040513d601f19601f8201168201806040525081019061109691906136e9565b90506000600860009054906101000a900473ffffffffffffffffffffffffffffffffffffffff1673ffffffffffffffffffffffffffffffffffffffff166370a08231306040518263ffffffff1660e01b81526004016110f591906131aa565b602060405180830381865afa158015611112573d6000803e3d6000fd5b505050506040513d601f19601f8201168201806040525081019061113691906136e9565b9050600061115d856dffffffffffffffffffffffffffff168461235290919063ffffffff16565b90506000611184856dffffffffffffffffffffffffffff168461235290919063ffffffff16565b90506000611192878761291e565b9050600080549050600081036111e5576111d16103e86111c36111be86886122e590919063ffffffff16565b612aef565b61235290919063ffffffff16565b98506111e060006103e8612b69565b61124c565b611249886dffffffffffffffffffffffffffff1661120c83876122e590919063ffffffff16565b6112169190613957565b886dffffffffffffffffffffffffffff1661123a84876122e590919063ffffffff16565b6112449190613957565b612c83565b98505b6000891161128f576040517f08c379a0000000000000000000000000000000000000000000000000000000008152600401611286906139fa565b60405180910390fd5b6112998a8a612b69565b6112a586868a8a6123ab565b811561131d576113166009600e9054906101000a90046dffffffffffffffffffffffffffff166dffffffffffffffffffffffffffff16600960009054906101000a90046dffffffffffffffffffffffffffff166dffffffffffffffffffffffffffff166122e590919063ffffffff16565b600c819055505b3373ffffffffffffffffffffffffffffffffffffffff167f4c209b5fc8ad50758f13e2e1088ba56a560dff690a1c6fef26394f4c03821c4f858560405161136592919061331a565b60405180910390a250505050505050506001600d81905550919050565b60016020528060005260406000206000915090505481565b600c5481565b60046020528060005260406000206000915090505481565b6000806001600d5414611400576040517f08c379a00000000000000000000000000000000000000000000000000000000081526004016113f790613489565b60405180910390fd5b6000600d81905550600080611413610bda565b50915091506000600760009054906101000a900473ffffffffffffffffffffffffffffffffffffffff1690506000600860009054906101000a900473ffffffffffffffffffffffffffffffffffffffff16905060008273ffffffffffffffffffffffffffffffffffffffff166370a08231306040518263ffffffff1660e01b81526004016114a191906131aa565b602060405180830381865afa1580156114be573d6000803e3d6000fd5b505050506040513d601f19601f820116820180604052508101906114e291906136e9565b905060008273ffffffffffffffffffffffffffffffffffffffff166370a08231306040518263ffffffff1660e01b815260040161151f91906131aa565b602060405180830381865afa15801561153c573d6000803e3d6000fd5b505050506040513d601f19601f8201168201806040525081019061156091906136e9565b90506000600160003073ffffffffffffffffffffffffffffffffffffffff1673ffffffffffffffffffffffffffffffffffffffff16815260200190815260200160002054905060006115b2888861291e565b9050600080549050806115ce86856122e590919063ffffffff16565b6115d89190613957565b9a50806115ee85856122e590919063ffffffff16565b6115f89190613957565b995060008b11801561160a575060008a115b611649576040517f08c379a000000000000000000000000000000000000000000000000000000000815260040161164090613a8c565b60405180910390fd5b6116533084612c9c565b600660009054906101000a900473ffffffffffffffffffffffffffffffffffffffff1673ffffffffffffffffffffffffffffffffffffffff16634a967b4f306040518263ffffffff1660e01b81526004016116ae91906131aa565b602060405180830381865afa1580156116cb573d6000803e3d6000fd5b505050506040513d601f19601f820116820180604052508101906116ef9190613ac1565b73ffffffffffffffffffffffffffffffffffffffff163373ffffffffffffffffffffffffffffffffffffffff161480156117c457506000600560009054906101000a900473ffffffffffffffffffffffffffffffffffffffff1673ffffffffffffffffffffffffffffffffffffffff1663ef79a35f336040518263ffffffff1660e01b815260040161178191906131aa565b602060405180830381865afa15801561179e573d6000803e3d6000fd5b505050506040513d601f19601f820116820180604052508101906117c291906136e9565b145b1561186057600560009054906101000a900473ffffffffffffffffffffffffffffffffffffffff1673ffffffffffffffffffffffffffffffffffffffff1663e4ca9610336201518030876040518563ffffffff1660e01b815260040161182d9493929190613b33565b600060405180830381600087803b15801561184757600080fd5b505af115801561185b573d6000803e3d6000fd5b505050505b61186b878d8d61215b565b611876868d8c61215b565b8673ffffffffffffffffffffffffffffffffffffffff166370a08231306040518263ffffffff1660e01b81526004016118af91906131aa565b602060405180830381865afa1580156118cc573d6000803e3d6000fd5b505050506040513d601f19601f820116820180604052508101906118f091906136e9565b94508573ffffffffffffffffffffffffffffffffffffffff166370a08231306040518263ffffffff1660e01b815260040161192b91906131aa565b602060405180830381865afa158015611948573d6000803e3d6000fd5b505050506040513d601f19601f8201168201806040525081019061196c91906136e9565b935061197a85858b8b6123ab565b81156119f2576119eb6009600e9054906101000a90046dffffffffffffffffffffffffffff166dffffffffffffffffffffffffffff16600960009054906101000a90046dffffffffffffffffffffffffffff166dffffffffffffffffffffffffffff166122e590919063ffffffff16565b600c819055505b8b73ffffffffffffffffffffffffffffffffffffffff163373ffffffffffffffffffffffffffffffffffffffff167fdccd412f0b1252819cb1fd330b93224ca42612892bb3f4f789976e6d819364968d8d604051611a5192919061331a565b60405180910390a35050505050505050506001600d81905550915091565b6040518060400160405280600681526020017f554e492d5632000000000000000000000000000000000000000000000000000081525081565b6000611ab533848461278a565b6001905092915050565b6103e881565b6001600d5414611b0a576040517f08c379a0000000000000000000000000000000000000000000000000000000008152600401611b0190613489565b60405180910390fd5b6000600d819055506000600760009054906101000a900473ffffffffffffffffffffffffffffffffffffffff1690506000600860009054906101000a900473ffffffffffffffffffffffffffffffffffffffff169050611c228284611c1d600960009054906101000a90046dffffffffffffffffffffffffffff166dffffffffffffffffffffffffffff168673ffffffffffffffffffffffffffffffffffffffff166370a08231306040518263ffffffff1660e01b8152600401611bce91906131aa565b602060405180830381865afa158015611beb573d6000803e3d6000fd5b505050506040513d601f19601f82011682018060405250810190611c0f91906136e9565b61235290919063ffffffff16565b61215b565b611ce48184611cdf6009600e9054906101000a90046dffffffffffffffffffffffffffff166dffffffffffffffffffffffffffff168573ffffffffffffffffffffffffffffffffffffffff166370a08231306040518263ffffffff1660e01b8152600401611c9091906131aa565b602060405180830381865afa158015611cad573d6000803e3d6000fd5b505050506040513d601f19601f82011682018060405250810190611cd191906136e9565b61235290919063ffffffff16565b61215b565b50506001600d8190555050565b600660009054906101000a900473ffffffffffffffffffffffffffffffffffffffff1681565b600860009054906101000a900473ffffffffffffffffffffffffffffffffffffffff1681565b42841015611d80576040517f08c379a0000000000000000000000000000000000000000000000000000000008152600401611d7790613bc4565b60405180910390fd5b60006003547f6e71edae12b1b97f4d1f60370fef10105fa2faae0126114a169c64845d6126c960001b898989600460008e73ffffffffffffffffffffffffffffffffffffffff1673ffffffffffffffffffffffffffffffffffffffff1681526020019081526020016000206000815480929190611dfc90613be4565b919050558a604051602001611e1696959493929190613c2c565b60405160208183030381529060405280519060200120604051602001611e3d929190613d05565b604051602081830303815290604052805190602001209050600060018286868660405160008152602001604052604051611e7a9493929190613d3c565b6020604051602081039080840390855afa158015611e9c573d6000803e3d6000fd5b505050602060405103519050600073ffffffffffffffffffffffffffffffffffffffff168173ffffffffffffffffffffffffffffffffffffffff1614158015611f1057508873ffffffffffffffffffffffffffffffffffffffff168173ffffffffffffffffffffffffffffffffffffffff16145b611f4f576040517f08c379a0000000000000000000000000000000000000000000000000000000008152600401611f4690613dcd565b60405180910390fd5b611f5a89898961269f565b505050505050505050565b6002602052816000526040600020602052806000526040600020600091509150505481565b6001600d5414611fcf576040517f08c379a0000000000000000000000000000000000000000000000000000000008152600401611fc690613489565b60405180910390fd5b6000600d81905550612151600760009054906101000a900473ffffffffffffffffffffffffffffffffffffffff1673ffffffffffffffffffffffffffffffffffffffff166370a08231306040518263ffffffff1660e01b815260040161203591906131aa565b602060405180830381865afa158015612052573d6000803e3d6000fd5b505050506040513d601f19601f8201168201806040525081019061207691906136e9565b600860009054906101000a900473ffffffffffffffffffffffffffffffffffffffff1673ffffffffffffffffffffffffffffffffffffffff166370a08231306040518263ffffffff1660e01b81526004016120d191906131aa565b602060405180830381865afa1580156120ee573d6000803e3d6000fd5b505050506040513d601f19601f8201168201806040525081019061211291906136e9565b600960009054906101000a90046dffffffffffffffffffffffffffff166009600e9054906101000a90046dffffffffffffffffffffffffffff166123ab565b6001600d81905550565b6000808473ffffffffffffffffffffffffffffffffffffffff166040518060400160405280601981526020017f7472616e7366657228616464726573732c75696e7432353629000000000000008152508051906020012085856040516024016121c5929190613ded565b604051602081830303815290604052907bffffffffffffffffffffffffffffffffffffffffffffffffffffffff19166020820180517bffffffffffffffffffffffffffffffffffffffffffffffffffffffff838183161783525050505060405161222f9190613e5d565b6000604051808303816000865af19150503d806000811461226c576040519150601f19603f3d011682016040523d82523d6000602084013e612271565b606091505b509150915081801561229f575060008151148061229e57508080602001905181019061229d9190613ea0565b5b5b6122de576040517f08c379a00000000000000000000000000000000000000000000000000000000081526004016122d590613f19565b60405180910390fd5b5050505050565b60008082148061230d5750828283856122fe9190613f39565b92508261230b9190613957565b145b61234c576040517f08c379a000000000000000000000000000000000000000000000000000000000815260040161234390613fc7565b60405180910390fd5b92915050565b60008282846123619190613745565b91508111156123a5576040517f08c379a000000000000000000000000000000000000000000000000000000000815260040161239c90614033565b60405180910390fd5b92915050565b6dffffffffffffffffffffffffffff801684111580156123db57506dffffffffffffffffffffffffffff80168311155b61241a576040517f08c379a00000000000000000000000000000000000000000000000000000000081526004016124119061409f565b60405180910390fd5b60006401000000004261242d91906140bf565b905060006009601c9054906101000a900463ffffffff168261244f91906140f0565b905060008163ffffffff1611801561247857506000846dffffffffffffffffffffffffffff1614155b801561249557506000836dffffffffffffffffffffffffffff1614155b1561259b578063ffffffff166124da856124ae86612db6565b7bffffffffffffffffffffffffffffffffffffffffffffffffffffffff16612dea90919063ffffffff16565b7bffffffffffffffffffffffffffffffffffffffffffffffffffffffff166125029190613f39565b600a60008282546125139190614128565b925050819055508063ffffffff1661255a8461252e87612db6565b7bffffffffffffffffffffffffffffffffffffffffffffffffffffffff16612dea90919063ffffffff16565b7bffffffffffffffffffffffffffffffffffffffffffffffffffffffff166125829190613f39565b600b60008282546125939190614128565b925050819055505b85600960006101000a8154816dffffffffffffffffffffffffffff02191690836dffffffffffffffffffffffffffff160217905550846009600e6101000a8154816dffffffffffffffffffffffffffff02191690836dffffffffffffffffffffffffffff160217905550816009601c6101000a81548163ffffffff021916908363ffffffff1602179055507f1c411e9a96e071241c2f21f7726b17ae89e3cab4c78be50e062b03a9fffbbad1600960009054906101000a90046dffffffffffffffffffffffffffff166009600e9054906101000a90046dffffffffffffffffffffffffffff1660405161268f92919061415c565b60405180910390a1505050505050565b80600260008573ffffffffffffffffffffffffffffffffffffffff1673ffffffffffffffffffffffffffffffffffffffff16815260200190815260200160002060008473ffffffffffffffffffffffffffffffffffffffff1673ffffffffffffffffffffffffffffffffffffffff168152602001908152602001600020819055508173ffffffffffffffffffffffffffffffffffffffff168373ffffffffffffffffffffffffffffffffffffffff167f8c5be1e5ebec7d5bd14f71427d1e84f3dd0314c0f7b2291e5b200ac8c7c3b9258360405161277d91906131d4565b60405180910390a3505050565b6127dc81600160008673ffffffffffffffffffffffffffffffffffffffff1673ffffffffffffffffffffffffffffffffffffffff1681526020019081526020016000205461235290919063ffffffff16565b600160008573ffffffffffffffffffffffffffffffffffffffff1673ffffffffffffffffffffffffffffffffffffffff1681526020019081526020016000208190555061287181600160008573ffffffffffffffffffffffffffffffffffffffff1673ffffffffffffffffffffffffffffffffffffffff16815260200190815260200160002054612e1090919063ffffffff16565b600160008473ffffffffffffffffffffffffffffffffffffffff1673ffffffffffffffffffffffffffffffffffffffff168152602001908152602001600020819055508173ffffffffffffffffffffffffffffffffffffffff168373ffffffffffffffffffffffffffffffffffffffff167fddf252ad1be2c89b69c2b068fc378daa952ba7f163c4a11628f55a4df523b3ef8360405161291191906131d4565b60405180910390a3505050565b600080600660009054906101000a900473ffffffffffffffffffffffffffffffffffffffff1673ffffffffffffffffffffffffffffffffffffffff1663017e7e586040518163ffffffff1660e01b8152600401602060405180830381865afa15801561298e573d6000803e3d6000fd5b505050506040513d601f19601f820116820180604052508101906129b29190613ac1565b9050600073ffffffffffffffffffffffffffffffffffffffff168173ffffffffffffffffffffffffffffffffffffffff16141591506000600c5490508215612ad55760008114612ad0576000612a39612a34866dffffffffffffffffffffffffffff16886dffffffffffffffffffffffffffff166122e590919063ffffffff16565b612aef565b90506000612a4683612aef565b905080821115612acd576000612a79612a68838561235290919063ffffffff16565b6000546122e590919063ffffffff16565b90506000612aa383612a956005876122e590919063ffffffff16565b612e1090919063ffffffff16565b905060008183612ab39190613957565b90506000811115612ac957612ac88782612b69565b5b5050505b50505b612ae7565b60008114612ae6576000600c819055505b5b505092915050565b60006003821115612b565781905060006001600284612b0e9190613957565b612b189190614128565b90505b81811015612b50578091506002818285612b359190613957565b612b3f9190614128565b612b499190613957565b9050612b1b565b50612b64565b60008214612b6357600190505b5b919050565b612b7e81600054612e1090919063ffffffff16565b600081905550612bd681600160008573ffffffffffffffffffffffffffffffffffffffff1673ffffffffffffffffffffffffffffffffffffffff16815260200190815260200160002054612e1090919063ffffffff16565b600160008473ffffffffffffffffffffffffffffffffffffffff1673ffffffffffffffffffffffffffffffffffffffff168152602001908152602001600020819055508173ffffffffffffffffffffffffffffffffffffffff16600073ffffffffffffffffffffffffffffffffffffffff167fddf252ad1be2c89b69c2b068fc378daa952ba7f163c4a11628f55a4df523b3ef83604051612c7791906131d4565b60405180910390a35050565b6000818310612c925781612c94565b825b905092915050565b612cee81600160008573ffffffffffffffffffffffffffffffffffffffff1673ffffffffffffffffffffffffffffffffffffffff1681526020019081526020016000205461235290919063ffffffff16565b600160008473ffffffffffffffffffffffffffffffffffffffff1673ffffffffffffffffffffffffffffffffffffffff16815260200190815260200160002081905550612d468160005461235290919063ffffffff16565b600081905550600073ffffffffffffffffffffffffffffffffffffffff168273ffffffffffffffffffffffffffffffffffffffff167fddf252ad1be2c89b69c2b068fc378daa952ba7f163c4a11628f55a4df523b3ef83604051612daa91906131d4565b60405180910390a35050565b60006e010000000000000000000000000000826dffffffffffffffffffffffffffff16612de391906141ad565b9050919050565b6000816dffffffffffffffffffffffffffff1683612e0891906141ef565b905092915050565b6000828284612e1f9190614128565b9150811015612e63576040517f08c379a0000000000000000000000000000000000000000000000000000000008152600401612e5a9061426c565b60405180910390fd5b92915050565b600080fd5b600080fd5b6000819050919050565b612e8681612e73565b8114612e9157600080fd5b50565b600081359050612ea381612e7d565b92915050565b600073ffffffffffffffffffffffffffffffffffffffff82169050919050565b6000612ed482612ea9565b9050919050565b612ee481612ec9565b8114612eef57600080fd5b50565b600081359050612f0181612edb565b92915050565b600080fd5b600080fd5b600080fd5b60008083601f840112612f2c57612f2b612f07565b5b8235905067ffffffffffffffff811115612f4957612f48612f0c565b5b602083019150836001820283011115612f6557612f64612f11565b5b9250929050565b600080600080600060808688031215612f8857612f87612e69565b5b6000612f9688828901612e94565b9550506020612fa788828901612e94565b9450506040612fb888828901612ef2565b935050606086013567ffffffffffffffff811115612fd957612fd8612e6e565b5b612fe588828901612f16565b92509250509295509295909350565b600081519050919050565b600082825260208201905092915050565b60005b8381101561302e578082015181840152602081019050613013565b60008484015250505050565b6000601f19601f8301169050919050565b600061305682612ff4565b6130608185612fff565b9350613070818560208601613010565b6130798161303a565b840191505092915050565b6000602082019050818103600083015261309e818461304b565b905092915050565b60006dffffffffffffffffffffffffffff82169050919050565b6130c9816130a6565b82525050565b600063ffffffff82169050919050565b6130e8816130cf565b82525050565b600060608201905061310360008301866130c0565b61311060208301856130c0565b61311d60408301846130df565b949350505050565b6000806040838503121561313c5761313b612e69565b5b600061314a85828601612ef2565b925050602061315b85828601612e94565b9150509250929050565b60008115159050919050565b61317a81613165565b82525050565b60006020820190506131956000830184613171565b92915050565b6131a481612ec9565b82525050565b60006020820190506131bf600083018461319b565b92915050565b6131ce81612e73565b82525050565b60006020820190506131e960008301846131c5565b92915050565b60008060006060848603121561320857613207612e69565b5b600061321686828701612ef2565b935050602061322786828701612ef2565b925050604061323886828701612e94565b9150509250925092565b6000819050919050565b61325581613242565b82525050565b6000602082019050613270600083018461324c565b92915050565b600060ff82169050919050565b61328c81613276565b82525050565b60006020820190506132a76000830184613283565b92915050565b600080604083850312156132c4576132c3612e69565b5b60006132d285828601612ef2565b92505060206132e385828601612ef2565b9150509250929050565b60006020828403121561330357613302612e69565b5b600061331184828501612ef2565b91505092915050565b600060408201905061332f60008301856131c5565b61333c60208301846131c5565b9392505050565b61334c81613276565b811461335757600080fd5b50565b60008135905061336981613343565b92915050565b61337881613242565b811461338357600080fd5b50565b6000813590506133958161336f565b92915050565b600080600080600080600060e0888a0312156133ba576133b9612e69565b5b60006133c88a828b01612ef2565b97505060206133d98a828b01612ef2565b96505060406133ea8a828b01612e94565b95505060606133fb8a828b01612e94565b945050608061340c8a828b0161335a565b93505060a061341d8a828b01613386565b92505060c061342e8a828b01613386565b91505092959891949750929550565b7f556e697377617056323a204c4f434b4544000000000000000000000000000000600082015250565b6000613473601183612fff565b915061347e8261343d565b602082019050919050565b600060208201905081810360008301526134a281613466565b9050919050565b7f556e697377617056323a20494e53554646494349454e545f4f55545055545f4160008201527f4d4f554e54000000000000000000000000000000000000000000000000000000602082015250565b6000613505602583612fff565b9150613510826134a9565b604082019050919050565b60006020820190508181036000830152613534816134f8565b9050919050565b7f556e697377617056323a20494e53554646494349454e545f4c4951554944495460008201527f5900000000000000000000000000000000000000000000000000000000000000602082015250565b6000613597602183612fff565b91506135a28261353b565b604082019050919050565b600060208201905081810360008301526135c68161358a565b9050919050565b7f556e697377617056323a20494e56414c49445f544f0000000000000000000000600082015250565b6000613603601583612fff565b915061360e826135cd565b602082019050919050565b60006020820190508181036000830152613632816135f6565b9050919050565b600082825260208201905092915050565b82818337600083830152505050565b60006136658385613639565b935061367283858461364a565b61367b8361303a565b840190509392505050565b600060808201905061369b600083018861319b565b6136a860208301876131c5565b6136b560408301866131c5565b81810360608301526136c8818486613659565b90509695505050505050565b6000815190506136e381612e7d565b92915050565b6000602082840312156136ff576136fe612e69565b5b600061370d848285016136d4565b91505092915050565b7f4e487b7100000000000000000000000000000000000000000000000000000000600052601160045260246000fd5b600061375082612e73565b915061375b83612e73565b925082820390508181111561377357613772613716565b5b92915050565b7f556e697377617056323a20494e53554646494349454e545f494e5055545f414d60008201527f4f554e5400000000000000000000000000000000000000000000000000000000602082015250565b60006137d5602483612fff565b91506137e082613779565b604082019050919050565b60006020820190508181036000830152613804816137c8565b9050919050565b7f556e697377617056323a204b0000000000000000000000000000000000000000600082015250565b6000613841600c83612fff565b915061384c8261380b565b602082019050919050565b6000602082019050818103600083015261387081613834565b9050919050565b600060808201905061388c60008301876131c5565b61389960208301866131c5565b6138a660408301856131c5565b6138b360608301846131c5565b95945050505050565b7f556e697377617056323a20464f5242494444454e000000000000000000000000600082015250565b60006138f2601483612fff565b91506138fd826138bc565b602082019050919050565b60006020820190508181036000830152613921816138e5565b9050919050565b7f4e487b7100000000000000000000000000000000000000000000000000000000600052601260045260246000fd5b600061396282612e73565b915061396d83612e73565b92508261397d5761397c613928565b5b828204905092915050565b7f556e697377617056323a20494e53554646494349454e545f4c4951554944495460008201527f595f4d494e544544000000000000000000000000000000000000000000000000602082015250565b60006139e4602883612fff565b91506139ef82613988565b604082019050919050565b60006020820190508181036000830152613a13816139d7565b9050919050565b7f556e697377617056323a20494e53554646494349454e545f4c4951554944495460008201527f595f4255524e4544000000000000000000000000000000000000000000000000602082015250565b6000613a76602883612fff565b9150613a8182613a1a565b604082019050919050565b60006020820190508181036000830152613aa581613a69565b9050919050565b600081519050613abb81612edb565b92915050565b600060208284031215613ad757613ad6612e69565b5b6000613ae584828501613aac565b91505092915050565b6000819050919050565b6000819050919050565b6000613b1d613b18613b1384613aee565b613af8565b612e73565b9050919050565b613b2d81613b02565b82525050565b6000608082019050613b48600083018761319b565b613b556020830186613b24565b613b62604083018561319b565b613b6f60608301846131c5565b95945050505050565b7f556e697377617056323a20455850495245440000000000000000000000000000600082015250565b6000613bae601283612fff565b9150613bb982613b78565b602082019050919050565b60006020820190508181036000830152613bdd81613ba1565b9050919050565b6000613bef82612e73565b91507fffffffffffffffffffffffffffffffffffffffffffffffffffffffffffffffff8203613c2157613c20613716565b5b600182019050919050565b600060c082019050613c41600083018961324c565b613c4e602083018861319b565b613c5b604083018761319b565b613c6860608301866131c5565b613c7560808301856131c5565b613c8260a08301846131c5565b979650505050505050565b600081905092915050565b7f1901000000000000000000000000000000000000000000000000000000000000600082015250565b6000613cce600283613c8d565b9150613cd982613c98565b600282019050919050565b6000819050919050565b613cff613cfa82613242565b613ce4565b82525050565b6000613d1082613cc1565b9150613d1c8285613cee565b602082019150613d2c8284613cee565b6020820191508190509392505050565b6000608082019050613d51600083018761324c565b613d5e6020830186613283565b613d6b604083018561324c565b613d78606083018461324c565b95945050505050565b7f556e697377617056323a20494e56414c49445f5349474e415455524500000000600082015250565b6000613db7601c83612fff565b9150613dc282613d81565b602082019050919050565b60006020820190508181036000830152613de681613daa565b9050919050565b6000604082019050613e02600083018561319b565b613e0f60208301846131c5565b9392505050565b600081519050919050565b600081905092915050565b6000613e3782613e16565b613e418185613e21565b9350613e51818560208601613010565b80840191505092915050565b6000613e698284613e2c565b915081905092915050565b613e7d81613165565b8114613e8857600080fd5b50565b600081519050613e9a81613e74565b92915050565b600060208284031215613eb657613eb5612e69565b5b6000613ec484828501613e8b565b91505092915050565b7f556e697377617056323a205452414e534645525f4641494c4544000000000000600082015250565b6000613f03601a83612fff565b9150613f0e82613ecd565b602082019050919050565b60006020820190508181036000830152613f3281613ef6565b9050919050565b6000613f4482612e73565b9150613f4f83612e73565b9250828202613f5d81612e73565b91508282048414831517613f7457613f73613716565b5b5092915050565b7f64732d6d6174682d6d756c2d6f766572666c6f77000000000000000000000000600082015250565b6000613fb1601483612fff565b9150613fbc82613f7b565b602082019050919050565b60006020820190508181036000830152613fe081613fa4565b9050919050565b7f64732d6d6174682d7375622d756e646572666c6f770000000000000000000000600082015250565b600061401d601583612fff565b915061402882613fe7565b602082019050919050565b6000602082019050818103600083015261404c81614010565b9050919050565b7f556e697377617056323a204f564552464c4f5700000000000000000000000000600082015250565b6000614089601383612fff565b915061409482614053565b602082019050919050565b600060208201905081810360008301526140b88161407c565b9050919050565b60006140ca82612e73565b91506140d583612e73565b9250826140e5576140e4613928565b5b828206905092915050565b60006140fb826130cf565b9150614106836130cf565b9250828203905063ffffffff81111561412257614121613716565b5b92915050565b600061413382612e73565b915061413e83612e73565b925082820190508082111561415657614155613716565b5b92915050565b600060408201905061417160008301856130c0565b61417e60208301846130c0565b9392505050565b60007bffffffffffffffffffffffffffffffffffffffffffffffffffffffff82169050919050565b60006141b882614185565b91506141c383614185565b92508282026141d181614185565b915082820484148315176141e8576141e7613716565b5b5092915050565b60006141fa82614185565b915061420583614185565b92508261421557614214613928565b5b828204905092915050565b7f64732d6d6174682d6164642d6f766572666c6f77000000000000000000000000600082015250565b6000614256601483612fff565b915061426182614220565b602082019050919050565b6000602082019050818103600083015261428581614249565b905091905056fea26469706673582212209af6194a7a56e7d344d3b8aa8ccaac0c81cbca8217bb09ca315d8e3c7a41aa7e64736f6c63430008180033608060405234801561001057600080fd5b50600160008190555061136e806100286000396000f3fe6080604052600436106100555760003560e01c80632c4797111461005a57806337bdc99b1461009a578063475ce592146100c357806375c254da14610100578063e4ca96101461011c578063ef79a35f14610145575b600080fd5b34801561006657600080fd5b50610081600480360381019061007c9190610e24565b610182565b6040516100919493929190610eed565b60405180910390f35b3480156100a657600080fd5b506100c160048036038101906100bc9190610f32565b6101fc565b005b3480156100cf57600080fd5b506100ea60048036038101906100e59190610f5f565b6105ba565b6040516100f791906110bd565b60405180910390f35b61011a60048036038101906101159190610e24565b6106dd565b005b34801561012857600080fd5b50610143600480360381019061013e91906110df565b610955565b005b34801561015157600080fd5b5061016c60048036038101906101679190610f5f565b610cef565b6040516101799190611146565b60405180910390f35b6001602052816000526040600020818154811061019e57600080fd5b9060005260206000209060040201600091509150508060000160009054906101000a900473ffffffffffffffffffffffffffffffffffffffff16908060010154908060020154908060030160009054906101000a900460ff16905084565b610204610d3b565b6000600160003373ffffffffffffffffffffffffffffffffffffffff1673ffffffffffffffffffffffffffffffffffffffff168152602001908152602001600020905080805490508210610284576040517f7ecccce000000000000000000000000000000000000000000000000000000000815260040160405180910390fd5b600081838154811061029957610298611161565b5b906000526020600020906004020190508060030160009054906101000a900460ff16156102f2576040517f63b4904e00000000000000000000000000000000000000000000000000000000815260040160405180910390fd5b8060020154421015610330576040517ff594da3400000000000000000000000000000000000000000000000000000000815260040160405180910390fd5b60018160030160006101000a81548160ff021916908315150217905550600073ffffffffffffffffffffffffffffffffffffffff168160000160009054906101000a900473ffffffffffffffffffffffffffffffffffffffff1673ffffffffffffffffffffffffffffffffffffffff16036104525760003373ffffffffffffffffffffffffffffffffffffffff1682600101546040516103cf906111c1565b60006040518083038185875af1925050503d806000811461040c576040519150601f19603f3d011682016040523d82523d6000602084013e610411565b606091505b505090508061044c576040517f90b8ec1800000000000000000000000000000000000000000000000000000000815260040160405180910390fd5b50610535565b60008160000160009054906101000a900473ffffffffffffffffffffffffffffffffffffffff1673ffffffffffffffffffffffffffffffffffffffff1663a9059cbb3384600101546040518363ffffffff1660e01b81526004016104b79291906111e5565b6020604051808303816000875af11580156104d6573d6000803e3d6000fd5b505050506040513d601f19601f820116820180604052508101906104fa919061123a565b905080610533576040517f90b8ec1800000000000000000000000000000000000000000000000000000000815260040160405180910390fd5b505b3373ffffffffffffffffffffffffffffffffffffffff167f2d87480f50083e2b2759522a8fdda59802650a8055e609a7772cf70c07748f528260000160009054906101000a900473ffffffffffffffffffffffffffffffffffffffff1683600101546040516105a59291906111e5565b60405180910390a250506105b7610d81565b50565b6060600160008373ffffffffffffffffffffffffffffffffffffffff1673ffffffffffffffffffffffffffffffffffffffff168152602001908152602001600020805480602002602001604051908101604052809291908181526020016000905b828210156106d257838290600052602060002090600402016040518060800160405290816000820160009054906101000a900473ffffffffffffffffffffffffffffffffffffffff1673ffffffffffffffffffffffffffffffffffffffff1673ffffffffffffffffffffffffffffffffffffffff16815260200160018201548152602001600282015481526020016003820160009054906101000a900460ff1615151515815250508152602001906001019061061b565b505050509050919050565b6106e5610d3b565b600073ffffffffffffffffffffffffffffffffffffffff168273ffffffffffffffffffffffffffffffffffffffff160361074b576040517fe99d5ac500000000000000000000000000000000000000000000000000000000815260040160405180910390fd5b60003403610785576040517f1f2a200500000000000000000000000000000000000000000000000000000000815260040160405180910390fd5b600081036107bf576040517f68d5686e00000000000000000000000000000000000000000000000000000000815260040160405180910390fd5b600081426107cd9190611296565b905060006040518060800160405280600073ffffffffffffffffffffffffffffffffffffffff168152602001348152602001838152602001600015158152509050600160008573ffffffffffffffffffffffffffffffffffffffff1673ffffffffffffffffffffffffffffffffffffffff16815260200190815260200160002081908060018154018082558091505060019003906000526020600020906004020160009091909190915060008201518160000160006101000a81548173ffffffffffffffffffffffffffffffffffffffff021916908373ffffffffffffffffffffffffffffffffffffffff160217905550602082015181600101556040820151816002015560608201518160030160006101000a81548160ff02191690831515021790555050508373ffffffffffffffffffffffffffffffffffffffff167f967ad762aa9070ada8db64577288e214771e89667066ae38e8750cb8a86c54296000348560405161093f939291906112ca565b60405180910390a25050610951610d81565b5050565b61095d610d3b565b600073ffffffffffffffffffffffffffffffffffffffff168473ffffffffffffffffffffffffffffffffffffffff16036109c3576040517fe99d5ac500000000000000000000000000000000000000000000000000000000815260040160405180910390fd5b600073ffffffffffffffffffffffffffffffffffffffff168273ffffffffffffffffffffffffffffffffffffffff1603610a29576040517fe99d5ac500000000000000000000000000000000000000000000000000000000815260040160405180910390fd5b60008303610a63576040517f68d5686e00000000000000000000000000000000000000000000000000000000815260040160405180910390fd5b60008103610a9d576040517f1f2a200500000000000000000000000000000000000000000000000000000000815260040160405180910390fd5b60008342610aab9190611296565b905060008373ffffffffffffffffffffffffffffffffffffffff166323b872dd3330866040518463ffffffff1660e01b8152600401610aec93929190611301565b6020604051808303816000875af1158015610b0b573d6000803e3d6000fd5b505050506040513d601f19601f82011682018060405250810190610b2f919061123a565b905080610b68576040517f90b8ec1800000000000000000000000000000000000000000000000000000000815260040160405180910390fd5b600060405180608001604052808673ffffffffffffffffffffffffffffffffffffffff168152602001858152602001848152602001600015158152509050600160008873ffffffffffffffffffffffffffffffffffffffff1673ffffffffffffffffffffffffffffffffffffffff16815260200190815260200160002081908060018154018082558091505060019003906000526020600020906004020160009091909190915060008201518160000160006101000a81548173ffffffffffffffffffffffffffffffffffffffff021916908373ffffffffffffffffffffffffffffffffffffffff160217905550602082015181600101556040820151816002015560608201518160030160006101000a81548160ff02191690831515021790555050508673ffffffffffffffffffffffffffffffffffffffff167f967ad762aa9070ada8db64577288e214771e89667066ae38e8750cb8a86c5429868686604051610cd6939291906112ca565b60405180910390a2505050610ce9610d81565b50505050565b6000600160008373ffffffffffffffffffffffffffffffffffffffff1673ffffffffffffffffffffffffffffffffffffffff168152602001908152602001600020805490509050919050565b600260005403610d77576040517f3ee5aeb500000000000000000000000000000000000000000000000000000000815260040160405180910390fd5b6002600081905550565b6001600081905550565b600080fd5b600073ffffffffffffffffffffffffffffffffffffffff82169050919050565b6000610dbb82610d90565b9050919050565b610dcb81610db0565b8114610dd657600080fd5b50565b600081359050610de881610dc2565b92915050565b6000819050919050565b610e0181610dee565b8114610e0c57600080fd5b50565b600081359050610e1e81610df8565b92915050565b60008060408385031215610e3b57610e3a610d8b565b5b6000610e4985828601610dd9565b9250506020610e5a85828601610e0f565b9150509250929050565b6000819050919050565b6000610e89610e84610e7f84610d90565b610e64565b610d90565b9050919050565b6000610e9b82610e6e565b9050919050565b6000610ead82610e90565b9050919050565b610ebd81610ea2565b82525050565b610ecc81610dee565b82525050565b60008115159050919050565b610ee781610ed2565b82525050565b6000608082019050610f026000830187610eb4565b610f0f6020830186610ec3565b610f1c6040830185610ec3565b610f296060830184610ede565b95945050505050565b600060208284031215610f4857610f47610d8b565b5b6000610f5684828501610e0f565b91505092915050565b600060208284031215610f7557610f74610d8b565b5b6000610f8384828501610dd9565b91505092915050565b600081519050919050565b600082825260208201905092915050565b6000819050602082019050919050565b610fc181610ea2565b82525050565b610fd081610dee565b82525050565b610fdf81610ed2565b82525050565b608082016000820151610ffb6000850182610fb8565b50602082015161100e6020850182610fc7565b5060408201516110216040850182610fc7565b5060608201516110346060850182610fd6565b50505050565b60006110468383610fe5565b60808301905092915050565b6000602082019050919050565b600061106a82610f8c565b6110748185610f97565b935061107f83610fa8565b8060005b838110156110b0578151611097888261103a565b97506110a283611052565b925050600181019050611083565b5085935050505092915050565b600060208201905081810360008301526110d7818461105f565b905092915050565b600080600080608085870312156110f9576110f8610d8b565b5b600061110787828801610dd9565b945050602061111887828801610e0f565b935050604061112987828801610dd9565b925050606061113a87828801610e0f565b91505092959194509250565b600060208201905061115b6000830184610ec3565b92915050565b7f4e487b7100000000000000000000000000000000000000000000000000000000600052603260045260246000fd5b600081905092915050565b50565b60006111ab600083611190565b91506111b68261119b565b600082019050919050565b60006111cc8261119e565b9150819050919050565b6111df81610db0565b82525050565b60006040820190506111fa60008301856111d6565b6112076020830184610ec3565b9392505050565b61121781610ed2565b811461122257600080fd5b50565b6000815190506112348161120e565b92915050565b6000602082840312156112505761124f610d8b565b5b600061125e84828501611225565b91505092915050565b7f4e487b7100000000000000000000000000000000000000000000000000000000600052601160045260246000fd5b60006112a182610dee565b91506112ac83610dee565b92508282019050808211156112c4576112c3611267565b5b92915050565b60006060820190506112df60008301866111d6565b6112ec6020830185610ec3565b6112f96040830184610ec3565b949350505050565b600060608201905061131660008301866111d6565b61132360208301856111d6565b6113306040830184610ec3565b94935050505056fea26469706673582212202265c7e16a036d8f8712d6dd885f19cfe7e23e3af6a785462c6067a0a76c749d64736f6c63430008180033a2646970667358221220992d13b38dcad2c45a5ba3bc71c50d160150cc032634dbc516e7086fd0c54bb164736f6c63430008180033","linkReferences":{}},"methodIdentifiers":{"allPairs(uint256)":"1e3dd18b","allPairsLength()":"574f2ba3","createPair(address,address)":"c9c65396","feeTo()":"017e7e58","feeToSetter()":"094b7415","getPair(address,address)":"e6a43905","getPairDeployer(address)":"4a967b4f","pairDeployer(address)":"d4ca62d8","setFeeTo(address)":"f46901ed","setFeeToSetter(address)":"a2e74af6"},"id":20}