{
  "abi": [
    {
      "type": "constructor",
      "inputs": [
        {
          "name": "_factory",
          "type": "address",
          "internalType": "address"
        },
        {
          "name": "_WETH9",
          "type": "address",
          "internalType": "address"
        },
        {
          "name": "_nonfungiblePositionManager",
          "type": "address",
          "internalType": "address"
        }
      ],
      "stateMutability": "nonpayable"
    },
    {
      "type": "receive",
      "stateMutability": "payable"
    },
    {
      "type": "function",
      "name": "WETH9",
      "inputs": [],
      "outputs": [
        {
          "name": "",
          "type": "address",
          "internalType": "address"
        }
      ],
      "stateMutability": "view"
    },
    {
      "type": "function",
      "name": "createAndInitializePoolIfNecessary",
      "inputs": [
        {
          "name": "token0",
          "type": "address",
          "internalType": "address"
        },
        {
          "name": "token1",
          "type": "address",
          "internalType": "address"
        },
        {
          "name": "fee",
          "type": "uint24",
          "internalType": "uint24"
        },
        {
          "name": "sqrtPriceX96",
          "type": "uint160",
          "internalType": "uint160"
        }
      ],
      "outputs": [
        {
          "name": "pool",
          "type": "address",
          "internalType": "address"
        }
      ],
      "stateMutability": "payable"
    },
    {
      "type": "function",
      "name": "factory",
      "inputs": [],
      "outputs": [
        {
          "name": "",
          "type": "address",
          "internalType": "address"
        }
      ],
      "stateMutability": "view"
    },
    {
      "type": "function",
      "name": "migrate",
      "inputs": [
        {
          "name": "params",
          "type": "tuple",
          "internalType": "struct IV3Migrator.MigrateParams",
          "components": [
            {
              "name": "pair",
              "type": "address",
              "internalType": "address"
            },
            {
              "name": "liquidityToMigrate",
              "type": "uint256",
              "internalType": "uint256"
            },
            {
              "name": "percentageToMigrate",
              "type": "uint8",
              "internalType": "uint8"
            },
            {
              "name": "token0",
              "type": "address",
              "internalType": "address"
            },
            {
              "name": "token1",
              "type": "address",
              "internalType": "address"
            },
            {
              "name": "fee",
              "type": "uint24",
              "internalType": "uint24"
            },
            {
              "name": "tickLower",
              "type": "int24",
              "internalType": "int24"
            },
            {
              "name": "tickUpper",
              "type": "int24",
              "internalType": "int24"
            },
            {
              "name": "amount0Min",
              "type": "uint256",
              "internalType": "uint256"
            },
            {
              "name": "amount1Min",
              "type": "uint256",
              "internalType": "uint256"
            },
            {
              "name": "recipient",
              "type": "address",
              "internalType": "address"
            },
            {
              "name": "deadline",
              "type": "uint256",
              "internalType": "uint256"
            },
            {
              "name": "refundAsETH",
              "type": "bool",
              "internalType": "bool"
            }
          ]
        }
      ],
      "outputs": [],
      "stateMutability": "nonpayable"
    },
    {
      "type": "function",
      "name": "multicall",
      "inputs": [
        {
          "name": "data",
          "type": "bytes[]",
          "internalType": "bytes[]"
        }
      ],
      "outputs": [
        {
          "name": "results",
          "type": "bytes[]",
          "internalType": "bytes[]"
        }
      ],
      "stateMutability": "payable"
    },
    {
      "type": "function",
      "name": "nonfungiblePositionManager",
      "inputs": [],
      "outputs": [
        {
          "name": "",
          "type": "address",
          "internalType": "address"
        }
      ],
      "stateMutability": "view"
    },
    {
      "type": "function",
      "name": "selfPermit",
      "inputs": [
        {
          "name": "token",
          "type": "address",
          "internalType": "address"
        },
        {
          "name": "value",
          "type": "uint256",
          "internalType": "uint256"
        },
        {
          "name": "deadline",
          "type": "uint256",
          "internalType": "uint256"
        },
        {
          "name": "v",
          "type": "uint8",
          "internalType": "uint8"
        },
        {
          "name": "r",
          "type": "bytes32",
          "internalType": "bytes32"
        },
        {
          "name": "s",
          "type": "bytes32",
          "internalType": "bytes32"
        }
      ],
      "outputs": [],
      "stateMutability": "payable"
    },
    {
      "type": "function",
      "name": "selfPermitAllowed",
      "inputs": [
        {
          "name": "token",
          "type": "address",
          "internalType": "address"
        },
        {
          "name": "nonce",
          "type": "uint256",
          "internalType": "uint256"
        },
        {
          "name": "expiry",
          "type": "uint256",
          "internalType": "uint256"
        },
        {
          "name": "v",
          "type": "uint8",
          "internalType": "uint8"
        },
        {
          "name": "r",
          "type": "bytes32",
          "internalType": "bytes32"
        },
        {
          "name": "s",
          "type": "bytes32",
          "internalType": "bytes32"
        }
      ],
      "outputs": [],
      "stateMutability": "payable"
    },
    {
      "type": "function",
      "name": "selfPermitAllowedIfNecessary",
      "inputs": [
        {
          "name": "token",
          "type": "address",
          "internalType": "address"
        },
        {
          "name": "nonce",
          "type": "uint256",
          "internalType": "uint256"
        },
        {
          "name": "expiry",
          "type": "uint256",
          "internalType": "uint256"
        },
        {
          "name": "v",
          "type": "uint8",
          "internalType": "uint8"
        },
        {
          "name": "r",
          "type": "bytes32",
          "internalType": "bytes32"
        },
        {
          "name": "s",
          "type": "bytes32",
          "internalType": "bytes32"
        }
      ],
      "outputs": [],
      "stateMutability": "payable"
    },
    {
      "type": "function",
      "name": "selfPermitIfNecessary",
      "inputs": [
        {
          "name": "token",
          "type": "address",
          "internalType": "address"
        },
        {
          "name": "value",
          "type": "uint256",
          "internalType": "uint256"
        },
        {
          "name": "deadline",
          "type": "uint256",
          "internalType": "uint256"
        },
        {
          "name": "v",
          "type": "uint8",
          "internalType": "uint8"
        },
        {
          "name": "r",
          "type": "bytes32",
          "internalType": "bytes32"
        },
        {
          "name": "s",
          "type": "bytes32",
          "internalType": "bytes32"
        }
      ],
      "outputs": [],
      "stateMutability": "payable"
    }
  ],
  "bytecode": {
    "object": "0x60e0346100e957601f6200171f38819003918201601f19168301916001600160401b038311848410176100ee578084926060946040528339810103126100e95761004881610104565b90610061604061005a60208401610104565b9201610104565b9160805260a05260c052604051611606908162000119823960805181818161083601528181610cfb0152610d87015260a051818181601b0152818161046d0152818161051d015281816105aa015281816106510152610c1a015260c05181818161021501528181610240015281816103ff015281816105540152818161068801526109220152f35b600080fd5b634e487b7160e01b600052604160045260246000fd5b51906001600160a01b03821682036100e95756fe6080604052600436101561007c575b361561001957600080fd5b7f00000000000000000000000000000000000000000000000000000000000000006001600160a01b0316330361004b57005b60405162461bcd60e51b81526020600482015260096024820152684e6f7420574554483960b81b6044820152606490fd5b6000803560e01c806313ead56214610c625780634659a49414610c495780634aa4a4fc14610c04578063a4a78f0c14610b73578063ac9650d814610951578063b44a27221461090c578063c2e3140a14610865578063c45a015514610820578063d44f2bf2146101115763f3995c67146100f6575061000e565b61010e61010236610fbb565b94939093929192611286565b80f35b503461081d576101a036600319011261081d5760ff61012e611201565b16156107e157606460ff610140611201565b16116107a5578060206001600160a01b03610159611211565b166064610164611211565b60405194859384926323b872dd60e01b845233600485015260018060a01b0316602484015260243560448401525af180156104f05761076c575b508060406001600160a01b036101b2611211565b16602482518094819363226bf2d160e21b83523060048401525af19081156104f05782908392610732575b5060646101f460ff6101ed611201565b16836112ef565b0491606461020560ff6101ed611201565b049261023a81610213611227565b7f000000000000000000000000000000000000000000000000000000000000000090611415565b61026c847f000000000000000000000000000000000000000000000000000000000000000061026761123d565b611415565b610274611227565b61027c61123d565b60a43562ffffff8116810361072e5760c4358060020b810361072a5760e435918260020b83036107265761014435936001600160a01b038516850361072257604051958661016081011067ffffffffffffffff6101608901111761070e579062ffffff9291610160880160405260018060a01b0316875260018060a01b0316602087015216604085015260020b606084015260020b60808301528260a08301528560c08301526101043560e08301526101243561010083015260018060a01b03166101208201526101643561014082015261014060405191634418b22b60e11b835260018060a01b03815116600484015260018060a01b03602082015116602484015262ffffff6040820151166044840152606081015160020b6064840152608081015160020b608484015260a081015160a484015260c081015160c484015260e081015160e484015261010081015161010484015260018060a01b03610120820151166101248401520151610144820152608081610164818960018060a01b037f0000000000000000000000000000000000000000000000000000000000000000165af193841561062957869187956106af575b50808210610585575b505050808210610448578380f35b61045792821061054f57611253565b61045f611276565b80610512575b156104fb57817f00000000000000000000000000000000000000000000000000000000000000006001600160a01b0316803b156104ec57818091602460405180948193632e1a7d4d60e01b83528860048401525af180156104f0576104d8575b50506104d19033611569565b3880808380f35b6104e190611048565b6104ec5781386104c5565b5080fd5b6040513d84823e3d90fd5b61050d903361050861123d565b6114af565b6104d1565b5061051b61123d565b7f00000000000000000000000000000000000000000000000000000000000000006001600160a01b03908116911614610465565b6105807f000000000000000000000000000000000000000000000000000000000000000061057b61123d565b611355565b611253565b61059492821061068357611253565b61059c611276565b80610646575b1561063457847f00000000000000000000000000000000000000000000000000000000000000006001600160a01b0316803b156104ec578190602460405180948193632e1a7d4d60e01b83528760048401525af1801561062957610614575b5061060c9033611569565b38808061043a565b9461062261060c9296611048565b9490610601565b6040513d88823e3d90fd5b6106419033610508611227565b61060c565b5061064f611227565b7f00000000000000000000000000000000000000000000000000000000000000006001600160a01b039081169116146105a2565b6105807f000000000000000000000000000000000000000000000000000000000000000061057b611227565b915093506080813d608011610706575b816106cc6080938361108e565b810103126107025760208101516fffffffffffffffffffffffffffffffff81160361070257606060408201519101519338610431565b8580fd5b3d91506106bf565b634e487b7160e01b8c52604160045260248cfd5b8a80fd5b8980fd5b8880fd5b8780fd5b9150506040813d604011610764575b8161074e6040938361108e565b810103126104ec576020815191015190386101dd565b3d9150610741565b6020813d60201161079d575b816107856020938361108e565b810103126104ec57610796906110de565b503861019e565b3d9150610778565b60405162461bcd60e51b815260206004820152601460248201527350657263656e7461676520746f6f206c6172676560601b6044820152606490fd5b60405162461bcd60e51b815260206004820152601460248201527314195c98d95b9d1859d9481d1bdbc81cdb585b1b60621b6044820152606490fd5b80fd5b503461081d578060031936011261081d576040517f00000000000000000000000000000000000000000000000000000000000000006001600160a01b03168152602090f35b5061086f36610fbb565b604051636eb1769f60e11b81523360048201523060248201529094919391906020816044816001600160a01b038b165afa801561090157829189916108cc575b50106108b9578680f35b6108c295611286565b3880808080808680f35b9150506020813d6020116108f9575b816108e86020938361108e565b8101031261072e57819051386108af565b3d91506108db565b6040513d8a823e3d90fd5b503461081d578060031936011261081d576040517f00000000000000000000000000000000000000000000000000000000000000006001600160a01b03168152602090f35b506020806003193601126104ec5760043567ffffffffffffffff808211610b585736602383011215610b5857816004013590808211610b6f57602460059236828260051b87010111610b6b57926109aa84979697611173565b946109b8604051968761108e565b8486526109c485611173565b601f1901875b818110610b5c575050368190036042190191875b868110610a445789898960405191838301848452825180915260408401948060408360051b870101940192955b828710610a185785850386f35b909192938280610a34600193603f198a82030186528851611023565b9601920196019592919092610a0b565b8481839b9a9b1b84010135848112156107225783018a868201358881116104ec576044809301908036038213610b5457829181604051928392833781018381520390305af490610a926111a7565b9115610abc575090600191610aa7828b6111d7565b52610ab2818a6111d7565b50019897986109de565b818c828a8e948b965110610b545760048401518401938581888701960312610b585786810151918211610b5857019083604383011215610b54578582015192610b048461118b565b94610b12604051968761108e565b84865282858501011161081d575091610b3491849386610b5096019101611000565b60405193849362461bcd60e51b85526004850152830190611023565b0390fd5b8280fd5b8380fd5b60608882018b015289016109ca565b8680fd5b8480fd5b50610b7d36610fbb565b604051636eb1769f60e11b81523360048201523060248201529094919391906020816044816001600160a01b038b165afa908115610901578891610bd2575b5060001911610bc9578680f35b6108c2956110eb565b90506020813d602011610bfc575b81610bed6020938361108e565b8101031261072e575138610bbc565b3d9150610be0565b503461081d578060031936011261081d576040517f00000000000000000000000000000000000000000000000000000000000000006001600160a01b03168152602090f35b5061010e610c5636610fbb565b949390939291926110eb565b50608036600319011261081d576004356001600160a01b038116908190036104ec576024356001600160a01b03811690818103610b58576044359162ffffff83168303610b6f576064356001600160a01b0381169490859003610702571015610b5857630b4c774160e11b60809081526001600160a01b036004358116608452821660a45262ffffff831660c4526020908060e40360807f00000000000000000000000000000000000000000000000000000000000000006001600160a01b03165afa8015610fb0578490610f7f575b6001600160a01b0381169081610e5c57505060405163a167129560e01b81526001600160a01b0360048035821690830152909116602482015262ffffff909116604482015290829060208380606481010381857f00000000000000000000000000000000000000000000000000000000000000006001600160a01b03165af19283156104f0578293610e2b575b506001600160a01b038316803b15610b545760248392604051948593849263f637731d60e01b845260048401525af18015610e205760209350610e11575b505b6040516001600160a01b039091168152f35b610e1a90611048565b38610dfd565b6040513d85823e3d90fd5b610e4e91935060203d602011610e55575b610e46818361108e565b8101906110b0565b9138610dbf565b503d610e3c565b939150939150604051633850c7bd60e01b815260e081600481885afa908115610e20578391610eeb575b506001600160a01b031615610ea1575b505060209150610dff565b8382943b15610b545760248392604051948593849263f637731d60e01b845260048401525af18015610e205760209350610edc575b80610e96565b610ee590611048565b38610ed6565b905060e0813d60e011610f77575b81610f0660e0938361108e565b81010312610b54578051906001600160a01b0382168203610b585760208101518060020b03610b5857610f3b604082016110cf565b50610f48606082016110cf565b50610f55608082016110cf565b5060a081015160ff811603610b585760c0610f7091016110de565b5038610e86565b3d9150610ef9565b5060203d602011610fa9575b80610f9a610fa492608061108e565b60800160806110b0565b610d32565b503d610f8b565b6040513d86823e3d90fd5b60c0906003190112610ffb576004356001600160a01b0381168103610ffb5790602435906044359060643560ff81168103610ffb57906084359060a43590565b600080fd5b60005b8381106110135750506000910152565b8181015183820152602001611003565b9060209161103c81518092818552858086019101611000565b601f01601f1916010190565b67ffffffffffffffff811161105c57604052565b634e487b7160e01b600052604160045260246000fd5b6080810190811067ffffffffffffffff82111761105c57604052565b90601f8019910116810190811067ffffffffffffffff82111761105c57604052565b90816020910312610ffb57516001600160a01b0381168103610ffb5790565b519061ffff82168203610ffb57565b51908115158203610ffb57565b92946001600160a01b0390931693919291843b15610ffb5760009461010493869260ff604051998a9889976323f2ebc360e21b89523360048a01523060248a015260448901526064880152600160848801521660a486015260c485015260e48401525af180156111675761115c5750565b61116590611048565b565b6040513d6000823e3d90fd5b67ffffffffffffffff811161105c5760051b60200190565b67ffffffffffffffff811161105c57601f01601f191660200190565b3d156111d2573d906111b88261118b565b916111c6604051938461108e565b82523d6000602084013e565b606090565b80518210156111eb5760209160051b010190565b634e487b7160e01b600052603260045260246000fd5b60443560ff81168103610ffb5790565b6004356001600160a01b0381168103610ffb5790565b6064356001600160a01b0381168103610ffb5790565b6084356001600160a01b0381168103610ffb5790565b9190820391821161126057565b634e487b7160e01b600052601160045260246000fd5b610184358015158103610ffb5790565b92946001600160a01b0390931693919291843b15610ffb5760009460e493869260ff604051998a98899763d505accf60e01b89523360048a01523060248a01526044890152606488015216608486015260a485015260c48401525af180156111675761115c5750565b9190600092600091811591821561130b575b50501561081d5750565b9080929550810290810490818314861715611341579461132d57143880611301565b634e487b7160e01b83526012600452602483fd5b634e487b7160e01b84526011600452602484fd5b90604051602081019163095ea7b360e01b835260018060a01b0316602482015260009283928383816044819601526044815261139081611072565b51925af19061139d6111a7565b826113d6575b5050156113ac57565b60405162461bcd60e51b8152602060048201526002602482015261534160f01b6044820152606490fd5b80919250519182159283156113f0575b50505038806113a3565b82935091602091928101031261081d5750602061140d91016110de565b3880806113e6565b60405163095ea7b360e01b602082019081526001600160a01b0390931660248201526044810193909352600092839290839061145e81606481015b03601f19810183528261108e565b51925af161146a6111a7565b81611478575b50156113ac57565b805180159250821561148d575b505038611470565b8192509060209181010312610ffb5760206114a891016110de565b3880611485565b60405163a9059cbb60e01b602082019081526001600160a01b039093166024820152604481019390935260009283929083906114ee8160648101611450565b51925af16114fa6111a7565b81611532575b501561150857565b60405162461bcd60e51b815260206004820152600260248201526114d560f21b6044820152606490fd5b8051801592508215611547575b505038611500565b8192509060209181010312610ffb57602061156291016110de565b388061153f565b604051602081019080821067ffffffffffffffff83111761105c576000938493848094938194604052525af161159d6111a7565b50156115a557565b60405162461bcd60e51b815260206004820152600360248201526253544560e81b6044820152606490fdfea2646970667358221220a27efe2cc76a9e89bc9d1a4c1f52fd43989393824bd2d751e70d393b98a68a7564736f6c63430008180033",
    "linkReferences": {}
  },
  "methodIdentifiers": {
    "WETH9()": "4aa4a4fc",
    "createAndInitializePoolIfNecessary(address,address,uint24,uint160)": "13ead562",
    "factory()": "c45a0155",
    "migrate((address,uint256,uint8,address,address,uint24,int24,int24,uint256,uint256,address,uint256,bool))": "d44f2bf2",
    "multicall(bytes[])": "ac9650d8",
    "nonfungiblePositionManager()": "b44a2722",
    "selfPermit(address,uint256,uint256,uint8,bytes32,bytes32)": "f3995c67",
    "selfPermitAllowed(address,uint256,uint256,uint8,bytes32,bytes32)": "4659a494",
    "selfPermitAllowedIfNecessary(address,uint256,uint256,uint8,bytes32,bytes32)": "a4a78f0c",
    "selfPermitIfNecessary(address,uint256,uint256,uint8,bytes32,bytes32)": "c2e3140a"
  },
  "id": 86
}