{
  "abi": [
    {
      "type": "constructor",
      "inputs": [
        {
          "name": "_factory",
          "type": "address",
          "internalType": "address"
        },
        {
          "name": "_WETH9",
          "type": "address",
          "internalType": "address"
        },
        {
          "name": "_nonfungiblePositionManager",
          "type": "address",
          "internalType": "address"
        }
      ],
      "stateMutability": "nonpayable"
    },
    {
      "type": "receive",
      "stateMutability": "payable"
    },
    {
      "type": "function",
      "name": "WETH9",
      "inputs": [],
      "outputs": [
        {
          "name": "",
          "type": "address",
          "internalType": "address"
        }
      ],
      "stateMutability": "view"
    },
    {
      "type": "function",
      "name": "createAndInitializePoolIfNecessary",
      "inputs": [
        {
          "name": "token0",
          "type": "address",
          "internalType": "address"
        },
        {
          "name": "token1",
          "type": "address",
          "internalType": "address"
        },
        {
          "name": "fee",
          "type": "uint24",
          "internalType": "uint24"
        },
        {
          "name": "sqrtPriceX96",
          "type": "uint160",
          "internalType": "uint160"
        },
        {
          "name": "isKitchen",
          "type": "bool",
          "internalType": "bool"
        }
      ],
      "outputs": [
        {
          "name": "pool",
          "type": "address",
          "internalType": "address"
        }
      ],
      "stateMutability": "payable"
    },
    {
      "type": "function",
      "name": "factory",
      "inputs": [],
      "outputs": [
        {
          "name": "",
          "type": "address",
          "internalType": "address"
        }
      ],
      "stateMutability": "view"
    },
    {
      "type": "function",
      "name": "migrate",
      "inputs": [
        {
          "name": "params",
          "type": "tuple",
          "internalType": "struct IV3Migrator.MigrateParams",
          "components": [
            {
              "name": "pair",
              "type": "address",
              "internalType": "address"
            },
            {
              "name": "liquidityToMigrate",
              "type": "uint256",
              "internalType": "uint256"
            },
            {
              "name": "percentageToMigrate",
              "type": "uint8",
              "internalType": "uint8"
            },
            {
              "name": "token0",
              "type": "address",
              "internalType": "address"
            },
            {
              "name": "token1",
              "type": "address",
              "internalType": "address"
            },
            {
              "name": "fee",
              "type": "uint24",
              "internalType": "uint24"
            },
            {
              "name": "tickLower",
              "type": "int24",
              "internalType": "int24"
            },
            {
              "name": "tickUpper",
              "type": "int24",
              "internalType": "int24"
            },
            {
              "name": "amount0Min",
              "type": "uint256",
              "internalType": "uint256"
            },
            {
              "name": "amount1Min",
              "type": "uint256",
              "internalType": "uint256"
            },
            {
              "name": "recipient",
              "type": "address",
              "internalType": "address"
            },
            {
              "name": "deadline",
              "type": "uint256",
              "internalType": "uint256"
            },
            {
              "name": "refundAsETH",
              "type": "bool",
              "internalType": "bool"
            }
          ]
        }
      ],
      "outputs": [],
      "stateMutability": "nonpayable"
    },
    {
      "type": "function",
      "name": "multicall",
      "inputs": [
        {
          "name": "data",
          "type": "bytes[]",
          "internalType": "bytes[]"
        }
      ],
      "outputs": [
        {
          "name": "results",
          "type": "bytes[]",
          "internalType": "bytes[]"
        }
      ],
      "stateMutability": "payable"
    },
    {
      "type": "function",
      "name": "nonfungiblePositionManager",
      "inputs": [],
      "outputs": [
        {
          "name": "",
          "type": "address",
          "internalType": "address"
        }
      ],
      "stateMutability": "view"
    },
    {
      "type": "function",
      "name": "selfPermit",
      "inputs": [
        {
          "name": "token",
          "type": "address",
          "internalType": "address"
        },
        {
          "name": "value",
          "type": "uint256",
          "internalType": "uint256"
        },
        {
          "name": "deadline",
          "type": "uint256",
          "internalType": "uint256"
        },
        {
          "name": "v",
          "type": "uint8",
          "internalType": "uint8"
        },
        {
          "name": "r",
          "type": "bytes32",
          "internalType": "bytes32"
        },
        {
          "name": "s",
          "type": "bytes32",
          "internalType": "bytes32"
        }
      ],
      "outputs": [],
      "stateMutability": "payable"
    },
    {
      "type": "function",
      "name": "selfPermitAllowed",
      "inputs": [
        {
          "name": "token",
          "type": "address",
          "internalType": "address"
        },
        {
          "name": "nonce",
          "type": "uint256",
          "internalType": "uint256"
        },
        {
          "name": "expiry",
          "type": "uint256",
          "internalType": "uint256"
        },
        {
          "name": "v",
          "type": "uint8",
          "internalType": "uint8"
        },
        {
          "name": "r",
          "type": "bytes32",
          "internalType": "bytes32"
        },
        {
          "name": "s",
          "type": "bytes32",
          "internalType": "bytes32"
        }
      ],
      "outputs": [],
      "stateMutability": "payable"
    },
    {
      "type": "function",
      "name": "selfPermitAllowedIfNecessary",
      "inputs": [
        {
          "name": "token",
          "type": "address",
          "internalType": "address"
        },
        {
          "name": "nonce",
          "type": "uint256",
          "internalType": "uint256"
        },
        {
          "name": "expiry",
          "type": "uint256",
          "internalType": "uint256"
        },
        {
          "name": "v",
          "type": "uint8",
          "internalType": "uint8"
        },
        {
          "name": "r",
          "type": "bytes32",
          "internalType": "bytes32"
        },
        {
          "name": "s",
          "type": "bytes32",
          "internalType": "bytes32"
        }
      ],
      "outputs": [],
      "stateMutability": "payable"
    },
    {
      "type": "function",
      "name": "selfPermitIfNecessary",
      "inputs": [
        {
          "name": "token",
          "type": "address",
          "internalType": "address"
        },
        {
          "name": "value",
          "type": "uint256",
          "internalType": "uint256"
        },
        {
          "name": "deadline",
          "type": "uint256",
          "internalType": "uint256"
        },
        {
          "name": "v",
          "type": "uint8",
          "internalType": "uint8"
        },
        {
          "name": "r",
          "type": "bytes32",
          "internalType": "bytes32"
        },
        {
          "name": "s",
          "type": "bytes32",
          "internalType": "bytes32"
        }
      ],
      "outputs": [],
      "stateMutability": "payable"
    }
  ],
  "bytecode": {
    "object": "0x60e0346100e057601f61169d38819003918201601f19168301916001600160401b038311848410176100e4578084926060946040528339810103126100e057610047816100f8565b906100606040610059602084016100f8565b92016100f8565b9160805260a05260c052604051611590908161010d82396080518181816108330152610c77015260a051818181601a0152818161046b0152818161051b015281816105a80152818161064f0152610f10015260c0518181816102130152818161023e015281816103fd0152818161055201528181610686015261091e0152f35b5f80fd5b634e487b7160e01b5f52604160045260245ffd5b51906001600160a01b03821682036100e05756fe6080604052600436101561007b575b3615610018575f80fd5b7f00000000000000000000000000000000000000000000000000000000000000006001600160a01b0316330361004a57005b60405162461bcd60e51b81526020600482015260096024820152684e6f7420574554483960b81b6044820152606490fd5b5f803560e01c80634659a49414610f3f5780634aa4a4fc14610efa5780637dbeb4c414610c0d578063a4a78f0c14610b7e578063ac9650d81461094d578063b44a272214610908578063c2e3140a14610862578063c45a01551461081d578063d44f2bf21461010f5763f3995c67146100f4575061000e565b61010c61010036610f58565b949390939291926111f5565b80f35b503461081a576101a036600319011261081a5760ff61012c610fe2565b16156107de57606460ff61013e610fe2565b16116107a2578060206001600160a01b03610157610ff2565b166064610162610ff2565b60405194859384926323b872dd60e01b845233600485015260018060a01b0316602484015260243560448401525af180156104ee57610769575b508060406001600160a01b036101b0610ff2565b16602482518094819363226bf2d160e21b83523060048401525af19081156104ee578290839261072f575b5060646101f260ff6101eb610fe2565b16836110d8565b0491606461020360ff6101eb610fe2565b049261023881610211611008565b7f000000000000000000000000000000000000000000000000000000000000000090611465565b61026a847f000000000000000000000000000000000000000000000000000000000000000061026561101e565b611465565b610272611008565b61027a61101e565b60a43562ffffff8116810361072b5760c4358060020b81036107275760e435918260020b83036107235761014435936001600160a01b038516850361071f57604051958661016081011067ffffffffffffffff6101608901111761070b579062ffffff9291610160880160405260018060a01b0316875260018060a01b0316602087015216604085015260020b606084015260020b60808301528260a08301528560c08301526101043560e08301526101243561010083015260018060a01b03166101208201526101643561014082015261014060405191634418b22b60e11b835260018060a01b03815116600484015260018060a01b03602082015116602484015262ffffff6040820151166044840152606081015160020b6064840152608081015160020b608484015260a081015160a484015260c081015160c484015260e081015160e484015261010081015161010484015260018060a01b03610120820151166101248401520151610144820152608081610164818960018060a01b037f0000000000000000000000000000000000000000000000000000000000000000165af193841561062757869187956106ad575b50808210610583575b505050808210610446578380f35b61045592821061054d576110a7565b61045d6110c8565b80610510575b156104f957817f00000000000000000000000000000000000000000000000000000000000000006001600160a01b0316803b156104ea57818091602460405180948193632e1a7d4d60e01b83528860048401525af180156104ee576104d6575b50506104cf90336114f4565b5f80808380f35b6104df90611034565b6104ea57815f6104c3565b5080fd5b6040513d84823e3d90fd5b61050b903361050661101e565b6112e3565b6104cf565b5061051961101e565b7f00000000000000000000000000000000000000000000000000000000000000006001600160a01b03908116911614610463565b61057e7f000000000000000000000000000000000000000000000000000000000000000061057961101e565b6113a6565b6110a7565b610592928210610681576110a7565b61059a6110c8565b80610644575b1561063257847f00000000000000000000000000000000000000000000000000000000000000006001600160a01b0316803b156104ea578190602460405180948193632e1a7d4d60e01b83528760048401525af1801561062757610612575b5061060a90336114f4565b5f8080610438565b9461062061060a9296611034565b94906105ff565b6040513d88823e3d90fd5b61063f9033610506611008565b61060a565b5061064d611008565b7f00000000000000000000000000000000000000000000000000000000000000006001600160a01b039081169116146105a0565b61057e7f0000000000000000000000000000000000000000000000000000000000000000610579611008565b915093506080813d8211610703575b816106c960809383611078565b810103126106ff5760208101516fffffffffffffffffffffffffffffffff8116036106ff5760606040820151910151935f61042f565b8580fd5b3d91506106bc565b634e487b7160e01b8c52604160045260248cfd5b8a80fd5b8980fd5b8880fd5b8780fd5b9150506040813d604011610761575b8161074b60409383611078565b810103126104ea5760208151910151905f6101db565b3d915061073e565b6020813d60201161079a575b8161078260209383611078565b810103126104ea576107939061109a565b505f61019c565b3d9150610775565b60405162461bcd60e51b815260206004820152601460248201527350657263656e7461676520746f6f206c6172676560601b6044820152606490fd5b60405162461bcd60e51b815260206004820152601460248201527314195c98d95b9d1859d9481d1bdbc81cdb585b1b60621b6044820152606490fd5b80fd5b503461081a578060031936011261081a576040517f00000000000000000000000000000000000000000000000000000000000000006001600160a01b03168152602090f35b5061086c36610f58565b604051636eb1769f60e11b81523360048201523060248201529094919391906020816044816001600160a01b038b165afa80156108fd57829189916108c9575b50106108b6578680f35b6108bf956111f5565b5f80808080808680f35b9150506020813d82116108f5575b816108e460209383611078565b8101031261072b578190515f6108ac565b3d91506108d7565b6040513d8a823e3d90fd5b503461081a578060031936011261081a576040517f00000000000000000000000000000000000000000000000000000000000000006001600160a01b03168152602090f35b506020806003193601126104ea5760043567ffffffffffffffff9283821161081a573660238301121561081a578160040135918483116104ea57602490600595368386891b84010111610b6a576109a585929561113c565b946109b36040519687611078565b8286526109bf8361113c565b601f190187865b828110610b6e57505050368190036042190190855b848110610a42575050505050506040519280840190808552835180925280604083818801981b870101940192955b828710610a165785850386f35b909192938280610a32600193603f198a82030186528851610fbd565b9601920196019592919092610a09565b85818b1b830101358381121561072b57820186810135858111610727576044809201813603811361072357818a92918392604051928392833781018381520390305af490610a8e611170565b9115610ace5750610a9f828a61119f565b52610aaa818961119f565b505f198114610abb576001016109db565b634e487b7160e01b875260116004528587fd5b818982888e948c965110610b665760048401518401938581888701960312610b6a5786810151918211610b6a57019083604383011215610b66578582015192610b1684611154565b94610b246040519687611078565b84865282858501011161081a575091610b4691849386610b6296019101610f9c565b60405193849362461bcd60e51b85526004850152830190610fbd565b0390fd5b8280fd5b8380fd5b60608982018301528991016109c6565b50610b8836610f58565b604051636eb1769f60e11b81523360048201523060248201529094919391906020816044816001600160a01b038b165afa9081156108fd578891610bdc575b505f1911610bd3578680f35b6108bf95611273565b90506020813d8211610c05575b81610bf660209383611078565b8101031261072b57515f610bc7565b3d9150610be9565b5060a036600319011261081a576004356001600160a01b0381811692918390036104ea576024359181831680930361081a576044359262ffffff84168094036104ea5760643590838216809203610b665760843595861515809703610b6a5781811015610b6a57847f00000000000000000000000000000000000000000000000000000000000000001660405197630b4c774160e11b89528260048a01528360248a01528760448a01526020988981606481865afa908115610eef57908a95949392918891610ed2575b5080891680610dab5750506084929187916040519a8b968795635a31811b60e01b875260048701526024860152604485015260648401525af19384156104ee578294610d7c575b5082841690813b15610b6657829160248392604051958693849263f637731d60e01b845260048401525af1908115610d705750610d61575b505b60405191168152f35b610d6a90611034565b5f610d56565b604051903d90823e3d90fd5b610d9d919450853d8711610da4575b610d958183611078565b8101906111c7565b925f610d1e565b503d610d8b565b969550985050505050604051633850c7bd60e01b815260e081600481865afa908115610ec7579085918591610e34575b501615610deb575b505050610d58565b813b15610b6657829160248392604051958693849263f637731d60e01b845260048401525af1908115610d705750610e25575b8080610de3565b610e2e90611034565b5f610e1e565b91505060e0813d60e011610ebf575b81610e5060e09383611078565b81010312610b6a578051908582168203610ebb57878101518060020b03610ebb57610e7d604082016111e6565b50610e8a606082016111e6565b50610e97608082016111e6565b5060a081015160ff811603610ebb5790610eb460c087930161109a565b505f610ddb565b8480fd5b3d9150610e43565b6040513d86823e3d90fd5b610ee99150863d8811610da457610d958183611078565b5f610cd7565b6040513d89823e3d90fd5b503461081a578060031936011261081a576040517f00000000000000000000000000000000000000000000000000000000000000006001600160a01b03168152602090f35b5061010c610f4c36610f58565b94939093929192611273565b60c0906003190112610f98576004356001600160a01b0381168103610f985790602435906044359060643560ff81168103610f9857906084359060a43590565b5f80fd5b5f5b838110610fad5750505f910152565b8181015183820152602001610f9e565b90602091610fd681518092818552858086019101610f9c565b601f01601f1916010190565b60443560ff81168103610f985790565b6004356001600160a01b0381168103610f985790565b6064356001600160a01b0381168103610f985790565b6084356001600160a01b0381168103610f985790565b67ffffffffffffffff811161104857604052565b634e487b7160e01b5f52604160045260245ffd5b6080810190811067ffffffffffffffff82111761104857604052565b90601f8019910116810190811067ffffffffffffffff82111761104857604052565b51908115158203610f9857565b919082039182116110b457565b634e487b7160e01b5f52601160045260245ffd5b610184358015158103610f985790565b91905f925f9181159182156110f2575b50501561081a5750565b9080929550810290810490818314861715611128579461111457145f806110e8565b634e487b7160e01b83526012600452602483fd5b634e487b7160e01b84526011600452602484fd5b67ffffffffffffffff81116110485760051b60200190565b67ffffffffffffffff811161104857601f01601f191660200190565b3d1561119a573d9061118182611154565b9161118f6040519384611078565b82523d5f602084013e565b606090565b80518210156111b35760209160051b010190565b634e487b7160e01b5f52603260045260245ffd5b90816020910312610f9857516001600160a01b0381168103610f985790565b519061ffff82168203610f9857565b92946001600160a01b0390931693919291843b15610f98575f9460e493869260ff604051998a98899763d505accf60e01b89523360048a01523060248a01526044890152606488015216608486015260a485015260c48401525af180156112685761125d5750565b61126690611034565b565b6040513d5f823e3d90fd5b92946001600160a01b0390931693919291843b15610f98575f9461010493869260ff604051998a9889976323f2ebc360e21b89523360048a01523060248a015260448901526064880152600160848801521660a486015260c485015260e48401525af180156112685761125d5750565b60405163a9059cbb60e01b602082019081526001600160a01b03909316602482015260448101939093525f92839290839061132b81606481015b03601f198101835282611078565b51925af1611337611170565b8161136f575b501561134557565b60405162461bcd60e51b815260206004820152600260248201526114d560f21b6044820152606490fd5b8051801592508215611384575b50505f61133d565b8192509060209181010312610f9857602061139f910161109a565b5f8061137c565b90604051602081019163095ea7b360e01b835260018060a01b031660248201525f928392838381604481960152604481526113e08161105c565b51925af1906113ed611170565b82611426575b5050156113fc57565b60405162461bcd60e51b8152602060048201526002602482015261534160f01b6044820152606490fd5b8091925051918215928315611440575b5050505f806113f3565b82935091602091928101031261081a5750602061145d910161109a565b5f8080611436565b60405163095ea7b360e01b602082019081526001600160a01b03909316602482015260448101939093525f9283929083906114a3816064810161131d565b51925af16114af611170565b816114bd575b50156113fc57565b80518015925082156114d2575b50505f6114b5565b8192509060209181010312610f985760206114ed910161109a565b5f806114ca565b604051602081019080821067ffffffffffffffff831117611048575f938493848094938194604052525af1611527611170565b501561152f57565b60405162461bcd60e51b815260206004820152600360248201526253544560e81b6044820152606490fdfea2646970667358221220dea315375a7e930851e454f3cb21ed406a5cfc99e98a5c604699770c6ee203a664736f6c63430008150033",
    "linkReferences": {}
  },
  "methodIdentifiers": {
    "WETH9()": "4aa4a4fc",
    "createAndInitializePoolIfNecessary(address,address,uint24,uint160,bool)": "7dbeb4c4",
    "factory()": "c45a0155",
    "migrate((address,uint256,uint8,address,address,uint24,int24,int24,uint256,uint256,address,uint256,bool))": "d44f2bf2",
    "multicall(bytes[])": "ac9650d8",
    "nonfungiblePositionManager()": "b44a2722",
    "selfPermit(address,uint256,uint256,uint8,bytes32,bytes32)": "f3995c67",
    "selfPermitAllowed(address,uint256,uint256,uint8,bytes32,bytes32)": "4659a494",
    "selfPermitAllowedIfNecessary(address,uint256,uint256,uint8,bytes32,bytes32)": "a4a78f0c",
    "selfPermitIfNecessary(address,uint256,uint256,uint8,bytes32,bytes32)": "c2e3140a"
  },
  "id": 54
}