{"abi":[{"type":"constructor","inputs":[{"name":"_factory","type":"address","internalType":"address"},{"name":"_WETH9","type":"address","internalType":"address"},{"name":"_nonfungiblePositionManager","type":"address","internalType":"address"}],"stateMutability":"nonpayable"},{"type":"receive","stateMutability":"payable"},{"type":"function","name":"WETH9","inputs":[],"outputs":[{"name":"","type":"address","internalType":"address"}],"stateMutability":"view"},{"type":"function","name":"createAndInitializePoolIfNecessary","inputs":[{"name":"token0","type":"address","internalType":"address"},{"name":"token1","type":"address","internalType":"address"},{"name":"fee","type":"uint24","internalType":"uint24"},{"name":"sqrtPriceX96","type":"uint160","internalType":"uint160"}],"outputs":[{"name":"pool","type":"address","internalType":"address"}],"stateMutability":"payable"},{"type":"function","name":"factory","inputs":[],"outputs":[{"name":"","type":"address","internalType":"address"}],"stateMutability":"view"},{"type":"function","name":"migrate","inputs":[{"name":"params","type":"tuple","internalType":"struct IV3Migrator.MigrateParams","components":[{"name":"pair","type":"address","internalType":"address"},{"name":"liquidityToMigrate","type":"uint256","internalType":"uint256"},{"name":"percentageToMigrate","type":"uint8","internalType":"uint8"},{"name":"token0","type":"address","internalType":"address"},{"name":"token1","type":"address","internalType":"address"},{"name":"fee","type":"uint24","internalType":"uint24"},{"name":"tickLower","type":"int24","internalType":"int24"},{"name":"tickUpper","type":"int24","internalType":"int24"},{"name":"amount0Min","type":"uint256","internalType":"uint256"},{"name":"amount1Min","type":"uint256","internalType":"uint256"},{"name":"recipient","type":"address","internalType":"address"},{"name":"deadline","type":"uint256","internalType":"uint256"},{"name":"refundAsETH","type":"bool","internalType":"bool"}]}],"outputs":[],"stateMutability":"nonpayable"},{"type":"function","name":"multicall","inputs":[{"name":"data","type":"bytes[]","internalType":"bytes[]"}],"outputs":[{"name":"results","type":"bytes[]","internalType":"bytes[]"}],"stateMutability":"payable"},{"type":"function","name":"nonfungiblePositionManager","inputs":[],"outputs":[{"name":"","type":"address","internalType":"address"}],"stateMutability":"view"},{"type":"function","name":"selfPermit","inputs":[{"name":"token","type":"address","internalType":"address"},{"name":"value","type":"uint256","internalType":"uint256"},{"name":"deadline","type":"uint256","internalType":"uint256"},{"name":"v","type":"uint8","internalType":"uint8"},{"name":"r","type":"bytes32","internalType":"bytes32"},{"name":"s","type":"bytes32","internalType":"bytes32"}],"outputs":[],"stateMutability":"payable"},{"type":"function","name":"selfPermitAllowed","inputs":[{"name":"token","type":"address","internalType":"address"},{"name":"nonce","type":"uint256","internalType":"uint256"},{"name":"expiry","type":"uint256","internalType":"uint256"},{"name":"v","type":"uint8","internalType":"uint8"},{"name":"r","type":"bytes32","internalType":"bytes32"},{"name":"s","type":"bytes32","internalType":"bytes32"}],"outputs":[],"stateMutability":"payable"},{"type":"function","name":"selfPermitAllowedIfNecessary","inputs":[{"name":"token","type":"address","internalType":"address"},{"name":"nonce","type":"uint256","internalType":"uint256"},{"name":"expiry","type":"uint256","internalType":"uint256"},{"name":"v","type":"uint8","internalType":"uint8"},{"name":"r","type":"bytes32","internalType":"bytes32"},{"name":"s","type":"bytes32","internalType":"bytes32"}],"outputs":[],"stateMutability":"payable"},{"type":"function","name":"selfPermitIfNecessary","inputs":[{"name":"token","type":"address","internalType":"address"},{"name":"value","type":"uint256","internalType":"uint256"},{"name":"deadline","type":"uint256","internalType":"uint256"},{"name":"v","type":"uint8","internalType":"uint8"},{"name":"r","type":"bytes32","internalType":"bytes32"},{"name":"s","type":"bytes32","internalType":"bytes32"}],"outputs":[],"stateMutability":"payable"}],"bytecode":{"object":"0x60e0346100e057601f61157e38819003918201601f19168301916001600160401b038311848410176100e4578084926060946040528339810103126100e057610047816100f8565b906100606040610059602084016100f8565b92016100f8565b9160805260a05260c052604051611471908161010d823960805181818161081f0152610c94015260a051818181601c0152818161046a0152818161051a015281816105a6015281816106520152610bc9015260c0518181816102120152818161023d015281816103fc015281816105510152818161068901526108f40152f35b5f80fd5b634e487b7160e01b5f52604160045260245ffd5b51906001600160a01b03821682036100e05756fe608080604052600436101561007d575b50361561001a575f80fd5b7f00000000000000000000000000000000000000000000000000000000000000006001600160a01b0316330361004c57005b60405162461bcd60e51b81526020600482015260096024820152684e6f7420574554483960b81b6044820152606490fd5b5f905f3560e01c90816313ead56214610c10575080634659a49414610bf85780634aa4a4fc14610bb4578063a4a78f0c14610b27578063ac9650d814610923578063b44a2722146108df578063c2e3140a1461084e578063c45a01551461080a578063d44f2bf21461010e5763f3995c670361000f5761010b6100ff36610ecd565b94939093929192611169565b80f35b5034610631576101a03660031901126106315760ff61012b6110e6565b16156107ce57606460ff61013d6110e6565b1611610792575f60206001600160a01b036101566110f6565b1660646101616110f6565b60405194859384926323b872dd60e01b845233600485015260018060a01b0316602484015260243560448401525af1801561062657610759575b505f60406001600160a01b036101af6110f6565b16602482518094819363226bf2d160e21b83523060048401525af1908115610626575f905f9261071f575b5060646101f160ff6101ea6110e6565b16836111d1565b0491606461020260ff6101ea6110e6565b04926102378161021061110c565b7f0000000000000000000000000000000000000000000000000000000000000000906112d4565b610269847f0000000000000000000000000000000000000000000000000000000000000000610264611122565b6112d4565b61027161110c565b610279611122565b9060a4359062ffffff821682036106315760c4358060020b81036106315760e435918260020b83036106315761014435936001600160a01b038516850361063157604051958661016081011067ffffffffffffffff6101608901111761070b5762ffffff92610160880160405260018060a01b0316875260018060a01b0316602087015216604085015260020b606084015260020b60808301528260a08301528560c08301526101043560e08301526101243561010083015260018060a01b03166101208201526101643561014082015261014060405191634418b22b60e11b835260018060a01b03815116600484015260018060a01b03602082015116602484015262ffffff6040820151166044840152606081015160020b6064840152608081015160020b608484015260a081015160a484015260c081015160c484015260e081015160e484015261010081015161010484015260018060a01b03610120820151166101248401520151610144820152608081610164815f60018060a01b037f0000000000000000000000000000000000000000000000000000000000000000165af1938415610626575f915f956106b0575b50808210610582575b505050808210610445578380f35b61045492821061054c57611138565b61045c611159565b8061050f575b156104f857817f00000000000000000000000000000000000000000000000000000000000000006001600160a01b0316803b156104e957818091602460405180948193632e1a7d4d60e01b83528860048401525af180156104ed576104d5575b50506104ce90336113d5565b5f80808380f35b6104de90610f53565b6104e957815f6104c2565b5080fd5b6040513d84823e3d90fd5b61050a9033610505611122565b61131c565b6104ce565b50610518611122565b7f00000000000000000000000000000000000000000000000000000000000000006001600160a01b03908116911614610462565b61057d7f0000000000000000000000000000000000000000000000000000000000000000610578611122565b61121d565b611138565b61059192821061068457611138565b610599611159565b80610647575b15610635577f00000000000000000000000000000000000000000000000000000000000000006001600160a01b0316803b15610631575f8091602460405180948193632e1a7d4d60e01b83528760048401525af1801561062657610611575b5061060990336113d5565b5f8080610437565b61061c919550610f53565b5f936106096105fe565b6040513d5f823e3d90fd5b5f80fd5b610642903361050561110c565b610609565b5061065061110c565b7f00000000000000000000000000000000000000000000000000000000000000006001600160a01b0390811691161461059f565b61057d7f000000000000000000000000000000000000000000000000000000000000000061057861110c565b915093506080813d608011610703575b816106cd60809383610f83565b810103126106315760208101516fffffffffffffffffffffffffffffffff8116036106315760606040820151910151935f61042e565b3d91506106c0565b634e487b7160e01b5f52604160045260245ffd5b9150506040813d604011610751575b8161073b60409383610f83565b810103126106315760208151910151905f6101da565b3d915061072e565b6020813d60201161078a575b8161077260209383610f83565b810103126106315761078390610fd3565b505f61019b565b3d9150610765565b60405162461bcd60e51b815260206004820152601460248201527350657263656e7461676520746f6f206c6172676560601b6044820152606490fd5b60405162461bcd60e51b815260206004820152601460248201527314195c98d95b9d1859d9481d1bdbc81cdb585b1b60621b6044820152606490fd5b34610631575f366003190112610631576040517f00000000000000000000000000000000000000000000000000000000000000006001600160a01b03168152602090f35b61085736610ecd565b604051636eb1769f60e11b81523360048201523060248201529094919391906020816044816001600160a01b038b165afa80156106265782915f916108aa575b501061089f57005b6108a895611169565b005b9150506020813d6020116108d7575b816108c660209383610f83565b810103126106315781905188610897565b3d91506108b9565b34610631575f366003190112610631576040517f00000000000000000000000000000000000000000000000000000000000000006001600160a01b03168152602090f35b6020806003193601126106315760043567ffffffffffffffff80821161063157366023830112156106315781600401358181116106315760249160059136848260051b8701011161063157916109788361105b565b946109866040519687610f83565b8386526109928461105b565b601f1901875f5b828110610b18575050503681900360421901915f5b858110610a1257604080518a81528951818c018190525f92600582901b83018101918c8e01918e9085015b8287106109e65785850386f35b909192938280610a02600193603f198a82030186528851610f2e565b96019201960195929190926109d9565b8681831b840101358481121561063157830187810135868111610631576044809201813603811361063157815f92918392604051928392833781018381520390305af490610a5e61108f565b9115610a85575090600191610a73828b6110be565b52610a7e818a6110be565b50016109ae565b8082888d938c95511061063157600482015182019184818785019403126106315785810151918211610631570191816043840112156106315784830151610acb81611073565b92610ad96040519485610f83565b81845282828601011161063157610b1493610af8928685019101610f0d565b60405193849362461bcd60e51b85526004850152830190610f2e565b0390fd5b60608982018301528101610999565b610b3036610ecd565b604051636eb1769f60e11b81523360048201523060248201529094919391906020816044816001600160a01b038b165afa908115610626575f91610b82575b505f1911610b7957005b6108a895610fe0565b90506020813d602011610bac575b81610b9d60209383610f83565b81010312610631575187610b6f565b3d9150610b90565b34610631575f366003190112610631576040517f00000000000000000000000000000000000000000000000000000000000000006001600160a01b03168152602090f35b6108a8610c0436610ecd565b94939093929192610fe0565b6080366003190112610631576004356001600160a01b038082168083036106315760243593828516808603610631576044359062ffffff82168203610631576064359385851680950361063157101561063157630b4c774160e11b82526001600160a01b0385811660048401528616602483015262ffffff811660448301526020957f00000000000000000000000000000000000000000000000000000000000000008516908784606481855afa80156106265788945f91610eb0575b5080871680610da157505060405163a167129560e01b81526001600160a01b0397881660048201529616602487015262ffffff919091166044860152849060649082905f905af1928315610626575f93610d72575b5081831690813b15610631575f9160248392604051948593849263f637731d60e01b845260048401525af1801561062657610d63575b505b60405191168152f35b610d6c90610f53565b83610d58565b610d93919350843d8611610d9a575b610d8b8183610f83565b810190610fa5565b9184610d22565b503d610d81565b9594509650505050604051633850c7bd60e01b815260e081600481865afa80156106265784915f91610e23575b501615610ddd575b5050610d5a565b813b15610631575f9160248392604051948593849263f637731d60e01b845260048401525af1801561062657610e14575b80610dd6565b610e1d90610f53565b83610e0e565b91505060e0813d60e011610ea8575b81610e3f60e09383610f83565b81010312610631578051848116810361063157868201518060020b0361063157610e6b60408301610fc4565b50610e7860608301610fc4565b50610e8560808301610fc4565b5060a082015160ff81160361063157610ea160c0869301610fd3565b5087610dce565b3d9150610e32565b610ec79150853d8711610d9a57610d8b8183610f83565b89610ccd565b60c0906003190112610631576004356001600160a01b03811681036106315790602435906044359060643560ff8116810361063157906084359060a43590565b5f5b838110610f1e5750505f910152565b8181015183820152602001610f0f565b90602091610f4781518092818552858086019101610f0d565b601f01601f1916010190565b67ffffffffffffffff811161070b57604052565b6080810190811067ffffffffffffffff82111761070b57604052565b90601f8019910116810190811067ffffffffffffffff82111761070b57604052565b9081602091031261063157516001600160a01b03811681036106315790565b519061ffff8216820361063157565b5190811515820361063157565b92946001600160a01b0390931693919291843b15610631575f9461010493869260ff604051998a9889976323f2ebc360e21b89523360048a01523060248a015260448901526064880152600160848801521660a486015260c485015260e48401525af18015610626576110505750565b61105990610f53565b565b67ffffffffffffffff811161070b5760051b60200190565b67ffffffffffffffff811161070b57601f01601f191660200190565b3d156110b9573d906110a082611073565b916110ae6040519384610f83565b82523d5f602084013e565b606090565b80518210156110d25760209160051b010190565b634e487b7160e01b5f52603260045260245ffd5b60443560ff811681036106315790565b6004356001600160a01b03811681036106315790565b6064356001600160a01b03811681036106315790565b6084356001600160a01b03811681036106315790565b9190820391821161114557565b634e487b7160e01b5f52601160045260245ffd5b6101843580151581036106315790565b92946001600160a01b0390931693919291843b15610631575f9460e493869260ff604051998a98899763d505accf60e01b89523360048a01523060248a01526044890152606488015216608486015260a485015260c48401525af18015610626576110505750565b5f929181159182156111e7575b50501561063157565b9080929450810290810490818314851715611145579361120957145f806111de565b634e487b7160e01b5f52601260045260245ffd5b60405163095ea7b360e01b602082019081526001600160a01b0390931660248201525f6044808301829052825292839291839061125981610f67565b51925af161126561108f565b8161129d575b501561127357565b60405162461bcd60e51b8152602060048201526002602482015261534160f01b6044820152606490fd5b80518015925082156112b2575b50505f61126b565b81925090602091810103126106315760206112cd9101610fd3565b5f806112aa565b60405163095ea7b360e01b602082019081526001600160a01b03909316602482015260448101939093525f92839290839061125981606481015b03601f198101835282610f83565b60405163a9059cbb60e01b602082019081526001600160a01b03909316602482015260448101939093525f92839290839061135a816064810161130e565b51925af161136661108f565b8161139e575b501561137457565b60405162461bcd60e51b815260206004820152600260248201526114d560f21b6044820152606490fd5b80518015925082156113b3575b50505f61136c565b81925090602091810103126106315760206113ce9101610fd3565b5f806113ab565b604051602081019080821067ffffffffffffffff83111761070b575f938493848094938194604052525af161140861108f565b501561141057565b60405162461bcd60e51b815260206004820152600360248201526253544560e81b6044820152606490fdfea26469706673582212202c42d6b1e4aaaaa31e63265b83c736f764e400287fca362bbb16120fad80b52764736f6c63430008180033","linkReferences":{}},"methodIdentifiers":{"WETH9()":"4aa4a4fc","createAndInitializePoolIfNecessary(address,address,uint24,uint160)":"13ead562","factory()":"c45a0155","migrate((address,uint256,uint8,address,address,uint24,int24,int24,uint256,uint256,address,uint256,bool))":"d44f2bf2","multicall(bytes[])":"ac9650d8","nonfungiblePositionManager()":"b44a2722","selfPermit(address,uint256,uint256,uint8,bytes32,bytes32)":"f3995c67","selfPermitAllowed(address,uint256,uint256,uint8,bytes32,bytes32)":"4659a494","selfPermitAllowedIfNecessary(address,uint256,uint256,uint8,bytes32,bytes32)":"a4a78f0c","selfPermitIfNecessary(address,uint256,uint256,uint8,bytes32,bytes32)":"c2e3140a"},"id":91}